{
  "abi": [
    {
      "inputs": [
        {
          "internalType": "address",
          "name": "",
          "type": "address"
        },
        {
          "internalType": "uint16",
          "name": "slot",
          "type": "uint16"
        }
      ],
      "name": "acceptCrocProxyRole",
      "outputs": [
        {
          "internalType": "bool",
          "name": "",
          "type": "bool"
        }
      ],
      "stateMutability": "pure",
      "type": "function"
    },
    {
      "inputs": [
        {
          "internalType": "bytes32",
          "name": "poolIdx",
          "type": "bytes32"
        },
        {
          "internalType": "uint32[]",
          "name": "weeksToClaim",
          "type": "uint32[]"
        }
      ],
      "name": "claimAmbientRewards",
      "outputs": [],
      "stateMutability": "payable",
      "type": "function"
    },
    {
      "inputs": [
        {
          "internalType": "bytes32",
          "name": "poolIdx",
          "type": "bytes32"
        },
        {
          "internalType": "int24",
          "name": "lowerTick",
          "type": "int24"
        },
        {
          "internalType": "int24",
          "name": "upperTick",
          "type": "int24"
        },
        {
          "internalType": "uint32[]",
          "name": "weeksToClaim",
          "type": "uint32[]"
        }
      ],
      "name": "claimConcentratedRewards",
      "outputs": [],
      "stateMutability": "payable",
      "type": "function"
    },
    {
      "inputs": [
        {
          "internalType": "bytes",
          "name": "cmd",
          "type": "bytes"
        }
      ],
      "name": "protocolCmd",
      "outputs": [],
      "stateMutability": "nonpayable",
      "type": "function"
    },
    {
      "inputs": [
        {
          "internalType": "bytes32",
          "name": "poolIdx",
          "type": "bytes32"
        },
        {
          "internalType": "uint32",
          "name": "weekFrom",
          "type": "uint32"
        },
        {
          "internalType": "uint32",
          "name": "weekTo",
          "type": "uint32"
        },
        {
          "internalType": "uint64",
          "name": "weeklyReward",
          "type": "uint64"
        }
      ],
      "name": "setAmbRewards",
      "outputs": [],
      "stateMutability": "payable",
      "type": "function"
    },
    {
      "inputs": [
        {
          "internalType": "bytes32",
          "name": "poolIdx",
          "type": "bytes32"
        },
        {
          "internalType": "uint32",
          "name": "weekFrom",
          "type": "uint32"
        },
        {
          "internalType": "uint32",
          "name": "weekTo",
          "type": "uint32"
        },
        {
          "internalType": "uint64",
          "name": "weeklyReward",
          "type": "uint64"
        }
      ],
      "name": "setConcRewards",
      "outputs": [],
      "stateMutability": "payable",
      "type": "function"
    },
    {
      "inputs": [
        {
          "internalType": "bytes",
          "name": "input",
          "type": "bytes"
        }
      ],
      "name": "userCmd",
      "outputs": [],
      "stateMutability": "payable",
      "type": "function"
    }
  ],
  "bytecode": {
    "object": "0x6080806040523461002b5762010011805460ff60e01b1916600160e71b17905561171790816100318239f35b600080fdfe60406101e0815260048036101561001557600080fd5b600090813560e01c80630d5a6e5f146103935780631e1af06f1461035e57806381c7137114610309578063ac54c0fc146102c8578063b6701980146101f4578063c6cfd1ba146101de5763f96dc7881461006e57600080fd5b610077366104ee565b819291019060c0838303126101da5761008f83610537565b6020840135906100a08786016104e0565b926100ad606087016104e0565b9460808701356001600160401b0381116101d65760a06100d460ff936100db938b01610472565b98016103a9565b9216606581036100f6575050506100f3949550610545565b80f35b929491939192606681036101145750505050506100f39293506108ee565b606791929496509492941460001461019c576101328484843361169e565b8287526201001a60205287872090875260205263ffffffff87872054161561016157506100f394955033610f6b565b606490602088519162461bcd60e51b835282015260156024820152742737b716b2bc34b9ba34b733903837b9b4ba34b7b760591b6044820152fd5b606490602088519162461bcd60e51b83528201526014602482015273125b9d985b1a59081d5cd95c8818dbdb5b585b9960621b6044820152fd5b8880fd5b8380fd5b826100f36101eb366103bf565b92919091610e13565b50346102c45760a0610205366104ee565b90809291810103126102c05761021a81610537565b91602082013561022b8684016103a9565b91608061023a606086016103a9565b940135946001600160401b03861686036102bc5760ff16607581036102665750506100f3949550610d88565b60760361027957506100f3949550610e13565b606490602088519162461bcd60e51b8352820152601860248201527f496e76616c69642070726f746f636f6c20636f6d6d616e6400000000000000006044820152fd5b8680fd5b8280fd5b5080fd5b50346102c457826003193601126102c457356001600160a01b03811603610306576024359061ffff8216809203610306575060086020925191148152f35b80fd5b5060803660031901126102c457602435908160020b82036102c0576044358060020b81036101da57606435926001600160401b03841161035a576103536100f39436908501610472565b9235610545565b8480fd5b50826003193601126102c457602435906001600160401b0382116102c05761038c6100f39236908301610472565b90356108ee565b826100f36103a0366103bf565b92919091610d88565b359063ffffffff821682036103ba57565b600080fd5b60809060031901126103ba576004359063ffffffff9060243582811681036103ba579160443590811681036103ba57906064356001600160401b03811681036103ba5790565b60a081019081106001600160401b0382111761042057604052565b634e487b7160e01b600052604160045260246000fd5b606081019081106001600160401b0382111761042057604052565b90601f801991011681019081106001600160401b0382111761042057604052565b9080601f830112156103ba578135906001600160401b038211610420578160051b604051936020936104a685840187610451565b855283808601928201019283116103ba578301905b8282106104c9575050505090565b8380916104d5846103a9565b8152019101906104bb565b35908160020b82036103ba57565b9060206003198301126103ba576004356001600160401b03928382116103ba57806023830112156103ba5781600401359384116103ba57602484830101116103ba576024019190565b359060ff821682036103ba57565b939291909361055d63ffffffff421683878433610f6b565b806000526201000f602052604060002060405161057981610405565b60018254926001600160801b0393848116845260801c60208401520154906080604082019284811684526001600160401b0381831c16606084015260c01c9101528260005262010017918260205263ffffffff6040600020541691826107f6575b50505081600052602052604060002063ffffffff421663ffffffff198254161790556106088286833361169e565b9160009360005b81518110156107ca5763ffffffff6106278284611544565b511662093a8081018082116107b457610641904211611558565b846000526201001b60205260406000208660005260205260406000208160005260205261067660ff6040600020541615611598565b8460005262010016602052604060002081600052602052604060002054806106dc575b50906106d791856000526201001b6020526040600020876000526020526040600020906000526020526040600020600160ff19825416179055611535565b61060f565b969192600099919695949899916106f281610e87565b925b6106fd8b610eb5565b600290810b85820b1361075b576107559161074f91896000526201001960205260406000208b60005260205260406000208c600052602052866040600020910b60005260205260406000205490610f5e565b93610ea2565b926106f4565b506107ac929593506106d794919b9a969798996107a16107a6928a6000526201001460205260406000208d6000526020526001600160401b036040600020541690610f4b565b610f2b565b90610f5e565b969091610699565b634e487b7160e01b600052601160045260246000fd5b5050505050909150806107da5750565b60008080806107f494335af16107ee6115d6565b50611615565b565b9794919693979592955116955b4263ffffffff821610156108df5762093a80908163ffffffff8216049081838102048314821517156107b4578263ffffffff8216018063ffffffff8316116107b4578390049283818102048114841517156107b4576108c293810263ffffffff1682428210156108c75761087e63ffffffff92918392610ee7565b165b169263ffffffff6108918c86610f4b565b928d6000526201001660205260406000209202166000526020526108bb6040600020918254610f5e565b9055610d70565b610803565b63ffffffff8092506108da91164261165a565b610880565b509295919450923880806105da565b919060008381526020936201000f855260408083209181519661091088610405565b83546001600160801b039889821681528281019160801c8252600180960154908a82168682015260806001600160401b03928381831c16606084015260c01c91015261095c8433611667565b91848852620100209a8b8552868920848a52855263ffffffff9384888b20541680610c25575b508442169c878b528652878a20908a5285528689209163ffffffff19928d84825416179055868a526201001e9182875285898c2054169182610b38575b5050509a879a9b868a528552868920918254161790556109df8433611667565b918798889a5b610a10575b5050505050505050908092506109fe575050565b8080806107f494335af16107ee6115d6565b80518b1015610b335781610a248c83611544565b511662093a808101808211610b1f57610a3e904211611558565b868a5262010021808752888b20868c528752888b20828c528752610a6860ff8a8d20541615611598565b878b526201001d8752888b20828c528752888b205480610abd575b509b610ab5918b9c9d898c9d5288528c878b822091528852898d20908d528752888c208a60ff19825416179055611535565b9a99986109e5565b918b9d9189610b128e9f8e9f610ab5978f8e8d8f92856107a1948a6107a698526201001f855282822090825284528181208c8252845281812054938a8252620100158152828220908d83525220541690610f4b565b9e5050919d9b5091610a83565b634e487b7160e01b8b52601160045260248bfd5b6109ea565b511690895b610b48575b806109bf565b85811642811015610c1f5762093a80908181049180830292808404821490151715610bf757808201808311610c0b57819004818102918183041490151715610bf757928a6108bb8f8f96908f91968e8e8098818981610bdf9d16428110600014610be557610bb7929350610ee7565b165b1697610bc58c8a610f4b565b9684526201001d8252848420921683525220918254610f5e565b90610b3d565b505050610bf2904261165a565b610bb9565b634e487b7160e01b8e52601160045260248efd5b634e487b7160e01b8f52601160045260248ffd5b50610b42565b610c2f8833611667565b8b526201000e8752888b20548316908a5b610c4b575b50610982565b86811642811015610d175762093a80908181049180830292808404821490151715610c0b57808201808311610d0257819004818102918183041490151715610c0b57928b8f8f958f9091610cea968f8f80988189816108bb9916428110600014610cf057610cba929350610ee7565b165b1697610cc88c8a610f4b565b9684526201001f82528484208d85528252848420921683525220918254610f5e565b90610c40565b505050610cfd904261165a565b610cbc565b50634e487b7160e01b8f52601160045260248ffd5b50610c45565b15610d2457565b60405162461bcd60e51b815260206004820152600d60248201526c496e76616c6964207765656b7360981b6044820152606490fd5b9062093a8063ffffffff809316019182116107b457565b91909163ffffffff808094169116019182116107b457565b9092919362093a80610daf63ffffffff918083881606159081610e06575b50959195610d1d565b8481168587168111610dfd576000848152620100146020908152604080832093835292905220805467ffffffffffffffff19166001600160401b038616179055610df890610d59565b610daf565b50509350505050565b9050828816061538610da6565b9092919362093a80610e3963ffffffff918083881606159081610e065750959195610d1d565b8481168587168111610dfd576000848152620100156020908152604080832093835292905220805467ffffffffffffffff19166001600160401b038616179055610e8290610d59565b610e39565b60020b600a0190627fffff8213627fffff198312176107b457565b60020b627fffff81146107b45760010190565b60020b6009190190627fffff198212627fffff8313176107b457565b63ffffffff90811660001901919082116107b457565b63ffffffff91821690821603919082116107b457565b8054821015610f155760005260206000200190600090565b634e487b7160e01b600052603260045260246000fd5b8115610f35570490565b634e487b7160e01b600052601260045260246000fd5b818102929181159184041417156107b457565b919082018092116107b457565b9282610f8c9293948296856101005260e05260018060a01b0316938461169e565b60005262010012602052610fab8383604060002093610100519061169e565b8061016052610100516000526201001a60205260406000209060005260205263ffffffff60406000205416806101805263ffffffff60e05116106114fb5761018051156113bd57546001600160801b03166101405290919061100c90610e87565b60c0525b61101982610eb5565b600290816101205260c051820b910b81136113805761010051806000526201001c60205260406000206101605160005260205260406000208260005260205263ffffffff60406000205416806101a0526101c0526000526201001860205260406000209060005260205263ffffffff6040600020541660a052610180515b63ffffffff60e0511663ffffffff8216108061136c575b156112f2576101005160005262010018602052604060002060c051610120510b6000526020526110e56101a0516040600020610efd565b5090604051918260408101106001600160401b036040850111176104205763ffffffff906040840160405254818116845260201c16602083015262093a80908163ffffffff8216049182818102048114831517156107b4578063ffffffff8316018063ffffffff8416116107b4578190049283828102048214841517156107b45763ffffffff8260e051950216938363ffffffff821686106000146112e45761118f915085610ee7565b9363ffffffff8651168181106111b3575b505050506111ae9250610d70565b611097565b63ffffffff85168110156112d6575063ffffffff602085975b01511680608052801560001461127257506112116111ae9663ffffffff61120b819460e051838116821060001461126b57505b925b6101405193610ee7565b16610f4b565b9261010051600052620100196020526040600020610160516000526020526040600020920216600052602052604060002060c051610120510b6000526020526112606040600020918254610f5e565b9055388080806111a0565b90506111ff565b9594908087116112bc5750508463ffffffff6101a0511663ffffffff81146107b4576111ae9663ffffffff61120b6112b6888396600161121197016101a052610ee7565b98611201565b6111ae965063ffffffff91958261120b6112119392611201565b602063ffffffff91976111cc565b6112ed91610ee7565b61118f565b50906110199063ffffffff6101a051166101c0518103611324575b5061131960c051610ea2565b60c052919050611010565b610100516000526201001c602052604060002061016051600052602052604060002060c051610120510b60005260205260406000209063ffffffff198254161790553861130d565b5060a05163ffffffff6101a05116106110ae565b5090505b610100516000526201001a602052604060002061016051600052602052604060002063ffffffff60e0511663ffffffff19825416179055565b506113c790610e87565b6113d082610eb5565b60029082820b910b81136114f3576113d09161141e916101005180600052620100188060205260406000208360005260205263ffffffff604060002054169182611425575b50505050610ea2565b90506113c7565b60005260205260406000208260005260205263ffffffff611453604060002061144d84610ed1565b90610efd565b505460201c166114b25761146690610ed1565b90610100516000526201001c60205260406000206101605160005260205260406000209060005260205263ffffffff6040600020911663ffffffff198254161790555b38808080611415565b90610100516000526201001c60205260406000206101605160005260205260406000209060005260205260406000209063ffffffff198254161790556114a9565b505050611384565b60405162461bcd60e51b8152602060048201526012602482015271125b9d985b1a59081d1a5b59481b1a5b5a5d60721b6044820152606490fd5b60001981146107b45760010190565b8051821015610f155760209160051b010190565b1561155f57565b60405162461bcd60e51b815260206004820152601160248201527015d9595ac81b9bdd081bdd995c881e595d607a1b6044820152606490fd5b1561159f57565b60405162461bcd60e51b815260206004820152600f60248201526e105b1c9958591e4818db185a5b5959608a1b6044820152606490fd5b3d15611610573d906001600160401b0382116104205760405191611604601f8201601f191660200184610451565b82523d6000602084013e565b606090565b1561161c57565b60405162461bcd60e51b815260206004820152601660248201527514d95b991a5b99c81c995dd85c991cc819985a5b195960521b6044820152606490fd5b919082039182116107b457565b906040519060208201926bffffffffffffffffffffffff199060601b16835260348201526034815261169881610436565b51902090565b9290916040519260208401946bffffffffffffffffffffffff199060601b168552603484015260e81b605483015260e81b6057820152603a81526116988161043656fea2646970667358221220b43c0c3ff7e257c8285b8c669cdc9da7a6cdc0e7a151972af9bfffe9d305db8064736f6c63430008130033",
    "linkReferences": {}
  },
  "methodIdentifiers": {
    "acceptCrocProxyRole(address,uint16)": "ac54c0fc",
    "claimAmbientRewards(bytes32,uint32[])": "1e1af06f",
    "claimConcentratedRewards(bytes32,int24,int24,uint32[])": "81c71371",
    "protocolCmd(bytes)": "b6701980",
    "setAmbRewards(bytes32,uint32,uint32,uint64)": "c6cfd1ba",
    "setConcRewards(bytes32,uint32,uint32,uint64)": "0d5a6e5f",
    "userCmd(bytes)": "f96dc788"
  },
  "id": 6
}