{
  "abi": [
    {
      "inputs": [
        {
          "internalType": "address",
          "name": "",
          "type": "address"
        },
        {
          "internalType": "uint16",
          "name": "slot",
          "type": "uint16"
        }
      ],
      "name": "acceptCrocProxyRole",
      "outputs": [
        {
          "internalType": "bool",
          "name": "",
          "type": "bool"
        }
      ],
      "stateMutability": "pure",
      "type": "function"
    },
    {
      "inputs": [
        {
          "internalType": "bytes32",
          "name": "poolIdx",
          "type": "bytes32"
        },
        {
          "internalType": "uint32[]",
          "name": "weeksToClaim",
          "type": "uint32[]"
        }
      ],
      "name": "claimAmbientRewards",
      "outputs": [],
      "stateMutability": "payable",
      "type": "function"
    },
    {
      "inputs": [
        {
          "internalType": "bytes32",
          "name": "poolIdx",
          "type": "bytes32"
        },
        {
          "internalType": "int24",
          "name": "lowerTick",
          "type": "int24"
        },
        {
          "internalType": "int24",
          "name": "upperTick",
          "type": "int24"
        },
        {
          "internalType": "uint32[]",
          "name": "weeksToClaim",
          "type": "uint32[]"
        }
      ],
      "name": "claimConcentratedRewards",
      "outputs": [],
      "stateMutability": "payable",
      "type": "function"
    },
    {
      "inputs": [
        {
          "internalType": "bytes",
          "name": "cmd",
          "type": "bytes"
        }
      ],
      "name": "protocolCmd",
      "outputs": [],
      "stateMutability": "nonpayable",
      "type": "function"
    },
    {
      "inputs": [
        {
          "internalType": "bytes32",
          "name": "poolIdx",
          "type": "bytes32"
        },
        {
          "internalType": "uint32",
          "name": "weekFrom",
          "type": "uint32"
        },
        {
          "internalType": "uint32",
          "name": "weekTo",
          "type": "uint32"
        },
        {
          "internalType": "uint64",
          "name": "weeklyReward",
          "type": "uint64"
        }
      ],
      "name": "setAmbRewards",
      "outputs": [],
      "stateMutability": "payable",
      "type": "function"
    },
    {
      "inputs": [
        {
          "internalType": "bytes32",
          "name": "poolIdx",
          "type": "bytes32"
        },
        {
          "internalType": "uint32",
          "name": "weekFrom",
          "type": "uint32"
        },
        {
          "internalType": "uint32",
          "name": "weekTo",
          "type": "uint32"
        },
        {
          "internalType": "uint64",
          "name": "weeklyReward",
          "type": "uint64"
        }
      ],
      "name": "setConcRewards",
      "outputs": [],
      "stateMutability": "payable",
      "type": "function"
    },
    {
      "inputs": [
        {
          "internalType": "bytes",
          "name": "input",
          "type": "bytes"
        }
      ],
      "name": "userCmd",
      "outputs": [],
      "stateMutability": "payable",
      "type": "function"
    }
  ],
  "bytecode": {
    "object": "0x6080806040523461002b5762010011805460ff60e01b1916600160e71b17905561163490816100318239f35b600080fdfe6040610160815260048036101561001557600080fd5b600090813560e01c80630d5a6e5f146102f75780631e1af06f146102c257806381c713711461026d578063ac54c0fc1461022c578063b670198014610158578063c6cfd1ba146101425763f96dc7881461006e57600080fd5b61007736610452565b810160a08282031261013e5761008c8261049b565b9260208301359061009e878501610444565b926100ab60608601610444565b946080810135906001600160401b03821161013a57916100ce9160ff93016103d6565b9516606581036100e85750506100e59495506104a9565b80f35b919350915060660361010057506100e5929350610dd5565b606490602086519162461bcd60e51b83528201526014602482015273125b9d985b1a59081d5cd95c8818dbdb5b585b9960621b6044820152fd5b8880fd5b8380fd5b826100e561014f36610323565b929190916112fa565b50346102285760a061016936610452565b90809291810103126102245761017e8161049b565b91602082013561018f86840161030d565b91608061019e6060860161030d565b940135946001600160401b03861686036102205760ff16607581036101ca5750506100e594955061126f565b6076036101dd57506100e59495506112fa565b606490602088519162461bcd60e51b8352820152601860248201527f496e76616c69642070726f746f636f6c20636f6d6d616e6400000000000000006044820152fd5b8680fd5b8280fd5b5080fd5b5034610228578260031936011261022857356001600160a01b0381160361026a576024359061ffff821680920361026a575060086020925191148152f35b80fd5b50608036600319011261022857602435908160020b8203610224576044358060020b810361013e57606435926001600160401b0384116102be576102b76100e594369085016103d6565b92356104a9565b8480fd5b508260031936011261022857602435906001600160401b038211610224576102f06100e592369083016103d6565b9035610dd5565b826100e561030436610323565b9291909161126f565b359063ffffffff8216820361031e57565b600080fd5b608090600319011261031e576004359063ffffffff90602435828116810361031e5791604435908116810361031e57906064356001600160401b038116810361031e5790565b60a081019081106001600160401b0382111761038457604052565b634e487b7160e01b600052604160045260246000fd5b606081019081106001600160401b0382111761038457604052565b90601f801991011681019081106001600160401b0382111761038457604052565b9080601f8301121561031e578135906001600160401b038211610384578160051b6040519360209361040a858401876103b5565b8552838086019282010192831161031e578301905b82821061042d575050505090565b8380916104398461030d565b81520191019061041f565b35908160020b820361031e57565b90602060031983011261031e576004356001600160401b039283821161031e578060238301121561031e57816004013593841161031e576024848301011161031e576024019190565b359060ff8216820361031e57565b82826104bd92969495968060a052336115bb565b600052620100126020526040600020916104db848360a051336115bb565b806101405260a0516000526201001a60205260406000209060005260205263ffffffff6040600020541692831515600014610c9957546001600160801b03169490939092909161052a81611432565b610100525b61053883611460565b946002958660c05261010051870b960b86136108d85760a05195866000526201001c60205260406000206101405160005260205260406000208160005260205263ffffffff604060002054169687610120526000526201001860205260406000209060005260205263ffffffff60406000205416608052825b4263ffffffff821610806108c4575b1561084b5760a0516000526201001860205260406000206101005160c0510b6000526020526105f661012051604060002061156c565b50604051908160408101106001600160401b036040840111176103845763ffffffff906040830160405254818116835260201c16602082015262093a80918263ffffffff8216049283818102048114841517156107f8578063ffffffff8316018063ffffffff8416116107f85781900480828102048214811517156107f8574281830263ffffffff1610156108355763ffffffff80610699858286860216611556565b165b1693600060e05263ffffffff81511663ffffffff8484021681106106cd575b505050506106c89250611257565b6105b1565b63ffffffff9160209186841681101561082d57508560e0525b0151168c8161079e57505093816106c8958d4263ffffffff84840216106000146107875763ffffffff6107288180809661072e9602165b165b60e05190611556565b1661147c565b9260a05160005262010019602052604060002061014051600052602052604060002092021660005260205260406000206101005160c0510b60005260205261077c60406000209182546113a7565b9055388080806106ba565b63ffffffff80935061072e9250610728814261071d565b9095949183810263ffffffff1687101561080e57505050839263ffffffff61012051169463ffffffff86146107f85761072e8d63ffffffff6107286107f2829560016106c89c016101205260e05190611556565b9861071f565b634e487b7160e01b600052601160045260246000fd5b6106c8965063ffffffff9182610728818761072e959a979a021661071f565b60e0526106e6565b63ffffffff61084681851642611533565b61069b565b50919390929463ffffffff610120511690810361087d575b506108706101005161144d565b610100529290939161052f565b60a0516000526201001c60205260406000206101405160005260205260406000206101005160c0510b60005260205260406000209063ffffffff1982541617905538610863565b5060805163ffffffff6101205116106105c0565b94509450505b60a051806000526201001a602052604060002061014051600052602052604060002063ffffffff421663ffffffff198254161790556000526201000f60205260406000206040519061092f82610369565b60018154916001600160801b0392838116855260801c60208501520154916080604082019383811685526001600160401b0381831c16606084015260c01c91015260a0516000526201001760205263ffffffff604060002054169182610ba3575b5050506109c4818560a0518060005262010017602052604060002063ffffffff421663ffffffff19825416179055336115bb565b9060009260005b8151811015610b785763ffffffff6109e3828461137d565b511662093a8081018082116107f8576109fd9042116113b4565b60a0516000526201001b602052604060002085600052602052604060002081600052602052610a3460ff60406000205416156113f4565b60a0516000526201001660205260406000208160005260205260406000205480610a9e575b5090610a999160a0516000526201001b6020526040600020866000526020526040600020906000526020526040600020600160ff1982541617905561136e565b6109cb565b959192600098919594979891610ab381611432565b925b610abe8a611460565b600290810b85820b13610b1e57610b1891610b129160a0516000526201001960205260406000208a60005260205260406000208b600052602052866040600020910b600052602052604060002054906113a7565b9361144d565b92610ab5565b50610b7092959350610a9994919a99969798610b65610b6a9260a0516000526201001460205260406000208c6000526020526001600160401b03604060002054169061147c565b61148f565b906113a7565b959091610a59565b5050505090915080610b875750565b6000808080610ba194335af1610b9b6114af565b506114ee565b565b9593919492955116935b4263ffffffff82161015610c8b5762093a80908163ffffffff8216049081838102048314821517156107f8578263ffffffff8216018063ffffffff8316116107f8578390049283818102048114841517156107f857610c6e93810263ffffffff168242821015610c7357610c2863ffffffff92918392611556565b165b169263ffffffff610c3b8a8661147c565b9260a051600052620100166020526040600020920216600052602052610c6760406000209182546113a7565b9055611257565b610bad565b63ffffffff809250610c86911642611533565b610c2a565b509193909250388080610990565b509093929150610ca884611432565b610cb183611460565b60029082820b910b8113610dcc5790610cfb9160a05180600052620100188060205260406000208360005260205263ffffffff604060002054169182610d00575b5050505061144d565b610ca8565b60005260205260406000208260005260205263ffffffff610d2e6040600020610d2884611540565b9061156c565b505460201c16610d8c57610d4190611540565b9060a0516000526201001c60205260406000206101405160005260205260406000209060005260205263ffffffff6040600020911663ffffffff198254161790555b38808080610cf2565b9060a0516000526201001c60205260406000206101405160005260205260406000209060005260205260406000209063ffffffff19825416179055610d83565b505091906108de565b919060008381526020936201000f8552604080832091815196610df788610369565b83546001600160801b039889821681528281019160801c8252600180960154908a82168682015260806001600160401b03928381831c16606084015260c01c910152610e438433611584565b91848852620100209a8b8552868920848a52855263ffffffff9384888b2054168061110c575b508442169c878b528652878a20908a5285528689209163ffffffff19928d84825416179055868a526201001e9182875285898c205416918261101f575b5050509a879a9b868a52855286892091825416179055610ec68433611584565b918798889a5b610ef7575b505050505050505090809250610ee5575050565b808080610ba194335af1610b9b6114af565b80518b101561101a5781610f0b8c8361137d565b511662093a80810180821161100657610f259042116113b4565b868a5262010021808752888b20868c528752888b20828c528752610f4f60ff8a8d205416156113f4565b878b526201001d8752888b20828c528752888b205480610fa4575b509b610f9c918b9c9d898c9d5288528c878b822091528852898d20908d528752888c208a60ff1982541617905561136e565b9a9998610ecc565b918b9d9189610ff98e9f8e9f610f9c978f8e8d8f9285610b65948a610b6a98526201001f855282822090825284528181208c8252845281812054938a8252620100158152828220908d8352522054169061147c565b9e5050919d9b5091610f6a565b634e487b7160e01b8b52601160045260248bfd5b610ed1565b511690895b61102f575b80610ea6565b858116428110156111065762093a809081810491808302928084048214901517156110de578082018083116110f2578190048181029181830414901517156110de57928a610c678f8f96908f91968e8e80988189816110c69d164281106000146110cc5761109e929350611556565b165b16976110ac8c8a61147c565b9684526201001d82528484209216835252209182546113a7565b90611024565b5050506110d99042611533565b6110a0565b634e487b7160e01b8e52601160045260248efd5b634e487b7160e01b8f52601160045260248ffd5b50611029565b6111168833611584565b8b526201000e8752888b20548316908a5b611132575b50610e69565b868116428110156111fe5762093a809081810491808302928084048214901517156110f2578082018083116111e9578190048181029181830414901517156110f257928b8f8f958f90916111d1968f8f8098818981610c6799164281106000146111d7576111a1929350611556565b165b16976111af8c8a61147c565b9684526201001f82528484208d855282528484209216835252209182546113a7565b90611127565b5050506111e49042611533565b6111a3565b50634e487b7160e01b8f52601160045260248ffd5b5061112c565b1561120b57565b60405162461bcd60e51b815260206004820152600d60248201526c496e76616c6964207765656b7360981b6044820152606490fd5b9062093a8063ffffffff809316019182116107f857565b91909163ffffffff808094169116019182116107f857565b9092919362093a8061129663ffffffff9180838816061590816112ed575b50959195611204565b84811685871681116112e4576000848152620100146020908152604080832093835292905220805467ffffffffffffffff19166001600160401b0386161790556112df90611240565b611296565b50509350505050565b905082881606153861128d565b9092919362093a8061132063ffffffff9180838816061590816112ed5750959195611204565b84811685871681116112e4576000848152620100156020908152604080832093835292905220805467ffffffffffffffff19166001600160401b03861617905561136990611240565b611320565b60001981146107f85760010190565b80518210156113915760209160051b010190565b634e487b7160e01b600052603260045260246000fd5b919082018092116107f857565b156113bb57565b60405162461bcd60e51b815260206004820152601160248201527015d9595ac81b9bdd081bdd995c881e595d607a1b6044820152606490fd5b156113fb57565b60405162461bcd60e51b815260206004820152600f60248201526e105b1c9958591e4818db185a5b5959608a1b6044820152606490fd5b60020b600a0190627fffff8213627fffff198312176107f857565b60020b627fffff81146107f85760010190565b60020b6009190190627fffff198212627fffff8313176107f857565b818102929181159184041417156107f857565b8115611499570490565b634e487b7160e01b600052601260045260246000fd5b3d156114e9573d906001600160401b03821161038457604051916114dd601f8201601f1916602001846103b5565b82523d6000602084013e565b606090565b156114f557565b60405162461bcd60e51b815260206004820152601660248201527514d95b991a5b99c81c995dd85c991cc819985a5b195960521b6044820152606490fd5b919082039182116107f857565b63ffffffff90811660001901919082116107f857565b63ffffffff91821690821603919082116107f857565b80548210156113915760005260206000200190600090565b906040519060208201926bffffffffffffffffffffffff199060601b1683526034820152603481526115b58161039a565b51902090565b9290916040519260208401946bffffffffffffffffffffffff199060601b168552603484015260e81b605483015260e81b6057820152603a81526115b58161039a56fea2646970667358221220d2cd191dd1c665a31d207d43dc95c593e0643fed02d0272c490022228ed6920364736f6c63430008130033",
    "linkReferences": {}
  },
  "methodIdentifiers": {
    "acceptCrocProxyRole(address,uint16)": "ac54c0fc",
    "claimAmbientRewards(bytes32,uint32[])": "1e1af06f",
    "claimConcentratedRewards(bytes32,int24,int24,uint32[])": "81c71371",
    "protocolCmd(bytes)": "b6701980",
    "setAmbRewards(bytes32,uint32,uint32,uint64)": "c6cfd1ba",
    "setConcRewards(bytes32,uint32,uint32,uint64)": "0d5a6e5f",
    "userCmd(bytes)": "f96dc788"
  },
  "id": 6
}