{
  "abi": [
    {
      "inputs": [
        {
          "internalType": "uint64",
          "name": "x",
          "type": "uint64"
        }
      ],
      "name": "testApproxSqrt",
      "outputs": [
        {
          "internalType": "uint64",
          "name": "",
          "type": "uint64"
        }
      ],
      "stateMutability": "pure",
      "type": "function"
    },
    {
      "inputs": [
        {
          "internalType": "uint128",
          "name": "x",
          "type": "uint128"
        },
        {
          "internalType": "uint64",
          "name": "y",
          "type": "uint64"
        }
      ],
      "name": "testDeflate",
      "outputs": [
        {
          "internalType": "uint128",
          "name": "",
          "type": "uint128"
        }
      ],
      "stateMutability": "pure",
      "type": "function"
    },
    {
      "inputs": [
        {
          "internalType": "uint128",
          "name": "x",
          "type": "uint128"
        },
        {
          "internalType": "uint128",
          "name": "y",
          "type": "uint128"
        }
      ],
      "name": "testDivQ64",
      "outputs": [
        {
          "internalType": "uint256",
          "name": "",
          "type": "uint256"
        }
      ],
      "stateMutability": "pure",
      "type": "function"
    },
    {
      "inputs": [
        {
          "internalType": "uint128",
          "name": "x",
          "type": "uint128"
        },
        {
          "internalType": "uint128",
          "name": "y",
          "type": "uint128"
        }
      ],
      "name": "testDivide",
      "outputs": [
        {
          "internalType": "uint64",
          "name": "",
          "type": "uint64"
        }
      ],
      "stateMutability": "pure",
      "type": "function"
    },
    {
      "inputs": [
        {
          "internalType": "uint128",
          "name": "x",
          "type": "uint128"
        },
        {
          "internalType": "uint64",
          "name": "y",
          "type": "uint64"
        }
      ],
      "name": "testInflate",
      "outputs": [
        {
          "internalType": "uint128",
          "name": "",
          "type": "uint128"
        }
      ],
      "stateMutability": "pure",
      "type": "function"
    },
    {
      "inputs": [
        {
          "internalType": "uint128",
          "name": "x",
          "type": "uint128"
        },
        {
          "internalType": "uint64",
          "name": "y",
          "type": "uint64"
        }
      ],
      "name": "testMulQ48",
      "outputs": [
        {
          "internalType": "uint144",
          "name": "",
          "type": "uint144"
        }
      ],
      "stateMutability": "pure",
      "type": "function"
    },
    {
      "inputs": [
        {
          "internalType": "uint128",
          "name": "x",
          "type": "uint128"
        },
        {
          "internalType": "uint128",
          "name": "y",
          "type": "uint128"
        }
      ],
      "name": "testMulQ64",
      "outputs": [
        {
          "internalType": "uint192",
          "name": "",
          "type": "uint192"
        }
      ],
      "stateMutability": "pure",
      "type": "function"
    },
    {
      "inputs": [
        {
          "internalType": "uint128",
          "name": "price",
          "type": "uint128"
        },
        {
          "internalType": "uint64",
          "name": "growth",
          "type": "uint64"
        },
        {
          "internalType": "bool",
          "name": "up",
          "type": "bool"
        }
      ],
      "name": "testPrice",
      "outputs": [
        {
          "internalType": "uint256",
          "name": "",
          "type": "uint256"
        }
      ],
      "stateMutability": "pure",
      "type": "function"
    },
    {
      "inputs": [
        {
          "internalType": "uint128",
          "name": "x",
          "type": "uint128"
        }
      ],
      "name": "testRecipQ64",
      "outputs": [
        {
          "internalType": "uint128",
          "name": "",
          "type": "uint128"
        }
      ],
      "stateMutability": "pure",
      "type": "function"
    },
    {
      "inputs": [
        {
          "internalType": "uint64",
          "name": "x",
          "type": "uint64"
        },
        {
          "internalType": "uint64",
          "name": "y",
          "type": "uint64"
        }
      ],
      "name": "testShrink",
      "outputs": [
        {
          "internalType": "uint256",
          "name": "",
          "type": "uint256"
        }
      ],
      "stateMutability": "pure",
      "type": "function"
    },
    {
      "inputs": [
        {
          "internalType": "uint64",
          "name": "x",
          "type": "uint64"
        },
        {
          "internalType": "uint64",
          "name": "y",
          "type": "uint64"
        }
      ],
      "name": "testStack",
      "outputs": [
        {
          "internalType": "uint64",
          "name": "",
          "type": "uint64"
        }
      ],
      "stateMutability": "pure",
      "type": "function"
    }
  ],
  "bytecode": {
    "object": "0x60808060405234610016576105cf908161001c8239f35b600080fdfe6080604090808252600436101561001557600080fd5b600090813560e01c9081630bbc436b146103a6575080630f2b20fd14610342578063110c9bcc146102fe5780631621293e146102a25780639c727c401461026b578063cb7c265414610224578063d1978728146101c9578063eaacc4621461018b578063eb09eff31461014d578063f2d98c6f146100f15763fe882fc51461009c57600080fd5b346100ee5760203660031901126100ee576100b56103e6565b67ffffffffffffffff9081811692600160301b8410156100ee5750677fffffffffffffff6020945193800260331c9160011c1603168152f35b80fd5b50903461014957806003193601126101495760209071ffffffffffffffffffffffffffffffffffff610121610419565b6001600160801b0367ffffffffffffffff61013a610402565b9451941691160260301c168152f35b5080fd5b50903461014957806003193601126101495760209061016a610419565b9061017361042f565b918151926001600160801b03809116911602901c8152f35b5090346101495780600319360112610149576020906001600160801b036101c16101b3610419565b6101bb610402565b9061056c565b915191168152f35b5090346101495780600319360112610149576020906101e66103e6565b61021c67ffffffffffffffff916dffffffffffffffff0000000000008361020b610402565b16600160301b019160301b1661047b565b169051908152f35b5090346101495760603660031901126101495761023f610419565b610247610402565b906044359384151585036100ee57506020936001600160801b039261021c9261050d565b50903461014957806003193601126101495760209067ffffffffffffffff6101c1610294610419565b61029c61042f565b9061049b565b509034610149576020366003190112610149576001600160801b03806102c6610419565b1680156102ea57600160801b04918183116102e657602093505191168152f35b8380fd5b634e487b7160e01b84526012600452602484fd5b5090346101495780600319360112610149576020906001600160801b0361021c610326610419565b600160301b600160b01b0367ffffffffffffffff61020b610402565b50903461014957806003193601126101495761035c610419565b906001600160801b0361036d61042f565b1680156102ea5781519290911b77ffffffffffffffffffffffffffffffff000000000000000016046001600160c01b0316815260209150f35b905082346103e2573660031901126101495760209067ffffffffffffffff6103dd6103cf6103e6565b6103d7610402565b90610445565b168152f35b8280fd5b6004359067ffffffffffffffff821682036103fd57565b600080fd5b6024359067ffffffffffffffff821682036103fd57565b600435906001600160801b03821682036103fd57565b602435906001600160801b03821682036103fd57565b67ffffffffffffffff91908216600160301b908101918316010260301c65ffffffffffff190181811015610477571690565b5090565b8115610485570490565b634e487b7160e01b600052601260045260246000fd5b6001600160801b03906001600160d01b038183169081109081610500575b50156103fd5765ffffffffffff19926104e292169060301b600160301b600160b01b031661047b565b01600160301b90818110156104775767ffffffffffffffff91501690565b90508284161115386104b9565b919067ffffffffffffffff16600160301b0190600014610547576001906001600160801b038093160260301c019081169081036103fd5790565b61056890600160301b600160b01b036001600160801b039360301b1661047b565b1690565b67ffffffffffffffff916001600160801b0392839116600160301b0191160260301c81811161047757169056fea2646970667358221220fac08b1338ca90c172c52b4af21e8c092c134679bf331db5954c4efa000bcbc764736f6c63430008130033",
    "linkReferences": {}
  },
  "methodIdentifiers": {
    "testApproxSqrt(uint64)": "fe882fc5",
    "testDeflate(uint128,uint64)": "110c9bcc",
    "testDivQ64(uint128,uint128)": "0f2b20fd",
    "testDivide(uint128,uint128)": "9c727c40",
    "testInflate(uint128,uint64)": "eaacc462",
    "testMulQ48(uint128,uint64)": "f2d98c6f",
    "testMulQ64(uint128,uint128)": "eb09eff3",
    "testPrice(uint128,uint64,bool)": "cb7c2654",
    "testRecipQ64(uint128)": "1621293e",
    "testShrink(uint64,uint64)": "d1978728",
    "testStack(uint64,uint64)": "0bbc436b"
  },
  "id": 71
}