{
  "abi": [
    {
      "inputs": [
        {
          "internalType": "address",
          "name": "dex",
          "type": "address"
        }
      ],
      "stateMutability": "nonpayable",
      "type": "constructor"
    },
    {
      "inputs": [
        {
          "internalType": "address",
          "name": "base",
          "type": "address"
        },
        {
          "internalType": "address",
          "name": "quote",
          "type": "address"
        },
        {
          "internalType": "uint256",
          "name": "poolIdx",
          "type": "uint256"
        },
        {
          "internalType": "bool",
          "name": "isBuy",
          "type": "bool"
        },
        {
          "internalType": "bool",
          "name": "inBaseQty",
          "type": "bool"
        },
        {
          "internalType": "uint128",
          "name": "qty",
          "type": "uint128"
        },
        {
          "internalType": "uint16",
          "name": "poolTip",
          "type": "uint16"
        },
        {
          "internalType": "uint128",
          "name": "limitPrice",
          "type": "uint128"
        }
      ],
      "name": "calcImpact",
      "outputs": [
        {
          "internalType": "int128",
          "name": "baseFlow",
          "type": "int128"
        },
        {
          "internalType": "int128",
          "name": "quoteFlow",
          "type": "int128"
        },
        {
          "internalType": "uint128",
          "name": "finalPrice",
          "type": "uint128"
        }
      ],
      "stateMutability": "view",
      "type": "function"
    },
    {
      "inputs": [],
      "name": "dex_",
      "outputs": [
        {
          "internalType": "address",
          "name": "",
          "type": "address"
        }
      ],
      "stateMutability": "view",
      "type": "function"
    }
  ],
  "bytecode": {
    "object": "0x60a0806040523462000173578062003178803803809162000021828562000178565b8339602092839181010312620001735751906001600160a01b0382168083036200017357818115159182620000f1575b505015620000ad5750608052604051612fc59081620001b3823960805181818160480152818161018d0152818161025d015281816102bf01528181610be401528181610d80015281816115520152818161175f01526119450152f35b6064906040519062461bcd60e51b82526004820152601360248201527f496e76616c69642043726f6353776170446578000000000000000000000000006044820152fd5b604051637c51962560e01b81529250829060049082905afa908115620001675760009162000123575b50813862000051565b8281813d83116200015f575b6200013b818362000178565b810103126200015b5751908115158203620001585750386200011a565b80fd5b5080fd5b503d6200012f565b6040513d6000823e3d90fd5b600080fd5b601f909101601f19168101906001600160401b038211908210176200019c57604052565b634e487b7160e01b600052604160045260246000fdfe6080604052600436101561001257600080fd5b60003560e01c80634a6c44bf1461007c576387834a0e1461003257600080fd5b34610077576000366003190112610077576040517f00000000000000000000000000000000000000000000000000000000000000006001600160a01b03168152602090f35b600080fd5b3461007757610100366003190112610077576004356001600160a01b0381169003610077576024356001600160a01b0381169003610077576064358015158091036100775760843580151581036100775760a435916001600160801b039081841684036100775760c43561ffff811681036100775760e435908382168203610077576101c0604052600060e08181526101008290526101208290526101408290526101608290526101808290526101a082905260805260a081905260c05261014b604435602435600435611f63565b60405160208101908282526201000960408201526040815261016c81610460565b5190206040516302ce8af360e01b81526004810191909152906020826024817f00000000000000000000000000000000000000000000000000000000000000006001600160a01b03165afa9081156103b457600091610415575b60ff925060206080015261ffff8160081c166020608051015260181c16604060805101526020608051019061ffff82511661ffff821611610408575b505061020c61049c565b9361021e604435602435600435611f63565b604051602081019182526201000f60408201526040815261023e81610460565b5190206040516302ce8af360e01b8152600481018290526020816024817f00000000000000000000000000000000000000000000000000000000000000006001600160a01b03165afa9081156103b4576000916103d6575b50600182018092116103c0576040516302ce8af360e01b815260048101929092526020826024817f00000000000000000000000000000000000000000000000000000000000000006001600160a01b03165afa9182156103b457600092610377575b50606097869361035996959383868095168b5260801c60208b015283811660408b01526001600160401b038160801c168b8b015260c01c60808a015261033c61049c565b9586521515602086015216878401521660808201528360806104d7565b91909251169060405192600f0b8352600f0b60208301526040820152f35b9092949391506020813d6020116103ac575b816103966020938361047b565b81010312610077575192939092909160606102f8565b3d9150610389565b6040513d6000823e3d90fd5b634e487b7160e01b600052601160045260246000fd5b90506020813d602011610400575b816103f16020938361047b565b81010312610077575188610296565b3d91506103e4565b61ffff1690528580610202565b90506020823d602011610442575b816104306020938361047b565b810103126100775760ff9151906101c6565b3d9150610423565b634e487b7160e01b600052604160045260246000fd5b606081019081106001600160401b0382111761044a57604052565b90601f801991011681019081106001600160401b0382111761044a57604052565b6040519060a082018281106001600160401b0382111761044a5760405260006080838281528260208201528260408201528260608201520152565b909291805115156001600160801b038551166001600160801b03608084015116111514610b5d5760405193608085018581106001600160401b0382111761044a57604052600085526000602086015260006040860152600060608601528051620100026001600160801b038216101580610b3b575b15610077576001600160401b600160c01b03604083901b166001600160801b03811160071b81811c6001600160401b03811160061b81811c63ffffffff811160051b81811c61ffff811160041b81811c60ff8111600390811b91821c600f811160021b90811c9182118c1b91821c9b909b11969098179390931717919091179690961784179190911794849391929060808710610ad3575050505050607e1982011c5b808002607f1c81800260ff1c1c808002607f1c81800260ff1c1c808002607f1c81800260ff1c1c808002607f1c81800260ff1c1c808002607f1c81800260ff1c1c808002607f1c81800260ff1c1c90818002607f1c82800260ff1c1c92838002607f1c84800260ff1c1c94858002607f1c86800260ff1c1c96878002607f1c88800260ff1c1c98898002607f1c8a800260ff1c1c9a8b8002607f1c8c800260ff1c1c9c8d808002607f1c90800260ff1c1c800260cd1c6604000000000000169d800260cc1c6608000000000000169c800260cb1c6610000000000000169b800260ca1c6620000000000000169a800260c91c66400000000000001699800260c81c66800000000000001698800260c71c6701000000000000001697800260c61c6702000000000000001696800260c51c6704000000000000001695800260c41c6708000000000000001694800260c31c6710000000000000001693800260c21c6720000000000000001692800260c11c6740000000000000001691800260c01c6780000000000000001690607f190160401b1717171717171717171717171717693627a301d71055774c85026f028f6481ab7f045a5af012a19d003aa919810160801d60020b906fdb2df09e81959a81455e260799a0632f0160801d60020b91828214600014610aa6575090505b60015b6107f8575050505060208251600f0b920151600f0b90565b602084015161084d61083361084186511515936040519283918760020b60081d60010b90602084019091602292825260f01b60208201520190565b03601f19810183528261047b565b60208151910120610d40565b908015610a965761087f8161ffff60ff60015b1660ff61087684826101008b60020b0716611ce1565b16011684611aaf565b9092821561096c5750915b821561094d57506108a5908360020b60081d60010b90610dea565b905b81906108b7838851888c89611fcd565b6108c18686611a5b565b928391826108d3575b505050506107e0565b610901575b506108e6575b8181806108ca565b6108fa91925084846020880151928a610b69565b90386108de565b9150506109176020870151828751151591610e85565b908160020b9060020b0361092d575b81386108d8565b905061093d818651868a87611fcd565b6109478484611a5b565b90610926565b60ff91501660020b8260020b60081d60081b60020b0160020b906108a7565b600081159182156109a3575b5081159115610997575b5015610992575060005b9161088a565b61098c565b60ff9150161538610982565b905080826100775760ff906001600160801b03811615610a8c575050607f5b6001600160401b03821615610a8257603f190160ff165b63ffffffff821615610a7857601f190160ff165b61ffff821615610a6e57600f190160ff165b60ff821615610a64576007190160ff165b600f821615610a5a576003190160ff165b6003821615610a4e576001190160ff16906001905b16610a42575b38610978565b6000190160ff16610a3c565b9060019060021c610a36565b9060041c90610a21565b9060081c90610a10565b9060101c906109ff565b9060201c906109ed565b9060401c906109d9565b60801c91506109c2565b61087f8161ffff60ff6000610860565b6001600160801b03166001600160801b03610ac084612c18565b1611610acc57506107dd565b90506107dd565b600161ffff821160041b91821c60ff811160031b90811c600f811160021b90811c861c9290921163ffffffff90961160051b6001600160401b0390941160061b6001600160801b03881160071b17939093179190911791909117171717607f031b90506105ef565b506f0ffff5433e2b3d8211706e6102aa94726001600160801b0382161061054c565b50509050600090600090565b9390938460020b627fffff1981139081610d33575b5015610d2c5760408051926020938481019182528760e81b8382015260238152610ba781610460565b51902081518481019182526201000283820152828152610bc681610460565b51902081516302ce8af360e01b8152600481019190915283816024817f00000000000000000000000000000000000000000000000000000000000000006001600160a01b03165afa908115610d2157600091610cf1575b506d03fffffffffffffffffffffff800808260561c16600f0b91600a1b16600f0b03600f0b85511515600090600014610ce75750905b8401906001600160801b0393848084511692600081600f0b12600014610ccd5760000381168303169182101561007757610cb29285610ca9935b1690528601511515948651151560608801968688511692611d68565b93919091611d3c565b82518216031690525115610cc35790565b6000190160020b90565b811683011691821061007757610cb29285610ca993610c8d565b03600f0b90610c53565b908482813d8311610d1a575b610d07818361047b565b81010312610d1757505138610c1d565b80fd5b503d610cfd565b82513d6000823e3d90fd5b5050505090565b627fffff91501238610b7e565b6040516020810191825262010007604082015260408152610d6081610460565b5190206040516302ce8af360e01b815260048101919091526020816024817f00000000000000000000000000000000000000000000000000000000000000006001600160a01b03165afa9081156103b457600091610dbc575090565b906020823d8211610de2575b81610dd56020938361047b565b81010312610d1757505190565b3d9150610dc8565b908115610e7a578115610e7057617fff905b60010b60009160010b8114600014610e2557505015610e1d57627fffff5b90565b627fffff1990565b60010191617fff8313617fff19841217610e5c57610e54575060ff805b1660020b9060081b60020b0160020b90565b60ff90610e42565b634e487b7160e01b82526011600452602482fd5b617fff1990610dfc565b905060081b60020b90565b919060008215610f1157505b60020b9060ff610100816080601086901d600081810b908112610f07575082160116935b60081d60010b0716610ec98282858761124a565b15610eff575081610edb9184866118d8565b15610ef8575015610eef57610e1a916119e9565b610e1a91611a20565b9250505090565b935050505090565b9050011693610eb5565b60029190910b6000190190627fffff198212627fffff831317610f345750610e91565b634e487b7160e01b81526011600452602490fd5b90610f5290611cb3565b9060405190610fa76020830183610f8b60ff9485891660010b8860081b60010b0160010b90849091602292825260f01b60208201520190565b0393610f9f601f199586810183528261047b565b519020610d40565b6000928115918215610feb575b5050610fdf5761ff00911660020b9260081b1660020b9060101b60020b0160020b0160020b90600090565b50505050600090600190565b80949192949185610d175750839081906001600160801b038116156110d857509050607f5b6001600160401b038316156110cd57603f19018116925b63ffffffff8316156110c25781929301165b61ffff8316156110b857600f190181165b828216156110ae576007190181165b600f8316156110a4576003190181165b600383161561109857600119018116916001905b1661108c575b50913880610fb4565b90600019011681611083565b9160019060021c61107d565b9160041c91611069565b9160081c91611059565b9160101c9161104a565b509060201c91611039565b929160401c91611027565b60801c925090611010565b906110ed90611cb3565b906111296040516020810190610f9f8161083360ff96878a1660010b8960081b60010b0160010b90869091602292825260f01b60208201520190565b906000918015908115611161575b50610fdf5761ff00911660020b9260081b1660020b9060101b60020b0160020b0160020b90600090565b909290808285610d175750839190600160801b811015611237575b508082600160401b6002931015611229575b64010000000082101561121b575b6201000082101561120d575b6101008210156111ff575b60108210156111f1575b60048210156111e2575b5010156111d7575b509138611137565b9060010116816111cf565b908290811c94011692826111c7565b600494850116931c826111bd565b600894850116931c826111b3565b601094850116931c826111a8565b602094850116931c8261119c565b604094850116931c8261118e565b9250505060801c8160026080929061117c565b91929061125690611cb3565b916040519060208201926112a460ff9484611290600195888b16870b8a60081b880b01870b90849091602292825260f01b60208201520190565b0394610f9f601f199687810183528261047b565b6000939082156114e057905b81159283156112f4575b5050506112e857509061ff00911660020b9260081b1660020b9060101b60020b0160020b0160020b90600090565b94935050505060009190565b92945090918490600090156113f45750508184600090610d1757508591849183906001600160801b038116156113ea575050607f5b6001600160401b038516156113e057603f190183165b63ffffffff8516156113d4570182165b61ffff8416156113ca57600f190182165b838316156113c0576007190182165b600f8416156113b6576003190182165b60038416156113ad57600119018216925b166113a1575b505b913880806112ba565b90600019011683611396565b9260021c611390565b9260041c9261137f565b9260081c9261136f565b9260101c92611360565b93905060201c9261134f565b9360401c9361133f565b60801c9450611329565b91509180918093610d17575085918491600160801b8110156114cb575b508083600160401b60029310156114bd575b6401000000008210156114af575b620100008210156114a1575b610100821015611493575b6010821015611485575b6004821015611476575b50101561146b575b5050611398565b909101168382611464565b908290811c950116938361145c565b600495860116941c83611452565b600895860116941c83611448565b601095860116941c8361143d565b602095860116941c83611431565b604095860116941c83611423565b935050505060801c8382600260809390611411565b906112b0565b906114f081611cb3565b9060408051926020938481019186835260f81b838201526021815261151481610460565b5190208151848101918252620100068382015282815261153381610460565b51902081516302ce8af360e01b815260048101919091529083826024817f00000000000000000000000000000000000000000000000000000000000000006001600160a01b03165afa9182156116e7576000926116b8575b5060009382159283156115b8575b5050506115ad576115a992610f48565b9091565b505050600090600190565b8095919293959186610d17575060ff906001600160801b038116156116ab575050607f925b6001600160401b038216156116a45750603f1990920160ff1691905b63ffffffff82161561169d575090601f190160ff165b61ffff82161561169357600f190160ff165b60ff821615611689576007190160ff165b600f82161561167f576003190160ff165b6003821615611673576001190160ff16906001905b16611667575b91388080611599565b6000190160ff1661165e565b9060019060021c611658565b9060041c90611643565b9060081c90611632565b9060101c90611621565b1c9061160f565b1c906115f9565b9093915060801c906115dd565b90918482813d83116116e0575b6116cf818361047b565b81010312610d17575051903861158b565b503d6116c5565b50513d6000823e3d90fd5b906116fc81611cb3565b906040918251906020918281019186835260f81b858201526021815261172181610460565b5190208351828101918252620100068582015284815261174081610460565b51902083516302ce8af360e01b815260048101919091529080826024817f00000000000000000000000000000000000000000000000000000000000000006001600160a01b03165afa9182156118cd5760009261189e575b5060009382159283156117b6575b5050506115ad576115a9926110e3565b9294919290818387610d175750600160801b811015611890575b50600160401b821015611881575b5060029192640100000000821015611873575b5062010000811015611864575b610100811015611855575b6010811015611846575b6004811015611838575b101561182d575b913880806117a6565b60010160ff16611824565b91810160ff1691811c61181d565b600492830160ff16921c611813565b600892830160ff16921c611809565b601092830160ff16921c6117fe565b92830160ff16921c386117f1565b91820160ff16911c60026117de565b60809350831c9150386117d0565b90918282813d83116118c6575b6118b5818361047b565b81010312610d175750519038611798565b503d6118ab565b84513d6000823e3d90fd5b92916118e382611cb3565b6040908151906020918281019188835260f81b848201526021815261190781610460565b5190208251828101918252620100068482015283815261192681610460565b51902082516302ce8af360e01b815260048101919091529080826024817f00000000000000000000000000000000000000000000000000000000000000006001600160a01b03165afa9283156119df5750908592916000926119ab575b505060ff6119948361199b95611ce1565b1690611aaf565b919091610fdf576115a99361124a565b90809350813d83116119d8575b6119c2818361047b565b81010312610d17575051839060ff611994611983565b503d6119b8565b513d6000823e3d90fd5b9060ff91826001809301165b838116611a075750505050627fffff90565b611a1181836114e6565b15610eff5750820183166119f5565b60ff916000199190820183165b8380821610611a425750505050627fffff1990565b611a4c81836116f2565b15610eff575082018316611a2d565b815115611a95576001600160801b03809151169060808301511611905b81611a81575090565b6001600160801b0391506060015116151590565b6001600160801b0380915116906080830151161090611a78565b929060009361ffff60009285600014611ca8571690811c901b5b8015938415611ad757505050565b9294509091839015611bd25750809183610d17575060ff906001600160801b03811615611bc8575050607f5b6001600160401b03821615611bbe57603f190160ff165b63ffffffff821615611bb457601f190160ff165b61ffff821615611baa57600f190160ff165b60ff821615611ba0576007190160ff165b600f821615611b96576003190160ff165b6003821615611b8a576001190160ff16906001905b16611b80575b91565b6000190160ff1691565b9060019060021c611b77565b9060041c90611b62565b9060081c90611b51565b9060101c90611b40565b9060201c90611b2e565b9060401c90611b1a565b60801c9150611b03565b81908390610d175750600160801b811015611c99575b5080600160401b6002921015611c8a575b640100000000811015611c7b575b62010000811015611c6c575b610100811015611c5d575b6010811015611c4e575b6004811015611c40575b10611b7d5760010160ff1691565b91810160ff1691811c611c32565b600492830160ff16921c611c28565b600892830160ff16921c611c1e565b601092830160ff16921c611c13565b602092830160ff16921c611c07565b604092830160ff16921c611bf9565b60809250821c90506002611be8565b1690811b901c611ac9565b60ff8116906000906080831015611cd357505060010b607f190160000b90565b607f190160ff16900b919050565b9015611cea5790565b60ff9081031690565b600f0b6004019060016001607f1b03821360016001607f1b03198312176103c057565b90600f0b90600f0b019060016001607f1b0319821260016001607f1b038313176103c057565b602090611d50611d61938251600f0b611d16565b600f0b815201918251600f0b611d16565b600f0b9052565b909291611d7482611e5e565b90611d8c856001600160801b03938486511690611eca565b938280861691161115611e345715611def57808251166f0ffff5433e2b3d8211706e6102aa94718110611de1575b505050611dc681611fb2565b9160009015611dd95750905b9160009190565b905090611dd2565b600101169052388080611dba565b80829594955116620100028111611e25575b505050611e0d81611fb2565b9215611e1f57506000905b6000929190565b90611e18565b60001901169052388080611e01565b60405162461bcd60e51b8152602060048201526002602482015261109160f21b6044820152606490fd5b6001600160801b0380806040611e88826020870151166001600160401b0360608801511690611e9a565b94015116830116911681106100775790565b6001600160401b03916001600160801b0392839116600160301b0191160260301c818111611ec6571690565b5090565b9115611eec575060401c6001600160401b03166001016001600160801b031690565b6001600160801b0391600191611f18611f0b6000198301861684611f29565b91848060c01b0393611f29565b900316019081169081036100775790565b906001600160801b0316908115611f4d5760401b600160401b600160c01b03160490565b634e487b7160e01b600052601260045260246000fd5b6001600160a01b0390811692911690818310156100775760405191602083019384526040830152606082015260608152608081018181106001600160401b0382111761044a5760405251902090565b6001600160801b03166001607f1b81101561007757600f0b90565b92909360808301516001600160801b03168351151590611fec92612766565b60608301516001600160801b0316602084015115158360208295015161ffff16906040015160ff16928488516001600160801b03169661202c928a6123a8565b8261203689611e5e565b916001600160801b038716978811908a516001600160801b031661205994612b8b565b6001600160801b031602620f4240900491820260081c6001600160801b03166001600160801b03819316036001600160801b031690612099818389612839565b60009183600091016001600160801b03169160001461236157506120bf6120cd91611fb2565b602087015115159289611d3c565b15612340576001600160801b036120eb60608801928284511661238d565b1690525b60208301511590811591845115156001600160801b0360608701511691600061211a8587868c6123a8565b90846001600160801b0383161060001461225457505050916121809161218d949361218661217982878c61216d886001600160801b0361215984611e5e565b935116612167828286612405565b93612441565b821561224f5790612705565b9590611cf3565b94611cf3565b9489612532565b9091926001600160801b0382939496511614908161223c575b5015612212576121cd926001600160801b036020925b166060820152015115159284611d3c565b156121f2576060016001600160801b03815116906001600160801b0382116103c05752565b6040016001600160801b03815116906001600160801b0382116103c05752565b60405162461bcd60e51b8152602060048201526002602482015261052560f41b6044820152606490fd5b6001600160801b039150161515386121a6565b612705565b6001600160801b0397955093836122aa81896122b296958e809c999f9a61227d6122b99c611e5e565b8f8686868461228e948851166125e3565b998a925015612333578f6122a493511690612405565b90612705565b949094611cf3565b9488612532565b92919490938394959760001461232a57511610905b81612318575b50156122ee576121cd926001600160801b036020926121bc565b60405162461bcd60e51b8152602060048201526002602482015261292360f11b6044820152606490fd5b6001600160801b0391501615386122d4565b511611906122ce565b8f6122a493511690612441565b6001600160801b0361235960408801928284511661238d565b1690526120ef565b915061236f6120cd91611fb2565b916120bf565b9060016001600160801b03809316019182116103c057565b9190916001600160801b03808094169116019182116103c057565b919290926123b583611e5e565b90156123ec576001600160801b036123cf93511690612405565b6001600160801b0382811690821611156123e7575090565b905090565b6001600160801b0361240093511690612441565b6123cf565b906001600160801b03808481959382809516838216116000146124395703165b1691160260401c9081169081036100775790565b900316612425565b916001600160801b03828116908216111561245f57610e1a9261249f565b90610e1a9261249f565b6001600160801b0391821690821603919082116103c057565b818102929181159184041417156103c057565b8115611f4d570490565b906124e0916124c06124b18584612469565b946001600160c01b0392611f29565b16926124d86001600160801b03948580931690612482565b911690612495565b9081169081036100775790565b9115612519576001600160801b0380911691160260401c5b6001600160801b0381169081036100775790565b6001600160c01b039161252c9190611f29565b16612505565b929161254490979496919788876125a9565b6001600160801b039290838216848216106125825750506000945b871561257c57805b971561257557505b94169052565b905061256f565b81612567565b61258b91612469565b9461255f565b600f0b60016001607f1b031981146103c05760000390565b911515901515146000146125d5575b600081600f0b126125cf576001600160801b031690565b50600090565b6125de90612591565b6125b8565b93921561263a576125f393612648565b6001600160801b0381166f0ffff5433e2b3d8211706e6102aa947281101561262457620100028091106123e7575090565b50506f0ffff5433e2b3d8211706e6102aa947190565b612643936126b9565b6125f3565b91906001600160801b0391828216156126b1579061266591611f29565b6001600160c01b03811682106126aa5781169215612688575090610e1a9161238d565b81168210156126a35761269d610e1a92612375565b90612469565b5050600090565b5091505090565b505091505090565b906126c86126d0949392612744565b921592612648565b6001600160801b038116156126f0576126eb610e1a91612744565b612375565b506f0ffff5433e2b3d8211706e6102aa947290565b91909215159015151460001461272f5761272a6127246115a992611fb2565b92611fb2565b612591565b61273e61272a6115a992611fb2565b91611fb2565b6001600160801b038091168015611f4d57600160801b04818111610077571690565b9061277192916127bc565b6001600160801b038116620100028082106127b657506f0ffff5433e2b3d8211706e6102aa947211156127a15790565b506f0ffff5433e2b3d8211706e6102aa947190565b91505090565b918260020b620a276d1981139081159161282b575b50156127dd5750905090565b15612808576001600160801b0380926127f860001991612c18565b01169181168210156123e7575090565b9061281290612c18565b906001600160801b0380821690831611156123e7575090565b620cb14a91501215386127d1565b919061284483611e5e565b906001600160801b0392838316156128d5571591612866838587511683611eca565b60011b917001fffffffffffffffffffffffffffffffe6ffffffffffffffffffffffffffffffffe8416931683036103c05783856128c4948082851611156000146129975750506128bf91506000925b86885116906124ed565b6129a3565b6001600160401b03918282166128dc575b5050505050565b81846128f0612928938695838a5116612ae6565b1686526dffffffffffffffff00000000000060608701846129148482845116612ab5565b16809152600160301b019160301b16612495565b169283836040830151160260301c9371ffffffffffffffffffffffffffffffffffff84861695168503610077578461295f91612b47565b9060808101918380845116911601918383116103c05761298a9360209316905201928284511661238d565b16905238808080806128d5565b6128bf930316926128b5565b6001600160801b038082168015918215612a35575b50506126a3576129cb6129d0928261238d565b612a41565b906001600160401b0380831692600160301b93848110156100775780677fffffffffffffff910260331c9160011c16031691821015612a0b57565b60405162461bcd60e51b815260206004820152600260248201526124a360f11b6044820152606490fd5b841611905038806129b8565b6001600160801b03906001600160d01b038183169081109081612aa8575b50156100775765ffffffffffff1992612a8b92169060301b6601000000000000600160b01b0316612495565b01600160301b9081811015611ec6576001600160401b0391501690565b9050828416111538612a5f565b6001600160401b0391908216600160301b908101918316010260301c65ffffffffffff190181811015611ec6571690565b91906001600160401b0316600160301b0190600014612b1f576001906001600160801b038093160260301c019081169081036100775790565b612b43906601000000000000600160b01b036001600160801b039360301b16612495565b1690565b906001600160801b0390818116918215612b8257612b7b612b75612b43946001600160401b03809716612482565b92612375565b1690612495565b50505050600090565b9291936001600160801b0394858516938415612c0c5786612bbd848295159683612bb689838d6124ed565b16996124ed565b16931590151514600014612c045716015b8015612bfe5781612bdf9202612495565b81811115612bf65703905b81169081036100775790565b900390612bea565b50505090565b169003612bce565b50505050505050600090565b60020b620a276d1981121580612f82575b15610077576000811215612f7c5780600003905b6001821615612f6a576001600160881b036ffffcb933bd6fad37aa2d162d1a5940015b169160028116612f4e575b60048116612f32575b60088116612f16575b60108116612efa575b60208116612ede575b60408116612ec2575b608090818116612ea7575b6101008116612e8c575b6102008116612e71575b6104008116612e56575b6108008116612e3b575b6110008116612e20575b6120008116612e05575b6140008116612dea575b6180008116612dcf575b620100008116612db4575b620200008116612d9a575b620400008116612d80575b6208000016612d65575b50600012612d56575b6001600160801b03906001600160401b038116612d4d5760ff60005b169060401c011690565b60ff6001612d43565b8015611f4d5760001904612d27565b6b048a170391f7dc42444e8fa26000929302901c9190612d1e565b6d2216e584f5fa1ea926041bedfe98909302811c92612d14565b926e5d6af8dedb81196699c329225ee60402811c92612d09565b926f09aa508b5b7a84e1c677de54f3e99bc902811c92612cfe565b926f31be135f97d08fd981231505542fcfa602811c92612cf3565b926f70d869a156d2a1b890bb3df62baf32f702811c92612ce9565b926fa9f746462d870fdf8a65dc1f90e061e502811c92612cdf565b926fd097f3bdfd2022b8845ad8f792aa582502811c92612cd5565b926fe7159475a2c29b7443b29c7fa6e889d902811c92612ccb565b926ff3392b0822b70005940c7a398e4b70f302811c92612cc1565b926ff987a7253ac413176f2b074cf7815e5402811c92612cb7565b926ffcbe86c7900a88aedcffc83b479aa3a402811c92612cad565b926ffe5dee046a99a2a811c461f1969c305302811c92612ca3565b916fff2ea16466c96a3843ec78b326b528610260801c91612c98565b916fff973b41fa98c081472e6896dfb254c00260801c91612c8f565b916fffcb9843d60f6159c9db58835c9266440260801c91612c86565b916fffe5caca7e10e4e61c3624eaa0941cd00260801c91612c7d565b916ffff2e50f5f656932ef12357cf3c7fdcc0260801c91612c74565b916ffff97272373d413259a46990580e213a0260801c91612c6b565b6001600160881b03600160801b612c60565b80612c3d565b50620cb14a811315612c2956fea264697066735822122000620b2024eaf3d674c072face6b5d865c96fc0ae335e4dd8680364c457ae40e64736f6c63430008130033",
    "linkReferences": {}
  },
  "methodIdentifiers": {
    "calcImpact(address,address,uint256,bool,bool,uint128,uint16,uint128)": "4a6c44bf",
    "dex_()": "87834a0e"
  },
  "id": 17
}