{
  "abi": [
    {
      "inputs": [
        {
          "internalType": "address",
          "name": "policy",
          "type": "address"
        }
      ],
      "stateMutability": "nonpayable",
      "type": "constructor"
    },
    {
      "inputs": [],
      "name": "acceptAdmin",
      "outputs": [],
      "stateMutability": "payable",
      "type": "function"
    },
    {
      "inputs": [
        {
          "internalType": "address",
          "name": "minion",
          "type": "address"
        },
        {
          "internalType": "string",
          "name": "reason",
          "type": "string"
        }
      ],
      "name": "emergencyHalt",
      "outputs": [],
      "stateMutability": "nonpayable",
      "type": "function"
    },
    {
      "inputs": [
        {
          "internalType": "address",
          "name": "conduit",
          "type": "address"
        },
        {
          "internalType": "uint16",
          "name": "proxyPath",
          "type": "uint16"
        },
        {
          "internalType": "string",
          "name": "reason",
          "type": "string"
        }
      ],
      "name": "emergencyReset",
      "outputs": [],
      "stateMutability": "nonpayable",
      "type": "function"
    },
    {
      "inputs": [
        {
          "internalType": "address",
          "name": "conduit",
          "type": "address"
        },
        {
          "internalType": "uint16",
          "name": "proxyPath",
          "type": "uint16"
        },
        {
          "components": [
            {
              "internalType": "bytes32",
              "name": "cmdFlags_",
              "type": "bytes32"
            },
            {
              "internalType": "uint32",
              "name": "mandateTime_",
              "type": "uint32"
            },
            {
              "internalType": "uint32",
              "name": "expiryOffset_",
              "type": "uint32"
            }
          ],
          "internalType": "struct CrocPolicy.PolicyRule",
          "name": "policy",
          "type": "tuple"
        }
      ],
      "name": "forcePolicy",
      "outputs": [],
      "stateMutability": "nonpayable",
      "type": "function"
    },
    {
      "inputs": [
        {
          "internalType": "address",
          "name": "minion",
          "type": "address"
        },
        {
          "internalType": "uint16",
          "name": "proxyPath",
          "type": "uint16"
        },
        {
          "internalType": "bytes",
          "name": "cmd",
          "type": "bytes"
        }
      ],
      "name": "opsResolution",
      "outputs": [],
      "stateMutability": "nonpayable",
      "type": "function"
    },
    {
      "inputs": [],
      "name": "policy_",
      "outputs": [
        {
          "internalType": "address",
          "name": "",
          "type": "address"
        }
      ],
      "stateMutability": "view",
      "type": "function"
    },
    {
      "inputs": [
        {
          "internalType": "address",
          "name": "conduit",
          "type": "address"
        },
        {
          "internalType": "uint16",
          "name": "proxyPath",
          "type": "uint16"
        },
        {
          "components": [
            {
              "internalType": "bytes32",
              "name": "cmdFlags_",
              "type": "bytes32"
            },
            {
              "internalType": "uint32",
              "name": "mandateTime_",
              "type": "uint32"
            },
            {
              "internalType": "uint32",
              "name": "expiryOffset_",
              "type": "uint32"
            }
          ],
          "internalType": "struct CrocPolicy.PolicyRule",
          "name": "policy",
          "type": "tuple"
        }
      ],
      "name": "setPolicy",
      "outputs": [],
      "stateMutability": "nonpayable",
      "type": "function"
    },
    {
      "inputs": [
        {
          "internalType": "address",
          "name": "treasury",
          "type": "address"
        },
        {
          "internalType": "address",
          "name": "ops",
          "type": "address"
        },
        {
          "internalType": "address",
          "name": "emergency",
          "type": "address"
        }
      ],
      "name": "transferGovernance",
      "outputs": [],
      "stateMutability": "nonpayable",
      "type": "function"
    },
    {
      "inputs": [
        {
          "internalType": "address",
          "name": "minion",
          "type": "address"
        },
        {
          "internalType": "uint16",
          "name": "proxyPath",
          "type": "uint16"
        },
        {
          "internalType": "bytes",
          "name": "cmd",
          "type": "bytes"
        },
        {
          "internalType": "bool",
          "name": "sudo",
          "type": "bool"
        }
      ],
      "name": "treasuryResolution",
      "outputs": [],
      "stateMutability": "nonpayable",
      "type": "function"
    }
  ],
  "bytecode": {
    "object": "0x60803461007457601f6106af38819003918201601f19168301916001600160401b038311848410176100795780849260209460405283398101031261007457516001600160a01b0381169081900361007457600080546001600160a01b03191691909117905560405161061f90816100908239f35b600080fd5b634e487b7160e01b600052604160045260246000fdfe6080604081815260048036101561001557600080fd5b600092833560e01c9081630e18b68114610447578482631882ad62146103a857505080632cdf2f3a1461037c578381632dc2eff814610314575080636716c1cc14610249578063700a618e146101b85783816393b890df14610173578163b30017f414610107575063cdb3453c1461008c57600080fd5b8291346101035761009c366104fd565b939160018060a01b0386541690813b156100ff578680946100d087519889968795869463336cd14f60e21b86528501610599565b03925af19081156100f657506100e35750f35b6100ec9061053d565b6100f35780f35b80fd5b513d84823e3d90fd5b8680fd5b5050fd5b9290503461010357610118366104ab565b86549295909390926001600160a01b03908116929091833b1561016f576100d0899692879361ffff8a519b8c998a988997632cc005fd60e21b89521690870152166024850152606060448501526064840191610567565b8880fd5b9290503461010357610184366104fd565b939160018060a01b0386541690813b156100ff578680946100d08751988996879586946393b890df60e01b86528501610599565b5034610245576060366003190112610245576101d2610467565b916024356001600160a01b0381811691829003610240576044358181168091036102405786958287541693843b1561023c57879460649386928851998a97889663380530c760e11b88521690860152602485015260448401525af19081156100f657506100e35750f35b8780fd5b600080fd5b8280fd5b50903461024557608036600319011261024557610264610467565b906024359161ffff831680930361024057849360443567ffffffffffffffff811161031057610296903690830161047d565b926064359182151580930361023c5787546001600160a01b0390811693909290843b1561030c576102f38a979388948a519b8c998a9889976319c5b07360e21b895216908701526024860152608060448601526084850191610567565b90606483015203925af19081156100f657506100e35750f35b8980fd5b8580fd5b9290503461010357610325366104ab565b86549295909390926001600160a01b03908116929091833b1561016f576100d0899692879361ffff8a519b8c998a9889976305b85dff60e31b89521690870152166024850152606060448501526064840191610567565b5050346103a457816003193601126103a457905490516001600160a01b039091168152602090f35b5080fd5b91509291346103a457826003193601126103a4576103c4610467565b60243567ffffffffffffffff8111610443576103e3903690840161047d565b909260018060a01b038086541693843b156100ff57889586948894869461042394630c4156b160e11b875216908501528960248501526044840191610567565b03925af19081156100f65750610437575080f35b6104409061053d565b80f35b8380fd5b84806003193601126100f35780546001600160a01b031633036100f35780f35b600435906001600160a01b038216820361024057565b9181601f840112156102405782359167ffffffffffffffff8311610240576020838186019501011161024057565b6060600319820112610240576004356001600160a01b0381168103610240579160243561ffff8116810361024057916044359067ffffffffffffffff8211610240576104f99160040161047d565b9091565b60a0600319820112610240576004356001600160a01b0381168103610240579160243561ffff811681036102405760609092604319011261024057604490565b67ffffffffffffffff811161055157604052565b634e487b7160e01b600052604160045260246000fd5b908060209392818452848401376000828201840152601f01601f1916010190565b359063ffffffff8216820361024057565b919261ffff608092959460a085019660018060a01b03168552166020840152803560408401526105e3604063ffffffff92836105d760208301610588565b16606087015201610588565b1691015256fea26469706673582212206d29aa9a929f82a34fab7e93b8318b5c49471ea401244dcb29aed7e40e8be99e64736f6c63430008130033",
    "linkReferences": {}
  },
  "methodIdentifiers": {
    "acceptAdmin()": "0e18b681",
    "emergencyHalt(address,string)": "1882ad62",
    "emergencyReset(address,uint16,string)": "b30017f4",
    "forcePolicy(address,uint16,(bytes32,uint32,uint32))": "93b890df",
    "opsResolution(address,uint16,bytes)": "2dc2eff8",
    "policy_()": "2cdf2f3a",
    "setPolicy(address,uint16,(bytes32,uint32,uint32))": "cdb3453c",
    "transferGovernance(address,address,address)": "700a618e",
    "treasuryResolution(address,uint16,bytes,bool)": "6716c1cc"
  },
  "id": 56
}