{
  "abi": [
    {
      "inputs": [],
      "name": "merkle_",
      "outputs": [
        {
          "internalType": "uint160",
          "name": "merkleRoot_",
          "type": "uint160"
        },
        {
          "internalType": "uint32",
          "name": "pivotTime_",
          "type": "uint32"
        },
        {
          "internalType": "uint64",
          "name": "feeMileage_",
          "type": "uint64"
        }
      ],
      "stateMutability": "view",
      "type": "function"
    },
    {
      "inputs": [
        {
          "internalType": "bool",
          "name": "isBid",
          "type": "bool"
        },
        {
          "internalType": "int24",
          "name": "lower",
          "type": "int24"
        },
        {
          "internalType": "int24",
          "name": "upper",
          "type": "int24"
        },
        {
          "internalType": "int24",
          "name": "priceTick",
          "type": "int24"
        },
        {
          "internalType": "uint8",
          "name": "knockoutBits",
          "type": "uint8"
        }
      ],
      "name": "testAssertValid",
      "outputs": [],
      "stateMutability": "pure",
      "type": "function"
    },
    {
      "inputs": [
        {
          "internalType": "uint96",
          "name": "lots",
          "type": "uint96"
        },
        {
          "internalType": "uint32",
          "name": "time",
          "type": "uint32"
        },
        {
          "internalType": "uint16",
          "name": "range",
          "type": "uint16"
        },
        {
          "internalType": "uint64",
          "name": "feeMileage",
          "type": "uint64"
        }
      ],
      "name": "testCommit",
      "outputs": [],
      "stateMutability": "nonpayable",
      "type": "function"
    },
    {
      "inputs": [
        {
          "internalType": "uint256",
          "name": "pool",
          "type": "uint256"
        },
        {
          "internalType": "bool",
          "name": "isBid",
          "type": "bool"
        },
        {
          "internalType": "int24",
          "name": "tick",
          "type": "int24"
        }
      ],
      "name": "testEncodePivotKey",
      "outputs": [
        {
          "internalType": "bytes32",
          "name": "",
          "type": "bytes32"
        }
      ],
      "stateMutability": "pure",
      "type": "function"
    },
    {
      "inputs": [
        {
          "internalType": "uint256",
          "name": "pool",
          "type": "uint256"
        },
        {
          "internalType": "uint160",
          "name": "owner",
          "type": "uint160"
        },
        {
          "internalType": "bool",
          "name": "isBid",
          "type": "bool"
        },
        {
          "internalType": "int24",
          "name": "lower",
          "type": "int24"
        },
        {
          "internalType": "int24",
          "name": "upper",
          "type": "int24"
        },
        {
          "internalType": "uint32",
          "name": "pivotTime",
          "type": "uint32"
        }
      ],
      "name": "testEncodePosKey",
      "outputs": [
        {
          "internalType": "bytes32",
          "name": "",
          "type": "bytes32"
        }
      ],
      "stateMutability": "pure",
      "type": "function"
    },
    {
      "inputs": [
        {
          "internalType": "uint160",
          "name": "root",
          "type": "uint160"
        },
        {
          "internalType": "uint256[]",
          "name": "proof",
          "type": "uint256[]"
        }
      ],
      "name": "testProof",
      "outputs": [
        {
          "internalType": "uint32",
          "name": "",
          "type": "uint32"
        },
        {
          "internalType": "uint64",
          "name": "",
          "type": "uint64"
        }
      ],
      "stateMutability": "view",
      "type": "function"
    }
  ],
  "bytecode": {
    "object": "0x60808060405234610016576107c1908161001c8239f35b600080fdfe6040608081526004908136101561001557600080fd5b600090813560e01c80630cb7f91a146104bc5780631a7387331461038e5780634c496756146102bb5780637e24875e14610125578063a6fd8157146100e95763f07ec0031461006357600080fd5b346100e55760603660031901126100e557602435908115158092036100e15761008a610633565b908051916020830193863585528284015260020b606083015260608252608082019382851067ffffffffffffffff8611176100ce5750602094508390525190208152f35b634e487b7160e01b815260418652602490fd5b8280fd5b5080fd5b50346100e557816003193601126100e557606091549080519160018060a01b038116835263ffffffff8160a01c16602084015260c01c90820152f35b509190346102b857826003193601126102b8578135906001600160a01b0380831683036100e55760249367ffffffffffffffff9285358481116100e557366023820112156100e55780830135968588116100e15760059288841b94828685010198368a116100e1576101956106a9565b9a8c5197603f601f1991011688018881108b8211176102a5578d5287526020998a88019585018b875b83831061029557505050508651156000146101fe575050505050505050808463ffffffff8486015116940151165b63ffffffff8551941684521690820152f35b9a95979496829b5b89518d101561022b576102236001918c8f8c1b8d010151906106df565b9c019b610206565b93975091959a5093988190979397511691160361026e57511561025e5750505051918063ffffffff84861c1693166101ec565b634e487b7160e01b825260329052fd5b875162461bcd60e51b81528083018790526002818601526104b560f41b6044820152606490fd5b82358152918101918d91016101be565b5050634e487b7160e01b83525060419052fd5b80fd5b50346100e55760c03660031901126100e5576024356001600160a01b03811691908290036100e1576044359081151580920361038a576102f9610648565b6084358060020b8091036103865760a4359163ffffffff831680930361038257818461032361068a565b9287845260020b928360208201520152835194602086019689358852858701526060860152608085015260a084015260c083015260c0825260e082019382851067ffffffffffffffff8611176100ce5750602094508390525190208152f35b8680fd5b8580fd5b8380fd5b5082346100e15760803660031901126100e1578035906bffffffffffffffffffffffff821680920361038a576024359163ffffffff83168093036104b8576044359361ffff8516809503610386576064359467ffffffffffffffff9283871687036104b4576020916103fe61068a565b91825283820152019384526000194301924384116104a157509061047461047a9261046f61042a6106a9565b80516020820151918401516001600160a01b03989189169616939190911b6bffffffff000000000000000016904060601b6bffffffffffffffffffffffff1916610710565b610710565b906106df565b915160a01b63ffffffff60a01b1691161760c09190911b6001600160c01b03191617815580f35b634e487b7160e01b875260119052602486fd5b8780fd5b8480fd5b508290346100e15760a03660031901126100e157813580151580910361038a57602435908160020b8092036104b8576104f3610633565b916104fc610648565b906084359360ff851685036104b45761051361068a565b9384528160208501528584019060020b808252600f86166003878a1c1693888515159816159288610595575b50505050508361057e575b50505015610556578280f35b906020606492519162461bcd60e51b8352820152600260248201526125ab60f11b6044820152fd5b61058d93506002111591610733565b84808061054a565b9091929394975003627fffff19627fffff82138183121761062057935162ffffff9182166001841b83161494600282900b908c82131561060e57505081165b83156105f8575b505050816105f0575b5092878080808061053f565b9050876105e4565b811680831c821690921b161490508880806105db565b9080925014610620578a0381166105d4565b634e487b7160e01b8b5260118a5260248bfd5b604435908160020b820361064357565b600080fd5b606435908160020b820361064357565b6060810190811067ffffffffffffffff82111761067457604052565b634e487b7160e01b600052604160045260246000fd5b6040519061069782610658565b60006040838281528260208201520152565b604051906106b682610658565b6000546001600160a01b038116835260a081901c63ffffffff16602084015260c01c6040830152565b604080516001600160a01b039092166020830190815282820193909352815261070781610658565b51902060601c90565b9190820180921161071d57565b634e487b7160e01b600052601160045260246000fd5b805191929091156107645715610757576020015160020b905b60020b9060020b1290565b6040015160020b9061074c565b1561077e576040015160020b905b60020b9060020b121590565b6020015160020b9061077256fea2646970667358221220496d051d092e4b7a03e13e0f918140761f4a771a4fef796a35eb7cd9c47f1cb264736f6c63430008130033",
    "linkReferences": {}
  },
  "methodIdentifiers": {
    "merkle_()": "a6fd8157",
    "testAssertValid(bool,int24,int24,int24,uint8)": "0cb7f91a",
    "testCommit(uint96,uint32,uint16,uint64)": "1a738733",
    "testEncodePivotKey(uint256,bool,int24)": "f07ec003",
    "testEncodePosKey(uint256,uint160,bool,int24,int24,uint32)": "4c496756",
    "testProof(uint160,uint256[])": "7e24875e"
  },
  "id": 75
}