{
  "abi": [
    {
      "anonymous": false,
      "inputs": [
        {
          "indexed": true,
          "internalType": "address",
          "name": "owner",
          "type": "address"
        },
        {
          "indexed": true,
          "internalType": "address",
          "name": "spender",
          "type": "address"
        },
        {
          "indexed": false,
          "internalType": "uint256",
          "name": "value",
          "type": "uint256"
        }
      ],
      "name": "Approval",
      "type": "event"
    },
    {
      "anonymous": false,
      "inputs": [
        {
          "indexed": true,
          "internalType": "address",
          "name": "from",
          "type": "address"
        },
        {
          "indexed": true,
          "internalType": "address",
          "name": "to",
          "type": "address"
        },
        {
          "indexed": false,
          "internalType": "uint256",
          "name": "value",
          "type": "uint256"
        }
      ],
      "name": "Transfer",
      "type": "event"
    },
    {
      "inputs": [
        {
          "internalType": "address",
          "name": "",
          "type": "address"
        },
        {
          "internalType": "address",
          "name": "",
          "type": "address"
        }
      ],
      "name": "allowance",
      "outputs": [
        {
          "internalType": "uint256",
          "name": "",
          "type": "uint256"
        }
      ],
      "stateMutability": "view",
      "type": "function"
    },
    {
      "inputs": [],
      "name": "amount712",
      "outputs": [
        {
          "internalType": "uint256",
          "name": "",
          "type": "uint256"
        }
      ],
      "stateMutability": "view",
      "type": "function"
    },
    {
      "inputs": [
        {
          "internalType": "address",
          "name": "agent",
          "type": "address"
        },
        {
          "internalType": "uint256",
          "name": "qty",
          "type": "uint256"
        }
      ],
      "name": "approve",
      "outputs": [
        {
          "internalType": "bool",
          "name": "",
          "type": "bool"
        }
      ],
      "stateMutability": "nonpayable",
      "type": "function"
    },
    {
      "inputs": [
        {
          "internalType": "address",
          "name": "owner",
          "type": "address"
        },
        {
          "internalType": "address",
          "name": "agent",
          "type": "address"
        },
        {
          "internalType": "uint256",
          "name": "qty",
          "type": "uint256"
        }
      ],
      "name": "approveFor",
      "outputs": [],
      "stateMutability": "nonpayable",
      "type": "function"
    },
    {
      "inputs": [
        {
          "internalType": "address",
          "name": "",
          "type": "address"
        }
      ],
      "name": "balanceOf",
      "outputs": [
        {
          "internalType": "uint256",
          "name": "",
          "type": "uint256"
        }
      ],
      "stateMutability": "view",
      "type": "function"
    },
    {
      "inputs": [],
      "name": "deadline712",
      "outputs": [
        {
          "internalType": "uint256",
          "name": "",
          "type": "uint256"
        }
      ],
      "stateMutability": "view",
      "type": "function"
    },
    {
      "inputs": [],
      "name": "decimals",
      "outputs": [
        {
          "internalType": "uint8",
          "name": "",
          "type": "uint8"
        }
      ],
      "stateMutability": "view",
      "type": "function"
    },
    {
      "inputs": [
        {
          "internalType": "address",
          "name": "acct",
          "type": "address"
        },
        {
          "internalType": "uint256",
          "name": "qty",
          "type": "uint256"
        }
      ],
      "name": "deposit",
      "outputs": [],
      "stateMutability": "nonpayable",
      "type": "function"
    },
    {
      "inputs": [],
      "name": "owner712",
      "outputs": [
        {
          "internalType": "address",
          "name": "",
          "type": "address"
        }
      ],
      "stateMutability": "view",
      "type": "function"
    },
    {
      "inputs": [
        {
          "internalType": "address",
          "name": "owner",
          "type": "address"
        },
        {
          "internalType": "address",
          "name": "spender",
          "type": "address"
        },
        {
          "internalType": "uint256",
          "name": "amount",
          "type": "uint256"
        },
        {
          "internalType": "uint256",
          "name": "deadline",
          "type": "uint256"
        },
        {
          "internalType": "uint8",
          "name": "v",
          "type": "uint8"
        },
        {
          "internalType": "bytes32",
          "name": "r",
          "type": "bytes32"
        },
        {
          "internalType": "bytes32",
          "name": "s",
          "type": "bytes32"
        }
      ],
      "name": "permit",
      "outputs": [],
      "stateMutability": "nonpayable",
      "type": "function"
    },
    {
      "inputs": [],
      "name": "r712",
      "outputs": [
        {
          "internalType": "uint256",
          "name": "",
          "type": "uint256"
        }
      ],
      "stateMutability": "view",
      "type": "function"
    },
    {
      "inputs": [],
      "name": "s712",
      "outputs": [
        {
          "internalType": "uint256",
          "name": "",
          "type": "uint256"
        }
      ],
      "stateMutability": "view",
      "type": "function"
    },
    {
      "inputs": [
        {
          "internalType": "uint8",
          "name": "dec",
          "type": "uint8"
        }
      ],
      "name": "setDecimals",
      "outputs": [],
      "stateMutability": "nonpayable",
      "type": "function"
    },
    {
      "inputs": [
        {
          "internalType": "string",
          "name": "sym",
          "type": "string"
        }
      ],
      "name": "setSymbol",
      "outputs": [],
      "stateMutability": "nonpayable",
      "type": "function"
    },
    {
      "inputs": [],
      "name": "spender712",
      "outputs": [
        {
          "internalType": "address",
          "name": "",
          "type": "address"
        }
      ],
      "stateMutability": "view",
      "type": "function"
    },
    {
      "inputs": [],
      "name": "symbol",
      "outputs": [
        {
          "internalType": "string",
          "name": "",
          "type": "string"
        }
      ],
      "stateMutability": "view",
      "type": "function"
    },
    {
      "inputs": [
        {
          "internalType": "address",
          "name": "recip",
          "type": "address"
        },
        {
          "internalType": "uint256",
          "name": "qty",
          "type": "uint256"
        }
      ],
      "name": "transfer",
      "outputs": [
        {
          "internalType": "bool",
          "name": "",
          "type": "bool"
        }
      ],
      "stateMutability": "nonpayable",
      "type": "function"
    },
    {
      "inputs": [
        {
          "internalType": "address",
          "name": "from",
          "type": "address"
        },
        {
          "internalType": "address",
          "name": "to",
          "type": "address"
        },
        {
          "internalType": "uint256",
          "name": "qty",
          "type": "uint256"
        }
      ],
      "name": "transferFrom",
      "outputs": [
        {
          "internalType": "bool",
          "name": "",
          "type": "bool"
        }
      ],
      "stateMutability": "nonpayable",
      "type": "function"
    },
    {
      "inputs": [],
      "name": "v712",
      "outputs": [
        {
          "internalType": "uint8",
          "name": "",
          "type": "uint8"
        }
      ],
      "stateMutability": "view",
      "type": "function"
    }
  ],
  "bytecode": {
    "object": "0x6080806040523461001657610a0d908161001c8239f35b600080fdfe608060408181526004918236101561001657600080fd5b600092833560e01c918263095ea7b3146108545750816323b872dd1461074c5781632b101d391461072d5781632b991746146106c8578163313ce567146106a65781633602e73c1461068757816347e7ef2414610640578163647197911461062157816370a08231146105ea57816374bd559d146105cb5781637a1395aa1461059e57816395d89b4114610465578163a2bfda5814610443578163a9059cbb146103a5578163af9c4eeb1461037c578163b84c8246146101f6578163c34710fd146101ca578163d505accf14610141575063dd62ed3e146100f657600080fd5b3461013d578060031936011261013d57806020926101126108c4565b61011a6108df565b6001600160a01b0391821683526001865283832091168252845220549051908152f35b5080fd5b83903461013d5760e036600319011261013d5761015c6108c4565b6101646108df565b916084359260ff84168094036101c65760018060a01b0391826bffffffffffffffffffffffff60a01b9416848254161790551690600554161760055560443560065560643560075560ff19600854161760085560a43560095560c435600a5580f35b8480fd5b9050346101f257826003193601126101f2575490516001600160a01b03909116815260209150f35b8280fd5b8334610379576020918260031936011261013d57803567ffffffffffffffff918282116103755736602383011215610375578101359182116101f257602490368284830101116103755761024b60035461092a565b601f8111610317575b508394601f84116001146102945750938394839493610287575b5050508160011b916000199060031b1c19161760035580f35b010135905083808061026e565b601f198416957fc2575a0e9e593c00f959f8c92f12db2869c3395a3b0502d05e2516446f71f85b939186905b8882106102fd5750508460019697106102e1575b50505050811b0160035580f35b60001960f88660031b161c1992010135169055838080806102d4565b8060018497868395968901013581550196019201906102c0565b7fc2575a0e9e593c00f959f8c92f12db2869c3395a3b0502d05e2516446f71f85b601f850160051c81019187861061036b575b601f0160051c01905b8181106103605750610254565b858155600101610353565b909150819061034a565b8380fd5b80fd5b50503461013d578160031936011261013d5760055490516001600160a01b039091168152602090f35b50503461013d578060031936011261013d576020916103c26108c4565b82602435913384528386526103dc83838620541015610987565b3384528386528184206103f08482546109ca565b90556001600160a01b031680845283865292208054610410908390610964565b905582519081527fddf252ad1be2c89b69c2b068fc378daa952ba7f163c4a11628f55a4df523b3ef843392a35160018152f35b50503461013d578160031936011261013d5760209060ff600854169051908152f35b82843461037957806003193601126103795781518181926003546104888161092a565b808552906001908181169081156105805750600114610526575b5050601f801994859203011682019482861067ffffffffffffffff871117610513575091849192828552602090818452845191828186015281955b8387106104fb5750508394508582601f949501015201168101030190f35b868101820151898801890152958101958895506104dd565b634e487b7160e01b825260419052602490fd5b600384528392507fc2575a0e9e593c00f959f8c92f12db2869c3395a3b0502d05e2516446f71f85b5b82841061056557505050820160200186806104a2565b8054602085890181019190915287965090930192810161054f565b9150506020925060ff191682850152151560051b83010186806104a2565b83903461013d57602036600319011261013d573560ff811680910361013d5760ff19600254161760025580f35b50503461013d578160031936011261013d576020906006549051908152f35b50503461013d57602036600319011261013d5760209181906001600160a01b036106126108c4565b16815280845220549051908152f35b50503461013d578160031936011261013d57602090600a549051908152f35b50503461013d578060031936011261013d576001600160a01b036106626108c4565b16908183528260205261067a60243582852054610964565b9183528260205282205580f35b50503461013d578160031936011261013d576020906009549051908152f35b50503461013d578160031936011261013d5760209060ff600254169051908152f35b50503461013d576020907f8c5be1e5ebec7d5bd14f71427d1e84f3dd0314c0f7b2291e5b200ac8c7c3b9256106fc366108f5565b6001600160a01b0392831680885260018752858820929093168088529186528487208190559351938452939092a380f35b50503461013d578160031936011261013d576020906007549051908152f35b8284346103795761075c366108f5565b909160018060a01b03809116928385526020966001885286862033875288528387872054106108195750918587927fddf252ad1be2c89b69c2b068fc378daa952ba7f163c4a11628f55a4df523b3ef948688526001855282882033895285528288206107c98582546109ca565b90558688528785526107e084848a20541015610987565b8688528785528288206107f48582546109ca565b905516958681528084522061080a828254610964565b90558551908152a35160018152f35b865162461bcd60e51b81529081018890526015602482015274496e737566666963656e7420416c6c6f77616e636560581b6044820152606490fd5b915050346101f257816003193601126101f25791602092826108746108c4565b92602435918291338152600188528181209560018060a01b0316958682528852205581527f8c5be1e5ebec7d5bd14f71427d1e84f3dd0314c0f7b2291e5b200ac8c7c3b925843392a35160018152f35b600435906001600160a01b03821682036108da57565b600080fd5b602435906001600160a01b03821682036108da57565b60609060031901126108da576001600160a01b039060043582811681036108da579160243590811681036108da579060443590565b90600182811c9216801561095a575b602083101461094457565b634e487b7160e01b600052602260045260246000fd5b91607f1691610939565b9190820180921161097157565b634e487b7160e01b600052601160045260246000fd5b1561098e57565b60405162461bcd60e51b8152602060048201526014602482015273496e73756666696369656e742042616c616e636560601b6044820152606490fd5b919082039182116109715756fea26469706673582212203a77b5c6ca114288d7140ae79e0ff58ed2785a8f425af6c4cde149455b39c83764736f6c63430008130033",
    "linkReferences": {}
  },
  "methodIdentifiers": {
    "allowance(address,address)": "dd62ed3e",
    "amount712()": "74bd559d",
    "approve(address,uint256)": "095ea7b3",
    "approveFor(address,address,uint256)": "2b991746",
    "balanceOf(address)": "70a08231",
    "deadline712()": "2b101d39",
    "decimals()": "313ce567",
    "deposit(address,uint256)": "47e7ef24",
    "owner712()": "c34710fd",
    "permit(address,address,uint256,uint256,uint8,bytes32,bytes32)": "d505accf",
    "r712()": "3602e73c",
    "s712()": "64719791",
    "setDecimals(uint8)": "7a1395aa",
    "setSymbol(string)": "b84c8246",
    "spender712()": "af9c4eeb",
    "symbol()": "95d89b41",
    "transfer(address,uint256)": "a9059cbb",
    "transferFrom(address,address,uint256)": "23b872dd",
    "v712()": "a2bfda58"
  },
  "id": 62
}