{
  "abi": [
    {
      "inputs": [
        {
          "internalType": "uint16",
          "name": "callpath",
          "type": "uint16"
        },
        {
          "internalType": "bytes",
          "name": "cmd",
          "type": "bytes"
        },
        {
          "internalType": "bool",
          "name": "sudo",
          "type": "bool"
        }
      ],
      "name": "protocolCmd",
      "outputs": [],
      "stateMutability": "payable",
      "type": "function"
    },
    {
      "inputs": [
        {
          "internalType": "uint256",
          "name": "slot",
          "type": "uint256"
        }
      ],
      "name": "readSlot",
      "outputs": [
        {
          "internalType": "uint256",
          "name": "",
          "type": "uint256"
        }
      ],
      "stateMutability": "view",
      "type": "function"
    },
    {
      "inputs": [
        {
          "internalType": "address",
          "name": "base",
          "type": "address"
        },
        {
          "internalType": "address",
          "name": "quote",
          "type": "address"
        },
        {
          "internalType": "uint256",
          "name": "poolIdx",
          "type": "uint256"
        },
        {
          "internalType": "bool",
          "name": "isBuy",
          "type": "bool"
        },
        {
          "internalType": "bool",
          "name": "inBaseQty",
          "type": "bool"
        },
        {
          "internalType": "uint128",
          "name": "qty",
          "type": "uint128"
        },
        {
          "internalType": "uint16",
          "name": "tip",
          "type": "uint16"
        },
        {
          "internalType": "uint128",
          "name": "limitPrice",
          "type": "uint128"
        },
        {
          "internalType": "uint128",
          "name": "minOut",
          "type": "uint128"
        },
        {
          "internalType": "uint8",
          "name": "settleFlags",
          "type": "uint8"
        }
      ],
      "name": "swap",
      "outputs": [
        {
          "internalType": "int128",
          "name": "",
          "type": "int128"
        }
      ],
      "stateMutability": "payable",
      "type": "function"
    },
    {
      "inputs": [
        {
          "internalType": "uint16",
          "name": "callpath",
          "type": "uint16"
        },
        {
          "internalType": "bytes",
          "name": "cmd",
          "type": "bytes"
        }
      ],
      "name": "userCmd",
      "outputs": [
        {
          "internalType": "bytes",
          "name": "",
          "type": "bytes"
        }
      ],
      "stateMutability": "payable",
      "type": "function"
    },
    {
      "inputs": [
        {
          "internalType": "uint16",
          "name": "callpath",
          "type": "uint16"
        },
        {
          "internalType": "bytes",
          "name": "cmd",
          "type": "bytes"
        },
        {
          "internalType": "bytes",
          "name": "conds",
          "type": "bytes"
        },
        {
          "internalType": "bytes",
          "name": "relayerTip",
          "type": "bytes"
        },
        {
          "internalType": "bytes",
          "name": "signature",
          "type": "bytes"
        }
      ],
      "name": "userCmdRelayer",
      "outputs": [
        {
          "internalType": "bytes",
          "name": "output",
          "type": "bytes"
        }
      ],
      "stateMutability": "payable",
      "type": "function"
    },
    {
      "inputs": [
        {
          "internalType": "uint16",
          "name": "callpath",
          "type": "uint16"
        },
        {
          "internalType": "bytes",
          "name": "cmd",
          "type": "bytes"
        },
        {
          "internalType": "address",
          "name": "client",
          "type": "address"
        },
        {
          "internalType": "uint256",
          "name": "salt",
          "type": "uint256"
        }
      ],
      "name": "userCmdRouter",
      "outputs": [
        {
          "internalType": "bytes",
          "name": "",
          "type": "bytes"
        }
      ],
      "stateMutability": "payable",
      "type": "function"
    }
  ],
  "bytecode": {
    "object": "0x6080806040523461001657610348908161001c8239f35b600080fdfe6080604081815260048036101561001557600080fd5b600092833560e01c90816302ce8af31461026e5750806308719070146101ea57806313fd34f4146101a45780633b0746d11461014b5780633d719cd9146100b05763a15112f91461006557600080fd5b816003193601126100ac57610078610288565b5060243567ffffffffffffffff81116100a8576100979136910161029e565b505051806100a4816102cc565b0390f35b8380fd5b8280fd5b506101403660031901126100ac576001600160a01b039035818116036100ac576024359081160361014757606435801515036101475760843580151503610147576fffffffffffffffffffffffffffffffff60a435818116036100ac5760c43561ffff8116036100ac5760e435818116036100ac576101043590811603610147576101243560ff8116036101475751908152602090f35b5080fd5b508290608036600319011261014757610162610288565b5060243567ffffffffffffffff81116100ac576101819136910161029e565b50506044356001600160a01b038116036101a1575051806100a4816102cc565b80fd5b83826060366003190112610147576101ba610288565b506024359067ffffffffffffffff82116100ac576101da9136910161029e565b5050604435801515036101a15780f35b5060a03660031901126100ac576101ff610288565b5067ffffffffffffffff60243581811161026a57610220903690840161029e565b505060443581811161026a57610239903690840161029e565b505060643581811161026a57610252903690840161029e565b50506084359081116100a8576100979136910161029e565b8480fd5b849034610147576020366003190112610147576020918152f35b6004359061ffff8216820361029957565b600080fd5b9181601f840112156102995782359167ffffffffffffffff8311610299576020838186019501011161029957565b90602091828152606051808483015260005b8181106102ff575060409293506000838284010152601f8019910116010190565b60808101518382016040015284016102de56fea2646970667358221220975eb719cb0a8d6e28e4380af32e480b6d6f43efcb3b9c00137070f877ae095e64736f6c63430008130033",
    "linkReferences": {}
  },
  "methodIdentifiers": {
    "protocolCmd(uint16,bytes,bool)": "13fd34f4",
    "readSlot(uint256)": "02ce8af3",
    "swap(address,address,uint256,bool,bool,uint128,uint16,uint128,uint128,uint8)": "3d719cd9",
    "userCmd(uint16,bytes)": "a15112f9",
    "userCmdRelayer(uint16,bytes,bytes,bytes,bytes)": "08719070",
    "userCmdRouter(uint16,bytes,address,uint256)": "3b0746d1"
  },
  "id": 59
}