{
  "abi": [
    {
      "anonymous": false,
      "inputs": [
        {
          "indexed": true,
          "internalType": "bytes32",
          "name": "pool",
          "type": "bytes32"
        },
        {
          "indexed": true,
          "internalType": "int24",
          "name": "tick",
          "type": "int24"
        },
        {
          "indexed": false,
          "internalType": "bool",
          "name": "isBid",
          "type": "bool"
        },
        {
          "indexed": false,
          "internalType": "uint32",
          "name": "pivotTime",
          "type": "uint32"
        },
        {
          "indexed": false,
          "internalType": "uint64",
          "name": "feeMileage",
          "type": "uint64"
        },
        {
          "indexed": false,
          "internalType": "uint160",
          "name": "commitEntropy",
          "type": "uint160"
        }
      ],
      "name": "CrocKnockoutCross",
      "type": "event"
    },
    {
      "inputs": [
        {
          "internalType": "address",
          "name": "",
          "type": "address"
        },
        {
          "internalType": "uint16",
          "name": "slot",
          "type": "uint16"
        }
      ],
      "name": "acceptCrocProxyRole",
      "outputs": [
        {
          "internalType": "bool",
          "name": "",
          "type": "bool"
        }
      ],
      "stateMutability": "pure",
      "type": "function"
    },
    {
      "inputs": [
        {
          "internalType": "uint128",
          "name": "price",
          "type": "uint128"
        },
        {
          "internalType": "uint128",
          "name": "seed",
          "type": "uint128"
        },
        {
          "internalType": "uint128",
          "name": "conc",
          "type": "uint128"
        },
        {
          "internalType": "uint64",
          "name": "seedGrowth",
          "type": "uint64"
        },
        {
          "internalType": "uint64",
          "name": "concGrowth",
          "type": "uint64"
        },
        {
          "internalType": "uint128",
          "name": "liq",
          "type": "uint128"
        },
        {
          "internalType": "bytes32",
          "name": "poolHash",
          "type": "bytes32"
        }
      ],
      "name": "burnAmbient",
      "outputs": [
        {
          "internalType": "int128",
          "name": "baseFlow",
          "type": "int128"
        },
        {
          "internalType": "int128",
          "name": "quoteFlow",
          "type": "int128"
        },
        {
          "internalType": "uint128",
          "name": "seedOut",
          "type": "uint128"
        }
      ],
      "stateMutability": "payable",
      "type": "function"
    },
    {
      "inputs": [
        {
          "internalType": "uint128",
          "name": "price",
          "type": "uint128"
        },
        {
          "internalType": "int24",
          "name": "priceTick",
          "type": "int24"
        },
        {
          "internalType": "uint128",
          "name": "seed",
          "type": "uint128"
        },
        {
          "internalType": "uint128",
          "name": "conc",
          "type": "uint128"
        },
        {
          "internalType": "uint64",
          "name": "seedGrowth",
          "type": "uint64"
        },
        {
          "internalType": "uint64",
          "name": "concGrowth",
          "type": "uint64"
        },
        {
          "internalType": "int24",
          "name": "lowTick",
          "type": "int24"
        },
        {
          "internalType": "int24",
          "name": "highTick",
          "type": "int24"
        },
        {
          "internalType": "uint128",
          "name": "liq",
          "type": "uint128"
        },
        {
          "internalType": "bytes32",
          "name": "poolHash",
          "type": "bytes32"
        }
      ],
      "name": "burnRange",
      "outputs": [
        {
          "internalType": "int128",
          "name": "baseFlow",
          "type": "int128"
        },
        {
          "internalType": "int128",
          "name": "quoteFlow",
          "type": "int128"
        },
        {
          "internalType": "uint128",
          "name": "seedOut",
          "type": "uint128"
        },
        {
          "internalType": "uint128",
          "name": "concOut",
          "type": "uint128"
        }
      ],
      "stateMutability": "payable",
      "type": "function"
    },
    {
      "inputs": [
        {
          "internalType": "uint128",
          "name": "price",
          "type": "uint128"
        },
        {
          "internalType": "uint128",
          "name": "seed",
          "type": "uint128"
        },
        {
          "internalType": "uint128",
          "name": "conc",
          "type": "uint128"
        },
        {
          "internalType": "uint64",
          "name": "seedGrowth",
          "type": "uint64"
        },
        {
          "internalType": "uint64",
          "name": "concGrowth",
          "type": "uint64"
        },
        {
          "internalType": "uint128",
          "name": "liq",
          "type": "uint128"
        },
        {
          "internalType": "bytes32",
          "name": "poolHash",
          "type": "bytes32"
        }
      ],
      "name": "mintAmbient",
      "outputs": [
        {
          "internalType": "int128",
          "name": "baseFlow",
          "type": "int128"
        },
        {
          "internalType": "int128",
          "name": "quoteFlow",
          "type": "int128"
        },
        {
          "internalType": "uint128",
          "name": "seedOut",
          "type": "uint128"
        }
      ],
      "stateMutability": "payable",
      "type": "function"
    },
    {
      "inputs": [
        {
          "internalType": "uint128",
          "name": "price",
          "type": "uint128"
        },
        {
          "internalType": "int24",
          "name": "priceTick",
          "type": "int24"
        },
        {
          "internalType": "uint128",
          "name": "seed",
          "type": "uint128"
        },
        {
          "internalType": "uint128",
          "name": "conc",
          "type": "uint128"
        },
        {
          "internalType": "uint64",
          "name": "seedGrowth",
          "type": "uint64"
        },
        {
          "internalType": "uint64",
          "name": "concGrowth",
          "type": "uint64"
        },
        {
          "internalType": "int24",
          "name": "lowTick",
          "type": "int24"
        },
        {
          "internalType": "int24",
          "name": "highTick",
          "type": "int24"
        },
        {
          "internalType": "uint128",
          "name": "liq",
          "type": "uint128"
        },
        {
          "internalType": "bytes32",
          "name": "poolHash",
          "type": "bytes32"
        }
      ],
      "name": "mintRange",
      "outputs": [
        {
          "internalType": "int128",
          "name": "baseFlow",
          "type": "int128"
        },
        {
          "internalType": "int128",
          "name": "quoteFlow",
          "type": "int128"
        },
        {
          "internalType": "uint128",
          "name": "seedOut",
          "type": "uint128"
        },
        {
          "internalType": "uint128",
          "name": "concOut",
          "type": "uint128"
        }
      ],
      "stateMutability": "payable",
      "type": "function"
    },
    {
      "inputs": [
        {
          "components": [
            {
              "internalType": "uint128",
              "name": "priceRoot_",
              "type": "uint128"
            },
            {
              "internalType": "uint128",
              "name": "ambientSeeds_",
              "type": "uint128"
            },
            {
              "internalType": "uint128",
              "name": "concLiq_",
              "type": "uint128"
            },
            {
              "internalType": "uint64",
              "name": "seedDeflator_",
              "type": "uint64"
            },
            {
              "internalType": "uint64",
              "name": "concGrowth_",
              "type": "uint64"
            }
          ],
          "internalType": "struct CurveMath.CurveState",
          "name": "curve",
          "type": "tuple"
        },
        {
          "internalType": "int24",
          "name": "midTick",
          "type": "int24"
        },
        {
          "components": [
            {
              "internalType": "bool",
              "name": "isBuy_",
              "type": "bool"
            },
            {
              "internalType": "bool",
              "name": "inBaseQty_",
              "type": "bool"
            },
            {
              "internalType": "uint8",
              "name": "rollType_",
              "type": "uint8"
            },
            {
              "internalType": "uint128",
              "name": "qty_",
              "type": "uint128"
            },
            {
              "internalType": "uint128",
              "name": "limitPrice_",
              "type": "uint128"
            }
          ],
          "internalType": "struct Directives.SwapDirective",
          "name": "swap",
          "type": "tuple"
        },
        {
          "components": [
            {
              "components": [
                {
                  "internalType": "uint8",
                  "name": "schema_",
                  "type": "uint8"
                },
                {
                  "internalType": "uint16",
                  "name": "feeRate_",
                  "type": "uint16"
                },
                {
                  "internalType": "uint8",
                  "name": "protocolTake_",
                  "type": "uint8"
                },
                {
                  "internalType": "uint16",
                  "name": "tickSize_",
                  "type": "uint16"
                },
                {
                  "internalType": "uint8",
                  "name": "jitThresh_",
                  "type": "uint8"
                },
                {
                  "internalType": "uint8",
                  "name": "knockoutBits_",
                  "type": "uint8"
                },
                {
                  "internalType": "uint8",
                  "name": "oracleFlags_",
                  "type": "uint8"
                }
              ],
              "internalType": "struct PoolSpecs.Pool",
              "name": "head_",
              "type": "tuple"
            },
            {
              "internalType": "bytes32",
              "name": "hash_",
              "type": "bytes32"
            },
            {
              "internalType": "address",
              "name": "oracle_",
              "type": "address"
            }
          ],
          "internalType": "struct PoolSpecs.PoolCursor",
          "name": "pool",
          "type": "tuple"
        }
      ],
      "name": "sweepSwap",
      "outputs": [
        {
          "components": [
            {
              "internalType": "int128",
              "name": "baseFlow_",
              "type": "int128"
            },
            {
              "internalType": "int128",
              "name": "quoteFlow_",
              "type": "int128"
            },
            {
              "internalType": "uint128",
              "name": "baseProto_",
              "type": "uint128"
            },
            {
              "internalType": "uint128",
              "name": "quoteProto_",
              "type": "uint128"
            }
          ],
          "internalType": "struct Chaining.PairFlow",
          "name": "accum",
          "type": "tuple"
        },
        {
          "internalType": "uint128",
          "name": "priceOut",
          "type": "uint128"
        },
        {
          "internalType": "uint128",
          "name": "seedOut",
          "type": "uint128"
        },
        {
          "internalType": "uint128",
          "name": "concOut",
          "type": "uint128"
        },
        {
          "internalType": "uint64",
          "name": "ambientOut",
          "type": "uint64"
        },
        {
          "internalType": "uint64",
          "name": "concGrowthOut",
          "type": "uint64"
        }
      ],
      "stateMutability": "payable",
      "type": "function"
    }
  ],
  "bytecode": {
    "object": "0x6080806040523461002b5762010011805460ff60e01b1916600160e71b179055614bf390816100318239f35b600080fdfe610120604052600436101561001357600080fd5b60003560e01c80632370632b146110085780632a6f086414610e6f5780632ee1158714610c445780637b370fc2146104b75780637c6dfe3d146100a45763ac54c0fc1461005f57600080fd5b3461009f57604036600319011261009f576004356001600160a01b0381160361009f5760243561ffff811680910361009f57602090600560405191148152f35b600080fd5b6001600160401b036001600160801b03806100be36611357565b9591989b94939a929796836100d49b929b6114d9565b9d168d521660208c01521660408a01521660608801526001600160401b03608088019616865260018060a01b0360005416916101646001600160401b0361011a88611a6d565b9851169161015f6001600160401b0361015961014261013a8d8b8a612a29565b9c8b89612a90565b958261015082878d8c611ca0565b16948b89611ca0565b16611c38565b611c6e565b966104a8575b610499575b610179878261220f565b6101858484838561236a565b610191848483856128ae565b6000526201001260205260406000209586549663ffffffff600a816101c2818c60c81c166101bd611a2b565b6116f3565b16041660ff81111561044e575b506101e3876001600160801b038a16611a54565b976001600160801b036102026001600160481b038360801c1685612b07565b991690811561043b5750815460ff8160e81c16610411576fffffffffffffffffffffffffffffffff19161790555b6000546001600160a01b03169081840361037e575b5050505061027c9161026291846001600160801b03885116611cf4565b61027661027186959395611504565b611a3c565b87611cd1565b80926001600160401b0383951690816102fd575b86866102f96102ad6102716102a76102718b611504565b93611504565b926001600160801b036020816040840151169201511660405194859485929094936060926080850196600f0b8552600f0b60208501526001600160801b03809216604085015216910152565b0390f35b6001600160801b03160260301c906001600160901b036001600160801b0383169216820361009f57858215610290576102ad9395506102f9945061037461027161036e856102a79561036961036361035b6102719a61027199611589565b969094611504565b8d61151f565b61168b565b9761168b565b9594505085610290565b92602092600086936103a989978b6040519b8c98899788966349c1ae0f60e11b885260048801612c33565b03925af1918215610405576103cd6102629361027c956000916103d6575b50612c7b565b91819388610245565b6103f8915060203d6020116103fe575b6103f081836114b8565b810190612bd2565b896103c7565b503d6103e6565b6040513d6000823e3d90fd5b60405162461bcd60e51b815260206004820152600260248201526127a960f11b6044820152606490fd5b6001600160f01b03191690915550610230565b836000526201000960205260ff60406000205460301c161161047057896101cf565b60405162461bcd60e51b81526020600482015260016024820152602560f91b6044820152606490fd5b6104a384826129f0565b61016f565b6104b284836129f0565b61016a565b3660031901610280811261009f5760a01361009f576040516104d881611467565b6004356001600160801b038116810361009f5781526024356001600160801b038116810361009f5760208201526044356001600160801b038116810361009f5760408201526064356001600160401b038116810361009f5760608201526084356001600160401b038116810361009f57608082015260a43560020b60a4350361009f5760a03660c319011261009f5760405161057381611467565b60c435801515810361009f57815260e435801515810361009f5760208201526101043560ff8116810361009f576040820152610124356001600160801b038116810361009f576060820152610144356001600160801b038116810361009f5760808201526101203661016319011261009f57604051918260608101106001600160401b036060850111176109505760e03661016319011261009f5761014083016060840181106001600160401b038211176109505760405260ff6101643516610164350361009f576101643560608401526101843561ffff8116810361009f5760808401526101a43560ff8116810361009f5760a08401526101c43561ffff8116810361009f5760c08401526101e43560ff8116810361009f5760e084015260ff6102043516610204350361009f576102043561010084015260ff6102243516610224350361009f5761022435610120840152606083018352610244356020840152610264356001600160a01b038116900361009f57610264356040840152604051918260808101106001600160401b0360808501111761095057608083016040526000835260006020840152600060408401526000606084015260a4359080511515600014610c24576001600160801b038351166001600160801b0360808301511610155b15610bfa576107716001600160801b0384511661386b565b9160015b61097c57505061078e6001600160801b0383511661386b565b60020b9060020b93818503610834575b61012084846001600160801b03815116906001600160801b036020820151166001600160801b03604083015116906001600160401b0360808160608601511694015116936001600160801b036060604051978051600f0b89526020810151600f0b60208a01528260408201511660408a01520151166060870152608086015260a085015260c084015260e0830152610100820152f35b6020908101516000818152620100188352604080822097825296909252949020805490600019820182106109665761087091600019019061233c565b509063ffffffff906108a282421680949067ffffffff0000000082549160201b169067ffffffff000000001916179055565b604051926108af84611482565b83526020830195600087526000526201001860205260406000209060005260205260406000208054600160401b811015610950576108f29160018201815561233c565b91909161093a57610120958161093394511663ffffffff19845416178355511667ffffffff0000000082549160201b169067ffffffff000000001916179055565b838061079e565b634e487b7160e01b600052600060045260246000fd5b634e487b7160e01b600052604160045260246000fd5b634e487b7160e01b600052601160045260246000fd5b602086015161098f8284511515926129c7565b6000526201000760205260406000205481600014610bea576109d28261ffff60ff60015b1660ff6109c984826101008b60020b0716613afa565b16011683613b0c565b90918315610ac05750915b8215610aa0576109f891508360020b60081d60010b90613d0f565b905b8190610a0a838a51878b8b612cac565b610a148588614837565b92839182610a26575b50505050610775565b610a54575b50610a39575b818180610a1d565b610a4d919250838660208a0151928961488b565b9087610a31565b915050610a6a6020890151828651151591613da9565b908160020b9060020b03610a80575b8189610a2b565b9050610a90818851858989612cac565b610a9a8386614837565b90610a79565b5060ff6008911660020b908360020b811d901b60020b0160020b906109fa565b60008115918215610af7575b5081159115610aeb575b5015610ae6575060005b916109dd565b610ae0565b60ff915016158a610ad6565b9050808261009f5760ff906001600160801b03811615610be0575050607f5b6001600160401b03821615610bd657603f190160ff165b63ffffffff821615610bcc57601f190160ff165b61ffff821615610bc257600f190160ff165b60ff821615610bb8576007190160ff165b600f821615610bae576003190160ff165b6003821615610ba2576001190160ff16906001905b16610b96575b8b610acc565b6000190160ff16610b90565b9060019060021c610b8a565b9060041c90610b75565b9060081c90610b64565b9060101c90610b53565b9060201c90610b41565b9060401c90610b2d565b60801c9150610b16565b6109d28261ffff60ff60006109b3565b60405162461bcd60e51b815260206004820152600260248201526114d160f21b6044820152606490fd5b6001600160801b038351166001600160801b036080830151161115610759565b610c4d366113f5565b610c5b9695969391936114d9565b956001600160801b039586809216885281602089019916895216604087015260608601916001600160401b039384809216845216608087015260018060a01b0392836000541692610cac8884611721565b610cb68385611860565b86610cf48383511697610cc986886119e0565b6000526201000e602052600160301b600160b01b03604060002099600160301b019160301b166116a6565b1695805488610d0589828416611a12565b1663ffffffff60801b610d16611a2b565b60801b16916001600160601b0360a01b161717905551169260005416808303610dfd575b505050509081610d6284610d546102f995610d5c97611589565b969093611504565b9061151f565b81811615801590610df5575b15610dec57610d7c9061165b565b925b81811615801590610de4575b15610dd5576102a7610d9e610da49261165b565b94611504565b935116604051938493849160409194936001600160801b03916060850196600f0b8552600f0b602085015216910152565b50610da46102a7600094611504565b506001610d8a565b50600092610d7e565b506001610d6e565b9184939594916000602094610e28604051998a968795869463668e2cdb60e01b865260048601612bea565b03925af1801561040557610d5c94610e4e610d62926102f996600091610e575750612c7b565b94829394610d3a565b6103f8915060203d81116103fe576103f081836114b8565b610e78366113f5565b610e869695969391936114d9565b956001600160801b039586809216885281602089019916895216604087015260608601916001600160401b039384809216845216608087015260018060a01b0392836000541692610ed78884611721565b610ee18385611860565b86610ef48383511697610cc986886119e0565b875491169088808216808410610fe757505087546001600160a01b031981169098555050948616945b51169260005416808303610f60575b50866102716102f987610da4610271610d9e6102718b610f5b8f610d5c610f538483611589565b9b9094611504565b611504565b9184939594916000602094610f8b604051998a96879586946349c1ae0f60e11b865260048601612bea565b03925af1801561040557610d9e610271610da493610f5b61027198610fbe610271966102f99a600091610fc95750612c7b565b985050949550610f2c565b610fe1915060203d81116103fe576103f081836114b8565b8d6103c7565b83610ff4919a949a611a54565b16906001600160801b031916179055610f1d565b61101136611357565b90959896979193946110216114d9565b956001600160801b03809916875288602088019a168a5288604088019b168b526001600160401b038092166060880152816080880191168152600160a01b6001900391826000541694816110748b611a6d565b9351169261108484898489611b07565b611090848a8489611b07565b61109a8887611bdd565b80546001600160601b03929190836110b484828416611c1f565b16906001600160601b0319161790556110cd8a88611bdd565b91825460601c16906110de91611c1f565b81546bffffffffffffffffffffffff60601b191660609190911b6bffffffffffffffffffffffff60601b161790558161111984838a89611ca0565b1692611126918987611ca0565b1661113090611c38565b9061113a91611c6e565b90611145878461220f565b6111518686858761236a565b61115d868685876128ae565b6000908152620100126020526040902080548a811690811561134c5761119d6001600160481b038260801c16925b6111958d82611a12565b938d886128ec565b908c63ffffffff60c81b6111af611a2b565b60c81b1693169062ffffff60e81b1617906001600160481b0360801b9060801b161717905560005416908184036112c1575b50505050928261121461120387959461120e999785886102f99b985116611cf4565b998a92949195611504565b90611cd1565b828116158015906112ba575b156112b15761122e9061165b565b955b82821615908115916112a9575b501561129a5761125861125261125e9261165b565b96611504565b95611504565b95511691511660405194859485929094936060926080850196600f0b8552600f0b60208501526001600160801b03809216604085015216910152565b5061125e611258600096611504565b90508861123d565b50600095611230565b5086611220565b918495999794918a99979493866040519c8d95869563668e2cdb60e01b875260048701956112ee96612c33565b03815a602094600091f1968715610405576112036102f997869561132061120e9b6112149560009161132e5750612c7b565b9497995094978396506111e1565b611346915060203d81116103fe576103f081836114b8565b8e6103c7565b61119d60009261118b565b61014090600319011261009f576001600160801b03600435818116810361009f57916024358060020b810361009f5791604435818116810361009f5791606435828116810361009f57916001600160401b0391608435838116810361009f579260a435908116810361009f579160c4358060020b810361009f579160e4358060020b810361009f579161010435908116810361009f57906101243590565b60e090600319011261009f576001600160801b0390600435828116810361009f5791602435818116810361009f5791604435828116810361009f57916001600160401b0391606435838116810361009f5792608435908116810361009f579160a435908116810361009f579060c43590565b60a081019081106001600160401b0382111761095057604052565b604081019081106001600160401b0382111761095057604052565b606081019081106001600160401b0382111761095057604052565b90601f801991011681019081106001600160401b0382111761095057604052565b604051906114e682611467565b60006080838281528260208201528260408201528260608201520152565b6001600160801b03166001607f1b81101561009f57600f0b90565b602001906115386001600160801b03918284511661153d565b169052565b91906000908181600f0b1260001461156f576001600160801b03809183038116850316931683101561156c5750565b80fd5b6001600160801b03809181168501169316831061156c5750565b91906115cc6115a96115d1926001600160401b03606087015116906115d4565b936115c66001600160801b0380925116809287160260401c61163e565b94611604565b61163e565b90565b6001600160401b03916001600160801b0392839116600160301b0191160260301c818111611600571690565b5090565b906001600160801b03169081156116285760401b600160401b600160c01b03160490565b634e487b7160e01b600052601260045260246000fd5b6001600160801b03811691906001600160c01b0316820361009f57565b9060046001600160801b038093160191821161096657565b9060016001600160801b038093160191821161096657565b9190916001600160801b038080941691160191821161096657565b8115611628570490565b8181029291811591840414171561096657565b9190820180921161096657565b9190820391821161096657565b63ffffffff908116600019019190821161096657565b63ffffffff918216908216039190821161096657565b91909163ffffffff8080941691160191821161096657565b9060008281526201001e602081815263ffffffff94604094868686205416908161175d575b50508352522090421663ffffffff19825416179055565b836001600160801b039199979594939699989298015116965b818116428110156118505762093a809081810491808302928084048214901517156118285780820180831161183c57819004818102918183041490151715611828578a9285896117eb8f948896846118119a81809416428110600014611816576117e19293506116f3565b165b1696876116b0565b938c81526201001d8a522091168d52865261180a888d209182546116c3565b9055611709565b611776565b50505061182390426116d0565b6117e3565b634e487b7160e01b8c52601160045260248cfd5b634e487b7160e01b8d52601160045260248dfd5b5050955090919395923880611746565b6001600160a01b03169061187481836119e0565b60009082825262010020602090808252604094858520848652835263ffffffff9687878720541690816118c1575b505084528152838320918352522090421663ffffffff19825416179055565b826118d7919a989a9993979692999594956119e0565b85526201000e83526001600160801b038986205416975b828116428110156119cc5762093a809081810491808302928084048214901517156119a4578082018083116119b8578190048181029181830414901517156119a4578b92866119658f9387958361198d998f8280951690504281106000146119925761195b9293506116f3565b165b1695866116b0565b928c8c526201001f8a52808c20888d528a528b2091168a52875261180a8d8a209182546116c3565b6118ee565b50505061199f90426116d0565b61195d565b634e487b7160e01b89526011600452602489fd5b634e487b7160e01b8a52601160045260248afd5b5050939490965096949691909138806118a2565b906040519060208201926001600160601b03199060601b168352603482015260348152611a0c8161149d565b51902090565b91906001600160801b0380918401169216821061009f57565b63ffffffff8042116115d157421690565b600f0b60016001607f1b031981146109665760000390565b6001600160801b03918216908216039190821161096657565b80600a1c9060018216159081611ae1575b5080611ac0575b15611a96576001600160601b031690565b60405162461bcd60e51b8152602060048201526002602482015261119160f21b6044820152606490fd5b506001600160601b036e3fffffffffffffffffffffffffffff821610611a85565b90506ffffffffffffffffffffffffffffffc006001600160801b03821691161438611a7e565b929092611b148382611bdd565b9182546001600160601b03808216159182611bcf575b5050611b38575b5050505050565b8360ff93611b889260019660020b9760020b881215611baa575b5050611b5e818461299e565b60005262010006602052604060002092610100938686868a60081d830b07161b81541790556129c7565b6000526201000760205260406000209307161b81541790553880808080611b31565b81546001600160c01b031660c09190911b6001600160c01b0319161790553880611b52565b60601c161590503880611b2a565b604080516020810192835260e89390931b9083015290611c0a81604381015b03601f1981018352826114b8565b51902060005262010002602052604060002090565b91906001600160601b0380918401169216821061009f57565b906001600160481b038092166001600160401b030191821161096657565b9060016001600160481b038093160191821161096657565b6001600160481b03918216908216039190821161096657565b6001600160401b03918216908216039190821161096657565b81611cad91949394611bdd565b92600290810b91900b13611cc357505460c01c90565b6115d1915460c01c90611c87565b9091611cdb575050565b604001906115386001600160801b03918284511661153d565b9093926000946000938490858160020b8560020b9080821315611da157620a276d1913611d9d57620cb14a1261156c5750611d31611d3791611e98565b93611e98565b936001600160801b0380821690858116821015611d60575050505090611d5d9291611de1565b91565b9798509196909190851611611d7e575090611d7b9291611da5565b92565b92819550611d97945083611d9192611de1565b93611da5565b91600190565b5080fd5b8280fd5b906001600160801b0380848195938280951683821611600014611dd95703165b1691160260401c90811690810361009f5790565b900316611dc5565b916001600160801b038281169082161115611dff576115d192611e05565b906115d1925b90611e4691611e26611e178584611a54565b946001600160c01b0392611604565b1692611e3e6001600160801b039485809316906116b0565b9116906116a6565b90811690810361009f5790565b9115611e7f576001600160801b0380911691160260401c5b6001600160801b03811690810361009f5790565b6001600160c01b0391611e929190611604565b16611e6b565b60020b620a276d1981121580612202575b1561009f5760008112156121fc5780600003905b60018216156121ea576001600160881b036ffffcb933bd6fad37aa2d162d1a5940015b1691600281166121ce575b600481166121b2575b60088116612196575b6010811661217a575b6020811661215e575b60408116612142575b608090818116612127575b610100811661210c575b61020081166120f1575b61040081166120d6575b61080081166120bb575b61100081166120a0575b6120008116612085575b614000811661206a575b618000811661204f575b620100008116612034575b62020000811661201a575b620400008116612000575b6208000016611fe5575b50600012611fd6575b6001600160801b03906001600160401b038116611fcd5760ff60005b169060401c011690565b60ff6001611fc3565b80156116285760001904611fa7565b6b048a170391f7dc42444e8fa26000929302901c9190611f9e565b6d2216e584f5fa1ea926041bedfe98909302811c92611f94565b926e5d6af8dedb81196699c329225ee60402811c92611f89565b926f09aa508b5b7a84e1c677de54f3e99bc902811c92611f7e565b926f31be135f97d08fd981231505542fcfa602811c92611f73565b926f70d869a156d2a1b890bb3df62baf32f702811c92611f69565b926fa9f746462d870fdf8a65dc1f90e061e502811c92611f5f565b926fd097f3bdfd2022b8845ad8f792aa582502811c92611f55565b926fe7159475a2c29b7443b29c7fa6e889d902811c92611f4b565b926ff3392b0822b70005940c7a398e4b70f302811c92611f41565b926ff987a7253ac413176f2b074cf7815e5402811c92611f37565b926ffcbe86c7900a88aedcffc83b479aa3a402811c92611f2d565b926ffe5dee046a99a2a811c461f1969c305302811c92611f23565b916fff2ea16466c96a3843ec78b326b528610260801c91611f18565b916fff973b41fa98c081472e6896dfb254c00260801c91611f0f565b916fffcb9843d60f6159c9db58835c9266440260801c91611f06565b916fffe5caca7e10e4e61c3624eaa0941cd00260801c91611efd565b916ffff2e50f5f656932ef12357cf3c7fdcc0260801c91611ef4565b916ffff97272373d413259a46990580e213a0260801c91611eeb565b6001600160881b03600160801b611ee0565b80611ebd565b50620cb14a811315611ea9565b90600082815262010017602081815263ffffffff94604094868686205416908161224a5750508352522090421663ffffffff19825416179055565b866001600160801b039199979594939699989298015116965b818116428110156118505762093a809081810491808302928084048214901517156118285780820180831161183c57819004818102918183041490151715611828578a9285896122ce8f948896846122ed9a81809416428110600014611816576117e19293506116f3565b938c8152620100168a522091168d52865261180a888d209182546116c3565b612263565b60020b600a0190627fffff8213627fffff1983121761096657565b60020b627fffff81146109665760010190565b60020b6009190190627fffff198212627fffff83131761096657565b80548210156123545760005260206000200190600090565b634e487b7160e01b600052603260045260246000fd5b60c08490529193926001600160a01b039092169161238a908583856128ae565b600052620100126020526123a8604060002092858360c051926128ae565b8060a052816000526201001a60205260406000209060005260205263ffffffff604060002054169182151560001461277e576001600160801b036123f1919493945416946122f2565b925b6123fe60c051612320565b90600291820b85830b1361274557826000526201001c602052604060002060a051600052602052604060002085830b60005260205263ffffffff60406000205416938460e0528360005262010018602052604060002086840b60005260205263ffffffff6040600020541661010052815b4263ffffffff82161080612731575b156126ca578460005262010018602052604060002087850b6000526020526124ac60e051604060002061233c565b5063ffffffff604051916124bf83611482565b54818116835260201c16602082015262093a80918263ffffffff821604928381810204811484151715610966578063ffffffff8316018063ffffffff841611610966578190048082810204821481151715610966574281830263ffffffff1610156126b45763ffffffff806125388582868602166116f3565b165b1693600060805263ffffffff81511663ffffffff84840216811061256c575b505050506125679250611709565b61246f565b63ffffffff916020918684168110156126ac5750856080525b0151168c816126355750509381612567958d4263ffffffff848402161060001461261e5763ffffffff6125c7818080966125cd9602165b165b608051906116f3565b166116b0565b928a60005262010019602052604060002060a051600052602052604060002092021660005260205260406000208a880b60005260205261261360406000209182546116c3565b905538808080612559565b63ffffffff8093506125cd92506125c781426125bc565b9095949183810263ffffffff1687101561268d57505050839263ffffffff60e051169463ffffffff8614610966576125cd8d63ffffffff6125c7612687829560016125679c0160e052608051906116f3565b986125be565b612567965063ffffffff91826125c781876125cd959a979a02166125be565b608052612585565b63ffffffff6126c5818516426116d0565b61253a565b509490936126ea9263ffffffff60e051169182036126f1575b505061230d565b92916123f3565b846000526201001c602052604060002060a051600052602052826040600020910b60005260205260406000209063ffffffff1982541617905538806126e3565b506101005163ffffffff60e051161061247e565b5050915091505b6000526201001a602052604060002060a051600052602052604060002063ffffffff421663ffffffff19825416179055565b50919261278b91506122f2565b61279660c051612320565b9060029181830b920b82136128a7576127dc9183600052620100188060205260406000208260005260205263ffffffff6040600020541690816127e1575b50505061230d565b61278b565b8560005260205260406000208260005260205263ffffffff612810604060002061280a846116dd565b9061233c565b505460201c1661286a57612823906116dd565b90846000526201001c602052604060002060a05160005260205260406000209060005260205263ffffffff6040600020911663ffffffff198254161790555b3880806127d4565b90846000526201001c602052604060002060a05160005260205260406000209060005260205260406000209063ffffffff19825416179055612862565b505061274c565b9290916040519260208401946001600160601b03199060601b168552603484015260e81b605483015260e81b6057820152603a8152611a0c8161149d565b929190916001600160801b038082161561297057831615612969576001600160481b0393848316858216146129615761294d61294786948461293b81612941612953978b61293b8c9b8261168b565b91612977565b9961168b565b94611c56565b93611c56565b169116019081116109665790565b935050505090565b5091505090565b5050505090565b6001600160481b039261299a926001600160801b039182169285169116026116a6565b1690565b604080516020810192835260029390930b60101d60f81b9083015290611a0c8160418101611bfc565b604080516020810192835260029390930b60081d60f01b9083015290611a0c8160428101611bfc565b604080516020810192835260e89390931b9083015290612a138160438101611bfc565b5190206000526201000260205260006040812055565b91612a348284611bdd565b9081546001600160601b038092168282160382811161096657821680916001600160601b03191617809355159182612a82575b5050612a74575050600090565b612a7d91612b5f565b600190565b60601c161590503880612a67565b91612a9b8284611bdd565b906001600160601b03908180845460601c16911690038181116109665782546bffffffffffffffffffffffff60601b1916606082901b6bffffffffffffffffffffffff60601b161783558116159182612afb575050612a74575050600090565b54161590503880612a67565b6001600160481b03916002838216018381116109665783168284161115612b5757612b36839160011993611c6e565b1601818111610966576001600160401b03809282161160001461299a575090565b505050600090565b8160020b91612b6e81836129c7565b60005262010007602052604060002061010090600160ff838707161b1981541680915515612b9d575b50505050565b612bab60ff9260019461299e565b6000526201000660205260406000209360081d830b07161b19815416905538808080612b97565b9081602091031261009f5751801515810361009f5790565b6001600160a01b039091168152602081019190915260006040820181905260608201526001600160801b0390911660808201526001600160481b0390911660a082015260c00190565b9460a0946001600160481b03946001600160801b039399989460c089019a6001808a1b03168952602089015260020b604088015260020b606087015216608085015216910152565b15612c8257565b60405162461bcd60e51b815260206004820152600260248201526104c560f41b6044820152606490fd5b92909360808301516001600160801b03168351151590612ccb92613370565b60608301516001600160801b0316602084015115158360208295015161ffff16906040015160ff16928488516001600160801b031696612d0b928a6130c9565b82612d1589613126565b916001600160801b038716978811908a516001600160801b0316612d38946137de565b6001600160801b031602620f4240900491820260081c6001600160801b03166001600160801b03819316036001600160801b031690612d78818389613443565b60009183600091016001600160801b0316916000146130405750612d9e612dac91611504565b60208701511515928961309d565b1561301f576001600160801b03612dca60608801928284511661168b565b1690525b60208301511590811591845115156001600160801b03606087015116916000612df98587868c6130c9565b90846001600160801b03831610600014612f335750505091612e5f91612e6c9493612e65612e5882878c612e4c886001600160801b03612e3884613126565b935116612e46828286611da5565b93611de1565b8215612f2e5790613310565b9590613054565b94613054565b948961315c565b9091926001600160801b03829394965116149081612f1b575b5015612ef157612eac926001600160801b036020925b16606082015201511515928461309d565b15612ed1576060016001600160801b03815116906001600160801b0382116109665752565b6040016001600160801b03815116906001600160801b0382116109665752565b60405162461bcd60e51b8152602060048201526002602482015261052560f41b6044820152606490fd5b6001600160801b03915016151538612e85565b613310565b6001600160801b039795509383612f898189612f9196958e809c999f9a612f5c612f989c613126565b8f86868684612f6d948851166131f5565b998a925015613012578f612f8393511690611da5565b90613310565b949094613054565b948861315c565b92919490938394959760001461300957511610905b81612ff7575b5015612fcd57612eac926001600160801b03602092612e9b565b60405162461bcd60e51b8152602060048201526002602482015261292360f11b6044820152606490fd5b6001600160801b039150161538612fb3565b51161190612fad565b8f612f8393511690611de1565b6001600160801b0361303860408801928284511661168b565b169052612dce565b915061304e612dac91611504565b91612d9e565b600f0b6004019060016001607f1b03821360016001607f1b031983121761096657565b90600f0b90600f0b019060016001607f1b0319821260016001607f1b0383131761096657565b6020906130b16130c2938251600f0b613077565b600f0b815201918251600f0b613077565b600f0b9052565b919290926130d683613126565b901561310d576001600160801b036130f093511690611da5565b6001600160801b038281169082161115613108575090565b905090565b6001600160801b0361312193511690611de1565b6130f0565b6115d1906001600160801b036040613152826020850151166001600160401b03606086015116906115d4565b9201511690611a12565b929161316e90979496919788876131bb565b6001600160801b039290838216848216106131ac5750506000945b87156131a657805b971561319f57505b94169052565b9050613199565b81613191565b6131b591611a54565b94613189565b911515901515146000146131e7575b600081600f0b126131e1576001600160801b031690565b50600090565b6131f090611a3c565b6131ca565b93921561324c576132059361325a565b6001600160801b0381166f0ffff5433e2b3d8211706e6102aa94728110156132365762010002809110613108575090565b50506f0ffff5433e2b3d8211706e6102aa947190565b613255936132c4565b613205565b91906001600160801b0391828216156132bc579061327791611604565b6001600160c01b0381168210612969578116921561329a5750906115d19161168b565b81168210156132b5576132af6115d192611673565b90611a54565b5050600090565b505091505090565b906132d36132db94939261334e565b92159261325a565b6001600160801b038116156132fb576132f66115d19161334e565b611673565b506f0ffff5433e2b3d8211706e6102aa947290565b9190921515901515146000146133395761027161332f61333592611504565b92611504565b9091565b61334861027161333592611504565b91611504565b6001600160801b03809116801561162857600160801b0481811161009f571690565b9061337b92916133c6565b6001600160801b038116620100028082106133c057506f0ffff5433e2b3d8211706e6102aa947211156133ab5790565b506f0ffff5433e2b3d8211706e6102aa947190565b91505090565b918260020b620a276d19811390811591613435575b50156133e75750905090565b15613412576001600160801b03809261340260001991611e98565b0116918116821015613108575090565b9061341c90611e98565b906001600160801b038082169083161115613108575090565b620cb14a91501215386133db565b919061344e83613126565b906001600160801b039283831615611b3157159161347083858751168361377f565b60011b917001fffffffffffffffffffffffffffffffe6ffffffffffffffffffffffffffffffffe8416931683036109665783856134ce948082851611156000146135955750506134c991506000925b8688511690611e53565b6135a1565b6001600160401b03918282166134e5575050505050565b81846134f9613531938695838a51166136e1565b1686526dffffffffffffffff000000000000606087018461351d84828451166136b0565b16809152600160301b019160301b166116a6565b169283836040830151160260301c936001600160901b038486169516850361009f578461355d9161373b565b906080810191838084511691160191838311610966576135889360209316905201928284511661168b565b1690523880808080611b31565b6134c9930316926134bf565b6001600160801b038082168015918215613633575b50506132b5576135c96135ce928261168b565b61363f565b906001600160401b0380831692600160301b938481101561009f5780677fffffffffffffff910260331c9160011c1603169182101561360957565b60405162461bcd60e51b815260206004820152600260248201526124a360f11b6044820152606490fd5b841611905038806135b6565b6001600160801b03906001600160d01b0381831690811090816136a3575b501561009f5765ffffffffffff199261368692169060301b600160301b600160b01b03166116a6565b01600160301b9081811015611600576001600160401b0391501690565b905082841611153861365d565b6001600160401b0391908216600160301b908101918316010260301c65ffffffffffff190181811015611600571690565b91906001600160401b0316600160301b019060001461371a576001906001600160801b038093160260301c0190811690810361009f5790565b61299a90600160301b600160b01b036001600160801b039360301b166116a6565b906001600160801b03908181169182156137765761376f61376961299a946001600160401b038097166116b0565b92611673565b16906116a6565b50505050600090565b91156137a1575060401c6001600160401b03166001016001600160801b031690565b6001600160801b03916001916137cd6137c06000198301861684611604565b91848060c01b0393611604565b9003160190811690810361009f5790565b9291936001600160801b039485851693841561385f578661381084829515968361380989838d611e53565b1699611e53565b169315901515146000146138575716015b8015613851578161383292026116a6565b818111156138495703905b811690810361009f5790565b90039061383d565b50505090565b169003613821565b50505050505050600090565b6001600160801b03808216916201000283101580613ae1575b1561009f57600160401b600160c01b039060401b168082811160071b9181831c926001600160401b03841160061b93841c9363ffffffff851160051b94851c9461ffff861160041b95861c60ff9687821160031b91821c92600f841160021b93841c94600160038711811b96871c119617171717171717916080831015600014613ad55750607e1982011c5b8002607f928392828493841c81841c1c800280851c81851c1c800280861c81861c1c800280871c81871c1c80029081881c82881c1c80029283891c84891c1c800294858a1c868a1c1c800296878b1c888b1c1c800298898c1c8a8c1c1c80029a8b8d1c8c821c1c8002809d1c8d821c1c8002809e81901c90821c1c80029e8f80911c911c1c800260cd1c6604000000000000169d60cc1c6608000000000000169c60cb1c6610000000000000169b60ca1c6620000000000000169a60c91c6640000000000000169960c81c6680000000000000169860c71c670100000000000000169760c61c670200000000000000169660c51c670400000000000000169560c41c670800000000000000169460c31c671000000000000000169360c21c672000000000000000169260c11c674000000000000000169160c01c6780000000000000001690607f190160401b1717171717171717171717171717693627a301d71055774c8502906f028f6481ab7f045a5af012a19d003aa919820160801d60020b916fdb2df09e81959a81455e260799a0632f0160801d60020b92600091848414600014613ac057505050905090565b613ac985611e98565b16119050613108575090565b905081607f031b613910565b506f0ffff5433e2b3d8211706e6102aa94728310613884565b9015613b035790565b60ff9081031690565b929060009361ffff60009285600014613d04571690811c901b5b8015938415613b3457505050565b9294509091839015613c2e575080918361156c575060ff906001600160801b03811615613c24575050607f5b6001600160401b03821615613c1a57603f190160ff165b63ffffffff821615613c1057601f190160ff165b61ffff821615613c0657600f190160ff165b60ff821615613bfc576007190160ff165b600f821615613bf2576003190160ff165b6003821615613be6576001190160ff16906001905b16613bdc5791565b6000190160ff1691565b9060019060021c613bd4565b9060041c90613bbf565b9060081c90613bae565b9060101c90613b9d565b9060201c90613b8b565b9060401c90613b77565b60801c9150613b60565b8190839061156c5750600160801b811015613cf5575b5080600160401b6002921015613ce6575b640100000000811015613cd7575b62010000811015613cc8575b610100811015613cb9575b6010811015613caa575b6004811015613c9c575b10611d5d5760010160ff1691565b91810160ff1691811c613c8e565b600492830160ff16921c613c84565b600892830160ff16921c613c7a565b601092830160ff16921c613c6f565b602092830160ff16921c613c63565b604092830160ff16921c613c55565b60809250821c90506002613c44565b1690811b901c613b26565b908115613d9e578115613d9457617fff905b60010b60009160010b8114600014613d4957505015613d4157627fffff90565b627fffff1990565b60010191617fff8313617fff19841217613d8057613d78575060ff805b1660020b9060081b60020b0160020b90565b60ff90613d66565b634e487b7160e01b82526011600452602482fd5b617fff1990613d21565b905060081b60020b90565b91908180613ea0575b613e9657811580613e86575b613e7b5760008215613e4457505b60020b9060ff610100816080601086901d600081810b908112613e3a575082160116935b60081d60010b0716613e04828285876141c7565b15612961575081613e1691848661474f565b15613e33575015613e2a576115d1916147c5565b6115d1916147fc565b9250505090565b9050011693613df0565b60029190910b6000190190627fffff198212627fffff831317613e675750613dcc565b634e487b7160e01b81526011600452602490fd5b505050627fffff1990565b50627fffff198160020b14613dbe565b505050627fffff90565b50627fffff8160020b14613db2565b929190613ebb9061446a565b604051936020850185613ef060ff9384871660010b8660081b60010b0160010b90849091602292825260f01b60208201520190565b0395613f04601f19978881018352826114b8565b51902094600095865262010007602052604086205486918115918215613f58575b5050613f4f579061ff00911660020b9260081b1660020b9060101b60020b0160020b0160020b9190565b50505050600190565b91925090808361404e57849081906001600160801b0381161561404357509050607f5b6001600160401b0383161561403857603f19018116925b63ffffffff83161561402d5781929301165b61ffff83161561402357600f190181165b82821615614019576007190181165b600f83161561400f576003190181165b600383161561400357600119018116916001905b16613ff7575b50903880613f25565b90600019011682613fee565b9160019060021c613fe8565b9160041c91613fd4565b9160081c91613fc4565b9160101c91613fb5565b509060201c91613fa4565b929160401c91613f92565b60801c925090613f7b565b8880fd5b92919061405e9061446a565b604051602081019061409681611bfc60ff9889881660010b8760081b60010b0160010b90869091602292825260f01b60208201520190565b519020936000948552620100076020526040852054859080159081156140e0575b50613f4f579061ff00911660020b9260081b1660020b9060101b60020b0160020b0160020b9190565b81925080889261404e578491600160801b8110156141b4575b508082600160401b60029310156141a6575b640100000000821015614198575b6201000082101561418a575b61010082101561417c575b601082101561416e575b600482101561415f575b501015614154575b5090386140b7565b90600101168261414c565b908290811c9401169282614144565b600494850116931c8261413a565b600894850116931c82614130565b601094850116931c82614125565b602094850116931c82614119565b604094850116931c8261410b565b9250505060801c826002608092906140f9565b906141d49094939461446a565b90604051602081019160ff928261420a600193868916850b8860081b860b01850b90849091602292825260f01b60208201520190565b039261421e601f19948581018352826114b8565b5190209660009788526201000760205260408820549288938260001461446457905b811592831561427e575b50505061427657509061ff00911660020b9260081b1660020b9060101b60020b0160020b0160020b9190565b949350505050565b929450909184901561437a57508184614376578591849183906001600160801b0381161561436c575050607f5b6001600160401b0385161561436257603f190183165b63ffffffff851615614356570182165b61ffff84161561434c57600f190182165b83831615614342576007190182165b600f841615614338576003190182165b600384161561432f57600119018216925b16614323575b505b9138808061424a565b90600019011683614318565b9260021c614312565b9260041c92614301565b9260081c926142f1565b9260101c926142e2565b93905060201c926142d1565b9360401c936142c1565b60801c94506142ab565b8980fd5b8992915081906143765785918491600160801b81101561444f575b508083600160401b6002931015614441575b640100000000821015614433575b62010000821015614425575b610100821015614417575b6010821015614409575b60048210156143fa575b5010156143ef575b505061431a565b9091011683826143e8565b908290811c95011693836143e0565b600495860116941c836143d6565b600895860116941c836143cc565b601095860116941c836143c1565b602095860116941c836143b5565b604095860116941c836143a7565b935050505060801c8382600260809390614395565b90614240565b60ff811690600090608083101561448a57505060010b607f190160000b90565b607f190160ff16900b919050565b906144a28161446a565b9060405191826144c5602082019286849091602192825260f81b60208201520190565b03926144d9601f19948581018352826114b8565b51902092600093845262010006602052604084205484938115918215614513575b505061450a576133359350613eaf565b50505090600190565b91945090808561460b5760ff906001600160801b03811615614601575050607f5b6001600160401b038216156145f657603f190160ff16915b63ffffffff8216156145ec5760ff919201165b61ffff8216156145e257600f190160ff165b60ff8216156145d8576007190160ff165b600f8216156145ce576003190160ff165b60038216156145c2576001190160ff16906001905b166145b6575b9238806144fa565b6000190160ff166145ae565b9060019060021c6145a8565b9060041c90614593565b9060081c90614582565b9060101c90614571565b5060201c9061455f565b919060401c9061454c565b60801c9150614534565b8680fd5b6146188261446a565b60405161463c81611bfc602082019486869091602192825260f81b60208201520190565b519020916000928352620100066020526040832054918392801590811561466d575b5061450a576133359350614052565b81945080869261460b57600160801b811015614740575b5080600160401b6002921015614731575b640100000000811015614722575b62010000811015614713575b610100811015614704575b60108110156146f5575b60048110156146e7575b10156146dc575b923861465e565b60010160ff166146d5565b91810160ff1691811c6146ce565b600492830160ff16921c6146c4565b600892830160ff16921c6146ba565b601092830160ff16921c6146af565b602092830160ff16921c6146a3565b604092830160ff16921c614695565b60809250821c90506002614684565b9291826147a99161475f8461446a565b60405161478381611bfc60208201948b869091602192825260f81b60208201520190565b5190206000526201000660205260ff6147a28360406000205493613afa565b1690613b0c565b9190916147b957613335936141c7565b50505050600090600190565b9060ff91826001809301165b8381166147e35750505050627fffff90565b6147ed8183614498565b156129615750820183166147d1565b60ff916000199190820183165b838082161061481e5750505050627fffff1990565b614828818361460f565b15612961575082018316614809565b815115614871576001600160801b03809151169060808301511611905b8161485d575090565b6001600160801b0391506060015116151590565b6001600160801b0380915116906080830151161090614854565b9390938460020b91627fffff19831380614abb575b15614ab35761493e926148b3858361220f565b855115159060808601926001600160401b0392838551169460016148d78c85611bdd565b8054976d03fffffffffffffffffffffff800808a60561c16600f0b908a600a1b16600f0b03600f0b85600014614aa457985b60c01c90818103614a70575b50508315614a67575460601c1615155b60408a01966001600160801b03998a91828a511661153d565b168752614991575b50505050505061497661496d60208601511515948651151560608801968688511692614ac7565b9391909161309d565b825182160316905251156149875790565b6000190160020b90565b51610dad546001600160a01b03169190851690821561009f57604051946020860194633c05c62160e01b865260248701526044860152606485015260848401526084835260c08301918383108584111761095057600093849360405251915af43d15614a5e573d9182116109505760405191614a17601f8201601f1916602001846114b8565b82523d6000602084013e5b1561009f5760208180518101031261009f576020015180600f0b810361009f57614a5084918284511661153d565b169052388080808080614946565b60609150614a22565b54161515614925565b614a9d91614a7d91611c87565b82546001600160c01b031660c09190911b6001600160c01b031916178255565b3880614915565b614aad90611a3c565b98614909565b505050505090565b50627fffff83126148a0565b909291614ad382613126565b90614aeb856001600160801b0393848651169061377f565b938280861691161115614b935715614b4e57808251166f0ffff5433e2b3d8211706e6102aa94718110614b40575b505050614b2581611504565b9160009015614b385750905b9160009190565b905090614b31565b600101169052388080614b19565b80829594955116620100028111614b84575b505050614b6c81611504565b9215614b7e57506000905b6000929190565b90614b77565b60001901169052388080614b60565b60405162461bcd60e51b8152602060048201526002602482015261109160f21b6044820152606490fdfea2646970667358221220eb1cdf75df481c3240c5baa4f8efaf62b14dc7901078bd4b9dd1eb88705f248d64736f6c63430008130033",
    "linkReferences": {}
  },
  "methodIdentifiers": {
    "acceptCrocProxyRole(address,uint16)": "ac54c0fc",
    "burnAmbient(uint128,uint128,uint128,uint64,uint64,uint128,bytes32)": "2a6f0864",
    "burnRange(uint128,int24,uint128,uint128,uint64,uint64,int24,int24,uint128,bytes32)": "7c6dfe3d",
    "mintAmbient(uint128,uint128,uint128,uint64,uint64,uint128,bytes32)": "2ee11587",
    "mintRange(uint128,int24,uint128,uint128,uint64,uint64,int24,int24,uint128,bytes32)": "2370632b",
    "sweepSwap((uint128,uint128,uint128,uint64,uint64),int24,(bool,bool,uint8,uint128,uint128),((uint8,uint16,uint8,uint16,uint8,uint8,uint8),bytes32,address))": "7b370fc2"
  },
  "id": 8
}