{
  "abi": [
    {
      "anonymous": false,
      "inputs": [
        {
          "indexed": true,
          "internalType": "bytes32",
          "name": "pool",
          "type": "bytes32"
        },
        {
          "indexed": true,
          "internalType": "int24",
          "name": "tick",
          "type": "int24"
        },
        {
          "indexed": false,
          "internalType": "bool",
          "name": "isBid",
          "type": "bool"
        },
        {
          "indexed": false,
          "internalType": "uint32",
          "name": "pivotTime",
          "type": "uint32"
        },
        {
          "indexed": false,
          "internalType": "uint64",
          "name": "feeMileage",
          "type": "uint64"
        },
        {
          "indexed": false,
          "internalType": "uint160",
          "name": "commitEntropy",
          "type": "uint160"
        }
      ],
      "name": "CrocKnockoutCross",
      "type": "event"
    },
    {
      "inputs": [
        {
          "internalType": "address",
          "name": "",
          "type": "address"
        },
        {
          "internalType": "uint16",
          "name": "slot",
          "type": "uint16"
        }
      ],
      "name": "acceptCrocProxyRole",
      "outputs": [
        {
          "internalType": "bool",
          "name": "",
          "type": "bool"
        }
      ],
      "stateMutability": "pure",
      "type": "function"
    },
    {
      "inputs": [
        {
          "internalType": "uint128",
          "name": "price",
          "type": "uint128"
        },
        {
          "internalType": "uint128",
          "name": "seed",
          "type": "uint128"
        },
        {
          "internalType": "uint128",
          "name": "conc",
          "type": "uint128"
        },
        {
          "internalType": "uint64",
          "name": "seedGrowth",
          "type": "uint64"
        },
        {
          "internalType": "uint64",
          "name": "concGrowth",
          "type": "uint64"
        },
        {
          "internalType": "uint128",
          "name": "liq",
          "type": "uint128"
        },
        {
          "internalType": "bytes32",
          "name": "poolHash",
          "type": "bytes32"
        }
      ],
      "name": "burnAmbient",
      "outputs": [
        {
          "internalType": "int128",
          "name": "baseFlow",
          "type": "int128"
        },
        {
          "internalType": "int128",
          "name": "quoteFlow",
          "type": "int128"
        },
        {
          "internalType": "uint128",
          "name": "seedOut",
          "type": "uint128"
        }
      ],
      "stateMutability": "payable",
      "type": "function"
    },
    {
      "inputs": [
        {
          "internalType": "uint128",
          "name": "price",
          "type": "uint128"
        },
        {
          "internalType": "int24",
          "name": "priceTick",
          "type": "int24"
        },
        {
          "internalType": "uint128",
          "name": "seed",
          "type": "uint128"
        },
        {
          "internalType": "uint128",
          "name": "conc",
          "type": "uint128"
        },
        {
          "internalType": "uint64",
          "name": "seedGrowth",
          "type": "uint64"
        },
        {
          "internalType": "uint64",
          "name": "concGrowth",
          "type": "uint64"
        },
        {
          "internalType": "int24",
          "name": "lowTick",
          "type": "int24"
        },
        {
          "internalType": "int24",
          "name": "highTick",
          "type": "int24"
        },
        {
          "internalType": "uint128",
          "name": "liq",
          "type": "uint128"
        },
        {
          "internalType": "bytes32",
          "name": "poolHash",
          "type": "bytes32"
        }
      ],
      "name": "burnRange",
      "outputs": [
        {
          "internalType": "int128",
          "name": "baseFlow",
          "type": "int128"
        },
        {
          "internalType": "int128",
          "name": "quoteFlow",
          "type": "int128"
        },
        {
          "internalType": "uint128",
          "name": "seedOut",
          "type": "uint128"
        },
        {
          "internalType": "uint128",
          "name": "concOut",
          "type": "uint128"
        }
      ],
      "stateMutability": "payable",
      "type": "function"
    },
    {
      "inputs": [
        {
          "internalType": "uint128",
          "name": "price",
          "type": "uint128"
        },
        {
          "internalType": "uint128",
          "name": "seed",
          "type": "uint128"
        },
        {
          "internalType": "uint128",
          "name": "conc",
          "type": "uint128"
        },
        {
          "internalType": "uint64",
          "name": "seedGrowth",
          "type": "uint64"
        },
        {
          "internalType": "uint64",
          "name": "concGrowth",
          "type": "uint64"
        },
        {
          "internalType": "uint128",
          "name": "liq",
          "type": "uint128"
        },
        {
          "internalType": "bytes32",
          "name": "poolHash",
          "type": "bytes32"
        }
      ],
      "name": "mintAmbient",
      "outputs": [
        {
          "internalType": "int128",
          "name": "baseFlow",
          "type": "int128"
        },
        {
          "internalType": "int128",
          "name": "quoteFlow",
          "type": "int128"
        },
        {
          "internalType": "uint128",
          "name": "seedOut",
          "type": "uint128"
        }
      ],
      "stateMutability": "payable",
      "type": "function"
    },
    {
      "inputs": [
        {
          "internalType": "uint128",
          "name": "price",
          "type": "uint128"
        },
        {
          "internalType": "int24",
          "name": "priceTick",
          "type": "int24"
        },
        {
          "internalType": "uint128",
          "name": "seed",
          "type": "uint128"
        },
        {
          "internalType": "uint128",
          "name": "conc",
          "type": "uint128"
        },
        {
          "internalType": "uint64",
          "name": "seedGrowth",
          "type": "uint64"
        },
        {
          "internalType": "uint64",
          "name": "concGrowth",
          "type": "uint64"
        },
        {
          "internalType": "int24",
          "name": "lowTick",
          "type": "int24"
        },
        {
          "internalType": "int24",
          "name": "highTick",
          "type": "int24"
        },
        {
          "internalType": "uint128",
          "name": "liq",
          "type": "uint128"
        },
        {
          "internalType": "bytes32",
          "name": "poolHash",
          "type": "bytes32"
        }
      ],
      "name": "mintRange",
      "outputs": [
        {
          "internalType": "int128",
          "name": "baseFlow",
          "type": "int128"
        },
        {
          "internalType": "int128",
          "name": "quoteFlow",
          "type": "int128"
        },
        {
          "internalType": "uint128",
          "name": "seedOut",
          "type": "uint128"
        },
        {
          "internalType": "uint128",
          "name": "concOut",
          "type": "uint128"
        }
      ],
      "stateMutability": "payable",
      "type": "function"
    },
    {
      "inputs": [
        {
          "components": [
            {
              "internalType": "uint128",
              "name": "priceRoot_",
              "type": "uint128"
            },
            {
              "internalType": "uint128",
              "name": "ambientSeeds_",
              "type": "uint128"
            },
            {
              "internalType": "uint128",
              "name": "concLiq_",
              "type": "uint128"
            },
            {
              "internalType": "uint64",
              "name": "seedDeflator_",
              "type": "uint64"
            },
            {
              "internalType": "uint64",
              "name": "concGrowth_",
              "type": "uint64"
            }
          ],
          "internalType": "struct CurveMath.CurveState",
          "name": "curve",
          "type": "tuple"
        },
        {
          "internalType": "int24",
          "name": "midTick",
          "type": "int24"
        },
        {
          "components": [
            {
              "internalType": "bool",
              "name": "isBuy_",
              "type": "bool"
            },
            {
              "internalType": "bool",
              "name": "inBaseQty_",
              "type": "bool"
            },
            {
              "internalType": "uint8",
              "name": "rollType_",
              "type": "uint8"
            },
            {
              "internalType": "uint128",
              "name": "qty_",
              "type": "uint128"
            },
            {
              "internalType": "uint128",
              "name": "limitPrice_",
              "type": "uint128"
            }
          ],
          "internalType": "struct Directives.SwapDirective",
          "name": "swap",
          "type": "tuple"
        },
        {
          "components": [
            {
              "components": [
                {
                  "internalType": "uint8",
                  "name": "schema_",
                  "type": "uint8"
                },
                {
                  "internalType": "uint16",
                  "name": "feeRate_",
                  "type": "uint16"
                },
                {
                  "internalType": "uint8",
                  "name": "protocolTake_",
                  "type": "uint8"
                },
                {
                  "internalType": "uint16",
                  "name": "tickSize_",
                  "type": "uint16"
                },
                {
                  "internalType": "uint8",
                  "name": "jitThresh_",
                  "type": "uint8"
                },
                {
                  "internalType": "uint8",
                  "name": "knockoutBits_",
                  "type": "uint8"
                },
                {
                  "internalType": "uint8",
                  "name": "oracleFlags_",
                  "type": "uint8"
                }
              ],
              "internalType": "struct PoolSpecs.Pool",
              "name": "head_",
              "type": "tuple"
            },
            {
              "internalType": "bytes32",
              "name": "hash_",
              "type": "bytes32"
            },
            {
              "internalType": "address",
              "name": "oracle_",
              "type": "address"
            }
          ],
          "internalType": "struct PoolSpecs.PoolCursor",
          "name": "pool",
          "type": "tuple"
        }
      ],
      "name": "sweepSwap",
      "outputs": [
        {
          "components": [
            {
              "internalType": "int128",
              "name": "baseFlow_",
              "type": "int128"
            },
            {
              "internalType": "int128",
              "name": "quoteFlow_",
              "type": "int128"
            },
            {
              "internalType": "uint128",
              "name": "baseProto_",
              "type": "uint128"
            },
            {
              "internalType": "uint128",
              "name": "quoteProto_",
              "type": "uint128"
            }
          ],
          "internalType": "struct Chaining.PairFlow",
          "name": "accum",
          "type": "tuple"
        },
        {
          "internalType": "uint128",
          "name": "priceOut",
          "type": "uint128"
        },
        {
          "internalType": "uint128",
          "name": "seedOut",
          "type": "uint128"
        },
        {
          "internalType": "uint128",
          "name": "concOut",
          "type": "uint128"
        },
        {
          "internalType": "uint64",
          "name": "ambientOut",
          "type": "uint64"
        },
        {
          "internalType": "uint64",
          "name": "concGrowthOut",
          "type": "uint64"
        }
      ],
      "stateMutability": "payable",
      "type": "function"
    }
  ],
  "bytecode": {
    "object": "0x6080806040523461002b5762010011805460ff60e01b1916600160e71b179055614c6290816100318239f35b600080fdfe6101e0604052600436101561001357600080fd5b60003560e01c80632370632b1461100b5780632a6f086414610e725780632ee1158714610c475780637b370fc2146104ba5780637c6dfe3d146100a45763ac54c0fc1461005f57600080fd5b3461009f57604036600319011261009f576004356001600160a01b0381160361009f5760243561ffff811680910361009f57602090600560405191148152f35b600080fd5b6001600160401b036001600160801b03806100be36611361565b9591989b94939a929796836100d49b929b6114e3565b9d168d521660208c01521660408a01521660608801526001600160401b03608088019616865260018060a01b0360005416916101646001600160401b0361011a88611a77565b9851169161015f6001600160401b0361015961014261013a8d8b8a612a98565b9c8b89612aff565b958261015082878d8c611caa565b16948b89611caa565b16611c42565b611c78565b966104ab575b61049c575b6101798782612219565b63ffffffff9561018e87421686868587612374565b61019a8585848661291d565b600052620100126020526040600020805497600a816101c5818c60c81c166101c0611a35565b6116fd565b16041660ff811115610451575b506101e6876001600160801b038a16611a5e565b976001600160801b036102056001600160481b038360801c1685612b76565b991690811561043e5750815460ff8160e81c16610414576fffffffffffffffffffffffffffffffff19161790555b6000546001600160a01b031690818403610381575b5050505061027f9161026591846001600160801b03885116611cfe565b6102796102748695939561150e565b611a46565b87611cdb565b80926001600160401b038395169081610300575b86866102fc6102b06102746102aa6102748b61150e565b9361150e565b926001600160801b036020816040840151169201511660405194859485929094936060926080850196600f0b8552600f0b60208501526001600160801b03809216604085015216910152565b0390f35b6001600160801b03160260301c906001600160901b036001600160801b0383169216820361009f57858215610293576102b09395506102fc9450610377610274610371856102aa9561036c61036661035e6102749a61027499611593565b96909461150e565b8d611529565b611695565b97611695565b9594505085610293565b92602092600086936103ac89978b6040519b8c98899788966349c1ae0f60e11b885260048801612ca2565b03925af1918215610408576103d06102659361027f956000916103d9575b50612cea565b91819388610248565b6103fb915060203d602011610401575b6103f381836114c2565b810190612c41565b896103ca565b503d6103e9565b6040513d6000823e3d90fd5b60405162461bcd60e51b815260206004820152600260248201526127a960f11b6044820152606490fd5b6001600160f01b03191690915550610233565b836000526201000960205260ff60406000205460301c161161047357896101d2565b60405162461bcd60e51b81526020600482015260016024820152602560f91b6044820152606490fd5b6104a68482612a5f565b61016f565b6104b58483612a5f565b61016a565b3660031901610280811261009f5760a01361009f576040516104db81611471565b6004356001600160801b038116810361009f5781526024356001600160801b038116810361009f5760208201526044356001600160801b038116810361009f5760408201526064356001600160401b038116810361009f5760608201526084356001600160401b038116810361009f57608082015260a43560020b60a4350361009f5760a03660c319011261009f5760405161057681611471565b60c435801515810361009f57815260e435801515810361009f5760208201526101043560ff8116810361009f576040820152610124356001600160801b038116810361009f576060820152610144356001600160801b038116810361009f5760808201526101203661016319011261009f57604051918260608101106001600160401b036060850111176109535760e03661016319011261009f5761014083016060840181106001600160401b038211176109535760405260ff6101643516610164350361009f576101643560608401526101843561ffff8116810361009f5760808401526101a43560ff8116810361009f5760a08401526101c43561ffff8116810361009f5760c08401526101e43560ff8116810361009f5760e084015260ff6102043516610204350361009f576102043561010084015260ff6102243516610224350361009f5761022435610120840152606083018352610244356020840152610264356001600160a01b038116900361009f57610264356040840152604051918260808101106001600160401b0360808501111761095357608083016040526000835260006020840152600060408401526000606084015260a4359080511515600014610c27576001600160801b038351166001600160801b0360808301511610155b15610bfd576107746001600160801b038451166138da565b9160015b61097f5750506107916001600160801b038351166138da565b60020b9060020b93818503610837575b61012084846001600160801b03815116906001600160801b036020820151166001600160801b03604083015116906001600160401b0360808160608601511694015116936001600160801b036060604051978051600f0b89526020810151600f0b60208a01528260408201511660408a01520151166060870152608086015260a085015260c084015260e0830152610100820152f35b60209081015160008181526201001883526040808220978252969092529490208054906000198201821061096957610873916000190190612346565b509063ffffffff906108a582421680949067ffffffff0000000082549160201b169067ffffffff000000001916179055565b604051926108b28461148c565b83526020830195600087526000526201001860205260406000209060005260205260406000208054600160401b811015610953576108f591600182018155612346565b91909161093d57610120958161093694511663ffffffff19845416178355511667ffffffff0000000082549160201b169067ffffffff000000001916179055565b83806107a1565b634e487b7160e01b600052600060045260246000fd5b634e487b7160e01b600052604160045260246000fd5b634e487b7160e01b600052601160045260246000fd5b6020860151610992828451151592612a36565b6000526201000760205260406000205481600014610bed576109d58261ffff60ff60015b1660ff6109cc84826101008b60020b0716613b69565b16011683613b7b565b90918315610ac35750915b8215610aa3576109fb91508360020b60081d60010b90613d7e565b905b8190610a0d838a51878b8b612d1b565b610a1785886148a6565b92839182610a29575b50505050610778565b610a57575b50610a3c575b818180610a20565b610a50919250838660208a015192896148fa565b9087610a34565b915050610a6d6020890151828651151591613e18565b908160020b9060020b03610a83575b8189610a2e565b9050610a93818851858989612d1b565b610a9d83866148a6565b90610a7c565b5060ff6008911660020b908360020b811d901b60020b0160020b906109fd565b60008115918215610afa575b5081159115610aee575b5015610ae9575060005b916109e0565b610ae3565b60ff915016158a610ad9565b9050808261009f5760ff906001600160801b03811615610be3575050607f5b6001600160401b03821615610bd957603f190160ff165b63ffffffff821615610bcf57601f190160ff165b61ffff821615610bc557600f190160ff165b60ff821615610bbb576007190160ff165b600f821615610bb1576003190160ff165b6003821615610ba5576001190160ff16906001905b16610b99575b8b610acf565b6000190160ff16610b93565b9060019060021c610b8d565b9060041c90610b78565b9060081c90610b67565b9060101c90610b56565b9060201c90610b44565b9060401c90610b30565b60801c9150610b19565b6109d58261ffff60ff60006109b6565b60405162461bcd60e51b815260206004820152600260248201526114d160f21b6044820152606490fd5b6001600160801b038351166001600160801b03608083015116111561075c565b610c50366113ff565b610c5e9695969391936114e3565b956001600160801b039586809216885281602089019916895216604087015260608601916001600160401b039384809216845216608087015260018060a01b0392836000541692610caf888461172b565b610cb9838561186a565b86610cf78383511697610ccc86886119ea565b6000526201000e602052600160301b600160b01b03604060002099600160301b019160301b166116b0565b1695805488610d0889828416611a1c565b1663ffffffff60801b610d19611a35565b60801b16916001600160601b0360a01b161717905551169260005416808303610e00575b505050509081610d6584610d576102fc95610d5f97611593565b96909361150e565b90611529565b81811615801590610df8575b15610def57610d7f90611665565b925b81811615801590610de7575b15610dd8576102aa610da1610da792611665565b9461150e565b935116604051938493849160409194936001600160801b03916060850196600f0b8552600f0b602085015216910152565b50610da76102aa60009461150e565b506001610d8d565b50600092610d81565b506001610d71565b9184939594916000602094610e2b604051998a968795869463668e2cdb60e01b865260048601612c59565b03925af1801561040857610d5f94610e51610d65926102fc96600091610e5a5750612cea565b94829394610d3d565b6103fb915060203d8111610401576103f381836114c2565b610e7b366113ff565b610e899695969391936114e3565b956001600160801b039586809216885281602089019916895216604087015260608601916001600160401b039384809216845216608087015260018060a01b0392836000541692610eda888461172b565b610ee4838561186a565b86610ef78383511697610ccc86886119ea565b875491169088808216808410610fea57505087546001600160a01b031981169098555050948616945b51169260005416808303610f63575b50866102746102fc87610da7610274610da16102748b610f5e8f610d5f610f568483611593565b9b909461150e565b61150e565b9184939594916000602094610f8e604051998a96879586946349c1ae0f60e11b865260048601612c59565b03925af1801561040857610da1610274610da793610f5e61027498610fc1610274966102fc9a600091610fcc5750612cea565b985050949550610f2f565b610fe4915060203d8111610401576103f381836114c2565b8d6103ca565b83610ff7919a949a611a5e565b16906001600160801b031916179055610f20565b61101436611361565b90959896979193946110246114e3565b956001600160801b03809916875288602088019a168a5288604088019b168b526001600160401b038092166060880152816080880191168152600160a01b6001900391826000541694816110778b611a77565b9351169261108784898489611b11565b611093848a8489611b11565b61109d8887611be7565b80546001600160601b03929190836110b784828416611c29565b16906001600160601b0319161790556110d08a88611be7565b91825460601c16906110e191611c29565b81546bffffffffffffffffffffffff60601b191660609190911b6bffffffffffffffffffffffff60601b161790558161111c84838a89611caa565b1692611129918987611caa565b1661113390611c42565b9061113d91611c78565b906111488784612219565b61115b63ffffffff421687878688612374565b6111678686858761291d565b6000908152620100126020526040902080548a8116908115611356576111a76001600160481b038260801c16925b61119f8d82611a1c565b938d8861295b565b908c63ffffffff60c81b6111b9611a35565b60c81b1693169062ffffff60e81b1617906001600160481b0360801b9060801b161717905560005416908184036112cb575b50505050928261121e61120d879594611218999785886102fc9b985116611cfe565b998a9294919561150e565b90611cdb565b828116158015906112c4575b156112bb5761123890611665565b955b82821615908115916112b3575b50156112a45761126261125c61126892611665565b9661150e565b9561150e565b95511691511660405194859485929094936060926080850196600f0b8552600f0b60208501526001600160801b03809216604085015216910152565b5061126861126260009661150e565b905088611247565b5060009561123a565b508661122a565b918495999794918a99979493866040519c8d95869563668e2cdb60e01b875260048701956112f896612ca2565b03815a602094600091f19687156104085761120d6102fc97869561132a6112189b61121e956000916113385750612cea565b9497995094978396506111eb565b611350915060203d8111610401576103f381836114c2565b8e6103ca565b6111a7600092611195565b61014090600319011261009f576001600160801b03600435818116810361009f57916024358060020b810361009f5791604435818116810361009f5791606435828116810361009f57916001600160401b0391608435838116810361009f579260a435908116810361009f579160c4358060020b810361009f579160e4358060020b810361009f579161010435908116810361009f57906101243590565b60e090600319011261009f576001600160801b0390600435828116810361009f5791602435818116810361009f5791604435828116810361009f57916001600160401b0391606435838116810361009f5792608435908116810361009f579160a435908116810361009f579060c43590565b60a081019081106001600160401b0382111761095357604052565b604081019081106001600160401b0382111761095357604052565b606081019081106001600160401b0382111761095357604052565b90601f801991011681019081106001600160401b0382111761095357604052565b604051906114f082611471565b60006080838281528260208201528260408201528260608201520152565b6001600160801b03166001607f1b81101561009f57600f0b90565b602001906115426001600160801b039182845116611547565b169052565b91906000908181600f0b12600014611579576001600160801b0380918303811685031693168310156115765750565b80fd5b6001600160801b0380918116850116931683106115765750565b91906115d66115b36115db926001600160401b03606087015116906115de565b936115d06001600160801b0380925116809287160260401c611648565b9461160e565b611648565b90565b6001600160401b03916001600160801b0392839116600160301b0191160260301c81811161160a571690565b5090565b906001600160801b03169081156116325760401b600160401b600160c01b03160490565b634e487b7160e01b600052601260045260246000fd5b6001600160801b03811691906001600160c01b0316820361009f57565b9060046001600160801b038093160191821161096957565b9060016001600160801b038093160191821161096957565b9190916001600160801b038080941691160191821161096957565b8115611632570490565b8181029291811591840414171561096957565b9190820180921161096957565b9190820391821161096957565b63ffffffff908116600019019190821161096957565b63ffffffff918216908216039190821161096957565b91909163ffffffff8080941691160191821161096957565b9060008281526201001e602081815263ffffffff946040948686862054169081611767575b50508352522090421663ffffffff19825416179055565b836001600160801b039199979594939699989298015116965b8181164281101561185a5762093a809081810491808302928084048214901517156118325780820180831161184657819004818102918183041490151715611832578a9285896117f58f9488968461181b9a81809416428110600014611820576117eb9293506116fd565b165b1696876116ba565b938c81526201001d8a522091168d528652611814888d209182546116cd565b9055611713565b611780565b50505061182d90426116da565b6117ed565b634e487b7160e01b8c52601160045260248cfd5b634e487b7160e01b8d52601160045260248dfd5b5050955090919395923880611750565b6001600160a01b03169061187e81836119ea565b60009082825262010020602090808252604094858520848652835263ffffffff9687878720541690816118cb575b505084528152838320918352522090421663ffffffff19825416179055565b826118e1919a989a9993979692999594956119ea565b85526201000e83526001600160801b038986205416975b828116428110156119d65762093a809081810491808302928084048214901517156119ae578082018083116119c2578190048181029181830414901517156119ae578b928661196f8f93879583611997998f82809516905042811060001461199c576119659293506116fd565b165b1695866116ba565b928c8c526201001f8a52808c20888d528a528b2091168a5287526118148d8a209182546116cd565b6118f8565b5050506119a990426116da565b611967565b634e487b7160e01b89526011600452602489fd5b634e487b7160e01b8a52601160045260248afd5b5050939490965096949691909138806118ac565b906040519060208201926001600160601b03199060601b168352603482015260348152611a16816114a7565b51902090565b91906001600160801b0380918401169216821061009f57565b63ffffffff8042116115db57421690565b600f0b60016001607f1b031981146109695760000390565b6001600160801b03918216908216039190821161096957565b80600a1c9060018216159081611aeb575b5080611aca575b15611aa0576001600160601b031690565b60405162461bcd60e51b8152602060048201526002602482015261119160f21b6044820152606490fd5b506001600160601b036e3fffffffffffffffffffffffffffff821610611a8f565b90506ffffffffffffffffffffffffffffffc006001600160801b03821691161438611a88565b929092611b1e8382611be7565b9182546001600160601b03808216159182611bd9575b5050611b42575b5050505050565b8360ff93611b929260019660020b9760020b881215611bb4575b5050611b688184612a0d565b60005262010006602052604060002092610100938686868a60081d830b07161b8154179055612a36565b6000526201000760205260406000209307161b81541790553880808080611b3b565b81546001600160c01b031660c09190911b6001600160c01b0319161790553880611b5c565b60601c161590503880611b34565b604080516020810192835260e89390931b9083015290611c1481604381015b03601f1981018352826114c2565b51902060005262010002602052604060002090565b91906001600160601b0380918401169216821061009f57565b906001600160481b038092166001600160401b030191821161096957565b9060016001600160481b038093160191821161096957565b6001600160481b03918216908216039190821161096957565b6001600160401b03918216908216039190821161096957565b81611cb791949394611be7565b92600290810b91900b13611ccd57505460c01c90565b6115db915460c01c90611c91565b9091611ce5575050565b604001906115426001600160801b039182845116611547565b9093926000946000938490858160020b8560020b9080821315611dab57620a276d1913611da757620cb14a126115765750611d3b611d4191611ea2565b93611ea2565b936001600160801b0380821690858116821015611d6a575050505090611d679291611deb565b91565b9798509196909190851611611d88575090611d859291611daf565b92565b92819550611da1945083611d9b92611deb565b93611daf565b91600190565b5080fd5b8280fd5b906001600160801b0380848195938280951683821611600014611de35703165b1691160260401c90811690810361009f5790565b900316611dcf565b916001600160801b038281169082161115611e09576115db92611e0f565b906115db925b90611e5091611e30611e218584611a5e565b946001600160c01b039261160e565b1692611e486001600160801b039485809316906116ba565b9116906116b0565b90811690810361009f5790565b9115611e89576001600160801b0380911691160260401c5b6001600160801b03811690810361009f5790565b6001600160c01b0391611e9c919061160e565b16611e75565b60020b620a276d198112158061220c575b1561009f5760008112156122065780600003905b60018216156121f4576001600160881b036ffffcb933bd6fad37aa2d162d1a5940015b1691600281166121d8575b600481166121bc575b600881166121a0575b60108116612184575b60208116612168575b6040811661214c575b608090818116612131575b6101008116612116575b61020081166120fb575b61040081166120e0575b61080081166120c5575b61100081166120aa575b612000811661208f575b6140008116612074575b6180008116612059575b62010000811661203e575b620200008116612024575b62040000811661200a575b6208000016611fef575b50600012611fe0575b6001600160801b03906001600160401b038116611fd75760ff60005b169060401c011690565b60ff6001611fcd565b80156116325760001904611fb1565b6b048a170391f7dc42444e8fa26000929302901c9190611fa8565b6d2216e584f5fa1ea926041bedfe98909302811c92611f9e565b926e5d6af8dedb81196699c329225ee60402811c92611f93565b926f09aa508b5b7a84e1c677de54f3e99bc902811c92611f88565b926f31be135f97d08fd981231505542fcfa602811c92611f7d565b926f70d869a156d2a1b890bb3df62baf32f702811c92611f73565b926fa9f746462d870fdf8a65dc1f90e061e502811c92611f69565b926fd097f3bdfd2022b8845ad8f792aa582502811c92611f5f565b926fe7159475a2c29b7443b29c7fa6e889d902811c92611f55565b926ff3392b0822b70005940c7a398e4b70f302811c92611f4b565b926ff987a7253ac413176f2b074cf7815e5402811c92611f41565b926ffcbe86c7900a88aedcffc83b479aa3a402811c92611f37565b926ffe5dee046a99a2a811c461f1969c305302811c92611f2d565b916fff2ea16466c96a3843ec78b326b528610260801c91611f22565b916fff973b41fa98c081472e6896dfb254c00260801c91611f19565b916fffcb9843d60f6159c9db58835c9266440260801c91611f10565b916fffe5caca7e10e4e61c3624eaa0941cd00260801c91611f07565b916ffff2e50f5f656932ef12357cf3c7fdcc0260801c91611efe565b916ffff97272373d413259a46990580e213a0260801c91611ef5565b6001600160881b03600160801b611eea565b80611ec7565b50620cb14a811315611eb3565b90600082815262010017602081815263ffffffff9460409486868620541690816122545750508352522090421663ffffffff19825416179055565b866001600160801b039199979594939699989298015116965b8181164281101561185a5762093a809081810491808302928084048214901517156118325780820180831161184657819004818102918183041490151715611832578a9285896122d88f948896846122f79a81809416428110600014611820576117eb9293506116fd565b938c8152620100168a522091168d528652611814888d209182546116cd565b61226d565b60020b600a0190627fffff8213627fffff1983121761096957565b60020b627fffff81146109695760010190565b60020b6009190190627fffff198212627fffff83131761096957565b805482101561235e5760005260206000200190600090565b634e487b7160e01b600052603260045260246000fd5b928261239492939482968560c05260a05260018060a01b0316938461291d565b600052620100126020526123b2838360406000209360c0519061291d565b806101205260c0516000526201001a60205260406000209060005260205263ffffffff60406000205416806101405263ffffffff60a05116106128e35761014051156127a857546001600160801b031660e052909190612411906122fc565b6080525b61241e8261232a565b6002908161010052608051820b910b811361276c5760c051806000526201001c60205260406000206101205160005260205260406000208260005260205263ffffffff60406000205416806101c0526101a0526000526201001860205260406000209060005260205263ffffffff6040600020541661018052610140515b63ffffffff60a0511663ffffffff82161080612757575b156126de5760c051600052620100186020526040600020608051610100510b6000526020526124e96101c0516040600020612346565b509063ffffffff604051926124fd8461148c565b54818116845260201c16602083015262093a80908163ffffffff821604918281810204811483151715610969578063ffffffff8316018063ffffffff841611610969578190049283828102048214841517156109695763ffffffff8260a051950216938363ffffffff821686106000146126d05761257c9150856116fd565b9363ffffffff8651168181106125a0575b5050505061259b9250611713565b61249c565b63ffffffff85168110156126c2575063ffffffff602085975b0151168061016052801560001461265e57506125fe61259b9663ffffffff6125f8819460a051838116821060001461265757505b925b60e051936116fd565b166116ba565b9260c0516000526201001960205260406000206101205160005260205260406000209202166000526020526040600020608051610100510b60005260205261264c60406000209182546116cd565b90553880808061258d565b90506125ed565b9594908087116126a85750508463ffffffff6101c0511663ffffffff81146109695761259b9663ffffffff6125f86126a288839660016125fe97016101c0526116fd565b986125ef565b61259b965063ffffffff9195826125f86125fe93926125ef565b602063ffffffff91976125b9565b6126d9916116fd565b61257c565b509061241e9063ffffffff6101c051166101a0518103612710575b50612705608051612317565b608052919050612415565b60c0516000526201001c6020526040600020610120516000526020526040600020608051610100510b60005260205260406000209063ffffffff19825416179055386126f9565b506101805163ffffffff6101c05116106124b3565b5090505b60c0516000526201001a602052604060002061012051600052602052604060002063ffffffff60a0511663ffffffff19825416179055565b506127b2906122fc565b6127bb8261232a565b60029082820b910b81136128db576127bb916128089160c05180600052620100188060205260406000208360005260205263ffffffff60406000205416918261280f575b50505050612317565b90506127b2565b60005260205260406000208260005260205263ffffffff61283d6040600020612837846116e7565b90612346565b505460201c1661289b57612850906116e7565b9060c0516000526201001c60205260406000206101205160005260205260406000209060005260205263ffffffff6040600020911663ffffffff198254161790555b388080806127ff565b9060c0516000526201001c60205260406000206101205160005260205260406000209060005260205260406000209063ffffffff19825416179055612892565b505050612770565b60405162461bcd60e51b8152602060048201526012602482015271125b9d985b1a59081d1a5b59481b1a5b5a5d60721b6044820152606490fd5b9290916040519260208401946001600160601b03199060601b168552603484015260e81b605483015260e81b6057820152603a8152611a16816114a7565b929190916001600160801b03808216156129df578316156129d8576001600160481b0393848316858216146129d0576129bc6129b68694846129aa816129b06129c2978b6129aa8c9b82611695565b916129e6565b99611695565b94611c60565b93611c60565b169116019081116109695790565b935050505090565b5091505090565b5050505090565b6001600160481b0392612a09926001600160801b039182169285169116026116b0565b1690565b604080516020810192835260029390930b60101d60f81b9083015290611a168160418101611c06565b604080516020810192835260029390930b60081d60f01b9083015290611a168160428101611c06565b604080516020810192835260e89390931b9083015290612a828160438101611c06565b5190206000526201000260205260006040812055565b91612aa38284611be7565b9081546001600160601b038092168282160382811161096957821680916001600160601b03191617809355159182612af1575b5050612ae3575050600090565b612aec91612bce565b600190565b60601c161590503880612ad6565b91612b0a8284611be7565b906001600160601b03908180845460601c16911690038181116109695782546bffffffffffffffffffffffff60601b1916606082901b6bffffffffffffffffffffffff60601b161783558116159182612b6a575050612ae3575050600090565b54161590503880612ad6565b6001600160481b03916002838216018381116109695783168284161115612bc657612ba5839160011993611c78565b1601818111610969576001600160401b038092821611600014612a09575090565b505050600090565b8160020b91612bdd8183612a36565b60005262010007602052604060002061010090600160ff838707161b1981541680915515612c0c575b50505050565b612c1a60ff92600194612a0d565b6000526201000660205260406000209360081d830b07161b19815416905538808080612c06565b9081602091031261009f5751801515810361009f5790565b6001600160a01b039091168152602081019190915260006040820181905260608201526001600160801b0390911660808201526001600160481b0390911660a082015260c00190565b9460a0946001600160481b03946001600160801b039399989460c089019a6001808a1b03168952602089015260020b604088015260020b606087015216608085015216910152565b15612cf157565b60405162461bcd60e51b815260206004820152600260248201526104c560f41b6044820152606490fd5b92909360808301516001600160801b03168351151590612d3a926133df565b60608301516001600160801b0316602084015115158360208295015161ffff16906040015160ff16928488516001600160801b031696612d7a928a613138565b82612d8489613195565b916001600160801b038716978811908a516001600160801b0316612da79461384d565b6001600160801b031602620f4240900491820260081c6001600160801b03166001600160801b03819316036001600160801b031690612de78183896134b2565b60009183600091016001600160801b0316916000146130af5750612e0d612e1b9161150e565b60208701511515928961310c565b1561308e576001600160801b03612e39606088019282845116611695565b1690525b60208301511590811591845115156001600160801b03606087015116916000612e688587868c613138565b90846001600160801b03831610600014612fa25750505091612ece91612edb9493612ed4612ec782878c612ebb886001600160801b03612ea784613195565b935116612eb5828286611daf565b93611deb565b8215612f9d579061337f565b95906130c3565b946130c3565b94896131cb565b9091926001600160801b03829394965116149081612f8a575b5015612f6057612f1b926001600160801b036020925b16606082015201511515928461310c565b15612f40576060016001600160801b03815116906001600160801b0382116109695752565b6040016001600160801b03815116906001600160801b0382116109695752565b60405162461bcd60e51b8152602060048201526002602482015261052560f41b6044820152606490fd5b6001600160801b03915016151538612ef4565b61337f565b6001600160801b039795509383612ff8818961300096958e809c999f9a612fcb6130079c613195565b8f86868684612fdc94885116613264565b998a925015613081578f612ff293511690611daf565b9061337f565b9490946130c3565b94886131cb565b92919490938394959760001461307857511610905b81613066575b501561303c57612f1b926001600160801b03602092612f0a565b60405162461bcd60e51b8152602060048201526002602482015261292360f11b6044820152606490fd5b6001600160801b039150161538613022565b5116119061301c565b8f612ff293511690611deb565b6001600160801b036130a7604088019282845116611695565b169052612e3d565b91506130bd612e1b9161150e565b91612e0d565b600f0b6004019060016001607f1b03821360016001607f1b031983121761096957565b90600f0b90600f0b019060016001607f1b0319821260016001607f1b0383131761096957565b602090613120613131938251600f0b6130e6565b600f0b815201918251600f0b6130e6565b600f0b9052565b9192909261314583613195565b901561317c576001600160801b0361315f93511690611daf565b6001600160801b038281169082161115613177575090565b905090565b6001600160801b0361319093511690611deb565b61315f565b6115db906001600160801b0360406131c1826020850151166001600160401b03606086015116906115de565b9201511690611a1c565b92916131dd909794969197888761322a565b6001600160801b0392908382168482161061321b5750506000945b871561321557805b971561320e57505b94169052565b9050613208565b81613200565b61322491611a5e565b946131f8565b91151590151514600014613256575b600081600f0b12613250576001600160801b031690565b50600090565b61325f90611a46565b613239565b9392156132bb57613274936132c9565b6001600160801b0381166f0ffff5433e2b3d8211706e6102aa94728110156132a55762010002809110613177575090565b50506f0ffff5433e2b3d8211706e6102aa947190565b6132c493613333565b613274565b91906001600160801b03918282161561332b57906132e69161160e565b6001600160c01b03811682106129d857811692156133095750906115db91611695565b81168210156133245761331e6115db9261167d565b90611a5e565b5050600090565b505091505090565b9061334261334a9493926133bd565b9215926132c9565b6001600160801b0381161561336a576133656115db916133bd565b61167d565b506f0ffff5433e2b3d8211706e6102aa947290565b9190921515901515146000146133a85761027461339e6133a49261150e565b9261150e565b9091565b6133b76102746133a49261150e565b9161150e565b6001600160801b03809116801561163257600160801b0481811161009f571690565b906133ea9291613435565b6001600160801b0381166201000280821061342f57506f0ffff5433e2b3d8211706e6102aa9472111561341a5790565b506f0ffff5433e2b3d8211706e6102aa947190565b91505090565b918260020b620a276d198113908115916134a4575b50156134565750905090565b15613481576001600160801b03809261347160001991611ea2565b0116918116821015613177575090565b9061348b90611ea2565b906001600160801b038082169083161115613177575090565b620cb14a915012153861344a565b91906134bd83613195565b906001600160801b039283831615611b3b5715916134df8385875116836137ee565b60011b917001fffffffffffffffffffffffffffffffe6ffffffffffffffffffffffffffffffffe84169316830361096957838561353d9480828516111560001461360457505061353891506000925b8688511690611e5d565b613610565b6001600160401b0391828216613554575050505050565b81846135686135a0938695838a5116613750565b1686526dffffffffffffffff000000000000606087018461358c848284511661371f565b16809152600160301b019160301b166116b0565b169283836040830151160260301c936001600160901b038486169516850361009f57846135cc916137aa565b906080810191838084511691160191838311610969576135f793602093169052019282845116611695565b1690523880808080611b3b565b6135389303169261352e565b6001600160801b0380821680159182156136a2575b50506133245761363861363d9282611695565b6136ae565b906001600160401b0380831692600160301b938481101561009f5780677fffffffffffffff910260331c9160011c1603169182101561367857565b60405162461bcd60e51b815260206004820152600260248201526124a360f11b6044820152606490fd5b84161190503880613625565b6001600160801b03906001600160d01b038183169081109081613712575b501561009f5765ffffffffffff19926136f592169060301b600160301b600160b01b03166116b0565b01600160301b908181101561160a576001600160401b0391501690565b90508284161115386136cc565b6001600160401b0391908216600160301b908101918316010260301c65ffffffffffff19018181101561160a571690565b91906001600160401b0316600160301b0190600014613789576001906001600160801b038093160260301c0190811690810361009f5790565b612a0990600160301b600160b01b036001600160801b039360301b166116b0565b906001600160801b03908181169182156137e5576137de6137d8612a09946001600160401b038097166116ba565b9261167d565b16906116b0565b50505050600090565b9115613810575060401c6001600160401b03166001016001600160801b031690565b6001600160801b039160019161383c61382f600019830186168461160e565b91848060c01b039361160e565b9003160190811690810361009f5790565b9291936001600160801b03948585169384156138ce578661387f84829515968361387889838d611e5d565b1699611e5d565b169315901515146000146138c65716015b80156138c057816138a192026116b0565b818111156138b85703905b811690810361009f5790565b9003906138ac565b50505090565b169003613890565b50505050505050600090565b6001600160801b03808216916201000283101580613b50575b1561009f57600160401b600160c01b039060401b168082811160071b9181831c926001600160401b03841160061b93841c9363ffffffff851160051b94851c9461ffff861160041b95861c60ff9687821160031b91821c92600f841160021b93841c94600160038711811b96871c119617171717171717916080831015600014613b445750607e1982011c5b8002607f928392828493841c81841c1c800280851c81851c1c800280861c81861c1c800280871c81871c1c80029081881c82881c1c80029283891c84891c1c800294858a1c868a1c1c800296878b1c888b1c1c800298898c1c8a8c1c1c80029a8b8d1c8c821c1c8002809d1c8d821c1c8002809e81901c90821c1c80029e8f80911c911c1c800260cd1c6604000000000000169d60cc1c6608000000000000169c60cb1c6610000000000000169b60ca1c6620000000000000169a60c91c6640000000000000169960c81c6680000000000000169860c71c670100000000000000169760c61c670200000000000000169660c51c670400000000000000169560c41c670800000000000000169460c31c671000000000000000169360c21c672000000000000000169260c11c674000000000000000169160c01c6780000000000000001690607f190160401b1717171717171717171717171717693627a301d71055774c8502906f028f6481ab7f045a5af012a19d003aa919820160801d60020b916fdb2df09e81959a81455e260799a0632f0160801d60020b92600091848414600014613b2f57505050905090565b613b3885611ea2565b16119050613177575090565b905081607f031b61397f565b506f0ffff5433e2b3d8211706e6102aa947283106138f3565b9015613b725790565b60ff9081031690565b929060009361ffff60009285600014613d73571690811c901b5b8015938415613ba357505050565b9294509091839015613c9d5750809183611576575060ff906001600160801b03811615613c93575050607f5b6001600160401b03821615613c8957603f190160ff165b63ffffffff821615613c7f57601f190160ff165b61ffff821615613c7557600f190160ff165b60ff821615613c6b576007190160ff165b600f821615613c61576003190160ff165b6003821615613c55576001190160ff16906001905b16613c4b5791565b6000190160ff1691565b9060019060021c613c43565b9060041c90613c2e565b9060081c90613c1d565b9060101c90613c0c565b9060201c90613bfa565b9060401c90613be6565b60801c9150613bcf565b819083906115765750600160801b811015613d64575b5080600160401b6002921015613d55575b640100000000811015613d46575b62010000811015613d37575b610100811015613d28575b6010811015613d19575b6004811015613d0b575b10611d675760010160ff1691565b91810160ff1691811c613cfd565b600492830160ff16921c613cf3565b600892830160ff16921c613ce9565b601092830160ff16921c613cde565b602092830160ff16921c613cd2565b604092830160ff16921c613cc4565b60809250821c90506002613cb3565b1690811b901c613b95565b908115613e0d578115613e0357617fff905b60010b60009160010b8114600014613db857505015613db057627fffff90565b627fffff1990565b60010191617fff8313617fff19841217613def57613de7575060ff805b1660020b9060081b60020b0160020b90565b60ff90613dd5565b634e487b7160e01b82526011600452602482fd5b617fff1990613d90565b905060081b60020b90565b91908180613f0f575b613f0557811580613ef5575b613eea5760008215613eb357505b60020b9060ff610100816080601086901d600081810b908112613ea9575082160116935b60081d60010b0716613e7382828587614236565b156129d0575081613e859184866147be565b15613ea2575015613e99576115db91614834565b6115db9161486b565b9250505090565b9050011693613e5f565b60029190910b6000190190627fffff198212627fffff831317613ed65750613e3b565b634e487b7160e01b81526011600452602490fd5b505050627fffff1990565b50627fffff198160020b14613e2d565b505050627fffff90565b50627fffff8160020b14613e21565b929190613f2a906144d9565b604051936020850185613f5f60ff9384871660010b8660081b60010b0160010b90849091602292825260f01b60208201520190565b0395613f73601f19978881018352826114c2565b51902094600095865262010007602052604086205486918115918215613fc7575b5050613fbe579061ff00911660020b9260081b1660020b9060101b60020b0160020b0160020b9190565b50505050600190565b9192509080836140bd57849081906001600160801b038116156140b257509050607f5b6001600160401b038316156140a757603f19018116925b63ffffffff83161561409c5781929301165b61ffff83161561409257600f190181165b82821615614088576007190181165b600f83161561407e576003190181165b600383161561407257600119018116916001905b16614066575b50903880613f94565b9060001901168261405d565b9160019060021c614057565b9160041c91614043565b9160081c91614033565b9160101c91614024565b509060201c91614013565b929160401c91614001565b60801c925090613fea565b8880fd5b9291906140cd906144d9565b604051602081019061410581611c0660ff9889881660010b8760081b60010b0160010b90869091602292825260f01b60208201520190565b5190209360009485526201000760205260408520548590801590811561414f575b50613fbe579061ff00911660020b9260081b1660020b9060101b60020b0160020b0160020b9190565b8192508088926140bd578491600160801b811015614223575b508082600160401b6002931015614215575b640100000000821015614207575b620100008210156141f9575b6101008210156141eb575b60108210156141dd575b60048210156141ce575b5010156141c3575b509038614126565b9060010116826141bb565b908290811c94011692826141b3565b600494850116931c826141a9565b600894850116931c8261419f565b601094850116931c82614194565b602094850116931c82614188565b604094850116931c8261417a565b9250505060801c82600260809290614168565b90614243909493946144d9565b90604051602081019160ff9282614279600193868916850b8860081b860b01850b90849091602292825260f01b60208201520190565b039261428d601f19948581018352826114c2565b519020966000978852620100076020526040882054928893826000146144d357905b81159283156142ed575b5050506142e557509061ff00911660020b9260081b1660020b9060101b60020b0160020b0160020b9190565b949350505050565b92945090918490156143e9575081846143e5578591849183906001600160801b038116156143db575050607f5b6001600160401b038516156143d157603f190183165b63ffffffff8516156143c5570182165b61ffff8416156143bb57600f190182165b838316156143b1576007190182165b600f8416156143a7576003190182165b600384161561439e57600119018216925b16614392575b505b913880806142b9565b90600019011683614387565b9260021c614381565b9260041c92614370565b9260081c92614360565b9260101c92614351565b93905060201c92614340565b9360401c93614330565b60801c945061431a565b8980fd5b8992915081906143e55785918491600160801b8110156144be575b508083600160401b60029310156144b0575b6401000000008210156144a2575b62010000821015614494575b610100821015614486575b6010821015614478575b6004821015614469575b50101561445e575b5050614389565b909101168382614457565b908290811c950116938361444f565b600495860116941c83614445565b600895860116941c8361443b565b601095860116941c83614430565b602095860116941c83614424565b604095860116941c83614416565b935050505060801c8382600260809390614404565b906142af565b60ff81169060009060808310156144f957505060010b607f190160000b90565b607f190160ff16900b919050565b90614511816144d9565b906040519182614534602082019286849091602192825260f81b60208201520190565b0392614548601f19948581018352826114c2565b51902092600093845262010006602052604084205484938115918215614582575b5050614579576133a49350613f1e565b50505090600190565b91945090808561467a5760ff906001600160801b03811615614670575050607f5b6001600160401b0382161561466557603f190160ff16915b63ffffffff82161561465b5760ff919201165b61ffff82161561465157600f190160ff165b60ff821615614647576007190160ff165b600f82161561463d576003190160ff165b6003821615614631576001190160ff16906001905b16614625575b923880614569565b6000190160ff1661461d565b9060019060021c614617565b9060041c90614602565b9060081c906145f1565b9060101c906145e0565b5060201c906145ce565b919060401c906145bb565b60801c91506145a3565b8680fd5b614687826144d9565b6040516146ab81611c06602082019486869091602192825260f81b60208201520190565b51902091600092835262010006602052604083205491839280159081156146dc575b50614579576133a493506140c1565b81945080869261467a57600160801b8110156147af575b5080600160401b60029210156147a0575b640100000000811015614791575b62010000811015614782575b610100811015614773575b6010811015614764575b6004811015614756575b101561474b575b92386146cd565b60010160ff16614744565b91810160ff1691811c61473d565b600492830160ff16921c614733565b600892830160ff16921c614729565b601092830160ff16921c61471e565b602092830160ff16921c614712565b604092830160ff16921c614704565b60809250821c905060026146f3565b929182614818916147ce846144d9565b6040516147f281611c0660208201948b869091602192825260f81b60208201520190565b5190206000526201000660205260ff6148118360406000205493613b69565b1690613b7b565b919091614828576133a493614236565b50505050600090600190565b9060ff91826001809301165b8381166148525750505050627fffff90565b61485c8183614507565b156129d0575082018316614840565b60ff916000199190820183165b838082161061488d5750505050627fffff1990565b614897818361467e565b156129d0575082018316614878565b8151156148e0576001600160801b03809151169060808301511611905b816148cc575090565b6001600160801b0391506060015116151590565b6001600160801b03809151169060808301511610906148c3565b9390938460020b91627fffff19831380614b2a575b15614b22576149ad926149228583612219565b855115159060808601926001600160401b0392838551169460016149468c85611be7565b8054976d03fffffffffffffffffffffff800808a60561c16600f0b908a600a1b16600f0b03600f0b85600014614b1357985b60c01c90818103614adf575b50508315614ad6575460601c1615155b60408a01966001600160801b03998a91828a5116611547565b168752614a00575b5050505050506149e56149dc60208601511515948651151560608801968688511692614b36565b9391909161310c565b825182160316905251156149f65790565b6000190160020b90565b51610dad546001600160a01b03169190851690821561009f57604051946020860194633c05c62160e01b865260248701526044860152606485015260848401526084835260c08301918383108584111761095357600093849360405251915af43d15614acd573d9182116109535760405191614a86601f8201601f1916602001846114c2565b82523d6000602084013e5b1561009f5760208180518101031261009f576020015180600f0b810361009f57614abf849182845116611547565b1690523880808080806149b5565b60609150614a91565b54161515614994565b614b0c91614aec91611c91565b82546001600160c01b031660c09190911b6001600160c01b031916178255565b3880614984565b614b1c90611a46565b98614978565b505050505090565b50627fffff831261490f565b909291614b4282613195565b90614b5a856001600160801b039384865116906137ee565b938280861691161115614c025715614bbd57808251166f0ffff5433e2b3d8211706e6102aa94718110614baf575b505050614b948161150e565b9160009015614ba75750905b9160009190565b905090614ba0565b600101169052388080614b88565b80829594955116620100028111614bf3575b505050614bdb8161150e565b9215614bed57506000905b6000929190565b90614be6565b60001901169052388080614bcf565b60405162461bcd60e51b8152602060048201526002602482015261109160f21b6044820152606490fdfea2646970667358221220e4e15bf28f94b847ef829308ed3af0e004572064fd27cff7e47ca10c282e041664736f6c63430008130033",
    "linkReferences": {}
  },
  "methodIdentifiers": {
    "acceptCrocProxyRole(address,uint16)": "ac54c0fc",
    "burnAmbient(uint128,uint128,uint128,uint64,uint64,uint128,bytes32)": "2a6f0864",
    "burnRange(uint128,int24,uint128,uint128,uint64,uint64,int24,int24,uint128,bytes32)": "7c6dfe3d",
    "mintAmbient(uint128,uint128,uint128,uint64,uint64,uint128,bytes32)": "2ee11587",
    "mintRange(uint128,int24,uint128,uint128,uint64,uint64,int24,int24,uint128,bytes32)": "2370632b",
    "sweepSwap((uint128,uint128,uint128,uint64,uint64),int24,(bool,bool,uint8,uint128,uint128),((uint8,uint16,uint8,uint16,uint8,uint8,uint8),bytes32,address))": "7b370fc2"
  },
  "id": 8
}