{
  "abi": [
    {
      "inputs": [
        {
          "internalType": "address",
          "name": "base",
          "type": "address"
        },
        {
          "internalType": "address",
          "name": "quote",
          "type": "address"
        },
        {
          "internalType": "uint256",
          "name": "poolIdx",
          "type": "uint256"
        }
      ],
      "stateMutability": "nonpayable",
      "type": "constructor"
    },
    {
      "anonymous": false,
      "inputs": [
        {
          "indexed": true,
          "internalType": "address",
          "name": "owner",
          "type": "address"
        },
        {
          "indexed": true,
          "internalType": "address",
          "name": "spender",
          "type": "address"
        },
        {
          "indexed": false,
          "internalType": "uint256",
          "name": "amount",
          "type": "uint256"
        }
      ],
      "name": "Approval",
      "type": "event"
    },
    {
      "anonymous": false,
      "inputs": [
        {
          "indexed": true,
          "internalType": "address",
          "name": "from",
          "type": "address"
        },
        {
          "indexed": true,
          "internalType": "address",
          "name": "to",
          "type": "address"
        },
        {
          "indexed": false,
          "internalType": "uint256",
          "name": "amount",
          "type": "uint256"
        }
      ],
      "name": "Transfer",
      "type": "event"
    },
    {
      "inputs": [],
      "name": "DOMAIN_SEPARATOR",
      "outputs": [
        {
          "internalType": "bytes32",
          "name": "",
          "type": "bytes32"
        }
      ],
      "stateMutability": "view",
      "type": "function"
    },
    {
      "inputs": [
        {
          "internalType": "address",
          "name": "",
          "type": "address"
        },
        {
          "internalType": "address",
          "name": "",
          "type": "address"
        }
      ],
      "name": "allowance",
      "outputs": [
        {
          "internalType": "uint256",
          "name": "",
          "type": "uint256"
        }
      ],
      "stateMutability": "view",
      "type": "function"
    },
    {
      "inputs": [
        {
          "internalType": "address",
          "name": "spender",
          "type": "address"
        },
        {
          "internalType": "uint256",
          "name": "amount",
          "type": "uint256"
        }
      ],
      "name": "approve",
      "outputs": [
        {
          "internalType": "bool",
          "name": "",
          "type": "bool"
        }
      ],
      "stateMutability": "nonpayable",
      "type": "function"
    },
    {
      "inputs": [
        {
          "internalType": "address",
          "name": "",
          "type": "address"
        }
      ],
      "name": "balanceOf",
      "outputs": [
        {
          "internalType": "uint256",
          "name": "",
          "type": "uint256"
        }
      ],
      "stateMutability": "view",
      "type": "function"
    },
    {
      "inputs": [],
      "name": "baseToken",
      "outputs": [
        {
          "internalType": "address",
          "name": "",
          "type": "address"
        }
      ],
      "stateMutability": "view",
      "type": "function"
    },
    {
      "inputs": [],
      "name": "decimals",
      "outputs": [
        {
          "internalType": "uint8",
          "name": "",
          "type": "uint8"
        }
      ],
      "stateMutability": "view",
      "type": "function"
    },
    {
      "inputs": [
        {
          "internalType": "address",
          "name": "sender",
          "type": "address"
        },
        {
          "internalType": "bytes32",
          "name": "pool",
          "type": "bytes32"
        },
        {
          "internalType": "int24",
          "name": "lowerTick",
          "type": "int24"
        },
        {
          "internalType": "int24",
          "name": "upperTick",
          "type": "int24"
        },
        {
          "internalType": "uint128",
          "name": "seeds",
          "type": "uint128"
        },
        {
          "internalType": "uint72",
          "name": "",
          "type": "uint72"
        }
      ],
      "name": "depositCrocLiq",
      "outputs": [
        {
          "internalType": "bool",
          "name": "",
          "type": "bool"
        }
      ],
      "stateMutability": "nonpayable",
      "type": "function"
    },
    {
      "inputs": [],
      "name": "name",
      "outputs": [
        {
          "internalType": "string",
          "name": "",
          "type": "string"
        }
      ],
      "stateMutability": "view",
      "type": "function"
    },
    {
      "inputs": [
        {
          "internalType": "address",
          "name": "",
          "type": "address"
        }
      ],
      "name": "nonces",
      "outputs": [
        {
          "internalType": "uint256",
          "name": "",
          "type": "uint256"
        }
      ],
      "stateMutability": "view",
      "type": "function"
    },
    {
      "inputs": [
        {
          "internalType": "address",
          "name": "owner",
          "type": "address"
        },
        {
          "internalType": "address",
          "name": "spender",
          "type": "address"
        },
        {
          "internalType": "uint256",
          "name": "value",
          "type": "uint256"
        },
        {
          "internalType": "uint256",
          "name": "deadline",
          "type": "uint256"
        },
        {
          "internalType": "uint8",
          "name": "v",
          "type": "uint8"
        },
        {
          "internalType": "bytes32",
          "name": "r",
          "type": "bytes32"
        },
        {
          "internalType": "bytes32",
          "name": "s",
          "type": "bytes32"
        }
      ],
      "name": "permit",
      "outputs": [],
      "stateMutability": "nonpayable",
      "type": "function"
    },
    {
      "inputs": [],
      "name": "poolHash",
      "outputs": [
        {
          "internalType": "bytes32",
          "name": "",
          "type": "bytes32"
        }
      ],
      "stateMutability": "view",
      "type": "function"
    },
    {
      "inputs": [],
      "name": "poolType",
      "outputs": [
        {
          "internalType": "uint256",
          "name": "",
          "type": "uint256"
        }
      ],
      "stateMutability": "view",
      "type": "function"
    },
    {
      "inputs": [],
      "name": "quoteToken",
      "outputs": [
        {
          "internalType": "address",
          "name": "",
          "type": "address"
        }
      ],
      "stateMutability": "view",
      "type": "function"
    },
    {
      "inputs": [],
      "name": "symbol",
      "outputs": [
        {
          "internalType": "string",
          "name": "",
          "type": "string"
        }
      ],
      "stateMutability": "view",
      "type": "function"
    },
    {
      "inputs": [],
      "name": "totalSupply",
      "outputs": [
        {
          "internalType": "uint256",
          "name": "",
          "type": "uint256"
        }
      ],
      "stateMutability": "view",
      "type": "function"
    },
    {
      "inputs": [
        {
          "internalType": "address",
          "name": "to",
          "type": "address"
        },
        {
          "internalType": "uint256",
          "name": "amount",
          "type": "uint256"
        }
      ],
      "name": "transfer",
      "outputs": [
        {
          "internalType": "bool",
          "name": "",
          "type": "bool"
        }
      ],
      "stateMutability": "nonpayable",
      "type": "function"
    },
    {
      "inputs": [
        {
          "internalType": "address",
          "name": "from",
          "type": "address"
        },
        {
          "internalType": "address",
          "name": "to",
          "type": "address"
        },
        {
          "internalType": "uint256",
          "name": "amount",
          "type": "uint256"
        }
      ],
      "name": "transferFrom",
      "outputs": [
        {
          "internalType": "bool",
          "name": "",
          "type": "bool"
        }
      ],
      "stateMutability": "nonpayable",
      "type": "function"
    },
    {
      "inputs": [
        {
          "internalType": "address",
          "name": "sender",
          "type": "address"
        },
        {
          "internalType": "bytes32",
          "name": "pool",
          "type": "bytes32"
        },
        {
          "internalType": "int24",
          "name": "lowerTick",
          "type": "int24"
        },
        {
          "internalType": "int24",
          "name": "upperTick",
          "type": "int24"
        },
        {
          "internalType": "uint128",
          "name": "seeds",
          "type": "uint128"
        },
        {
          "internalType": "uint72",
          "name": "",
          "type": "uint72"
        }
      ],
      "name": "withdrawCrocLiq",
      "outputs": [
        {
          "internalType": "bool",
          "name": "",
          "type": "bool"
        }
      ],
      "stateMutability": "nonpayable",
      "type": "function"
    }
  ],
  "bytecode": {
    "object": "0x610160604090808252346200057c57606081620013fa80380380916200002682856200059d565b8339810103126200057c576200003c81620005c1565b602091836200004d848301620005c1565b9101518451936200005e8562000581565b601b85527f43726f6320416d6269656e74204c5020455243323020546f6b656e000000000081860152855195620000958762000581565b600a875269262816a1b937b1a0b6b160b11b828801528551966001600160401b0396878911620005665760009880620000cf8b54620005d6565b92601f9384811162000515575b508690848311600114620004ad578c92620004a1575b50508160011b916000199060031b1c19161789555b8151908882116200048d578190600193620001238554620005d6565b82811162000438575b5086918311600114620003d4578b92620003c8575b5050600019600383901b1c191690821b1781555b60126080524660a0528151885491818a6200017085620005d6565b9283835287830195888282169182600014620003a857505060011462000368575b50620001a0925003826200059d565b51902096815193838501987f8b73c3c69bb8fe3d512ecc4cf759cc79239f7b179b0ffacaa9a75d522b39400f8a52838601527fc89efdaa54c0f20c7adf612882df0950f5a951637e0307cdcb4c672f298b8bc660608601524660808601523060a086015260a0855260c0850198858a10898b111762000354578984528551902060c0526001600160a01b0398868a16958615158062000347575b806200033b575b156200030457505061010098878a52610120968752610140978289521694808610156200030057835194850195865283850152606084015260608352608083019683881090881117620002ec575085905251902060e052610de6938462000614853960805184610795015260a05184610bef015260c05184610c16015260e051848181610481015281816105bc01526106cc0152518361038d0152518261088f015251816103d40152f35b634e487b7160e01b81526041600452602490fd5b8280fd5b907124b73b30b634b2102a37b5b2b7102830b4b960711b6101046064938862461bcd60e51b855260c4820152601260e48201520152fd5b508a8916871162000241565b50868b8a1614156200023a565b634e487b7160e01b83526041600452602483fd5b8791508c8052818d20908d915b8583106200038f575050620001a093508201013862000191565b8054838801850152869450899390920191810162000375565b60ff19168852620001a095151560051b8501019250389150620001919050565b01519050388062000141565b848c52868c208594509190601f1984168d5b8982821062000421575050841162000407575b505050811b01815562000155565b015160001960f88460031b161c19169055388080620003f9565b8385015186558897909501949384019301620003e6565b90919250848c52868c208380860160051c82019289871062000483575b91869588929594930160051c01915b828110620004745750506200012c565b8e815586955087910162000464565b9250819262000455565b634e487b7160e01b8a52604160045260248afd5b015190503880620000f2565b8c8052878d209250601f1984168d5b89828210620004fe575050908460019594939210620004e4575b505050811b01895562000107565b015160001960f88460031b161c19169055388080620004d6565b6001859682939686015181550195019301620004bc565b9091508b8052868c208480850160051c8201928986106200055c575b9085949392910160051c01905b8181106200054d5750620000dc565b8d81558493506001016200053e565b9250819262000531565b634e487b7160e01b600052604160045260246000fd5b600080fd5b604081019081106001600160401b038211176200056657604052565b601f909101601f19168101906001600160401b038211908210176200056657604052565b51906001600160a01b03821682036200057c57565b90600182811c9216801562000608575b6020831014620005f257565b634e487b7160e01b600052602260045260246000fd5b91607f1691620005e656fe6080604081815260048036101561001557600080fd5b600092833560e01c90816306fdde031461094b57508063095ea7b3146108dd57806318160ddd146108be578063217a4b701461087a57806323b872dd146107b9578063313ce5671461077b5780633644e51514610757578063668e2cdb146106a557806370a082311461066d5780637ecebe001461063557806393835c1e1461058357806395d89b41146104a45780639b503daf14610469578063a9059cbb146103f7578063b1dd61b6146103bc578063c55dae6314610378578063d505accf146101345763dd62ed3e146100e957600080fd5b346101305781600319360112610130576020928291610106610aac565b61010e610ac7565b6001600160a01b03918216845291865283832091168252845220549051908152f35b8280fd5b509190346103745760e036600319011261037457610150610aac565b90610159610ac7565b91604435606435926084359260ff84168094036103705742851061032d5761017f610bea565b9560018060a01b038092169586895260209560058752848a209889549960018b01905585519285898501957f6e71edae12b1b97f4d1f60370fef10105fa2faae0126114a169c64845d6126c987528b89870152169a8b606086015288608086015260a085015260c084015260c0835260e0830167ffffffffffffffff9484821086831117610319578188528451902061010085019261190160f01b8452610102860152610122850152604281526101608401948186109086111761030657848752519020835261018082015260a4356101a082015260c4356101c0909101528780528490889060809060015afa156102fc5786511696871515806102f3575b156102c15786977f8c5be1e5ebec7d5bd14f71427d1e84f3dd0314c0f7b2291e5b200ac8c7c3b9259596975283528087208688528352818188205551908152a380f35b83606492519162461bcd60e51b8352820152600e60248201526d24a72b20a624a22fa9a4a3a722a960911b6044820152fd5b5084881461027e565b81513d88823e3d90fd5b634e487b7160e01b8c5260418d5260248cfd5b50634e487b7160e01b8c5260418d5260248cfd5b815162461bcd60e51b81526020818a0152601760248201527f5045524d49545f444541444c494e455f455850495245440000000000000000006044820152606490fd5b8680fd5b5080fd5b505034610374578160031936011261037457517f00000000000000000000000000000000000000000000000000000000000000006001600160a01b03168152602090f35b505034610374578160031936011261037457602090517f00000000000000000000000000000000000000000000000000000000000000008152f35b505034610374578060031936011261037457602091610414610aac565b82602435913384526003865281842061042e848254610bc7565b90556001600160a01b031680845260038652922080548201905582519081523390600080516020610d91833981519152908590a35160018152f35b505034610374578160031936011261037457602090517f00000000000000000000000000000000000000000000000000000000000000008152f35b5050346103745781600319360112610374578051908260018054916104c8836109f1565b8086529282811690811561055b57506001146104ff575b5050506104f1826104fb940383610a2b565b5191829182610a63565b0390f35b94508085527fb10e2d527612073b26eecdfd717e6a320cf44b4afac2b0732d9fcbe2b7fa0cf65b828610610543575050506104f18260206104fb95820101946104df565b80546020878701810191909152909501948101610526565b6104fb9750869350602092506104f194915060ff191682840152151560051b820101946104df565b505034610374576020916105e1600080516020610d91833981519152846001600160801b036105f26105b436610add565b5094939890927f000000000000000000000000000000000000000000000000000000000000000014610b49565b60020b159081610629575b50610b82565b169260018060a01b03169283855260038252858520610612828254610bc7565b905580600254036002558551908152a35160018152f35b905060020b15386105ec565b5050346103745760203660031901126103745760209181906001600160a01b0361065d610aac565b1681526005845220549051908152f35b5050346103745760203660031901126103745760209181906001600160a01b03610695610aac565b1681526003845220549051908152f35b509134610754576105e1906001600160801b036106f16106c436610add565b5094939790927f000000000000000000000000000000000000000000000000000000000000000014610b49565b1691600254838101809111610741576002556001600160a01b0316808252600360209081528483208054850190558451938452945091600080516020610d91833981519152908590a35160018152f35b634e487b7160e01b835260118652602483fd5b80fd5b505034610374578160031936011261037457602090610774610bea565b9051908152f35b5050346103745781600319360112610374576020905160ff7f0000000000000000000000000000000000000000000000000000000000000000168152f35b509134610754576060366003190112610754576107d4610aac565b600080516020610d918339815191526107eb610ac7565b6001600160a01b0392831680855260208781528686203387528152868620549097919488936044359389938560018201610857575b50505086885260038552828820610838858254610bc7565b9055169586815260038452208181540190558551908152a35160018152f35b61086091610bc7565b90888a528652838920338a52865283892055388085610820565b505034610374578160031936011261037457517f00000000000000000000000000000000000000000000000000000000000000006001600160a01b03168152602090f35b5050346103745781600319360112610374576020906002549051908152f35b50346101305781600319360112610130576020926108f9610aac565b918360243592839233825287528181209460018060a01b0316948582528752205582519081527f8c5be1e5ebec7d5bd14f71427d1e84f3dd0314c0f7b2291e5b200ac8c7c3b925843392a35160018152f35b8490843461013057826003193601126101305782805461096a816109f1565b8085529160019180831690811561055b5750600114610995575050506104f1826104fb940383610a2b565b80809650527f290decd9548b62a8d60345a988386fc84ba6bc95484008f6362f93160ef3e5635b8286106109d9575050506104f18260206104fb95820101946104df565b805460208787018101919091529095019481016109bc565b90600182811c92168015610a21575b6020831014610a0b57565b634e487b7160e01b600052602260045260246000fd5b91607f1691610a00565b90601f8019910116810190811067ffffffffffffffff821117610a4d57604052565b634e487b7160e01b600052604160045260246000fd5b6020808252825181830181905290939260005b828110610a9857505060409293506000838284010152601f8019910116010190565b818101860151848201604001528501610a76565b600435906001600160a01b0382168203610ac257565b600080fd5b602435906001600160a01b0382168203610ac257565b60c0906003190112610ac2576004356001600160a01b0381168103610ac25790602435906044358060020b8103610ac257906064358060020b8103610ac257906084356001600160801b0381168103610ac2579060a43568ffffffffffffffffff81168103610ac25790565b15610b5057565b60405162461bcd60e51b815260206004820152600a60248201526915dc9bdb99c81c1bdbdb60b21b6044820152606490fd5b15610b8957565b60405162461bcd60e51b8152602060048201526016602482015275139bdb8b505b589a595b9d0813140811195c1bdcda5d60521b6044820152606490fd5b91908203918211610bd457565b634e487b7160e01b600052601160045260246000fd5b6000467f000000000000000000000000000000000000000000000000000000000000000003610c3857507f000000000000000000000000000000000000000000000000000000000000000090565b60405181548291610c48826109f1565b8082528160209485820194600190878282169182600014610d72575050600114610d19575b50610c7a92500382610a2b565b51902091604051918201927f8b73c3c69bb8fe3d512ecc4cf759cc79239f7b179b0ffacaa9a75d522b39400f845260408301527fc89efdaa54c0f20c7adf612882df0950f5a951637e0307cdcb4c672f298b8bc660608301524660808301523060a083015260a0825260c082019082821067ffffffffffffffff831117610d05575060405251902090565b634e487b7160e01b81526041600452602490fd5b87805286915087907f290decd9548b62a8d60345a988386fc84ba6bc95484008f6362f93160ef3e5635b858310610d5a575050610c7a935082010138610c6d565b80548388018501528694508893909201918101610d43565b60ff19168852610c7a95151560051b8501019250389150610c6d905056feddf252ad1be2c89b69c2b068fc378daa952ba7f163c4a11628f55a4df523b3efa2646970667358221220f28bb6efb566d40326ab45c68234d943fd40bfbbc9fccb00b43f46df198e071264736f6c63430008130033",
    "linkReferences": {}
  },
  "methodIdentifiers": {
    "DOMAIN_SEPARATOR()": "3644e515",
    "allowance(address,address)": "dd62ed3e",
    "approve(address,uint256)": "095ea7b3",
    "balanceOf(address)": "70a08231",
    "baseToken()": "c55dae63",
    "decimals()": "313ce567",
    "depositCrocLiq(address,bytes32,int24,int24,uint128,uint72)": "668e2cdb",
    "name()": "06fdde03",
    "nonces(address)": "7ecebe00",
    "permit(address,address,uint256,uint256,uint8,bytes32,bytes32)": "d505accf",
    "poolHash()": "9b503daf",
    "poolType()": "b1dd61b6",
    "quoteToken()": "217a4b70",
    "symbol()": "95d89b41",
    "totalSupply()": "18160ddd",
    "transfer(address,uint256)": "a9059cbb",
    "transferFrom(address,address,uint256)": "23b872dd",
    "withdrawCrocLiq(address,bytes32,int24,int24,uint128,uint72)": "93835c1e"
  },
  "id": 58
}