{
  "abi": [
    {
      "inputs": [
        {
          "internalType": "address",
          "name": "dex",
          "type": "address"
        }
      ],
      "stateMutability": "nonpayable",
      "type": "constructor"
    },
    {
      "inputs": [],
      "name": "dex_",
      "outputs": [
        {
          "internalType": "address",
          "name": "",
          "type": "address"
        }
      ],
      "stateMutability": "view",
      "type": "function"
    },
    {
      "inputs": [
        {
          "internalType": "address",
          "name": "owner",
          "type": "address"
        },
        {
          "internalType": "address",
          "name": "base",
          "type": "address"
        },
        {
          "internalType": "address",
          "name": "quote",
          "type": "address"
        },
        {
          "internalType": "uint256",
          "name": "poolIdx",
          "type": "uint256"
        }
      ],
      "name": "queryAmbientPosition",
      "outputs": [
        {
          "internalType": "uint128",
          "name": "seeds",
          "type": "uint128"
        },
        {
          "internalType": "uint32",
          "name": "timestamp",
          "type": "uint32"
        }
      ],
      "stateMutability": "view",
      "type": "function"
    },
    {
      "inputs": [
        {
          "internalType": "address",
          "name": "owner",
          "type": "address"
        },
        {
          "internalType": "address",
          "name": "base",
          "type": "address"
        },
        {
          "internalType": "address",
          "name": "quote",
          "type": "address"
        },
        {
          "internalType": "uint256",
          "name": "poolIdx",
          "type": "uint256"
        }
      ],
      "name": "queryAmbientTokens",
      "outputs": [
        {
          "internalType": "uint128",
          "name": "liq",
          "type": "uint128"
        },
        {
          "internalType": "uint128",
          "name": "baseQty",
          "type": "uint128"
        },
        {
          "internalType": "uint128",
          "name": "quoteQty",
          "type": "uint128"
        }
      ],
      "stateMutability": "view",
      "type": "function"
    },
    {
      "inputs": [
        {
          "internalType": "address",
          "name": "owner",
          "type": "address"
        },
        {
          "internalType": "address",
          "name": "base",
          "type": "address"
        },
        {
          "internalType": "address",
          "name": "quote",
          "type": "address"
        },
        {
          "internalType": "uint256",
          "name": "poolIdx",
          "type": "uint256"
        },
        {
          "internalType": "int24",
          "name": "lowerTick",
          "type": "int24"
        },
        {
          "internalType": "int24",
          "name": "upperTick",
          "type": "int24"
        }
      ],
      "name": "queryConcRewards",
      "outputs": [
        {
          "internalType": "uint128",
          "name": "liqRewards",
          "type": "uint128"
        },
        {
          "internalType": "uint128",
          "name": "baseRewards",
          "type": "uint128"
        },
        {
          "internalType": "uint128",
          "name": "quoteRewards",
          "type": "uint128"
        }
      ],
      "stateMutability": "view",
      "type": "function"
    },
    {
      "inputs": [
        {
          "internalType": "address",
          "name": "base",
          "type": "address"
        },
        {
          "internalType": "address",
          "name": "quote",
          "type": "address"
        },
        {
          "internalType": "uint256",
          "name": "poolIdx",
          "type": "uint256"
        }
      ],
      "name": "queryCurve",
      "outputs": [
        {
          "components": [
            {
              "internalType": "uint128",
              "name": "priceRoot_",
              "type": "uint128"
            },
            {
              "internalType": "uint128",
              "name": "ambientSeeds_",
              "type": "uint128"
            },
            {
              "internalType": "uint128",
              "name": "concLiq_",
              "type": "uint128"
            },
            {
              "internalType": "uint64",
              "name": "seedDeflator_",
              "type": "uint64"
            },
            {
              "internalType": "uint64",
              "name": "concGrowth_",
              "type": "uint64"
            }
          ],
          "internalType": "struct CurveMath.CurveState",
          "name": "curve",
          "type": "tuple"
        }
      ],
      "stateMutability": "view",
      "type": "function"
    },
    {
      "inputs": [
        {
          "internalType": "address",
          "name": "base",
          "type": "address"
        },
        {
          "internalType": "address",
          "name": "quote",
          "type": "address"
        },
        {
          "internalType": "uint256",
          "name": "poolIdx",
          "type": "uint256"
        }
      ],
      "name": "queryCurveTick",
      "outputs": [
        {
          "internalType": "int24",
          "name": "",
          "type": "int24"
        }
      ],
      "stateMutability": "view",
      "type": "function"
    },
    {
      "inputs": [
        {
          "internalType": "address",
          "name": "base",
          "type": "address"
        },
        {
          "internalType": "address",
          "name": "quote",
          "type": "address"
        },
        {
          "internalType": "uint256",
          "name": "poolIdx",
          "type": "uint256"
        },
        {
          "internalType": "bool",
          "name": "isBid",
          "type": "bool"
        },
        {
          "internalType": "int24",
          "name": "tick",
          "type": "int24"
        }
      ],
      "name": "queryKnockoutMerkle",
      "outputs": [
        {
          "internalType": "uint160",
          "name": "root",
          "type": "uint160"
        },
        {
          "internalType": "uint32",
          "name": "pivot",
          "type": "uint32"
        },
        {
          "internalType": "uint64",
          "name": "fee",
          "type": "uint64"
        }
      ],
      "stateMutability": "view",
      "type": "function"
    },
    {
      "inputs": [
        {
          "internalType": "address",
          "name": "base",
          "type": "address"
        },
        {
          "internalType": "address",
          "name": "quote",
          "type": "address"
        },
        {
          "internalType": "uint256",
          "name": "poolIdx",
          "type": "uint256"
        },
        {
          "internalType": "bool",
          "name": "isBid",
          "type": "bool"
        },
        {
          "internalType": "int24",
          "name": "tick",
          "type": "int24"
        }
      ],
      "name": "queryKnockoutPivot",
      "outputs": [
        {
          "internalType": "uint96",
          "name": "lots",
          "type": "uint96"
        },
        {
          "internalType": "uint32",
          "name": "pivot",
          "type": "uint32"
        },
        {
          "internalType": "uint16",
          "name": "range",
          "type": "uint16"
        }
      ],
      "stateMutability": "view",
      "type": "function"
    },
    {
      "inputs": [
        {
          "internalType": "address",
          "name": "owner",
          "type": "address"
        },
        {
          "internalType": "address",
          "name": "base",
          "type": "address"
        },
        {
          "internalType": "address",
          "name": "quote",
          "type": "address"
        },
        {
          "internalType": "uint256",
          "name": "poolIdx",
          "type": "uint256"
        },
        {
          "internalType": "uint32",
          "name": "pivot",
          "type": "uint32"
        },
        {
          "internalType": "bool",
          "name": "isBid",
          "type": "bool"
        },
        {
          "internalType": "int24",
          "name": "lowerTick",
          "type": "int24"
        },
        {
          "internalType": "int24",
          "name": "upperTick",
          "type": "int24"
        }
      ],
      "name": "queryKnockoutPos",
      "outputs": [
        {
          "internalType": "uint96",
          "name": "lots",
          "type": "uint96"
        },
        {
          "internalType": "uint64",
          "name": "mileage",
          "type": "uint64"
        },
        {
          "internalType": "uint32",
          "name": "timestamp",
          "type": "uint32"
        }
      ],
      "stateMutability": "view",
      "type": "function"
    },
    {
      "inputs": [
        {
          "internalType": "address",
          "name": "owner",
          "type": "address"
        },
        {
          "internalType": "address",
          "name": "base",
          "type": "address"
        },
        {
          "internalType": "address",
          "name": "quote",
          "type": "address"
        },
        {
          "internalType": "uint256",
          "name": "poolIdx",
          "type": "uint256"
        },
        {
          "internalType": "uint32",
          "name": "pivot",
          "type": "uint32"
        },
        {
          "internalType": "bool",
          "name": "isBid",
          "type": "bool"
        },
        {
          "internalType": "int24",
          "name": "lowerTick",
          "type": "int24"
        },
        {
          "internalType": "int24",
          "name": "upperTick",
          "type": "int24"
        }
      ],
      "name": "queryKnockoutTokens",
      "outputs": [
        {
          "internalType": "uint128",
          "name": "liq",
          "type": "uint128"
        },
        {
          "internalType": "uint128",
          "name": "baseQty",
          "type": "uint128"
        },
        {
          "internalType": "uint128",
          "name": "quoteQty",
          "type": "uint128"
        },
        {
          "internalType": "bool",
          "name": "knockedOut",
          "type": "bool"
        }
      ],
      "stateMutability": "view",
      "type": "function"
    },
    {
      "inputs": [
        {
          "internalType": "address",
          "name": "base",
          "type": "address"
        },
        {
          "internalType": "address",
          "name": "quote",
          "type": "address"
        },
        {
          "internalType": "uint256",
          "name": "poolIdx",
          "type": "uint256"
        },
        {
          "internalType": "int24",
          "name": "tick",
          "type": "int24"
        }
      ],
      "name": "queryLevel",
      "outputs": [
        {
          "internalType": "uint96",
          "name": "bidLots",
          "type": "uint96"
        },
        {
          "internalType": "uint96",
          "name": "askLots",
          "type": "uint96"
        },
        {
          "internalType": "uint64",
          "name": "odometer",
          "type": "uint64"
        }
      ],
      "stateMutability": "view",
      "type": "function"
    },
    {
      "inputs": [
        {
          "internalType": "address",
          "name": "base",
          "type": "address"
        },
        {
          "internalType": "address",
          "name": "quote",
          "type": "address"
        },
        {
          "internalType": "uint256",
          "name": "poolIdx",
          "type": "uint256"
        }
      ],
      "name": "queryLiquidity",
      "outputs": [
        {
          "internalType": "uint128",
          "name": "",
          "type": "uint128"
        }
      ],
      "stateMutability": "view",
      "type": "function"
    },
    {
      "inputs": [
        {
          "internalType": "address",
          "name": "base",
          "type": "address"
        },
        {
          "internalType": "address",
          "name": "quote",
          "type": "address"
        },
        {
          "internalType": "uint256",
          "name": "poolIdx",
          "type": "uint256"
        }
      ],
      "name": "queryPoolParams",
      "outputs": [
        {
          "components": [
            {
              "internalType": "uint8",
              "name": "schema_",
              "type": "uint8"
            },
            {
              "internalType": "uint16",
              "name": "feeRate_",
              "type": "uint16"
            },
            {
              "internalType": "uint8",
              "name": "protocolTake_",
              "type": "uint8"
            },
            {
              "internalType": "uint16",
              "name": "tickSize_",
              "type": "uint16"
            },
            {
              "internalType": "uint8",
              "name": "jitThresh_",
              "type": "uint8"
            },
            {
              "internalType": "uint8",
              "name": "knockoutBits_",
              "type": "uint8"
            },
            {
              "internalType": "uint8",
              "name": "oracleFlags_",
              "type": "uint8"
            }
          ],
          "internalType": "struct PoolSpecs.Pool",
          "name": "pool",
          "type": "tuple"
        }
      ],
      "stateMutability": "view",
      "type": "function"
    },
    {
      "inputs": [
        {
          "internalType": "uint256",
          "name": "poolIdx",
          "type": "uint256"
        }
      ],
      "name": "queryPoolTemplate",
      "outputs": [
        {
          "components": [
            {
              "internalType": "uint8",
              "name": "schema_",
              "type": "uint8"
            },
            {
              "internalType": "uint16",
              "name": "feeRate_",
              "type": "uint16"
            },
            {
              "internalType": "uint8",
              "name": "protocolTake_",
              "type": "uint8"
            },
            {
              "internalType": "uint16",
              "name": "tickSize_",
              "type": "uint16"
            },
            {
              "internalType": "uint8",
              "name": "jitThresh_",
              "type": "uint8"
            },
            {
              "internalType": "uint8",
              "name": "knockoutBits_",
              "type": "uint8"
            },
            {
              "internalType": "uint8",
              "name": "oracleFlags_",
              "type": "uint8"
            }
          ],
          "internalType": "struct PoolSpecs.Pool",
          "name": "pool",
          "type": "tuple"
        }
      ],
      "stateMutability": "view",
      "type": "function"
    },
    {
      "inputs": [
        {
          "internalType": "address",
          "name": "base",
          "type": "address"
        },
        {
          "internalType": "address",
          "name": "quote",
          "type": "address"
        },
        {
          "internalType": "uint256",
          "name": "poolIdx",
          "type": "uint256"
        }
      ],
      "name": "queryPrice",
      "outputs": [
        {
          "internalType": "uint128",
          "name": "",
          "type": "uint128"
        }
      ],
      "stateMutability": "view",
      "type": "function"
    },
    {
      "inputs": [
        {
          "internalType": "address",
          "name": "token",
          "type": "address"
        }
      ],
      "name": "queryProtocolAccum",
      "outputs": [
        {
          "internalType": "uint128",
          "name": "",
          "type": "uint128"
        }
      ],
      "stateMutability": "view",
      "type": "function"
    },
    {
      "inputs": [
        {
          "internalType": "address",
          "name": "owner",
          "type": "address"
        },
        {
          "internalType": "address",
          "name": "base",
          "type": "address"
        },
        {
          "internalType": "address",
          "name": "quote",
          "type": "address"
        },
        {
          "internalType": "uint256",
          "name": "poolIdx",
          "type": "uint256"
        },
        {
          "internalType": "int24",
          "name": "lowerTick",
          "type": "int24"
        },
        {
          "internalType": "int24",
          "name": "upperTick",
          "type": "int24"
        }
      ],
      "name": "queryRangePosition",
      "outputs": [
        {
          "internalType": "uint128",
          "name": "liq",
          "type": "uint128"
        },
        {
          "internalType": "uint64",
          "name": "fee",
          "type": "uint64"
        },
        {
          "internalType": "uint32",
          "name": "timestamp",
          "type": "uint32"
        },
        {
          "internalType": "bool",
          "name": "atomic",
          "type": "bool"
        }
      ],
      "stateMutability": "view",
      "type": "function"
    },
    {
      "inputs": [
        {
          "internalType": "address",
          "name": "owner",
          "type": "address"
        },
        {
          "internalType": "address",
          "name": "base",
          "type": "address"
        },
        {
          "internalType": "address",
          "name": "quote",
          "type": "address"
        },
        {
          "internalType": "uint256",
          "name": "poolIdx",
          "type": "uint256"
        },
        {
          "internalType": "int24",
          "name": "lowerTick",
          "type": "int24"
        },
        {
          "internalType": "int24",
          "name": "upperTick",
          "type": "int24"
        }
      ],
      "name": "queryRangeTokens",
      "outputs": [
        {
          "internalType": "uint128",
          "name": "liq",
          "type": "uint128"
        },
        {
          "internalType": "uint128",
          "name": "baseQty",
          "type": "uint128"
        },
        {
          "internalType": "uint128",
          "name": "quoteQty",
          "type": "uint128"
        }
      ],
      "stateMutability": "view",
      "type": "function"
    },
    {
      "inputs": [
        {
          "internalType": "address",
          "name": "owner",
          "type": "address"
        },
        {
          "internalType": "address",
          "name": "token",
          "type": "address"
        }
      ],
      "name": "querySurplus",
      "outputs": [
        {
          "internalType": "uint128",
          "name": "surplus",
          "type": "uint128"
        }
      ],
      "stateMutability": "view",
      "type": "function"
    },
    {
      "inputs": [
        {
          "internalType": "address",
          "name": "owner",
          "type": "address"
        },
        {
          "internalType": "address",
          "name": "tracker",
          "type": "address"
        },
        {
          "internalType": "uint256",
          "name": "salt",
          "type": "uint256"
        }
      ],
      "name": "queryVirtual",
      "outputs": [
        {
          "internalType": "uint128",
          "name": "surplus",
          "type": "uint128"
        }
      ],
      "stateMutability": "view",
      "type": "function"
    }
  ],
  "bytecode": {
    "object": "0x60a0806040523462000189578062001feb80380380916200002182856200018e565b8339602092839181010312620001895751906001600160a01b038216808303620001895781811515918262000107575b505015620000c35750608052604051611e229081620001c9823960805181818161015d015281816103170152818161044501528181610586015281816107d801528181610d1f01528181610ef801528181610fe2015281816110b2015281816112210152818161132a015261143c0152f35b6064906040519062461bcd60e51b82526004820152601360248201527f496e76616c69642043726f6353776170446578000000000000000000000000006044820152fd5b604051637c51962560e01b81529250829060049082905afa9081156200017d5760009162000139575b50813862000051565b8281813d831162000175575b6200015181836200018e565b810103126200017157519081151582036200016e57503862000130565b80fd5b5080fd5b503d62000145565b6040513d6000823e3d90fd5b600080fd5b601f909101601f19168101906001600160401b03821190821017620001b257604052565b634e487b7160e01b600052604160045260246000fdfe608060405260048036101561001357600080fd5b6000803560e01c806310fc74f414610a335780632855bcf3146109f4578063338adc671461099e578063340bfa1214610934578063391d582f146108e45780633dccd7d7146108c357806356bf0f5b146108965780636756e9b8146108425780637f44601a1461080757806387834a0e146107c25780638e56c1c11461076457806393c33a7114610674578063992236c51461061e578063ab0a98981461051a578063d7fd8d0f146104d4578063dc91a6ad146103ee578063ebca95de1461038e578063ed8f58f4146102b2578063f8c7efa7146102865763ff163e14146100fa57600080fd5b346102705761011e9061010c36610ad9565b90610118949294610e45565b946117a8565b92604051936020948581019182526201000960408201526040815261014281610c28565b5190206040516302ce8af360e01b81529182015283816024817f00000000000000000000000000000000000000000000000000000000000000006001600160a01b03165afa91821561027a578092610246575b6102428460ff858882821684528161ffff91828260081c1681870152848260181c1660408701521c166060840152818160301c166080840152818160381c1660a084015260401c1660c08201526040519182918291909160c060ff8160e084019582815116855261ffff80602083015116602087015283604083015116604087015260608201511660608601528260808201511660808601528260a08201511660a0860152015116910152565b0390f35b9091508382813d8311610273575b61025e8183610c74565b810103126102705750518260ff610195565b80fd5b503d610254565b604051903d90823e3d90fd5b50346102705760206001600160801b036102a86102a236610ad9565b91610c95565b5116604051908152f35b5034610270576020918260031936011261038a576001600160a01b039083906024836102dc610a58565b166040518481019182526201000c6040820152604081526102fc81610c28565b5190209160405194859384926302ce8af360e01b84528301527f0000000000000000000000000000000000000000000000000000000000000000165afa91821561027a57809261035a575b50506001600160801b0360405191168152f35b9091508282813d8311610383575b6103728183610c74565b810103126102705750513880610347565b503d610368565b5080fd5b5034610270576102426103c26103b66103bd6103a936610be7565b81838295979394976113c3565b5093610c95565b61160d565b604080516001600160801b03948516815292841660208401529216918101919091529081906060820190565b50346102705761040661040036610ad9565b916117a8565b91604051926020938481019182526201000f60408201526040815261042a81610c28565b5190206040516302ce8af360e01b81529182015282816024817f00000000000000000000000000000000000000000000000000000000000000006001600160a01b03165afa91821561027a57809261049b575b836104906001600160801b038516611b58565b6040519060020b8152f35b9091508282813d83116104cd575b6104b38183610c74565b810103126102705750516001600160801b0361049061047d565b503d6104a9565b5034610270576102426105086103c26105136001600160801b036104f736610b8a565b81838587849a989b979d959961129d565b505050978896610c95565b5116611659565b50903461038a5761053e61053961053036610a89565b949290936117a8565b61177a565b90604051916020928381019182526201000460408201526040815261056281610c28565b5190206040516302ce8af360e01b8152918201526001600160a01b039180826024817f000000000000000000000000000000000000000000000000000000000000000087165afa9182156106135784926105dc575b5060609350604051928216835263ffffffff8260a01c169083015260c01c6040820152f35b9080925081813d831161060c575b6105f48183610c74565b8101031261060857606093505190386105b7565b8380fd5b503d6105ea565b6040513d86823e3d90fd5b50346102705760806001600160401b0363ffffffff61064b61063f36610b8a565b9493909392919261129d565b93929490916001600160801b036040519616865216602085015216604083015215156060820152f35b50346102705761068336610b0e565b92975090958694889491829082908990891561073e578787809b60809f6d03fffffffffffffffffffffff800976106ca978f976106bf97611149565b50509a85858c611062565b50999050600a1b1697889563ffffffff809116911614159687600014610721575050506106f96106fe946117e1565b611659565b6040519384526001600160801b0380921660208501521660408301526060820152f35b610739965091610513916001600160801b0393610c95565b6106fe565b8787819b60809f6d03fffffffffffffffffffffff800976106ca978f976106bf97611149565b50346102705760a06107786102a236610ad9565b604051906001600160801b03808251168352806020830151166020840152604082015116604083015260806001600160401b03918260608201511660608501520151166080820152f35b50346102705780600319360112610270576040517f00000000000000000000000000000000000000000000000000000000000000006001600160a01b03168152602090f35b503461027057604063ffffffff61082961082036610be7565b929190916113c3565b6001600160801b03849392935193168352166020820152f35b503461027057602061088561085636610ad9565b6040518581019160018060a01b03809416835260408201526040815261087b81610c28565b5190201690610e8d565b6001600160801b0360405191168152f35b50346102705760403660031901126102705760206108856108b5610a58565b6108bd610a73565b90610e8d565b5034610270576102426103c26108d836610b8a565b949390939291926114ef565b50346102705760606001600160401b0363ffffffff61091461090536610b0e565b96959095949194939293611149565b9193906001600160601b0360405195168552166020840152166040820152f35b50346102705760803660031901126102705761094e610a58565b610956610a73565b606435928360020b84036102705760606001600160401b0361097c866044358688610f77565b909291604051936001600160601b038092168552166020840152166040820152f35b5034610270576109b06102a236610ad9565b6001600160801b03808060406109da826020870151166001600160401b0360608801511690611747565b940151168301169116811061038a57602090604051908152f35b50903461038a576020918260031936011261027057610a11610e45565b9160405184810190823582526201000860408201526040815261014281610c28565b503461027057606063ffffffff61ffff610914610a4f36610a89565b93929092611062565b600435906001600160a01b0382168203610a6e57565b600080fd5b602435906001600160a01b0382168203610a6e57565b60a0906003190112610a6e576001600160a01b03906004358281168103610a6e57916024359081168103610a6e5790604435906064358015158103610a6e57906084358060020b8103610a6e5790565b6060906003190112610a6e576001600160a01b03906004358281168103610a6e57916024359081168103610a6e579060443590565b610100906003190112610a6e576001600160a01b036004358181168103610a6e57916024358281168103610a6e57916044359081168103610a6e57906064359060843563ffffffff81168103610a6e579060a4358015158103610a6e579060c4358060020b8103610a6e579060e4358060020b8103610a6e5790565b60c0906003190112610a6e576001600160a01b036004358181168103610a6e57916024358281168103610a6e57916044359081168103610a6e5790606435906084358060020b8103610a6e579060a4358060020b8103610a6e5790565b6080906003190112610a6e576001600160a01b036004358181168103610a6e57916024358281168103610a6e57916044359081168103610a6e579060643590565b606081019081106001600160401b03821117610c4357604052565b634e487b7160e01b600052604160045260246000fd5b608081019081106001600160401b03821117610c4357604052565b90601f801991011681019081106001600160401b03821117610c4357604052565b9291604090815160a08101906001600160401b039181811083821117610c435784526000908181526020918282019080825286830193818552610ce86060850197838952608086019a848c52869d6117a8565b88518281019182526201000f8a820152898152610d0481610c28565b51902088516302ce8af360e01b8082526004820183905290937f00000000000000000000000000000000000000000000000000000000000000006001600160a01b031693909290918286602481885afa958615610e3b578496610e0c575b5060018201809211610df85790602483928d519687938492835260048301525afa998a15610ded57508199610dba575b5050506001600160801b0392838216905260801c9052841690528260801c16905260c01c9052565b909180939950813d8311610de6575b610dd38183610c74565b8101031261027057505195388080610d92565b503d610dc9565b51913d9150823e3d90fd5b634e487b7160e01b84526011600452602484fd5b9095508281813d8311610e34575b610e248183610c74565b8101031261060857519438610d62565b503d610e1a565b8c513d86823e3d90fd5b6040519060e082018281106001600160401b03821117610c43576040528160c06000918281528260208201528260408201528260608201528260808201528260a08201520152565b604080516001600160a01b03928316602080830191825294841682840152828252929391928291610ebd81610c28565b51902083518281019182526201001085820152848152610edc81610c28565b51902060248451809681936302ce8af360e01b835260048301527f0000000000000000000000000000000000000000000000000000000000000000165afa918215610f6d5750600091610f39575b506001600160801b0391501690565b82813d8311610f66575b610f4d8183610c74565b8101031261027057506001600160801b03905138610f2a565b503d610f43565b513d6000823e3d90fd5b90610f8292916117a8565b604090815160209384820192835260e81b8382015260238152610fa481610c28565b51902081518381019182526201000283820152828152610fc381610c28565b51902081516302ce8af360e01b815260048101919091529180836024817f00000000000000000000000000000000000000000000000000000000000000006001600160a01b03165afa918215610f6d5750600091611036575b5080915060c01c6001600160601b03808360601c16921692565b82813d831161105b575b61104a8183610c74565b81010312610270575051803861101c565b503d611040565b91610539916110729594936117a8565b604051602081019182526201000360408201526040815261109281610c28565b5190206040516302ce8af360e01b815260048101919091526020816024817f00000000000000000000000000000000000000000000000000000000000000006001600160a01b03165afa90811561113d5760009161110c575b506001600160601b0381169161ffff63ffffffff8360601c169260801c1690565b906020823d8211611135575b8161112560209383610c74565b81010312610270575051386110eb565b3d9150611118565b6040513d6000823e3d90fd5b949693979592909161115a926117a8565b90604095865160608101906001600160401b039281831084841117610c43578992835215159384825260020b90602096828883015260020b928391015288519386850195865260018060a01b038098168a8601526060850152608084015260a083015263ffffffff80981660c083015260c0825260e082019082821090821117610c4357620100056101208594838a5284519020936101008101948552015286815261120581610c28565b51902060248651809581936302ce8af360e01b835260048301527f0000000000000000000000000000000000000000000000000000000000000000165afa938415610f6d575060009361126c575b50506001600160601b038216928260801c169160e01c90565b8181949293943d8311611296575b6112848183610c74565b81010312610270575051903880611253565b503d61127a565b9290916112ac929695966117a8565b91604094855191602094858401946001600160601b03199060601b168552603484015260e81b605483015260e81b6057820152603a81526112ec81610c28565b5190208351828101918252620100128582015284815261130b81610c28565b51902083516302ce8af360e01b815260048101919091529080826024817f00000000000000000000000000000000000000000000000000000000000000006001600160a01b03165afa938415610f6d5750600093611392575b50506001600160801b038216916001600160401b038160801c169163ffffffff8260c01c169160e01c151590565b8181949293943d83116113bc575b6113aa8183610c74565b81010312610270575051903880611364565b503d6113a0565b939290916113d0926117a8565b6040928351602092838201926001600160601b03199060601b1683526034820152603481526113fe81610c28565b51902083518281019182526201000e8582015284815261141d81610c28565b51902083516302ce8af360e01b815260048101919091529080826024817f00000000000000000000000000000000000000000000000000000000000000006001600160a01b03165afa938415610f6d575060009361148f575b505063ffffffff6001600160801b0383169260801c1690565b8181949293943d83116114b9575b6114a78183610c74565b81010312610270575051903880611476565b503d61149d565b6001600160401b0391821690821603919082116114d957565b634e487b7160e01b600052601160045260246000fd5b92611505868683868661154c999b98979b61129d565b50509290936115168784848b610f77565b989150506115268285858c610f77565b9291505061153585858c610c95565b9960806001600160401b03998a9788978894610c95565b015116906001600160801b03996115658b8d5116611b58565b60020b809260020b13156000146115fd57935b60020b136115ed5750905b8268ffffffffffffffffff93849216921684011603169116928382106115dc5771ffffffffffffffffffffffffffffffffffff938592031691160260301c91821691168103610a6e576115d59161160d565b9192909190565b505050505050600090600090600090565b906115f7916114c0565b90611583565b61160790836114c0565b93611578565b61163c906116326001600160801b0394936001600160401b0360608401511690611747565b93849151166116fe565b9091565b6001600160801b0391821690821603919082116114d957565b9392909161167261166c611693946117e1565b916117e1565b9161167d81836116fe565b93909261168a83836116fe565b969093896116fe565b9890926001600160801b039182169282168310156116c1575050505050506116bc929350611640565b600091565b949693955092939192909116116116e55750506116df929350611640565b90600090565b6116f5919250926116fb93611640565b93611640565b90565b9190916001600160801b0380911681818186160260401c169381156117315760401b600160401b600160c01b0316041690565b634e487b7160e01b600052601260045260246000fd5b6001600160401b03916001600160801b039283911666010000000000000191160260301c818111611776571690565b5090565b9160405191602083019384521515604083015260020b6060820152606081526117a281610c59565b51902090565b6001600160a01b039081169291169081831015610a6e57604051916020830193845260408301526060820152606081526117a281610c59565b60020b620a276d1981121580611b4b575b15610a6e576000811215611b455780600003905b6001821615611b33576001600160881b036ffffcb933bd6fad37aa2d162d1a5940015b169160028116611b17575b60048116611afb575b60088116611adf575b60108116611ac3575b60208116611aa7575b60408116611a8b575b608090818116611a70575b6101008116611a55575b6102008116611a3a575b6104008116611a1f575b6108008116611a04575b61100081166119e9575b61200081166119ce575b61400081166119b3575b6180008116611998575b62010000811661197d575b620200008116611963575b620400008116611949575b620800001661192e575b5060001261191f575b6001600160801b03906001600160401b0381166119165760ff60005b169060401c011690565b60ff600161190c565b801561173157600019046118f0565b6b048a170391f7dc42444e8fa26000929302901c91906118e7565b6d2216e584f5fa1ea926041bedfe98909302811c926118dd565b926e5d6af8dedb81196699c329225ee60402811c926118d2565b926f09aa508b5b7a84e1c677de54f3e99bc902811c926118c7565b926f31be135f97d08fd981231505542fcfa602811c926118bc565b926f70d869a156d2a1b890bb3df62baf32f702811c926118b2565b926fa9f746462d870fdf8a65dc1f90e061e502811c926118a8565b926fd097f3bdfd2022b8845ad8f792aa582502811c9261189e565b926fe7159475a2c29b7443b29c7fa6e889d902811c92611894565b926ff3392b0822b70005940c7a398e4b70f302811c9261188a565b926ff987a7253ac413176f2b074cf7815e5402811c92611880565b926ffcbe86c7900a88aedcffc83b479aa3a402811c92611876565b926ffe5dee046a99a2a811c461f1969c305302811c9261186c565b916fff2ea16466c96a3843ec78b326b528610260801c91611861565b916fff973b41fa98c081472e6896dfb254c00260801c91611858565b916fffcb9843d60f6159c9db58835c9266440260801c9161184f565b916fffe5caca7e10e4e61c3624eaa0941cd00260801c91611846565b916ffff2e50f5f656932ef12357cf3c7fdcc0260801c9161183d565b916ffff97272373d413259a46990580e213a0260801c91611834565b6001600160881b03600160801b611829565b80611806565b50620cb14a8113156117f2565b6001600160801b03808216916201000283101580611dd3575b15610a6e57600160401b600160c01b039060401b168082811160071b9181831c926001600160401b03841160061b93841c9363ffffffff851160051b94851c9461ffff861160041b95861c60ff9687821160031b91821c92600f841160021b93841c94600160038711811b96871c119617171717171717916080831015600014611dc75750607e1982011c5b8002607f928392828493841c81841c1c800280851c81851c1c800280861c81861c1c800280871c81871c1c80029081881c82881c1c80029283891c84891c1c800294858a1c868a1c1c800296878b1c888b1c1c800298898c1c8a8c1c1c80029a8b8d1c8c821c1c8002809d1c8d821c1c8002809e81901c90821c1c80029e8f80911c911c1c800260cd1c6604000000000000169d60cc1c6608000000000000169c60cb1c6610000000000000169b60ca1c6620000000000000169a60c91c6640000000000000169960c81c6680000000000000169860c71c670100000000000000169760c61c670200000000000000169660c51c670400000000000000169560c41c670800000000000000169460c31c671000000000000000169360c21c672000000000000000169260c11c674000000000000000169160c01c6780000000000000001690607f190160401b1717171717171717171717171717693627a301d71055774c8502906f028f6481ab7f045a5af012a19d003aa919820160801d60020b916fdb2df09e81959a81455e260799a0632f0160801d60020b92600091848414600014611dad57505050905090565b611db6856117e1565b16119050611dc2575090565b905090565b905081607f031b611bfd565b506f0ffff5433e2b3d8211706e6102aa94728310611b7156fea26469706673582212200987b4ba0cea77773a16a3a542da4b89b93cc19f71907ea81c070d3298f12e4064736f6c63430008130033",
    "linkReferences": {}
  },
  "methodIdentifiers": {
    "dex_()": "87834a0e",
    "queryAmbientPosition(address,address,address,uint256)": "7f44601a",
    "queryAmbientTokens(address,address,address,uint256)": "ebca95de",
    "queryConcRewards(address,address,address,uint256,int24,int24)": "3dccd7d7",
    "queryCurve(address,address,uint256)": "8e56c1c1",
    "queryCurveTick(address,address,uint256)": "dc91a6ad",
    "queryKnockoutMerkle(address,address,uint256,bool,int24)": "ab0a9898",
    "queryKnockoutPivot(address,address,uint256,bool,int24)": "10fc74f4",
    "queryKnockoutPos(address,address,address,uint256,uint32,bool,int24,int24)": "391d582f",
    "queryKnockoutTokens(address,address,address,uint256,uint32,bool,int24,int24)": "93c33a71",
    "queryLevel(address,address,uint256,int24)": "340bfa12",
    "queryLiquidity(address,address,uint256)": "338adc67",
    "queryPoolParams(address,address,uint256)": "ff163e14",
    "queryPoolTemplate(uint256)": "2855bcf3",
    "queryPrice(address,address,uint256)": "f8c7efa7",
    "queryProtocolAccum(address)": "ed8f58f4",
    "queryRangePosition(address,address,address,uint256,int24,int24)": "992236c5",
    "queryRangeTokens(address,address,address,uint256,int24,int24)": "d7fd8d0f",
    "querySurplus(address,address)": "56bf0f5b",
    "queryVirtual(address,address,uint256)": "6756e9b8"
  },
  "id": 19
}