{
  "abi": [
    {
      "anonymous": false,
      "inputs": [
        {
          "indexed": true,
          "internalType": "bytes32",
          "name": "pool",
          "type": "bytes32"
        },
        {
          "indexed": true,
          "internalType": "int24",
          "name": "tick",
          "type": "int24"
        },
        {
          "indexed": false,
          "internalType": "bool",
          "name": "isBid",
          "type": "bool"
        },
        {
          "indexed": false,
          "internalType": "uint32",
          "name": "pivotTime",
          "type": "uint32"
        },
        {
          "indexed": false,
          "internalType": "uint64",
          "name": "feeMileage",
          "type": "uint64"
        },
        {
          "indexed": false,
          "internalType": "uint160",
          "name": "commitEntropy",
          "type": "uint160"
        }
      ],
      "name": "CrocKnockoutCross",
      "type": "event"
    },
    {
      "inputs": [
        {
          "internalType": "address",
          "name": "",
          "type": "address"
        },
        {
          "internalType": "uint16",
          "name": "slot",
          "type": "uint16"
        }
      ],
      "name": "acceptCrocProxyRole",
      "outputs": [
        {
          "internalType": "bool",
          "name": "",
          "type": "bool"
        }
      ],
      "stateMutability": "nonpayable",
      "type": "function"
    },
    {
      "inputs": [
        {
          "internalType": "bytes",
          "name": "cmd",
          "type": "bytes"
        }
      ],
      "name": "protocolCmd",
      "outputs": [],
      "stateMutability": "nonpayable",
      "type": "function"
    },
    {
      "inputs": [
        {
          "internalType": "bytes",
          "name": "cmd",
          "type": "bytes"
        }
      ],
      "name": "userCmd",
      "outputs": [],
      "stateMutability": "payable",
      "type": "function"
    }
  ],
  "bytecode": {
    "object": "0x6080806040523461002b5762010011805460ff60e01b1916600160e71b17905561323590816100318239f35b600080fdfe608080604052600436101561001357600080fd5b60009060e0908235821c908163ac54c0fc1461258e57508063b670198014611a9e5763f96dc7881461004457600080fd5b61004d366125e0565b909181601f1015611a8a57601f83013560f81c604781036112955750508160a091810103126112915761007f81612629565b5061008c60208201612637565b61009860408301612637565b906100aa60806060850135940161264b565b916100b3612cf3565b506100d36100ce856001600160a01b03848116908616612dee565b612ecf565b611267576100df612cbb565b50838552620100086020526100f660408620612d93565b9261010084612eb5565b1561123d576201000b805460801c60ff90811660408701908152919561020f92919060c09061013c8a6001600160a01b03898116908b16612d19565b8b52620100096020526101998360408d209581845116821988541617875561017f61ffff602086015116889062ffff0082549160081b169062ffff001916179055565b51865463ff0000001916911660181b63ff00000016178555565b6060810151845465ffff00000000191660209190911b65ffff00000000161784556080810151845460ff60301b191690841660301b60ff60301b1617845560a0810151845460ff60381b191690841660381b60ff60381b161784550151825460ff60401b1916911660401b60ff60401b16179055565b610217612cf3565b506001600160801b03610237866001600160a01b03858116908716612dee565b9461024961024487612ecf565b612d62565b54169460018060a01b036040860151169081611173575b5050846020850151876080604051610277816126ca565b828152826020820152826040820152826060820152015287526201000f60205260408720916001604051936102ab856126ca565b80546001600160801b038116865260801c602086015201546001600160801b03811660408501526001600160401b038160801c16606085015260c01c6080840152620100026001600160801b038216101580611151575b15610bb1576001600160401b600160c01b03604083901b166001600160801b03811160071b81811c6001600160401b03811160061b81811c63ffffffff811160051b90811c61ffff811160041b81811c60ff8111600390811b82811c600f811160021b90811c9283118c1b83811c9c909c1197909917959095179290921793909317861788179390931796869592949093608089106110f85750505050505050607e1982011c5b808002607f1c81800260ff1c1c808002607f1c81800260ff1c1c808002607f1c81800260ff1c1c808002607f1c81800260ff1c1c808002607f1c81800260ff1c1c808002607f1c81800260ff1c1c90818002607f1c82800260ff1c1c92838002607f1c84800260ff1c1c94858002607f1c86800260ff1c1c96878002607f1c88800260ff1c1c98898002607f1c8a800260ff1c1c9a8b8002607f1c8c800260ff1c1c9c8d808002607f1c90800260ff1c1c800260cd1c6604000000000000169d800260cc1c6608000000000000169c800260cb1c6610000000000000169b800260ca1c6620000000000000169a800260c91c66400000000000001699800260c81c66800000000000001698800260c71c6701000000000000001697800260c61c6702000000000000001696800260c51c6704000000000000001695800260c41c6708000000000000001694800260c31c6710000000000000001693800260c21c6720000000000000001692800260c11c6740000000000000001691800260c01c6780000000000000001690607f190160401b1717171717171717171717171717693627a301d71055774c85026fdb2df09e81959a81455e260799a0632f810160801d60020b6f028f6481ab7f045a5af012a19d003aa919820160801d60020b14600014610c8c576f028f6481ab7f045a5af012a19d003aa9190160801d60020b905b620a276d198260020b121580610c7c575b15610c53576001600160801b03845116610c2a576001600160801b03168352602086015190604051918260408101106001600160401b03604085011117610c14576040830160405263ffffffff42168352896020840152895262010018602052604089209060020b89526020526040882080549068010000000000000000821015610c005760018201808255821015610bec57895260208920019063ffffffff81511667ffffffff000000006020845493015160201b16916001600160401b0319161717905515610be3575b61069f6001600160401b03606083015116866131af565b6001600160801b038251166106c1816001600160801b0384160260401c6131e2565b918115610bcf576106eb91600160401b600160c01b036106e59260401b16046131e2565b96613194565b6001600160801b0380602085015116918981600f0b12600014610bb5578903811682031690811015610bb1576001600160801b03905b1660208301526001600160801b03811615801590610ba9575b15610ba1576107489061290f565b945b6001600160801b03811615801590610b99575b15610b89576107796106e561077360209361290f565b97613194565b94015186526201000f6020526040862060016001600160801b03835116926001600160801b03199384602083015160801b161783556001600160801b03604082015116906001600160401b0360801b606082015160801b169060806001600160401b0360c01b91015160c01b1691171791015560018060a01b038654169460018060a01b038416159384600014610b125787905b6040516370a0823160e01b8152306004820152956020876024816001600160a01b038a165afa968715610b07578a97610ace575b5015610aa95761084f612a67565b600f84900b80156109a85760008113156109fd5750604080516001600160a01b038b166020820190815260009282018390529196916001600160801b038716916108a681606081015b03601f19810183528261271b565b519020875262010010602052604087209182546001600160801b038116906001600160801b03891682116000146109e55750506001600160801b036108ef845493828516612af6565b1691161790555b6001600160801b03851680156109a8576001600160801b0382161061097e5761095b986001600160801b0361093161094d9761094d94612af6565b168061095e575b505b6001600160a01b03871690899080612fe3565b6001600160a01b0316612eeb565b80f35b600080808061097894865af1610972613133565b50613163565b38610938565b60405162461bcd60e51b8152602060048201526002602482015261454360f01b6044820152606490fd5b5061094d945061095b986001600160801b0361094d9216806109cb575b5061093a565b60008080806109df94865af1610972613133565b386109c5565b6109f795995093919093169055612af6565b936108f6565b9861094d9561094d92600061095b9c12610a19575b505061093a565b6001600160801b0391610a2b88612bc4565b604080516001600160a01b0387166020820190815260009282019290925291851691610a5a8160608101610898565b5190206000526201001060205260406000209184610a7c84549382851661293d565b1691161790551680610a8f575b80610a12565b6000808080610aa394865af1610972613133565b38610a89565b61095b9761094d94508490610ac96001600160a01b038416868380612fe3565b61093a565b9096506020813d602011610aff575b81610aea6020938361271b565b81010312610afa57519538610841565b600080fd5b3d9150610add565b6040513d8c823e3d90fd5b6040516370a0823160e01b81523060048201526020816024816001600160a01b0386165afa908115610b7e578991610b4c575b509061080d565b90506020813d602011610b76575b81610b676020938361271b565b81010312610afa575138610b45565b3d9150610b5a565b6040513d8b823e3d90fd5b5060206107796106e58897613194565b50600161075d565b50859461074a565b50600161073a565b8780fd5b8116820116908110610bb1576001600160801b0390610721565b634e487b7160e01b89526012600452602489fd5b60019450610688565b634e487b7160e01b8a52603260045260248afd5b634e487b7160e01b8a52604160045260248afd5b634e487b7160e01b600052604160045260246000fd5b60405162461bcd60e51b81526020600482015260016024820152602760f91b6044820152606490fd5b60405162461bcd60e51b81526020600482015260016024820152602960f91b6044820152606490fd5b50620cb14a8260020b13156105bc565b620a276d196fdb2df09e81959a81455e260799a0632f820160801d60020b1215806110d3575b156110cf57886fdb2df09e81959a81455e260799a0632f820160801d60020b126000146110b1576fdb2df09e81959a81455e260799a0632f810160801d60020b89035b600181161561109f576001600160881b036ffffcb933bd6fad37aa2d162d1a5940015b169060028116611083575b60048116611067575b6008811661104b575b6010811661102f575b60208116611013575b60408116610ff7575b60808116610fdb575b6101008116610fbf575b6102008116610fa3575b6104008116610f87575b6108008116610f6b575b6110008116610f4f575b6120008116610f33575b6140008116610f17575b6180008116610efb575b620100008116610edf575b620200008116610ec4575b620400008116610ea9575b6208000016610e93575b896fdb2df09e81959a81455e260799a0632f830160801d60020b13610e70575b6001600160401b038116610e60576001600160801b038a915b60ff82861693169060401c01161115600014610e42576fdb2df09e81959a81455e260799a0632f0160801d60020b5b906105ab565b6f028f6481ab7f045a5af012a19d003aa9190160801d60020b610e3c565b6001600160801b03600191610e0d565b8015610e7f5760001904610df4565b634e487b7160e01b8a52601260045260248afd5b6b048a170391f7dc42444e8fa20260801c610dd4565b6d2216e584f5fa1ea926041bedfe9890910260801c90610dca565b906e5d6af8dedb81196699c329225ee6040260801c90610dbf565b906f09aa508b5b7a84e1c677de54f3e99bc90260801c90610db4565b906f31be135f97d08fd981231505542fcfa60260801c90610da9565b906f70d869a156d2a1b890bb3df62baf32f70260801c90610d9f565b906fa9f746462d870fdf8a65dc1f90e061e50260801c90610d95565b906fd097f3bdfd2022b8845ad8f792aa58250260801c90610d8b565b906fe7159475a2c29b7443b29c7fa6e889d90260801c90610d81565b906ff3392b0822b70005940c7a398e4b70f30260801c90610d77565b906ff987a7253ac413176f2b074cf7815e540260801c90610d6d565b906ffcbe86c7900a88aedcffc83b479aa3a40260801c90610d63565b906ffe5dee046a99a2a811c461f1969c30530260801c90610d59565b906fff2ea16466c96a3843ec78b326b528610260801c90610d50565b906fff973b41fa98c081472e6896dfb254c00260801c90610d47565b906fffcb9843d60f6159c9db58835c9266440260801c90610d3e565b906fffe5caca7e10e4e61c3624eaa0941cd00260801c90610d35565b906ffff2e50f5f656932ef12357cf3c7fdcc0260801c90610d2c565b906ffff97272373d413259a46990580e213a0260801c90610d23565b6001600160881b03600160801b610d18565b6fdb2df09e81959a81455e260799a0632f810160801d60020b610cf5565b8880fd5b50620cb14a6fdb2df09e81959a81455e260799a0632f820160801d60020b1315610cb2565b8495969750600160ff9161ffff939495961c11961160031b921160041b906001600160401b0363ffffffff8282811160061b1c1160051b911160061b6001600160801b03881160071b17171717171717607f031b6103a9565b506f0ffff5433e2b3d8211706e6102aa94726001600160801b03821610610302565b87546040516363a2fdc160e11b81526001600160a01b03918216600482015233602482015286821660448201529085166064820152608481019190915290602090829060a49082908b905af1908115611232578791611203575b50156111da573880610260565b60405162461bcd60e51b81526020600482015260016024820152602d60f91b6044820152606490fd5b611225915060203d60201161122b575b61121d818361271b565b81019061273c565b386111cd565b503d611213565b6040513d89823e3d90fd5b60405162461bcd60e51b8152602060048201526002602482015261141560f21b6044820152606490fd5b60405162461bcd60e51b8152602060048201526002602482015261282360f11b6044820152606490fd5b5080fd5b9293926048810361147a57505082016080928381830312611476576112b981612629565b5060206112c7818301612637565b6112d360408401612796565b95606090818501356001600160401b03958682116110cf57019580601f88011215610bb157863596868811611462578760051b90604051986113178884018b61271b565b895286808a019282010192831161145e579799978601905b8282106114415750505060a09590951b63ffffffff60a01b16946001600160a01b0392831691875b89518110156114345761ffff600381611370848e612809565b5116146113f657611381828c612809565b5116858a54169060405190888201928352866040830152848201528381528481018181108a821117610c1457604090815290519091208a526201001087528920805463ffffffff60a01b19168917905560001981146113e257600101611357565b634e487b7160e01b89526011600452602489fd5b60405162461bcd60e51b8152600481018890526016602482015275496e76616c696420526f7574657220417070726f766560501b6044820152606490fd5b5050505050505050905080f35b868091611450849d9b9d6125d1565b81520191019099979961132f565b8980fd5b634e487b7160e01b89526041600452602489fd5b8280fd5b6049819593929495146000146114e15750819250906080918101031261129157806114a761095b92612629565b506114b460208201612637565b9060606114c36040830161264b565b916001600160a01b039182916114d99101612637565b169216612958565b605381036115f057508161010091810103126114765761150081612629565b5061150d60208201612637565b6115196040830161264b565b9061152660608401612637565b9361153360a08501612629565b6001600160a01b039283169590921693843b156115ec5760ff6040519363d505accf60e01b85528760048601523060248601526001600160801b03861660448601526080830135606486015216608484015260c081013560a4840152013560c4820152848160e48183875af180156115e1576115b4575b5061095b92612958565b6001600160401b0381116115cd5760405261095b6115aa565b634e487b7160e01b85526041600452602485fd5b6040513d87823e3d90fd5b8680fd5b91925090604a810361173e57509061160a91810190612762565b84549193506001600160a01b039283169290811691859161162d91849116612ac5565b9182825262010010806020526116526001600160801b03968760408620541690612be5565b9383526020526040822080548661166b86828416612af6565b16906001600160801b03191617905580156000146116b557505082169182116116a15782808061095b9481945af1610972613133565b634e487b7160e01b83526011600452602483fd5b60405163a9059cbb60e01b602082019081526001600160a01b03909516602482015294909216604485015261095b93909283929183906116f88160648101610898565b51925af1611704613133565b8161170f5750613163565b8051801592508215611724575b505038610972565b611737925060208091830101910161273c565b388061171c565b604b8103611787575061175a826117819261095b940190612762565b865491949293506001600160a01b039081169161177a9083908316612ac5565b9316612ac5565b90612b54565b8290604c8103611802575060a0918101031261129157806117aa61095b92612629565b506117b760608201612754565b906117816117f66117fc6001600160a01b03806117d660808701612637565b1692839189541660406117ed602089013583612b0f565b97013590612b0f565b94612ac5565b92612ac5565b6050810361183a575060609181010312611291578061182361095b92612629565b50602061183260408301612796565b910135612833565b90506051810361195e575081019060a0818303126114765761185b81612629565b5060208101359161186e60408301612796565b9161187b60608201612637565b6080820135916001600160401b0383116115ec576118e9936020936118a092016127c2565b9060018060a01b038781815416916040518097819682956338188ed760e11b845260048401528b602484015263ffffffff8b1660448401526080606484015260848301906128cf565b0393165af1908115611953578491611935575b501561190b5761095b91612833565b60405162461bcd60e51b815260206004820152600260248201526127a760f11b6044820152606490fd5b61194d915060203d811161122b5761121d818361271b565b386118fc565b6040513d86823e3d90fd5b605203611a53578101906060818303126114765761197b81612629565b5061198860208201612637565b6040820135916001600160401b038311611a4f576119e4936020936119ad92016127c2565b9060018060a01b038581815416916040518097819682956330e286e360e21b845260048401526040602484015260448301906128cf565b0393165af1908115611a44578291611a26575b5061095b5760405162461bcd60e51b81526020600482015260026024820152614f4760f01b6044820152606490fd5b611a3e915060203d811161122b5761121d818361271b565b386119f7565b6040513d84823e3d90fd5b8480fd5b60405162461bcd60e51b815260206004820152600f60248201526e125b9d985b1a590818dbdb5b585b99608a1b6044820152606490fd5b634e487b7160e01b84526032600452602484fd5b503461129157611aad366125e0565b80601f1015611a8a57601f82013560f81c606d8103611b22575081925090604091810103126112915780611ae2602092612629565b500135807ff04678cb0a9a94c6123dfbed8362627d9754e802db5ef393b2abf29bbffb10c88380a281526201000860205260408120805460ff1916905580f35b606e8103611d2e5750908092918101031261129157611b4081612629565b506020908082013590611b55604082016125d1565b611b61606083016125d1565b611b6d60808401612629565b92611b7a60a08201612629565b9060c001611b8790612629565b9384928660405161ffff808816825283168a82015260ff8416604082015260ff8516606082015260ff8616608082015260a07f6574bab9cbe9cbdd301eff0716be38e5549a862fbb0a27f091ae8e30acf0975291a286895262010008885260408920805462ffffff191660089690961b62ffff0016959095176001178555845465ffff00000000191660209190911b65ffff0000000016178455835460ff60301b191660309190911b60ff60301b16178355825460ff60381b191660389190911b60ff60381b16178255815460ff60401b191660409190911b60ff60401b16179055611c7291612c6e565b6001600160a01b03811690839082611c8c575b5050505080f35b83903b15159283611cd5575b50505015611ca857808281611c85565b6064906040519062461bcd60e51b8252600482015260066024820152654f7261636c6560d01b6044820152fd5b604051633d3e21a160e21b815293509091839160049183915af1908115611d23578391611d06575b50828238611c98565b611d1d9150823d841161122b5761121d818361271b565b38611cfd565b6040513d85823e3d90fd5b606f8103611e2d57508161010091810103126114765761095b91611d5182612629565b50611e13611d6160208401612637565b91611df9611d7160408601612637565b93611ddb611dc1611d84608089016125d1565b96611d9160a08a016125d1565b936060611dab611da360c08d01612629565b988c01612629565b9a0135916001600160a01b039081169116612e52565b95869062ffff0082549160081b169062ffff001916179055565b845465ffff00000000191660209190911b65ffff0000000016178455565b825460ff60301b191660309190911b60ff60301b16178255565b9060ff60381b82549160381b169060ff60381b1916179055565b91929160728103611eaf575082611e4a91611e8d9394019061265f565b92905060ff604051917f703dadb0730cdc09b07d7039d74dddaa44bed181ac5df56ceaac826808f8c07c602083871694858152a16201001154901c161015612c8a565b6201000b805460ff60801b191660809290921b60ff60801b1691909117905580f35b60748103611f27575082611ec991611f0c9394019061265f565b92905060ff604051917f78cebabf44aeb53b6a6d1d9fda97040ebcd7b5119147f4d20834f499d194eebb602083871694858152a16201001154901c161015612c8a565b815460ff60c01b191660c09190911b60ff60c01b1617815580f35b8391925060738114600014611fd55750608091810103126112915780611f4f61095b92612629565b50611fbb611f5f60208301612637565b6060611f6d60408501612637565b9301359060018060a01b03809116931660ff6201000b5460801c16938282827fb89e42dc3bd965ba356db6bd3f5ddd604530083da13da6d8491ad2b2718a011f60206040518a8152a4612e52565b9063ff00000082549160181b169063ff0000001916179055565b6070810361209557506040918101031261129157602081611ff8611fff93612629565b500161264b565b7f7838d07bf20579cb7640bf7e1381607db1a5d8c4799053314890c72673a85c2e60206001600160801b03604051931692838152a180151580612089575b15612059576201000b906001600160801b031982541617905580f35b60405162461bcd60e51b8152602060048201526008602482015267496e6974206c697160c01b6044820152606490fd5b5062989680811061203d565b90506071810361217257508160809181010312611291576120b581612629565b506120c260208201612637565b906120db60606120d46040840161264b565b92016125d1565b9160018060a01b0316807f56f43876270ac6e001a4449e363d26518c494eac1547ed144ab29b5b99e38d08604080516001600160801b038616815261ffff87166020820152a283526201000a602052604083209170ffffffffffffffffffffffffffffffff0083549161ffff60881b9060881b169260081b169072ffffffffffffffffffffffffffffffffffff0019161717905580f35b919083549260ff8460a01c161561256357602881036122b1575061219992508101906126a9565b62010011546001600160a01b03918216925060a081901c6001600160401b0316421061227b571660405181837fbdcd7dcddd535083a6d22b55c021205ac0eff43705fb59b6645f6f479a6dd20b8680a38284526201000c60205260408420918254916001600160801b0394858416946001600160801b0319809516905584612225575b50505050505080f35b6001600160a01b03928316602083019081529216604082015261224b8160608101610898565b519020845262010010602052604084209261226a84549382851661293d565b16911617905538808080808061221c565b60405162461bcd60e51b815260206004820152600e60248201526d151c99585cdd5c9e481cdd185c9d60921b6044820152606490fd5b602981036123a057506122c792508101906126a9565b6001600160a01b0316905080151580612396575b1561235e5762010011805462093a80420180421161234a576001600160e01b0319909116831760a091821b67ffffffffffffffff60a01b1617918290551c6001600160401b0316907f0f02a9e0f1a59164f628064cb5ecad90405bca20d668c8528c2165d67476533c8380a380f35b634e487b7160e01b85526011600452602485fd5b60405162461bcd60e51b815260206004820152601060248201526f151c99585cdd5c9e481a5b9d985b1a5960821b6044820152606490fd5b50803b15156122db565b601481036124a157506123b692508101906126a9565b6001600160a01b039150811680151580612497575b8061244d575b1561241457620100019182549081167f794f2baba4b07f7dd9f1123c7e93530ca10b65cf26558362b14d0a437e3099c58580a26001600160a01b03191617905580f35b60405162461bcd60e51b8152602060048201526011602482015270496e76616c696420417574686f7269747960781b6044820152606490fd5b50604051633d5ed36160e11b815260208160048187865af1908115611953578491612479575b506123d1565b612491915060203d811161122b5761121d818361271b565b38612473565b50803b15156123cb565b6016810361250257506124b79250810190612683565b90507f2e7754bb17467b54f4b17a302f1adb01f606496fa3421665b36ff44ff8dbc5fa602060405192151592838152a1815460ff60b01b191660b09190911b60ff60b01b1617815580f35b909190601703611a535761251891810190612683565b90507f7fabf78b254427483595fa50cfb7e832154c4936f7bdb0b266535f271722dc46602060405192151592838152a160ff60b81b1990911660b89190911b60ff60b81b1617815580f35b606460405162461bcd60e51b81526020600482015260046024820152635375646f60e01b6044820152fd5b839034611291576040366003190112611291576004356001600160a01b03811603611291576024359161ffff83168093036125ce57506003602092148152f35b80fd5b359061ffff82168203610afa57565b906020600319830112610afa576004356001600160401b0392838211610afa5780602383011215610afa578160040135938411610afa5760248483010111610afa576024019190565b359060ff82168203610afa57565b35906001600160a01b0382168203610afa57565b35906001600160801b0382168203610afa57565b9190826040910312610afa57612680602061267984612629565b9301612629565b90565b9190826040910312610afa57602061269a83612629565b9201358015158103610afa5790565b9190826040910312610afa5761268060206126c384612629565b9301612637565b60a081019081106001600160401b03821117610c1457604052565b60e081019081106001600160401b03821117610c1457604052565b606081019081106001600160401b03821117610c1457604052565b90601f801991011681019081106001600160401b03821117610c1457604052565b90816020910312610afa57518015158103610afa5790565b359081600f0b8203610afa57565b9190826080910312610afa5761277782612629565b9161278460208201612637565b9161268060606126c360408501612754565b359063ffffffff82168203610afa57565b6001600160401b038111610c1457601f01601f191660200190565b81601f82011215610afa578035906127d9826127a7565b926127e7604051948561271b565b82845260208383010111610afa57816000926020809301838601378301015290565b805182101561281d5760209160051b010190565b634e487b7160e01b600052603260045260246000fd5b60018060a01b036000541690604051906020820192835260408201526040815261285c81612700565b5190206000526201001060205260406000209081549063ffffffff808360801c16908216106128a55763ffffffff60801b1990911660809190911b63ffffffff60801b16179055565b60405162461bcd60e51b81526020600482015260026024820152614e4960f01b6044820152606490fd5b919082519283825260005b8481106128fb575050826000602080949584010152601f8019910116010190565b6020818301810151848301820152016128da565b9060046001600160801b038093160191821161292757565b634e487b7160e01b600052601160045260246000fd5b9190916001600160801b038080941691160191821161292757565b6000805492936001600160a01b039391929184169185612976612a67565b958316612a0057506001600160801b03928387168487161061097e57846129b3946129a389604099612af6565b1691826129e6575b505050612ac5565b81526201001060205220908154906129d56001600160801b039182841661293d565b16906001600160801b031916179055565b81806129f89481935af1610972613133565b3884816129ab565b604080516323b872dd60e01b602082019081526001600160a01b0390961660248201523060448201526001600160801b03909216606483015295506129b393612a629186918291612a548160848101610898565b519082875af1611704613133565b612ac5565b6000549060ff8260a81c16612a9b576001600160801b033416348103610afa5760ff60a81b19909216600160a81b17600055565b60405162461bcd60e51b8152602060048201526002602482015261445360f01b6044820152606490fd5b604080516001600160a01b03928316602082019081529390921690820152612af08160608101610898565b51902090565b6001600160801b03918216908216039190821161292757565b9080612b19575090565b604080516001600160a01b039390931660208401908152838201929092528252612b4460608361271b565b905190206001600160a01b031690565b90604060008381526201001080602052612b7c6001600160801b039687858520541690612be5565b948252806020528282209384549487612b9788828916612af6565b166001600160801b031980971617905582526020522092612bbc84549382851661293d565b169116179055565b600f0b6f7fffffffffffffffffffffffffffffff1981146129275760000390565b91909180600f0b60008112600014612c545750612c04612c1391612bc4565b6001600160801b031683612af6565b915b6001600160801b0380911690831611612c2a57565b60405162461bcd60e51b8152602060048201526002602482015261534360f01b6044820152606490fd5b612c5f575081612c15565b6001600160801b031691612c15565b906001806000921614600014612c85575060601c90565b905090565b15612c9157565b60405162461bcd60e51b81526020600482015260026024820152612a2960f11b6044820152606490fd5b60405190612cc8826126e5565b8160c06000918281528260208201528260408201528260608201528260808201528260a08201520152565b60405190612d0082612700565b6000604083612d0d612cbb565b81528260208201520152565b91906001600160a01b038082169084161015610afa57604080516001600160a01b039485166020820190815294909216908201526060810191909152612af08160808101610898565b15612d6957565b60405162461bcd60e51b8152602060048201526002602482015261504960f01b6044820152606490fd5b90604051612da0816126e5565b60c060ff829454818116845261ffff808260081c166020860152828260181c1660408601528160201c166060850152818160301c166080850152818160381c1660a085015260401c16910152565b612e02918391612dfc612cf3565b50612d19565b8060005262010009602052612e2c612e1d6040600020612d93565b9260ff60c08501511690612c6e565b9060405192612e3a84612700565b835260208301526001600160a01b0316604082015290565b90612e5d9291612d19565b60005262010009602052604060002090612e81610244612e7c84612d93565b612eb5565b565b15612e8a57565b60405162461bcd60e51b815260206004820152600360248201526249505360e81b6044820152606490fd5b60ff600191612ec983838351161115612e83565b51161490565b60ff600191612ee48383835151161115612e83565b5151161490565b90916001600160a01b039091169081612f0357505050565b6020602492604051938480926370a0823160e01b82523060048301525afa918215612fd757600092612fa4575b50828210159283612f94575b83612f76575b50505015612f4c57565b60405162461bcd60e51b8152602060048201526002602482015261151160f21b6044820152606490fd5b82039250908211612927576001600160801b03161115388080612f42565b9250600081600f0b121592612f3c565b90916020823d8211612fcf575b81612fbe6020938361271b565b810103126125ce5750519038612f30565b3d9150612fb1565b6040513d6000823e3d90fd5b9290916001600160a01b03821615610afa57600092600f82900b848113156130d757506001600160801b039184915080831661301f8588612ac5565b8652620100106020526040862091825485808216921682116000146130b25750508361304f835492828416612af6565b16906001600160801b0319161790555b169081156130ac576040516323b872dd60e01b602082019081526001600160a01b0390951660248201523060448201526064810192909252612e8193839283906116f88160848101610898565b50505050565b6fffffffffffffffffffffffffffffffff19169092556130d29250612af6565b61305f565b849394919550126130e85750505050565b6040926117f66130f792612bc4565b815262010010602052209081549061311b6001600160801b0391821682841661293d565b16906001600160801b031916179055388080806130ac565b3d1561315e573d90613144826127a7565b91613152604051938461271b565b82523d6000602084013e565b606090565b1561316a57565b60405162461bcd60e51b81526020600482015260026024820152612a2360f11b6044820152606490fd5b6001600160801b03166001607f1b811015610afa57600f0b90565b6001600160401b03916001600160801b039283911666010000000000000191160260301c8181116131de571690565b5090565b6001600160801b03811691906001600160c01b03168203610afa5756fea2646970667358221220d1cbdd463989b0dca3ee358aba4531e3e2452bb6f1c9839a670fb0ca70c71ca164736f6c63430008130033",
    "linkReferences": {}
  },
  "methodIdentifiers": {
    "acceptCrocProxyRole(address,uint16)": "ac54c0fc",
    "protocolCmd(bytes)": "b6701980",
    "userCmd(bytes)": "f96dc788"
  },
  "id": 3
}