{
  "abi": [
    {
      "inputs": [
        {
          "internalType": "uint256",
          "name": "minDelay",
          "type": "uint256"
        },
        {
          "internalType": "address[]",
          "name": "proposers",
          "type": "address[]"
        },
        {
          "internalType": "address[]",
          "name": "executors",
          "type": "address[]"
        }
      ],
      "stateMutability": "nonpayable",
      "type": "constructor"
    },
    {
      "anonymous": false,
      "inputs": [
        {
          "indexed": true,
          "internalType": "bytes32",
          "name": "id",
          "type": "bytes32"
        },
        {
          "indexed": true,
          "internalType": "uint256",
          "name": "index",
          "type": "uint256"
        },
        {
          "indexed": false,
          "internalType": "address",
          "name": "target",
          "type": "address"
        },
        {
          "indexed": false,
          "internalType": "uint256",
          "name": "value",
          "type": "uint256"
        },
        {
          "indexed": false,
          "internalType": "bytes",
          "name": "data",
          "type": "bytes"
        }
      ],
      "name": "CallExecuted",
      "type": "event"
    },
    {
      "anonymous": false,
      "inputs": [
        {
          "indexed": true,
          "internalType": "bytes32",
          "name": "id",
          "type": "bytes32"
        },
        {
          "indexed": false,
          "internalType": "bytes32",
          "name": "salt",
          "type": "bytes32"
        }
      ],
      "name": "CallSalt",
      "type": "event"
    },
    {
      "anonymous": false,
      "inputs": [
        {
          "indexed": true,
          "internalType": "bytes32",
          "name": "id",
          "type": "bytes32"
        },
        {
          "indexed": true,
          "internalType": "uint256",
          "name": "index",
          "type": "uint256"
        },
        {
          "indexed": false,
          "internalType": "address",
          "name": "target",
          "type": "address"
        },
        {
          "indexed": false,
          "internalType": "uint256",
          "name": "value",
          "type": "uint256"
        },
        {
          "indexed": false,
          "internalType": "bytes",
          "name": "data",
          "type": "bytes"
        },
        {
          "indexed": false,
          "internalType": "bytes32",
          "name": "predecessor",
          "type": "bytes32"
        },
        {
          "indexed": false,
          "internalType": "uint256",
          "name": "delay",
          "type": "uint256"
        }
      ],
      "name": "CallScheduled",
      "type": "event"
    },
    {
      "anonymous": false,
      "inputs": [
        {
          "indexed": true,
          "internalType": "bytes32",
          "name": "id",
          "type": "bytes32"
        }
      ],
      "name": "Cancelled",
      "type": "event"
    },
    {
      "anonymous": false,
      "inputs": [
        {
          "indexed": false,
          "internalType": "uint256",
          "name": "oldDuration",
          "type": "uint256"
        },
        {
          "indexed": false,
          "internalType": "uint256",
          "name": "newDuration",
          "type": "uint256"
        }
      ],
      "name": "MinDelayChange",
      "type": "event"
    },
    {
      "anonymous": false,
      "inputs": [
        {
          "indexed": true,
          "internalType": "bytes32",
          "name": "role",
          "type": "bytes32"
        },
        {
          "indexed": true,
          "internalType": "bytes32",
          "name": "previousAdminRole",
          "type": "bytes32"
        },
        {
          "indexed": true,
          "internalType": "bytes32",
          "name": "newAdminRole",
          "type": "bytes32"
        }
      ],
      "name": "RoleAdminChanged",
      "type": "event"
    },
    {
      "anonymous": false,
      "inputs": [
        {
          "indexed": true,
          "internalType": "bytes32",
          "name": "role",
          "type": "bytes32"
        },
        {
          "indexed": true,
          "internalType": "address",
          "name": "account",
          "type": "address"
        },
        {
          "indexed": true,
          "internalType": "address",
          "name": "sender",
          "type": "address"
        }
      ],
      "name": "RoleGranted",
      "type": "event"
    },
    {
      "anonymous": false,
      "inputs": [
        {
          "indexed": true,
          "internalType": "bytes32",
          "name": "role",
          "type": "bytes32"
        },
        {
          "indexed": true,
          "internalType": "address",
          "name": "account",
          "type": "address"
        },
        {
          "indexed": true,
          "internalType": "address",
          "name": "sender",
          "type": "address"
        }
      ],
      "name": "RoleRevoked",
      "type": "event"
    },
    {
      "inputs": [],
      "name": "CANCELLER_ROLE",
      "outputs": [
        {
          "internalType": "bytes32",
          "name": "",
          "type": "bytes32"
        }
      ],
      "stateMutability": "view",
      "type": "function"
    },
    {
      "inputs": [],
      "name": "DEFAULT_ADMIN_ROLE",
      "outputs": [
        {
          "internalType": "bytes32",
          "name": "",
          "type": "bytes32"
        }
      ],
      "stateMutability": "view",
      "type": "function"
    },
    {
      "inputs": [],
      "name": "EXECUTOR_ROLE",
      "outputs": [
        {
          "internalType": "bytes32",
          "name": "",
          "type": "bytes32"
        }
      ],
      "stateMutability": "view",
      "type": "function"
    },
    {
      "inputs": [],
      "name": "PROPOSER_ROLE",
      "outputs": [
        {
          "internalType": "bytes32",
          "name": "",
          "type": "bytes32"
        }
      ],
      "stateMutability": "view",
      "type": "function"
    },
    {
      "inputs": [],
      "name": "TIMELOCK_ADMIN_ROLE",
      "outputs": [
        {
          "internalType": "bytes32",
          "name": "",
          "type": "bytes32"
        }
      ],
      "stateMutability": "view",
      "type": "function"
    },
    {
      "inputs": [],
      "name": "acceptAdmin",
      "outputs": [
        {
          "internalType": "bool",
          "name": "",
          "type": "bool"
        }
      ],
      "stateMutability": "pure",
      "type": "function"
    },
    {
      "inputs": [
        {
          "internalType": "bytes32",
          "name": "id",
          "type": "bytes32"
        }
      ],
      "name": "cancel",
      "outputs": [],
      "stateMutability": "nonpayable",
      "type": "function"
    },
    {
      "inputs": [
        {
          "internalType": "address",
          "name": "target",
          "type": "address"
        },
        {
          "internalType": "uint256",
          "name": "value",
          "type": "uint256"
        },
        {
          "internalType": "bytes",
          "name": "payload",
          "type": "bytes"
        },
        {
          "internalType": "bytes32",
          "name": "predecessor",
          "type": "bytes32"
        },
        {
          "internalType": "bytes32",
          "name": "salt",
          "type": "bytes32"
        }
      ],
      "name": "execute",
      "outputs": [],
      "stateMutability": "payable",
      "type": "function"
    },
    {
      "inputs": [
        {
          "internalType": "address[]",
          "name": "targets",
          "type": "address[]"
        },
        {
          "internalType": "uint256[]",
          "name": "values",
          "type": "uint256[]"
        },
        {
          "internalType": "bytes[]",
          "name": "payloads",
          "type": "bytes[]"
        },
        {
          "internalType": "bytes32",
          "name": "predecessor",
          "type": "bytes32"
        },
        {
          "internalType": "bytes32",
          "name": "salt",
          "type": "bytes32"
        }
      ],
      "name": "executeBatch",
      "outputs": [],
      "stateMutability": "payable",
      "type": "function"
    },
    {
      "inputs": [],
      "name": "getMinDelay",
      "outputs": [
        {
          "internalType": "uint256",
          "name": "",
          "type": "uint256"
        }
      ],
      "stateMutability": "view",
      "type": "function"
    },
    {
      "inputs": [
        {
          "internalType": "bytes32",
          "name": "role",
          "type": "bytes32"
        }
      ],
      "name": "getRoleAdmin",
      "outputs": [
        {
          "internalType": "bytes32",
          "name": "",
          "type": "bytes32"
        }
      ],
      "stateMutability": "view",
      "type": "function"
    },
    {
      "inputs": [
        {
          "internalType": "bytes32",
          "name": "id",
          "type": "bytes32"
        }
      ],
      "name": "getTimestamp",
      "outputs": [
        {
          "internalType": "uint256",
          "name": "",
          "type": "uint256"
        }
      ],
      "stateMutability": "view",
      "type": "function"
    },
    {
      "inputs": [
        {
          "internalType": "bytes32",
          "name": "role",
          "type": "bytes32"
        },
        {
          "internalType": "address",
          "name": "account",
          "type": "address"
        }
      ],
      "name": "grantRole",
      "outputs": [],
      "stateMutability": "nonpayable",
      "type": "function"
    },
    {
      "inputs": [
        {
          "internalType": "bytes32",
          "name": "role",
          "type": "bytes32"
        },
        {
          "internalType": "address",
          "name": "account",
          "type": "address"
        }
      ],
      "name": "hasRole",
      "outputs": [
        {
          "internalType": "bool",
          "name": "",
          "type": "bool"
        }
      ],
      "stateMutability": "view",
      "type": "function"
    },
    {
      "inputs": [
        {
          "internalType": "address",
          "name": "target",
          "type": "address"
        },
        {
          "internalType": "uint256",
          "name": "value",
          "type": "uint256"
        },
        {
          "internalType": "bytes",
          "name": "data",
          "type": "bytes"
        },
        {
          "internalType": "bytes32",
          "name": "predecessor",
          "type": "bytes32"
        },
        {
          "internalType": "bytes32",
          "name": "salt",
          "type": "bytes32"
        }
      ],
      "name": "hashOperation",
      "outputs": [
        {
          "internalType": "bytes32",
          "name": "",
          "type": "bytes32"
        }
      ],
      "stateMutability": "pure",
      "type": "function"
    },
    {
      "inputs": [
        {
          "internalType": "address[]",
          "name": "targets",
          "type": "address[]"
        },
        {
          "internalType": "uint256[]",
          "name": "values",
          "type": "uint256[]"
        },
        {
          "internalType": "bytes[]",
          "name": "payloads",
          "type": "bytes[]"
        },
        {
          "internalType": "bytes32",
          "name": "predecessor",
          "type": "bytes32"
        },
        {
          "internalType": "bytes32",
          "name": "salt",
          "type": "bytes32"
        }
      ],
      "name": "hashOperationBatch",
      "outputs": [
        {
          "internalType": "bytes32",
          "name": "",
          "type": "bytes32"
        }
      ],
      "stateMutability": "pure",
      "type": "function"
    },
    {
      "inputs": [
        {
          "internalType": "bytes32",
          "name": "id",
          "type": "bytes32"
        }
      ],
      "name": "isOperation",
      "outputs": [
        {
          "internalType": "bool",
          "name": "",
          "type": "bool"
        }
      ],
      "stateMutability": "view",
      "type": "function"
    },
    {
      "inputs": [
        {
          "internalType": "bytes32",
          "name": "id",
          "type": "bytes32"
        }
      ],
      "name": "isOperationDone",
      "outputs": [
        {
          "internalType": "bool",
          "name": "",
          "type": "bool"
        }
      ],
      "stateMutability": "view",
      "type": "function"
    },
    {
      "inputs": [
        {
          "internalType": "bytes32",
          "name": "id",
          "type": "bytes32"
        }
      ],
      "name": "isOperationPending",
      "outputs": [
        {
          "internalType": "bool",
          "name": "",
          "type": "bool"
        }
      ],
      "stateMutability": "view",
      "type": "function"
    },
    {
      "inputs": [
        {
          "internalType": "bytes32",
          "name": "id",
          "type": "bytes32"
        }
      ],
      "name": "isOperationReady",
      "outputs": [
        {
          "internalType": "bool",
          "name": "",
          "type": "bool"
        }
      ],
      "stateMutability": "view",
      "type": "function"
    },
    {
      "inputs": [
        {
          "internalType": "address",
          "name": "",
          "type": "address"
        },
        {
          "internalType": "address",
          "name": "",
          "type": "address"
        },
        {
          "internalType": "uint256[]",
          "name": "",
          "type": "uint256[]"
        },
        {
          "internalType": "uint256[]",
          "name": "",
          "type": "uint256[]"
        },
        {
          "internalType": "bytes",
          "name": "",
          "type": "bytes"
        }
      ],
      "name": "onERC1155BatchReceived",
      "outputs": [
        {
          "internalType": "bytes4",
          "name": "",
          "type": "bytes4"
        }
      ],
      "stateMutability": "nonpayable",
      "type": "function"
    },
    {
      "inputs": [
        {
          "internalType": "address",
          "name": "",
          "type": "address"
        },
        {
          "internalType": "address",
          "name": "",
          "type": "address"
        },
        {
          "internalType": "uint256",
          "name": "",
          "type": "uint256"
        },
        {
          "internalType": "uint256",
          "name": "",
          "type": "uint256"
        },
        {
          "internalType": "bytes",
          "name": "",
          "type": "bytes"
        }
      ],
      "name": "onERC1155Received",
      "outputs": [
        {
          "internalType": "bytes4",
          "name": "",
          "type": "bytes4"
        }
      ],
      "stateMutability": "nonpayable",
      "type": "function"
    },
    {
      "inputs": [
        {
          "internalType": "address",
          "name": "",
          "type": "address"
        },
        {
          "internalType": "address",
          "name": "",
          "type": "address"
        },
        {
          "internalType": "uint256",
          "name": "",
          "type": "uint256"
        },
        {
          "internalType": "bytes",
          "name": "",
          "type": "bytes"
        }
      ],
      "name": "onERC721Received",
      "outputs": [
        {
          "internalType": "bytes4",
          "name": "",
          "type": "bytes4"
        }
      ],
      "stateMutability": "nonpayable",
      "type": "function"
    },
    {
      "inputs": [
        {
          "internalType": "bytes32",
          "name": "role",
          "type": "bytes32"
        },
        {
          "internalType": "address",
          "name": "account",
          "type": "address"
        }
      ],
      "name": "renounceRole",
      "outputs": [],
      "stateMutability": "nonpayable",
      "type": "function"
    },
    {
      "inputs": [
        {
          "internalType": "bytes32",
          "name": "role",
          "type": "bytes32"
        },
        {
          "internalType": "address",
          "name": "account",
          "type": "address"
        }
      ],
      "name": "revokeRole",
      "outputs": [],
      "stateMutability": "nonpayable",
      "type": "function"
    },
    {
      "inputs": [
        {
          "internalType": "address",
          "name": "target",
          "type": "address"
        },
        {
          "internalType": "uint256",
          "name": "value",
          "type": "uint256"
        },
        {
          "internalType": "bytes",
          "name": "data",
          "type": "bytes"
        },
        {
          "internalType": "bytes32",
          "name": "predecessor",
          "type": "bytes32"
        },
        {
          "internalType": "bytes32",
          "name": "salt",
          "type": "bytes32"
        },
        {
          "internalType": "uint256",
          "name": "delay",
          "type": "uint256"
        }
      ],
      "name": "schedule",
      "outputs": [],
      "stateMutability": "nonpayable",
      "type": "function"
    },
    {
      "inputs": [
        {
          "internalType": "address[]",
          "name": "targets",
          "type": "address[]"
        },
        {
          "internalType": "uint256[]",
          "name": "values",
          "type": "uint256[]"
        },
        {
          "internalType": "bytes[]",
          "name": "payloads",
          "type": "bytes[]"
        },
        {
          "internalType": "bytes32",
          "name": "predecessor",
          "type": "bytes32"
        },
        {
          "internalType": "bytes32",
          "name": "salt",
          "type": "bytes32"
        },
        {
          "internalType": "uint256",
          "name": "delay",
          "type": "uint256"
        }
      ],
      "name": "scheduleBatch",
      "outputs": [],
      "stateMutability": "nonpayable",
      "type": "function"
    },
    {
      "inputs": [
        {
          "internalType": "bytes4",
          "name": "interfaceId",
          "type": "bytes4"
        }
      ],
      "name": "supportsInterface",
      "outputs": [
        {
          "internalType": "bool",
          "name": "",
          "type": "bool"
        }
      ],
      "stateMutability": "view",
      "type": "function"
    },
    {
      "inputs": [
        {
          "internalType": "uint256",
          "name": "newDelay",
          "type": "uint256"
        }
      ],
      "name": "updateDelay",
      "outputs": [],
      "stateMutability": "nonpayable",
      "type": "function"
    },
    {
      "stateMutability": "payable",
      "type": "receive"
    }
  ],
  "bytecode": {
    "object": "0x60406080815234620003ab576200224590813803806200001f81620003b0565b9384398201606083820312620003ab57825192602090818101519260018060401b0393848111620003ab578162000058918401620003ec565b9385830151908111620003ab57620000719201620003ec565b7f5f58e3a2316349923ce3780f8d587db2d72378aed66a8261c916544fa6846ca5926000938085528484526001918287872001908282549255827fbd79b86ffe0ab8e8776151514217cd7cacd52c909f66475c3af44e129f0b00ff9281848a80a483887fb09aa5aeb3702cfd50b6b62bc4532604938f21248a27a1d5ca736082b6819cc1808a528583838c2001818154915582878d80a4857fd8aa0f3194971a2a116679f7c2090f6939c8d4e01a2a8d7e41d55e5351469e6395868c52818c8883888884200192848454945580a48b857ffd643c72710c63c0180259aba6b2d05451e3591a24e58b62239378085726f78395828780945220019183835493558d80a4858a528a8a20308b52895260ff95868c8c2054161562000372575b508a8a845b62000276575b508a94505050505b620001e8575b877f11c24f4ead16507c69ac467fbd5e4eed5fb5c699626d2cc6d66421df253886d581898c8a816002558351928352820152a151611d6e9081620004b78239f35b84518110156200027057839062000231906001600160a01b036200020d82896200048b565b5116848a528989528a8a20818b528952858b8b2054161562000238575b5062000465565b90620001a1565b848a528989528a8a20818b5289528a8a20805460ff191685179055339085600080516020620022258339815191528c80a4386200022a565b620001a7565b8b8b87518310156200036a57620002ef93826001600160a01b03806200029d878d6200048b565b511688835282855283832081845285528d84842054161562000332575b50620002c7868c6200048b565b511692888252528d81842090838552528d8b828520541615620002f8575b5050505062000465565b8b908462000193565b8390888252528d818420908385525282208760ff198254161790558560008051602062002225833981519152339380a48b388e8d620002e5565b8883528285528383208184528552838320805460ff19168c179055339089600080516020620022258339815191528580a438620002ba565b505062000199565b808b528a8a528b8b2030808d52908b528c8c20805460ff1916861790553391600080516020620022258339815191528d80a4386200018e565b600080fd5b6040519190601f01601f191682016001600160401b03811183821017620003d657604052565b634e487b7160e01b600052604160045260246000fd5b81601f82011215620003ab578051916001600160401b038311620003d6578260051b602092838062000420818501620003b0565b809781520192820101928311620003ab578301905b82821062000444575050505090565b81516001600160a01b0381168103620003ab57815290830190830162000435565b6000198114620004755760010190565b634e487b7160e01b600052601160045260246000fd5b8051821015620004a05760209160051b010190565b634e487b7160e01b600052603260045260246000fdfe608060405260048036101561001d575b50361561001b57600080fd5b005b600090813560e01c90816301d5062a14610df457816301ffc9a714610d8457816307bd026514610d5b5781630d3cf6fc14610d205781630e18b68114610d04578163134008d314610c6257816313bc9f2014610c44578163150b7a0214610bee578163248a9ca314610bc25781632ab0f52914610b955781632f2ff15d14610ae657816331d5075014610aba57816336568abe14610a29578163584b153e146109f257816364d62353146109445781638065657f146109245781638f2a0bb0146107d75781638f61f4f51461079c57816391d1485414610753578163a217fddf14610737578163b08e51c0146106fc578163b1c5f427146106d1578163bc197c8114610646578163c4d252f514610363578163d45c443514610339578163d547741f146102fa578163e38335e5146101e3578163f23a6e6114610185575063f27a0c920361000f57346101825780600319360112610182576020600254604051908152f35b80fd5b9050346101df5760a03660031901126101df576101a0610ed1565b506101a9610eec565b506084356001600160401b0381116101db576101c89250369101610fea565b5060405163f23a6e6160e01b8152602090f35b8280fd5b5080fd5b8261025660ff604061024f846101f836611061565b92848688849f989c979a9e8f90859f8e899f600080516020611d19833981519152909a999a5280602052818120818052602052205416156102ec575b61023f848314611828565b61024a868314611828565b6116b2565b9788611b45565b875b81811061026c578861026989611bdb565b80f35b8080897fc2617efa69bab66782fa219543714338489c4e9e178271560a91b82c3f612b5889896102df6102c6868f6102bf828f928f908f6102e79f6102b4916102b9936118a5565b6118cb565b976118a5565b35956118df565b906102d382828787611a37565b60405194859485611a10565b0390a3611880565b610258565b6102f53361134d565b610234565b9050346101df5760403660031901126101df57610269903561031a610eec565b90808452836020526103346001604086200154339061148c565b6115a4565b9050346101df5760203660031901126101df57602091604091358152600183522054604051908152f35b9050346101df576020806003193601126101db578135917ffd643c72710c63c0180259aba6b2d05451e3591a24e58b62239378085726f78380855284835260408520338652835260ff6040862054161561046657506103d083600052600160205260016040600020541190565b1561040a5750600190828452528160408120557fbaa1eb22f2a492ba1a5fea61b8df4d27c6c8b5f3971e63bb58fa14ff72eedb708280a280f35b6084916040519162461bcd60e51b8352820152603160248201527f54696d656c6f636b436f6e74726f6c6c65723a206f7065726174696f6e2063616044820152701b9b9bdd0818994818d85b98d95b1b1959607a1b6064820152fd5b8461047033611c0a565b916040519061047e82610f7d565b6042825285820192606036853782511561063357603084538251906001918210156106205790607860218501536041915b8183116105b5575050506105735760449392916105416048610565936040519384916105328b84019876020b1b1b2b9b9a1b7b73a3937b61d1030b1b1b7bab73a1604d1b8a526105098d8251928391603789019101611128565b8401917001034b99036b4b9b9b4b733903937b6329607d1b603784015251809386840190611128565b01036028810184520182610fae565b60405195869462461bcd60e51b865285015251809281602486015285850190611128565b601f01601f19168101030190fd5b60648486806040519262461bcd60e51b845283015260248201527f537472696e67733a20686578206c656e67746820696e73756666696369656e746044820152fd5b909192600f8116601081101561060d576f181899199a1a9b1b9c1cb0b131b232b360811b901a6105e58587611bf9565b53871c9280156105fa576000190191906104af565b634e487b7160e01b825260118852602482fd5b634e487b7160e01b835260328952602483fd5b634e487b7160e01b815260328752602490fd5b634e487b7160e01b815260328652602490fd5b9050346101df5760a03660031901126101df57610661610ed1565b5061066a610eec565b506001600160401b036044358181116106cd5761068a90369084016110c2565b506064358181116106cd576106a290369084016110c2565b506084359081116101db576106ba9250369101610fea565b5060405163bc197c8160e01b8152602090f35b8380fd5b82346101825760206106f46106e536611061565b969590959491949392936116b2565b604051908152f35b823461018257806003193601126101825760206040517ffd643c72710c63c0180259aba6b2d05451e3591a24e58b62239378085726f7838152f35b8234610182578060031936011261018257602090604051908152f35b9050346101df5760403660031901126101df57604060209260ff92610776610eec565b903582528185528282206001600160a01b03909116825284522054604051911615158152f35b823461018257806003193601126101825760206040517fb09aa5aeb3702cfd50b6b62bc4532604938f21248a27a1d5ca736082b6819cc18152f35b9050346101df5760c03660031901126101df576001600160401b039080358281116106cd576108099036908301611031565b92602435818111610920576108219036908501611031565b91909360443591821161091c5761083d84918693369101611031565b6064949194359161085f89848489856084359d8e9560a4359b6102343361114b565b9861086a858b611920565b898b5b8281106108b1578c828c80610880578280f35b60207f20fda5fd27a1ea7bf5b9567f143ac5470bb059374a27e8f67cb44f946f6d038791604051908152a281808280f35b80610915927f4cf4410cc57040e44862ef0f45f3dd5a5e02db8eb8add648d4b0e236f1d07dca8b8b6102df8f8c6109088f928e6109018f8f906108fb6102b48f80979481956118a5565b996118a5565b35976118df565b90604051968796876117f0565b8a9061086d565b8680fd5b8580fd5b82346101825760206106f461093836610f2f565b9493909392919261165d565b9050346101df5760203660031901126101df5780359030330361099a57507f11c24f4ead16507c69ac467fbd5e4eed5fb5c699626d2cc6d66421df253886d560406002548151908152836020820152a160025580f35b60849060206040519162461bcd60e51b8352820152602b60248201527f54696d656c6f636b436f6e74726f6c6c65723a2063616c6c6572206d7573742060448201526a62652074696d656c6f636b60a81b6064820152fd5b8234610182576020366003190112610182576020610a1f8335600052600160205260016040600020541190565b6040519015158152f35b823461018257604036600319011261018257610a43610eec565b336001600160a01b03821603610a5e576102699192356115a4565b60405162461bcd60e51b8152602081850152602f60248201527f416363657373436f6e74726f6c3a2063616e206f6e6c792072656e6f756e636560448201526e103937b632b9903337b91039b2b63360891b6064820152608490fd5b8234610182576020366003190112610182576020610a1f83356000526001602052604060002054151590565b9050346101df5760403660031901126101df5735610b02610eec565b81835282602052610b1b6001604085200154339061148c565b818352602083815260408085206001600160a01b039093168086529290915283205460ff1615610b49578280f35b818352826020526040832081845260205260408320600160ff1982541617905533917f2f8788117e7eff1d82e926ec794901d17c78024a50270940304540a733656f0d8480a438808280f35b8234610182576020366003190112610182576020610a1f8335600052600160205260016040600020541490565b9050346101df5760203660031901126101df576040602092600192358152808452200154604051908152f35b9050346101df5760803660031901126101df57610c09610ed1565b50610c12610eec565b506064356001600160401b0381116101db57610c319250369101610fea565b50604051630a85bd0160e11b8152602090f35b8234610182576020366003190112610182576020610a1f8335611618565b82610269610ce282610cee7fc2617efa69bab66782fa219543714338489c4e9e178271560a91b82c3f612b58610cd9610c9a36610f2f565b600080516020611d198339815191528a9995979299949394528960205260408a208a805260205260ff60408b20541615610cf6575b888484898961165d565b98899788611b45565b6102d382828787611a37565b0390a3611bdb565b610cff3361134d565b610ccf565b8234610182578060031936011261018257602060405160018152f35b823461018257806003193601126101825760206040517f5f58e3a2316349923ce3780f8d587db2d72378aed66a8261c916544fa6846ca58152f35b82346101825780600319360112610182576020604051600080516020611d198339815191528152f35b9050346101df5760203660031901126101df573563ffffffff60e01b81168091036101df57602090630271189760e51b8114908115610dc9575b506040519015158152f35b637965db0b60e01b811491508115610de3575b5082610dbe565b6301ffc9a760e01b14905082610ddc565b9050346101df5760c03660031901126101df57610e0f610ed1565b826024356044356001600160401b0381116101db577f4cf4410cc57040e44862ef0f45f3dd5a5e02db8eb8add648d4b0e236f1d07dca94610e5291369101610f02565b94909160643594610e946084359660a43590610e6d3361114b565b610e7b89828c8a898961165d565b998a97610e88848a611920565b604051968796876117f0565b0390a380610ea0578280f35b60207f20fda5fd27a1ea7bf5b9567f143ac5470bb059374a27e8f67cb44f946f6d038791604051908152a238808280f35b600435906001600160a01b0382168203610ee757565b600080fd5b602435906001600160a01b0382168203610ee757565b9181601f84011215610ee7578235916001600160401b038311610ee75760208381860195010111610ee757565b60a0600319820112610ee7576004356001600160a01b0381168103610ee7579160243591604435906001600160401b038211610ee757610f7191600401610f02565b90916064359060843590565b608081019081106001600160401b03821117610f9857604052565b634e487b7160e01b600052604160045260246000fd5b90601f801991011681019081106001600160401b03821117610f9857604052565b6001600160401b038111610f9857601f01601f191660200190565b81601f82011215610ee75780359061100182610fcf565b9261100f6040519485610fae565b82845260208383010111610ee757816000926020809301838601378301015290565b9181601f84011215610ee7578235916001600160401b038311610ee7576020808501948460051b010111610ee757565b9060a0600319830112610ee7576001600160401b03600435818111610ee7578361108d91600401611031565b93909392602435838111610ee757826110a891600401611031565b93909392604435918211610ee757610f7191600401611031565b9080601f83011215610ee7578135906001600160401b038211610f98578160051b604051936020936110f685840187610fae565b85528380860192820101928311610ee7578301905b828210611119575050505090565b8135815290830190830161110b565b60005b83811061113b5750506000910152565b818101518382015260200161112b565b6001600160a01b031660008181527f3412d5605ac6cd444957cedb533e5dacad6378b4bc819ebe3652188a665066d5602090815260408083205490937fb09aa5aeb3702cfd50b6b62bc4532604938f21248a27a1d5ca736082b6819cc19160ff16156111b8575050505050565b6111c190611c0a565b908451906111ce82610f7d565b6042825283820194606036873782511561133957603086538251906001918210156113395790607860218501536041915b8183116112cb57505050611289578461126560486105659360449798519889916112568984019876020b1b1b2b9b9a1b7b73a3937b61d1030b1b1b7bab73a1604d1b8a52610509815180928d603789019101611128565b01036028810189520187610fae565b5194859362461bcd60e51b8552600485015251809281602486015285850190611128565b60648386519062461bcd60e51b825280600483015260248201527f537472696e67733a20686578206c656e67746820696e73756666696369656e746044820152fd5b909192600f81166010811015611325576f181899199a1a9b1b9c1cb0b131b232b360811b901a6112fb8587611bf9565b5360041c928015611311576000190191906111ff565b634e487b7160e01b82526011600452602482fd5b634e487b7160e01b83526032600452602483fd5b634e487b7160e01b81526032600452602490fd5b6001600160a01b031660008181527fdae2aa361dfd1ca020a396615627d436107c35eff9fe7738a3512819782d706960209081526040808320549093600080516020611d198339815191529160ff16156113a8575050505050565b6113b190611c0a565b908451906113be82610f7d565b6042825283820194606036873782511561133957603086538251906001918210156113395790607860218501536041915b81831161144657505050611289578461126560486105659360449798519889916112568984019876020b1b1b2b9b9a1b7b73a3937b61d1030b1b1b7bab73a1604d1b8a52610509815180928d603789019101611128565b909192600f81166010811015611325576f181899199a1a9b1b9c1cb0b131b232b360811b901a6114768587611bf9565b5360041c928015611311576000190191906113ef565b6000908082526020908282526040938484209060018060a01b031690818552835260ff8585205416156114c0575050505050565b6114c990611c0a565b908451906114d682610f7d565b6042825283820194606036873782511561133957603086538251906001918210156113395790607860218501536041915b81831161155e57505050611289578461126560486105659360449798519889916112568984019876020b1b1b2b9b9a1b7b73a3937b61d1030b1b1b7bab73a1604d1b8a52610509815180928d603789019101611128565b909192600f81166010811015611325576f181899199a1a9b1b9c1cb0b131b232b360811b901a61158e8587611bf9565b5360041c92801561131157600019019190611507565b9060009180835282602052604083209160018060a01b03169182845260205260ff6040842054166115d457505050565b80835282602052604083208284526020526040832060ff1981541690557ff6391f5c32d9c69d2a47ea670b442974b53935d1edc7fd64eb21e047a839171b339380a4565b6000526001602052604060002054600181119081611634575090565b905042101590565b908060209392818452848401376000828201840152601f01601f1916010190565b946116936116ac94959293604051968795602087019960018060a01b03168a52604087015260a0606087015260c086019161163c565b91608084015260a083015203601f198101835282610fae565b51902090565b969294909695919560405196602091828901998060c08b0160a08d525260e08a01919060005b8181106117c857505050601f19898203810160408b0152888252976001600160fb1b038111610ee7579089969495939897929160051b80928a830137019380888601878703606089015252604085019460408260051b82010195836000925b84841061175f575050505050506116ac9550608084015260a083015203908101835282610fae565b9193969850919398999496603f198282030184528935601e1984360301811215610ee75783018681019190356001600160401b038111610ee7578036038313610ee7576117b18892839260019561163c565b9b0194019401918b98969394919a9997959a611737565b90919283359060018060a01b038216809203610ee757908152850192850191906001016116d8565b92909361181e926080959897969860018060a01b03168552602085015260a0604085015260a084019161163c565b9460608201520152565b1561182f57565b60405162461bcd60e51b815260206004820152602360248201527f54696d656c6f636b436f6e74726f6c6c65723a206c656e677468206d69736d616044820152620e8c6d60eb1b6064820152608490fd5b600019811461188f5760010190565b634e487b7160e01b600052601160045260246000fd5b91908110156118b55760051b0190565b634e487b7160e01b600052603260045260246000fd5b356001600160a01b0381168103610ee75790565b91908110156118b55760051b81013590601e1981360301821215610ee75701908135916001600160401b038311610ee7576020018236038113610ee7579190565b90611938826000526001602052604060002054151590565b6119b357600254811061195f5742019081421161188f576000526001602052604060002055565b60405162461bcd60e51b815260206004820152602660248201527f54696d656c6f636b436f6e74726f6c6c65723a20696e73756666696369656e746044820152652064656c617960d01b6064820152608490fd5b60405162461bcd60e51b815260206004820152602f60248201527f54696d656c6f636b436f6e74726f6c6c65723a206f7065726174696f6e20616c60448201526e1c9958591e481cd8da19591d5b1959608a1b6064820152608490fd5b611a34949260609260018060a01b031682526020820152816040820152019161163c565b90565b90926000938493826040519384928337810185815203925af13d15611ae1573d611a6081610fcf565b90611a6e6040519283610fae565b8152600060203d92013e5b15611a8057565b60405162461bcd60e51b815260206004820152603360248201527f54696d656c6f636b436f6e74726f6c6c65723a20756e6465726c79696e6720746044820152721c985b9cd858dd1a5bdb881c995d995c9d1959606a1b6064820152608490fd5b611a79565b15611aed57565b60405162461bcd60e51b815260206004820152602a60248201527f54696d656c6f636b436f6e74726f6c6c65723a206f7065726174696f6e206973604482015269206e6f7420726561647960b01b6064820152608490fd5b611b51611b5691611618565b611ae6565b8015908115611bbc575b5015611b6857565b60405162461bcd60e51b815260206004820152602660248201527f54696d656c6f636b436f6e74726f6c6c65723a206d697373696e6720646570656044820152656e64656e637960d01b6064820152608490fd5b611bd59150600052600160205260016040600020541490565b38611b60565b611be7611b5182611618565b60005260016020526001604060002055565b9081518110156118b5570160200190565b60405190606082018281106001600160401b03821117610f9857604052602a82526020820160403682378251156118b5576030905381516001908110156118b557607860218401536029905b808211611caa575050611c665790565b606460405162461bcd60e51b815260206004820152602060248201527f537472696e67733a20686578206c656e67746820696e73756666696369656e746044820152fd5b9091600f81166010811015611d03576f181899199a1a9b1b9c1cb0b131b232b360811b901a611cd98486611bf9565b5360041c918015611cee576000190190611c56565b60246000634e487b7160e01b81526011600452fd5b60246000634e487b7160e01b81526032600452fdfed8aa0f3194971a2a116679f7c2090f6939c8d4e01a2a8d7e41d55e5351469e63a26469706673582212206aa7f905185c3cdc4551021ecc64054cb32bb47d87f6741329c5e4b10870301464736f6c634300081300332f8788117e7eff1d82e926ec794901d17c78024a50270940304540a733656f0d",
    "linkReferences": {}
  },
  "methodIdentifiers": {
    "CANCELLER_ROLE()": "b08e51c0",
    "DEFAULT_ADMIN_ROLE()": "a217fddf",
    "EXECUTOR_ROLE()": "07bd0265",
    "PROPOSER_ROLE()": "8f61f4f5",
    "TIMELOCK_ADMIN_ROLE()": "0d3cf6fc",
    "acceptAdmin()": "0e18b681",
    "cancel(bytes32)": "c4d252f5",
    "execute(address,uint256,bytes,bytes32,bytes32)": "134008d3",
    "executeBatch(address[],uint256[],bytes[],bytes32,bytes32)": "e38335e5",
    "getMinDelay()": "f27a0c92",
    "getRoleAdmin(bytes32)": "248a9ca3",
    "getTimestamp(bytes32)": "d45c4435",
    "grantRole(bytes32,address)": "2f2ff15d",
    "hasRole(bytes32,address)": "91d14854",
    "hashOperation(address,uint256,bytes,bytes32,bytes32)": "8065657f",
    "hashOperationBatch(address[],uint256[],bytes[],bytes32,bytes32)": "b1c5f427",
    "isOperation(bytes32)": "31d50750",
    "isOperationDone(bytes32)": "2ab0f529",
    "isOperationPending(bytes32)": "584b153e",
    "isOperationReady(bytes32)": "13bc9f20",
    "onERC1155BatchReceived(address,address,uint256[],uint256[],bytes)": "bc197c81",
    "onERC1155Received(address,address,uint256,uint256,bytes)": "f23a6e61",
    "onERC721Received(address,address,uint256,bytes)": "150b7a02",
    "renounceRole(bytes32,address)": "36568abe",
    "revokeRole(bytes32,address)": "d547741f",
    "schedule(address,uint256,bytes,bytes32,bytes32,uint256)": "01d5062a",
    "scheduleBatch(address[],uint256[],bytes[],bytes32,bytes32,uint256)": "8f2a0bb0",
    "supportsInterface(bytes4)": "01ffc9a7",
    "updateDelay(uint256)": "64d62353"
  },
  "id": 12
}