{
  "abi": [
    {
      "inputs": [],
      "name": "acceptsPermitOracle",
      "outputs": [
        {
          "internalType": "bool",
          "name": "",
          "type": "bool"
        }
      ],
      "stateMutability": "pure",
      "type": "function"
    },
    {
      "inputs": [],
      "name": "askTickSnap_",
      "outputs": [
        {
          "internalType": "int24",
          "name": "",
          "type": "int24"
        }
      ],
      "stateMutability": "view",
      "type": "function"
    },
    {
      "inputs": [],
      "name": "base_",
      "outputs": [
        {
          "internalType": "address",
          "name": "",
          "type": "address"
        }
      ],
      "stateMutability": "view",
      "type": "function"
    },
    {
      "inputs": [],
      "name": "bidTickSnap_",
      "outputs": [
        {
          "internalType": "int24",
          "name": "",
          "type": "int24"
        }
      ],
      "stateMutability": "view",
      "type": "function"
    },
    {
      "inputs": [
        {
          "internalType": "address",
          "name": "user",
          "type": "address"
        },
        {
          "internalType": "address",
          "name": "sender",
          "type": "address"
        },
        {
          "internalType": "address",
          "name": "base",
          "type": "address"
        },
        {
          "internalType": "address",
          "name": "quote",
          "type": "address"
        },
        {
          "internalType": "int24",
          "name": "bidTick",
          "type": "int24"
        },
        {
          "internalType": "int24",
          "name": "askTick",
          "type": "int24"
        },
        {
          "internalType": "uint128",
          "name": "liq",
          "type": "uint128"
        }
      ],
      "name": "checkApprovedForCrocBurn",
      "outputs": [
        {
          "internalType": "bool",
          "name": "",
          "type": "bool"
        }
      ],
      "stateMutability": "nonpayable",
      "type": "function"
    },
    {
      "inputs": [
        {
          "internalType": "address",
          "name": "user",
          "type": "address"
        },
        {
          "internalType": "address",
          "name": "sender",
          "type": "address"
        },
        {
          "internalType": "address",
          "name": "base",
          "type": "address"
        },
        {
          "internalType": "address",
          "name": "quote",
          "type": "address"
        },
        {
          "internalType": "uint256",
          "name": "poolIdx",
          "type": "uint256"
        }
      ],
      "name": "checkApprovedForCrocInit",
      "outputs": [
        {
          "internalType": "bool",
          "name": "",
          "type": "bool"
        }
      ],
      "stateMutability": "nonpayable",
      "type": "function"
    },
    {
      "inputs": [
        {
          "internalType": "address",
          "name": "user",
          "type": "address"
        },
        {
          "internalType": "address",
          "name": "sender",
          "type": "address"
        },
        {
          "internalType": "address",
          "name": "base",
          "type": "address"
        },
        {
          "internalType": "address",
          "name": "quote",
          "type": "address"
        },
        {
          "internalType": "int24",
          "name": "bidTick",
          "type": "int24"
        },
        {
          "internalType": "int24",
          "name": "askTick",
          "type": "int24"
        },
        {
          "internalType": "uint128",
          "name": "liq",
          "type": "uint128"
        }
      ],
      "name": "checkApprovedForCrocMint",
      "outputs": [
        {
          "internalType": "bool",
          "name": "",
          "type": "bool"
        }
      ],
      "stateMutability": "nonpayable",
      "type": "function"
    },
    {
      "inputs": [
        {
          "internalType": "address",
          "name": "user",
          "type": "address"
        },
        {
          "internalType": "address",
          "name": "sender",
          "type": "address"
        },
        {
          "internalType": "address",
          "name": "base",
          "type": "address"
        },
        {
          "internalType": "address",
          "name": "quote",
          "type": "address"
        },
        {
          "components": [
            {
              "internalType": "bool",
              "name": "isAdd_",
              "type": "bool"
            },
            {
              "internalType": "uint8",
              "name": "rollType_",
              "type": "uint8"
            },
            {
              "internalType": "uint128",
              "name": "liquidity_",
              "type": "uint128"
            }
          ],
          "internalType": "struct Directives.AmbientDirective",
          "name": "",
          "type": "tuple"
        },
        {
          "components": [
            {
              "internalType": "bool",
              "name": "isBuy_",
              "type": "bool"
            },
            {
              "internalType": "bool",
              "name": "inBaseQty_",
              "type": "bool"
            },
            {
              "internalType": "uint8",
              "name": "rollType_",
              "type": "uint8"
            },
            {
              "internalType": "uint128",
              "name": "qty_",
              "type": "uint128"
            },
            {
              "internalType": "uint128",
              "name": "limitPrice_",
              "type": "uint128"
            }
          ],
          "internalType": "struct Directives.SwapDirective",
          "name": "",
          "type": "tuple"
        },
        {
          "components": [
            {
              "internalType": "int24",
              "name": "lowTick_",
              "type": "int24"
            },
            {
              "internalType": "int24",
              "name": "highTick_",
              "type": "int24"
            },
            {
              "internalType": "bool",
              "name": "isAdd_",
              "type": "bool"
            },
            {
              "internalType": "bool",
              "name": "isTickRel_",
              "type": "bool"
            },
            {
              "internalType": "uint8",
              "name": "rollType_",
              "type": "uint8"
            },
            {
              "internalType": "uint128",
              "name": "liquidity_",
              "type": "uint128"
            }
          ],
          "internalType": "struct Directives.ConcentratedDirective[]",
          "name": "",
          "type": "tuple[]"
        },
        {
          "internalType": "uint16",
          "name": "poolFee",
          "type": "uint16"
        }
      ],
      "name": "checkApprovedForCrocPool",
      "outputs": [
        {
          "internalType": "uint16",
          "name": "discount",
          "type": "uint16"
        }
      ],
      "stateMutability": "nonpayable",
      "type": "function"
    },
    {
      "inputs": [
        {
          "internalType": "address",
          "name": "user",
          "type": "address"
        },
        {
          "internalType": "address",
          "name": "sender",
          "type": "address"
        },
        {
          "internalType": "address",
          "name": "base",
          "type": "address"
        },
        {
          "internalType": "address",
          "name": "quote",
          "type": "address"
        },
        {
          "internalType": "bool",
          "name": "isBuy",
          "type": "bool"
        },
        {
          "internalType": "bool",
          "name": "inBaseQty",
          "type": "bool"
        },
        {
          "internalType": "uint128",
          "name": "qty",
          "type": "uint128"
        },
        {
          "internalType": "uint16",
          "name": "poolFee",
          "type": "uint16"
        }
      ],
      "name": "checkApprovedForCrocSwap",
      "outputs": [
        {
          "internalType": "uint16",
          "name": "discount",
          "type": "uint16"
        }
      ],
      "stateMutability": "nonpayable",
      "type": "function"
    },
    {
      "inputs": [],
      "name": "codeSnap_",
      "outputs": [
        {
          "internalType": "uint8",
          "name": "",
          "type": "uint8"
        }
      ],
      "stateMutability": "view",
      "type": "function"
    },
    {
      "inputs": [],
      "name": "inBaseQtySnap_",
      "outputs": [
        {
          "internalType": "bool",
          "name": "",
          "type": "bool"
        }
      ],
      "stateMutability": "view",
      "type": "function"
    },
    {
      "inputs": [],
      "name": "isBuySnap_",
      "outputs": [
        {
          "internalType": "bool",
          "name": "",
          "type": "bool"
        }
      ],
      "stateMutability": "view",
      "type": "function"
    },
    {
      "inputs": [],
      "name": "liqSnap_",
      "outputs": [
        {
          "internalType": "uint128",
          "name": "",
          "type": "uint128"
        }
      ],
      "stateMutability": "view",
      "type": "function"
    },
    {
      "inputs": [],
      "name": "passThru_",
      "outputs": [
        {
          "internalType": "bool",
          "name": "",
          "type": "bool"
        }
      ],
      "stateMutability": "view",
      "type": "function"
    },
    {
      "inputs": [],
      "name": "poolFee_",
      "outputs": [
        {
          "internalType": "uint16",
          "name": "",
          "type": "uint16"
        }
      ],
      "stateMutability": "view",
      "type": "function"
    },
    {
      "inputs": [],
      "name": "poolIdx_",
      "outputs": [
        {
          "internalType": "uint256",
          "name": "",
          "type": "uint256"
        }
      ],
      "stateMutability": "view",
      "type": "function"
    },
    {
      "inputs": [],
      "name": "qtySnap_",
      "outputs": [
        {
          "internalType": "uint128",
          "name": "",
          "type": "uint128"
        }
      ],
      "stateMutability": "view",
      "type": "function"
    },
    {
      "inputs": [],
      "name": "quote_",
      "outputs": [
        {
          "internalType": "address",
          "name": "",
          "type": "address"
        }
      ],
      "stateMutability": "view",
      "type": "function"
    },
    {
      "inputs": [],
      "name": "sender_",
      "outputs": [
        {
          "internalType": "address",
          "name": "",
          "type": "address"
        }
      ],
      "stateMutability": "view",
      "type": "function"
    },
    {
      "inputs": [
        {
          "internalType": "address",
          "name": "user",
          "type": "address"
        },
        {
          "internalType": "address",
          "name": "base",
          "type": "address"
        },
        {
          "internalType": "address",
          "name": "quote",
          "type": "address"
        }
      ],
      "name": "setMatching",
      "outputs": [],
      "stateMutability": "nonpayable",
      "type": "function"
    },
    {
      "inputs": [
        {
          "internalType": "bool",
          "name": "passThru",
          "type": "bool"
        }
      ],
      "name": "setPassThru",
      "outputs": [],
      "stateMutability": "nonpayable",
      "type": "function"
    },
    {
      "inputs": [],
      "name": "user_",
      "outputs": [
        {
          "internalType": "address",
          "name": "",
          "type": "address"
        }
      ],
      "stateMutability": "view",
      "type": "function"
    }
  ],
  "bytecode": {
    "object": "0x6080806040523461001657610a43908161001c8239f35b600080fdfe6080604081815260048036101561001557600080fd5b600092833560e01c90816307604b6c146105a4575080632136ea62146104f65780632a179e9b146104d45780632ce99bc8146104af5780632dd148f11461048d5780634cf5932b146104665780634dddebc41461043e5780634e56bd38146103a35780635e848e3e1461037a578063743dc5c0146103515780637839747f1461032e5780637a6612dd1461030f5780639517a422146102e8578063b036ac8b146102c2578063b8a7ff201461029b578063c1e8a8f314610274578063c6cf937a14610236578063c745fb82146101ea578063c8adf809146101c2578063c98b181b1461015b578063f4f886841461013b5763f4fe4f071461011557600080fd5b34610137578260031936011261013757602092505460801c60020b9051908152f35b8280fd5b5050346101575781600319360112610157576020905160018152f35b5080fd5b83346101bf5760603660031901126101bf576101756105c9565b61017d6105e4565b6101856105fa565b60018060a01b038092816bffffffffffffffffffffffff60a01b951685875416178655168360015416176001551690600254161760025580f35b80fd5b5050346101575781600319360112610157576020906001600160801b03600554169051908152f35b5050346101575760a03660031901126101575760209061022d61020b6105c9565b6102136105e4565b61021b6105fa565b610223610610565b91608435936109b2565b90519015158152f35b8382346101575760203660031901126101575735801515809103610157576003805460ff60a01b191660a09290921b60ff60a01b1691909117905580f35b5091346101bf57806003193601126101bf57506001600160801b0360209254169051908152f35b50503461015757816003193601126101575760209060ff60035460a81c1690519015158152f35b50503461015757816003193601126101575760209061ffff60055460881c169051908152f35b50503461015757816003193601126101575760209060ff60035460b01c1690519015158152f35b5050346101575781600319360112610157576020906006549051908152f35b5034610137578260031936011261013757602092505460981c60020b9051908152f35b50503461015757816003193601126101575760035490516001600160a01b039091168152602090f35b50503461015757816003193601126101575760025490516001600160a01b039091168152602090f35b50503461015757610100366003190112610157576103bf6105c9565b916103c86105e4565b6103d06105fa565b6103d8610610565b60843590811515820361043a5760a4359283151584036104365760c435946001600160801b03861686036104325760e4359861ffff97888b168b036101bf57509160209995939161042a979593610753565b915191168152f35b8680fd5b8580fd5b8480fd5b505034610157578160031936011261015757905490516001600160a01b039091168152602090f35b50503461015757816003193601126101575760209060ff60035460a01c1690519015158152f35b5050346101575760209061022d6104a336610626565b9594909493919361082a565b50503461015757816003193601126101575760209060ff60055460801c169051908152f35b5050346101575760209061022d6104ea36610626565b95949094939193610902565b5091346101bf576101c03660031901126101bf576105126105c9565b9261051b6105e4565b6105236105fa565b9061052c610610565b92606036608319011261043a5760a03660e319011261043a576101843567ffffffffffffffff918282116104325736602383011215610432578101359182116104365760249060c03693020101116105a0576101a4359561ffff9485881688036101bf57509161042a9391602097936106a1565b8380fd5b8490346101575781600319360112610157576001546001600160a01b03168152602090f35b600435906001600160a01b03821682036105df57565b600080fd5b602435906001600160a01b03821682036105df57565b604435906001600160a01b03821682036105df57565b606435906001600160a01b03821682036105df57565b60e09060031901126105df576001600160a01b039060043582811681036105df579160243581811681036105df579160443582811681036105df579160643590811681036105df57906084358060020b81036105df579060a4358060020b81036105df579060c4356001600160801b03811681036105df5790565b90919360035460ff8160a01c1661074857600580546001600160a01b03199092166001600160a01b039586161760035562ffffff60801b1990911660889290921b61ffff60881b1691909117600160801b179055600054908216908216149283610737575b5082610725575b505060009060001461071f5750600190565b60ff1690565b8091925060025416911614388061070d565b600154821690821614925038610706565b505050505050600190565b9390919692956003549260ff8460a01c1661081c576005805493151560a81b60ff60a81b16600162ffff0160a01b03199095166001600160a01b03928316179490941796151560b01b60ff60b01b1696909617600355600480546fffffffffffffffffffffffffffffffff19166001600160801b039290921691909117905562ffffff60801b191660889290921b61ffff60881b1691909117600160811b17905560005490821690821614928361073757508261072557505060009060001461071f5750600190565b505050505050505050600190565b929490939591956003549160ff8360a01c166108f5576005549260018060a01b03809716906bffffffffffffffffffffffff60a01b16176003556004549060981b62ffffff60981b169162ffffff60801b9060801b169065ffffffffffff60801b191617176004556001600160801b03600360801b92169070ffffffffffffffffffffffffffffffffff1916171760055581806000541691161492836108e4575b50826108d657505090565b809192506002541691161490565b6001548216908216149250386108cb565b5050505050505050600190565b929495919593909360035460ff8160a01c166108f5576001600160a01b0319166001600160a01b03958616176003556004805465ffffffffffff60801b191660809390931b62ffffff60801b169290921762ffffff60981b60989290921b919091161790556005805470ffffffffffffffffffffffffffffffffff19166001600160801b039290921691909117600160821b1790556000549082169082161492836108e45750826108d657505090565b90919360035460ff8160a01c16610748576001600160a01b0319166001600160a01b03938416176003556005805460ff60801b1916600560801b1790556006556000549082169082161492836108e45750826108d65750509056fea2646970667358221220753c43fa16063189eb95840401d2a6a471872a61c21e846748d403a4e492aa1964736f6c63430008130033",
    "linkReferences": {}
  },
  "methodIdentifiers": {
    "acceptsPermitOracle()": "f4f88684",
    "askTickSnap_()": "7839747f",
    "base_()": "07604b6c",
    "bidTickSnap_()": "f4fe4f07",
    "checkApprovedForCrocBurn(address,address,address,address,int24,int24,uint128)": "2a179e9b",
    "checkApprovedForCrocInit(address,address,address,address,uint256)": "c745fb82",
    "checkApprovedForCrocMint(address,address,address,address,int24,int24,uint128)": "2dd148f1",
    "checkApprovedForCrocPool(address,address,address,address,(bool,uint8,uint128),(bool,bool,uint8,uint128,uint128),(int24,int24,bool,bool,uint8,uint128)[],uint16)": "2136ea62",
    "checkApprovedForCrocSwap(address,address,address,address,bool,bool,uint128,uint16)": "4e56bd38",
    "codeSnap_()": "2ce99bc8",
    "inBaseQtySnap_()": "9517a422",
    "isBuySnap_()": "b8a7ff20",
    "liqSnap_()": "c8adf809",
    "passThru_()": "4cf5932b",
    "poolFee_()": "b036ac8b",
    "poolIdx_()": "7a6612dd",
    "qtySnap_()": "c1e8a8f3",
    "quote_()": "5e848e3e",
    "sender_()": "743dc5c0",
    "setMatching(address,address,address)": "c98b181b",
    "setPassThru(bool)": "c6cf937a",
    "user_()": "4dddebc4"
  },
  "id": 64
}