{
  "abi": [
    {
      "inputs": [
        {
          "internalType": "address",
          "name": "owner",
          "type": "address"
        },
        {
          "internalType": "uint256",
          "name": "poolIdx",
          "type": "uint256"
        },
        {
          "internalType": "int24",
          "name": "lower",
          "type": "int24"
        },
        {
          "internalType": "int24",
          "name": "upper",
          "type": "int24"
        }
      ],
      "name": "getPos",
      "outputs": [
        {
          "internalType": "uint128",
          "name": "",
          "type": "uint128"
        },
        {
          "internalType": "uint256",
          "name": "",
          "type": "uint256"
        }
      ],
      "stateMutability": "view",
      "type": "function"
    },
    {
      "inputs": [],
      "name": "lastRewards",
      "outputs": [
        {
          "internalType": "uint256",
          "name": "",
          "type": "uint256"
        }
      ],
      "stateMutability": "view",
      "type": "function"
    },
    {
      "inputs": [
        {
          "internalType": "address",
          "name": "owner",
          "type": "address"
        },
        {
          "internalType": "uint256",
          "name": "poolIdx",
          "type": "uint256"
        },
        {
          "internalType": "int24",
          "name": "lower",
          "type": "int24"
        },
        {
          "internalType": "int24",
          "name": "upper",
          "type": "int24"
        },
        {
          "internalType": "uint128",
          "name": "liq",
          "type": "uint128"
        },
        {
          "internalType": "uint64",
          "name": "mileage",
          "type": "uint64"
        }
      ],
      "name": "testAdd",
      "outputs": [],
      "stateMutability": "nonpayable",
      "type": "function"
    },
    {
      "inputs": [
        {
          "internalType": "address",
          "name": "owner",
          "type": "address"
        },
        {
          "internalType": "uint256",
          "name": "poolIdx",
          "type": "uint256"
        },
        {
          "internalType": "int24",
          "name": "lower",
          "type": "int24"
        },
        {
          "internalType": "int24",
          "name": "upper",
          "type": "int24"
        },
        {
          "internalType": "uint128",
          "name": "liq",
          "type": "uint128"
        },
        {
          "internalType": "uint64",
          "name": "mileage",
          "type": "uint64"
        }
      ],
      "name": "testBurn",
      "outputs": [],
      "stateMutability": "nonpayable",
      "type": "function"
    }
  ],
  "bytecode": {
    "object": "0x6080806040523461002b5762010011805460ff60e01b1916600160e71b1790556105c590816100318239f35b600080fdfe6040608081526004908136101561001557600080fd5b600091823560e01c908163056bb5e1146101af5781634e4858b0146101265750806391d23a1a146101065763a1e82f5d1461004f57600080fd5b346101025761006f906100613661032d565b95949693909692919261039d565b84526201001260205283208054909290916001600160801b038084169081156100fb576001600160481b038560801c16905b84830116938285106100f75767ffffffffffffffff6100c09416610456565b9063ffffffff60c81b6100d161051d565b60c81b169262ffffff60e81b1617906001600160481b0360801b9060801b161717905580f35b8780fd5b86906100a1565b5080fd5b503461010257816003193601126101025760209062010022549051908152f35b9050346101ab5760803660031901126101ab57356001600160a01b03811681036101ab576044358060020b81036101a757606435918260020b83036101a35791610176918495936024359061039d565b81526201001260205220546001600160481b038251916001600160801b038116835260801c166020820152f35b8480fd5b8380fd5b8280fd5b9050346101ab576101d0906101c33661032d565b979380959793919761039d565b8652620100126020528086209283549263ffffffff808560c81c16816101f461051d565b160381811161031a5781600a911604169060ff8211156102d5575b50506001600160801b0380951685841603948086116102c25761024a67ffffffffffffffff97886001600160481b038760801c169116610531565b95169283156102ac575083549160ff8360e81c166102845750506fffffffffffffffffffffffffffffffff19161790555b16620100225580f35b906020606492519162461bcd60e51b8352820152600260248201526127a960f11b6044820152fd5b6001600160f01b0319169093555061027b915050565b634e487b7160e01b885260118252602488fd5b88526201000960205260ff8389205460301c16116102f457388061020f565b6020606492519162461bcd60e51b835282015260016024820152602560f91b6044820152fd5b634e487b7160e01b8a526011845260248afd5b60c0906003190112610398576004356001600160a01b03811681036103985790602435906044358060020b810361039857906064358060020b810361039857906084356001600160801b0381168103610398579060a43567ffffffffffffffff811681036103985790565b600080fd5b9290916040519260208401946bffffffffffffffffffffffff199060601b168552603484015260e81b605483015260e81b6057820152603a81526060810181811067ffffffffffffffff8211176103f75760405251902090565b634e487b7160e01b600052604160045260246000fd5b9190916001600160801b038080941691160191821161042857565b634e487b7160e01b600052601160045260246000fd5b9060016001600160481b038093160191821161042857565b929190916001600160801b03808216156104da578316156104d3576001600160481b0393848316858216146104cb576104b76104b18694846104a5816104ab6104bd978b6104a58c9b8261040d565b916104e1565b9961040d565b9461043e565b9361043e565b169116019081116104285790565b935050505090565b5091505090565b5050505090565b6001600160801b03809316918215610507576001600160481b0393849116911602041690565b634e487b7160e01b600052601260045260246000fd5b63ffffffff80421161052e57421690565b90565b6001600160481b038092169060028201908382116104285783169083168111156105875703818111610428578116600119018181116104285767ffffffffffffffff8092821611600014610583575090565b1690565b50505060009056fea2646970667358221220ad38d0eac0e40e79752621c119c374ed5b1f15e0807d711b6b0208627a37a25b64736f6c63430008130033",
    "linkReferences": {}
  },
  "methodIdentifiers": {
    "getPos(address,uint256,int24,int24)": "4e4858b0",
    "lastRewards()": "91d23a1a",
    "testAdd(address,uint256,int24,int24,uint128,uint64)": "a1e82f5d",
    "testBurn(address,uint256,int24,int24,uint128,uint64)": "056bb5e1"
  },
  "id": 79
}