{
  "abi": [
    {
      "inputs": [
        {
          "internalType": "address",
          "name": "admin",
          "type": "address"
        }
      ],
      "stateMutability": "nonpayable",
      "type": "constructor"
    },
    {
      "inputs": [],
      "name": "admin_",
      "outputs": [
        {
          "internalType": "address",
          "name": "",
          "type": "address"
        }
      ],
      "stateMutability": "view",
      "type": "function"
    },
    {
      "inputs": [
        {
          "internalType": "address",
          "name": "admin",
          "type": "address"
        }
      ],
      "name": "changeAdmin",
      "outputs": [],
      "stateMutability": "nonpayable",
      "type": "function"
    },
    {
      "inputs": [],
      "name": "locked_",
      "outputs": [
        {
          "internalType": "bool",
          "name": "",
          "type": "bool"
        }
      ],
      "stateMutability": "view",
      "type": "function"
    },
    {
      "inputs": [
        {
          "internalType": "address",
          "name": "",
          "type": "address"
        }
      ],
      "name": "payouts_",
      "outputs": [
        {
          "internalType": "uint256",
          "name": "walletPay_",
          "type": "uint256"
        },
        {
          "internalType": "uint256",
          "name": "exchPay_",
          "type": "uint256"
        }
      ],
      "stateMutability": "view",
      "type": "function"
    },
    {
      "inputs": [
        {
          "internalType": "address",
          "name": "recv",
          "type": "address"
        },
        {
          "internalType": "address[]",
          "name": "tokens",
          "type": "address[]"
        }
      ],
      "name": "setPayout",
      "outputs": [],
      "stateMutability": "nonpayable",
      "type": "function"
    }
  ],
  "bytecode": {
    "object": "0x60803461007457601f61056d38819003918201601f19168301916001600160401b038311848410176100795780849260209460405283398101031261007457516001600160a01b0381169081900361007457600180546001600160a01b0319169190911790556040516104dd90816100908239f35b600080fd5b634e487b7160e01b600052604160045260246000fdfe608060408181526004918236101561001657600080fd5b600092833560e01c91826342168a311461016f575081638f283970146100ed5750806396263b33146100c7578063a4baf7501461009f5763fee80d081461005c57600080fd5b3461009b57602036600319011261009b579081906001600160a01b0361008061041a565b16815280602052206001815491015482519182526020820152f35b5080fd5b503461009b578160031936011261009b5760015490516001600160a01b039091168152602090f35b503461009b578160031936011261009b5760209060ff60015460a01c1690519015158152f35b9190503461016b57602036600319011261016b5761010961041a565b600154926001600160a01b0392838516330361013b57505016906bffffffffffffffffffffffff60a01b161760015580f35b906020606492519162461bcd60e51b8352820152600a60248201526941646d696e204f6e6c7960b01b6044820152fd5b8280fd5b9150913461041657806003193601126104165761018a61041a565b9260249081359267ffffffffffffffff90818511610412573660238601121561041257848301359180831161040e57848601958536918560051b01011161040e5760019788549760ff8960a01c166103e2575060ff60a01b19978816600160a01b178955895b84811061020157895489168a558a80f35b6001600160a01b038061021d61021884898d610435565b61045b565b168c526020908c8252858d2090865191878301838110888211176103cf578f93928f8b8f8f958f95938b948f52815491828a5201548a890152610286575b50505050505050505060001981146102745789016101f0565b634e487b7160e01b8b5260118652868bfd5b83610295610218858585610435565b16610342575050505050508180809251875af13d1561033d573d85811161032b578651906102cc601f8201601f191685018361046f565b81528d833d92013e5b156102ea57505b388b81898982868b8f61025b565b8660188960649388519362461bcd60e51b85528401528201527f457468657265756d207472616e73666572206661696c656400000000000000006044820152fd5b634e487b7160e01b8e5260418952898efd5b6102d5565b6103596102188a9994604497989b99948794610435565b1690518c51988996879563a9059cbb60e01b87528d16908601528401525af180156103c55761038a575b50506102dc565b81813d83116103be575b61039e818361046f565b810103126103ba5751801515036103b6573880610383565b8a80fd5b8b80fd5b503d610394565b86513d8f823e3d90fd5b50634e487b7160e01b8f5260418a528a8ffd5b62461bcd60e51b8152602086820152600987820152681499595b9d1c985b9d60ba1b6044820152606490fd5b8880fd5b8780fd5b8380fd5b600435906001600160a01b038216820361043057565b600080fd5b91908110156104455760051b0190565b634e487b7160e01b600052603260045260246000fd5b356001600160a01b03811681036104305790565b90601f8019910116810190811067ffffffffffffffff82111761049157604052565b634e487b7160e01b600052604160045260246000fdfea2646970667358221220fb8d4c0b8fd4df69656e2d65663193ef9bce5587ee3afc8896753bcc2007f36264736f6c63430008130033",
    "linkReferences": {}
  },
  "methodIdentifiers": {
    "admin_()": "a4baf750",
    "changeAdmin(address)": "8f283970",
    "locked_()": "96263b33",
    "payouts_(address)": "fee80d08",
    "setPayout(address,address[])": "42168a31"
  },
  "id": 57
}