{
  "abi": [
    {
      "inputs": [],
      "name": "accept_",
      "outputs": [
        {
          "internalType": "bool",
          "name": "",
          "type": "bool"
        }
      ],
      "stateMutability": "view",
      "type": "function"
    },
    {
      "inputs": [],
      "name": "args_",
      "outputs": [
        {
          "internalType": "bytes",
          "name": "",
          "type": "bytes"
        }
      ],
      "stateMutability": "view",
      "type": "function"
    },
    {
      "inputs": [
        {
          "internalType": "address",
          "name": "user",
          "type": "address"
        },
        {
          "internalType": "bytes",
          "name": "args",
          "type": "bytes"
        }
      ],
      "name": "checkCrocCond",
      "outputs": [
        {
          "internalType": "bool",
          "name": "",
          "type": "bool"
        }
      ],
      "stateMutability": "nonpayable",
      "type": "function"
    },
    {
      "inputs": [
        {
          "internalType": "address",
          "name": "user",
          "type": "address"
        },
        {
          "internalType": "bytes32",
          "name": "nonceSalt",
          "type": "bytes32"
        },
        {
          "internalType": "uint32",
          "name": "nonce",
          "type": "uint32"
        },
        {
          "internalType": "bytes",
          "name": "args",
          "type": "bytes"
        }
      ],
      "name": "checkCrocNonceSet",
      "outputs": [
        {
          "internalType": "bool",
          "name": "",
          "type": "bool"
        }
      ],
      "stateMutability": "nonpayable",
      "type": "function"
    },
    {
      "inputs": [],
      "name": "nonce_",
      "outputs": [
        {
          "internalType": "uint32",
          "name": "",
          "type": "uint32"
        }
      ],
      "stateMutability": "view",
      "type": "function"
    },
    {
      "inputs": [],
      "name": "salt_",
      "outputs": [
        {
          "internalType": "bytes32",
          "name": "",
          "type": "bytes32"
        }
      ],
      "stateMutability": "view",
      "type": "function"
    },
    {
      "inputs": [
        {
          "internalType": "bool",
          "name": "accept",
          "type": "bool"
        }
      ],
      "name": "setAccept",
      "outputs": [],
      "stateMutability": "nonpayable",
      "type": "function"
    },
    {
      "inputs": [],
      "name": "user_",
      "outputs": [
        {
          "internalType": "address",
          "name": "",
          "type": "address"
        }
      ],
      "stateMutability": "view",
      "type": "function"
    }
  ],
  "bytecode": {
    "object": "0x6080806040523461001657610669908161001c8239f35b600080fdfe608060408181526004918236101561001657600080fd5b600090813560e01c9081634dddebc41461056c575080634f2780531461054d5780634fc3aa7c1461051f57806370311dae1461038357806397c12def1461025d578063c38a1b8c146100c9578063d8d38586146100a05763e57103cc1461007c57600080fd5b3461009d578060031936011261009d575060ff602092541690519015158152f35b80fd5b5090346100c557816003193601126100c55760209063ffffffff600254169051908152f35b5080fd5b5090346100c557806003193601126100c5576100e3610590565b9267ffffffffffffffff6024358181116102595761010490369084016105ab565b85546001600160a01b0319166001600160a01b03909716969096178555949081116102465760039061013682546105d9565b95601f87116101f6575b6020965085601f831160011461018657949560ff95918361017b575b50508160011b9160001990841b1c19161790555b541690519015158152f35b01359050388061015c565b9195601f198716848452600080516020610614833981519152935b8181106101df575091600193918860ff989994106101c7575b505050811b019055610170565b013560001983861b60f8161c191690553880806101ba565b9193896001819287870135815501950192016101a1565b828652600080516020610614833981519152601f830160051c8101976020841061023c575b601f0160051c01965b8781106102315750610140565b868155600101610224565b909750879061021b565b634e487b7160e01b845260418252602484fd5b8480fd5b503461009d578060031936011261009d57815181819260035461027f816105d9565b80855290600190818116908115610365575060011461031d575b5050601f801994859203011682019482861067ffffffffffffffff87111761030a575091849192828552602090818452845191828186015281955b8387106102f25750508394508582601f949501015201168101030190f35b868101820151898801890152958101958895506102d4565b634e487b7160e01b825260419052602490fd5b600384528392506000805160206106148339815191525b82841061034a5750505082016020013880610299565b80546020858901810191909152879650909301928101610334565b9150506020925060ff191682850152151560051b8301013880610299565b5090346100c55760803660031901126100c55761039e610590565b926044359263ffffffff841680940361009d5767ffffffffffffffff60643581811161051b576103d190369085016105ab565b91909660018060a01b03166bffffffffffffffffffffffff60a01b845416178355600195602435875563ffffffff19600254161760025581116105085760039161041b83546105d9565b601f81116104b9575b5060209681601f841160011461046857959660ff969284928361045d575b50501b9160001990841b1c1916179055541690519015158152f35b013592503880610442565b848152601f19841697939260008051602061061483398151915292915b8981106104a457508360ff9899106101c757505050811b019055610170565b82820135845592850192908a01908a01610485565b838252600080516020610614833981519152601f840160051c810191602085106104fe575b601f0160051c01905b8181106104f45750610424565b82815587016104e7565b90915081906104de565b506041602492634e487b7160e01b835252fd5b8280fd5b5082346100c55760203660031901126100c557803580151580910361051b5760ff8019835416911617905580f35b5090346100c557816003193601126100c5576020906001549051908152f35b9050346100c557816003193601126100c55790546001600160a01b03168152602090f35b600435906001600160a01b03821682036105a657565b600080fd5b9181601f840112156105a65782359167ffffffffffffffff83116105a657602083818601950101116105a657565b90600182811c92168015610609575b60208310146105f357565b634e487b7160e01b600052602260045260246000fd5b91607f16916105e856fec2575a0e9e593c00f959f8c92f12db2869c3395a3b0502d05e2516446f71f85ba26469706673582212204283292e24f20fcbb890488f8ef96b4888ac6546e3efd665c85f834d8260383964736f6c63430008130033",
    "linkReferences": {}
  },
  "methodIdentifiers": {
    "accept_()": "e57103cc",
    "args_()": "97c12def",
    "checkCrocCond(address,bytes)": "c38a1b8c",
    "checkCrocNonceSet(address,bytes32,uint32,bytes)": "70311dae",
    "nonce_()": "d8d38586",
    "salt_()": "4f278053",
    "setAccept(bool)": "4fc3aa7c",
    "user_()": "4dddebc4"
  },
  "id": 60
}