{
  "abi": [
    {
      "inputs": [],
      "stateMutability": "nonpayable",
      "type": "constructor"
    },
    {
      "anonymous": false,
      "inputs": [
        {
          "indexed": true,
          "internalType": "bytes32",
          "name": "pool",
          "type": "bytes32"
        },
        {
          "indexed": true,
          "internalType": "int24",
          "name": "tick",
          "type": "int24"
        },
        {
          "indexed": false,
          "internalType": "bool",
          "name": "isBid",
          "type": "bool"
        },
        {
          "indexed": false,
          "internalType": "uint32",
          "name": "pivotTime",
          "type": "uint32"
        },
        {
          "indexed": false,
          "internalType": "uint64",
          "name": "feeMileage",
          "type": "uint64"
        },
        {
          "indexed": false,
          "internalType": "uint160",
          "name": "commitEntropy",
          "type": "uint160"
        }
      ],
      "name": "CrocKnockoutCross",
      "type": "event"
    },
    {
      "inputs": [],
      "name": "acceptCrocDex",
      "outputs": [
        {
          "internalType": "bool",
          "name": "",
          "type": "bool"
        }
      ],
      "stateMutability": "pure",
      "type": "function"
    },
    {
      "inputs": [
        {
          "internalType": "uint16",
          "name": "callpath",
          "type": "uint16"
        },
        {
          "internalType": "bytes",
          "name": "cmd",
          "type": "bytes"
        },
        {
          "internalType": "bool",
          "name": "sudo",
          "type": "bool"
        }
      ],
      "name": "protocolCmd",
      "outputs": [],
      "stateMutability": "payable",
      "type": "function"
    },
    {
      "inputs": [
        {
          "internalType": "uint256",
          "name": "slot",
          "type": "uint256"
        }
      ],
      "name": "readSlot",
      "outputs": [
        {
          "internalType": "uint256",
          "name": "data",
          "type": "uint256"
        }
      ],
      "stateMutability": "view",
      "type": "function"
    },
    {
      "inputs": [
        {
          "internalType": "address",
          "name": "base",
          "type": "address"
        },
        {
          "internalType": "address",
          "name": "quote",
          "type": "address"
        },
        {
          "internalType": "uint256",
          "name": "poolIdx",
          "type": "uint256"
        },
        {
          "internalType": "bool",
          "name": "isBuy",
          "type": "bool"
        },
        {
          "internalType": "bool",
          "name": "inBaseQty",
          "type": "bool"
        },
        {
          "internalType": "uint128",
          "name": "qty",
          "type": "uint128"
        },
        {
          "internalType": "uint16",
          "name": "tip",
          "type": "uint16"
        },
        {
          "internalType": "uint128",
          "name": "limitPrice",
          "type": "uint128"
        },
        {
          "internalType": "uint128",
          "name": "minOut",
          "type": "uint128"
        },
        {
          "internalType": "uint8",
          "name": "reserveFlags",
          "type": "uint8"
        }
      ],
      "name": "swap",
      "outputs": [
        {
          "internalType": "int128",
          "name": "baseQuote",
          "type": "int128"
        },
        {
          "internalType": "int128",
          "name": "quoteFlow",
          "type": "int128"
        }
      ],
      "stateMutability": "payable",
      "type": "function"
    },
    {
      "inputs": [
        {
          "internalType": "uint16",
          "name": "callpath",
          "type": "uint16"
        },
        {
          "internalType": "bytes",
          "name": "cmd",
          "type": "bytes"
        }
      ],
      "name": "userCmd",
      "outputs": [
        {
          "internalType": "bytes",
          "name": "",
          "type": "bytes"
        }
      ],
      "stateMutability": "payable",
      "type": "function"
    },
    {
      "inputs": [
        {
          "internalType": "uint16",
          "name": "callpath",
          "type": "uint16"
        },
        {
          "internalType": "bytes",
          "name": "cmd",
          "type": "bytes"
        },
        {
          "internalType": "bytes",
          "name": "conds",
          "type": "bytes"
        },
        {
          "internalType": "bytes",
          "name": "relayerTip",
          "type": "bytes"
        },
        {
          "internalType": "bytes",
          "name": "signature",
          "type": "bytes"
        }
      ],
      "name": "userCmdRelayer",
      "outputs": [
        {
          "internalType": "bytes",
          "name": "output",
          "type": "bytes"
        }
      ],
      "stateMutability": "payable",
      "type": "function"
    },
    {
      "inputs": [
        {
          "internalType": "uint16",
          "name": "callpath",
          "type": "uint16"
        },
        {
          "internalType": "bytes",
          "name": "cmd",
          "type": "bytes"
        },
        {
          "internalType": "address",
          "name": "client",
          "type": "address"
        }
      ],
      "name": "userCmdRouter",
      "outputs": [
        {
          "internalType": "bytes",
          "name": "",
          "type": "bytes"
        }
      ],
      "stateMutability": "payable",
      "type": "function"
    }
  ],
  "bytecode": {
    "object": "0x608060409080825234620003165762010011805460ff60e01b1916600160e71b179055632210724360e11b8152326004808301919091526000916024919060208184818773ecf044c5b4b867cfda001101c617ecd347095b445af180156200030c57620002af575b506201000180546001600160a01b03199081163317909155835460ff60b01b1916600160b01b17845584519092906001600160401b039061047c80820190838211838310176200029d579082916200478d8339039086f092831562000293576001805486166001600160a01b039586161790558651613dce808201908482118383101762000281579082916201405f8339039087f080156200027757841685600354161760035586516132668082019082821085831117620002815790829162004c098339039087f0801562000277578416858254161781558651613556808201908282108583111762000281579082916200b77d8339039087f08015620002775784168560055416176005558651614c93808201908282108583111762000281579082916200ecd38339039087f0801562000277578416856006541617600655865161070a8082019082821085831117620002815790829162007e6f8339039087f08015620002775784610dad911686825416179055865161320480820190828210858311176200028157908291620085798339039087f08015620002775784168560085416176008558651926106f991828501938585109085111762000266575050908291620139668339039084f09283156200025b57506127109216908254161790555161447190816200031c8239f35b8451903d90823e3d90fd5b634e487b7160e01b88526041905286fd5b87513d88823e3d90fd5b634e487b7160e01b8952604184528589fd5b86513d87823e3d90fd5b634e487b7160e01b8852604186528488fd5b60203d811162000304575b601f8101601f191682016001600160401b03811183821017620002f2579060209291875281010312620002ee573862000067565b8280fd5b634e487b7160e01b8652604184528486fd5b503d620002ba565b85513d86823e3d90fd5b600080fdfe6080604052600436101561001257600080fd5b60003560e01c806302ce8af314610087578063087190701461008257806313fd34f41461007d5780633d719cd9146100785780637c5196251461007357806390b33ce51461006e5763a15112f91461006957600080fd5b6104c5565b610380565b610364565b6102c0565b6101da565b61012c565b346100a55760203660031901126100a5576004355460805260206080f35b600080fd5b61ffff8116036100a557565b9181601f840112156100a5578235916001600160401b0383116100a557602083818601950101116100a557565b6020808252825181830181905290939260005b82811061011857505060409293506000838284010152601f8019910116010190565b8181018601518482016040015285016100f6565b60a03660031901126100a557600435610144816100aa565b6001600160401b036024358181116100a5576101649036906004016100b6565b926044358381116100a55761017d9036906004016100b6565b906064358581116100a5576101969036906004016100b6565b9290916084359687116100a5576101cc976101b86101c09836906004016100b6565b979096610922565b604051918291826100e3565b0390f35b801515036100a557565b60603660031901126100a5576004356101f2816100aa565b6024356001600160401b0381116100a5576102119036906004016100b6565b906044359261021f846101d0565b6201000154336001600160a01b03918216149081610283575b50156100a557600080546001600160a81b0319163360ff60a01b19161794151560a01b60ff60a01b169490941790935561027192610795565b600080546001600160b01b0319169055005b9050600054161538610238565b6001600160a01b038116036100a557565b6001600160801b038116036100a557565b359060ff821682036100a557565b6101403660031901126100a5576004356102d981610290565b602435906102e682610290565b6064356102f2816101d0565b6084356102fe816101d0565b60a43561030a816102a1565b60c43590610317826100aa565b60e43592610324846102a1565b6101043594610332866102a1565b610124359660ff881688036100a55761034e9860443591610554565b60408051600f93840b81529190920b6020820152f35b346100a55760003660031901126100a557602060405160018152f35b60603660031901126100a557600435610398816100aa565b6024356001600160401b0381116100a5576101cc916103be6104709236906004016100b6565b9161046b6044356103ce81610290565b61044e6040516020810160018060a01b0391828516825233604082015261ffff871660608201526060815261040281610836565b519020600052620100106020526040600020610426815463ffffffff9060a01c1690565b9063ffffffff808316908110610486575b50506000546001600160a01b03169050161561054d565b60018060a01b03166001600160601b0360a01b6000541617600055565b611c2c565b60008054600161ff0160a01b03191690556101c0565b6104bd9261049861049d92151561054d565b610ee4565b815463ffffffff60a01b191660a09190911b63ffffffff60a01b16179055565b388080610437565b60403660031901126100a5576004356104dd816100aa565b6024356001600160401b0381116100a5576104fc9036906004016100b6565b90600092835460018060a01b038116610549576001600160a01b031916331784556101cc939261052d929091611c2c565b8154600161ff0160a01b031916909155604051918291826100e3565b8480fd5b156100a557565b949699989190959293979960005460018060a01b03908181166100a5576001600160a01b0319163317600081905560b01c60ff16156100a557610595610d1d565b5061059e610d1d565b506105a7610d1d565b5080881690871610156100a5578789866106af6107146107649c84848e8e6107199b61075f9e6106d6604051602081019061061381610605878a8a8760409194939294606082019560018060a01b0380921683521660208201520152565b03601f1981018352826108a2565b51902080600052620100096020526106b56040600020946040519c8d9661063988610816565b5460ff811688526106a860ff60c061ffff9a8b8560081c16602082015261066b838660181c16604083019060ff169052565b61ffff602086901c8d1616606082015260ff603086901c841616608082015260ff603886901c84161660a0820152019260401c16829060ff169052565b5160ff1690565b90611ae0565b906106be6108c3565b9b8c5260208c01526001600160a01b031660408b0152565b6106e76106e28a611af7565b611aaf565b6020895101916107036106fc845161ffff1690565b61ffff1690565b90821611610788575b50508661196f565b610c21565b926107406107288551600f0b90565b9860208601926107398451600f0b90565b9c87610b27565b5061075761074f8551600f0b90565b9151600f0b90565b908686611cef565b611b3a565b600080546001600160a01b031916905591905b6000805460ff60a81b19169055565b565b61ffff169052388061070c565b61079e81611c7d565b620100008110156107fb576001015460405163016ce03360e71b602082019081526107f89460009485946001600160a01b031693916107e69183916106059160248401611bd4565b51915af46107f2611bfc565b90611cd9565b50565b611bbe565b634e487b7160e01b600052604160045260246000fd5b60e081019081106001600160401b0382111761083157604052565b610800565b608081019081106001600160401b0382111761083157604052565b60a081019081106001600160401b0382111761083157604052565b606081019081106001600160401b0382111761083157604052565b60c081019081106001600160401b0382111761083157604052565b90601f801991011681019081106001600160401b0382111761083157604052565b604051906107868261086c565b6001600160401b03811161083157601f01601f191660200190565b9291926108f7826108d0565b9161090560405193846108a2565b8294818452818301116100a5578281602093846000960137010152565b929790939691949596604080519361093985610836565b61ffff8616855261095f61094e368a8a6108eb565b9b6020948588019d8e5236916108eb565b94828101958652610971368c8c6108eb565b6060820181905260008054909d6001600160a01b03979092918816610ace578460609181010312610aca57928d9492610a7c92879561ffff6109b2856102b2565b9351169151878151910120908b518881519101209088815191012090875192898401947fb7268d49bb01bc5e690da8069036b0caa17476a23af017f9840ccc0fc5ca01b78652898501526060840152608083015260a082015260a08152610a1881610887565b519020610605610a4f610a29610e4e565b9287519283918a83019586909160429261190160f01b8352600283015260228201520190565b519020845190815260ff909116602082015293810135604085015290910135606083015281906080820190565b838052039060015afa15610ac55761044e610aaa92610aa3610aaf9a51938416151561054d565b5182610d92565b610ad2565b600080546001600160a01b031916905590610777565b610e42565b8d80fd5b8e80fd5b610aef926107869492610ae792979697611c2c565b9436916108eb565b61103d565b634e487b7160e01b600052601160045260246000fd5b600f0b60016001607f1b03198114610b225760000390565b610af4565b9293929091908415610bc75760200151600f0b905b8194151590151514600014610bb557610b606001600160801b038316600f0b610b0a565b600f0b90600f0b1390811591610ba3575b5015610b7957565b60405162461bcd60e51b815260206004820152600260248201526114d360f21b6044820152606490fd5b6001600160801b039150161538610b71565b6001600160801b038216600f0b610b60565b51600f0b90610b3c565b60405190610bde82610836565b60006060838281528260208201528260408201520152565b60405190610c0382610851565b60006080838281528260208201528260408201528260608201520152565b939192610d1a93610c30610bd1565b50610c39610bf6565b9215158352151560208301526001600160801b039283809216606084015216608082015260006040820152610d14610c6f610bd1565b9460208101928351610c7f610bf6565b506000526201000f602052610d0d604060002095610cea600160405198610ca58a610851565b80548481168b5260801c60208b0152015482811660408a0152610ce06001600160401b038260801c1660608b01906001600160401b03169052565b60c01c6080890152565b610d08610cfe88516001600160801b031690565b918216151561054d565b611267565b8588612218565b51611896565b90565b60405190606082018281106001600160401b038211176108315780604052604083610d4783610816565b6000928381528360808301528360a08301528360c08301528360e0830152836101008301528361012083015281528260208201520152565b519065ffffffffffff821682036100a557565b60a0828051810103126100a557610dab60208301610d7f565b610db760408401610d7f565b9160608401519160808501519363ffffffff851685036100a557610e12610e299260a0610786980151610de981610290565b6001600160a01b03169265ffffffffffff91610e0990831642111561054d565b1642101561054d565b8015908115610e38575b8115610e2e575b5061054d565b610ef7565b9050321438610e23565b3381149150610e1c565b6040513d6000823e3d90fd5b60405160208101907f8b73c3c69bb8fe3d512ecc4cf759cc79239f7b179b0ffacaa9a75d522b39400f82527f33dd648f3c5d475752f4dfbf3ab10305e18604abf30961145f1889ec2e86756360408201527fe6bbd6277e1bf288eed5e8d1780f9a50b239e86b153736bceebccf4ea79d90b360608201524660808201523060a082015260a08152610ede81610887565b51902090565b63ffffffff168015610b22576000190190565b604080516001600160a01b0390921660208301908152828201939093528152610f1f8161086c565b5190206000526201001060205260406000209081549063ffffffff80808460801c16921682036100a5578114610b225763ffffffff60801b1990911660019190910160801b63ffffffff60801b16179055565b908160609103126100a5578051610f8881610290565b9160406020830151610f99816102a1565b920151610d1a81610290565b9190916001600160801b0380809416911602918216918203610b2257565b634e487b7160e01b600052601260045260246000fd5b906001600160801b03809216600003918211610b2257565b6001600160801b039182169082160391908211610b2257565b9060016001600160801b0380931601918211610b2257565b9190916001600160801b0380809416911601918211610b2257565b80519081156111eb57602080611057938301019101610f72565b6001600160a01b039283169282916110709082166111ef565b9061108a856110848160005494851661123e565b9361123e565b906001600160801b0380809516146111b8575b611173839261116161110c6110f560ff611147966110eb8c8c806110e06110d361118a9f60005262010010602052604060002090565b546001600160801b031690565b92169116101561054d565b60c01c168a610fa5565b60081c6effffffffffffffffffffffffffffff1690565b9761114761113061111d8b84610ff1565b9760005262010010602052604060002090565b9161114283546001600160801b031690565b610ff1565b6001600160801b03166001600160801b0319825416179055565b60005262010010602052604060002090565b9161118583546001600160801b031690565b611022565b8116611194575050565b6111476111736107869360018060a01b03166000526201000c602052604060002090565b919350828085926111d58460005262010010602052604060002090565b546001600160801b03169650929391505061109d565b5050565b6001600160a01b03811661010081036112085750503390565b610200146112135790565b503290565b604051602081019160018060a01b031682526000604082015260408152610ede8161086c565b604080516001600160a01b039283166020820190815293909216828201528152610ede8161086c565b6001600160801b03600160401b600160c01b038183169262010002841015806114f1575b6112949061054d565b60401b168091811160071b9181831c926001600160401b03841160061b93841c9363ffffffff851160051b94851c9461ffff861160041b95861c60ff9687821160031b91821c92600f841160021b93841c94600160038711811b96871c1196171717171717179160808310156000146114e55750607e1982011c5b8002607f928392828493841c81841c1c800280851c81851c1c800280861c81861c1c800280871c81871c1c80029081881c82881c1c80029283891c84891c1c800294858a1c868a1c1c800296878b1c888b1c1c800298898c1c8a8c1c1c80029a8b8d1c8c821c1c8002809d1c8d821c1c8002809e81901c90821c1c80029e8f80911c911c1c800260cd1c6604000000000000169d60cc1c6608000000000000169c60cb1c6610000000000000169b60ca1c6620000000000000169a60c91c6640000000000000169960c81c6680000000000000169860c71c670100000000000000169760c61c670200000000000000169660c51c670400000000000000169560c41c670800000000000000169460c31c671000000000000000169360c21c672000000000000000169260c11c674000000000000000169160c01c6780000000000000001690607f190160401b1717171717171717171717171717693627a301d71055774c85026f028f6481ab7f045a5af012a19d003aa919810160801d60020b906fdb2df09e81959a81455e260799a0632f0160801d60020b916000908383146000146114bd575050905090565b6114d56114c98561151c565b6001600160801b031690565b1190506114e0575090565b905090565b905081607f031b61130f565b506f0ffff5433e2b3d8211706e6102aa9472841061128b565b8015611517576000190490565b610fc3565b6001600160801b039060020b620a276d1981121580611889575b61153f9061054d565b60008112156118835780600003905b6001821615611871576001600160881b036ffffcb933bd6fad37aa2d162d1a5940015b169160028116611855575b60048116611839575b6008811661181d575b60108116611801575b602081166117e5575b604081166117c9575b6080908181166117ae575b6101008116611793575b6102008116611778575b610400811661175d575b6108008116611742575b6110008116611727575b612000811661170c575b61400081166116f1575b61800081166116d6575b6201000081166116bb575b6202000081166116a1575b620400008116611687575b620800001661166c575b5060001261165e575b6001600160401b0381166116555760ff60005b169060401c011690565b60ff600161164b565b6116679061150a565b611638565b6b048a170391f7dc42444e8fa26000929302901c919061162f565b6d2216e584f5fa1ea926041bedfe98909302811c92611625565b926e5d6af8dedb81196699c329225ee60402811c9261161a565b926f09aa508b5b7a84e1c677de54f3e99bc902811c9261160f565b926f31be135f97d08fd981231505542fcfa602811c92611604565b926f70d869a156d2a1b890bb3df62baf32f702811c926115fa565b926fa9f746462d870fdf8a65dc1f90e061e502811c926115f0565b926fd097f3bdfd2022b8845ad8f792aa582502811c926115e6565b926fe7159475a2c29b7443b29c7fa6e889d902811c926115dc565b926ff3392b0822b70005940c7a398e4b70f302811c926115d2565b926ff987a7253ac413176f2b074cf7815e5402811c926115c8565b926ffcbe86c7900a88aedcffc83b479aa3a402811c926115be565b926ffe5dee046a99a2a811c461f1969c305302811c926115b4565b916fff2ea16466c96a3843ec78b326b528610260801c916115a9565b916fff973b41fa98c081472e6896dfb254c00260801c916115a0565b916fffcb9843d60f6159c9db58835c9266440260801c91611597565b916fffe5caca7e10e4e61c3624eaa0941cd00260801c9161158e565b916ffff2e50f5f656932ef12357cf3c7fdcc0260801c91611585565b916ffff97272373d413259a46990580e213a0260801c9161157c565b6001600160881b03600160801b611571565b8061154e565b50620cb14a811315611536565b90610786916000526201000f6020526001600160401b03608060406000209261192460016001600160801b03956118e68785511682906001600160801b03166001600160801b0319825416179055565b60208401518154881690861b6001600160801b03191617815560408401519101951685906001600160801b03166001600160801b0319825416179055565b60608101518454918301516001600160c01b0385851b1990931691851690931b1716911660c01b6001600160c01b031916179055565b908160209103126100a55751610d1a816100aa565b60408101516001600160a01b039691959394929390871680611996575b5050505050505050565b6020956001600160801b038894600094610104978c61ffff8c828a54169a51015116956040519e8f9c8d9b6309cad7a760e31b8d5260048d01523360248d01521660448b015216606489015215156084880152151560a48701521660c485015260e48401525af1908115610ac557611a1692600092611a23575b50611a53565b388080808080808061198c565b611a4591925060203d8111611a4c575b611a3d81836108a2565b81019061195a565b9038611a10565b503d611a33565b9061ffff8091168015611a86576000190191818311610b22575160200180519092821690821603818111610b2257169052565b60405162461bcd60e51b81526020600482015260016024820152602d60f91b6044820152606490fd5b15611ab657565b60405162461bcd60e51b8152602060048201526002602482015261504960f01b6044820152606490fd5b9060018060009216146000146114e0575060601c90565b600160ff8251511611611b0f57515160ff1660011490565b60405162461bcd60e51b815260206004820152600360248201526249505360e81b6044820152606490fd5b9060606001600160801b039283928360408301511680611b8f575b50500151169182611b6557505050565b6001600160a01b031660009081526201000c60205260409020610786926111479192835416611022565b611bb79160018060a01b03166000526201000c60205261114760406000209186835416611022565b3880611b55565b634e487b7160e01b600052603260045260246000fd5b90918060409360208452816020850152848401376000828201840152601f01601f1916010190565b3d15611c27573d90611c0d826108d0565b91611c1b60405193846108a2565b82523d6000602084013e565b606090565b611c3581611c7d565b620100008110156107fb5760010154604051631f2db8f160e31b60208201908152610d1a9460009485946001600160a01b031693916107e69183916106059160248401611bd4565b620100008110156107fb5760018101546001600160a01b0316156100a55760ff60005460b81c1615908115611cc9575b8115611cbc575b50156100a557565b61ffff9150161538611cb4565b61ffff811661270f149150611cad565b15611ce15790565b80519081156100a557602001fd5b6000546001600160a01b0390811694929391908116611d9a57506000549460ff8660a81c16611d705761078695600292611d2834611db3565b60ff60a81b19909216600160a81b17600055600f81900b15611d6057611d5691600184161515918880611ece565b1615159280611dc7565b50611d6b9086612190565b611d56565b60405162461bcd60e51b8152602060048201526002602482015261445360f01b6044820152606490fd5b94611d6b60029261078697600184161515918880611dc7565b906001600160801b0382169182036100a557565b909392916001600160a01b03808416156100a55781600f0b60008113600014611e0057505061078694506001600160801b031690611ff2565b600091935094939412611e15575b5050505050565b611e1e90610b0a565b9115611e43575091611e39926001600160801b0316906121b7565b3880808080611e0e565b91611e9a93600080946001600160801b03829560405192602084019563a9059cbb60e01b875216602484015216604482015260448152611e8281610836565b51925af1611e8e611bfc565b81611e9f575b50612091565b611e39565b8051801592508215611eb4575b505038611e94565b611ec7925060208091830101910161207c565b3880611eac565b9360009291600f83900b84811315611f745750506001600160801b0391821690600014611f6857604083611f0187611218565b8152620100106020522090815483811690828211600014611f4957505090611147611f2f9284835416610ff1565b811615611f3f57610786926120c2565b5061078691612190565b6001600160801b031916909255919250611f6291610ff1565b90611f2f565b915050610786926120c2565b84965093909392919212611f89575050505050565b611f9290610b0a565b6001600160801b03949085169115611fd35793611147611fce926040611e3997611fbb87611218565b8152620100106020522092835416611022565b612190565b809392611e9a95611fe683958495611022565b16905af1611e94611bfc565b921561207357600090612005838561123e565b8252620100106020526040822080546001600160801b039290838116908483168211156120545750509061114761203f9284835416610ff1565b81161561204f5761078692612114565b505050565b6001600160801b03191690925591925061206d91610ff1565b9061203f565b61078692612114565b908160209103126100a55751610d1a816101d0565b1561209857565b60405162461bcd60e51b81526020600482015260026024820152612a2360f11b6044820152606490fd5b90916001600160801b03808416908216106120ea57610786926120e491610ff1565b90612190565b60405162461bcd60e51b8152602060048201526002602482015261454360f01b6044820152606490fd5b90916001600160a01b03811661213f57506001600160801b0382166120ea576120e461078692610fd9565b6040516323b872dd60e01b602082019081526001600160a01b0390931660248201523060448201526001600160801b039093166064840152610786926000928392918390611e828160848101610605565b906001600160801b0316806121a3575050565b600080808093610786955af1611e94611bfc565b610786926121c49161123e565b600052620100106020526111476040600020916001600160801b03835416611022565b156121ee57565b60405162461bcd60e51b815260206004820152600260248201526114d160f21b6044820152606490fd5b83519192911561237b5761225e61223684516001600160801b031690565b6001600160801b036122556114c960808901516001600160801b031690565b911611156121e7565b612272610d0884516001600160801b031690565b9360015b6122b157505050610d0861229191516001600160801b031690565b908160020b8160020b036122a457505050565b6020610786930151613162565b60208601846122cc8583516122c68651151590565b906132b7565b91909283926122df858c51888a876123b7565b6122e98684613e0a565b948591826122fd575b505050505050612276565b61232a575b50612310575b8381806122f2565b612321939650908491519286613e5e565b92388581612308565b93505061234381518461233d8851151590565b91613671565b9260029084820b910b03612359575b8338612302565b92505061236a81895185878a6123b7565b856123758482613e0a565b92612352565b61225e61238f84516001600160801b031690565b6001600160801b036123ae6114c960808901516001600160801b031690565b911610156121e7565b9093916001600160801b03928360808301511682511515906123d892612ba3565b906060810193808551169581602084019781895115159381898680602085015161ffff16946040015160ff16968c85855116868216119261241992866126b6565b846124238561270e565b94511661242f94613084565b1602620f4240900491820260081c1693849116031691612450828488612c84565b61245992613106565b90875161246590151590565b92612470938a6124e7565b845115159051151584516001600160801b03169161248d946125a4565b6001600160801b0316909252909151151561078693926124ae919284612578565b156124cd576060016001600160801b039081815116918211610b225752565b6040016001600160801b039081815116918211610b225752565b926124f3919284612578565b1561251657606001906125116001600160801b039182845116611022565b169052565b604001906125116001600160801b039182845116611022565b600f0b6004019060016001607f1b03821360016001607f1b0319831217610b2257565b90600f0b90600f0b019060016001607f1b0319821260016001607f1b03831317610b2257565b60209061258c61259d938251600f0b612552565b600f0b815201918251600f0b612552565b600f0b9052565b9392909491946125b6848284886126b6565b6001600160801b039083821681831610156125eb5750509084956125de928561078697612887565b8095929594919596612b4c565b8261263d8884999894968b612635818a99612644986126098761270e565b968c61261b8585858c85875116612986565b988991856126aa5761262f9351169061277a565b90612aa8565b94909461252f565b948b6128ed565b94919790968597989960001461269f575116911611915b82612694575b50501561266a57565b60405162461bcd60e51b8152602060048201526002602482015261292360f11b6044820152606490fd5b161590503880612661565b51169116109161265b565b61262f935116906127b2565b919290926126c38361270e565b90156126f5576001600160801b036126dd9351169061277a565b6001600160801b0382811690821611156114e0575090565b6001600160801b03612709935116906127b2565b6126dd565b6001600160801b0380806040612738826020870151166001600160401b036060880151169061274a565b94015116830116911681106100a55790565b6001600160401b03916001600160801b0392839116600160301b0191160260301c818111612776571690565b5090565b9091610d1a926001600160801b038281939282809416838216116000146127aa5703165b1691160260401c611db3565b90031661279e565b916001600160801b0382811690821611156127d057610d1a92612805565b90610d1a92612805565b9062093a8091828102928184041490151715610b2257565b81810292918115918404141715610b2257565b61283a909291926128286128198486610ff1565b936001600160c01b0392612aeb565b166001600160801b03809316906127f2565b9116801561151757610d1a9104611db3565b90610d1a9260001461286e576001600160801b0380911691160260401c611db3565b6001600160c01b03916128819190612aeb565b16611db3565b92936128e1946128d5936128db6128ce83836128a28a61270e565b6128c2896001600160801b038d51166128bc82828661277a565b936127b2565b82156128e85790612aa8565b969061252f565b9561252f565b956128ed565b9192909190565b612aa8565b92916128ff909794969197888761294c565b6001600160801b0392908382168482161061293d5750506000945b871561293757805b971561293057505b94169052565b905061292a565b81612922565b61294691610ff1565b9461291a565b91151590151514600014612978575b600081600f0b12612972576001600160801b031690565b50600090565b61298190610b0a565b61295b565b9392156129dd57612996936129eb565b6001600160801b0381166f0ffff5433e2b3d8211706e6102aa94728110156129c757620100028091106114e0575090565b50506f0ffff5433e2b3d8211706e6102aa947190565b6129e693612a5c565b612996565b91906001600160801b039182821615612a545790612a0891612aeb565b6001600160c01b0381168210612a4d5781169215612a2b575090610d1a91611022565b8116821015612a4657612a40610d1a9261100a565b90610ff1565b5050600090565b5091505090565b505091505090565b90612a6b612a73949392612b0f565b9215926129eb565b6001600160801b03811615612a9357612a8e610d1a91612b0f565b61100a565b506f0ffff5433e2b3d8211706e6102aa947290565b919092151590151514600014612ad657612acd612ac7612ad292612b31565b92612b31565b610b0a565b9091565b612ae5612acd612ad292612b31565b91612b31565b906001600160801b03169081156115175760401b600160401b600160c01b03160490565b6001600160801b03809116801561151757600160801b048181116100a5571690565b6001600160801b03166001607f1b8110156100a557600f0b90565b516001600160801b0392831690831614919082612b97575b505015612b6d57565b60405162461bcd60e51b8152602060048201526002602482015261052560f41b6044820152606490fd5b16151590503880612b64565b90612bae9291612bf9565b6001600160801b03811662010002808210612bf357506f0ffff5433e2b3d8211706e6102aa94721115612bde5790565b506f0ffff5433e2b3d8211706e6102aa947190565b91505090565b90918160020b620a276d19811390811591612c76575b5015612c1a57505090565b15612c5457612c2b612c3b9161151c565b600019016001600160801b031690565b906001600160801b0380821690831610156114e0575090565b612c5d9061151c565b906001600160801b0380821690831611156114e0575090565b620cb14a9150121538612c0f565b9091612c8f8261270e565b926001600160801b039182851615611e0e571593612cb185848651168361302b565b60011b917001fffffffffffffffffffffffffffffffe6ffffffffffffffffffffffffffffffffe841693168303610b22578584612d0f94808285161115600014612e27575050612d0a91506000925b858751169061284c565b612e33565b906001600160401b0393848316612d27575050505050565b612d35908383865116612f8e565b1682526060820183612d4a8382845116612f5d565b16809152600160301b0190811561151757611e3993612e1a926dffffffffffffffff00000000000060209360301b16041692612e07612ddc612dd5612dd0612dc488612da060408801516001600160801b031690565b6001600160801b036001600160401b036001600160901b03931691160260301c1690565b6001600160901b031690565b611db3565b8096612fe6565b612dfa6080840191612df583516001600160401b031690565b612f42565b6001600160401b03169052565b019161118583516001600160801b031690565b6001600160801b03169052565b612d0a93031692612d00565b6001600160801b038082168015918215612ec5575b5050612a4657612e5b612e609282611022565b612ed1565b906001600160401b0380831692600160301b93848110156100a55780677fffffffffffffff910260331c9160011c16031691821015612e9b57565b60405162461bcd60e51b815260206004820152600260248201526124a360f11b6044820152606490fd5b84161190503880612e48565b906001600160801b03906001600160d01b038284169081109081612f35575b50156100a55716801561151757600160301b9160301b6601000000000000600160b01b03160465ffffffffffff190181811015612776576001600160401b0391501690565b9050828216111538612ef0565b9190916001600160401b0380809416911601918211610b2257565b6001600160401b0391908216600160301b908101918316010260301c65ffffffffffff190181811015612776571690565b91906001600160401b0316600160301b0190600014612fc057610d1a916001600160801b03160260301c600101611db3565b8015611517576601000000000000600160b01b036001600160801b039260301b16041690565b906001600160801b0380821680156130225761300f613015916001600160401b038096166127f2565b9261100a565b1690811561151757041690565b50505050600090565b911561304d575060401c6001600160401b03166001016001600160801b031690565b610d1a9160019161307b61306e60001983016001600160801b031684612aeb565b91848060c01b0393612aeb565b90031601611db3565b9291936001600160801b03948585169384156130fa57866130b68482951596836130af89838d61284c565b169961284c565b169315901515146000146130f1571601905b81156130eb57610d1a9350800204818111156130e45703611db3565b9003611db3565b50505090565b169003906130c8565b50505050505050600090565b60009391929083016001600160801b03169084901561312d575061312990612b31565b9190565b92935061313990612b31565b9290565b91908203918211610b2257565b80548210156107fb5760005260206000200190600090565b909291600091808352620100189485602052604092613190828587209060020b600052602052604060002090565b549363ffffffff946131bb864216948689528a6020528389209060020b600052602052604060002090565b906000198101908111610b22576131d685916131f99361314a565b509067ffffffff0000000082549160201b169067ffffffff000000001916179055565b805197818901938985106001600160401b038611176108315761323b94835289526020890194878652875260205285209060020b600052602052604060002090565b8054600160401b811015610831576132589160018201815561314a565b9390936132a357506132818261078695965116849063ffffffff1663ffffffff19825416179055565b51825467ffffffff000000001916911660201b67ffffffff0000000016179055565b634e487b7160e01b81526004819052602490fd5b9160020b918260081d918260010b916040516132ea81610605866020830195869091602292825260f01b60208201520190565b519020936000948552620100076020526133328261ffff6040882054938289816000146133ac575061332960ff91826101008160015b169507166133bd565b160116836133cf565b9091831561336a5750945b508415613352575061334f92506135e2565b91565b905060ff91501660020b9060081b60020b0160020b91565b86811515918261339c575b5081613390575b501561338b5750845b9461333d565b613385565b60ff915016153861337c565b6133a691506134f2565b38613375565b60ff91826101008161332994613320565b90156133c65790565b60ff9081031690565b6000939161ffff9084156134e6571690811c901b915b821592831591826133f557505050565b92945090916000901561340d575061334f91506134f2565b9061341981929361054d565b600160801b8110156134d7575b5080600160401b60029210156134c8575b6401000000008110156134b9575b620100008110156134aa575b61010081101561349b575b601081101561348c575b600481101561347e575b1061334f5760010160ff1691565b91810160ff1691811c613470565b600492830160ff16921c613466565b600892830160ff16921c61345c565b601092830160ff16921c613451565b602092830160ff16921c613445565b604092830160ff16921c613437565b60809250821c90506002613426565b1690811b901c916133e5565b906134fe82151561054d565b60ff6001600160801b038316156135d85750607f5b6001600160401b038316156135ce57603f190160ff165b63ffffffff8316156135c457601f190160ff165b61ffff8316156135ba57600f190160ff165b60ff8316156135b0576007190160ff165b600f8316156135a6576003190160ff165b600383161561359a576001190160ff16916001905b1661358e57565b60001990910160ff1690565b9160019060021c613587565b9160041c91613572565b9160081c91613561565b9160101c91613550565b9160201c9161353e565b9160401c9161352a565b9160801c91613513565b90811561365257811561364857617fff905b60010b60009160010b8114600014613611575050610d1a9061365d565b60010191617fff8313617fff19841217610b2257613640575060ff805b1660020b9060081b60020b0160020b90565b60ff9061362e565b617fff19906135f4565b905060081b60020b90565b1561366957627fffff90565b627fffff1990565b91908180613742575b61373857811580613728575b61371d5781156136fe575b60020b60ff610100816080601085901d600081810b9081126136f4575082160116925b60081d60010b07166136c883828487613985565b156136ec5750826136da918386613d0e565b939093156130eb57610d1a9350613d80565b935050505090565b90500116926136b4565b60020b60001901627fffff198112627fffff8213171561369157610af4565b505050627fffff1990565b50627fffff198160020b14613686565b505050627fffff90565b50627fffff8160020b1461367a565b9061375b90613b31565b9060405161379281610605602082019460ff881660010b8760081b60010b0160010b90869091602292825260f01b60208201520190565b5190206000526201000760205260406000205460009080159081156137e9575b506137de5760ff61ff00911660020b9260081b1660020b9060101b60020b0160020b0160020b90600090565b505050600090600190565b6137f49192506134f2565b90386137b2565b92919061380790613b31565b604051602081019061383f8161060560ff9889881660010b8760081b60010b0160010b90869091602292825260f01b60208201520190565b51902093600094855262010007602052604085205485908015908382159182613897575b50505061388e579061ff00911660020b9260081b1660020b9060101b60020b0160020b0160020b9190565b50505050600190565b809192939450906138a88a9461054d565b600160801b811015613972575b508082600160401b6002931015613964575b640100000000821015613956575b62010000821015613948575b61010082101561393a575b601082101561392c575b600482101561391d575b501015613912575b5090388381613863565b906001011682613908565b908290811c9401169282613900565b600494850116931c826138f6565b600894850116931c826138ec565b601094850116931c826138e1565b602094850116931c826138d5565b604094850116931c826138c7565b9250505060801c826002608092906138b5565b9061399290949394613b31565b9060405160208101906139cb8161060560ff9586891660010b8860081b60010b0160010b90869091602292825260f01b60208201520190565b5190206000908152620100076020526040812054909586918115613b2b57905b8115918483159283613a24575b5050505061388e579061ff00911660020b9260081b1660020b9060101b60020b0160020b0160020b9190565b909192939450600014613a465750613a3c91506134f2565b90388084816139f8565b9080613a528a9461054d565b600160801b811015613b18575b508082600160401b6002931015613b0a575b640100000000821015613afc575b62010000821015613aee575b610100821015613ae0575b6010821015613ad2575b6004821015613ac3575b501015613ab8575b50613a3c565b906001011682613ab2565b908290811c9401169282613aaa565b600494850116931c82613aa0565b600894850116931c82613a96565b601094850116931c82613a8b565b602094850116931c82613a7f565b604094850116931c82613a71565b9250505060801c82600260809290613a5f565b906139eb565b60ff8116906000906080831015613b5157505060010b607f190160000b90565b607f190160ff16900b919050565b90613b6981613b31565b604051602081019184835260f81b604082015260218152613b898161086c565b51902060005262010006602052604060002054906000918015908115613bb8575b506137de57612ad292613751565b613bc39193506134f2565b9138613baa565b90613bd481613b31565b604051602081019184835260f81b604082015260218152613bf48161086c565b519020600052620100066020526040600020549060009180159081159081613c26575b50506137de57612ad2926137fb565b613c358195929395929361054d565b600160801b811015613cff575b5080600160401b6002921015613cf0575b640100000000811015613ce1575b62010000811015613cd2575b610100811015613cc3575b6010811015613cb4575b6004811015613ca6575b1015613c9b575b913880613c17565b60010160ff16613c93565b91810160ff1691811c613c8c565b600492830160ff16921c613c82565b600892830160ff16921c613c78565b601092830160ff16921c613c6d565b602092830160ff16921c613c61565b604092830160ff16921c613c53565b60809250821c90506002613c42565b929182613d6491613d1e84613b31565b604051602081019188835260f81b604082015260218152613d3e8161086c565b5190206000526201000660205260ff613d5d83604060002054936133bd565b16906133cf565b919091613d7457612ad293613985565b50505050600090600190565b9115613d8f57610d1a91613d98565b610d1a91613dcf565b9060ff91826001809301165b838116613db65750505050627fffff90565b613dc08183613b5f565b156136ec575082018316613da4565b60ff916000199190820183165b8380821610613df15750505050627fffff1990565b613dfb8183613bca565b156136ec575082018316613ddc565b815115613e44576001600160801b03809151169060808301511611905b81613e30575090565b6001600160801b0391506060015116151590565b6001600160801b0380915116906080830151161090613e27565b909392918460020b627fffff1981139081613f17575b5015613f1057612e1a613ef892613e9d86613e9285613efe9961406f565b8651151589866141cc565b613ee0613ed7613eb06020880151151590565b94613ebb8851151590565b6060890196613ed188516001600160801b031690565b92613f24565b93919091612578565b82516001600160801b0316036001600160801b031690565b51151590565b15613f065790565b6000190160020b90565b5050505090565b627fffff91501238613e74565b90939291613f318261270e565b90613f49866001600160801b0393848651169061302b565b938280861691161115613fa95715613f675750926128e19293613fd3565b80825116620100028111613f9a575b505050613f8281612b31565b9215613f9457506000905b6000929190565b90613f8d565b60001901169052388080613f76565b60405162461bcd60e51b8152602060048201526002602482015261109160f21b6044820152606490fd5b9290926001600160801b03808251166f0ffff5433e2b3d8211706e6102aa94718110614016575b50505060009161400981612b31565b93600090156114e0575090565b600101169052388080613ffa565b9062093a808201809211610b2257565b91908201809211610b2257565b63ffffffff9182169082160391908211610b2257565b91909163ffffffff80809416911601918211610b2257565b906140936140898360005262010017602052604060002090565b5463ffffffff1690565b63ffffffff918282166140d5575b5050906140c06107869242169160005262010017602052604060002090565b9063ffffffff1663ffffffff19825416179055565b604001519092906140ee906001600160801b03166114c9565b925b82811690428210156141bb579081846141a49361411d61411462093a8086046127da565b63ffffffff1690565b9361413e61411461413961413084614024565b62093a80900490565b6127da565b904284831610156141a957506141579161411491614041565b169161419d61419561416989866127f2565b926141808860005262010016602052604060002090565b9063ffffffff16600052602052604060002090565b918254614034565b9055614057565b6140f0565b90506141b691504261313d565b614157565b509092506140c090506107866140a1565b919260808301906001600160401b038251169360405160208101908382528560e81b6040820152602381526142008161086c565b519020600052620100026020526142a06142936040806000208054986d03fffffffffffffffffffffff800808b60561c16600f0b908b600a1b16600f0b03600f0b8b60001461432a57995b60c01c908181036142f6575b505089156142dd57546142799060601c6001600160601b03165b600116151590565b935b019661428e88516001600160801b031690565b614339565b6001600160801b03168652565b6142ab575050505050565b611e3994612e1a936142c76142cd94516001600160401b031690565b926143b7565b82516001600160801b0316614339565b546142f0906001600160601b0316614271565b9361427b565b6143239161430391614385565b82546001600160c01b031660c09190911b6001600160c01b031916178255565b3880614257565b61433390610b0a565b9961424b565b91906000908181600f0b1260001461436b576001600160801b0380918303811685031693168310156143685750565b80fd5b6001600160801b0380918116850116931683106143685750565b6001600160401b039182169082160391908211610b2257565b908160209103126100a5575180600f0b81036100a55790565b610dad549293926001600160a01b03169182156100a5576001600160401b03600095948695604051936020850195633c05c62160e01b8752602486015260020b6044850152151560648401521660848201526084815261441681610887565b51915af4614422611bfc565b90156100a55780602080610d1a9351830101910161439e56fea26469706673582212207e07caea9e65da0c7c68bf4099f258d3a6fdc4d6efc6573289869902852b24ff64736f6c634300081300336080806040523461002b5762010011805460ff60e01b1916600160e71b17905561044b90816100318239f35b600080fdfe60806040908082526004908136101561001757600080fd5b6000803560e01c918263ac54c0fc1461038d57508163b670198014610092575063f96dc7881461004657600080fd5b61008e91610053366103c6565b50505191829162461bcd60e51b8352820160609060208152600f60208201526e125b9d985b1a590818dbdb5b585b99608a1b60408201520190565b0390fd5b828434610389576100a2366103c6565b60ff859392935460a01c161561035f5780601f101561034c57601f83013560f81c60150361030f57826060918101031261030b57813560ff81160361030b57602091808301356001600160a01b03811691908290036103075782013561ffff8116908181036103035781156102c057821590811591826102b6575b1561027357837f6d6175bccbf61a37eb104b2e776524b39d3c237dbc07dc62fc29c8b3e79f1b3c878751868152a2620100008110156102605760010180546001600160a01b03191684179055610176575b505050505080f35b83906044845180948193632b15303f60e21b8352308a84015260248301525afa9081156102565785916101f2575b50156101b157808061016e565b5162461bcd60e51b815291820152601a60248201527f50726f787920646f6573206e6f742061636365707420726f6c65000000000000604482015260649150fd5b9050823d841161024f575b601f8101601f1916820167ffffffffffffffff81118382101761023c57849183918552810103126102385751801515810361023857856101a4565b8480fd5b634e487b7160e01b875260418652602487fd5b503d6101fd565b82513d87823e3d90fd5b634e487b7160e01b885260328752602488fd5b845162461bcd60e51b8152808801879052601f60248201527f50726f78792061646472657373206973206e6f74206120636f6e7472616374006044820152606490fd5b50833b151561011d565b835162461bcd60e51b8152808701869052601a60248201527f43616e6e6f74206f766572777269746520626f6f7420706174680000000000006044820152606490fd5b8680fd5b8580fd5b8380fd5b815162461bcd60e51b81526020818601818152600f918101919091526e125b9d985b1a590818dbdb5b585b99608a1b604082015281906060010390fd5b634e487b7160e01b855260328452602485fd5b815162461bcd60e51b815260208186015260248101859052635375646f60e01b6044820152606490fd5b8280fd5b83853461030b5736600319011261038957356001600160a01b038116036103c25760243561ffff8116036103c2576020918152f35b5080fd5b9060206003198301126104105760043567ffffffffffffffff9283821161041057806023830112156104105781600401359384116104105760248483010111610410576024019190565b600080fdfea26469706673582212208887617d455e62e829b8b120e9e67e9c06e2946abe7b402d33bb9a2bac7c087264736f6c634300081300336080806040523461002b5762010011805460ff60e01b1916600160e71b17905561323590816100318239f35b600080fdfe608080604052600436101561001357600080fd5b60009060e0908235821c908163ac54c0fc1461258e57508063b670198014611a9e5763f96dc7881461004457600080fd5b61004d366125e0565b909181601f1015611a8a57601f83013560f81c604781036112955750508160a091810103126112915761007f81612629565b5061008c60208201612637565b61009860408301612637565b906100aa60806060850135940161264b565b916100b3612cf3565b506100d36100ce856001600160a01b03848116908616612dee565b612ecf565b611267576100df612cbb565b50838552620100086020526100f660408620612d93565b9261010084612eb5565b1561123d576201000b805460801c60ff90811660408701908152919561020f92919060c09061013c8a6001600160a01b03898116908b16612d19565b8b52620100096020526101998360408d209581845116821988541617875561017f61ffff602086015116889062ffff0082549160081b169062ffff001916179055565b51865463ff0000001916911660181b63ff00000016178555565b6060810151845465ffff00000000191660209190911b65ffff00000000161784556080810151845460ff60301b191690841660301b60ff60301b1617845560a0810151845460ff60381b191690841660381b60ff60381b161784550151825460ff60401b1916911660401b60ff60401b16179055565b610217612cf3565b506001600160801b03610237866001600160a01b03858116908716612dee565b9461024961024487612ecf565b612d62565b54169460018060a01b036040860151169081611173575b5050846020850151876080604051610277816126ca565b828152826020820152826040820152826060820152015287526201000f60205260408720916001604051936102ab856126ca565b80546001600160801b038116865260801c602086015201546001600160801b03811660408501526001600160401b038160801c16606085015260c01c6080840152620100026001600160801b038216101580611151575b15610bb1576001600160401b600160c01b03604083901b166001600160801b03811160071b81811c6001600160401b03811160061b81811c63ffffffff811160051b90811c61ffff811160041b81811c60ff8111600390811b82811c600f811160021b90811c9283118c1b83811c9c909c1197909917959095179290921793909317861788179390931796869592949093608089106110f85750505050505050607e1982011c5b808002607f1c81800260ff1c1c808002607f1c81800260ff1c1c808002607f1c81800260ff1c1c808002607f1c81800260ff1c1c808002607f1c81800260ff1c1c808002607f1c81800260ff1c1c90818002607f1c82800260ff1c1c92838002607f1c84800260ff1c1c94858002607f1c86800260ff1c1c96878002607f1c88800260ff1c1c98898002607f1c8a800260ff1c1c9a8b8002607f1c8c800260ff1c1c9c8d808002607f1c90800260ff1c1c800260cd1c6604000000000000169d800260cc1c6608000000000000169c800260cb1c6610000000000000169b800260ca1c6620000000000000169a800260c91c66400000000000001699800260c81c66800000000000001698800260c71c6701000000000000001697800260c61c6702000000000000001696800260c51c6704000000000000001695800260c41c6708000000000000001694800260c31c6710000000000000001693800260c21c6720000000000000001692800260c11c6740000000000000001691800260c01c6780000000000000001690607f190160401b1717171717171717171717171717693627a301d71055774c85026fdb2df09e81959a81455e260799a0632f810160801d60020b6f028f6481ab7f045a5af012a19d003aa919820160801d60020b14600014610c8c576f028f6481ab7f045a5af012a19d003aa9190160801d60020b905b620a276d198260020b121580610c7c575b15610c53576001600160801b03845116610c2a576001600160801b03168352602086015190604051918260408101106001600160401b03604085011117610c14576040830160405263ffffffff42168352896020840152895262010018602052604089209060020b89526020526040882080549068010000000000000000821015610c005760018201808255821015610bec57895260208920019063ffffffff81511667ffffffff000000006020845493015160201b16916001600160401b0319161717905515610be3575b61069f6001600160401b03606083015116866131af565b6001600160801b038251166106c1816001600160801b0384160260401c6131e2565b918115610bcf576106eb91600160401b600160c01b036106e59260401b16046131e2565b96613194565b6001600160801b0380602085015116918981600f0b12600014610bb5578903811682031690811015610bb1576001600160801b03905b1660208301526001600160801b03811615801590610ba9575b15610ba1576107489061290f565b945b6001600160801b03811615801590610b99575b15610b89576107796106e561077360209361290f565b97613194565b94015186526201000f6020526040862060016001600160801b03835116926001600160801b03199384602083015160801b161783556001600160801b03604082015116906001600160401b0360801b606082015160801b169060806001600160401b0360c01b91015160c01b1691171791015560018060a01b038654169460018060a01b038416159384600014610b125787905b6040516370a0823160e01b8152306004820152956020876024816001600160a01b038a165afa968715610b07578a97610ace575b5015610aa95761084f612a67565b600f84900b80156109a85760008113156109fd5750604080516001600160a01b038b166020820190815260009282018390529196916001600160801b038716916108a681606081015b03601f19810183528261271b565b519020875262010010602052604087209182546001600160801b038116906001600160801b03891682116000146109e55750506001600160801b036108ef845493828516612af6565b1691161790555b6001600160801b03851680156109a8576001600160801b0382161061097e5761095b986001600160801b0361093161094d9761094d94612af6565b168061095e575b505b6001600160a01b03871690899080612fe3565b6001600160a01b0316612eeb565b80f35b600080808061097894865af1610972613133565b50613163565b38610938565b60405162461bcd60e51b8152602060048201526002602482015261454360f01b6044820152606490fd5b5061094d945061095b986001600160801b0361094d9216806109cb575b5061093a565b60008080806109df94865af1610972613133565b386109c5565b6109f795995093919093169055612af6565b936108f6565b9861094d9561094d92600061095b9c12610a19575b505061093a565b6001600160801b0391610a2b88612bc4565b604080516001600160a01b0387166020820190815260009282019290925291851691610a5a8160608101610898565b5190206000526201001060205260406000209184610a7c84549382851661293d565b1691161790551680610a8f575b80610a12565b6000808080610aa394865af1610972613133565b38610a89565b61095b9761094d94508490610ac96001600160a01b038416868380612fe3565b61093a565b9096506020813d602011610aff575b81610aea6020938361271b565b81010312610afa57519538610841565b600080fd5b3d9150610add565b6040513d8c823e3d90fd5b6040516370a0823160e01b81523060048201526020816024816001600160a01b0386165afa908115610b7e578991610b4c575b509061080d565b90506020813d602011610b76575b81610b676020938361271b565b81010312610afa575138610b45565b3d9150610b5a565b6040513d8b823e3d90fd5b5060206107796106e58897613194565b50600161075d565b50859461074a565b50600161073a565b8780fd5b8116820116908110610bb1576001600160801b0390610721565b634e487b7160e01b89526012600452602489fd5b60019450610688565b634e487b7160e01b8a52603260045260248afd5b634e487b7160e01b8a52604160045260248afd5b634e487b7160e01b600052604160045260246000fd5b60405162461bcd60e51b81526020600482015260016024820152602760f91b6044820152606490fd5b60405162461bcd60e51b81526020600482015260016024820152602960f91b6044820152606490fd5b50620cb14a8260020b13156105bc565b620a276d196fdb2df09e81959a81455e260799a0632f820160801d60020b1215806110d3575b156110cf57886fdb2df09e81959a81455e260799a0632f820160801d60020b126000146110b1576fdb2df09e81959a81455e260799a0632f810160801d60020b89035b600181161561109f576001600160881b036ffffcb933bd6fad37aa2d162d1a5940015b169060028116611083575b60048116611067575b6008811661104b575b6010811661102f575b60208116611013575b60408116610ff7575b60808116610fdb575b6101008116610fbf575b6102008116610fa3575b6104008116610f87575b6108008116610f6b575b6110008116610f4f575b6120008116610f33575b6140008116610f17575b6180008116610efb575b620100008116610edf575b620200008116610ec4575b620400008116610ea9575b6208000016610e93575b896fdb2df09e81959a81455e260799a0632f830160801d60020b13610e70575b6001600160401b038116610e60576001600160801b038a915b60ff82861693169060401c01161115600014610e42576fdb2df09e81959a81455e260799a0632f0160801d60020b5b906105ab565b6f028f6481ab7f045a5af012a19d003aa9190160801d60020b610e3c565b6001600160801b03600191610e0d565b8015610e7f5760001904610df4565b634e487b7160e01b8a52601260045260248afd5b6b048a170391f7dc42444e8fa20260801c610dd4565b6d2216e584f5fa1ea926041bedfe9890910260801c90610dca565b906e5d6af8dedb81196699c329225ee6040260801c90610dbf565b906f09aa508b5b7a84e1c677de54f3e99bc90260801c90610db4565b906f31be135f97d08fd981231505542fcfa60260801c90610da9565b906f70d869a156d2a1b890bb3df62baf32f70260801c90610d9f565b906fa9f746462d870fdf8a65dc1f90e061e50260801c90610d95565b906fd097f3bdfd2022b8845ad8f792aa58250260801c90610d8b565b906fe7159475a2c29b7443b29c7fa6e889d90260801c90610d81565b906ff3392b0822b70005940c7a398e4b70f30260801c90610d77565b906ff987a7253ac413176f2b074cf7815e540260801c90610d6d565b906ffcbe86c7900a88aedcffc83b479aa3a40260801c90610d63565b906ffe5dee046a99a2a811c461f1969c30530260801c90610d59565b906fff2ea16466c96a3843ec78b326b528610260801c90610d50565b906fff973b41fa98c081472e6896dfb254c00260801c90610d47565b906fffcb9843d60f6159c9db58835c9266440260801c90610d3e565b906fffe5caca7e10e4e61c3624eaa0941cd00260801c90610d35565b906ffff2e50f5f656932ef12357cf3c7fdcc0260801c90610d2c565b906ffff97272373d413259a46990580e213a0260801c90610d23565b6001600160881b03600160801b610d18565b6fdb2df09e81959a81455e260799a0632f810160801d60020b610cf5565b8880fd5b50620cb14a6fdb2df09e81959a81455e260799a0632f820160801d60020b1315610cb2565b8495969750600160ff9161ffff939495961c11961160031b921160041b906001600160401b0363ffffffff8282811160061b1c1160051b911160061b6001600160801b03881160071b17171717171717607f031b6103a9565b506f0ffff5433e2b3d8211706e6102aa94726001600160801b03821610610302565b87546040516363a2fdc160e11b81526001600160a01b03918216600482015233602482015286821660448201529085166064820152608481019190915290602090829060a49082908b905af1908115611232578791611203575b50156111da573880610260565b60405162461bcd60e51b81526020600482015260016024820152602d60f91b6044820152606490fd5b611225915060203d60201161122b575b61121d818361271b565b81019061273c565b386111cd565b503d611213565b6040513d89823e3d90fd5b60405162461bcd60e51b8152602060048201526002602482015261141560f21b6044820152606490fd5b60405162461bcd60e51b8152602060048201526002602482015261282360f11b6044820152606490fd5b5080fd5b9293926048810361147a57505082016080928381830312611476576112b981612629565b5060206112c7818301612637565b6112d360408401612796565b95606090818501356001600160401b03958682116110cf57019580601f88011215610bb157863596868811611462578760051b90604051986113178884018b61271b565b895286808a019282010192831161145e579799978601905b8282106114415750505060a09590951b63ffffffff60a01b16946001600160a01b0392831691875b89518110156114345761ffff600381611370848e612809565b5116146113f657611381828c612809565b5116858a54169060405190888201928352866040830152848201528381528481018181108a821117610c1457604090815290519091208a526201001087528920805463ffffffff60a01b19168917905560001981146113e257600101611357565b634e487b7160e01b89526011600452602489fd5b60405162461bcd60e51b8152600481018890526016602482015275496e76616c696420526f7574657220417070726f766560501b6044820152606490fd5b5050505050505050905080f35b868091611450849d9b9d6125d1565b81520191019099979961132f565b8980fd5b634e487b7160e01b89526041600452602489fd5b8280fd5b6049819593929495146000146114e15750819250906080918101031261129157806114a761095b92612629565b506114b460208201612637565b9060606114c36040830161264b565b916001600160a01b039182916114d99101612637565b169216612958565b605381036115f057508161010091810103126114765761150081612629565b5061150d60208201612637565b6115196040830161264b565b9061152660608401612637565b9361153360a08501612629565b6001600160a01b039283169590921693843b156115ec5760ff6040519363d505accf60e01b85528760048601523060248601526001600160801b03861660448601526080830135606486015216608484015260c081013560a4840152013560c4820152848160e48183875af180156115e1576115b4575b5061095b92612958565b6001600160401b0381116115cd5760405261095b6115aa565b634e487b7160e01b85526041600452602485fd5b6040513d87823e3d90fd5b8680fd5b91925090604a810361173e57509061160a91810190612762565b84549193506001600160a01b039283169290811691859161162d91849116612ac5565b9182825262010010806020526116526001600160801b03968760408620541690612be5565b9383526020526040822080548661166b86828416612af6565b16906001600160801b03191617905580156000146116b557505082169182116116a15782808061095b9481945af1610972613133565b634e487b7160e01b83526011600452602483fd5b60405163a9059cbb60e01b602082019081526001600160a01b03909516602482015294909216604485015261095b93909283929183906116f88160648101610898565b51925af1611704613133565b8161170f5750613163565b8051801592508215611724575b505038610972565b611737925060208091830101910161273c565b388061171c565b604b8103611787575061175a826117819261095b940190612762565b865491949293506001600160a01b039081169161177a9083908316612ac5565b9316612ac5565b90612b54565b8290604c8103611802575060a0918101031261129157806117aa61095b92612629565b506117b760608201612754565b906117816117f66117fc6001600160a01b03806117d660808701612637565b1692839189541660406117ed602089013583612b0f565b97013590612b0f565b94612ac5565b92612ac5565b6050810361183a575060609181010312611291578061182361095b92612629565b50602061183260408301612796565b910135612833565b90506051810361195e575081019060a0818303126114765761185b81612629565b5060208101359161186e60408301612796565b9161187b60608201612637565b6080820135916001600160401b0383116115ec576118e9936020936118a092016127c2565b9060018060a01b038781815416916040518097819682956338188ed760e11b845260048401528b602484015263ffffffff8b1660448401526080606484015260848301906128cf565b0393165af1908115611953578491611935575b501561190b5761095b91612833565b60405162461bcd60e51b815260206004820152600260248201526127a760f11b6044820152606490fd5b61194d915060203d811161122b5761121d818361271b565b386118fc565b6040513d86823e3d90fd5b605203611a53578101906060818303126114765761197b81612629565b5061198860208201612637565b6040820135916001600160401b038311611a4f576119e4936020936119ad92016127c2565b9060018060a01b038581815416916040518097819682956330e286e360e21b845260048401526040602484015260448301906128cf565b0393165af1908115611a44578291611a26575b5061095b5760405162461bcd60e51b81526020600482015260026024820152614f4760f01b6044820152606490fd5b611a3e915060203d811161122b5761121d818361271b565b386119f7565b6040513d84823e3d90fd5b8480fd5b60405162461bcd60e51b815260206004820152600f60248201526e125b9d985b1a590818dbdb5b585b99608a1b6044820152606490fd5b634e487b7160e01b84526032600452602484fd5b503461129157611aad366125e0565b80601f1015611a8a57601f82013560f81c606d8103611b22575081925090604091810103126112915780611ae2602092612629565b500135807ff04678cb0a9a94c6123dfbed8362627d9754e802db5ef393b2abf29bbffb10c88380a281526201000860205260408120805460ff1916905580f35b606e8103611d2e5750908092918101031261129157611b4081612629565b506020908082013590611b55604082016125d1565b611b61606083016125d1565b611b6d60808401612629565b92611b7a60a08201612629565b9060c001611b8790612629565b9384928660405161ffff808816825283168a82015260ff8416604082015260ff8516606082015260ff8616608082015260a07f6574bab9cbe9cbdd301eff0716be38e5549a862fbb0a27f091ae8e30acf0975291a286895262010008885260408920805462ffffff191660089690961b62ffff0016959095176001178555845465ffff00000000191660209190911b65ffff0000000016178455835460ff60301b191660309190911b60ff60301b16178355825460ff60381b191660389190911b60ff60381b16178255815460ff60401b191660409190911b60ff60401b16179055611c7291612c6e565b6001600160a01b03811690839082611c8c575b5050505080f35b83903b15159283611cd5575b50505015611ca857808281611c85565b6064906040519062461bcd60e51b8252600482015260066024820152654f7261636c6560d01b6044820152fd5b604051633d3e21a160e21b815293509091839160049183915af1908115611d23578391611d06575b50828238611c98565b611d1d9150823d841161122b5761121d818361271b565b38611cfd565b6040513d85823e3d90fd5b606f8103611e2d57508161010091810103126114765761095b91611d5182612629565b50611e13611d6160208401612637565b91611df9611d7160408601612637565b93611ddb611dc1611d84608089016125d1565b96611d9160a08a016125d1565b936060611dab611da360c08d01612629565b988c01612629565b9a0135916001600160a01b039081169116612e52565b95869062ffff0082549160081b169062ffff001916179055565b845465ffff00000000191660209190911b65ffff0000000016178455565b825460ff60301b191660309190911b60ff60301b16178255565b9060ff60381b82549160381b169060ff60381b1916179055565b91929160728103611eaf575082611e4a91611e8d9394019061265f565b92905060ff604051917f703dadb0730cdc09b07d7039d74dddaa44bed181ac5df56ceaac826808f8c07c602083871694858152a16201001154901c161015612c8a565b6201000b805460ff60801b191660809290921b60ff60801b1691909117905580f35b60748103611f27575082611ec991611f0c9394019061265f565b92905060ff604051917f78cebabf44aeb53b6a6d1d9fda97040ebcd7b5119147f4d20834f499d194eebb602083871694858152a16201001154901c161015612c8a565b815460ff60c01b191660c09190911b60ff60c01b1617815580f35b8391925060738114600014611fd55750608091810103126112915780611f4f61095b92612629565b50611fbb611f5f60208301612637565b6060611f6d60408501612637565b9301359060018060a01b03809116931660ff6201000b5460801c16938282827fb89e42dc3bd965ba356db6bd3f5ddd604530083da13da6d8491ad2b2718a011f60206040518a8152a4612e52565b9063ff00000082549160181b169063ff0000001916179055565b6070810361209557506040918101031261129157602081611ff8611fff93612629565b500161264b565b7f7838d07bf20579cb7640bf7e1381607db1a5d8c4799053314890c72673a85c2e60206001600160801b03604051931692838152a180151580612089575b15612059576201000b906001600160801b031982541617905580f35b60405162461bcd60e51b8152602060048201526008602482015267496e6974206c697160c01b6044820152606490fd5b5062989680811061203d565b90506071810361217257508160809181010312611291576120b581612629565b506120c260208201612637565b906120db60606120d46040840161264b565b92016125d1565b9160018060a01b0316807f56f43876270ac6e001a4449e363d26518c494eac1547ed144ab29b5b99e38d08604080516001600160801b038616815261ffff87166020820152a283526201000a602052604083209170ffffffffffffffffffffffffffffffff0083549161ffff60881b9060881b169260081b169072ffffffffffffffffffffffffffffffffffff0019161717905580f35b919083549260ff8460a01c161561256357602881036122b1575061219992508101906126a9565b62010011546001600160a01b03918216925060a081901c6001600160401b0316421061227b571660405181837fbdcd7dcddd535083a6d22b55c021205ac0eff43705fb59b6645f6f479a6dd20b8680a38284526201000c60205260408420918254916001600160801b0394858416946001600160801b0319809516905584612225575b50505050505080f35b6001600160a01b03928316602083019081529216604082015261224b8160608101610898565b519020845262010010602052604084209261226a84549382851661293d565b16911617905538808080808061221c565b60405162461bcd60e51b815260206004820152600e60248201526d151c99585cdd5c9e481cdd185c9d60921b6044820152606490fd5b602981036123a057506122c792508101906126a9565b6001600160a01b0316905080151580612396575b1561235e5762010011805462093a80420180421161234a576001600160e01b0319909116831760a091821b67ffffffffffffffff60a01b1617918290551c6001600160401b0316907f0f02a9e0f1a59164f628064cb5ecad90405bca20d668c8528c2165d67476533c8380a380f35b634e487b7160e01b85526011600452602485fd5b60405162461bcd60e51b815260206004820152601060248201526f151c99585cdd5c9e481a5b9d985b1a5960821b6044820152606490fd5b50803b15156122db565b601481036124a157506123b692508101906126a9565b6001600160a01b039150811680151580612497575b8061244d575b1561241457620100019182549081167f794f2baba4b07f7dd9f1123c7e93530ca10b65cf26558362b14d0a437e3099c58580a26001600160a01b03191617905580f35b60405162461bcd60e51b8152602060048201526011602482015270496e76616c696420417574686f7269747960781b6044820152606490fd5b50604051633d5ed36160e11b815260208160048187865af1908115611953578491612479575b506123d1565b612491915060203d811161122b5761121d818361271b565b38612473565b50803b15156123cb565b6016810361250257506124b79250810190612683565b90507f2e7754bb17467b54f4b17a302f1adb01f606496fa3421665b36ff44ff8dbc5fa602060405192151592838152a1815460ff60b01b191660b09190911b60ff60b01b1617815580f35b909190601703611a535761251891810190612683565b90507f7fabf78b254427483595fa50cfb7e832154c4936f7bdb0b266535f271722dc46602060405192151592838152a160ff60b81b1990911660b89190911b60ff60b81b1617815580f35b606460405162461bcd60e51b81526020600482015260046024820152635375646f60e01b6044820152fd5b839034611291576040366003190112611291576004356001600160a01b03811603611291576024359161ffff83168093036125ce57506003602092148152f35b80fd5b359061ffff82168203610afa57565b906020600319830112610afa576004356001600160401b0392838211610afa5780602383011215610afa578160040135938411610afa5760248483010111610afa576024019190565b359060ff82168203610afa57565b35906001600160a01b0382168203610afa57565b35906001600160801b0382168203610afa57565b9190826040910312610afa57612680602061267984612629565b9301612629565b90565b9190826040910312610afa57602061269a83612629565b9201358015158103610afa5790565b9190826040910312610afa5761268060206126c384612629565b9301612637565b60a081019081106001600160401b03821117610c1457604052565b60e081019081106001600160401b03821117610c1457604052565b606081019081106001600160401b03821117610c1457604052565b90601f801991011681019081106001600160401b03821117610c1457604052565b90816020910312610afa57518015158103610afa5790565b359081600f0b8203610afa57565b9190826080910312610afa5761277782612629565b9161278460208201612637565b9161268060606126c360408501612754565b359063ffffffff82168203610afa57565b6001600160401b038111610c1457601f01601f191660200190565b81601f82011215610afa578035906127d9826127a7565b926127e7604051948561271b565b82845260208383010111610afa57816000926020809301838601378301015290565b805182101561281d5760209160051b010190565b634e487b7160e01b600052603260045260246000fd5b60018060a01b036000541690604051906020820192835260408201526040815261285c81612700565b5190206000526201001060205260406000209081549063ffffffff808360801c16908216106128a55763ffffffff60801b1990911660809190911b63ffffffff60801b16179055565b60405162461bcd60e51b81526020600482015260026024820152614e4960f01b6044820152606490fd5b919082519283825260005b8481106128fb575050826000602080949584010152601f8019910116010190565b6020818301810151848301820152016128da565b9060046001600160801b038093160191821161292757565b634e487b7160e01b600052601160045260246000fd5b9190916001600160801b038080941691160191821161292757565b6000805492936001600160a01b039391929184169185612976612a67565b958316612a0057506001600160801b03928387168487161061097e57846129b3946129a389604099612af6565b1691826129e6575b505050612ac5565b81526201001060205220908154906129d56001600160801b039182841661293d565b16906001600160801b031916179055565b81806129f89481935af1610972613133565b3884816129ab565b604080516323b872dd60e01b602082019081526001600160a01b0390961660248201523060448201526001600160801b03909216606483015295506129b393612a629186918291612a548160848101610898565b519082875af1611704613133565b612ac5565b6000549060ff8260a81c16612a9b576001600160801b033416348103610afa5760ff60a81b19909216600160a81b17600055565b60405162461bcd60e51b8152602060048201526002602482015261445360f01b6044820152606490fd5b604080516001600160a01b03928316602082019081529390921690820152612af08160608101610898565b51902090565b6001600160801b03918216908216039190821161292757565b9080612b19575090565b604080516001600160a01b039390931660208401908152838201929092528252612b4460608361271b565b905190206001600160a01b031690565b90604060008381526201001080602052612b7c6001600160801b039687858520541690612be5565b948252806020528282209384549487612b9788828916612af6565b166001600160801b031980971617905582526020522092612bbc84549382851661293d565b169116179055565b600f0b6f7fffffffffffffffffffffffffffffff1981146129275760000390565b91909180600f0b60008112600014612c545750612c04612c1391612bc4565b6001600160801b031683612af6565b915b6001600160801b0380911690831611612c2a57565b60405162461bcd60e51b8152602060048201526002602482015261534360f01b6044820152606490fd5b612c5f575081612c15565b6001600160801b031691612c15565b906001806000921614600014612c85575060601c90565b905090565b15612c9157565b60405162461bcd60e51b81526020600482015260026024820152612a2960f11b6044820152606490fd5b60405190612cc8826126e5565b8160c06000918281528260208201528260408201528260608201528260808201528260a08201520152565b60405190612d0082612700565b6000604083612d0d612cbb565b81528260208201520152565b91906001600160a01b038082169084161015610afa57604080516001600160a01b039485166020820190815294909216908201526060810191909152612af08160808101610898565b15612d6957565b60405162461bcd60e51b8152602060048201526002602482015261504960f01b6044820152606490fd5b90604051612da0816126e5565b60c060ff829454818116845261ffff808260081c166020860152828260181c1660408601528160201c166060850152818160301c166080850152818160381c1660a085015260401c16910152565b612e02918391612dfc612cf3565b50612d19565b8060005262010009602052612e2c612e1d6040600020612d93565b9260ff60c08501511690612c6e565b9060405192612e3a84612700565b835260208301526001600160a01b0316604082015290565b90612e5d9291612d19565b60005262010009602052604060002090612e81610244612e7c84612d93565b612eb5565b565b15612e8a57565b60405162461bcd60e51b815260206004820152600360248201526249505360e81b6044820152606490fd5b60ff600191612ec983838351161115612e83565b51161490565b60ff600191612ee48383835151161115612e83565b5151161490565b90916001600160a01b039091169081612f0357505050565b6020602492604051938480926370a0823160e01b82523060048301525afa918215612fd757600092612fa4575b50828210159283612f94575b83612f76575b50505015612f4c57565b60405162461bcd60e51b8152602060048201526002602482015261151160f21b6044820152606490fd5b82039250908211612927576001600160801b03161115388080612f42565b9250600081600f0b121592612f3c565b90916020823d8211612fcf575b81612fbe6020938361271b565b810103126125ce5750519038612f30565b3d9150612fb1565b6040513d6000823e3d90fd5b9290916001600160a01b03821615610afa57600092600f82900b848113156130d757506001600160801b039184915080831661301f8588612ac5565b8652620100106020526040862091825485808216921682116000146130b25750508361304f835492828416612af6565b16906001600160801b0319161790555b169081156130ac576040516323b872dd60e01b602082019081526001600160a01b0390951660248201523060448201526064810192909252612e8193839283906116f88160848101610898565b50505050565b6fffffffffffffffffffffffffffffffff19169092556130d29250612af6565b61305f565b849394919550126130e85750505050565b6040926117f66130f792612bc4565b815262010010602052209081549061311b6001600160801b0391821682841661293d565b16906001600160801b031916179055388080806130ac565b3d1561315e573d90613144826127a7565b91613152604051938461271b565b82523d6000602084013e565b606090565b1561316a57565b60405162461bcd60e51b81526020600482015260026024820152612a2360f11b6044820152606490fd5b6001600160801b03166001607f1b811015610afa57600f0b90565b6001600160401b03916001600160801b039283911666010000000000000191160260301c8181116131de571690565b5090565b6001600160801b03811691906001600160c01b03168203610afa5756fea2646970667358221220ffdd64b8fcff91f58b0c48a3dd5867a2d210bf13aae296c00b428b2703e0ef2a64736f6c634300081300336080806040523461002b5762010011805460ff60e01b1916600160e71b1790556106d990816100318239f35b600080fdfe6080604090808252600436101561001557600080fd5b600090813560e01c9081633c05c6211461007c575063ac54c0fc1461003957600080fd5b346100795781600319360112610079576004356001600160a01b03811603610079576024359061ffff82168092036100795750610dac6020925191148152f35b80fd5b8284608036600319011261037857600435602435908160020b91828103610374576044358015918215809203610370576064359067ffffffffffffffff92838316830361036c576020998a810190878252868a82015260609589878301528682526080820190828210908211176103585762010004999897947f78d4bacd92cc15fe8ee27d50b9be043e663f43f413418e9b478c034765931ec897948c8f938f9096829660809b9884525190208152620100038552209b8c93528d8a6101d76001600160601b0361017a888520978c8c6101568a88610445565b9115610323575080546bfffffffffffffffffffffffe8116908519161790556103d0565b9561ffff898801511660020b8c60001461031c57600019820160020b965b8d156103105782965b50156103065750955b5116976101c36101bb8a86866104c0565b998785610527565b94866101d18383888861059e565b9461059e565b03956102f6575b506102e6575b506101ee8a6103d0565b928d6101f8610409565b94845180956102068261037c565b61025f8161025a88549a8c6bffffffff000000000000000060018060a01b039d8e811680995263ffffffff9d8e8260a01c168c8201528160c01c9687910152821c16916001600160601b0319911b16610438565b610438565b908051918583019384528183015281526102788161037c565b51902091015160a01b63ffffffff60a01b1690861c1760c09190911b6001600160c01b03191617908190556102ab610409565b918b519586528160a01c168d86015260c01c8a8501521690820152a3805471ffffffffffffffffffffffffffffffffffff1916905551908152f35b6102f09089610487565b8d6101e4565b610300908b610487565b8f6101de565b0160020b956101aa565b81830360020b966101a1565b8196610198565b81546bffffffffffffffffffffffff60601b1981166b7fffffffffffffffffffffff60611b9190921c60601b161790556103d0565b634e487b7160e01b8c52604160045260248cfd5b8880fd5b8680fd5b8480fd5b5080fd5b6060810190811067ffffffffffffffff82111761039857604052565b634e487b7160e01b600052604160045260246000fd5b90601f8019910116810190811067ffffffffffffffff82111761039857604052565b906040516103dd8161037c565b604061ffff8294546001600160601b038116845263ffffffff8160601c16602085015260801c16910152565b600019430143811161042257406001600160a01b031690565b634e487b7160e01b600052601160045260246000fd5b9190820180921161042257565b604080516020810192835260e89390931b908301529061047281604381015b03601f1981018352826103ae565b51902060005262010002602052604060002090565b604080516020810192835260e89390931b90830152906104aa8160438101610464565b5190206000526201000260205260006040812055565b916104cb8284610445565b9081546001600160601b038092168282160382811161042257821680916001600160601b03191617809355159182610519575b505061050b575050600090565b610514916105f8565b600190565b60601c1615905038806104fe565b916105328284610445565b906001600160601b03908180845460601c16911690038181116104225782546bffffffffffffffffffffffff60601b1916606082901b6bffffffffffffffffffffffff60601b16178355811615918261059257505061050b575050600090565b541615905038806104fe565b816105ac9194939294610445565b92600091600290810b91900b136105c65750505460c01c90565b90915460c01c67ffffffffffffffff809316039182116105e4575090565b634e487b7160e01b81526011600452602490fd5b9060020b908160081d916040805160208101908482528560f01b83820152602281526106238161037c565b51902060005262010007602052806000209061010091600160ff848607161b1981541680915515610656575b5050505050565b60019360ff938251906020820192835260101d60f81b838201526021815261067d8161037c565b5190206000526201000660205260002093830b07161b198154169055388080808061064f56fea264697066735822122085a0b9c906332b0ffdce425f6b4d2c8e6af69252daa560a32fd03e4ea07e306c64736f6c634300081300336080806040523461002b5762010011805460ff60e01b1916600160e71b1790556131d390816100318239f35b600080fdfe608080604052600436101561001357600080fd5b60003560e01c908163ac54c0fc1461187c575063f96dc7881461003557600080fd5b60203660031901126109c9576001600160401b03600435116109c9573660236004350112156109c957600435600401356001600160401b0381116109c9576004350160248101903682116109c957610120906004359003126109c95761009f6024600435016118b9565b906100ae6044600435016118c7565b906100bd6064600435016118c7565b916100cc60a4600435016118db565b6100da60c4600435016118db565b60e4600435013580151581036109c9576100f9610104600435016118b9565b9661012460043501356001600160401b0381116109c95786604382600435010112156109c957610130602482600435010135611976565b9661013e6040519889611955565b60043582016024810135808a5201604401116109c9576020602482816000946004350101356044826004350101848c01376004350101358801015261018161227d565b5061018a61227d565b506001600160a01b0387811690861610156109c957604080516001600160a01b0387811660208301908152908a16928201929092526004356084013560608201526101e281608081015b03601f198101835282611955565b519020928360005262010009602052600160ff60406000208280604051926102098461191f565b54848116845261ffff8160081c166020850152848160181c16604085015261ffff8160201c166060850152848160301c166080850152848160381c1660a0850152848160401c1660c085015260401c1614600014611875576084600435013560601c5b60405197610279896118e9565b8289526020890152838060a01b0316604088015251161161184a57600160ff8551511603611820576020840151600060806040516102b681611904565b82815282602082015282604082015282606082015201526000526201000f602052604060002094604051956102ea87611904565b60018154916001600160801b03831692838a5260801c60208a015201546001600160801b03811660408901526001600160401b038160801c16606089015260c01c6080880152156109c95760405193610342856118e9565b1515845260020b602084015260020b6040830152605b60ff821614600014610dec57506040858051810103126109c95761038a604061038360208801611991565b96016119a5565b6103b06103ab6103a36001600160801b03875116611ef3565b928385611aec565b6119b2565b6103dd6001600160801b03855116602084015160020b604085015160020b906103e3865115948592611b7c565b92611b7c565b926001600160801b0383168111610dbd5750156109c9575b6001600160801b0389166004811015610d9157509061042991610800600160801b03936000905b1590611a2f565b1693602083015160020b604084015160020b8760018060a01b0360408801511680610cdf575b5050505060208401519460a0855101519061046a8388612cd5565b6001600160401b0360808401511691610482826126c1565b6104998751151561049289612904565b908b6128dc565b9586600052620100036020526040600020968754936001600160601b03851615600014610c35576104c86128cb565b91600052620100046020526040600020805463ffffffff808516908260a01c1614610c0b576001600160a01b03811615610bf5575b505060038160041c1615159081610b39575b81610b1c575b5015610af2578a6001600160601b036001600160401b036106d39d61060b8a878f61073b9f9d6106289a6106d99f926105fe8e858e61060497549061ffff60801b61055f8761293c565b60801b16918f8516906001600160901b031916179063ffffffff60601b9060601b16171790555b6105f86105eb6040602086015160020b95015160020b8c6105ab89839f8a8a916129a3565b6105b789838a846129a3565b6105c1878261296b565b80546001600160601b036105d788828416612a79565b16906001600160601b03191617905561296b565b918d835460601c16612a79565b9061275b565b8a612aab565b9387612aab565b0316951615610a88575b6000546001600160a01b0316908a6127a9565b600052620100056020526040600020916001600160601b0361066b84549361066583861680956001600160401b038860601c169086851690612819565b9361278e565b1663ffffffff60a01b61067c6128cb565b60a01b16926001600160401b0360c01b1617906001600160401b0360601b9060601b16171790556106c8602086015160020b604087015160020b90836001600160801b03875116612b4d565b988991949293611b61565b85612adc565b6001600160801b03811615801590610a81575b15610a78576106fa906119fc565b955b6001600160801b0382161590811591610a70575b5015610a5f5761073361072d6107276020936119fc565b97611b61565b96611b61565b940151612187565b511582916107498196611b61565b9382159081610a4f575b5015610a2157505050915b91925b6000546001600160a01b03908116929081166109f85750600185161515916000549260ff8460a81c166109ce576001600160801b033416933485036109c95760ff60a81b1916600160a81b176000556040966108839486926002929190600f8a900b80156109bc5760008113156108ee57506001600160801b038a1690156108de576000908b51602081019088825260008e8201528d8152610802816118e9565b519020600052620100106020528b600020908b82546001600160801b03808216921682116000146108c25750506001600160801b036108458354928284166119e3565b16906001600160801b0319161790555b6001600160801b03811615610895579061086f9186612529565b161515926001600160a01b031691806122ce565b825191600f0b8252600f0b6020820152f35b50806108a2575b5061086f565b60008080806108bc94895af16108b66124c8565b506124f8565b3861089c565b6001600160801b0319169092556108d992506119e3565b610855565b906108e99186612529565b61086f565b6000136108fd575b505061086f565b6109068a6124a7565b6001600160801b03169015610991578a51602081019087825260008d8201528c8152610931816118e9565b519020600052620100106020528a600020906001600160801b03610959835492828416611a14565b16906001600160801b03191617905580610977575b505b38806108f6565b600080808061098b94895af16108b66124c8565b3861096e565b600080806001600160801b036109ab6109b7968396611a14565b16895af16108b66124c8565b610970565b5050806108a2575061086f565b600080fd5b60405162461bcd60e51b8152602060048201526002602482015261445360f01b6044820152606490fd5b604095610883939185916002916108e990600183161515906001600160a01b03168a87806122ce565b9194929181610a3f575b50610a37575b5061075e565b905038610a31565b9050600f0b81600f0b1338610a2b565b9050600f0b84600f0b1338610753565b50602061073361072d600097611b61565b905038610710565b506000956106fc565b50866106ec565b895115610ac257610aa060208b015160020b8261296b565b600181546001600160601b038116906001600160601b03191617179055610615565b610aed610ad660408c015160020b8361296b565b60016001600160601b03825460601c16179061275b565b610615565b60405162461bcd60e51b815260206004820152600260248201526125ab60f11b6044820152606490fd5b610b339150600360029160041c161015838b611aec565b38610515565b9050610b5460408b015160020b60208c015160020b9061291f565b60408b015160008160020b13600014610bc05762ffffff16905b6040831615918215610ba2575b5062ffffff806001600f86161b169116149081610b9a575b509061050f565b905038610b93565b62ffffff908116600f851681811c8316901b90911614915038610b7b565b627fffff198160020b14610bdf5760020b60000362ffffff1690610b6e565b634e487b7160e01b600052601160045260246000fd5b6001600160a01b031916600117905538806104fd565b60405162461bcd60e51b815260206004820152600260248201526112d560f21b6044820152606490fd5b50506001600160601b03610c4e8382869d9a9d1661278e565b166001600160601b0319841617809a5563ffffffff8a60601c169961ffff80610c768b61293c565b169160801c1603610cb5576106d399876001600160601b036001600160401b0361073b9a61060b8a878f6106d99d6106289a610604926105fe8e610586565b60405162461bcd60e51b815260206004820152600260248201526125a960f11b6044820152606490fd5b60209260008d610d258c60018060a01b0384541694604051998a9889978896632dd148f160e01b885260018060a01b03169160018060a01b031690339060048901612200565b03925af18015610d8557600090610d4a575b610d41915061224d565b3880878161044f565b506020813d602011610d7d575b81610d6460209383611955565b810103126109c957610d78610d41916119a5565b610d37565b3d9150610d57565b6040513d6000823e3d90fd5b91906001600160801b03600319840111610bdf57610800600160801b0393610429936003190190610422565b6001600160801b0384168110610dd757506109c9576103fb565b919290610de55750906103fb565b91506103fb565b90949192919060ff8116605c036113cc57506060818051810103126109c95784610e1860208301611991565b610e306060610e29604086016119a5565b94016119a5565b92610e526103ab610e4a6001600160801b03885116611ef3565b958686611aec565b1561129d57915b602082015160020b86604084015160020b60018060a01b0360408901511690816111ef575b5050505060208501519060808501516001600160401b031690610ea0856126c1565b98899281511515610eb083612904565b610eba91876128dc565b6000526201000360205283856040600020928354936001600160601b0385166001600160601b0385161115610eee90612e80565b86856001600160601b0381166001600160601b03871614938681866000149b63ffffffff9b6040986001600160401b0398610faa9f97610f7d96610f85996111c7575050805471ffffffffffffffffffffffffffffffffffff191690555b61115a575b610f77610f6f602083015160020b9a8b93015160020b9c838d612f46565b9f8c8c612fad565b99612aab565b92878d612aab565b03169661114a575b5061113a575b5060601c1660018060a01b036000541684866127a9565b60005262010005602052604060002090610fd38254916001600160401b038360601c1690612eca565b9863ffffffff600a81610ff2818660a01c16610fed6128cb565b612cbf565b16041660ff8111156110e3575b5061109d998796876110a261108e60209961106d6110b69d6110ae9b61109d9b8b6110a79b6001600160601b036107279e16611046816001600160601b0384161115612e80565b6001600160601b03821681036110bd57505081546001600160c01b03191690915550612cd5565b60408b82015160020b91015160020b90856001600160801b03865116612b4d565b6106d361109d87959395611b61565b6124a7565b612ffe565b9990611b61565b930151612187565b9192610761565b6001600160601b03916110cf91612eb1565b16906001600160601b031916179055612cd5565b84600098979896939296526201000960205260ff60406000205460301c161161111157909338969596610fff565b60405162461bcd60e51b81526020600482015260016024820152602560f91b6044820152606490fd5b6111449086612f0d565b38610f93565b6111549088612f0d565b38610f8d565b80511561119657611172602082015160020b8b61296b565b80546bfffffffffffffffffffffffe8116906001600160601b031916179055610f51565b6111c26111a98a83015160020b8c61296b565b6bfffffffffffffffffffffffe815460601c169061275b565b610f51565b6111db6001600160601b0391828416612eb1565b16906001600160601b031916179055610f4c565b602093955060008c6112378960018060a01b03845416946040519a8b9889978896632a179e9b60e01b885260018060a01b03169160018060a01b031690339060048901612200565b03925af18015610d8557879260009161125e575b506112559061224d565b38868180610e7e565b9250506020823d602011611295575b8161127a60209383611955565b810103126109c95761125561128f88936119a5565b9061124b565b3d915061126d565b90506001600160801b03835116602087015160020b604088015160020b906112ca6103dd8a511592611b7c565b926001600160801b0383168111611393575080156109c957611317935b6ffffffffffffffffffffffffffffffffb6001600160801b03821611156113845750156001600160801b03611a2f565b610800600160801b038082161461135457610800600160801b0360016e1fffffffffffffffffffffffffffff8893600b1c1601600b1b1691610e59565b60405162461bcd60e51b81526020600482015260086024820152676f766572666c6f7760c01b6044820152606490fd5b61138d906119fc565b90610422565b6001600160801b03841681106113b25750806109c957611317936112e7565b6113179493826113c35750926112e7565b939250916112e7565b9196959492909160ff8116605d036116e55750602001519181518201916040818403126109c9576020810151906001600160a01b03821682036109c9576040810151906001600160401b0382116109c95760208501603f8383010112156109c95760208282010151916001600160401b0383116116cf578260051b90604051936114596020840186611955565b8452602084019160208398016040828487010101116109c95783820160400192915b604082828701010184106116ba5750505050506114a58351151561149e85612904565b90876128dc565b60005262010004602052604060002090604051916114c2836118e9565b549460018060a01b0386168352602083019363ffffffff8760a01c168552604084019660c01c87528251156000146115c8575050505061109d61072d61158b6110b6958b9561109d9a9b9c6001600160401b0363ffffffff6115929851169351165b60008054909461153e916001600160a01b03168d866127a9565b6000526201000560205260406000208054916001600160401b038116611598575b506001600160c01b031982169055600a1b6108006001606a1b031691611585908361315a565b90612ffe565b9890611b61565b92612187565b6108006001606a1b03919550916115bf611585936001600160401b038360601c1690612a92565b9591509161155f565b9198969350919896939450986000995b88518b10156116205760019060208c60051b8b010151604051906020820192848060a01b03168352604082015260408152611612816118e9565b51902060601c9a01996115d8565b9851969950949793969295919490939092916001600160a01b0390811691160361169057511561167a5761159261109d61072d61158b61109d986110b6965190866001600160401b0363ffffffff8460401c169316611524565b634e487b7160e01b600052603260045260246000fd5b60405162461bcd60e51b815260206004820152600260248201526104b560f41b6044820152606490fd5b6020806040948651815201940193925061147b565b634e487b7160e01b600052604160045260246000fd5b605e91929596975060ff16146000146117e95760200151926020818051810103126109c957602001519063ffffffff821682036109c9576117338151151561172c83612904565b90866128dc565b6000526201000460205263ffffffff821663ffffffff60406000205460a01c16106117bf576117b96117b261109d9261177f6110b69561109d9860018060a01b036000541690846127a9565b600052620100056020526108006001606a1b0360406000208054906001600160401b0360c01b82169055600a1b1661315a565b9590611b61565b93611b61565b60405162461bcd60e51b81526020600482015260026024820152614b4160f01b6044820152606490fd5b60405162461bcd60e51b815260206004820152600f60248201526e125b9d985b1a590818dbdb5b585b99608a1b6044820152606490fd5b60405162461bcd60e51b8152602060048201526002602482015261504960f01b6044820152606490fd5b60405162461bcd60e51b815260206004820152600360248201526249505360e81b6044820152606490fd5b600061026c565b346109c95760403660031901126109c9576004356001600160a01b038116036109c9576024359061ffff82168092036109c9576007602092148152f35b359060ff821682036109c957565b35906001600160a01b03821682036109c957565b35908160020b82036109c957565b606081019081106001600160401b038211176116cf57604052565b60a081019081106001600160401b038211176116cf57604052565b60e081019081106001600160401b038211176116cf57604052565b608081019081106001600160401b038211176116cf57604052565b90601f801991011681019081106001600160401b038211176116cf57604052565b6001600160401b0381116116cf57601f01601f191660200190565b51906001600160801b03821682036109c957565b519081151582036109c957565b156119b957565b60405162461bcd60e51b815260206004820152600260248201526112d360f21b6044820152606490fd5b6001600160801b039182169082160391908211610bdf57565b9060046001600160801b0380931601918211610bdf57565b9190916001600160801b0380809416911601918211610bdf57565b919290611a56576001611a4d611a47611a5395611aca565b92611aca565b92611a2f565b90565b611a5392611a7c92916001600160801b03918282168382161115611a8157031690611a86565b611b44565b900316905b906001600160801b0316908115611aaa5760401b600160401b600160c01b03160490565b634e487b7160e01b600052601260045260246000fd5b8115611aaa570490565b6001600160801b038091168015611aaa57600160801b048181116109c9571690565b80519192909115611b1d5715611b10576020015160020b905b60020b9060020b1290565b6040015160020b90611b05565b15611b37576040015160020b905b60020b9060020b121590565b6020015160020b90611b2b565b6001600160801b03811691906001600160c01b031682036109c957565b6001600160801b03166001607f1b8110156109c957600f0b90565b60020b620a276d1981121580611ee6575b156109c9576000811215611ee05780600003905b6001821615611ece576001600160881b036ffffcb933bd6fad37aa2d162d1a5940015b169160028116611eb2575b60048116611e96575b60088116611e7a575b60108116611e5e575b60208116611e42575b60408116611e26575b608090818116611e0b575b6101008116611df0575b6102008116611dd5575b6104008116611dba575b6108008116611d9f575b6110008116611d84575b6120008116611d69575b6140008116611d4e575b6180008116611d33575b620100008116611d18575b620200008116611cfe575b620400008116611ce4575b6208000016611cc9575b50600012611cba575b6001600160801b03906001600160401b038116611cb15760ff60005b169060401c011690565b60ff6001611ca7565b8015611aaa5760001904611c8b565b6b048a170391f7dc42444e8fa26000929302901c9190611c82565b6d2216e584f5fa1ea926041bedfe98909302811c92611c78565b926e5d6af8dedb81196699c329225ee60402811c92611c6d565b926f09aa508b5b7a84e1c677de54f3e99bc902811c92611c62565b926f31be135f97d08fd981231505542fcfa602811c92611c57565b926f70d869a156d2a1b890bb3df62baf32f702811c92611c4d565b926fa9f746462d870fdf8a65dc1f90e061e502811c92611c43565b926fd097f3bdfd2022b8845ad8f792aa582502811c92611c39565b926fe7159475a2c29b7443b29c7fa6e889d902811c92611c2f565b926ff3392b0822b70005940c7a398e4b70f302811c92611c25565b926ff987a7253ac413176f2b074cf7815e5402811c92611c1b565b926ffcbe86c7900a88aedcffc83b479aa3a402811c92611c11565b926ffe5dee046a99a2a811c461f1969c305302811c92611c07565b916fff2ea16466c96a3843ec78b326b528610260801c91611bfc565b916fff973b41fa98c081472e6896dfb254c00260801c91611bf3565b916fffcb9843d60f6159c9db58835c9266440260801c91611bea565b916fffe5caca7e10e4e61c3624eaa0941cd00260801c91611be1565b916ffff2e50f5f656932ef12357cf3c7fdcc0260801c91611bd8565b916ffff97272373d413259a46990580e213a0260801c91611bcf565b6001600160881b03600160801b611bc4565b80611ba1565b50620cb14a811315611b8d565b6001600160801b0380821691620100028310158061216e575b156109c957600160401b600160c01b039060401b168082811160071b9181831c926001600160401b03841160061b93841c9363ffffffff851160051b94851c9461ffff861160041b95861c60ff9687821160031b91821c92600f841160021b93841c94600160038711811b96871c1196171717171717179160808310156000146121625750607e1982011c5b8002607f928392828493841c81841c1c800280851c81851c1c800280861c81861c1c800280871c81871c1c80029081881c82881c1c80029283891c84891c1c800294858a1c868a1c1c800296878b1c888b1c1c800298898c1c8a8c1c1c80029a8b8d1c8c821c1c8002809d1c8d821c1c8002809e81901c90821c1c80029e8f80911c911c1c800260cd1c6604000000000000169d60cc1c6608000000000000169c60cb1c6610000000000000169b60ca1c6620000000000000169a60c91c6640000000000000169960c81c6680000000000000169860c71c670100000000000000169760c61c670200000000000000169660c51c670400000000000000169560c41c670800000000000000169460c31c671000000000000000169360c21c672000000000000000169260c11c674000000000000000169160c01c6780000000000000001690607f190160401b1717171717171717171717171717693627a301d71055774c8502906f028f6481ab7f045a5af012a19d003aa919820160801d60020b916fdb2df09e81959a81455e260799a0632f0160801d60020b9260009184841460001461214857505050905090565b61215185611b7c565b1611905061215d575090565b905090565b905081607f031b611f98565b506f0ffff5433e2b3d8211706e6102aa94728310611f0c565b60009081526201000f60209081526040918290208351918401516001600160801b039283166001600160801b0319608092831b16178255928401516060850151948401516001600160c01b031960c09190911b16921667ffffffffffffffff60801b9490931b939093169190911717600190910155565b565b6001600160a01b0391821681529181166020830152918216604082015291166060820152600291820b608082015291900b60a08201526001600160801b039190911660c082015260e00190565b1561225457565b60405162461bcd60e51b81526020600482015260016024820152602d60f91b6044820152606490fd5b6040519061228a826118e9565b8160408051916122998361191f565b60009283815283602082015283838201528360608201528360808201528360a08201528360c082015281528260208201520152565b936001600160a01b03929091848416156109c957600093600f83900b85811315612394575050506001600160801b039181831690600014612387576040846123168789612692565b815262010010602052209182548480821692168211600014612368575050826123438354928284166119e3565b16906001600160801b0319161790555b811615612363576121fe9261258f565b505050565b6001600160801b031916909255919250612381916119e3565b90612353565b925050506121fe9261258f565b859193929750959395126123ab575b505050505050565b6123b4906124a7565b931561240757506123c89060409394612692565b81526201001060205220908154906123ec6001600160801b03918216828416611a14565b16906001600160801b0319161790555b3880808080806123a3565b938280956001600160801b03829660405192602084019563a9059cbb60e01b8752166024840152166044820152604481526124418161193a565b51925af161244d6124c8565b9181612464575b5061245f91506124f8565b6123fc565b825180159250821561247e575b505061245f915038612454565b60209192508390810103126124a4575061249d602061245f92016119a5565b3880612471565b80fd5b600f0b6f7fffffffffffffffffffffffffffffff198114610bdf5760000390565b3d156124f3573d906124d982611976565b916124e76040519384611955565b82523d6000602084013e565b606090565b156124ff57565b60405162461bcd60e51b81526020600482015260026024820152612a2360f11b6044820152606490fd5b916001600160801b03918281168383161061256557612547916119e3565b1680612551575050565b6000808080936121fe955af16108b66124c8565b60405162461bcd60e51b8152602060048201526002602482015261454360f01b6044820152606490fd5b916001600160a01b0381166125ee57506001600160801b0380911690816125655760009182038181116125da571691826125c857505050565b81806121fe9481935af16108b66124c8565b634e487b7160e01b83526011600452602483fd5b6040516323b872dd60e01b602082019081526001600160a01b0390941660248201523060448201526001600160801b0390921660648301526000928392839061263a81608481016101d4565b51925af16126466124c8565b9080612657575b6121fe91506124f8565b508051801590811561266f575b506121fe915061264d565b602091508290810103126109c95761268c60206121fe92016119a5565b38612664565b604080516001600160a01b0392831660208201908152939092168282015281526126bb816118e9565b51902090565b80600a1c9060018216159081612735575b5080612714575b156126ea576001600160601b031690565b60405162461bcd60e51b8152602060048201526002602482015261119160f21b6044820152606490fd5b506001600160601b036e3fffffffffffffffffffffffffffff8216106126d9565b90506ffffffffffffffffffffffffffffffc006001600160801b038216911614386126d2565b80546bffffffffffffffffffffffff60601b191660609290921b6bffffffffffffffffffffffff60601b16919091179055565b9190916001600160601b0380809416911601918211610bdf57565b9263ffffffff919380511515906040602082015191015191604051956020870197885260018060a01b03166040870152606086015260020b608085015260020b60a08401521660c082015260c081526126bb8161191f565b9060016001600160401b0380931601918211610bdf57565b929190916001600160801b038082161561289d57831615612896576001600160401b03938483168582161461288e5761287a6128748694846128688161286e612880978b6128688c9b82611a14565b916128a4565b99611a14565b94612801565b93612801565b16911601908111610bdf5790565b935050505090565b5091505090565b5050505090565b6001600160401b03926128c7926001600160801b03918216928516911602611ac0565b1690565b63ffffffff804211611a5357421690565b9160405191602083019384521515604083015260020b6060820152606081526126bb8161193a565b805115612915576020015160020b90565b6040015160020b90565b600291820b910b0390627fffff198212627fffff831317610bdf57565b612956906020604082015191015160020b9060020b61291f565b61ffff908162ffffff821610156109c9571690565b604080516020810192835260e89390931b908301529061298e81604381016101d4565b51902060005262010002602052604060002090565b9290926129b0838261296b565b9182546001600160601b03808216159182612a6b575b50506129d4575b5050505050565b8360ff93612a249260019660020b9760020b881215612a46575b50506129fa8184612e32565b60005262010006602052604060002092610100938686868a60081d830b07161b8154179055612e59565b6000526201000760205260406000209307161b815417905538808080806129cd565b81546001600160c01b031660c09190911b6001600160c01b03191617905538806129ee565b60601c1615905038806129c6565b91906001600160601b038091840116921682106109c957565b6001600160401b039182169082160391908211610bdf57565b81612ab89194939461296b565b92600290810b91900b13612ace57505460c01c90565b611a53915460c01c90612a92565b9091612ae6575050565b60400190612aff6001600160801b039182845116612b04565b169052565b91906000908181600f0b12600014612b33576001600160801b0380918303811685031693168310156124a45750565b6001600160801b0380918116850116931683106124a45750565b600094938593849391612b5f91612c8c565b9390926001600160801b0380821690808616821015612b8a575050505090612b879291612c03565b91565b9798509196909190851611612ba8575090612ba59291612bc7565b92565b92819550612bc1945083612bbb92612c03565b93612bc7565b91600190565b906001600160801b0380848195938280951683821611600014612bfb5703165b1691160260401c9081169081036109c95790565b900316612be7565b916001600160801b038281169082161115612c2157611a5392612c3e565b90611a5392612c3e565b81810292918115918404141715610bdf57565b90612c7f91612c5f612c5085846119e3565b946001600160c01b0392611a86565b1692612c776001600160801b03948580931690612c2b565b911690611ac0565b9081169081036109c95790565b9190918060020b8360020b90808213156109c957620a276d19136109c957620cb14a126109c9576103dd611a5391611b7c565b63ffffffff9182169082160391908211610bdf57565b90600082815262010017602081815263ffffffff946040948686862054169081612d11575b50508352522090421663ffffffff19825416179055565b860151969794966001600160801b0316959394919392905b88811642811015612e225762093a80918282049280840293808504821490151715612dd257808301808411612e0e57819004818102918183041490151715612dd2578b9190821642811015612de6578291612d8391612cbf565b165b1691612d918984612c2b565b90878b526201001685528b878c2091168b528452858a208054918201809211612dd257550188811115612d2957634e487b7160e01b88526011600452602488fd5b634e487b7160e01b8b52601160045260248bfd5b505050804203428111612dfa578a90612d85565b634e487b7160e01b8a52601160045260248afd5b634e487b7160e01b8c52601160045260248cfd5b5050919450959492913880612cfa565b90604051906020820192835260020b60101d60f81b6040820152602181526126bb816118e9565b90604051906020820192835260020b60081d60f01b6040820152602281526126bb816118e9565b15612e8757565b60405162461bcd60e51b815260206004820152600260248201526125a160f11b6044820152606490fd5b6001600160601b039182169082160391908211610bdf57565b6001600160401b0391600283821601838111610bdf5783168284161115612f0557612ef9839160011993612a92565b1601908111610bdf5790565b505050600090565b604080516020810192835260e89390931b9083015290612f3081604381016101d4565b5190206000526201000260205260006040812055565b91612f6b612f54838561296b565b918254906001600160601b03928391828416612eb1565b1680916001600160601b03191617809355159182612f9f575b5050612f91575050600090565b612f9a916130e7565b600190565b60601c161590503880612f84565b91612fd3612fbb838561296b565b916001600160601b0391829182855460601c16612eb1565b612fdd818561275b565b16159182612ff2575050612f91575050600090565b54161590503880612f84565b92909493916001600160401b038093168061301c575b505050509190565b6001600160801b038093160260301c926001600160901b03838516941684036109c957831561301457938161305e6130aa9660606130a49695015116866130b4565b9261309c602061309061109d61308a611a7c8688511661308481898d160260401c611b44565b9a611a86565b99611b61565b93019282845116612b04565b169052611a14565b93611a14565b9138808080613014565b6001600160401b03916001600160801b039283911666010000000000000191160260301c8181116130e3571690565b5090565b8160020b916130f68183612e59565b60005262010007602052604060002061010090600160ff838707161b1981541680915515613125575b50505050565b61313360ff92600194612e32565b6000526201000660205260406000209360081d830b07161b1981541690553880808061311f565b9160009160009061317a6020820151604083015160020b9060020b612c8c565b915191929091156131915750611a53929394612c03565b9350612b879294612bc756fea264697066735822122006c4d15fc104f44466fedbc144c9231f440f6fa07c45a842cc259e535141fa1364736f6c634300081300336080806040523461002b5762010011805460ff60e01b1916600160e71b17905561352590816100318239f35b600080fdfe608080604052600436101561001357600080fd5b60003560e01c908163ac54c0fc146116c3575063f96dc7881461003557600080fd5b602036600319011261077c576001600160401b036004351161077c5736602360043501121561077c576001600160401b03600435600401351161077c573660246004356004013560043501011161077c576040516100928161176c565b61009a6117a8565b808252606060208301526004356004013560c01161077c576100c06024600435016118f0565b906100cf6044600435016118fe565b906100de606460043501611912565b916100ed608460043501611920565b926001600160801b0361010460a460043501611934565b9461011360c4600435016118f0565b9515156060860152166040840152600f0b60208301526001600160a01b0316905260c09160ff166000190161077c5761014e60ff821661183d565b61015b6040519182611787565b60ff8216808252601f199061016f9061183d565b0160005b81811061167d57505060208401526000915b60ff821683106111875783516040518561019e8261171b565b600082526000602083015260006040830152600060608301526101bf6117a8565b6080830152604051926101d184611736565b6101d96117cd565b84526101e361181e565b60208501526040516101f48161176c565b60008152600060208201526040850152602082015151916001830183116108dc579293906102246001840161183d565b926102326040519485611787565b600101808452601f19906102459061183d565b013660208501376000905b6020850151908151831015610e3857516001600160a01b039081169160209061027a908590611863565b510151511690818110806040890152600014610e2c57865260208601525b60406102a8826020870151611863565b510151855160208701516001600160a01b0390811691166102c761181e565b928051610dc6575b505050602083015260005b6102e8826020870151611863565b515151811015610c645761030b81610304846020890151611863565b5151611863565b51865160208801518251929792916001600160a01b03908116911661032e6117cd565b506103376117cd565b508082101561077c57604080516001600160a01b039384166020820190815293909216908201526060810183905260019160ff9161038281608081015b03601f198101835282611787565b5190209283600052620100096020526040600020908380604051936103a685611751565b54858116855261ffff8160081c166020860152858160181c16604086015261ffff8160201c166060860152858160301c166080860152858160381c1660a086015260401c85811660c08601521614600014610c5c5760601c5b6040519461040c86611736565b8286526020860152838060a01b03166040850152511611610c3157600160ff8251511603610c075780855287516020808a01519089015160608a01516040808c0151908601516001600160a01b039485169590851694919391169184610a18575b505050505050506080860151604051906104868261176c565b600080835260208301528051156109fd576040890151158252600060208301525b6040810151610939575b506040850152608087015196604051956104ca87611736565b6104d2611941565b875260006020880152600060408801526020865101516104f0611941565b506000526201000f60205260406000206040519061050d8261171b565b60018154916001600160801b0383169283855260801c602085015201546001600160801b03811660408401526001600160401b038160801c16606084015260c01c60808301521561077c57875260206080890151015115610924575b60208801516040870151885160ff602084015116918c8361083c575b5050505060408101906001600160801b038251168061069f575b50505060408801519460005b86518110156105de57806105d88c6105d28c8c836105cb6001988f611863565b5192611f49565b91611de9565b016105ab565b509561067e9493955087819a9992989399602060808501510151610688575b5050602091505101519051906000526201000f60205260016040600020916001600160801b038151166001600160801b0319602083015160801b161783556001600160801b03604082015116906001600160401b0360801b606082015160801b169060806001600160401b0360c01b91015160c01b16911717910155611854565b94919093946102da565b60606106969401519061197a565b888882826105fd565b905160009283929115610781576001600160801b039150511660208951015160018060a01b0360065416916107318c51916103746001600160801b03845116946001600160801b03602086015116926001600160801b03604087015116956001600160401b036080816060840151169201511690604051978896602088019a632ee1158760e01b8c5260248901612f4a565b51915af461073d612f95565b901561077c576107598160208061077494518301019101612ff6565b6001600160801b0360208c9493945101911690525b8b611de9565b89808061059f565b600080fd5b5060208951015160018060a01b0360065416916107fb8c51916103746001600160801b03845116946001600160801b03602086015116926001600160801b03604087015116956001600160401b036080816060840151169201511690604051978896602088019a630a9bc21960e21b8c5260248901612f4a565b51915af4610807612f95565b901561077c576108238160208061077494518301019101612ff6565b6001600160801b0360208c94939451019116905261076e565b61085a61086a916001600160801b0395866040890151169185611eca565b9485919451169251151593611e49565b91156109085780156108f257600160401b600160c01b0361088f9260401b1604611f0e565b905b80156108b5576001600160801b0391905b151583521660408201528a80808c610585565b6001600160801b03600181841601116108dc5760016001600160801b0380931601906108a2565b634e487b7160e01b600052601160045260246000fd5b634e487b7160e01b600052601260045260246000fd5b6001600160801b0361091e92160260401c611f0e565b90610891565b610934868860608b01518c61197a565b610569565b51156109c8576040880151156109b457602088015161096d906001600160a01b03165b6000546001600160a01b031661332f565b600052620100106020526001600160801b03604060002054166001607f1b81101561077c576109a690600f0b6020830151600f0b6118b3565b600f0b6020820152886104b1565b875161096d906001600160a01b031661095c565b6040880151156109e657875161096d906001600160a01b031661095c565b602088015161096d906001600160a01b031661095c565b6040890151151582526060890151600f0b60208301526104a7565b610a8e906001600160801b03604060018060a09a9698979a1b03600054169661ffff60208c510151169582519a8b9963109b753160e11b8b5260048b01523360248b015260448a0152606489015280511515608489015260ff60208201511660a489015201511660c486015260e4850190612f0a565b6101c06101848401526101c48301825180915260206101e485019301906000905b808210610ba0575050506000836020959381936101a483015203925af18015610b9457600090610b55575b61ffff915016908115610b2c5761ffff6000198301116108dc5760209051019061ffff82511661ffff806000198401168203116108dc5761ffff8092600019011690031690528780808080808061046d565b60405162461bcd60e51b81526020600482015260016024820152602d60f91b6044820152606490fd5b506020813d602011610b8c575b81610b6f60209383611787565b8101031261077c575161ffff8116810361077c5761ffff90610ada565b3d9150610b62565b6040513d6000823e3d90fd5b9194509192602060c06001926001600160801b0360a089518051600290810b855286820151900b8685015260408101511515604085015260608101511515606085015260ff608082015116608085015201511660a082015201950192018694939291610aaf565b60405162461bcd60e51b8152602060048201526002602482015261504960f01b6044820152606490fd5b60405162461bcd60e51b815260206004820152600360248201526249505360e81b6044820152606490fd5b5060006103ff565b50608085015185516020870151604083015194979693946001600160a01b03918216936001600160801b039360609391928516911681610d98575b50500151169081610d5c575b5050604084015115610d41576080840151610cdb60208251600f0b920151600f0b915b6060870151600f0b61188d565b90600f0b60608601526000608086015152600060206080870151015260006040608087015101526000606060808701510152610d178385611863565b90600f0b9052610d386020610d2f8482850151611863565b51015192611854565b90939491610250565b6080840151610cdb6020820151600f0b9151600f0b91610cce565b6000526201000c6020526040600020906001600160801b03610d82835492828416611e15565b16906001600160801b0319161790558580610cab565b6000526201000c60205260406000209084610db7835492828416611e15565b16908519161790558980610c9f565b602001511580159290610e245750905b825260018060a01b0316806000526201000a90816020526001600160801b0360406000205460081c16602084015260005260205261ffff60406000205460881c1660408201528680806102cf565b905090610dd6565b60208701528552610298565b85856060890151600f0b610e5160208401515183611863565b52815191600080935b602083015151851015610eb75790610e8e610e9492610e798787611863565b51600f0b60018060a01b0360005416806130d5565b9061188d565b92610eb06020610ea78382860151611863565b51015191611854565b9390610e5a565b6060610eeb610ecc6020879601515186611863565b516000546001600160a01b03169490610e8e908590600f0b87806130d5565b91015115156000549160ff8360a81c1661115d576001600160801b0334169234840361077c5760ff60a81b1916600160a81b17600055600f81900b801561114e57600081131561107557506001600160801b03811691156110665760009160405160208101908682526000604082015260408152610f6881611736565b5190206000526201001060205260406000209182546001600160801b038082169216821160001461104a5750506001600160801b03610fab835492828416611e30565b16906001600160801b0319161790555b6001600160801b0381161561101b57610fd3926133a7565b60405180916020820160208352815180915260206040840192019060005b818110610fff575050500390f35b8251600f0b845285945060209384019390920191600101610ff1565b5080611029575b5050610fd3565b600080808093611043955af161103d612f95565b50613376565b8180611022565b6001600160801b0319169092556110619250611e30565b610fbb565b50611070926133a7565b610fd3565b600013611086575b50505050610fd3565b61108f90611cef565b6001600160801b0316901561112257604051602081019084825260006040820152604081526110bd81611736565b519020600052620100106020526040600020906001600160801b036110e6835492828416611e15565b16906001600160801b03191617905580611107575b50505b8180808061107d565b60008080809361111b955af161103d612f95565b81806110fb565b600080611149946001600160801b0361113d83968496611e15565b16905af161103d612f95565b6110fe565b50505080611029575050610fd3565b60405162461bcd60e51b8152602060048201526002602482015261445360f01b6044820152606490fd5b611195836020860151611863565b516020820182116108dc5760206111bb81840184600435600401356024600435016118d8565b908092918101031261077c576111d26020916118f0565b9201916111e160ff821661183d565b6111ee6040519182611787565b60ff8216808252601f19906112029061183d565b0160005b81811061163157505082526000905b60ff811682106112ec57505060c0820182116108dc5760c061124681840184600435600401356024600435016118d8565b908092918101031261077c5760ff926001928261126460c0946118fe565b906001600160801b0361127960208301611912565b9161128660408201611920565b9061129360608201611934565b906112ac60a06112a560808401611934565b9201611934565b906040602089015198015191151560208301521515905215156060860152166040840152600f0b6020830152848060a01b03169052019301929050610185565b90926112f9848451611863565b519060a0810181116108dc578061132160a080930182600435600401356024600435016118d8565b908093918101031261077c5760a09061133c60208401611934565b92611349604082016118f0565b9361135660608301611920565b9060ff611365608085016118f0565b966001600160801b0360208a01519416604085015216602083015215159052358452019061139560ff821661183d565b6113a26040519182611787565b60ff8216808252601f19906113b69061183d565b0160005b8181106115c357505060408401526000905b60ff811682106114f657505060a0810181116108dc5760a06113fd81830183600435600401356024600435016118d8565b908092918101031261077c5761141281611934565b61141e60208301611934565b60ff61142c604085016118f0565b6001600160801b0361144c608061144560608901611920565b9701611920565b958160608a0151971660808801521660608601521660408401521515602083015215159052610100810160a08201116108dc57806114a06101006060930160a08301600435600401356024600435016118d8565b908093918101031261077c57600192826114bc61010094611934565b9060806114d760406114d060208501611934565b9301611934565b9301519215156040840152151560208301521515905201930190611215565b9091611506836040860151611863565b519060c0810181116108dc578061152e60c080930182600435600401356024600435016118d8565b908093918101031261077c576001928261154960c09461196c565b906115566020820161196c565b9061156360408201611934565b9060ff61157260608301611934565b916001600160801b0361159360a061158c608085016118f0565b9301611920565b1660a08801521660808601521515604085015215156060840152600290810b60208401520b9052019201906113cc565b604051908160c08101106001600160401b0360c08401111761161b578160c06020930160405260008152600083820152600060408201526000606082015260006080820152600060a0820152828286010152016113ba565b634e487b7160e01b600052604160045260246000fd5b6020906040516116408161171b565b6000815261164c61181e565b838201526060604082015261165f611941565b606082015261166c61181e565b608082015282828601015201611206565b60209060405161168c81611736565b606081526116986117a8565b838201526040516116a88161176c565b60008152600084820152604082015282828601015201610173565b3461077c57604036600319011261077c576004356001600160a01b0381160361077c576024359061ffff821680920361077c576004602092148152f35b608081019081106001600160401b0382111761161b57604052565b60a081019081106001600160401b0382111761161b57604052565b606081019081106001600160401b0382111761161b57604052565b60e081019081106001600160401b0382111761161b57604052565b604081019081106001600160401b0382111761161b57604052565b90601f801991011681019081106001600160401b0382111761161b57604052565b604051906117b582611700565b60006060838281528260208201528260408201520152565b604051906117da82611736565b8160408051916117e983611751565b60009283815283602082015283838201528360608201528360808201528360a08201528360c082015281528260208201520152565b6040519061182b82611736565b60006040838281528260208201520152565b6001600160401b03811161161b5760051b60200190565b60001981146108dc5760010190565b80518210156118775760209160051b010190565b634e487b7160e01b600052603260045260246000fd5b90600f0b90600f0b019060016001607f1b0319821260016001607f1b038313176108dc57565b600f91820b910b039060016001607f1b0319821260016001607f1b038313176108dc57565b9093929384831161077c57841161077c578101920390565b359060ff8216820361077c57565b35906001600160a01b038216820361077c57565b359081600f0b820361077c57565b35906001600160801b038216820361077c57565b3590811515820361077c57565b6040519061194e8261171b565b60006080838281528260208201528260408201528260608201520152565b35908160020b820361077c57565b9260408101519060ff91826040850151169081611c42575b50506001600160801b036060840151166119ae575b5050505050565b516006548451926001600160a01b0391821692604091611a4c6119d0896123d2565b978451986001600160401b03608060208c019a633d9b87e160e11b8c528c60246001600160801b038351169101528c60446001600160801b036020840151169101528c60646001600160801b038b840151169101528c60848460608401511691015201511660a48b015260020b60c48a015260e4890190612f0a565b60c08251828151166101848a015261ffff806020830151166101a48b01528386830151166101c48b01526060820151166101e48a0152826080820151166102048a01528260a0820151166102248a01520151166102448701526020810151610264870152015116610284908185015283526102c08301918383106001600160401b0384111761161b57600093849360405251915af4611ae9612f95565b901561077c57611af76117a8565b50808051810103610120811261077c5760801361077c5760606001600160801b0381611c359360006020849760405193611b3085611700565b611b3b838201612fd4565b8552611b4960408201612fd4565b83860152611b58868201612fe2565b6040860152611b6960808201612fe2565b8686015286611b7a60a08301612fe2565b81611b8760c08501612fe2565b81611b9460e08701612fe2565b6001600160401b03611bb6610120611baf6101008b016130c1565b99016130c1565b97818a51991660808a0152168c880152166040860152168584015216905201528051611be9600f91820b8951830b61188d565b810b88526020820151810b90611c0660208a01928351830b61188d565b900b90528260408201511683611c2360408a019282845116611e15565b16905201511693019282845116611e15565b16905238808080806119a7565b611c6660608601916001600160801b0393611c618a8686511693611d07565b611d34565b855160208701519015159291849160009015611ce55750600081600f0b125b15158852600081600f0b13600014611cd55781165b169052845115159081146119925715611ccc576f0ffff5433e2b3d8211706e6102aa94725b1660808401523880611992565b62010002611cbf565b611cde90611cef565b8116611c9a565b81600f0b13611c85565b600f0b60016001607f1b031981146108dc5760000390565b8051611d259260209115611d285751600f0b915b0151600f0b61188d565b90565b810151600f0b91611d1b565b9060ff1660018103611d515750506001600160801b0316600f0b90565b60028103611d705750506001600160801b03611d259116600f0b611cef565b60048103611db657506001600160801b0390600f0b9116600f0b9081810291600160ff1b811460008312166108dc5781830514901517156108dc576127109005600f0b90565b600503611dd3576001600160801b03611d259216600f0b9061188d565b6001600160801b03611d259216600f0b906118b3565b602090611dfd611e0e938251600f0b61188d565b600f0b815201918251600f0b61188d565b600f0b9052565b9190916001600160801b03808094169116019182116108dc57565b6001600160801b0391821690821603919082116108dc57565b9015611e91576001600160801b039060009082166004811015611e6e57505050600090565b60031901918211611e7d575090565b634e487b7160e01b81526011600452602490fd5b6001600160801b039060009082166ffffffffffffffffffffffffffffffffb811115611ebc57505090565b600401918211611e7d575090565b611ed9939291611c6191611d07565b80600f0b906000821291600012600014611ef9576001600160801b031691565b611f0290611cef565b6001600160801b031691565b6001600160801b03811691906001600160c01b0316820361077c57565b9060020b9060020b0190627fffff198212627fffff8313176108dc57565b919392909360608201516121e6575b6040918282015190845192611f83825198602095868501958651918660029d8e94850b940b92612284565b848201978851612136575b60a08301926001600160801b03998a8551169081156121225792899695928c95928a8a965115159160009260001461207c57505050600097936120429386888b9a9998956103749551810b9a51900b935116915101519160018060a01b0360065416988d8989515116996120018a6123d2565b995190808983015116908383015116906001600160401b036080816060860151169401511693519b8c9a8b019d8e632370632b60e01b905260248c01613023565b51915af461204e612f95565b901561077c57612067818380899451830101910161308d565b95919890929651951690850152169101529190565b829a95839a9298610374949a98506120f896819651810b9451900b915101519260018060a01b0360065416998989515116996120b78a6123d2565b995190808983015116908383015116906001600160401b036080816060860151169401511693519b8c9a8b019d8e637c6dfe3d60e01b905260248c01613023565b51915af490612105612f95565b911561211f5750612067818380899451830101910161308d565b80fd5b505050505050505050509050600090600090565b61216f858301518451830b8651840b6001600160801b0360a0880151169061ffff6060885151015116926121698d6123d2565b94612722565b15611f8e5760005485835101518451865190895192898401946bffffffffffffffffffffffff199060601b168552603484015260e81b605483015260e81b6057820152603a81526121bf81611736565b5190206000908152620100128652869020805460ff60e81b1916600160e81b179055611f8e565b6121ef836123d2565b825190612200600292830b82611f2b565b820b845261221660208501918251840b90611f2b565b820b8091528351820b90620a276d198212159182612276575b8261226b575b5050156122425750611f58565b6064906040519062461bcd60e51b825260206004830152602482015261149560f21b6044820152fd5b131590503880612235565b620cb14a821315925061222f565b9493929491909160ff6080840151169384156123c9576122d160a08501976122bb6001600160801b03988998898c51169187611eca565b9790955116935115876122d78215948594612b93565b95612b93565b95858b16811161237f5750505061077c576122f5866122fa95611e49565b612698565b821561231957610800600160801b0360409116925b1515910152169052565b610800600160801b03808083161461234f5760016e1fffffffffffffffffffffffffffff604093600b1c1601600b1b169261230f565b60405162461bcd60e51b81526020600482015260086024820152676f766572666c6f7760c01b6044820152606490fd5b91925090858a16811061239f57505061077c576122f5866122fa95611e49565b9091506122fa9594836000146123bb5750906122f59194611e49565b949350906122f59193611e49565b50505050505050565b60208101908151156123eb575b60409150015160020b90565b805151916001600160801b039081841693620100028510158061267f575b1561077c57600160401b600160c01b039060401b168083811160071b9181831c926001600160401b03841160061b93841c9363ffffffff851160051b94851c9461ffff861160041b95861c60ff9687821160031b91821c92600f841160021b93841c94600160038711811b96871c1196171717171717179160808310156000146126735750607e1982011c5b8002607f928392828493841c81841c1c800280851c81851c1c800280861c81861c1c800280871c81871c1c80029081881c82881c1c80029283891c84891c1c800294858a1c868a1c1c800296878b1c888b1c1c800298898c1c8a8c1c1c80029a8b8d1c8c821c1c8002809d1c8d821c1c8002809e81901c90821c1c80029e8f80911c911c1c800260cd1c6604000000000000169d60cc1c6608000000000000169c60cb1c6610000000000000169b60ca1c6620000000000000169a60c91c6640000000000000169960c81c6680000000000000169860c71c670100000000000000169760c61c670200000000000000169660c51c670400000000000000169560c41c670800000000000000169460c31c671000000000000000169360c21c672000000000000000169260c11c674000000000000000169160c01c6780000000000000001690607f190160401b1717171717171717171717171717693627a301d71055774c85026f028f6481ab7f045a5af012a19d003aa919810160801d60020b906fdb2df09e81959a81455e260799a0632f0160801d60020b906000828214600014966001956040986126555750505090505b60020b84840152526123df565b61265e85612b93565b1611905061266c5750612648565b9050612648565b905081607f031b612495565b506f0ffff5433e2b3d8211706e6102aa94728510612409565b9291906126be579060016126b86126b2611d259594612700565b92612700565b92612698565b6001600160801b0391829181831681841611156126f85703165b1680156108f257600160401b600160c01b03611d259260401b1604611f0e565b9003166126d8565b6001600160801b0380911680156108f257600160801b0481811161077c571690565b939091929461ffff821660020b61273981856127e3565b60020b1590816127ce575b501561275557505050505050600090565b8360020b8360020b121561077c57838361276f9287612ae8565b156127bd5761277d936127f5565b6001600160801b0380911691161061279457600190565b60405162461bcd60e51b81526020600482015260016024820152601160fa1b6044820152606490fd5b505050506001600160801b0361277d565b6127d99150856127e3565b60020b1538612744565b9060020b9081156108f25760020b0790565b926128018184846128dc565b9162ffffff83161561284b5750506128189261287f565b60011b7001fffffffffffffffffffffffffffffffe6ffffffffffffffffffffffffffffffffe8216911681036108dc5790565b61287992506128738461286c84612866611d25999886612a21565b94612aa5565b928661287f565b9361287f565b90611e15565b9062ffffff1680156128c057611d25926126b86128bb6001600160801b0360208601511694511515926128b181612b93565b9460020b90611f2b565b612b93565b505050600090565b60020b627fffff1981146108dc5760000390565b90918060020b8360020b8181121561077c57600013908180612956575b1561291c57505091612916612910611d25946128c8565b916128c8565b916128dc565b9192918161294a575b501561293357505050600090565b61ffff611d259362ffffff9384169316911661299d565b60009150121538612925565b50600081126128f9565b9062ffffff8091169182156108f257160690565b9062ffffff8091169182156108f257160490565b62ffffff91821690821603919082116108dc57565b62ffffff806129ac8385612960565b161580156129f4575b156129c35750505050600090565b806129d86129d18486612974565b9386612974565b16911614156000146129eb575050600090565b611d2591612988565b5080612a008386612960565b16156129b5565b91909162ffffff808094169116029182169182036108dc57565b908060020b90600091828112612a935715612a8d5762ffffff9081169261ffff16916000198401828111612a795782612a5c85600193612974565b1601918211611e7d5750611d259291612a7491612a07565b612988565b634e487b7160e01b82526011600452602482fd5b50905090565b50611d25929150612aa3906128c8565b905b60008260020b12612ad657612ad061ffff611d259362ffffff169216612acb8184612974565b612a07565b90612988565b612ae2611d25926128c8565b90612a21565b929190916001600160801b0360208501511615612b4157612b18604091612b128561ffff95612b67565b94612b67565b93015116908162ffffff80921611159283612b34575b50505090565b1611159050388080612b2e565b50505050600090565b600291820b910b0390627fffff198212627fffff8313176108dc57565b908160020b8160020b13600014612b8a5790612b8291612b4a565b62ffffff1690565b612b8291612b4a565b60020b620a276d1981121580612efd575b1561077c576000811215612ef75780600003905b6001821615612ee5576001600160881b036ffffcb933bd6fad37aa2d162d1a5940015b169160028116612ec9575b60048116612ead575b60088116612e91575b60108116612e75575b60208116612e59575b60408116612e3d575b608090818116612e22575b6101008116612e07575b6102008116612dec575b6104008116612dd1575b6108008116612db6575b6110008116612d9b575b6120008116612d80575b6140008116612d65575b6180008116612d4a575b620100008116612d2f575b620200008116612d15575b620400008116612cfb575b6208000016612ce0575b50600012612cd1575b6001600160801b03906001600160401b038116612cc85760ff60005b169060401c011690565b60ff6001612cbe565b80156108f25760001904612ca2565b6b048a170391f7dc42444e8fa26000929302901c9190612c99565b6d2216e584f5fa1ea926041bedfe98909302811c92612c8f565b926e5d6af8dedb81196699c329225ee60402811c92612c84565b926f09aa508b5b7a84e1c677de54f3e99bc902811c92612c79565b926f31be135f97d08fd981231505542fcfa602811c92612c6e565b926f70d869a156d2a1b890bb3df62baf32f702811c92612c64565b926fa9f746462d870fdf8a65dc1f90e061e502811c92612c5a565b926fd097f3bdfd2022b8845ad8f792aa582502811c92612c50565b926fe7159475a2c29b7443b29c7fa6e889d902811c92612c46565b926ff3392b0822b70005940c7a398e4b70f302811c92612c3c565b926ff987a7253ac413176f2b074cf7815e5402811c92612c32565b926ffcbe86c7900a88aedcffc83b479aa3a402811c92612c28565b926ffe5dee046a99a2a811c461f1969c305302811c92612c1e565b916fff2ea16466c96a3843ec78b326b528610260801c91612c13565b916fff973b41fa98c081472e6896dfb254c00260801c91612c0a565b916fffcb9843d60f6159c9db58835c9266440260801c91612c01565b916fffe5caca7e10e4e61c3624eaa0941cd00260801c91612bf8565b916ffff2e50f5f656932ef12357cf3c7fdcc0260801c91612bef565b916ffff97272373d413259a46990580e213a0260801c91612be6565b6001600160881b03600160801b612bdb565b80612bb8565b50620cb14a811315612ba4565b60809080511515835260208101511515602084015260ff6040820151166040840152816001600160801b0391826060820151166060860152015116910152565b6001600160801b039182168152918116602083015291821660408201526001600160401b039283166060820152919092166080820152911660a082015260c081019190915260e00190565b3d15612fcf573d906001600160401b03821161161b5760405191612fc3601f8201601f191660200184611787565b82523d6000602084013e565b606090565b519081600f0b820361077c57565b51906001600160801b038216820361077c57565b9081606091031261077c5761300a81612fd4565b91611d25604061301c60208501612fd4565b9301612fe2565b969295909a99989491610120989461014089019c6001600160801b03988993848093168c5260020b60208c01521660408a01521660608801526001600160401b0380921660808801521660a086015260020b60c085015260020b60e0840152166101008201520152565b919082608091031261077c576130a282612fd4565b916130af60208201612fd4565b91611d25606061301c60408501612fe2565b51906001600160401b038216820361077c57565b91939290936000946020830151600f0b82600f0b13613137576131056001600160801b03604085015116836134c0565b613110575b50505050565b61312d949550606060018060a01b03845116930151151593613160565b903880808061310a565b60405162461bcd60e51b81526020600482015260016024820152604b60f81b6044820152606490fd5b91936001600160a01b03939184831661317b57505050505090565b85600f9692939495960b600096818880931360001461323257505050506001600160801b0390808216926000146132275785926131b8858761332f565b875262010010602052604087209182548480821692168211600014613208575050826131e8835492828416611e30565b16906001600160801b0319161790555b811615612b2e57611d259261340f565b6001600160801b03191690925591925061322191611e30565b906131f8565b5050611d259261340f565b829492919395975012613249575b50505050505090565b61325290611cef565b94156132a6575050906132649161332f565b825262010010602052604082209081549061328b6001600160801b03918216828416611e15565b16906001600160801b0319161790555b388080838180613240565b9181809492936001600160801b036132fb9760405192602084019563a9059cbb60e01b8752166024840152166044820152604481526132e481611700565b51925af16132f0612f95565b816133005750613376565b61329b565b8051801592508215613315575b50503861103d565b613328925060208091830101910161335e565b388061330d565b604080516001600160a01b03928316602082019081529390921682820152815261335881611736565b51902090565b9081602091031261077c5751801515810361077c5790565b1561337d57565b60405162461bcd60e51b81526020600482015260026024820152612a2360f11b6044820152606490fd5b916001600160801b0391828116838316106133e5576133c591611e30565b16806133cf575050565b6000808080936133e3955af161103d612f95565b565b60405162461bcd60e51b8152602060048201526002602482015261454360f01b6044820152606490fd5b916001600160a01b03811661346e57506001600160801b0380911690816133e557600091820381811161345a5716918261344857505050565b81806133e39481935af161103d612f95565b634e487b7160e01b83526011600452602483fd5b6040516323b872dd60e01b602082019081526001600160a01b0390941660248201523060448201526001600160801b0390921660648301526133e3926000928392919083906132e48160848101610374565b600081600f0b136000146134d5575050600190565b6134de90611cef565b6001600160801b039182169116119056fea26469706673582212206b2ac943df24ab2355aee8f2d5aa2e5d1fe1661371ccf8e14fb818116260a23e64736f6c634300081300336080806040523461002b5762010011805460ff60e01b1916600160e71b179055614c6290816100318239f35b600080fdfe6101e0604052600436101561001357600080fd5b60003560e01c80632370632b1461100b5780632a6f086414610e725780632ee1158714610c475780637b370fc2146104ba5780637c6dfe3d146100a45763ac54c0fc1461005f57600080fd5b3461009f57604036600319011261009f576004356001600160a01b0381160361009f5760243561ffff811680910361009f57602090600560405191148152f35b600080fd5b6001600160401b036001600160801b03806100be36611361565b9591989b94939a929796836100d49b929b6114e3565b9d168d521660208c01521660408a01521660608801526001600160401b03608088019616865260018060a01b0360005416916101646001600160401b0361011a88611a77565b9851169161015f6001600160401b0361015961014261013a8d8b8a612a98565b9c8b89612aff565b958261015082878d8c611caa565b16948b89611caa565b16611c42565b611c78565b966104ab575b61049c575b6101798782612219565b63ffffffff9561018e87421686868587612374565b61019a8585848661291d565b600052620100126020526040600020805497600a816101c5818c60c81c166101c0611a35565b6116fd565b16041660ff811115610451575b506101e6876001600160801b038a16611a5e565b976001600160801b036102056001600160481b038360801c1685612b76565b991690811561043e5750815460ff8160e81c16610414576fffffffffffffffffffffffffffffffff19161790555b6000546001600160a01b031690818403610381575b5050505061027f9161026591846001600160801b03885116611cfe565b6102796102748695939561150e565b611a46565b87611cdb565b80926001600160401b038395169081610300575b86866102fc6102b06102746102aa6102748b61150e565b9361150e565b926001600160801b036020816040840151169201511660405194859485929094936060926080850196600f0b8552600f0b60208501526001600160801b03809216604085015216910152565b0390f35b6001600160801b03160260301c906001600160901b036001600160801b0383169216820361009f57858215610293576102b09395506102fc9450610377610274610371856102aa9561036c61036661035e6102749a61027499611593565b96909461150e565b8d611529565b611695565b97611695565b9594505085610293565b92602092600086936103ac89978b6040519b8c98899788966349c1ae0f60e11b885260048801612ca2565b03925af1918215610408576103d06102659361027f956000916103d9575b50612cea565b91819388610248565b6103fb915060203d602011610401575b6103f381836114c2565b810190612c41565b896103ca565b503d6103e9565b6040513d6000823e3d90fd5b60405162461bcd60e51b815260206004820152600260248201526127a960f11b6044820152606490fd5b6001600160f01b03191690915550610233565b836000526201000960205260ff60406000205460301c161161047357896101d2565b60405162461bcd60e51b81526020600482015260016024820152602560f91b6044820152606490fd5b6104a68482612a5f565b61016f565b6104b58483612a5f565b61016a565b3660031901610280811261009f5760a01361009f576040516104db81611471565b6004356001600160801b038116810361009f5781526024356001600160801b038116810361009f5760208201526044356001600160801b038116810361009f5760408201526064356001600160401b038116810361009f5760608201526084356001600160401b038116810361009f57608082015260a43560020b60a4350361009f5760a03660c319011261009f5760405161057681611471565b60c435801515810361009f57815260e435801515810361009f5760208201526101043560ff8116810361009f576040820152610124356001600160801b038116810361009f576060820152610144356001600160801b038116810361009f5760808201526101203661016319011261009f57604051918260608101106001600160401b036060850111176109535760e03661016319011261009f5761014083016060840181106001600160401b038211176109535760405260ff6101643516610164350361009f576101643560608401526101843561ffff8116810361009f5760808401526101a43560ff8116810361009f5760a08401526101c43561ffff8116810361009f5760c08401526101e43560ff8116810361009f5760e084015260ff6102043516610204350361009f576102043561010084015260ff6102243516610224350361009f5761022435610120840152606083018352610244356020840152610264356001600160a01b038116900361009f57610264356040840152604051918260808101106001600160401b0360808501111761095357608083016040526000835260006020840152600060408401526000606084015260a4359080511515600014610c27576001600160801b038351166001600160801b0360808301511610155b15610bfd576107746001600160801b038451166138da565b9160015b61097f5750506107916001600160801b038351166138da565b60020b9060020b93818503610837575b61012084846001600160801b03815116906001600160801b036020820151166001600160801b03604083015116906001600160401b0360808160608601511694015116936001600160801b036060604051978051600f0b89526020810151600f0b60208a01528260408201511660408a01520151166060870152608086015260a085015260c084015260e0830152610100820152f35b60209081015160008181526201001883526040808220978252969092529490208054906000198201821061096957610873916000190190612346565b509063ffffffff906108a582421680949067ffffffff0000000082549160201b169067ffffffff000000001916179055565b604051926108b28461148c565b83526020830195600087526000526201001860205260406000209060005260205260406000208054600160401b811015610953576108f591600182018155612346565b91909161093d57610120958161093694511663ffffffff19845416178355511667ffffffff0000000082549160201b169067ffffffff000000001916179055565b83806107a1565b634e487b7160e01b600052600060045260246000fd5b634e487b7160e01b600052604160045260246000fd5b634e487b7160e01b600052601160045260246000fd5b6020860151610992828451151592612a36565b6000526201000760205260406000205481600014610bed576109d58261ffff60ff60015b1660ff6109cc84826101008b60020b0716613b69565b16011683613b7b565b90918315610ac35750915b8215610aa3576109fb91508360020b60081d60010b90613d7e565b905b8190610a0d838a51878b8b612d1b565b610a1785886148a6565b92839182610a29575b50505050610778565b610a57575b50610a3c575b818180610a20565b610a50919250838660208a015192896148fa565b9087610a34565b915050610a6d6020890151828651151591613e18565b908160020b9060020b03610a83575b8189610a2e565b9050610a93818851858989612d1b565b610a9d83866148a6565b90610a7c565b5060ff6008911660020b908360020b811d901b60020b0160020b906109fd565b60008115918215610afa575b5081159115610aee575b5015610ae9575060005b916109e0565b610ae3565b60ff915016158a610ad9565b9050808261009f5760ff906001600160801b03811615610be3575050607f5b6001600160401b03821615610bd957603f190160ff165b63ffffffff821615610bcf57601f190160ff165b61ffff821615610bc557600f190160ff165b60ff821615610bbb576007190160ff165b600f821615610bb1576003190160ff165b6003821615610ba5576001190160ff16906001905b16610b99575b8b610acf565b6000190160ff16610b93565b9060019060021c610b8d565b9060041c90610b78565b9060081c90610b67565b9060101c90610b56565b9060201c90610b44565b9060401c90610b30565b60801c9150610b19565b6109d58261ffff60ff60006109b6565b60405162461bcd60e51b815260206004820152600260248201526114d160f21b6044820152606490fd5b6001600160801b038351166001600160801b03608083015116111561075c565b610c50366113ff565b610c5e9695969391936114e3565b956001600160801b039586809216885281602089019916895216604087015260608601916001600160401b039384809216845216608087015260018060a01b0392836000541692610caf888461172b565b610cb9838561186a565b86610cf78383511697610ccc86886119ea565b6000526201000e602052600160301b600160b01b03604060002099600160301b019160301b166116b0565b1695805488610d0889828416611a1c565b1663ffffffff60801b610d19611a35565b60801b16916001600160601b0360a01b161717905551169260005416808303610e00575b505050509081610d6584610d576102fc95610d5f97611593565b96909361150e565b90611529565b81811615801590610df8575b15610def57610d7f90611665565b925b81811615801590610de7575b15610dd8576102aa610da1610da792611665565b9461150e565b935116604051938493849160409194936001600160801b03916060850196600f0b8552600f0b602085015216910152565b50610da76102aa60009461150e565b506001610d8d565b50600092610d81565b506001610d71565b9184939594916000602094610e2b604051998a968795869463668e2cdb60e01b865260048601612c59565b03925af1801561040857610d5f94610e51610d65926102fc96600091610e5a5750612cea565b94829394610d3d565b6103fb915060203d8111610401576103f381836114c2565b610e7b366113ff565b610e899695969391936114e3565b956001600160801b039586809216885281602089019916895216604087015260608601916001600160401b039384809216845216608087015260018060a01b0392836000541692610eda888461172b565b610ee4838561186a565b86610ef78383511697610ccc86886119ea565b875491169088808216808410610fea57505087546001600160a01b031981169098555050948616945b51169260005416808303610f63575b50866102746102fc87610da7610274610da16102748b610f5e8f610d5f610f568483611593565b9b909461150e565b61150e565b9184939594916000602094610f8e604051998a96879586946349c1ae0f60e11b865260048601612c59565b03925af1801561040857610da1610274610da793610f5e61027498610fc1610274966102fc9a600091610fcc5750612cea565b985050949550610f2f565b610fe4915060203d8111610401576103f381836114c2565b8d6103ca565b83610ff7919a949a611a5e565b16906001600160801b031916179055610f20565b61101436611361565b90959896979193946110246114e3565b956001600160801b03809916875288602088019a168a5288604088019b168b526001600160401b038092166060880152816080880191168152600160a01b6001900391826000541694816110778b611a77565b9351169261108784898489611b11565b611093848a8489611b11565b61109d8887611be7565b80546001600160601b03929190836110b784828416611c29565b16906001600160601b0319161790556110d08a88611be7565b91825460601c16906110e191611c29565b81546bffffffffffffffffffffffff60601b191660609190911b6bffffffffffffffffffffffff60601b161790558161111c84838a89611caa565b1692611129918987611caa565b1661113390611c42565b9061113d91611c78565b906111488784612219565b61115b63ffffffff421687878688612374565b6111678686858761291d565b6000908152620100126020526040902080548a8116908115611356576111a76001600160481b038260801c16925b61119f8d82611a1c565b938d8861295b565b908c63ffffffff60c81b6111b9611a35565b60c81b1693169062ffffff60e81b1617906001600160481b0360801b9060801b161717905560005416908184036112cb575b50505050928261121e61120d879594611218999785886102fc9b985116611cfe565b998a9294919561150e565b90611cdb565b828116158015906112c4575b156112bb5761123890611665565b955b82821615908115916112b3575b50156112a45761126261125c61126892611665565b9661150e565b9561150e565b95511691511660405194859485929094936060926080850196600f0b8552600f0b60208501526001600160801b03809216604085015216910152565b5061126861126260009661150e565b905088611247565b5060009561123a565b508661122a565b918495999794918a99979493866040519c8d95869563668e2cdb60e01b875260048701956112f896612ca2565b03815a602094600091f19687156104085761120d6102fc97869561132a6112189b61121e956000916113385750612cea565b9497995094978396506111eb565b611350915060203d8111610401576103f381836114c2565b8e6103ca565b6111a7600092611195565b61014090600319011261009f576001600160801b03600435818116810361009f57916024358060020b810361009f5791604435818116810361009f5791606435828116810361009f57916001600160401b0391608435838116810361009f579260a435908116810361009f579160c4358060020b810361009f579160e4358060020b810361009f579161010435908116810361009f57906101243590565b60e090600319011261009f576001600160801b0390600435828116810361009f5791602435818116810361009f5791604435828116810361009f57916001600160401b0391606435838116810361009f5792608435908116810361009f579160a435908116810361009f579060c43590565b60a081019081106001600160401b0382111761095357604052565b604081019081106001600160401b0382111761095357604052565b606081019081106001600160401b0382111761095357604052565b90601f801991011681019081106001600160401b0382111761095357604052565b604051906114f082611471565b60006080838281528260208201528260408201528260608201520152565b6001600160801b03166001607f1b81101561009f57600f0b90565b602001906115426001600160801b039182845116611547565b169052565b91906000908181600f0b12600014611579576001600160801b0380918303811685031693168310156115765750565b80fd5b6001600160801b0380918116850116931683106115765750565b91906115d66115b36115db926001600160401b03606087015116906115de565b936115d06001600160801b0380925116809287160260401c611648565b9461160e565b611648565b90565b6001600160401b03916001600160801b0392839116600160301b0191160260301c81811161160a571690565b5090565b906001600160801b03169081156116325760401b600160401b600160c01b03160490565b634e487b7160e01b600052601260045260246000fd5b6001600160801b03811691906001600160c01b0316820361009f57565b9060046001600160801b038093160191821161096957565b9060016001600160801b038093160191821161096957565b9190916001600160801b038080941691160191821161096957565b8115611632570490565b8181029291811591840414171561096957565b9190820180921161096957565b9190820391821161096957565b63ffffffff908116600019019190821161096957565b63ffffffff918216908216039190821161096957565b91909163ffffffff8080941691160191821161096957565b9060008281526201001e602081815263ffffffff946040948686862054169081611767575b50508352522090421663ffffffff19825416179055565b836001600160801b039199979594939699989298015116965b8181164281101561185a5762093a809081810491808302928084048214901517156118325780820180831161184657819004818102918183041490151715611832578a9285896117f58f9488968461181b9a81809416428110600014611820576117eb9293506116fd565b165b1696876116ba565b938c81526201001d8a522091168d528652611814888d209182546116cd565b9055611713565b611780565b50505061182d90426116da565b6117ed565b634e487b7160e01b8c52601160045260248cfd5b634e487b7160e01b8d52601160045260248dfd5b5050955090919395923880611750565b6001600160a01b03169061187e81836119ea565b60009082825262010020602090808252604094858520848652835263ffffffff9687878720541690816118cb575b505084528152838320918352522090421663ffffffff19825416179055565b826118e1919a989a9993979692999594956119ea565b85526201000e83526001600160801b038986205416975b828116428110156119d65762093a809081810491808302928084048214901517156119ae578082018083116119c2578190048181029181830414901517156119ae578b928661196f8f93879583611997998f82809516905042811060001461199c576119659293506116fd565b165b1695866116ba565b928c8c526201001f8a52808c20888d528a528b2091168a5287526118148d8a209182546116cd565b6118f8565b5050506119a990426116da565b611967565b634e487b7160e01b89526011600452602489fd5b634e487b7160e01b8a52601160045260248afd5b5050939490965096949691909138806118ac565b906040519060208201926001600160601b03199060601b168352603482015260348152611a16816114a7565b51902090565b91906001600160801b0380918401169216821061009f57565b63ffffffff8042116115db57421690565b600f0b60016001607f1b031981146109695760000390565b6001600160801b03918216908216039190821161096957565b80600a1c9060018216159081611aeb575b5080611aca575b15611aa0576001600160601b031690565b60405162461bcd60e51b8152602060048201526002602482015261119160f21b6044820152606490fd5b506001600160601b036e3fffffffffffffffffffffffffffff821610611a8f565b90506ffffffffffffffffffffffffffffffc006001600160801b03821691161438611a88565b929092611b1e8382611be7565b9182546001600160601b03808216159182611bd9575b5050611b42575b5050505050565b8360ff93611b929260019660020b9760020b881215611bb4575b5050611b688184612a0d565b60005262010006602052604060002092610100938686868a60081d830b07161b8154179055612a36565b6000526201000760205260406000209307161b81541790553880808080611b3b565b81546001600160c01b031660c09190911b6001600160c01b0319161790553880611b5c565b60601c161590503880611b34565b604080516020810192835260e89390931b9083015290611c1481604381015b03601f1981018352826114c2565b51902060005262010002602052604060002090565b91906001600160601b0380918401169216821061009f57565b906001600160481b038092166001600160401b030191821161096957565b9060016001600160481b038093160191821161096957565b6001600160481b03918216908216039190821161096957565b6001600160401b03918216908216039190821161096957565b81611cb791949394611be7565b92600290810b91900b13611ccd57505460c01c90565b6115db915460c01c90611c91565b9091611ce5575050565b604001906115426001600160801b039182845116611547565b9093926000946000938490858160020b8560020b9080821315611dab57620a276d1913611da757620cb14a126115765750611d3b611d4191611ea2565b93611ea2565b936001600160801b0380821690858116821015611d6a575050505090611d679291611deb565b91565b9798509196909190851611611d88575090611d859291611daf565b92565b92819550611da1945083611d9b92611deb565b93611daf565b91600190565b5080fd5b8280fd5b906001600160801b0380848195938280951683821611600014611de35703165b1691160260401c90811690810361009f5790565b900316611dcf565b916001600160801b038281169082161115611e09576115db92611e0f565b906115db925b90611e5091611e30611e218584611a5e565b946001600160c01b039261160e565b1692611e486001600160801b039485809316906116ba565b9116906116b0565b90811690810361009f5790565b9115611e89576001600160801b0380911691160260401c5b6001600160801b03811690810361009f5790565b6001600160c01b0391611e9c919061160e565b16611e75565b60020b620a276d198112158061220c575b1561009f5760008112156122065780600003905b60018216156121f4576001600160881b036ffffcb933bd6fad37aa2d162d1a5940015b1691600281166121d8575b600481166121bc575b600881166121a0575b60108116612184575b60208116612168575b6040811661214c575b608090818116612131575b6101008116612116575b61020081166120fb575b61040081166120e0575b61080081166120c5575b61100081166120aa575b612000811661208f575b6140008116612074575b6180008116612059575b62010000811661203e575b620200008116612024575b62040000811661200a575b6208000016611fef575b50600012611fe0575b6001600160801b03906001600160401b038116611fd75760ff60005b169060401c011690565b60ff6001611fcd565b80156116325760001904611fb1565b6b048a170391f7dc42444e8fa26000929302901c9190611fa8565b6d2216e584f5fa1ea926041bedfe98909302811c92611f9e565b926e5d6af8dedb81196699c329225ee60402811c92611f93565b926f09aa508b5b7a84e1c677de54f3e99bc902811c92611f88565b926f31be135f97d08fd981231505542fcfa602811c92611f7d565b926f70d869a156d2a1b890bb3df62baf32f702811c92611f73565b926fa9f746462d870fdf8a65dc1f90e061e502811c92611f69565b926fd097f3bdfd2022b8845ad8f792aa582502811c92611f5f565b926fe7159475a2c29b7443b29c7fa6e889d902811c92611f55565b926ff3392b0822b70005940c7a398e4b70f302811c92611f4b565b926ff987a7253ac413176f2b074cf7815e5402811c92611f41565b926ffcbe86c7900a88aedcffc83b479aa3a402811c92611f37565b926ffe5dee046a99a2a811c461f1969c305302811c92611f2d565b916fff2ea16466c96a3843ec78b326b528610260801c91611f22565b916fff973b41fa98c081472e6896dfb254c00260801c91611f19565b916fffcb9843d60f6159c9db58835c9266440260801c91611f10565b916fffe5caca7e10e4e61c3624eaa0941cd00260801c91611f07565b916ffff2e50f5f656932ef12357cf3c7fdcc0260801c91611efe565b916ffff97272373d413259a46990580e213a0260801c91611ef5565b6001600160881b03600160801b611eea565b80611ec7565b50620cb14a811315611eb3565b90600082815262010017602081815263ffffffff9460409486868620541690816122545750508352522090421663ffffffff19825416179055565b866001600160801b039199979594939699989298015116965b8181164281101561185a5762093a809081810491808302928084048214901517156118325780820180831161184657819004818102918183041490151715611832578a9285896122d88f948896846122f79a81809416428110600014611820576117eb9293506116fd565b938c8152620100168a522091168d528652611814888d209182546116cd565b61226d565b60020b600a0190627fffff8213627fffff1983121761096957565b60020b627fffff81146109695760010190565b60020b6009190190627fffff198212627fffff83131761096957565b805482101561235e5760005260206000200190600090565b634e487b7160e01b600052603260045260246000fd5b928261239492939482968560c05260a05260018060a01b0316938461291d565b600052620100126020526123b2838360406000209360c0519061291d565b806101205260c0516000526201001a60205260406000209060005260205263ffffffff60406000205416806101405263ffffffff60a05116106128e35761014051156127a857546001600160801b031660e052909190612411906122fc565b6080525b61241e8261232a565b6002908161010052608051820b910b811361276c5760c051806000526201001c60205260406000206101205160005260205260406000208260005260205263ffffffff60406000205416806101c0526101a0526000526201001860205260406000209060005260205263ffffffff6040600020541661018052610140515b63ffffffff60a0511663ffffffff82161080612757575b156126de5760c051600052620100186020526040600020608051610100510b6000526020526124e96101c0516040600020612346565b509063ffffffff604051926124fd8461148c565b54818116845260201c16602083015262093a80908163ffffffff821604918281810204811483151715610969578063ffffffff8316018063ffffffff841611610969578190049283828102048214841517156109695763ffffffff8260a051950216938363ffffffff821686106000146126d05761257c9150856116fd565b9363ffffffff8651168181106125a0575b5050505061259b9250611713565b61249c565b63ffffffff85168110156126c2575063ffffffff602085975b0151168061016052801560001461265e57506125fe61259b9663ffffffff6125f8819460a051838116821060001461265757505b925b60e051936116fd565b166116ba565b9260c0516000526201001960205260406000206101205160005260205260406000209202166000526020526040600020608051610100510b60005260205261264c60406000209182546116cd565b90553880808061258d565b90506125ed565b9594908087116126a85750508463ffffffff6101c0511663ffffffff81146109695761259b9663ffffffff6125f86126a288839660016125fe97016101c0526116fd565b986125ef565b61259b965063ffffffff9195826125f86125fe93926125ef565b602063ffffffff91976125b9565b6126d9916116fd565b61257c565b509061241e9063ffffffff6101c051166101a0518103612710575b50612705608051612317565b608052919050612415565b60c0516000526201001c6020526040600020610120516000526020526040600020608051610100510b60005260205260406000209063ffffffff19825416179055386126f9565b506101805163ffffffff6101c05116106124b3565b5090505b60c0516000526201001a602052604060002061012051600052602052604060002063ffffffff60a0511663ffffffff19825416179055565b506127b2906122fc565b6127bb8261232a565b60029082820b910b81136128db576127bb916128089160c05180600052620100188060205260406000208360005260205263ffffffff60406000205416918261280f575b50505050612317565b90506127b2565b60005260205260406000208260005260205263ffffffff61283d6040600020612837846116e7565b90612346565b505460201c1661289b57612850906116e7565b9060c0516000526201001c60205260406000206101205160005260205260406000209060005260205263ffffffff6040600020911663ffffffff198254161790555b388080806127ff565b9060c0516000526201001c60205260406000206101205160005260205260406000209060005260205260406000209063ffffffff19825416179055612892565b505050612770565b60405162461bcd60e51b8152602060048201526012602482015271125b9d985b1a59081d1a5b59481b1a5b5a5d60721b6044820152606490fd5b9290916040519260208401946001600160601b03199060601b168552603484015260e81b605483015260e81b6057820152603a8152611a16816114a7565b929190916001600160801b03808216156129df578316156129d8576001600160481b0393848316858216146129d0576129bc6129b68694846129aa816129b06129c2978b6129aa8c9b82611695565b916129e6565b99611695565b94611c60565b93611c60565b169116019081116109695790565b935050505090565b5091505090565b5050505090565b6001600160481b0392612a09926001600160801b039182169285169116026116b0565b1690565b604080516020810192835260029390930b60101d60f81b9083015290611a168160418101611c06565b604080516020810192835260029390930b60081d60f01b9083015290611a168160428101611c06565b604080516020810192835260e89390931b9083015290612a828160438101611c06565b5190206000526201000260205260006040812055565b91612aa38284611be7565b9081546001600160601b038092168282160382811161096957821680916001600160601b03191617809355159182612af1575b5050612ae3575050600090565b612aec91612bce565b600190565b60601c161590503880612ad6565b91612b0a8284611be7565b906001600160601b03908180845460601c16911690038181116109695782546bffffffffffffffffffffffff60601b1916606082901b6bffffffffffffffffffffffff60601b161783558116159182612b6a575050612ae3575050600090565b54161590503880612ad6565b6001600160481b03916002838216018381116109695783168284161115612bc657612ba5839160011993611c78565b1601818111610969576001600160401b038092821611600014612a09575090565b505050600090565b8160020b91612bdd8183612a36565b60005262010007602052604060002061010090600160ff838707161b1981541680915515612c0c575b50505050565b612c1a60ff92600194612a0d565b6000526201000660205260406000209360081d830b07161b19815416905538808080612c06565b9081602091031261009f5751801515810361009f5790565b6001600160a01b039091168152602081019190915260006040820181905260608201526001600160801b0390911660808201526001600160481b0390911660a082015260c00190565b9460a0946001600160481b03946001600160801b039399989460c089019a6001808a1b03168952602089015260020b604088015260020b606087015216608085015216910152565b15612cf157565b60405162461bcd60e51b815260206004820152600260248201526104c560f41b6044820152606490fd5b92909360808301516001600160801b03168351151590612d3a926133df565b60608301516001600160801b0316602084015115158360208295015161ffff16906040015160ff16928488516001600160801b031696612d7a928a613138565b82612d8489613195565b916001600160801b038716978811908a516001600160801b0316612da79461384d565b6001600160801b031602620f4240900491820260081c6001600160801b03166001600160801b03819316036001600160801b031690612de78183896134b2565b60009183600091016001600160801b0316916000146130af5750612e0d612e1b9161150e565b60208701511515928961310c565b1561308e576001600160801b03612e39606088019282845116611695565b1690525b60208301511590811591845115156001600160801b03606087015116916000612e688587868c613138565b90846001600160801b03831610600014612fa25750505091612ece91612edb9493612ed4612ec782878c612ebb886001600160801b03612ea784613195565b935116612eb5828286611daf565b93611deb565b8215612f9d579061337f565b95906130c3565b946130c3565b94896131cb565b9091926001600160801b03829394965116149081612f8a575b5015612f6057612f1b926001600160801b036020925b16606082015201511515928461310c565b15612f40576060016001600160801b03815116906001600160801b0382116109695752565b6040016001600160801b03815116906001600160801b0382116109695752565b60405162461bcd60e51b8152602060048201526002602482015261052560f41b6044820152606490fd5b6001600160801b03915016151538612ef4565b61337f565b6001600160801b039795509383612ff8818961300096958e809c999f9a612fcb6130079c613195565b8f86868684612fdc94885116613264565b998a925015613081578f612ff293511690611daf565b9061337f565b9490946130c3565b94886131cb565b92919490938394959760001461307857511610905b81613066575b501561303c57612f1b926001600160801b03602092612f0a565b60405162461bcd60e51b8152602060048201526002602482015261292360f11b6044820152606490fd5b6001600160801b039150161538613022565b5116119061301c565b8f612ff293511690611deb565b6001600160801b036130a7604088019282845116611695565b169052612e3d565b91506130bd612e1b9161150e565b91612e0d565b600f0b6004019060016001607f1b03821360016001607f1b031983121761096957565b90600f0b90600f0b019060016001607f1b0319821260016001607f1b0383131761096957565b602090613120613131938251600f0b6130e6565b600f0b815201918251600f0b6130e6565b600f0b9052565b9192909261314583613195565b901561317c576001600160801b0361315f93511690611daf565b6001600160801b038281169082161115613177575090565b905090565b6001600160801b0361319093511690611deb565b61315f565b6115db906001600160801b0360406131c1826020850151166001600160401b03606086015116906115de565b9201511690611a1c565b92916131dd909794969197888761322a565b6001600160801b0392908382168482161061321b5750506000945b871561321557805b971561320e57505b94169052565b9050613208565b81613200565b61322491611a5e565b946131f8565b91151590151514600014613256575b600081600f0b12613250576001600160801b031690565b50600090565b61325f90611a46565b613239565b9392156132bb57613274936132c9565b6001600160801b0381166f0ffff5433e2b3d8211706e6102aa94728110156132a55762010002809110613177575090565b50506f0ffff5433e2b3d8211706e6102aa947190565b6132c493613333565b613274565b91906001600160801b03918282161561332b57906132e69161160e565b6001600160c01b03811682106129d857811692156133095750906115db91611695565b81168210156133245761331e6115db9261167d565b90611a5e565b5050600090565b505091505090565b9061334261334a9493926133bd565b9215926132c9565b6001600160801b0381161561336a576133656115db916133bd565b61167d565b506f0ffff5433e2b3d8211706e6102aa947290565b9190921515901515146000146133a85761027461339e6133a49261150e565b9261150e565b9091565b6133b76102746133a49261150e565b9161150e565b6001600160801b03809116801561163257600160801b0481811161009f571690565b906133ea9291613435565b6001600160801b0381166201000280821061342f57506f0ffff5433e2b3d8211706e6102aa9472111561341a5790565b506f0ffff5433e2b3d8211706e6102aa947190565b91505090565b918260020b620a276d198113908115916134a4575b50156134565750905090565b15613481576001600160801b03809261347160001991611ea2565b0116918116821015613177575090565b9061348b90611ea2565b906001600160801b038082169083161115613177575090565b620cb14a915012153861344a565b91906134bd83613195565b906001600160801b039283831615611b3b5715916134df8385875116836137ee565b60011b917001fffffffffffffffffffffffffffffffe6ffffffffffffffffffffffffffffffffe84169316830361096957838561353d9480828516111560001461360457505061353891506000925b8688511690611e5d565b613610565b6001600160401b0391828216613554575050505050565b81846135686135a0938695838a5116613750565b1686526dffffffffffffffff000000000000606087018461358c848284511661371f565b16809152600160301b019160301b166116b0565b169283836040830151160260301c936001600160901b038486169516850361009f57846135cc916137aa565b906080810191838084511691160191838311610969576135f793602093169052019282845116611695565b1690523880808080611b3b565b6135389303169261352e565b6001600160801b0380821680159182156136a2575b50506133245761363861363d9282611695565b6136ae565b906001600160401b0380831692600160301b938481101561009f5780677fffffffffffffff910260331c9160011c1603169182101561367857565b60405162461bcd60e51b815260206004820152600260248201526124a360f11b6044820152606490fd5b84161190503880613625565b6001600160801b03906001600160d01b038183169081109081613712575b501561009f5765ffffffffffff19926136f592169060301b600160301b600160b01b03166116b0565b01600160301b908181101561160a576001600160401b0391501690565b90508284161115386136cc565b6001600160401b0391908216600160301b908101918316010260301c65ffffffffffff19018181101561160a571690565b91906001600160401b0316600160301b0190600014613789576001906001600160801b038093160260301c0190811690810361009f5790565b612a0990600160301b600160b01b036001600160801b039360301b166116b0565b906001600160801b03908181169182156137e5576137de6137d8612a09946001600160401b038097166116ba565b9261167d565b16906116b0565b50505050600090565b9115613810575060401c6001600160401b03166001016001600160801b031690565b6001600160801b039160019161383c61382f600019830186168461160e565b91848060c01b039361160e565b9003160190811690810361009f5790565b9291936001600160801b03948585169384156138ce578661387f84829515968361387889838d611e5d565b1699611e5d565b169315901515146000146138c65716015b80156138c057816138a192026116b0565b818111156138b85703905b811690810361009f5790565b9003906138ac565b50505090565b169003613890565b50505050505050600090565b6001600160801b03808216916201000283101580613b50575b1561009f57600160401b600160c01b039060401b168082811160071b9181831c926001600160401b03841160061b93841c9363ffffffff851160051b94851c9461ffff861160041b95861c60ff9687821160031b91821c92600f841160021b93841c94600160038711811b96871c119617171717171717916080831015600014613b445750607e1982011c5b8002607f928392828493841c81841c1c800280851c81851c1c800280861c81861c1c800280871c81871c1c80029081881c82881c1c80029283891c84891c1c800294858a1c868a1c1c800296878b1c888b1c1c800298898c1c8a8c1c1c80029a8b8d1c8c821c1c8002809d1c8d821c1c8002809e81901c90821c1c80029e8f80911c911c1c800260cd1c6604000000000000169d60cc1c6608000000000000169c60cb1c6610000000000000169b60ca1c6620000000000000169a60c91c6640000000000000169960c81c6680000000000000169860c71c670100000000000000169760c61c670200000000000000169660c51c670400000000000000169560c41c670800000000000000169460c31c671000000000000000169360c21c672000000000000000169260c11c674000000000000000169160c01c6780000000000000001690607f190160401b1717171717171717171717171717693627a301d71055774c8502906f028f6481ab7f045a5af012a19d003aa919820160801d60020b916fdb2df09e81959a81455e260799a0632f0160801d60020b92600091848414600014613b2f57505050905090565b613b3885611ea2565b16119050613177575090565b905081607f031b61397f565b506f0ffff5433e2b3d8211706e6102aa947283106138f3565b9015613b725790565b60ff9081031690565b929060009361ffff60009285600014613d73571690811c901b5b8015938415613ba357505050565b9294509091839015613c9d5750809183611576575060ff906001600160801b03811615613c93575050607f5b6001600160401b03821615613c8957603f190160ff165b63ffffffff821615613c7f57601f190160ff165b61ffff821615613c7557600f190160ff165b60ff821615613c6b576007190160ff165b600f821615613c61576003190160ff165b6003821615613c55576001190160ff16906001905b16613c4b5791565b6000190160ff1691565b9060019060021c613c43565b9060041c90613c2e565b9060081c90613c1d565b9060101c90613c0c565b9060201c90613bfa565b9060401c90613be6565b60801c9150613bcf565b819083906115765750600160801b811015613d64575b5080600160401b6002921015613d55575b640100000000811015613d46575b62010000811015613d37575b610100811015613d28575b6010811015613d19575b6004811015613d0b575b10611d675760010160ff1691565b91810160ff1691811c613cfd565b600492830160ff16921c613cf3565b600892830160ff16921c613ce9565b601092830160ff16921c613cde565b602092830160ff16921c613cd2565b604092830160ff16921c613cc4565b60809250821c90506002613cb3565b1690811b901c613b95565b908115613e0d578115613e0357617fff905b60010b60009160010b8114600014613db857505015613db057627fffff90565b627fffff1990565b60010191617fff8313617fff19841217613def57613de7575060ff805b1660020b9060081b60020b0160020b90565b60ff90613dd5565b634e487b7160e01b82526011600452602482fd5b617fff1990613d90565b905060081b60020b90565b91908180613f0f575b613f0557811580613ef5575b613eea5760008215613eb357505b60020b9060ff610100816080601086901d600081810b908112613ea9575082160116935b60081d60010b0716613e7382828587614236565b156129d0575081613e859184866147be565b15613ea2575015613e99576115db91614834565b6115db9161486b565b9250505090565b9050011693613e5f565b60029190910b6000190190627fffff198212627fffff831317613ed65750613e3b565b634e487b7160e01b81526011600452602490fd5b505050627fffff1990565b50627fffff198160020b14613e2d565b505050627fffff90565b50627fffff8160020b14613e21565b929190613f2a906144d9565b604051936020850185613f5f60ff9384871660010b8660081b60010b0160010b90849091602292825260f01b60208201520190565b0395613f73601f19978881018352826114c2565b51902094600095865262010007602052604086205486918115918215613fc7575b5050613fbe579061ff00911660020b9260081b1660020b9060101b60020b0160020b0160020b9190565b50505050600190565b9192509080836140bd57849081906001600160801b038116156140b257509050607f5b6001600160401b038316156140a757603f19018116925b63ffffffff83161561409c5781929301165b61ffff83161561409257600f190181165b82821615614088576007190181165b600f83161561407e576003190181165b600383161561407257600119018116916001905b16614066575b50903880613f94565b9060001901168261405d565b9160019060021c614057565b9160041c91614043565b9160081c91614033565b9160101c91614024565b509060201c91614013565b929160401c91614001565b60801c925090613fea565b8880fd5b9291906140cd906144d9565b604051602081019061410581611c0660ff9889881660010b8760081b60010b0160010b90869091602292825260f01b60208201520190565b5190209360009485526201000760205260408520548590801590811561414f575b50613fbe579061ff00911660020b9260081b1660020b9060101b60020b0160020b0160020b9190565b8192508088926140bd578491600160801b811015614223575b508082600160401b6002931015614215575b640100000000821015614207575b620100008210156141f9575b6101008210156141eb575b60108210156141dd575b60048210156141ce575b5010156141c3575b509038614126565b9060010116826141bb565b908290811c94011692826141b3565b600494850116931c826141a9565b600894850116931c8261419f565b601094850116931c82614194565b602094850116931c82614188565b604094850116931c8261417a565b9250505060801c82600260809290614168565b90614243909493946144d9565b90604051602081019160ff9282614279600193868916850b8860081b860b01850b90849091602292825260f01b60208201520190565b039261428d601f19948581018352826114c2565b519020966000978852620100076020526040882054928893826000146144d357905b81159283156142ed575b5050506142e557509061ff00911660020b9260081b1660020b9060101b60020b0160020b0160020b9190565b949350505050565b92945090918490156143e9575081846143e5578591849183906001600160801b038116156143db575050607f5b6001600160401b038516156143d157603f190183165b63ffffffff8516156143c5570182165b61ffff8416156143bb57600f190182165b838316156143b1576007190182165b600f8416156143a7576003190182165b600384161561439e57600119018216925b16614392575b505b913880806142b9565b90600019011683614387565b9260021c614381565b9260041c92614370565b9260081c92614360565b9260101c92614351565b93905060201c92614340565b9360401c93614330565b60801c945061431a565b8980fd5b8992915081906143e55785918491600160801b8110156144be575b508083600160401b60029310156144b0575b6401000000008210156144a2575b62010000821015614494575b610100821015614486575b6010821015614478575b6004821015614469575b50101561445e575b5050614389565b909101168382614457565b908290811c950116938361444f565b600495860116941c83614445565b600895860116941c8361443b565b601095860116941c83614430565b602095860116941c83614424565b604095860116941c83614416565b935050505060801c8382600260809390614404565b906142af565b60ff81169060009060808310156144f957505060010b607f190160000b90565b607f190160ff16900b919050565b90614511816144d9565b906040519182614534602082019286849091602192825260f81b60208201520190565b0392614548601f19948581018352826114c2565b51902092600093845262010006602052604084205484938115918215614582575b5050614579576133a49350613f1e565b50505090600190565b91945090808561467a5760ff906001600160801b03811615614670575050607f5b6001600160401b0382161561466557603f190160ff16915b63ffffffff82161561465b5760ff919201165b61ffff82161561465157600f190160ff165b60ff821615614647576007190160ff165b600f82161561463d576003190160ff165b6003821615614631576001190160ff16906001905b16614625575b923880614569565b6000190160ff1661461d565b9060019060021c614617565b9060041c90614602565b9060081c906145f1565b9060101c906145e0565b5060201c906145ce565b919060401c906145bb565b60801c91506145a3565b8680fd5b614687826144d9565b6040516146ab81611c06602082019486869091602192825260f81b60208201520190565b51902091600092835262010006602052604083205491839280159081156146dc575b50614579576133a493506140c1565b81945080869261467a57600160801b8110156147af575b5080600160401b60029210156147a0575b640100000000811015614791575b62010000811015614782575b610100811015614773575b6010811015614764575b6004811015614756575b101561474b575b92386146cd565b60010160ff16614744565b91810160ff1691811c61473d565b600492830160ff16921c614733565b600892830160ff16921c614729565b601092830160ff16921c61471e565b602092830160ff16921c614712565b604092830160ff16921c614704565b60809250821c905060026146f3565b929182614818916147ce846144d9565b6040516147f281611c0660208201948b869091602192825260f81b60208201520190565b5190206000526201000660205260ff6148118360406000205493613b69565b1690613b7b565b919091614828576133a493614236565b50505050600090600190565b9060ff91826001809301165b8381166148525750505050627fffff90565b61485c8183614507565b156129d0575082018316614840565b60ff916000199190820183165b838082161061488d5750505050627fffff1990565b614897818361467e565b156129d0575082018316614878565b8151156148e0576001600160801b03809151169060808301511611905b816148cc575090565b6001600160801b0391506060015116151590565b6001600160801b03809151169060808301511610906148c3565b9390938460020b91627fffff19831380614b2a575b15614b22576149ad926149228583612219565b855115159060808601926001600160401b0392838551169460016149468c85611be7565b8054976d03fffffffffffffffffffffff800808a60561c16600f0b908a600a1b16600f0b03600f0b85600014614b1357985b60c01c90818103614adf575b50508315614ad6575460601c1615155b60408a01966001600160801b03998a91828a5116611547565b168752614a00575b5050505050506149e56149dc60208601511515948651151560608801968688511692614b36565b9391909161310c565b825182160316905251156149f65790565b6000190160020b90565b51610dad546001600160a01b03169190851690821561009f57604051946020860194633c05c62160e01b865260248701526044860152606485015260848401526084835260c08301918383108584111761095357600093849360405251915af43d15614acd573d9182116109535760405191614a86601f8201601f1916602001846114c2565b82523d6000602084013e5b1561009f5760208180518101031261009f576020015180600f0b810361009f57614abf849182845116611547565b1690523880808080806149b5565b60609150614a91565b54161515614994565b614b0c91614aec91611c91565b82546001600160c01b031660c09190911b6001600160c01b031916178255565b3880614984565b614b1c90611a46565b98614978565b505050505090565b50627fffff831261490f565b909291614b4282613195565b90614b5a856001600160801b039384865116906137ee565b938280861691161115614c025715614bbd57808251166f0ffff5433e2b3d8211706e6102aa94718110614baf575b505050614b948161150e565b9160009015614ba75750905b9160009190565b905090614ba0565b600101169052388080614b88565b80829594955116620100028111614bf3575b505050614bdb8161150e565b9215614bed57506000905b6000929190565b90614be6565b60001901169052388080614bcf565b60405162461bcd60e51b8152602060048201526002602482015261109160f21b6044820152606490fdfea2646970667358221220e4e15bf28f94b847ef829308ed3af0e004572064fd27cff7e47ca10c282e041664736f6c634300081300336080806040523461002b5762010011805460ff60e01b1916600160e71b1790556106c890816100318239f35b600080fdfe60806040908082526004908136101561001757600080fd5b6000803560e01c918263ac54c0fc1461059a57508163b670198014610089575063f96dc7881461004657600080fd5b6020606492610054366105e2565b50505162461bcd60e51b8152918201526013602482015272456d657267656e63792053616665204d6f646560681b6044820152fd5b82843461059657610099366105e2565b845460ff8160a01c161561056c5781601f101561055957601f83013560f81c6028810361020e575050906100cf91810190610665565b620100115467ffffffffffffffff92506001600160a01b03918216919060a081901c841642106101da57169280519380837fbdcd7dcddd535083a6d22b55c021205ac0eff43705fb59b6645f6f479a6dd20b8980a38287526201000c602052818720948554946001600160801b0394858716976001600160801b0319809816905587610162575b50505050505050505080f35b602083019384528483015283825260608201908111828210176101c757835251902086526201001060205285209384549382851601908282116101b45750169116179055818080808080808080610156565b634e487b7160e01b875260119052602486fd5b634e487b7160e01b895260418852602489fd5b845162461bcd60e51b8152602081880152600e60248201526d151c99585cdd5c9e481cdd185c9d60921b6044820152606490fd5b949594602981036103055750509061022891810190610665565b6001600160a01b0316919050811515806102fb575b156102c6575062010011805462093a8042018042116102b3576001600160e01b0319909116831760a091821b67ffffffffffffffff60a01b16179182905592935090911c67ffffffffffffffff16907f0f02a9e0f1a59164f628064cb5ecad90405bca20d668c8528c2165d67476533c8380a380f35b634e487b7160e01b855260118652602485fd5b5162461bcd60e51b8152602081850152601060248201526f151c99585cdd5c9e481a5b9d985b1a5960821b6044820152606490fd5b50813b151561023d565b9495946014810361045e5750509061031f91810190610665565b6001600160a01b03939084169290915082151580610454575b806103ba575b15610383575050620100019182549081167f794f2baba4b07f7dd9f1123c7e93530ca10b65cf26558362b14d0a437e3099c58580a26001600160a01b03191617905580f35b906020606492519162461bcd60e51b83528201526011602482015270496e76616c696420417574686f7269747960781b6044820152fd5b508051633d5ed36160e11b8152602081848189885af190811561044a5786916103e4575b5061033e565b905060203d8111610443575b601f8101601f1916820167ffffffffffffffff81118382101761043057602091839185528101031261042c5751801515810361042c57866103de565b8580fd5b634e487b7160e01b885260418552602488fd5b503d6103f0565b82513d88823e3d90fd5b50823b1515610338565b909490601681036104c55750507f2e7754bb17467b54f4b17a302f1adb01f606496fa3421665b36ff44ff8dbc5fa9293508161049e91602093019061063f565b9390505192151592838152a1815460ff60b01b191660b09190911b60ff60b01b1617815580f35b60170361052457506104fd826020927f7fabf78b254427483595fa50cfb7e832154c4936f7bdb0b266535f271722dc4694019061063f565b9390505192151592838152a160ff60b81b1990911660b89190911b60ff60b81b1617815580f35b606490602085519162461bcd60e51b8352820152600f60248201526e125b9d985b1a590818dbdb5b585b99608a1b6044820152fd5b634e487b7160e01b865260328552602486fd5b835162461bcd60e51b815260208187015260248101869052635375646f60e01b6044820152606490fd5b8280fd5b8385346105de5736600319011261059657356001600160a01b038116036105da576024359161ffff83168093036105d7575061270f602092148152f35b80fd5b5080fd5b8380fd5b90602060031983011261062c5760043567ffffffffffffffff9283821161062c578060238301121561062c57816004013593841161062c576024848301011161062c576024019190565b600080fd5b359060ff8216820361062c57565b919082604091031261062c57602061065683610631565b920135801515810361062c5790565b919082604091031261062c57602061067c83610631565b9201356001600160a01b038116810361062c579056fea2646970667358221220c6f0295704fdb136c98a524749f25795ce6c65638db678e4684e0b0e6e8b438964736f6c634300081300336080806040523461002b5762010011805460ff60e01b1916600160e71b179055613d9d90816100318239f35b600080fdfe610200604090808252600436101561001657600080fd5b600090813560e01c908163ac54c0fc146103c1575063f96dc7881461003a57600080fd5b60203660031901126103ba57600435906001600160401b038083116103bd57366023840112156103bd5782600401359081116103bd5782013660248201116103bd57826101609103126103ba5761009360248301610404565b916100a060448201610417565b6100ac60648301610417565b93610137846100bd60a4860161042b565b6100c960c4870161042b565b6100d560e48801610439565b6100e26101048901610439565b916100f06101248a01610439565b936100fe6101448b01610404565b9761010c6101648c01610417565b60018060a01b039d8e9c8d80809e169e8f93169d8e94169a8b156103af575b5050608401359261044d565b8591968196541694801560001461039157505060018216151581549060ff8260a81c16610368576001600160801b03803416923484036103645760ff60a81b1916600160a81b178455610228969594889460029491939092600f8c900b801561035457848113156102985750808c1691156102875783918d805160208101918c8352878183015281526101c981611b57565b5190208552620100106020528d8520908d82548480821692168211600014610268575050826101fc8354928284166119e5565b16906001600160801b0319161790555b81161561023a5761021e9250876128be565b1615159280612643565b825191600f0b8252600f0b6020820152f35b509081610249575b505061021e565b808080610261948a5af161025b61284e565b5061288d565b3880610242565b6001600160801b031916909255919250610281916119e5565b9061020c565b506102939250876128be565b61021e565b93809394929192126102ae575b5050505061021e565b6102b78c61282d565b82169015610332578c805160208101918b8352858183015281526102da81611b57565b5190208352620100106020528c8320916102f88354928284166119b1565b16906001600160801b03191617905581610319575b50505b388080806102a5565b80808061032b948a5af161025b61284e565b388061030d565b82809261034361034f9683946119b1565b168a5af161025b61284e565b610310565b505050908161024957505061021e565b8480fd5b885162461bcd60e51b8152602060048201526002602482015261445360f01b6044820152606490fd5b600291925092610293610228969594600183161515908a8880612643565b541699508f8f61012b565b80fd5b5080fd5b90508234610400573660031901126103bd576004356001600160a01b038116036103bd576024359161ffff83168093036103ba57506002602092148152f35b8280fd5b359060ff8216820361041257565b600080fd5b35906001600160a01b038216820361041257565b35908160020b820361041257565b35906001600160801b038216820361041257565b60009a999695949392919060ff1660018103610473575061046f999a50610c66565b9091565b959998979695909493929190600b810361053057506001600160801b03806104a461049f85858a611bae565b611fe1565b51166104af85611c3f565b906104b987611c3f565b9282811682116104c7578e80fd5b8d9e50916105009c9d84926104f994610800600160801b0396168110610526575b506104f46001916119fe565b611a71565b1694610c66565b9261050b8291611c24565b91600f0b82600f0b1360001461052057509190565b90509190565b92506104f46104e8565b600c81036105ef57506001600160801b038061055061049f85858a611bae565b51169b80809d61055f87611c3f565b9261056989611c3f565b9484811683116105bd575050506105b957610800600160801b03916104f9918d9e6104f46105979e9f6119fe565b6105a18194611c24565b90600f0b81600f0b136105b357509190565b90925090565b8c80fd5b9193509150831682106105ce578d80fd5b8c6105979c9d9e506104f9926104f4610800600160801b03959391926119fe565b6002819b9798999a9b96929394959614600014610612575061046f999a506110b2565b95989796959094939291906015810361072757506001600160801b038061063d61049f85858a611bae565b51168c61064986611c3f565b9161065388611c3f565b938381168211610661578f80fd5b8495969798999a9b9c9d9e9f929394168110156000146107105750509060016104f461068f9493809e611a53565b98156106a957610800600160801b0361046f9916946110b2565b610800600160801b0380808b16146106e05760016e1fffffffffffffffffffffffffffff61046f9b600b1c1601600b1b16946110b2565b60405162461bcd60e51b81526020600482015260086024820152676f766572666c6f7760c01b6044820152606490fd5b61068f9450816001929e9493506104f49194611a53565b6016819c92939495969798999a9c146000146107bc57506001600160801b03908161075661049f86868b611bae565b51169b819c61076487611c3f565b9261076e89611c3f565b948481168311610796575050508c9b9c61079257908b6104f48161068f9594611a53565b8b80fd5b9293509091841682106107a7578d80fd5b9b9c5061068f92918c906104f4908290611a53565b6003819c979c969293959496146000146107de575050505061046f96976114e5565b959a95601f810361082d575050505090816108276108226001600160801b0361081261049f8689986105009d9c9b9a611bae565b511661081d8c6119fe565b611ac0565b611c07565b926114e5565b6020908082036108755750505050509061059795949392916108276001600160801b038061085f61049f868689611bae565b51169061086b8c6119fe565b160260401c611c07565b969b966004810361088f57505050505061046f9697611754565b969b96602981036108d95750505050506108d36108ce61082261046f999a61081d6001600160801b036108c661049f89898c611bae565b511691611a22565b61196b565b92611754565b602a81036109135750505050506108d36108ce61046f98996001600160801b0361086b8161090b61049f89898c611bae565b511692611a22565b6005919593979899949a9c5095919514600014610c2f579083610939879493838a61250e565b6040818101516001600160a01b039a91998b92918b919084168f81610b93575b50505050505090915001998a5191610970926122f5565b966001600160801b03968789511661098790612061565b8b5197868b8a6001600160401b0394856080819401511690836109ac83838c8761307a565b16946109b79361307a565b166109c19061302b565b906109cb91613061565b99859a6109da89878d88613968565b8752620100128852898720918254906001600160481b0395868360801c1696841696808811610b2f575b50505050505080855416921690828203610a78575b505050505050505091610a6d610a57610a67610a57610a7495610a3f86610a579961324d565b610a62610a5c610a4f8389612a71565b9a9093611c24565b61282d565b87612a0a565b611c24565b94611c24565b9451612366565b9190565b918460c4928795948a51998a9687956349c1ae0f60e11b875260048701528d602487015260020b604486015260020b606485015282608485015260a48401525af1938415610b255750610a7495610a3f88610a579997610aee610a6d98610a5798610a6798610a579892610af8575b5050613d36565b9799839950610a19565b610b179250803d10610b1e575b610b0f8183611b8d565b8101906123df565b3880610ae7565b503d610b05565b51903d90823e3d90fd5b610b88959f5091610b5a9391610b4d6001600160901b039487613bda565b1691160260301c16613bbd565b8c5468ffffffffffffffffff60801b191660809290921b68ffffffffffffffffff60801b1691909117909b55565b388080808080610a04565b858098979960e496978554169551998a988997632a179e9b60e01b8952600489015233602489015216604487015216606485015260020b60848401528b60020b60a48401528160c48401525af1908115610c2557859291610bfb918691610c08575b5061248d565b819088388987828f610959565b610c1f9150843d8611610b1e57610b0f8183611b8d565b38610bf5565b87513d86823e3d90fd5b60405162461bcd60e51b815260048101859052600f60248201526e125b9d985b1a590818dbdb5b585b99608a1b6044820152606490fd5b610c7b849895939a99969a949294858361250e565b998a9460018060a01b039283604080980151169081611035575b505050602095868c0197885191610cab926122f5565b809885886001600160801b039c8d9384865116610cc790612061565b8d5190610cd389612e6a565b906001600160401b03908160808b01511692610cf184888488612f04565b610cfd848a8488612f04565b610d078786612fda565b80546001600160601b0392919083610d2184828416613012565b16906001600160601b031916179055610d3a8a87612fda565b91825460601c1690610d4b91613012565b81546bffffffffffffffffffffffff60601b191660609190911b6bffffffffffffffffffffffff60601b1617905581610d868483898861307a565b1692610d9391898661307a565b16610d9d9061302b565b90610da791613061565b610db1888361324d565b828a1692868584610dcb63ffffffff42168484848b6133a8565b610dd493613968565b9960009a8b526201001286528d8b208a8c82548b81169182151560001492610e1e91610e619461103057506001600160481b038360801c165b610e178683612e40565b95896139a6565b908c610e28612e59565b68ffffffffffffffffff60801b1991909516166001600160c81b03199091161760809190911b68ffffffffffffffffff60801b16178355565b815463ffffffff60c81b191660c89190911b63ffffffff60c81b161790558a5416908d828503610f96575b5050505050610f1d96915094610ec58585610ecb610eba610f089761ffff9b87610f0e9b60609d51166130f6565b958692959197611c24565b906130d3565b811615801590610f8f575b15610f8757610ee490611999565b9e5b82161590811591610f7f575b5015610f7857610f029150611999565b9b611c24565b9a611c24565b9b5101511660020b809261204f565b60020b159182610f63575b505015610f3c57505090610a749151612366565b60649250519062461bcd60e51b8252600482015260016024820152601160fa1b6044820152fd5b610f6d925061204f565b60020b153880610f28565b509b611c24565b905038610ef2565b50829e610ee6565b5081610ed6565b5163668e2cdb60e01b815298509496508795929486948b948694610fc1948d93919060048801613cee565b03925af190811561102657610f088461ffff94610ec58d8f610ff56060988f98610f0e99610f1d9d92611009575050613d36565b958d94998b9499508298508c96508d610e8c565b61101f9250803d10610b1e57610b0f8183611b8d565b8f80610ae7565b86513d85823e3d90fd5b610e0d565b906020929160008681989697985416611067888b8d51998a9889978896632dd148f160e01b8852339060048901612440565b03925af19081156110a757899392916110879160009161108f575061248d565b388080610c95565b610c1f915060203d8111610b1e57610b0f8183611b8d565b85513d6000823e3d90fd5b926110c38196989a9993838661250e565b60408101519092906001600160a01b03168061146e575b5050506110ed92506020019788516122f5565b916111016001600160801b03845116612061565b93875161110d87612e6a565b956001600160401b036101e05261116d6101e0516080880151166111686111406111388b8988613adf565b9a8987613b46565b936111626101e05161115485848c8b61307a565b16936101e051928b8961307a565b1661302b565b613061565b9661145f575b611450575b611182858261324d565b61119e4263ffffffff168585846001600160a01b0387166133a8565b6111aa84848385613968565b6000526201001260205260406000209586549663ffffffff600a816111db818c60c81c166111d6612e59565b612b27565b16041660ff811115611405575b506111fc896001600160801b038a166119e5565b976001600160801b0361121b6001600160481b038360801c1685613bda565b99169081156113f25750815460ff8160e81c166113c8576001600160801b0319161790555b6000546001600160a01b039081169190841682900361133c575b5050505061128c9161127791866001600160801b038651166130f6565b611286610a5788959395611c24565b856130d3565b809482946101e0511690816112b6575b50505050610a6d610a57610a67610a57610a749596611c24565b6112d6916001600160801b036001600160901b0392160260301c16613bbd565b906001600160801b0382166112ec575b8061129c565b610a6d929550610a749450610a57611334610a5761132e85610a679561132961132361131b610a579a8d612a71565b969094611c24565b8b612a0a565b6119b1565b986119b1565b9550506112e6565b926020926000869361136789978d6040519b8c98899788966349c1ae0f60e11b885260048801613cee565b03926001600160a01b03165af19182156113bc576113946112779361128c9560009161139d575b50613d36565b9181933861125a565b6113b6915060203d602011610b1e57610b0f8183611b8d565b3861138e565b6040513d6000823e3d90fd5b60405162461bcd60e51b815260206004820152600260248201526127a960f11b6044820152606490fd5b6001600160f01b03191690915550611240565b836000526201000960205260ff60406000205460301c161161142757386111e8565b60405162461bcd60e51b81526020600482015260016024820152602560f91b6044820152606490fd5b61145a8482613aa6565b611178565b6114698483613aa6565b611173565b60209295600060018060a01b038154166114a28d8b6040519b8c9889978896632a179e9b60e01b8852339060048901612440565b03925af19081156113bc576114c46020926110ed956000916114ce575061248d565b90508438806110da565b610c1f9150843d8111610b1e57610b0f8183611b8d565b969495909392916114f790858961250e565b60408181015190986001600160a01b039691871690816116dd575b505050600160301b600160b01b0395969791602061153392019889516122f5565b9387516115408682612b55565b8185169061154e8183612c94565b606087016001600160401b0390611569838383511699612e14565b9760009889526201000e602052611598878a20986001600160801b039c8d93600160301b019160301b16611afa565b169680548b6115a98a828416612e40565b1663ffffffff60801b6115ba612e59565b60801b16916001600160601b0360a01b1617179055511692865416808303611661575b505050505061163c8392610a5c836116066115fe610a6d96610a7499612a71565b939092611c24565b87811615801590611659575b156116515761162090611999565b965b811615801590611649575b1561164257610a679150611999565b93611c24565b5094611c24565b50600161162d565b508196611622565b506001611612565b9185918760209461168788519788968795869463668e2cdb60e01b865260048601613ca5565b03925af19182156116d4575092610a5c610a6d936116b361163c94610a74989785916116bc5750613d36565b938295966115dd565b6113b6915060203d8111610b1e57610b0f8183611b8d565b513d85823e3d90fd5b91602091869360008d61170b8c835416915197889687958694632dd148f160e01b86523390600487016123f7565b03925af1908115611749576115339261173d600160301b600160b01b03999a9b95936020936000916114ce575061248d565b9282949a999850611512565b89513d6000823e3d90fd5b9394969590929161176690848661250e565b60408181015190956001600160a01b039591861690816118f5575b505050600160301b600160b01b039493929160206117a292019889516122f5565b948751906117b08783612b55565b838116926117be8385612c94565b60608801906001600160401b03926118078885855116926117e188600092612e14565b81526201000e60205220926001600160801b039a8b93600160301b019160301b16611afa565b82549116908981168083106118d3575050508054978816976001600160601b0360a01b1690555b51169260005416808303611866575b505050505081610a6d610a57610a67610a5785610a62610a5c610a4f610a7499610a579b612a71565b918591600060209461188d8851978896879586946349c1ae0f60e11b865260048601613ca5565b03925af19182156118c95750610a57610a67610a57610a74956118bf610a579896610a6d966000916116bc5750613d36565b955084965061183d565b513d6000823e3d90fd5b826118e1919b92939b6119e5565b16906001600160801b03191617905561182e565b9160209186936000898154166119228c5197889687958694632a179e9b60e01b86523390600487016123f7565b03925af1908115611960576117a292611954600160301b600160b01b0398979695936020936000916114ce575061248d565b92829495969750611781565b86513d6000823e3d90fd5b9060016001600160801b038093160191821161198357565b634e487b7160e01b600052601160045260246000fd5b9060046001600160801b038093160191821161198357565b9190916001600160801b038080941691160191821161198357565b6001600160801b03908116600319019190821161198357565b6001600160801b03918216908216039190821161198357565b60046001600160801b0382161015611a165750600090565b611a1f906119cc565b90565b6001600160801b03906ffffffffffffffffffffffffffffffffb8183161115611a49575090565b611a1f9150611999565b9015611a225760046001600160801b0382161015611a165750600090565b919290611a95576001611a8f611a89611a1f95611b04565b92611b04565b92611a71565b611a1f9261082292916001600160801b03918282168382161115611abb57031690611ac0565b900316905b906001600160801b0316908115611ae45760401b600160401b600160c01b03160490565b634e487b7160e01b600052601260045260246000fd5b8115611ae4570490565b6001600160801b038091168015611ae457600160801b04818111610412571690565b60a081019081106001600160401b03821117611b4157604052565b634e487b7160e01b600052604160045260246000fd5b606081019081106001600160401b03821117611b4157604052565b60e081019081106001600160401b03821117611b4157604052565b90601f801991011681019081106001600160401b03821117611b4157604052565b91906001600160a01b03808216908416101561041257604080516001600160a01b039485166020820190815294909216908201526060810191909152611c0181608081015b03601f198101835282611b8d565b51902090565b6001600160801b03811691906001600160c01b0316820361041257565b6001600160801b03166001607f1b81101561041257600f0b90565b60020b620a276d1981121580611fa9575b15610412576000811215611fa35780600003905b6001821615611f91576001600160881b036ffffcb933bd6fad37aa2d162d1a5940015b169160028116611f75575b60048116611f59575b60088116611f3d575b60108116611f21575b60208116611f05575b60408116611ee9575b608090818116611ece575b6101008116611eb3575b6102008116611e98575b6104008116611e7d575b6108008116611e62575b6110008116611e47575b6120008116611e2c575b6140008116611e11575b6180008116611df6575b620100008116611ddb575b620200008116611dc1575b620400008116611da7575b6208000016611d8c575b50600012611d7d575b6001600160801b03906001600160401b038116611d745760ff60005b169060401c011690565b60ff6001611d6a565b8015611ae45760001904611d4e565b6b048a170391f7dc42444e8fa26000929302901c9190611d45565b6d2216e584f5fa1ea926041bedfe98909302811c92611d3b565b926e5d6af8dedb81196699c329225ee60402811c92611d30565b926f09aa508b5b7a84e1c677de54f3e99bc902811c92611d25565b926f31be135f97d08fd981231505542fcfa602811c92611d1a565b926f70d869a156d2a1b890bb3df62baf32f702811c92611d10565b926fa9f746462d870fdf8a65dc1f90e061e502811c92611d06565b926fd097f3bdfd2022b8845ad8f792aa582502811c92611cfc565b926fe7159475a2c29b7443b29c7fa6e889d902811c92611cf2565b926ff3392b0822b70005940c7a398e4b70f302811c92611ce8565b926ff987a7253ac413176f2b074cf7815e5402811c92611cde565b926ffcbe86c7900a88aedcffc83b479aa3a402811c92611cd4565b926ffe5dee046a99a2a811c461f1969c305302811c92611cca565b916fff2ea16466c96a3843ec78b326b528610260801c91611cbf565b916fff973b41fa98c081472e6896dfb254c00260801c91611cb6565b916fffcb9843d60f6159c9db58835c9266440260801c91611cad565b916fffe5caca7e10e4e61c3624eaa0941cd00260801c91611ca4565b916ffff2e50f5f656932ef12357cf3c7fdcc0260801c91611c9b565b916ffff97272373d413259a46990580e213a0260801c91611c92565b6001600160881b03600160801b611c87565b80611c64565b50620cb14a811315611c50565b60405190611fc382611b26565b60006080838281528260208201528260408201528260608201520152565b611fe9611fb6565b506000526201000f60205260406000209060405161200681611b26565b82549260016001600160801b03918286169586855260801c6020850152015490811660408301526001600160401b038160801c16606083015260c01c6080820152911561041257565b9060020b908115611ae45760020b0790565b6001600160801b038082169162010002831015806122dc575b1561041257600160401b600160c01b039060401b168082811160071b9181831c926001600160401b03841160061b93841c9363ffffffff851160051b94851c9461ffff861160041b95861c60ff9687821160031b91821c92600f841160021b93841c94600160038711811b96871c1196171717171717179160808310156000146122d05750607e1982011c5b8002607f928392828493841c81841c1c800280851c81851c1c800280861c81861c1c800280871c81871c1c80029081881c82881c1c80029283891c84891c1c800294858a1c868a1c1c800296878b1c888b1c1c800298898c1c8a8c1c1c80029a8b8d1c8c821c1c8002809d1c8d821c1c8002809e81901c90821c1c80029e8f80911c911c1c800260cd1c6604000000000000169d60cc1c6608000000000000169c60cb1c6610000000000000169b60ca1c6620000000000000169a60c91c6640000000000000169960c81c6680000000000000169860c71c670100000000000000169760c61c670200000000000000169660c51c670400000000000000169560c41c670800000000000000169460c31c671000000000000000169360c21c672000000000000000169260c11c674000000000000000169160c01c6780000000000000001690607f190160401b1717171717171717171717171717693627a301d71055774c8502906f028f6481ab7f045a5af012a19d003aa919820160801d60020b916fdb2df09e81959a81455e260799a0632f0160801d60020b926000918484146000146122b657505050905090565b6122bf85611c3f565b161190506122cb575090565b905090565b905081607f031b612106565b506f0ffff5433e2b3d8211706e6102aa9472831061207a565b61230b9093929193612305611fb6565b50611fe1565b926001600160801b03808086511692168210159283612359575b5050501561232f57565b60405162461bcd60e51b8152602060048201526002602482015261524360f01b6044820152606490fd5b1610159050388080612325565b60009081526201000f60209081526040918290208351918401516001600160801b039283166001600160801b0319608092831b16178255928401516060850151948401516001600160c01b031960c09190911b16921667ffffffffffffffff60801b9490931b939093169190911717600190910155565b565b90816020910312610412575180151581036104125790565b6001600160a01b039182168152918116602083015291821660408201529116606082015260006080820181905260a08201526001600160801b039190911660c082015260e00190565b6001600160a01b0391821681529181166020830152918216604082015291166060820152600291820b608082015291900b60a08201526001600160801b039190911660c082015260e00190565b1561249457565b60405162461bcd60e51b81526020600482015260016024820152602d60f91b6044820152606490fd5b604051906124ca82611b57565b8160408051916124d983611b72565b60009283815283602082015283838201528360608201528360808201528360a08201528360c082015281528260208201520152565b9161252d9181949361251e6124bd565b506125276124bd565b50611bae565b9182600052602090620100098252604090816000209482519561254f87611b72565b549160ff92838116885261ffff808260081c16878a0152848260181c16868a015281871c166060890152838160301c166080890152838160381c1660a0890152841c83811660c0890152600180600092161460001461263c575060601c5b8351916125b983611b57565b878352858301526001600160a01b0316838201529451859060019083161161261257515116600019016125ea575050565b60649250519062461bcd60e51b825260048201526002602482015261504960f01b6044820152fd5b825162461bcd60e51b815260048101859052600360248201526249505360e81b6044820152606490fd5b90506125ad565b936001600160a01b039290918484161561041257600093600f83900b85811315612709575050506001600160801b0391818316906000146126fc5760408461268b87896129e1565b8152620100106020522091825484808216921682116000146126dd575050826126b88354928284166119e5565b16906001600160801b0319161790555b8116156126d8576123dd92612924565b505050565b6001600160801b0319169092559192506126f6916119e5565b906126c8565b925050506123dd92612924565b85969591939294975012612720575b505050505050565b6127299061282d565b941561277c57506040929161273d916129e1565b81526201001060205220908154906127616001600160801b039182168284166119b1565b16906001600160801b0319161790555b388080808080612718565b909192936001600160801b039060405192602084019463a9059cbb60e01b865216602484015216604482015260448152608081018181106001600160401b0382111761281957604052516127e5939283929083905af16127da61284e565b816127ea575061288d565b612771565b80518015925082156127ff575b50503861025b565b61281292506020809183010191016123df565b38806127f7565b634e487b7160e01b85526041600452602485fd5b600f0b6f7fffffffffffffffffffffffffffffff1981146119835760000390565b3d15612888573d906001600160401b038211611b41576040519161287c601f8201601f191660200184611b8d565b82523d6000602084013e565b606090565b1561289457565b60405162461bcd60e51b81526020600482015260026024820152612a2360f11b6044820152606490fd5b916001600160801b0391828116838316106128fa576128dc916119e5565b16806128e6575050565b6000808080936123dd955af161025b61284e565b60405162461bcd60e51b8152602060048201526002602482015261454360f01b6044820152606490fd5b916001600160a01b03811661298357506001600160801b0380911690816128fa57600091820381811161296f5716918261295d57505050565b81806123dd9481935af161025b61284e565b634e487b7160e01b83526011600452602483fd5b6040516323b872dd60e01b602082019081526001600160a01b0390941660248201523060448201526001600160801b0390921660648301526123dd926000928392919083906129d58160848101611bf3565b51925af16127da61284e565b604080516001600160a01b039283166020820190815293909216828201528152611c0181611b57565b60200190612a236001600160801b039182845116612a28565b169052565b91906000908181600f0b12600014612a57576001600160801b0380918303811685031693168310156103ba5750565b6001600160801b0380918116850116931683106103ba5750565b9190610822612a91611a1f926001600160401b0360608701511690612ab4565b93612aae6001600160801b0380925116809287160260401c611c07565b94611ac0565b6001600160401b03916001600160801b0392839116600160301b0191160260301c818111612ae0571690565b5090565b8181029291811591840414171561198357565b9190820180921161198357565b9190820391821161198357565b63ffffffff908116600019019190821161198357565b63ffffffff918216908216039190821161198357565b91909163ffffffff8080941691160191821161198357565b9060008281526201001e602081815263ffffffff946040948686862054169081612b91575b50508352522090421663ffffffff19825416179055565b836001600160801b039199979594939699989298015116965b81811642811015612c845762093a80908181049180830292808404821490151715612c5c57808201808311612c7057819004818102918183041490151715612c5c578a928589612c1f8f94889684612c459a81809416428110600014612c4a57612c15929350612b27565b165b169687612ae4565b938c81526201001d8a522091168d528652612c3e888d20918254612af7565b9055612b3d565b612baa565b505050612c579042612b04565b612c17565b634e487b7160e01b8c52601160045260248cfd5b634e487b7160e01b8d52601160045260248dfd5b5050955090919395923880612b7a565b6001600160a01b031690612ca88183612e14565b60009082825262010020602090808252604094858520848652835263ffffffff968787872054169081612cf5575b505084528152838320918352522090421663ffffffff19825416179055565b82612d0b919a989a999397969299959495612e14565b85526201000e83526001600160801b038986205416975b82811642811015612e005762093a80908181049180830292808404821490151715612dd857808201808311612dec57819004818102918183041490151715612dd8578b9286612d998f93879583612dc1998f828095169050428110600014612dc657612d8f929350612b27565b165b169586612ae4565b928c8c526201001f8a52808c20888d528a528b2091168a528752612c3e8d8a20918254612af7565b612d22565b505050612dd39042612b04565b612d91565b634e487b7160e01b89526011600452602489fd5b634e487b7160e01b8a52601160045260248afd5b505093949096509694969190913880612cd6565b906040519060208201926001600160601b03199060601b168352603482015260348152611c0181611b57565b91906001600160801b0380918401169216821061041257565b63ffffffff804211611a1f57421690565b80600a1c9060018216159081612ede575b5080612ebd575b15612e93576001600160601b031690565b60405162461bcd60e51b8152602060048201526002602482015261119160f21b6044820152606490fd5b506001600160601b036e3fffffffffffffffffffffffffffff821610612e82565b90506ffffffffffffffffffffffffffffffc006001600160801b03821691161438612e7b565b929092612f118382612fda565b9182546001600160601b03808216159182612fcc575b5050612f35575b5050505050565b8360ff93612f859260019660020b9760020b881215612fa7575b5050612f5b8184613a58565b60005262010006602052604060002092610100938686868a60081d830b07161b8154179055613a7f565b6000526201000760205260406000209307161b81541790553880808080612f2e565b81546001600160c01b031660c09190911b6001600160c01b0319161790553880612f4f565b60601c161590503880612f27565b604080516020810192835260e89390931b9083015290612ffd8160438101611bf3565b51902060005262010002602052604060002090565b91906001600160601b0380918401169216821061041257565b906001600160481b038092166001600160401b030191821161198357565b9060016001600160481b038093160191821161198357565b6001600160481b03918216908216039190821161198357565b816130889194939294612fda565b92600091600290810b91900b136130a25750505460c01c90565b90915460c01c6001600160401b03809316039182116130bf575090565b634e487b7160e01b81526011600452602490fd5b90916130dd575050565b60400190612a236001600160801b039182845116612a28565b9093926000946000938490858160020b8560020b908082131561040057620a276d19136103bd57620cb14a126103ba575061313361313991611c3f565b93611c3f565b936001600160801b038082169085811682101561316257505050509061315f92916131db565b91565b979850919690919085161161318057509061317d929161319f565b92565b92819550613199945083613193926131db565b9361319f565b91600190565b906001600160801b03808481959382809516838216116000146131d35703165b1691160260401c9081169081036104125790565b9003166131bf565b916001600160801b0382811690821611156131f957611a1f926131ff565b90611a1f925b906132409161322061321185846119e5565b946001600160c01b0392611ac0565b16926132386001600160801b03948580931690612ae4565b911690611afa565b9081169081036104125790565b90600082815262010017602081815263ffffffff9460409486868620541690816132885750508352522090421663ffffffff19825416179055565b866001600160801b039199979594939699989298015116965b81811642811015612c845762093a80908181049180830292808404821490151715612c5c57808201808311612c7057819004818102918183041490151715612c5c578a92858961330c8f9488968461332b9a81809416428110600014612c4a57612c15929350612b27565b938c8152620100168a522091168d528652612c3e888d20918254612af7565b6132a1565b60020b600a0190627fffff8213627fffff1983121761198357565b60020b627fffff81146119835760010190565b60020b6009190190627fffff198212627fffff83131761198357565b80548210156133925760005260206000200190600090565b634e487b7160e01b600052603260045260246000fd5b92826133c892939482968560c05260a05260018060a01b03169384613968565b600052620100126020526133e6838360406000209360c05190613968565b806101205260c0516000526201001a60205260406000209060005260205263ffffffff60406000205416806101405263ffffffff60a051161061392e5761014051156137f357546001600160801b031660e05290919061344590613330565b6080525b6134528261335e565b6002908161010052608051820b910b81136137b75760c051806000526201001c60205260406000206101205160005260205260406000208260005260205263ffffffff6040600020541680610160526101c0526000526201001860205260406000209060005260205263ffffffff6040600020541661018052610140515b63ffffffff60a0511663ffffffff821610806137a2575b156137295760c051600052620100186020526040600020608051610100510b60005260205261351d61016051604060002061337a565b5090604051918260408101106001600160401b03604085011117611b415763ffffffff906040840160405254818116845260201c16602083015262093a80908163ffffffff821604918281810204811483151715611983578063ffffffff8316018063ffffffff841611611983578190049283828102048214841517156119835763ffffffff8260a051950216938363ffffffff8216861060001461371b576135c7915085612b27565b9363ffffffff8651168181106135eb575b505050506135e69250612b3d565b6134d0565b63ffffffff851681101561370d575063ffffffff602085975b015116806101a05280156000146136a957506136496135e69663ffffffff613643819460a05183811682106000146136a257505b925b60e05193612b27565b16612ae4565b9260c0516000526201001960205260406000206101205160005260205260406000209202166000526020526040600020608051610100510b6000526020526136976040600020918254612af7565b9055388080806135d8565b9050613638565b9594908087116136f35750508463ffffffff610160511663ffffffff8114611983576135e69663ffffffff6136436136ed8883966001613649970161016052612b27565b9861363a565b6135e6965063ffffffff919582613643613649939261363a565b602063ffffffff9197613604565b61372491612b27565b6135c7565b50906134529063ffffffff61016051166101c051810361375b575b5061375060805161334b565b608052919050613449565b60c0516000526201001c6020526040600020610120516000526020526040600020608051610100510b60005260205260406000209063ffffffff1982541617905538613744565b506101805163ffffffff6101605116106134e7565b5090505b60c0516000526201001a602052604060002061012051600052602052604060002063ffffffff60a0511663ffffffff19825416179055565b506137fd90613330565b6138068261335e565b60029082820b910b811361392657613806916138539160c05180600052620100188060205260406000208360005260205263ffffffff60406000205416918261385a575b5050505061334b565b90506137fd565b60005260205260406000208260005260205263ffffffff613888604060002061388284612b11565b9061337a565b505460201c166138e65761389b90612b11565b9060c0516000526201001c60205260406000206101205160005260205260406000209060005260205263ffffffff6040600020911663ffffffff198254161790555b3880808061384a565b9060c0516000526201001c60205260406000206101205160005260205260406000209060005260205260406000209063ffffffff198254161790556138dd565b5050506137bb565b60405162461bcd60e51b8152602060048201526012602482015271125b9d985b1a59081d1a5b59481b1a5b5a5d60721b6044820152606490fd5b9290916040519260208401946001600160601b03199060601b168552603484015260e81b605483015260e81b6057820152603a8152611c0181611b57565b929190916001600160801b0380821615613a2a57831615613a23576001600160481b039384831685821614613a1b57613a07613a018694846139f5816139fb613a0d978b6139f58c9b826119b1565b91613a31565b996119b1565b94613049565b93613049565b169116019081116119835790565b935050505090565b5091505090565b5050505090565b6001600160481b0392613a54926001600160801b03918216928516911602611afa565b1690565b90604051906020820192835260020b60101d60f81b604082015260218152611c0181611b57565b90604051906020820192835260020b60081d60f01b604082015260228152611c0181611b57565b604080516020810192835260e89390931b9083015290613ac98160438101611bf3565b5190206000526201000260205260006040812055565b91613aea8284612fda565b9081546001600160601b038092168282160382811161198357821680916001600160601b03191617809355159182613b38575b5050613b2a575050600090565b613b3391613c32565b600190565b60601c161590503880613b1d565b91613b518284612fda565b906001600160601b03908180845460601c16911690038181116119835782546bffffffffffffffffffffffff60601b1916606082901b6bffffffffffffffffffffffff60601b161783558116159182613bb1575050613b2a575050600090565b54161590503880613b1d565b906001600160901b036001600160801b0383169216820361041257565b6001600160481b03916002838216018381116119835783168284161115613c2a57613c09839160011993613061565b1601818111611983576001600160401b038092821611600014613a54575090565b505050600090565b8160020b91613c418183613a7f565b60005262010007602052604060002061010090600160ff838707161b1981541680915515613c70575b50505050565b613c7e60ff92600194613a58565b6000526201000660205260406000209360081d830b07161b19815416905538808080613c6a565b6001600160a01b039091168152602081019190915260006040820181905260608201526001600160801b0390911660808201526001600160481b0390911660a082015260c00190565b9460a0946001600160481b03946001600160801b039399989460c089019a6001808a1b03168952602089015260020b604088015260020b606087015216608085015216910152565b15613d3d57565b60405162461bcd60e51b815260206004820152600260248201526104c560f41b6044820152606490fdfea2646970667358221220c0dbc77bb69a1435f71c02d1c07d550051df46c5cb43706027bbc7f567aad34064736f6c63430008130033",
    "linkReferences": {}
  },
  "methodIdentifiers": {
    "acceptCrocDex()": "7c519625",
    "protocolCmd(uint16,bytes,bool)": "13fd34f4",
    "readSlot(uint256)": "02ce8af3",
    "swap(address,address,uint256,bool,bool,uint128,uint16,uint128,uint128,uint8)": "3d719cd9",
    "userCmd(uint16,bytes)": "a15112f9",
    "userCmdRelayer(uint16,bytes,bytes,bytes,bytes)": "08719070",
    "userCmdRouter(uint16,bytes,address)": "90b33ce5"
  },
  "id": 1
}