{
  "abi": [
    {
      "inputs": [],
      "stateMutability": "nonpayable",
      "type": "constructor"
    },
    {
      "anonymous": false,
      "inputs": [
        {
          "indexed": true,
          "internalType": "bytes32",
          "name": "pool",
          "type": "bytes32"
        },
        {
          "indexed": true,
          "internalType": "int24",
          "name": "tick",
          "type": "int24"
        },
        {
          "indexed": false,
          "internalType": "bool",
          "name": "isBid",
          "type": "bool"
        },
        {
          "indexed": false,
          "internalType": "uint32",
          "name": "pivotTime",
          "type": "uint32"
        },
        {
          "indexed": false,
          "internalType": "uint64",
          "name": "feeMileage",
          "type": "uint64"
        },
        {
          "indexed": false,
          "internalType": "uint160",
          "name": "commitEntropy",
          "type": "uint160"
        }
      ],
      "name": "CrocKnockoutCross",
      "type": "event"
    },
    {
      "inputs": [],
      "name": "acceptCrocDex",
      "outputs": [
        {
          "internalType": "bool",
          "name": "",
          "type": "bool"
        }
      ],
      "stateMutability": "pure",
      "type": "function"
    },
    {
      "inputs": [
        {
          "internalType": "uint16",
          "name": "callpath",
          "type": "uint16"
        },
        {
          "internalType": "bytes",
          "name": "cmd",
          "type": "bytes"
        },
        {
          "internalType": "bool",
          "name": "sudo",
          "type": "bool"
        }
      ],
      "name": "protocolCmd",
      "outputs": [],
      "stateMutability": "payable",
      "type": "function"
    },
    {
      "inputs": [
        {
          "internalType": "uint256",
          "name": "slot",
          "type": "uint256"
        }
      ],
      "name": "readSlot",
      "outputs": [
        {
          "internalType": "uint256",
          "name": "data",
          "type": "uint256"
        }
      ],
      "stateMutability": "view",
      "type": "function"
    },
    {
      "inputs": [
        {
          "internalType": "address",
          "name": "base",
          "type": "address"
        },
        {
          "internalType": "address",
          "name": "quote",
          "type": "address"
        },
        {
          "internalType": "uint256",
          "name": "poolIdx",
          "type": "uint256"
        },
        {
          "internalType": "bool",
          "name": "isBuy",
          "type": "bool"
        },
        {
          "internalType": "bool",
          "name": "inBaseQty",
          "type": "bool"
        },
        {
          "internalType": "uint128",
          "name": "qty",
          "type": "uint128"
        },
        {
          "internalType": "uint16",
          "name": "tip",
          "type": "uint16"
        },
        {
          "internalType": "uint128",
          "name": "limitPrice",
          "type": "uint128"
        },
        {
          "internalType": "uint128",
          "name": "minOut",
          "type": "uint128"
        },
        {
          "internalType": "uint8",
          "name": "reserveFlags",
          "type": "uint8"
        }
      ],
      "name": "swap",
      "outputs": [
        {
          "internalType": "int128",
          "name": "baseQuote",
          "type": "int128"
        },
        {
          "internalType": "int128",
          "name": "quoteFlow",
          "type": "int128"
        }
      ],
      "stateMutability": "payable",
      "type": "function"
    },
    {
      "inputs": [
        {
          "internalType": "uint16",
          "name": "callpath",
          "type": "uint16"
        },
        {
          "internalType": "bytes",
          "name": "cmd",
          "type": "bytes"
        }
      ],
      "name": "userCmd",
      "outputs": [
        {
          "internalType": "bytes",
          "name": "",
          "type": "bytes"
        }
      ],
      "stateMutability": "payable",
      "type": "function"
    },
    {
      "inputs": [
        {
          "internalType": "uint16",
          "name": "callpath",
          "type": "uint16"
        },
        {
          "internalType": "bytes",
          "name": "cmd",
          "type": "bytes"
        },
        {
          "internalType": "bytes",
          "name": "conds",
          "type": "bytes"
        },
        {
          "internalType": "bytes",
          "name": "relayerTip",
          "type": "bytes"
        },
        {
          "internalType": "bytes",
          "name": "signature",
          "type": "bytes"
        }
      ],
      "name": "userCmdRelayer",
      "outputs": [
        {
          "internalType": "bytes",
          "name": "output",
          "type": "bytes"
        }
      ],
      "stateMutability": "payable",
      "type": "function"
    },
    {
      "inputs": [
        {
          "internalType": "uint16",
          "name": "callpath",
          "type": "uint16"
        },
        {
          "internalType": "bytes",
          "name": "cmd",
          "type": "bytes"
        },
        {
          "internalType": "address",
          "name": "client",
          "type": "address"
        }
      ],
      "name": "userCmdRouter",
      "outputs": [
        {
          "internalType": "bytes",
          "name": "",
          "type": "bytes"
        }
      ],
      "stateMutability": "payable",
      "type": "function"
    }
  ],
  "bytecode": {
    "object": "0x60808060405234620000bd5762010011805460ff60e01b1916600160e71b1790556201000180546001600160a01b031990811633179091556000805460ff60b01b1916600160b01b178155909161047c808201906001600160401b03821183831017620000a957908291620045348339039082f09081156200009d575060018060a01b03169060015416176001556040516144719081620000c38239f35b604051903d90823e3d90fd5b634e487b7160e01b84526041600452602484fd5b600080fdfe6080604052600436101561001257600080fd5b60003560e01c806302ce8af314610087578063087190701461008257806313fd34f41461007d5780633d719cd9146100785780637c5196251461007357806390b33ce51461006e5763a15112f91461006957600080fd5b6104c5565b610380565b610364565b6102c0565b6101da565b61012c565b346100a55760203660031901126100a5576004355460805260206080f35b600080fd5b61ffff8116036100a557565b9181601f840112156100a5578235916001600160401b0383116100a557602083818601950101116100a557565b6020808252825181830181905290939260005b82811061011857505060409293506000838284010152601f8019910116010190565b8181018601518482016040015285016100f6565b60a03660031901126100a557600435610144816100aa565b6001600160401b036024358181116100a5576101649036906004016100b6565b926044358381116100a55761017d9036906004016100b6565b906064358581116100a5576101969036906004016100b6565b9290916084359687116100a5576101cc976101b86101c09836906004016100b6565b979096610922565b604051918291826100e3565b0390f35b801515036100a557565b60603660031901126100a5576004356101f2816100aa565b6024356001600160401b0381116100a5576102119036906004016100b6565b906044359261021f846101d0565b6201000154336001600160a01b03918216149081610283575b50156100a557600080546001600160a81b0319163360ff60a01b19161794151560a01b60ff60a01b169490941790935561027192610795565b600080546001600160b01b0319169055005b9050600054161538610238565b6001600160a01b038116036100a557565b6001600160801b038116036100a557565b359060ff821682036100a557565b6101403660031901126100a5576004356102d981610290565b602435906102e682610290565b6064356102f2816101d0565b6084356102fe816101d0565b60a43561030a816102a1565b60c43590610317826100aa565b60e43592610324846102a1565b6101043594610332866102a1565b610124359660ff881688036100a55761034e9860443591610554565b60408051600f93840b81529190920b6020820152f35b346100a55760003660031901126100a557602060405160018152f35b60603660031901126100a557600435610398816100aa565b6024356001600160401b0381116100a5576101cc916103be6104709236906004016100b6565b9161046b6044356103ce81610290565b61044e6040516020810160018060a01b0391828516825233604082015261ffff871660608201526060815261040281610836565b519020600052620100106020526040600020610426815463ffffffff9060a01c1690565b9063ffffffff808316908110610486575b50506000546001600160a01b03169050161561054d565b60018060a01b03166001600160601b0360a01b6000541617600055565b611c2c565b60008054600161ff0160a01b03191690556101c0565b6104bd9261049861049d92151561054d565b610ee4565b815463ffffffff60a01b191660a09190911b63ffffffff60a01b16179055565b388080610437565b60403660031901126100a5576004356104dd816100aa565b6024356001600160401b0381116100a5576104fc9036906004016100b6565b90600092835460018060a01b038116610549576001600160a01b031916331784556101cc939261052d929091611c2c565b8154600161ff0160a01b031916909155604051918291826100e3565b8480fd5b156100a557565b949699989190959293979960005460018060a01b03908181166100a5576001600160a01b0319163317600081905560b01c60ff16156100a557610595610d1d565b5061059e610d1d565b506105a7610d1d565b5080881690871610156100a5578789866106af6107146107649c84848e8e6107199b61075f9e6106d6604051602081019061061381610605878a8a8760409194939294606082019560018060a01b0380921683521660208201520152565b03601f1981018352826108a2565b51902080600052620100096020526106b56040600020946040519c8d9661063988610816565b5460ff811688526106a860ff60c061ffff9a8b8560081c16602082015261066b838660181c16604083019060ff169052565b61ffff602086901c8d1616606082015260ff603086901c841616608082015260ff603886901c84161660a0820152019260401c16829060ff169052565b5160ff1690565b90611ae0565b906106be6108c3565b9b8c5260208c01526001600160a01b031660408b0152565b6106e76106e28a611af7565b611aaf565b6020895101916107036106fc845161ffff1690565b61ffff1690565b90821611610788575b50508661196f565b610c21565b926107406107288551600f0b90565b9860208601926107398451600f0b90565b9c87610b27565b5061075761074f8551600f0b90565b9151600f0b90565b908686611cef565b611b3a565b600080546001600160a01b031916905591905b6000805460ff60a81b19169055565b565b61ffff169052388061070c565b61079e81611c7d565b620100008110156107fb576001015460405163016ce03360e71b602082019081526107f89460009485946001600160a01b031693916107e69183916106059160248401611bd4565b51915af46107f2611bfc565b90611cd9565b50565b611bbe565b634e487b7160e01b600052604160045260246000fd5b60e081019081106001600160401b0382111761083157604052565b610800565b608081019081106001600160401b0382111761083157604052565b60a081019081106001600160401b0382111761083157604052565b606081019081106001600160401b0382111761083157604052565b60c081019081106001600160401b0382111761083157604052565b90601f801991011681019081106001600160401b0382111761083157604052565b604051906107868261086c565b6001600160401b03811161083157601f01601f191660200190565b9291926108f7826108d0565b9161090560405193846108a2565b8294818452818301116100a5578281602093846000960137010152565b929790939691949596604080519361093985610836565b61ffff8616855261095f61094e368a8a6108eb565b9b6020948588019d8e5236916108eb565b94828101958652610971368c8c6108eb565b6060820181905260008054909d6001600160a01b03979092918816610ace578460609181010312610aca57928d9492610a7c92879561ffff6109b2856102b2565b9351169151878151910120908b518881519101209088815191012090875192898401947fb7268d49bb01bc5e690da8069036b0caa17476a23af017f9840ccc0fc5ca01b78652898501526060840152608083015260a082015260a08152610a1881610887565b519020610605610a4f610a29610e4e565b9287519283918a83019586909160429261190160f01b8352600283015260228201520190565b519020845190815260ff909116602082015293810135604085015290910135606083015281906080820190565b838052039060015afa15610ac55761044e610aaa92610aa3610aaf9a51938416151561054d565b5182610d92565b610ad2565b600080546001600160a01b031916905590610777565b610e42565b8d80fd5b8e80fd5b610aef926107869492610ae792979697611c2c565b9436916108eb565b61103d565b634e487b7160e01b600052601160045260246000fd5b600f0b60016001607f1b03198114610b225760000390565b610af4565b9293929091908415610bc75760200151600f0b905b8194151590151514600014610bb557610b606001600160801b038316600f0b610b0a565b600f0b90600f0b1390811591610ba3575b5015610b7957565b60405162461bcd60e51b815260206004820152600260248201526114d360f21b6044820152606490fd5b6001600160801b039150161538610b71565b6001600160801b038216600f0b610b60565b51600f0b90610b3c565b60405190610bde82610836565b60006060838281528260208201528260408201520152565b60405190610c0382610851565b60006080838281528260208201528260408201528260608201520152565b939192610d1a93610c30610bd1565b50610c39610bf6565b9215158352151560208301526001600160801b039283809216606084015216608082015260006040820152610d14610c6f610bd1565b9460208101928351610c7f610bf6565b506000526201000f602052610d0d604060002095610cea600160405198610ca58a610851565b80548481168b5260801c60208b0152015482811660408a0152610ce06001600160401b038260801c1660608b01906001600160401b03169052565b60c01c6080890152565b610d08610cfe88516001600160801b031690565b918216151561054d565b611267565b8588612218565b51611896565b90565b60405190606082018281106001600160401b038211176108315780604052604083610d4783610816565b6000928381528360808301528360a08301528360c08301528360e0830152836101008301528361012083015281528260208201520152565b519065ffffffffffff821682036100a557565b60a0828051810103126100a557610dab60208301610d7f565b610db760408401610d7f565b9160608401519160808501519363ffffffff851685036100a557610e12610e299260a0610786980151610de981610290565b6001600160a01b03169265ffffffffffff91610e0990831642111561054d565b1642101561054d565b8015908115610e38575b8115610e2e575b5061054d565b610ef7565b9050321438610e23565b3381149150610e1c565b6040513d6000823e3d90fd5b60405160208101907f8b73c3c69bb8fe3d512ecc4cf759cc79239f7b179b0ffacaa9a75d522b39400f82527f33dd648f3c5d475752f4dfbf3ab10305e18604abf30961145f1889ec2e86756360408201527fe6bbd6277e1bf288eed5e8d1780f9a50b239e86b153736bceebccf4ea79d90b360608201524660808201523060a082015260a08152610ede81610887565b51902090565b63ffffffff168015610b22576000190190565b604080516001600160a01b0390921660208301908152828201939093528152610f1f8161086c565b5190206000526201001060205260406000209081549063ffffffff80808460801c16921682036100a5578114610b225763ffffffff60801b1990911660019190910160801b63ffffffff60801b16179055565b908160609103126100a5578051610f8881610290565b9160406020830151610f99816102a1565b920151610d1a81610290565b9190916001600160801b0380809416911602918216918203610b2257565b634e487b7160e01b600052601260045260246000fd5b906001600160801b03809216600003918211610b2257565b6001600160801b039182169082160391908211610b2257565b9060016001600160801b0380931601918211610b2257565b9190916001600160801b0380809416911601918211610b2257565b80519081156111eb57602080611057938301019101610f72565b6001600160a01b039283169282916110709082166111ef565b9061108a856110848160005494851661123e565b9361123e565b906001600160801b0380809516146111b8575b611173839261116161110c6110f560ff611147966110eb8c8c806110e06110d361118a9f60005262010010602052604060002090565b546001600160801b031690565b92169116101561054d565b60c01c168a610fa5565b60081c6effffffffffffffffffffffffffffff1690565b9761114761113061111d8b84610ff1565b9760005262010010602052604060002090565b9161114283546001600160801b031690565b610ff1565b6001600160801b03166001600160801b0319825416179055565b60005262010010602052604060002090565b9161118583546001600160801b031690565b611022565b8116611194575050565b6111476111736107869360018060a01b03166000526201000c602052604060002090565b919350828085926111d58460005262010010602052604060002090565b546001600160801b03169650929391505061109d565b5050565b6001600160a01b03811661010081036112085750503390565b610200146112135790565b503290565b604051602081019160018060a01b031682526000604082015260408152610ede8161086c565b604080516001600160a01b039283166020820190815293909216828201528152610ede8161086c565b6001600160801b03600160401b600160c01b038183169262010002841015806114f1575b6112949061054d565b60401b168091811160071b9181831c926001600160401b03841160061b93841c9363ffffffff851160051b94851c9461ffff861160041b95861c60ff9687821160031b91821c92600f841160021b93841c94600160038711811b96871c1196171717171717179160808310156000146114e55750607e1982011c5b8002607f928392828493841c81841c1c800280851c81851c1c800280861c81861c1c800280871c81871c1c80029081881c82881c1c80029283891c84891c1c800294858a1c868a1c1c800296878b1c888b1c1c800298898c1c8a8c1c1c80029a8b8d1c8c821c1c8002809d1c8d821c1c8002809e81901c90821c1c80029e8f80911c911c1c800260cd1c6604000000000000169d60cc1c6608000000000000169c60cb1c6610000000000000169b60ca1c6620000000000000169a60c91c6640000000000000169960c81c6680000000000000169860c71c670100000000000000169760c61c670200000000000000169660c51c670400000000000000169560c41c670800000000000000169460c31c671000000000000000169360c21c672000000000000000169260c11c674000000000000000169160c01c6780000000000000001690607f190160401b1717171717171717171717171717693627a301d71055774c85026f028f6481ab7f045a5af012a19d003aa919810160801d60020b906fdb2df09e81959a81455e260799a0632f0160801d60020b916000908383146000146114bd575050905090565b6114d56114c98561151c565b6001600160801b031690565b1190506114e0575090565b905090565b905081607f031b61130f565b506f0ffff5433e2b3d8211706e6102aa9472841061128b565b8015611517576000190490565b610fc3565b6001600160801b039060020b620a276d1981121580611889575b61153f9061054d565b60008112156118835780600003905b6001821615611871576001600160881b036ffffcb933bd6fad37aa2d162d1a5940015b169160028116611855575b60048116611839575b6008811661181d575b60108116611801575b602081166117e5575b604081166117c9575b6080908181166117ae575b6101008116611793575b6102008116611778575b610400811661175d575b6108008116611742575b6110008116611727575b612000811661170c575b61400081166116f1575b61800081166116d6575b6201000081166116bb575b6202000081166116a1575b620400008116611687575b620800001661166c575b5060001261165e575b6001600160401b0381166116555760ff60005b169060401c011690565b60ff600161164b565b6116679061150a565b611638565b6b048a170391f7dc42444e8fa26000929302901c919061162f565b6d2216e584f5fa1ea926041bedfe98909302811c92611625565b926e5d6af8dedb81196699c329225ee60402811c9261161a565b926f09aa508b5b7a84e1c677de54f3e99bc902811c9261160f565b926f31be135f97d08fd981231505542fcfa602811c92611604565b926f70d869a156d2a1b890bb3df62baf32f702811c926115fa565b926fa9f746462d870fdf8a65dc1f90e061e502811c926115f0565b926fd097f3bdfd2022b8845ad8f792aa582502811c926115e6565b926fe7159475a2c29b7443b29c7fa6e889d902811c926115dc565b926ff3392b0822b70005940c7a398e4b70f302811c926115d2565b926ff987a7253ac413176f2b074cf7815e5402811c926115c8565b926ffcbe86c7900a88aedcffc83b479aa3a402811c926115be565b926ffe5dee046a99a2a811c461f1969c305302811c926115b4565b916fff2ea16466c96a3843ec78b326b528610260801c916115a9565b916fff973b41fa98c081472e6896dfb254c00260801c916115a0565b916fffcb9843d60f6159c9db58835c9266440260801c91611597565b916fffe5caca7e10e4e61c3624eaa0941cd00260801c9161158e565b916ffff2e50f5f656932ef12357cf3c7fdcc0260801c91611585565b916ffff97272373d413259a46990580e213a0260801c9161157c565b6001600160881b03600160801b611571565b8061154e565b50620cb14a811315611536565b90610786916000526201000f6020526001600160401b03608060406000209261192460016001600160801b03956118e68785511682906001600160801b03166001600160801b0319825416179055565b60208401518154881690861b6001600160801b03191617815560408401519101951685906001600160801b03166001600160801b0319825416179055565b60608101518454918301516001600160c01b0385851b1990931691851690931b1716911660c01b6001600160c01b031916179055565b908160209103126100a55751610d1a816100aa565b60408101516001600160a01b039691959394929390871680611996575b5050505050505050565b6020956001600160801b038894600094610104978c61ffff8c828a54169a51015116956040519e8f9c8d9b6309cad7a760e31b8d5260048d01523360248d01521660448b015216606489015215156084880152151560a48701521660c485015260e48401525af1908115610ac557611a1692600092611a23575b50611a53565b388080808080808061198c565b611a4591925060203d8111611a4c575b611a3d81836108a2565b81019061195a565b9038611a10565b503d611a33565b9061ffff8091168015611a86576000190191818311610b22575160200180519092821690821603818111610b2257169052565b60405162461bcd60e51b81526020600482015260016024820152602d60f91b6044820152606490fd5b15611ab657565b60405162461bcd60e51b8152602060048201526002602482015261504960f01b6044820152606490fd5b9060018060009216146000146114e0575060601c90565b600160ff8251511611611b0f57515160ff1660011490565b60405162461bcd60e51b815260206004820152600360248201526249505360e81b6044820152606490fd5b9060606001600160801b039283928360408301511680611b8f575b50500151169182611b6557505050565b6001600160a01b031660009081526201000c60205260409020610786926111479192835416611022565b611bb79160018060a01b03166000526201000c60205261114760406000209186835416611022565b3880611b55565b634e487b7160e01b600052603260045260246000fd5b90918060409360208452816020850152848401376000828201840152601f01601f1916010190565b3d15611c27573d90611c0d826108d0565b91611c1b60405193846108a2565b82523d6000602084013e565b606090565b611c3581611c7d565b620100008110156107fb5760010154604051631f2db8f160e31b60208201908152610d1a9460009485946001600160a01b031693916107e69183916106059160248401611bd4565b620100008110156107fb5760018101546001600160a01b0316156100a55760ff60005460b81c1615908115611cc9575b8115611cbc575b50156100a557565b61ffff9150161538611cb4565b61ffff811661270f149150611cad565b15611ce15790565b80519081156100a557602001fd5b6000546001600160a01b0390811694929391908116611d9a57506000549460ff8660a81c16611d705761078695600292611d2834611db3565b60ff60a81b19909216600160a81b17600055600f81900b15611d6057611d5691600184161515918880611ece565b1615159280611dc7565b50611d6b9086612190565b611d56565b60405162461bcd60e51b8152602060048201526002602482015261445360f01b6044820152606490fd5b94611d6b60029261078697600184161515918880611dc7565b906001600160801b0382169182036100a557565b909392916001600160a01b03808416156100a55781600f0b60008113600014611e0057505061078694506001600160801b031690611ff2565b600091935094939412611e15575b5050505050565b611e1e90610b0a565b9115611e43575091611e39926001600160801b0316906121b7565b3880808080611e0e565b91611e9a93600080946001600160801b03829560405192602084019563a9059cbb60e01b875216602484015216604482015260448152611e8281610836565b51925af1611e8e611bfc565b81611e9f575b50612091565b611e39565b8051801592508215611eb4575b505038611e94565b611ec7925060208091830101910161207c565b3880611eac565b9360009291600f83900b84811315611f745750506001600160801b0391821690600014611f6857604083611f0187611218565b8152620100106020522090815483811690828211600014611f4957505090611147611f2f9284835416610ff1565b811615611f3f57610786926120c2565b5061078691612190565b6001600160801b031916909255919250611f6291610ff1565b90611f2f565b915050610786926120c2565b84965093909392919212611f89575050505050565b611f9290610b0a565b6001600160801b03949085169115611fd35793611147611fce926040611e3997611fbb87611218565b8152620100106020522092835416611022565b612190565b809392611e9a95611fe683958495611022565b16905af1611e94611bfc565b921561207357600090612005838561123e565b8252620100106020526040822080546001600160801b039290838116908483168211156120545750509061114761203f9284835416610ff1565b81161561204f5761078692612114565b505050565b6001600160801b03191690925591925061206d91610ff1565b9061203f565b61078692612114565b908160209103126100a55751610d1a816101d0565b1561209857565b60405162461bcd60e51b81526020600482015260026024820152612a2360f11b6044820152606490fd5b90916001600160801b03808416908216106120ea57610786926120e491610ff1565b90612190565b60405162461bcd60e51b8152602060048201526002602482015261454360f01b6044820152606490fd5b90916001600160a01b03811661213f57506001600160801b0382166120ea576120e461078692610fd9565b6040516323b872dd60e01b602082019081526001600160a01b0390931660248201523060448201526001600160801b039093166064840152610786926000928392918390611e828160848101610605565b906001600160801b0316806121a3575050565b600080808093610786955af1611e94611bfc565b610786926121c49161123e565b600052620100106020526111476040600020916001600160801b03835416611022565b156121ee57565b60405162461bcd60e51b815260206004820152600260248201526114d160f21b6044820152606490fd5b83519192911561237b5761225e61223684516001600160801b031690565b6001600160801b036122556114c960808901516001600160801b031690565b911611156121e7565b612272610d0884516001600160801b031690565b9360015b6122b157505050610d0861229191516001600160801b031690565b908160020b8160020b036122a457505050565b6020610786930151613162565b60208601846122cc8583516122c68651151590565b906132b7565b91909283926122df858c51888a876123b7565b6122e98684613e0a565b948591826122fd575b505050505050612276565b61232a575b50612310575b8381806122f2565b612321939650908491519286613e5e565b92388581612308565b93505061234381518461233d8851151590565b91613671565b9260029084820b910b03612359575b8338612302565b92505061236a81895185878a6123b7565b856123758482613e0a565b92612352565b61225e61238f84516001600160801b031690565b6001600160801b036123ae6114c960808901516001600160801b031690565b911610156121e7565b9093916001600160801b03928360808301511682511515906123d892612ba3565b906060810193808551169581602084019781895115159381898680602085015161ffff16946040015160ff16968c85855116868216119261241992866126b6565b846124238561270e565b94511661242f94613084565b1602620f4240900491820260081c1693849116031691612450828488612c84565b61245992613106565b90875161246590151590565b92612470938a6124e7565b845115159051151584516001600160801b03169161248d946125a4565b6001600160801b0316909252909151151561078693926124ae919284612578565b156124cd576060016001600160801b039081815116918211610b225752565b6040016001600160801b039081815116918211610b225752565b926124f3919284612578565b1561251657606001906125116001600160801b039182845116611022565b169052565b604001906125116001600160801b039182845116611022565b600f0b6004019060016001607f1b03821360016001607f1b0319831217610b2257565b90600f0b90600f0b019060016001607f1b0319821260016001607f1b03831317610b2257565b60209061258c61259d938251600f0b612552565b600f0b815201918251600f0b612552565b600f0b9052565b9392909491946125b6848284886126b6565b6001600160801b039083821681831610156125eb5750509084956125de928561078697612887565b8095929594919596612b4c565b8261263d8884999894968b612635818a99612644986126098761270e565b968c61261b8585858c85875116612986565b988991856126aa5761262f9351169061277a565b90612aa8565b94909461252f565b948b6128ed565b94919790968597989960001461269f575116911611915b82612694575b50501561266a57565b60405162461bcd60e51b8152602060048201526002602482015261292360f11b6044820152606490fd5b161590503880612661565b51169116109161265b565b61262f935116906127b2565b919290926126c38361270e565b90156126f5576001600160801b036126dd9351169061277a565b6001600160801b0382811690821611156114e0575090565b6001600160801b03612709935116906127b2565b6126dd565b6001600160801b0380806040612738826020870151166001600160401b036060880151169061274a565b94015116830116911681106100a55790565b6001600160401b03916001600160801b0392839116600160301b0191160260301c818111612776571690565b5090565b9091610d1a926001600160801b038281939282809416838216116000146127aa5703165b1691160260401c611db3565b90031661279e565b916001600160801b0382811690821611156127d057610d1a92612805565b90610d1a92612805565b9062093a8091828102928184041490151715610b2257565b81810292918115918404141715610b2257565b61283a909291926128286128198486610ff1565b936001600160c01b0392612aeb565b166001600160801b03809316906127f2565b9116801561151757610d1a9104611db3565b90610d1a9260001461286e576001600160801b0380911691160260401c611db3565b6001600160c01b03916128819190612aeb565b16611db3565b92936128e1946128d5936128db6128ce83836128a28a61270e565b6128c2896001600160801b038d51166128bc82828661277a565b936127b2565b82156128e85790612aa8565b969061252f565b9561252f565b956128ed565b9192909190565b612aa8565b92916128ff909794969197888761294c565b6001600160801b0392908382168482161061293d5750506000945b871561293757805b971561293057505b94169052565b905061292a565b81612922565b61294691610ff1565b9461291a565b91151590151514600014612978575b600081600f0b12612972576001600160801b031690565b50600090565b61298190610b0a565b61295b565b9392156129dd57612996936129eb565b6001600160801b0381166f0ffff5433e2b3d8211706e6102aa94728110156129c757620100028091106114e0575090565b50506f0ffff5433e2b3d8211706e6102aa947190565b6129e693612a5c565b612996565b91906001600160801b039182821615612a545790612a0891612aeb565b6001600160c01b0381168210612a4d5781169215612a2b575090610d1a91611022565b8116821015612a4657612a40610d1a9261100a565b90610ff1565b5050600090565b5091505090565b505091505090565b90612a6b612a73949392612b0f565b9215926129eb565b6001600160801b03811615612a9357612a8e610d1a91612b0f565b61100a565b506f0ffff5433e2b3d8211706e6102aa947290565b919092151590151514600014612ad657612acd612ac7612ad292612b31565b92612b31565b610b0a565b9091565b612ae5612acd612ad292612b31565b91612b31565b906001600160801b03169081156115175760401b600160401b600160c01b03160490565b6001600160801b03809116801561151757600160801b048181116100a5571690565b6001600160801b03166001607f1b8110156100a557600f0b90565b516001600160801b0392831690831614919082612b97575b505015612b6d57565b60405162461bcd60e51b8152602060048201526002602482015261052560f41b6044820152606490fd5b16151590503880612b64565b90612bae9291612bf9565b6001600160801b03811662010002808210612bf357506f0ffff5433e2b3d8211706e6102aa94721115612bde5790565b506f0ffff5433e2b3d8211706e6102aa947190565b91505090565b90918160020b620a276d19811390811591612c76575b5015612c1a57505090565b15612c5457612c2b612c3b9161151c565b600019016001600160801b031690565b906001600160801b0380821690831610156114e0575090565b612c5d9061151c565b906001600160801b0380821690831611156114e0575090565b620cb14a9150121538612c0f565b9091612c8f8261270e565b926001600160801b039182851615611e0e571593612cb185848651168361302b565b60011b917001fffffffffffffffffffffffffffffffe6ffffffffffffffffffffffffffffffffe841693168303610b22578584612d0f94808285161115600014612e27575050612d0a91506000925b858751169061284c565b612e33565b906001600160401b0393848316612d27575050505050565b612d35908383865116612f8e565b1682526060820183612d4a8382845116612f5d565b16809152600160301b0190811561151757611e3993612e1a926dffffffffffffffff00000000000060209360301b16041692612e07612ddc612dd5612dd0612dc488612da060408801516001600160801b031690565b6001600160801b036001600160401b036001600160901b03931691160260301c1690565b6001600160901b031690565b611db3565b8096612fe6565b612dfa6080840191612df583516001600160401b031690565b612f42565b6001600160401b03169052565b019161118583516001600160801b031690565b6001600160801b03169052565b612d0a93031692612d00565b6001600160801b038082168015918215612ec5575b5050612a4657612e5b612e609282611022565b612ed1565b906001600160401b0380831692600160301b93848110156100a55780677fffffffffffffff910260331c9160011c16031691821015612e9b57565b60405162461bcd60e51b815260206004820152600260248201526124a360f11b6044820152606490fd5b84161190503880612e48565b906001600160801b03906001600160d01b038284169081109081612f35575b50156100a55716801561151757600160301b9160301b6601000000000000600160b01b03160465ffffffffffff190181811015612776576001600160401b0391501690565b9050828216111538612ef0565b9190916001600160401b0380809416911601918211610b2257565b6001600160401b0391908216600160301b908101918316010260301c65ffffffffffff190181811015612776571690565b91906001600160401b0316600160301b0190600014612fc057610d1a916001600160801b03160260301c600101611db3565b8015611517576601000000000000600160b01b036001600160801b039260301b16041690565b906001600160801b0380821680156130225761300f613015916001600160401b038096166127f2565b9261100a565b1690811561151757041690565b50505050600090565b911561304d575060401c6001600160401b03166001016001600160801b031690565b610d1a9160019161307b61306e60001983016001600160801b031684612aeb565b91848060c01b0393612aeb565b90031601611db3565b9291936001600160801b03948585169384156130fa57866130b68482951596836130af89838d61284c565b169961284c565b169315901515146000146130f1571601905b81156130eb57610d1a9350800204818111156130e45703611db3565b9003611db3565b50505090565b169003906130c8565b50505050505050600090565b60009391929083016001600160801b03169084901561312d575061312990612b31565b9190565b92935061313990612b31565b9290565b91908203918211610b2257565b80548210156107fb5760005260206000200190600090565b909291600091808352620100189485602052604092613190828587209060020b600052602052604060002090565b549363ffffffff946131bb864216948689528a6020528389209060020b600052602052604060002090565b906000198101908111610b22576131d685916131f99361314a565b509067ffffffff0000000082549160201b169067ffffffff000000001916179055565b805197818901938985106001600160401b038611176108315761323b94835289526020890194878652875260205285209060020b600052602052604060002090565b8054600160401b811015610831576132589160018201815561314a565b9390936132a357506132818261078695965116849063ffffffff1663ffffffff19825416179055565b51825467ffffffff000000001916911660201b67ffffffff0000000016179055565b634e487b7160e01b81526004819052602490fd5b9160020b918260081d918260010b916040516132ea81610605866020830195869091602292825260f01b60208201520190565b519020936000948552620100076020526133328261ffff6040882054938289816000146133ac575061332960ff91826101008160015b169507166133bd565b160116836133cf565b9091831561336a5750945b508415613352575061334f92506135e2565b91565b905060ff91501660020b9060081b60020b0160020b91565b86811515918261339c575b5081613390575b501561338b5750845b9461333d565b613385565b60ff915016153861337c565b6133a691506134f2565b38613375565b60ff91826101008161332994613320565b90156133c65790565b60ff9081031690565b6000939161ffff9084156134e6571690811c901b915b821592831591826133f557505050565b92945090916000901561340d575061334f91506134f2565b9061341981929361054d565b600160801b8110156134d7575b5080600160401b60029210156134c8575b6401000000008110156134b9575b620100008110156134aa575b61010081101561349b575b601081101561348c575b600481101561347e575b1061334f5760010160ff1691565b91810160ff1691811c613470565b600492830160ff16921c613466565b600892830160ff16921c61345c565b601092830160ff16921c613451565b602092830160ff16921c613445565b604092830160ff16921c613437565b60809250821c90506002613426565b1690811b901c916133e5565b906134fe82151561054d565b60ff6001600160801b038316156135d85750607f5b6001600160401b038316156135ce57603f190160ff165b63ffffffff8316156135c457601f190160ff165b61ffff8316156135ba57600f190160ff165b60ff8316156135b0576007190160ff165b600f8316156135a6576003190160ff165b600383161561359a576001190160ff16916001905b1661358e57565b60001990910160ff1690565b9160019060021c613587565b9160041c91613572565b9160081c91613561565b9160101c91613550565b9160201c9161353e565b9160401c9161352a565b9160801c91613513565b90811561365257811561364857617fff905b60010b60009160010b8114600014613611575050610d1a9061365d565b60010191617fff8313617fff19841217610b2257613640575060ff805b1660020b9060081b60020b0160020b90565b60ff9061362e565b617fff19906135f4565b905060081b60020b90565b1561366957627fffff90565b627fffff1990565b91908180613742575b61373857811580613728575b61371d5781156136fe575b60020b60ff610100816080601085901d600081810b9081126136f4575082160116925b60081d60010b07166136c883828487613985565b156136ec5750826136da918386613d0e565b939093156130eb57610d1a9350613d80565b935050505090565b90500116926136b4565b60020b60001901627fffff198112627fffff8213171561369157610af4565b505050627fffff1990565b50627fffff198160020b14613686565b505050627fffff90565b50627fffff8160020b1461367a565b9061375b90613b31565b9060405161379281610605602082019460ff881660010b8760081b60010b0160010b90869091602292825260f01b60208201520190565b5190206000526201000760205260406000205460009080159081156137e9575b506137de5760ff61ff00911660020b9260081b1660020b9060101b60020b0160020b0160020b90600090565b505050600090600190565b6137f49192506134f2565b90386137b2565b92919061380790613b31565b604051602081019061383f8161060560ff9889881660010b8760081b60010b0160010b90869091602292825260f01b60208201520190565b51902093600094855262010007602052604085205485908015908382159182613897575b50505061388e579061ff00911660020b9260081b1660020b9060101b60020b0160020b0160020b9190565b50505050600190565b809192939450906138a88a9461054d565b600160801b811015613972575b508082600160401b6002931015613964575b640100000000821015613956575b62010000821015613948575b61010082101561393a575b601082101561392c575b600482101561391d575b501015613912575b5090388381613863565b906001011682613908565b908290811c9401169282613900565b600494850116931c826138f6565b600894850116931c826138ec565b601094850116931c826138e1565b602094850116931c826138d5565b604094850116931c826138c7565b9250505060801c826002608092906138b5565b9061399290949394613b31565b9060405160208101906139cb8161060560ff9586891660010b8860081b60010b0160010b90869091602292825260f01b60208201520190565b5190206000908152620100076020526040812054909586918115613b2b57905b8115918483159283613a24575b5050505061388e579061ff00911660020b9260081b1660020b9060101b60020b0160020b0160020b9190565b909192939450600014613a465750613a3c91506134f2565b90388084816139f8565b9080613a528a9461054d565b600160801b811015613b18575b508082600160401b6002931015613b0a575b640100000000821015613afc575b62010000821015613aee575b610100821015613ae0575b6010821015613ad2575b6004821015613ac3575b501015613ab8575b50613a3c565b906001011682613ab2565b908290811c9401169282613aaa565b600494850116931c82613aa0565b600894850116931c82613a96565b601094850116931c82613a8b565b602094850116931c82613a7f565b604094850116931c82613a71565b9250505060801c82600260809290613a5f565b906139eb565b60ff8116906000906080831015613b5157505060010b607f190160000b90565b607f190160ff16900b919050565b90613b6981613b31565b604051602081019184835260f81b604082015260218152613b898161086c565b51902060005262010006602052604060002054906000918015908115613bb8575b506137de57612ad292613751565b613bc39193506134f2565b9138613baa565b90613bd481613b31565b604051602081019184835260f81b604082015260218152613bf48161086c565b519020600052620100066020526040600020549060009180159081159081613c26575b50506137de57612ad2926137fb565b613c358195929395929361054d565b600160801b811015613cff575b5080600160401b6002921015613cf0575b640100000000811015613ce1575b62010000811015613cd2575b610100811015613cc3575b6010811015613cb4575b6004811015613ca6575b1015613c9b575b913880613c17565b60010160ff16613c93565b91810160ff1691811c613c8c565b600492830160ff16921c613c82565b600892830160ff16921c613c78565b601092830160ff16921c613c6d565b602092830160ff16921c613c61565b604092830160ff16921c613c53565b60809250821c90506002613c42565b929182613d6491613d1e84613b31565b604051602081019188835260f81b604082015260218152613d3e8161086c565b5190206000526201000660205260ff613d5d83604060002054936133bd565b16906133cf565b919091613d7457612ad293613985565b50505050600090600190565b9115613d8f57610d1a91613d98565b610d1a91613dcf565b9060ff91826001809301165b838116613db65750505050627fffff90565b613dc08183613b5f565b156136ec575082018316613da4565b60ff916000199190820183165b8380821610613df15750505050627fffff1990565b613dfb8183613bca565b156136ec575082018316613ddc565b815115613e44576001600160801b03809151169060808301511611905b81613e30575090565b6001600160801b0391506060015116151590565b6001600160801b0380915116906080830151161090613e27565b909392918460020b627fffff1981139081613f17575b5015613f1057612e1a613ef892613e9d86613e9285613efe9961406f565b8651151589866141cc565b613ee0613ed7613eb06020880151151590565b94613ebb8851151590565b6060890196613ed188516001600160801b031690565b92613f24565b93919091612578565b82516001600160801b0316036001600160801b031690565b51151590565b15613f065790565b6000190160020b90565b5050505090565b627fffff91501238613e74565b90939291613f318261270e565b90613f49866001600160801b0393848651169061302b565b938280861691161115613fa95715613f675750926128e19293613fd3565b80825116620100028111613f9a575b505050613f8281612b31565b9215613f9457506000905b6000929190565b90613f8d565b60001901169052388080613f76565b60405162461bcd60e51b8152602060048201526002602482015261109160f21b6044820152606490fd5b9290926001600160801b03808251166f0ffff5433e2b3d8211706e6102aa94718110614016575b50505060009161400981612b31565b93600090156114e0575090565b600101169052388080613ffa565b9062093a808201809211610b2257565b91908201809211610b2257565b63ffffffff9182169082160391908211610b2257565b91909163ffffffff80809416911601918211610b2257565b906140936140898360005262010017602052604060002090565b5463ffffffff1690565b63ffffffff918282166140d5575b5050906140c06107869242169160005262010017602052604060002090565b9063ffffffff1663ffffffff19825416179055565b604001519092906140ee906001600160801b03166114c9565b925b82811690428210156141bb579081846141a49361411d61411462093a8086046127da565b63ffffffff1690565b9361413e61411461413961413084614024565b62093a80900490565b6127da565b904284831610156141a957506141579161411491614041565b169161419d61419561416989866127f2565b926141808860005262010016602052604060002090565b9063ffffffff16600052602052604060002090565b918254614034565b9055614057565b6140f0565b90506141b691504261313d565b614157565b509092506140c090506107866140a1565b919260808301906001600160401b038251169360405160208101908382528560e81b6040820152602381526142008161086c565b519020600052620100026020526142a06142936040806000208054986d03fffffffffffffffffffffff800808b60561c16600f0b908b600a1b16600f0b03600f0b8b60001461432a57995b60c01c908181036142f6575b505089156142dd57546142799060601c6001600160601b03165b600116151590565b935b019661428e88516001600160801b031690565b614339565b6001600160801b03168652565b6142ab575050505050565b611e3994612e1a936142c76142cd94516001600160401b031690565b926143b7565b82516001600160801b0316614339565b546142f0906001600160601b0316614271565b9361427b565b6143239161430391614385565b82546001600160c01b031660c09190911b6001600160c01b031916178255565b3880614257565b61433390610b0a565b9961424b565b91906000908181600f0b1260001461436b576001600160801b0380918303811685031693168310156143685750565b80fd5b6001600160801b0380918116850116931683106143685750565b6001600160401b039182169082160391908211610b2257565b908160209103126100a5575180600f0b81036100a55790565b610dad549293926001600160a01b03169182156100a5576001600160401b03600095948695604051936020850195633c05c62160e01b8752602486015260020b6044850152151560648401521660848201526084815261441681610887565b51915af4614422611bfc565b90156100a55780602080610d1a9351830101910161439e56fea26469706673582212204a04f9077bc911c83ecbade5af7b52192a3e34380804d1f6489c9e7e3fe9e94164736f6c634300081300336080806040523461002b5762010011805460ff60e01b1916600160e71b17905561044b90816100318239f35b600080fdfe60806040908082526004908136101561001757600080fd5b6000803560e01c918263ac54c0fc1461038d57508163b670198014610092575063f96dc7881461004657600080fd5b61008e91610053366103c6565b50505191829162461bcd60e51b8352820160609060208152600f60208201526e125b9d985b1a590818dbdb5b585b99608a1b60408201520190565b0390fd5b828434610389576100a2366103c6565b60ff859392935460a01c161561035f5780601f101561034c57601f83013560f81c60150361030f57826060918101031261030b57813560ff81160361030b57602091808301356001600160a01b03811691908290036103075782013561ffff8116908181036103035781156102c057821590811591826102b6575b1561027357837f6d6175bccbf61a37eb104b2e776524b39d3c237dbc07dc62fc29c8b3e79f1b3c878751868152a2620100008110156102605760010180546001600160a01b03191684179055610176575b505050505080f35b83906044845180948193632b15303f60e21b8352308a84015260248301525afa9081156102565785916101f2575b50156101b157808061016e565b5162461bcd60e51b815291820152601a60248201527f50726f787920646f6573206e6f742061636365707420726f6c65000000000000604482015260649150fd5b9050823d841161024f575b601f8101601f1916820167ffffffffffffffff81118382101761023c57849183918552810103126102385751801515810361023857856101a4565b8480fd5b634e487b7160e01b875260418652602487fd5b503d6101fd565b82513d87823e3d90fd5b634e487b7160e01b885260328752602488fd5b845162461bcd60e51b8152808801879052601f60248201527f50726f78792061646472657373206973206e6f74206120636f6e7472616374006044820152606490fd5b50833b151561011d565b835162461bcd60e51b8152808701869052601a60248201527f43616e6e6f74206f766572777269746520626f6f7420706174680000000000006044820152606490fd5b8680fd5b8580fd5b8380fd5b815162461bcd60e51b81526020818601818152600f918101919091526e125b9d985b1a590818dbdb5b585b99608a1b604082015281906060010390fd5b634e487b7160e01b855260328452602485fd5b815162461bcd60e51b815260208186015260248101859052635375646f60e01b6044820152606490fd5b8280fd5b83853461030b5736600319011261038957356001600160a01b038116036103c25760243561ffff8116036103c2576020918152f35b5080fd5b9060206003198301126104105760043567ffffffffffffffff9283821161041057806023830112156104105781600401359384116104105760248483010111610410576024019190565b600080fdfea26469706673582212206ed9f99188a2ad5edb0a4cc49b6ec52d54b5da6884a53159bdff2b40dac99b8364736f6c63430008130033",
    "linkReferences": {}
  },
  "methodIdentifiers": {
    "acceptCrocDex()": "7c519625",
    "protocolCmd(uint16,bytes,bool)": "13fd34f4",
    "readSlot(uint256)": "02ce8af3",
    "swap(address,address,uint256,bool,bool,uint128,uint16,uint128,uint128,uint8)": "3d719cd9",
    "userCmd(uint16,bytes)": "a15112f9",
    "userCmdRelayer(uint16,bytes,bytes,bytes,bytes)": "08719070",
    "userCmdRouter(uint16,bytes,address)": "90b33ce5"
  },
  "id": 1
}