{
  "abi": [
    {
      "inputs": [],
      "name": "maxRatio",
      "outputs": [
        {
          "internalType": "uint128",
          "name": "",
          "type": "uint128"
        }
      ],
      "stateMutability": "pure",
      "type": "function"
    },
    {
      "inputs": [],
      "name": "maxTick",
      "outputs": [
        {
          "internalType": "int24",
          "name": "",
          "type": "int24"
        }
      ],
      "stateMutability": "pure",
      "type": "function"
    },
    {
      "inputs": [],
      "name": "minRatio",
      "outputs": [
        {
          "internalType": "uint128",
          "name": "",
          "type": "uint128"
        }
      ],
      "stateMutability": "pure",
      "type": "function"
    },
    {
      "inputs": [],
      "name": "minTick",
      "outputs": [
        {
          "internalType": "int24",
          "name": "",
          "type": "int24"
        }
      ],
      "stateMutability": "pure",
      "type": "function"
    },
    {
      "inputs": [
        {
          "internalType": "int24",
          "name": "tick",
          "type": "int24"
        }
      ],
      "name": "testRatio",
      "outputs": [
        {
          "internalType": "uint128",
          "name": "",
          "type": "uint128"
        }
      ],
      "stateMutability": "pure",
      "type": "function"
    },
    {
      "inputs": [
        {
          "internalType": "uint128",
          "name": "ratio",
          "type": "uint128"
        }
      ],
      "name": "testTick",
      "outputs": [
        {
          "internalType": "int24",
          "name": "",
          "type": "int24"
        }
      ],
      "stateMutability": "pure",
      "type": "function"
    }
  ],
  "bytecode": {
    "object": "0x60808060405234610016576107c1908161001c8239f35b600080fdfe608080604052600436101561001357600080fd5b600090813560e01c9081631db3b6dd146103db57508063214730471461010957806347866f8f146100cd57806372fcfbf8146100ae57806376365af714610083576386d8745b1461006357600080fd5b346100805780600319360112610080576020604051620100028152f35b80fd5b503461008057806003193601126100805760206040516f0ffff5433e2b3d8211706e6102aa94728152f35b50346100805780600319360112610080576020604051620a276d198152f35b503461008057602036600319011261008057600435908160020b82036100805760206100f8836103f8565b6001600160801b0360405191168152f35b5034610080576020366003190112610080576004356001600160801b0391828216918281036103be5762010002831015806103c2575b156103be5777ffffffffffffffffffffffffffffffff00000000000000009060401b168084811160071b9181831c9267ffffffffffffffff841160061b93841c9363ffffffff851160051b94851c9461ffff861160041b95861c60ff9687821160031b91821c92600f841160021b93841c94600160038711811b96871c1196171717171717179160808310156000146103b25750607e1982011c5b8002607f928392828493841c81841c1c800280851c81851c1c800280861c81861c1c800280871c81871c1c80029081881c82881c1c80029283891c84891c1c800294858a1c868a1c1c800296878b1c888b1c1c800298898c1c8a8c1c1c80029a8b8d1c8c821c1c8002809d1c8d821c1c8002809e81901c90821c1c80029e8f80911c911c1c800260cd1c6604000000000000169d60cc1c6608000000000000169c60cb1c6610000000000000169b60ca1c6620000000000000169a60c91c6640000000000000169960c81c6680000000000000169860c71c670100000000000000169760c61c670200000000000000169660c51c670400000000000000169560c41c670800000000000000169460c31c671000000000000000169360c21c672000000000000000169260c11c674000000000000000169160c01c6780000000000000001690607f190160401b1717171717171717171717171717693627a301d71055774c8502906f028f6481ab7f045a5af012a19d003aa919820160801d60020b916fdb2df09e81959a81455e260799a0632f0160801d60020b92838314600014946020956103945750505090505b6040519060020b8152f35b61039d856103f8565b161190506103ab5750610389565b9050610389565b905081607f031b6101da565b5080fd5b506f0ffff5433e2b3d8211706e6102aa9472831061013f565b9050346103be57816003193601126103be5780620cb14a60209252f35b60020b620a276d198112158061077e575b156107795760008112156107735780600003905b6001821615610761576001600160881b036ffffcb933bd6fad37aa2d162d1a5940015b169160028116610745575b60048116610729575b6008811661070d575b601081166106f1575b602081166106d5575b604081166106b9575b60809081811661069e575b6101008116610683575b6102008116610668575b610400811661064d575b6108008116610632575b6110008116610617575b61200081166105fc575b61400081166105e1575b61800081166105c6575b6201000081166105ab575b620200008116610591575b620400008116610577575b620800001661055c575b50600012610537575b6001600160801b039067ffffffffffffffff811661052e5760ff60005b169060401c011690565b60ff6001610524565b80156105465760001904610507565b634e487b7160e01b600052601260045260246000fd5b6b048a170391f7dc42444e8fa26000929302901c91906104fe565b6d2216e584f5fa1ea926041bedfe98909302811c926104f4565b926e5d6af8dedb81196699c329225ee60402811c926104e9565b926f09aa508b5b7a84e1c677de54f3e99bc902811c926104de565b926f31be135f97d08fd981231505542fcfa602811c926104d3565b926f70d869a156d2a1b890bb3df62baf32f702811c926104c9565b926fa9f746462d870fdf8a65dc1f90e061e502811c926104bf565b926fd097f3bdfd2022b8845ad8f792aa582502811c926104b5565b926fe7159475a2c29b7443b29c7fa6e889d902811c926104ab565b926ff3392b0822b70005940c7a398e4b70f302811c926104a1565b926ff987a7253ac413176f2b074cf7815e5402811c92610497565b926ffcbe86c7900a88aedcffc83b479aa3a402811c9261048d565b926ffe5dee046a99a2a811c461f1969c305302811c92610483565b916fff2ea16466c96a3843ec78b326b528610260801c91610478565b916fff973b41fa98c081472e6896dfb254c00260801c9161046f565b916fffcb9843d60f6159c9db58835c9266440260801c91610466565b916fffe5caca7e10e4e61c3624eaa0941cd00260801c9161045d565b916ffff2e50f5f656932ef12357cf3c7fdcc0260801c91610454565b916ffff97272373d413259a46990580e213a0260801c9161044b565b6001600160881b03600160801b610440565b8061041d565b600080fd5b50620cb14a81131561040956fea2646970667358221220be5b729363eb388735c866f39d291f59b74268eb15c60ffd2b534556bb82a8bf64736f6c63430008130033",
    "linkReferences": {}
  },
  "methodIdentifiers": {
    "maxRatio()": "76365af7",
    "maxTick()": "1db3b6dd",
    "minRatio()": "86d8745b",
    "minTick()": "72fcfbf8",
    "testRatio(int24)": "47866f8f",
    "testTick(uint128)": "21473047"
  },
  "id": 84
}