{
  "abi": [
    {
      "inputs": [
        {
          "internalType": "int24",
          "name": "tick",
          "type": "int24"
        }
      ],
      "name": "getBitmaps",
      "outputs": [
        {
          "internalType": "uint256",
          "name": "mezz",
          "type": "uint256"
        },
        {
          "internalType": "uint256",
          "name": "term",
          "type": "uint256"
        }
      ],
      "stateMutability": "view",
      "type": "function"
    },
    {
      "inputs": [
        {
          "internalType": "int24",
          "name": "tick",
          "type": "int24"
        },
        {
          "internalType": "uint256",
          "name": "bitmap",
          "type": "uint256"
        }
      ],
      "name": "setTermBitmap",
      "outputs": [],
      "stateMutability": "nonpayable",
      "type": "function"
    },
    {
      "inputs": [
        {
          "internalType": "int24",
          "name": "tick",
          "type": "int24"
        }
      ],
      "name": "testBookmark",
      "outputs": [],
      "stateMutability": "nonpayable",
      "type": "function"
    },
    {
      "inputs": [
        {
          "internalType": "int24",
          "name": "tick",
          "type": "int24"
        }
      ],
      "name": "testForget",
      "outputs": [],
      "stateMutability": "nonpayable",
      "type": "function"
    },
    {
      "inputs": [
        {
          "internalType": "int24",
          "name": "tick",
          "type": "int24"
        }
      ],
      "name": "testPinBuy",
      "outputs": [
        {
          "internalType": "int24",
          "name": "",
          "type": "int24"
        },
        {
          "internalType": "bool",
          "name": "",
          "type": "bool"
        }
      ],
      "stateMutability": "view",
      "type": "function"
    },
    {
      "inputs": [
        {
          "internalType": "int24",
          "name": "tick",
          "type": "int24"
        }
      ],
      "name": "testPinSell",
      "outputs": [
        {
          "internalType": "int24",
          "name": "",
          "type": "int24"
        },
        {
          "internalType": "bool",
          "name": "",
          "type": "bool"
        }
      ],
      "stateMutability": "view",
      "type": "function"
    },
    {
      "inputs": [
        {
          "internalType": "int24",
          "name": "tick",
          "type": "int24"
        }
      ],
      "name": "testSeekBuy",
      "outputs": [
        {
          "internalType": "int24",
          "name": "",
          "type": "int24"
        },
        {
          "internalType": "uint256",
          "name": "",
          "type": "uint256"
        }
      ],
      "stateMutability": "view",
      "type": "function"
    },
    {
      "inputs": [
        {
          "internalType": "int24",
          "name": "tick",
          "type": "int24"
        }
      ],
      "name": "testSeekSell",
      "outputs": [
        {
          "internalType": "int24",
          "name": "",
          "type": "int24"
        },
        {
          "internalType": "uint256",
          "name": "",
          "type": "uint256"
        }
      ],
      "stateMutability": "view",
      "type": "function"
    }
  ],
  "bytecode": {
    "object": "0x6080806040523461002b5762010011805460ff60e01b1916600160e71b1790556111cd90816100318239f35b600080fdfe6040608081526004908136101561001557600080fd5b600091823560e01c806360bc0eb414610640578063693d0b5714610619578063904d31d9146105c2578063a40f805514610513578063bf812774146104bd578063cf2e119514610436578063efd3f0be1461034a5763fda232821461007957600080fd5b346103465760031960203682011261034257610093610665565b9061009d826106da565b8552620100076020528385205490600292830b9160ff9061010082808287071681031691600895861d948a9382811b901c8015938415610251575b50508a9882158015938461014f575b505050508361012a9882610144575b50501561013e5750875b50871561012e575050901b900b915b5160029290920b825291151560208201529081906040820190565b0390f35b16830b911b820b01900b9161010f565b97610100565b1615905083386100f6565b809192939b509161024d5761012a9a879384928e9084906001600160801b03811615610242575050607f905b67ffffffffffffffff8616156102385750603f190183165b63ffffffff85161561022e57601f190183165b61ffff85161561022457600f190183165b8484161561021a57600719018316905b600f85161561020f57500181165b600383161561020457600119018116916001905b166101f8575b509838806100e7565b906000190116816101ef565b916001908b1c6101e9565b909391501c916101d5565b90938b1c936101c7565b9360101c936101b7565b9360201c936101a6565b9490941c93610193565b60801c95509061017b565b8c80fd5b84929550818d9361033e57898b928e8a95600160801b811015610330575b50600160401b841015610320575b5064010000000083101561030f575b620100008310156102fd575b9084918310156102f0575b508c60108310156102e3575b83908310156102d6575b505010156102cb575b509238806100d8565b9060010116846102c2565b94850116931c82826102b9565b94850116931c828c6102af565b94850116931c828a6102a3565b60109586018516959290921c91610298565b949160208591811c9301169461028c565b85919693811c930116948e61027d565b60809750871c93503861026f565b8d80fd5b8380fd5b8280fd5b503461034657602036600319011261034657610364610665565b9261036e846106da565b815262010007602052828120549360020b916103a08360081d9561ffff600160ff6101008a830b980716011690610702565b95908615610415575050617fff928381146000146103e0575050505061012a627fffff5b915160029290920b825291151560208201529081906040820190565b600101928313617fff1984121761040257505061012a9060081b60020b6103c4565b634e487b7160e01b825260119052602490fd5b90925061012a935060ff91501660020b9060081b60020b0160020b9161010f565b5050346104b95760203660031901126104b957610451610665565b908160020b91610460816106da565b84526201000760205281842061010090600160ff838707161b1981541680915515610489578480f35b60019261049760ff936106ac565b86526201000660205285209360081d830b07161b198154169055388080808480f35b5080fd5b82843461051057602036600319011261051057816104d9610665565b916104e3836106ac565b8152620100066020526104f982822054936106da565b815262010007602052205482519182526020820152f35b80fd5b509190346104b9573660031901126105105761052d610665565b906024928335600293840b60081d60081b840b90835b62ffffff81166101008110156105be576001811b8316610587575b5062ffffff80911690811461057557600101610543565b634e487b7160e01b8552601184528685fd5b860b8301627fffff8113627fffff198212176105ac576105a690610810565b3861055e565b634e487b7160e01b8652601185528786fd5b8580f35b8284346105105760203660031901126105105761012a826105e96105e4610665565b61092f565b926105f3846106da565b815262010007602052205492519283928360209093929193604081019460020b81520152565b8284346105105760203660031901126105105761012a826105e961063b610665565b610889565b83346105105760203660031901126105105761066261065d610665565b610810565b80f35b600435908160020b820361067557565b600080fd5b6060810190811067ffffffffffffffff82111761069657604052565b634e487b7160e01b600052604160045260246000fd5b60405160208101916107c2835260020b60101d60f81b6040820152602181526106d48161067a565b51902090565b60405160208101916107c2835260020b60081d60f01b6040820152602281526106d48161067a565b9160009261ffff80931690811c901b801592831561071e575050565b9193509081600084610510575060ff906001600160801b03811615610806575050607f5b67ffffffffffffffff8316156107fc57603f190160ff165b63ffffffff8316156107f157601f190160ff16905b8216156107e757600f190160ff165b60ff8216156107dd576007190160ff165b600f8216156107d3576003190160ff165b60038216156107c7576001190160ff16906001905b166107bd5791565b6000190160ff1691565b9060019060021c6107b5565b9060041c906107a0565b9060081c9061078f565b9060101c9061077e565b909160201c9161076f565b9160401c9161075a565b60801c9250610742565b600160ff8260020b9260405160208101906107c282528560101d60f81b60408201526021815261083f8161067a565b5190206000526201000660205261086f604060002091610100928585858960081d830b07161b81541790556106da565b6000526201000760205260406000209307161b8154179055565b627fffff199060020b8181146109055760001901908112627fffff8213176109195760020b60ff610100816080601085901d600081810b90811261090f575082160116925b60081d60010b07166108e081836109a1565b1561090957506108f09082610f70565b9190911561090557610902915061115f565b90565b5090565b91505090565b90500116926108ce565b634e487b7160e01b600052601160045260246000fd5b60020b627fffff80821461099c575060ff610100816080601085901d600081810b908112610992575082160116925b60081d60010b07166109708183610b1f565b15610909575061098090826110c0565b91909115610905576109029150611124565b905001169261095e565b905090565b6109ad90929192610c9e565b9160405192602084016107c2815260ff9485841660010b8360081b60010b0160f01b6040820152602281526109e18161067a565b51902093600094855262010007602052604085205485908015908115610a34575b50610a2b579061ff00911660020b9260081b1660020b9060101b60020b0160020b0160020b9190565b50505050600190565b819250808892610b1b578491600160801b811015610b08575b508082600160401b6002931015610afa575b640100000000821015610aec575b62010000821015610ade575b610100821015610ad0575b6010821015610ac2575b6004821015610ab3575b501015610aa8575b509038610a02565b906001011682610aa0565b908290811c9401169282610a98565b600494850116931c82610a8e565b600894850116931c82610a84565b601094850116931c82610a79565b602094850116931c82610a6d565b604094850116931c82610a5f565b9250505060801c82600260809290610a4d565b8880fd5b610b2b90929192610c9e565b9160405192602084016107c2815260ff9485841660010b8360081b60010b0160f01b604082015260228152610b5f8161067a565b51902093600094855262010007602052604085205485908015908115610ba85750610a2b579061ff00911660020b9260081b1660020b9060101b60020b0160020b0160020b9190565b9091508082610c9a57839081906001600160801b03811615610c8f57509050607f5b67ffffffffffffffff831615610c8557603f190181165b63ffffffff831615610c7b57601f190181165b61ffff831615610c7157600f190181165b82821615610c67576007190181165b600f831615610c5d576003190181165b6003831615610c5157600119018116916001905b16610c4557509038610a02565b90600019011682610aa0565b9160019060021c610c38565b9160041c91610c24565b9160081c91610c14565b9160101c91610c05565b9160201c91610bf4565b9160401c91610be1565b60801c925090610bca565b8780fd5b60ff8116906000906080831015610cbe57505060010b607f190160000b90565b607f190160ff16900b919050565b610cd581610c9e565b60405160208101916107c2835260f81b604082015260218152610cf78161067a565b5190209060009182526201000660205260408220549082918015908115610d34575b50610d2c57610d289250610b1f565b9091565b505090600190565b9092508083610e2a5760ff906001600160801b03811615610e20575050607f5b67ffffffffffffffff821615610e1657603f190160ff165b63ffffffff821615610e0c57601f190160ff165b61ffff821615610e0257600f190160ff165b60ff821615610df8576007190160ff165b600f821615610dee576003190160ff165b6003821615610de2576001190160ff16906001905b16610dd6575b9138610d19565b6000190160ff16610dcf565b9060019060021c610dc9565b9060041c90610db4565b9060081c90610da3565b9060101c90610d92565b9060201c90610d80565b9060401c90610d6c565b60801c9150610d54565b8480fd5b610e3781610c9e565b60405160208101916107c2835260f81b604082015260218152610e598161067a565b5190209060009182526201000660205260408220549082918015908115610e8a575b50610d2c57610d2892506109a1565b819350808592610f6c57600160801b811015610f5d575b5080600160401b6002921015610f4e575b640100000000811015610f3f575b62010000811015610f30575b610100811015610f21575b6010811015610f12575b6004811015610f04575b1015610ef9575b9138610e7b565b60010160ff16610ef2565b91810160ff1691811c610eeb565b600492830160ff16921c610ee1565b600892830160ff16921c610ed7565b601092830160ff16921c610ecc565b602092830160ff16921c610ec0565b604092830160ff16921c610eb2565b60809250821c90506002610ea1565b8580fd5b90610f7a82610c9e565b60405160208101916107c2835260f81b604082015260218152610f9c8161067a565b5190209160009283526201000660205260408320549160ff80918103168493811b901c908115918215610fda575b5050610d2c57610d2892506109a1565b8294508086936110bc57600160801b8110156110ad575b508082600160401b600293101561109f575b640100000000821015611091575b62010000821015611083575b610100821015611075575b6010821015611067575b6004821015611058575b50101561104d575b50913880610fca565b906001011638611044565b908290811c940116928261103c565b600494850116931c82611032565b600894850116931c82611028565b601094850116931c8261101d565b602094850116931c82611011565b604094850116931c82611003565b60809350831c90506002610ff1565b8680fd5b9061110d906110ce83610c9e565b60405160208101916107c2835260f81b6040820152602181526110f08161067a565b5190206000526201000660205260ff604060002054911690610702565b61111a57610d2891610b1f565b5050600090600190565b60ff90816001809201165b82811661114057505050627fffff90565b61114981610ccc565b1561115857508101821661112f565b9250505090565b60ff9060001990810182165b828082161061117f57505050627fffff1990565b61118881610e2e565b1561115857508101821661116b56fea2646970667358221220af5a937b9353b6f0d43d50e87d1e493fbba543c10f8b4f69a51794ee8e4333d364736f6c63430008130033",
    "linkReferences": {}
  },
  "methodIdentifiers": {
    "getBitmaps(int24)": "bf812774",
    "setTermBitmap(int24,uint256)": "a40f8055",
    "testBookmark(int24)": "60bc0eb4",
    "testForget(int24)": "cf2e1195",
    "testPinBuy(int24)": "efd3f0be",
    "testPinSell(int24)": "fda23282",
    "testSeekBuy(int24)": "904d31d9",
    "testSeekSell(int24)": "693d0b57"
  },
  "id": 83
}