{
  "abi": [
    {
      "inputs": [
        {
          "internalType": "address",
          "name": "x",
          "type": "address"
        }
      ],
      "name": "addressToNum",
      "outputs": [
        {
          "internalType": "uint256",
          "name": "",
          "type": "uint256"
        }
      ],
      "stateMutability": "pure",
      "type": "function"
    },
    {
      "inputs": [
        {
          "internalType": "address",
          "name": "client",
          "type": "address"
        },
        {
          "internalType": "uint256",
          "name": "salt",
          "type": "uint256"
        }
      ],
      "name": "getNonce",
      "outputs": [
        {
          "internalType": "uint32",
          "name": "",
          "type": "uint32"
        }
      ],
      "stateMutability": "view",
      "type": "function"
    },
    {
      "inputs": [
        {
          "internalType": "address",
          "name": "x",
          "type": "address"
        },
        {
          "internalType": "address",
          "name": "y",
          "type": "address"
        }
      ],
      "name": "joinKey",
      "outputs": [
        {
          "internalType": "uint256",
          "name": "",
          "type": "uint256"
        }
      ],
      "stateMutability": "pure",
      "type": "function"
    },
    {
      "inputs": [
        {
          "internalType": "address",
          "name": "client",
          "type": "address"
        },
        {
          "internalType": "uint256",
          "name": "salt",
          "type": "uint256"
        },
        {
          "internalType": "uint32",
          "name": "nonce",
          "type": "uint32"
        }
      ],
      "name": "setNonce",
      "outputs": [],
      "stateMutability": "nonpayable",
      "type": "function"
    },
    {
      "inputs": [],
      "name": "signer_",
      "outputs": [
        {
          "internalType": "address",
          "name": "",
          "type": "address"
        }
      ],
      "stateMutability": "view",
      "type": "function"
    },
    {
      "inputs": [
        {
          "internalType": "address",
          "name": "client",
          "type": "address"
        },
        {
          "internalType": "bytes",
          "name": "conds",
          "type": "bytes"
        }
      ],
      "name": "testRelayConds",
      "outputs": [],
      "stateMutability": "nonpayable",
      "type": "function"
    },
    {
      "inputs": [
        {
          "internalType": "uint16",
          "name": "callpath",
          "type": "uint16"
        },
        {
          "internalType": "bytes",
          "name": "cmd",
          "type": "bytes"
        },
        {
          "internalType": "bytes",
          "name": "conds",
          "type": "bytes"
        },
        {
          "internalType": "bytes",
          "name": "tip",
          "type": "bytes"
        },
        {
          "internalType": "bytes",
          "name": "signature",
          "type": "bytes"
        }
      ],
      "name": "testVerifySignature",
      "outputs": [],
      "stateMutability": "nonpayable",
      "type": "function"
    }
  ],
  "bytecode": {
    "object": "0x6080806040523461002b5762010011805460ff60e01b1916600160e71b17905561074c90816100318239f35b600080fdfe6040608081526004908136101561001557600080fd5b600090813560e01c806338189d42146105635780634e1f65b4146105395780637c988340146104de578063895358031461049b5780639a28b1e7146101f6578063e011d145146101c95763fe117dcc1461006e57600080fd5b346101c557806003193601126101c5576100866105cd565b9260243567ffffffffffffffff81116101a1576100a96100b091369084016106a7565b3691610636565b9160a0838051810103126101a1576100ca602084016106d5565b946100d68285016106d5565b9060608501519160808601519763ffffffff96878a16809a036101c15760a001516001600160a01b03811692908390036101c15765ffffffffffff80921642116101c1571642106101bd5780159081156101b3575b81156101a9575b50156101a55790610142916106e8565b84526201001060205283209180835460801c169485036101a157841461018e5750805463ffffffff60801b191660019390930160801b63ffffffff60801b169290921790915580f35b80f35b634e487b7160e01b835260119052602482fd5b8380fd5b8580fd5b9050321438610132565b338114915061012b565b8680fd5b8880fd5b5080fd5b50346101c55760203660031901126101c5576020906001600160a01b036101ee6105cd565b169051908152f35b5082346104975760a090816003193601126101a15780359061ffff8083168093036101a55767ffffffffffffffff926024358481116104935761023c9036908501610689565b946044358581116101c15761025490369086016106a7565b96909360643587811161048f5761026e9036908801610689565b906084358881116104785761028690369089016106a7565b90968b5196608088018881108c82111761047c57926102bc6060938f979695938c9489528b5260209e8f8c01998a523691610636565b80968a015284838a0152810103126104785786359560ff871680970361047457511692518981519101209189815191012090898151910120908a51928a8401947fb7268d49bb01bc5e690da8069036b0caa17476a23af017f9840ccc0fc5ca01b786528c850152606084015260808301528382015282815261033d8161061a565b519020938751878101907f8b73c3c69bb8fe3d512ecc4cf759cc79239f7b179b0ffacaa9a75d522b39400f82527f33dd648f3c5d475752f4dfbf3ab10305e18604abf30961145f1889ec2e8675638a8201527fe6bbd6277e1bf288eed5e8d1780f9a50b239e86b153736bceebccf4ea79d90b3606082015246608082015230848201528381526103cc8161061a565b519020908851958887019261190160f01b8452602288015260428701526042865260808601968688109088111761046157508588528451902085528301528381013560c083015284013560e090910152838052839060809060015afa15610457575080516001600160a01b031680156101c5576201002280546001600160a01b031916909117905580f35b51903d90823e3d90fd5b634e487b7160e01b8a5260419052602489fd5b8c80fd5b8b80fd5b634e487b7160e01b8f5260418b5260248ffd5b8a80fd5b8780fd5b8280fd5b50346101c557806003193601126101c55763ffffffff816020936104c96104c06105cd565b602435906106e8565b8152620100108552205460801c169051908152f35b50346101c557806003193601126101c5576104f76105cd565b6001600160a01b03602435818116908190036105355760209450835191858301931683528382015282815261052b816105e8565b5190209051908152f35b8480fd5b50346101c557816003193601126101c557620100225490516001600160a01b039091168152602090f35b50346101c55760603660031901126101c55761057d6105cd565b906044359063ffffffff821682036101a15761059f61018b93602435906106e8565b8452620100106020528320805463ffffffff60801b191660809290921b63ffffffff60801b16919091179055565b600435906001600160a01b03821682036105e357565b600080fd5b6060810190811067ffffffffffffffff82111761060457604052565b634e487b7160e01b600052604160045260246000fd5b60c0810190811067ffffffffffffffff82111761060457604052565b92919267ffffffffffffffff918281116106045760405192601f8201601f19908116603f0116840190811184821017610604576040528294818452818301116105e3578281602093846000960137010152565b9080601f830112156105e3578160206106a493359101610636565b90565b9181601f840112156105e35782359167ffffffffffffffff83116105e357602083818601950101116105e357565b519065ffffffffffff821682036105e357565b604080516001600160a01b0390921660208301908152828201939093528152610710816105e8565b5190209056fea26469706673582212200db15b4f9145d77dd63ca6ce9a30e131a018c6f565b2d2600a37f5b333bf547464736f6c63430008130033",
    "linkReferences": {}
  },
  "methodIdentifiers": {
    "addressToNum(address)": "e011d145",
    "getNonce(address,uint256)": "89535803",
    "joinKey(address,address)": "7c988340",
    "setNonce(address,uint256,uint32)": "38189d42",
    "signer_()": "4e1f65b4",
    "testRelayConds(address,bytes)": "fe117dcc",
    "testVerifySignature(uint16,bytes,bytes,bytes,bytes)": "9a28b1e7"
  },
  "id": 69
}