{
  "abi": [
    {
      "inputs": [
        {
          "internalType": "address",
          "name": "mask",
          "type": "address"
        }
      ],
      "stateMutability": "nonpayable",
      "type": "constructor"
    },
    {
      "inputs": [],
      "name": "mask_",
      "outputs": [
        {
          "internalType": "address",
          "name": "",
          "type": "address"
        }
      ],
      "stateMutability": "view",
      "type": "function"
    },
    {
      "inputs": [
        {
          "internalType": "address",
          "name": "client",
          "type": "address"
        },
        {
          "internalType": "bool",
          "name": "deadPast",
          "type": "bool"
        },
        {
          "internalType": "bool",
          "name": "aliveEarly",
          "type": "bool"
        },
        {
          "internalType": "uint256",
          "name": "salt",
          "type": "uint256"
        },
        {
          "internalType": "uint32",
          "name": "nonce",
          "type": "uint32"
        },
        {
          "internalType": "address",
          "name": "relayer",
          "type": "address"
        }
      ],
      "name": "testRelayConds",
      "outputs": [],
      "stateMutability": "nonpayable",
      "type": "function"
    }
  ],
  "bytecode": {
    "object": "0x60803461007457601f61031538819003918201601f19168301916001600160401b038311848410176100795780849260209460405283398101031261007457516001600160a01b0381169081900361007457600080546001600160a01b03191691909117905560405161028590816100908239f35b600080fd5b634e487b7160e01b600052604160045260246000fdfe608060408181526004908136101561001657600080fd5b600092833560e01c9081630cef821c14610227575063cc6199f01461003a57600080fd5b346102235760c03660031901126102235781356001600160a01b03818116939184900361021f5760243593841515850361021b57604435948515158603610217576084359063ffffffff82168092036102135760a435908482168092036101cb57156102045765ffffffffffff600019814216019081116101e257965b156101f55765ffffffffffff6001814216019081116101e257915b86519265ffffffffffff908160209a168a86015216878401526064356060840152608083015260a082015260a0815260c081019567ffffffffffffffff87119382881085176101cf5787875288541692833b156101cb57918893918893633f845f7360e21b855260c48301528760e483015281519081610104840152855b8281106101b057505080820161012401859052601f01601f191681010360640190829084905af180156101a657610185578480f35b610193575052388080808480f35b634e487b7160e01b845260419052602483fd5b83513d87823e3d90fd5b80840180830151610124909101528b96508a95508101610150565b8880fd5b634e487b7160e01b895260418652602489fd5b634e487b7160e01b895260118652602489fd5b65ffffffffffff4216916100d2565b65ffffffffffff4216966100b7565b8780fd5b8680fd5b8580fd5b8480fd5b8280fd5b84903461024b578160031936011261024b5790546001600160a01b03168152602090f35b5080fdfea26469706673582212205edbc8a16e40439a16f1f092cbb8f69e2f22d677341995b4e9e37cccb7fb8c9a64736f6c63430008130033",
    "linkReferences": {}
  },
  "methodIdentifiers": {
    "mask_()": "0cef821c",
    "testRelayConds(address,bool,bool,uint256,uint32,address)": "cc6199f0"
  },
  "id": 69
}