{
  "abi": [
    {
      "anonymous": false,
      "inputs": [
        {
          "indexed": true,
          "internalType": "bytes32",
          "name": "pool",
          "type": "bytes32"
        },
        {
          "indexed": true,
          "internalType": "int24",
          "name": "tick",
          "type": "int24"
        },
        {
          "indexed": false,
          "internalType": "bool",
          "name": "isBid",
          "type": "bool"
        },
        {
          "indexed": false,
          "internalType": "uint32",
          "name": "pivotTime",
          "type": "uint32"
        },
        {
          "indexed": false,
          "internalType": "uint64",
          "name": "feeMileage",
          "type": "uint64"
        },
        {
          "indexed": false,
          "internalType": "uint160",
          "name": "commitEntropy",
          "type": "uint160"
        }
      ],
      "name": "CrocKnockoutCross",
      "type": "event"
    },
    {
      "inputs": [],
      "name": "bookLots_",
      "outputs": [
        {
          "internalType": "uint96",
          "name": "",
          "type": "uint96"
        }
      ],
      "stateMutability": "view",
      "type": "function"
    },
    {
      "inputs": [],
      "name": "callTime_",
      "outputs": [
        {
          "internalType": "uint32",
          "name": "",
          "type": "uint32"
        }
      ],
      "stateMutability": "view",
      "type": "function"
    },
    {
      "inputs": [
        {
          "internalType": "uint256",
          "name": "poolIdx",
          "type": "uint256"
        },
        {
          "internalType": "int24",
          "name": "tick",
          "type": "int24"
        }
      ],
      "name": "getLevelState",
      "outputs": [
        {
          "components": [
            {
              "internalType": "uint96",
              "name": "bidLots_",
              "type": "uint96"
            },
            {
              "internalType": "uint96",
              "name": "askLots_",
              "type": "uint96"
            },
            {
              "internalType": "uint64",
              "name": "feeOdometer_",
              "type": "uint64"
            }
          ],
          "internalType": "struct StorageLayout.BookLevel",
          "name": "",
          "type": "tuple"
        }
      ],
      "stateMutability": "view",
      "type": "function"
    },
    {
      "inputs": [
        {
          "internalType": "uint256",
          "name": "poolIdx",
          "type": "uint256"
        },
        {
          "internalType": "bool",
          "name": "isBid",
          "type": "bool"
        },
        {
          "internalType": "int24",
          "name": "lower",
          "type": "int24"
        },
        {
          "internalType": "int24",
          "name": "upper",
          "type": "int24"
        }
      ],
      "name": "getMerkle",
      "outputs": [
        {
          "internalType": "uint160",
          "name": "root",
          "type": "uint160"
        },
        {
          "internalType": "uint32",
          "name": "pivotTime",
          "type": "uint32"
        },
        {
          "internalType": "uint64",
          "name": "feeMileage",
          "type": "uint64"
        }
      ],
      "stateMutability": "view",
      "type": "function"
    },
    {
      "inputs": [
        {
          "internalType": "uint256",
          "name": "poolIdx",
          "type": "uint256"
        },
        {
          "internalType": "bool",
          "name": "isBid",
          "type": "bool"
        },
        {
          "internalType": "int24",
          "name": "lower",
          "type": "int24"
        },
        {
          "internalType": "int24",
          "name": "upper",
          "type": "int24"
        }
      ],
      "name": "getPivot",
      "outputs": [
        {
          "internalType": "uint96",
          "name": "lots",
          "type": "uint96"
        },
        {
          "internalType": "uint32",
          "name": "pivotTime",
          "type": "uint32"
        },
        {
          "internalType": "uint16",
          "name": "range",
          "type": "uint16"
        }
      ],
      "stateMutability": "view",
      "type": "function"
    },
    {
      "inputs": [
        {
          "internalType": "uint256",
          "name": "poolIdx",
          "type": "uint256"
        },
        {
          "internalType": "bool",
          "name": "isBid",
          "type": "bool"
        },
        {
          "internalType": "int24",
          "name": "lower",
          "type": "int24"
        },
        {
          "internalType": "int24",
          "name": "upper",
          "type": "int24"
        },
        {
          "internalType": "uint32",
          "name": "pivotTime",
          "type": "uint32"
        }
      ],
      "name": "getPosition",
      "outputs": [
        {
          "internalType": "uint96",
          "name": "lots",
          "type": "uint96"
        },
        {
          "internalType": "uint64",
          "name": "feeMileage",
          "type": "uint64"
        },
        {
          "internalType": "uint32",
          "name": "timestamp",
          "type": "uint32"
        }
      ],
      "stateMutability": "view",
      "type": "function"
    },
    {
      "inputs": [],
      "name": "pivotTime_",
      "outputs": [
        {
          "internalType": "uint32",
          "name": "",
          "type": "uint32"
        }
      ],
      "stateMutability": "view",
      "type": "function"
    },
    {
      "inputs": [],
      "name": "rewards_",
      "outputs": [
        {
          "internalType": "uint64",
          "name": "",
          "type": "uint64"
        }
      ],
      "stateMutability": "view",
      "type": "function"
    },
    {
      "inputs": [
        {
          "internalType": "uint160",
          "name": "lockholder",
          "type": "uint160"
        }
      ],
      "name": "setLockholder",
      "outputs": [],
      "stateMutability": "nonpayable",
      "type": "function"
    },
    {
      "inputs": [
        {
          "internalType": "uint256",
          "name": "poolIdx",
          "type": "uint256"
        },
        {
          "internalType": "int24",
          "name": "tick",
          "type": "int24"
        },
        {
          "internalType": "uint64",
          "name": "feeGlobal",
          "type": "uint64"
        },
        {
          "internalType": "uint96",
          "name": "lots",
          "type": "uint96"
        },
        {
          "internalType": "bool",
          "name": "isBid",
          "type": "bool"
        },
        {
          "internalType": "int24",
          "name": "lower",
          "type": "int24"
        },
        {
          "internalType": "int24",
          "name": "upper",
          "type": "int24"
        }
      ],
      "name": "testBurn",
      "outputs": [],
      "stateMutability": "nonpayable",
      "type": "function"
    },
    {
      "inputs": [
        {
          "internalType": "uint256",
          "name": "poolIdx",
          "type": "uint256"
        },
        {
          "internalType": "bool",
          "name": "isBid",
          "type": "bool"
        },
        {
          "internalType": "int24",
          "name": "lower",
          "type": "int24"
        },
        {
          "internalType": "int24",
          "name": "upper",
          "type": "int24"
        },
        {
          "internalType": "uint160",
          "name": "merkleRoot",
          "type": "uint160"
        },
        {
          "internalType": "uint256[]",
          "name": "merkleProof",
          "type": "uint256[]"
        }
      ],
      "name": "testClaim",
      "outputs": [],
      "stateMutability": "nonpayable",
      "type": "function"
    },
    {
      "inputs": [
        {
          "internalType": "uint256",
          "name": "pool",
          "type": "uint256"
        },
        {
          "internalType": "bool",
          "name": "isBid",
          "type": "bool"
        },
        {
          "internalType": "int24",
          "name": "tick",
          "type": "int24"
        },
        {
          "internalType": "uint64",
          "name": "feeGlobal",
          "type": "uint64"
        }
      ],
      "name": "testCross",
      "outputs": [],
      "stateMutability": "nonpayable",
      "type": "function"
    },
    {
      "inputs": [
        {
          "internalType": "uint256",
          "name": "poolIdx",
          "type": "uint256"
        },
        {
          "internalType": "uint8",
          "name": "knockoutBits",
          "type": "uint8"
        },
        {
          "internalType": "int24",
          "name": "tick",
          "type": "int24"
        },
        {
          "internalType": "uint64",
          "name": "feeGlobal",
          "type": "uint64"
        },
        {
          "internalType": "uint96",
          "name": "lots",
          "type": "uint96"
        },
        {
          "internalType": "bool",
          "name": "isBid",
          "type": "bool"
        },
        {
          "internalType": "int24",
          "name": "lower",
          "type": "int24"
        },
        {
          "internalType": "int24",
          "name": "upper",
          "type": "int24"
        }
      ],
      "name": "testMint",
      "outputs": [],
      "stateMutability": "nonpayable",
      "type": "function"
    },
    {
      "inputs": [
        {
          "internalType": "uint256",
          "name": "poolIdx",
          "type": "uint256"
        },
        {
          "internalType": "uint8",
          "name": "knockoutBits",
          "type": "uint8"
        },
        {
          "internalType": "int24",
          "name": "tick",
          "type": "int24"
        },
        {
          "internalType": "uint64",
          "name": "feeGlobal",
          "type": "uint64"
        },
        {
          "internalType": "uint96",
          "name": "lots",
          "type": "uint96"
        },
        {
          "internalType": "int24",
          "name": "lower",
          "type": "int24"
        },
        {
          "internalType": "int24",
          "name": "upper",
          "type": "int24"
        }
      ],
      "name": "testMintArch",
      "outputs": [],
      "stateMutability": "nonpayable",
      "type": "function"
    },
    {
      "inputs": [
        {
          "internalType": "uint256",
          "name": "poolIdx",
          "type": "uint256"
        },
        {
          "internalType": "bool",
          "name": "isBid",
          "type": "bool"
        },
        {
          "internalType": "int24",
          "name": "lower",
          "type": "int24"
        },
        {
          "internalType": "int24",
          "name": "upper",
          "type": "int24"
        },
        {
          "internalType": "uint32",
          "name": "pivotTime",
          "type": "uint32"
        }
      ],
      "name": "testRecover",
      "outputs": [],
      "stateMutability": "nonpayable",
      "type": "function"
    },
    {
      "inputs": [],
      "name": "togglesPivot_",
      "outputs": [
        {
          "internalType": "bool",
          "name": "",
          "type": "bool"
        }
      ],
      "stateMutability": "view",
      "type": "function"
    }
  ],
  "bytecode": {
    "object": "0x6080806040523461002b5762010011805460ff60e01b1916600160e71b1790556123ef90816100318239f35b600080fdfe6080604052600436101561001257600080fd5b60003560e01c80627392391461181057806313fb9c56146114b45780632e7920891461148b578063432ff7e1146114625780634e6bb0c11461140257806355fe7b62146113d657806357e641e4146113335780635c77bbb1146112f557806370b71ada146112cc57806383822e31146111e15780638dd3926d14610acb57806391f4a63714610a08578063d324109b1461070e578063df27df731461018b578063e3ffca85146100f85763f8ada62f146100cb57600080fd5b346100f35760003660031901126100f357602060ff620100225460e01c166040519015158152f35b600080fd5b346100f35761013b61013561010c36611b02565b6101199492919394611fe4565b9115159384835260020b602083015260020b6040820152612197565b91611c3f565b6000526201000460205260606101546040600020611c6d565b60018060a01b03815116906001600160401b03604063ffffffff602084015116920151169060405192835260208301526040820152f35b346100f3576101003660031901126100f3576101a5611b89565b6101ad611a96565b906101b6611ad6565b916101bf611aec565b60a435938415158095036100f3576101d5611ac6565b9460e435908160020b8092036100f357610214916101f1611fe4565b9782895260020b6020890152604088015261020b87612197565b90600435611c3f565b9485600052620100036020526040600020938454956001600160601b0387161560001461067c57610243612186565b97600052620100046020526040600020805463ffffffff808b16908260a01c1614610652576001600160a01b0381161561063c575b505060038160041c1615159081610580575b81610563575b50156105395784546001600160801b0319166001600160601b03851617606088901b63ffffffff60601b1617855561046e94610446936103ce9289926001600160401b039288926103a592610305905b6102e98a6121cf565b815461ffff60801b191660809190911b61ffff60801b16179055565b61039c828260208b015160020b61039460408d015160020b9861032c858486600435612256565b61033a858b86600435612256565b61034683600435611d45565b80546001600160601b0361035c8482841661232c565b16906001600160601b03191617905561038e61037a8b600435611d45565b916001600160601b03835460601c1661232c565b90611cf9565b600435611eef565b93600435611eef565b0316926001600160601b038816156104cb575b6000546001600160a01b0316906004359061201e565b600052620100056020526040600020926001600160601b0361041185549261040b83851680966001600160401b038760601c1690868516906120bf565b94612003565b67ffffffffffffffff60601b199116166001600160a01b03199091161760609190911b67ffffffffffffffff60601b16178255565b61044e612186565b815463ffffffff60a01b191660a09190911b63ffffffff60a01b16179055565b62010022805460609390931b63ffffffff60601b1670ffffffffff0000000000000000ffffffff60601b199093166001600160601b039092161560e01b60ff60e01b1691909117919091174260c01b63ffffffff60c01b16179055005b805115610507576104e5602082015160020b600435611d45565b600181546001600160601b038116906001600160601b031916171790556103b8565b61053461051d604083015160020b600435611d45565b60016001600160601b03825460601c161790611cf9565b6103b8565b60405162461bcd60e51b815260206004820152600260248201526125ab60f11b6044820152606490fd5b61057a9150600360029160041c16101582846121fe565b88610290565b905061059b604084015160020b602085015160020b906121b2565b604084015160008160020b136000146106075762ffffff16905b60408316159182156105e9575b5062ffffff806001600f86161b1691161490816105e1575b509061028a565b9050896105da565b62ffffff908116600f851681811c8316901b9091161491508a6105c2565b627fffff198160020b146106265760020b60000362ffffff16906105b5565b634e487b7160e01b600052601160045260246000fd5b6001600160a01b03191660011790558880610278565b60405162461bcd60e51b815260206004820152600260248201526112d560f21b6044820152606490fd5b509395506001600160601b0361069484828816612003565b166001600160601b031986161780965563ffffffff8660601c169561ffff806106bc846121cf565b169160801c16036106e4576103ce866001600160401b03856103a56104469661046e99610305565b60405162461bcd60e51b815260206004820152600260248201526125a960f11b6044820152606490fd5b346100f35760803660031901126100f35760043561072a611a87565b610732611a96565b9161073b611ad6565b8183159485159461074c8284611d45565b96868854906109c2575b60c01c6001600160401b0398818a88160361098e575b5050610779838386611c3f565b6000526201000360205260406000209762010004602052886040600020916107a18688611d45565b856000147f78d4bacd92cc15fe8ee27d50b9be043e663f43f413418e9b478c034765931ec8996080996108a69860209861080361090e986108ee97610844976109715780546002600160601b038116906001600160601b031916179055611c06565b918c61ffff60408501511660020b8260001461096a57600019820160020b925b1561095e5781935b1561094b57506001600160601b0390935b511693611d7d565b9161084e8d611c06565b906108b161085a611ca2565b916108ab61086789611c6d565b60018060a01b039b8c956bffffffff0000000000000000878451169560408f860151950151169360401b16906001600160601b03199060601b16611cec565b611cec565b90611cbb565b8654979092015163ffffffff60a01b60a09190911b166001600160c01b0319909716911663ffffffff60a01b19161794909417835563ffffffff93565b82546001600160c01b031660c09190911b6001600160c01b031916178255565b54610917611ca2565b916040519889528160a01c16602089015260c01c604088015216606086015260020b93a380546001600160901b0319169055005b6001600160601b03910160020b9361083c565b80820360020b9361082b565b8192610823565b806002600160601b03610989925460601c1690611cf9565b611c06565b61099b6109bb9288611d2c565b81546001600160c01b031660c09190911b6001600160c01b031916179055565b888061076c565b93506d03fffffffffffffffffffffff8006f7fffffffffffffffffffffffffffffff1990808660561c16600f0b9086600a1b16600f0b03600f0b14610626578593610756565b346100f35760403660031901126100f357610a21611aa6565b610a29611fe4565b50610a32611fe4565b50604051610a6781610a596020820194600435869091602392825260e81b60208201520190565b03601f198101835282611be5565b51902060005262010002602052606060406000206001600160401b0360405191610a9083611b99565b546001600160601b0380821693848152604060208201918385891c168352019260c01c83526040519485525116602084015251166040820152f35b346100f35760e03660031901126100f357610ae4611b89565b610aec611a96565b610af4611ad6565b90610afd611aec565b91610b06611ab6565b92610b0f611ac6565b91610b18611fe4565b92600184528560020b60208501528060020b6040850152610b3884612197565b6040519060043560208301526001604083015260020b606082015260608152610b6081611bca565b6020815191012080600052620100036020526040600020908154916001600160601b0383161560001461117b57610b95612186565b91600052620100046020526040600020805463ffffffff808516908260a01c1614610652576001600160a01b03811615611165575b505060038a60041c161515806110bf575b806110a4575b1561053957816001600160401b0387610c6c888c61039c82828f610c4a610c949b6001600160601b038a166001600160601b0319825416178155610c418c829081549063ffffffff60601b9060601b169063ffffffff60601b1916179055565b6102e9836121cf565b6103946040602083015160020b92015160020b9861032c858486600435612256565b0316976001600160601b038516156104cb576000546001600160a01b0316906004359061201e565b60005262010005602052610d20604060002096610cd68854916001600160601b038316906001600160401b038460601c16906001600160601b038b16906120bf565b906001600160601b03610ceb89828416612003565b67ffffffffffffffff60601b199116166001600160a01b03199091161760609190911b67ffffffffffffffff60601b16178755565b610d4b610d2b612186565b875463ffffffff60a01b191660a082901b63ffffffff60a01b1617909755565b62010022805460609290921b63ffffffff60601b1670ffffffffff0000000000000000ffffffff60601b199092166001600160601b039093161560e01b60ff60e01b1692909217174260c01b63ffffffff60c01b16179055610dab611fe4565b956000875260020b602087015260020b6040860152610dc985612197565b604051602081019160043583526000604083015260020b606082015260608152610df281611bca565b5190209485600052620100036020526040600020948554976001600160601b0389161560001461103c578597600052620100046020526040600020805463ffffffff808916908260a01c1614610652576001600160a01b03811615611026575b505060038160041c1615159081610f80575b81610f63575b50156105395785546001600160801b0319166001600160601b03851617606086901b63ffffffff60601b16178655610f0995610ee6936103ce9289926001600160401b03928892610ebe92610305906102e0565b0316926001600160601b038a16156104cb576000546001600160a01b0316906004359061201e565b805463ffffffff60a01b191660a09290921b63ffffffff60a01b16919091179055565b62010022805460609290921b63ffffffff60601b1670ffffffffff0000000000000000ffffffff60601b199092166001600160601b039093161560e01b60ff60e01b1692909217174260c01b63ffffffff60c01b16179055005b610f7a9150600360029160041c16101582846121fe565b89610e6a565b9050610f9b604084015160020b602085015160020b906121b2565b604084015160008160020b136000146110075762ffffff16905b6040831615918215610fe9575b5062ffffff806001600f86161b169116149081610fe1575b5090610e64565b90508a610fda565b62ffffff908116600f851681811c8316901b9091161491508b610fc2565b627fffff198160020b146106265760020b60000362ffffff1690610fb5565b6001600160a01b03191660011790558980610e52565b509495506001600160601b0361105484828a16612003565b166001600160601b031988161780965563ffffffff8660601c169561ffff8061107c846121cf565b169160801c16036106e4576103ce866001600160401b0385610ebe610ee696610f099a610305565b506110ba600260038c60041c16101589896121fe565b610be1565b506110d9604088015160020b602089015160020b906121b2565b604088015160008160020b136000146111465762ffffff16905b60408c1615918215611128575b50600f8c600162ffffff928392161b169116149081611120575b50610bdb565b90508b61111a565b62ffffff908116600f8e1681811c8316901b9091161491508c611100565b627fffff198160020b146106265760020b60000362ffffff16906110f3565b6001600160a01b03191660011790558a80610bca565b90506001600160601b0361119186828516612003565b166001600160601b031983161780915563ffffffff8160601c169061ffff806111b9896121cf565b169160801c16036106e457610c94816001600160401b0387610c6c888c61039c82828f610c4a565b346100f3576112256111f236611b3d565b939491906111fe611fe4565b9315159182855260020b602085015260020b604084015261121e83612197565b9085611c3f565b6000526201000460205263ffffffff8060406000205460a01c16908316116112a25760005461125f936001600160a01b039091169161201e565b6000526201000560205260406000208054906001600160401b0360c01b821690556001600160601b036201002291166001600160601b0319825416179055600080f35b60405162461bcd60e51b81526020600482015260026024820152614b4160f01b6044820152606490fd5b346100f35760003660031901126100f357602063ffffffff620100225460601c16604051908152f35b346100f35760203660031901126100f3576004356001600160a01b038116908190036100f3576001600160601b0360a01b6000541617600055600080f35b346100f35761137561134436611b3d565b939161134e611fe4565b9315158452600290810b60208501520b60408301526000546001600160a01b03169161201e565b6000526201000560205260606040600020604080519161139483611b99565b546001600160601b0381169283815263ffffffff6001600160401b0383871c169283602084015260a01c16928391015260405192835260208301526040820152f35b346100f35760003660031901126100f35760206001600160401b03620100225460801c16604051908152f35b346100f35761141661013561010c36611b02565b60005262010003602052606061142f6040600020611c06565b6001600160601b038151169061ffff604063ffffffff602084015116920151169060405192835260208301526040820152f35b346100f35760003660031901126100f35760206001600160601b03620100225416604051908152f35b346100f35760003660031901126100f357602063ffffffff620100225460c01c16604051908152f35b346100f35760e03660031901126100f3576114cd611aa6565b6001600160401b0360443516604435036100f3576001600160601b0360643516606435036100f35760843580151581036100f35761154761150c611ab6565b91611515611ac6565b61151d611fe4565b93821515855260020b602085015260020b604084015261153c83612197565b901515600435611c3f565b600052620100036020526115e760406000209283549361157d6001600160601b0386166001600160601b03606435161115612345565b6001600160601b0385166001600160601b0360643516146000146117e65780546001600160901b03191690555b6001600160601b0384166001600160601b03606435161461177e575b602083015160020b6044359160643591604086015160020b91600435611d7d565b61160c63ffffffff92838560601c169060018060a01b0360005416906004359061201e565b600052620100056020526040600020906116358254916001600160401b038360601c1690612376565b92808260a01c1681611645612186565b16038181116106265781600a9116041660ff811115611731575b506001600160601b038116611681816001600160601b03606435161115612345565b6064356001600160601b0316810361170857505080546001600160c01b03191690555b6201002291825460ff60e01b6001600160601b0383166001600160601b03606435161460e01b16926001600160401b0360801b9060801b169070ff00000000ffffffffffffffffffffffff60601b1916179063ffffffff60601b1617179055600080f35b61171d6001600160601b039160643590611e85565b16906001600160601b0319161790556116a4565b6004356000526201000960205260ff60406000205460301c1611611755578461165f565b60405162461bcd60e51b81526020600482015260016024820152602560f91b6044820152606490fd5b8251156117b757611798602084015160020b600435611d45565b80546002600160601b038116906001600160601b0319161790556115c6565b6117e16117cd604085015160020b600435611d45565b6002600160601b03815460601c1690611cf9565b6115c6565b6001600160601b036117fc606435828816611e85565b166001600160601b031986161790556115aa565b346100f35760c03660031901126100f35760043561182c611a87565b611834611a96565b91606435928360020b8094036100f3576001600160a01b03926084359084821682036100f35760a4356001600160401b03968782116100f357366023830112156100f3578160040135908882116100f35760059082821b92602484860101913683116100f3576118a2611fe4565b961515875260209860020b8988015260408701526118c588604051950185611be5565b83528683019360240187855b838310611a7757505050506118f3845115156118ec86612197565b9089611c3f565b6000526201000486526119096040600020611c6d565b948251156000146119ca5750505050816119429187604063ffffffff8762010005989701511693015116955b600097600054169161201e565b600052526040600020908154938082166119b1575b50506001600160c01b03198316905562010022805477ffffffffffffffff00000000ffffffffffffffffffffffff191660809290921b67ffffffffffffffff60801b16919091176001600160601b03909216919091179055005b6119c29293508460601c1690611d2c565b908380611957565b9893909497929896919596986000995b87518b10156119ff576119f76001918a8d8a1b8b01015190611cbb565b9a01996119da565b9297955093985094918080985116911603611a4d575115611a3757518581169362010005936119429260401c63ffffffff1691611935565b634e487b7160e01b600052603260045260246000fd5b60405162461bcd60e51b815260048101849052600260248201526104b560f41b6044820152606490fd5b82358152918101918991016118d1565b6024359081151582036100f357565b604435908160020b82036100f357565b602435908160020b82036100f357565b60a435908160020b82036100f357565b60c435908160020b82036100f357565b606435906001600160401b03821682036100f357565b608435906001600160601b03821682036100f357565b60809060031901126100f3576004359060243580151581036100f357906044358060020b81036100f357906064358060020b81036100f35790565b60a09060031901126100f3576004359060243580151581036100f357906044358060020b81036100f357906064358060020b81036100f3579060843563ffffffff811681036100f35790565b6024359060ff821682036100f357565b606081019081106001600160401b03821117611bb457604052565b634e487b7160e01b600052604160045260246000fd5b608081019081106001600160401b03821117611bb457604052565b90601f801991011681019081106001600160401b03821117611bb457604052565b90604051611c1381611b99565b604061ffff8294546001600160601b038116845263ffffffff8160601c16602085015260801c16910152565b9160405191602083019384521515604083015260020b606082015260608152611c6781611bca565b51902090565b90604051611c7a81611b99565b91546001600160a01b038116835260a081901c63ffffffff16602084015260c01c6040830152565b600019430143811161062657406001600160a01b031690565b604080516001600160a01b0390921660208301908152828201939093528152611ce381611b99565b51902060601c90565b9190820180921161062657565b80546bffffffffffffffffffffffff60601b191660609290921b6bffffffffffffffffffffffff60601b16919091179055565b6001600160401b03918216908216039190821161062657565b604080516020810192835260e89390931b9083015290611d688160438101610a59565b51902060005262010002602052604060002090565b93959491906001600160401b0390611db9611da4611d9c8a868a611e1e565b998789611e9e565b94611db18184878b611eef565b928789611eef565b031695611dd5575b50611dca575050565b611dd391611de5565b565b611ddf9084611de5565b38611dc1565b604080516020810192835260e89390931b9083015290611e088160438101610a59565b5190206000526201000260205260006040812055565b91611e43611e2c8385611d45565b918254906001600160601b03928391828416611e85565b1680916001600160601b03191617809355159182611e77575b5050611e69575050600090565b611e7291611f23565b600190565b60601c161590503880611e5c565b6001600160601b03918216908216039190821161062657565b91611ec4611eac8385611d45565b916001600160601b0391829182855460601c16611e85565b611ece8185611cf9565b16159182611ee3575050611e69575050600090565b54161590503880611e5c565b81611efc91949394611d45565b92600290810b91900b13611f1257505460c01c90565b611f20915460c01c90611d2c565b90565b8160020b91611f328183611fbd565b60005262010007602052604060002061010090600160ff838707161b1981541680915515611f61575b50505050565b611f6f60ff92600194611f96565b6000526201000660205260406000209360081d830b07161b19815416905538808080611f5b565b90604051906020820192835260020b60101d60f81b604082015260218152611c6781611b99565b90604051906020820192835260020b60081d60f01b604082015260228152611c6781611b99565b60405190611ff182611b99565b60006040838281528260208201520152565b9190916001600160601b038080941691160191821161062657565b9263ffffffff919380511515906040602082015191015191604051956020870197885260018060a01b03166040870152606086015260020b608085015260020b60a08401521660c082015260c0815260e081018181106001600160401b03821117611bb45760405251902090565b9190916001600160801b038080941691160191821161062657565b9060016001600160401b038093160191821161062657565b929190916001600160801b03808216156121435783161561213c576001600160401b0393848316858216146121345761212061211a86948461210e81612114612126978b61210e8c9b8261208c565b9161214a565b9961208c565b946120a7565b936120a7565b169116019081116106265790565b935050505090565b5091505090565b5050505090565b6001600160801b03809316918215612170576001600160401b0393849116911602041690565b634e487b7160e01b600052601260045260246000fd5b63ffffffff804211611f2057421690565b8051156121a8576020015160020b90565b6040015160020b90565b600291820b910b0390627fffff198212627fffff83131761062657565b6121e9906020604082015191015160020b9060020b6121b2565b61ffff908162ffffff821610156100f3571690565b8051919290911561222f5715612222576020015160020b905b60020b9060020b1290565b6040015160020b90612217565b15612249576040015160020b905b60020b9060020b121590565b6020015160020b9061223d565b9290926122638382611d45565b9182546001600160601b0380821615918261231e575b5050612287575b5050505050565b8360ff936122d79260019660020b9760020b8812156122f9575b50506122ad8184611f96565b60005262010006602052604060002092610100938686868a60081d830b07161b8154179055611fbd565b6000526201000760205260406000209307161b81541790553880808080612280565b81546001600160c01b031660c09190911b6001600160c01b03191617905538806122a1565b60601c161590503880612279565b91906001600160601b038091840116921682106100f357565b1561234c57565b60405162461bcd60e51b815260206004820152600260248201526125a160f11b6044820152606490fd5b6001600160401b039160028382160183811161062657831682841611156123b1576123a5839160011993611d2c565b16019081116106265790565b50505060009056fea264697066735822122082c0646eaee6f612fd6d16d059e15a69adfb23d54bfab3dff8717bd047f28bd164736f6c63430008130033",
    "linkReferences": {}
  },
  "methodIdentifiers": {
    "bookLots_()": "432ff7e1",
    "callTime_()": "2e792089",
    "getLevelState(uint256,int24)": "91f4a637",
    "getMerkle(uint256,bool,int24,int24)": "e3ffca85",
    "getPivot(uint256,bool,int24,int24)": "4e6bb0c1",
    "getPosition(uint256,bool,int24,int24,uint32)": "57e641e4",
    "pivotTime_()": "70b71ada",
    "rewards_()": "55fe7b62",
    "setLockholder(uint160)": "5c77bbb1",
    "testBurn(uint256,int24,uint64,uint96,bool,int24,int24)": "13fb9c56",
    "testClaim(uint256,bool,int24,int24,uint160,uint256[])": "00739239",
    "testCross(uint256,bool,int24,uint64)": "d324109b",
    "testMint(uint256,uint8,int24,uint64,uint96,bool,int24,int24)": "df27df73",
    "testMintArch(uint256,uint8,int24,uint64,uint96,int24,int24)": "8dd3926d",
    "testRecover(uint256,bool,int24,int24,uint32)": "83822e31",
    "togglesPivot_()": "f8ada62f"
  },
  "id": 74
}