{
  "abi": [
    {
      "anonymous": false,
      "inputs": [
        {
          "indexed": true,
          "internalType": "bytes32",
          "name": "pool",
          "type": "bytes32"
        },
        {
          "indexed": true,
          "internalType": "int24",
          "name": "tick",
          "type": "int24"
        },
        {
          "indexed": false,
          "internalType": "bool",
          "name": "isBid",
          "type": "bool"
        },
        {
          "indexed": false,
          "internalType": "uint32",
          "name": "pivotTime",
          "type": "uint32"
        },
        {
          "indexed": false,
          "internalType": "uint64",
          "name": "feeMileage",
          "type": "uint64"
        },
        {
          "indexed": false,
          "internalType": "uint160",
          "name": "commitEntropy",
          "type": "uint160"
        }
      ],
      "name": "CrocKnockoutCross",
      "type": "event"
    },
    {
      "inputs": [
        {
          "internalType": "address",
          "name": "",
          "type": "address"
        },
        {
          "internalType": "uint16",
          "name": "slot",
          "type": "uint16"
        }
      ],
      "name": "acceptCrocProxyRole",
      "outputs": [
        {
          "internalType": "bool",
          "name": "",
          "type": "bool"
        }
      ],
      "stateMutability": "pure",
      "type": "function"
    },
    {
      "inputs": [
        {
          "internalType": "bytes",
          "name": "input",
          "type": "bytes"
        }
      ],
      "name": "userCmd",
      "outputs": [
        {
          "internalType": "int128[]",
          "name": "",
          "type": "int128[]"
        }
      ],
      "stateMutability": "payable",
      "type": "function"
    }
  ],
  "bytecode": {
    "object": "0x6080806040523461002b5762010011805460ff60e01b1916600160e71b17905561352590816100318239f35b600080fdfe608080604052600436101561001357600080fd5b60003560e01c908163ac54c0fc146116c3575063f96dc7881461003557600080fd5b602036600319011261077c576001600160401b036004351161077c5736602360043501121561077c576001600160401b03600435600401351161077c573660246004356004013560043501011161077c576040516100928161176c565b61009a6117a8565b808252606060208301526004356004013560c01161077c576100c06024600435016118f0565b906100cf6044600435016118fe565b906100de606460043501611912565b916100ed608460043501611920565b926001600160801b0361010460a460043501611934565b9461011360c4600435016118f0565b9515156060860152166040840152600f0b60208301526001600160a01b0316905260c09160ff166000190161077c5761014e60ff821661183d565b61015b6040519182611787565b60ff8216808252601f199061016f9061183d565b0160005b81811061167d57505060208401526000915b60ff821683106111875783516040518561019e8261171b565b600082526000602083015260006040830152600060608301526101bf6117a8565b6080830152604051926101d184611736565b6101d96117cd565b84526101e361181e565b60208501526040516101f48161176c565b60008152600060208201526040850152602082015151916001830183116108dc579293906102246001840161183d565b926102326040519485611787565b600101808452601f19906102459061183d565b013660208501376000905b6020850151908151831015610e3857516001600160a01b039081169160209061027a908590611863565b510151511690818110806040890152600014610e2c57865260208601525b60406102a8826020870151611863565b510151855160208701516001600160a01b0390811691166102c761181e565b928051610dc6575b505050602083015260005b6102e8826020870151611863565b515151811015610c645761030b81610304846020890151611863565b5151611863565b51865160208801518251929792916001600160a01b03908116911661032e6117cd565b506103376117cd565b508082101561077c57604080516001600160a01b039384166020820190815293909216908201526060810183905260019160ff9161038281608081015b03601f198101835282611787565b5190209283600052620100096020526040600020908380604051936103a685611751565b54858116855261ffff8160081c166020860152858160181c16604086015261ffff8160201c166060860152858160301c166080860152858160381c1660a086015260401c85811660c08601521614600014610c5c5760601c5b6040519461040c86611736565b8286526020860152838060a01b03166040850152511611610c3157600160ff8251511603610c075780855287516020808a01519089015160608a01516040808c0151908601516001600160a01b039485169590851694919391169184610a18575b505050505050506080860151604051906104868261176c565b600080835260208301528051156109fd576040890151158252600060208301525b6040810151610939575b506040850152608087015196604051956104ca87611736565b6104d2611941565b875260006020880152600060408801526020865101516104f0611941565b506000526201000f60205260406000206040519061050d8261171b565b60018154916001600160801b0383169283855260801c602085015201546001600160801b03811660408401526001600160401b038160801c16606084015260c01c60808301521561077c57875260206080890151015115610924575b60208801516040870151885160ff602084015116918c8361083c575b5050505060408101906001600160801b038251168061069f575b50505060408801519460005b86518110156105de57806105d88c6105d28c8c836105cb6001988f611863565b5192611f49565b91611de9565b016105ab565b509561067e9493955087819a9992989399602060808501510151610688575b5050602091505101519051906000526201000f60205260016040600020916001600160801b038151166001600160801b0319602083015160801b161783556001600160801b03604082015116906001600160401b0360801b606082015160801b169060806001600160401b0360c01b91015160c01b16911717910155611854565b94919093946102da565b60606106969401519061197a565b888882826105fd565b905160009283929115610781576001600160801b039150511660208951015160018060a01b0360065416916107318c51916103746001600160801b03845116946001600160801b03602086015116926001600160801b03604087015116956001600160401b036080816060840151169201511690604051978896602088019a632ee1158760e01b8c5260248901612f4a565b51915af461073d612f95565b901561077c576107598160208061077494518301019101612ff6565b6001600160801b0360208c9493945101911690525b8b611de9565b89808061059f565b600080fd5b5060208951015160018060a01b0360065416916107fb8c51916103746001600160801b03845116946001600160801b03602086015116926001600160801b03604087015116956001600160401b036080816060840151169201511690604051978896602088019a630a9bc21960e21b8c5260248901612f4a565b51915af4610807612f95565b901561077c576108238160208061077494518301019101612ff6565b6001600160801b0360208c94939451019116905261076e565b61085a61086a916001600160801b0395866040890151169185611eca565b9485919451169251151593611e49565b91156109085780156108f257600160401b600160c01b0361088f9260401b1604611f0e565b905b80156108b5576001600160801b0391905b151583521660408201528a80808c610585565b6001600160801b03600181841601116108dc5760016001600160801b0380931601906108a2565b634e487b7160e01b600052601160045260246000fd5b634e487b7160e01b600052601260045260246000fd5b6001600160801b0361091e92160260401c611f0e565b90610891565b610934868860608b01518c61197a565b610569565b51156109c8576040880151156109b457602088015161096d906001600160a01b03165b6000546001600160a01b031661332f565b600052620100106020526001600160801b03604060002054166001607f1b81101561077c576109a690600f0b6020830151600f0b6118b3565b600f0b6020820152886104b1565b875161096d906001600160a01b031661095c565b6040880151156109e657875161096d906001600160a01b031661095c565b602088015161096d906001600160a01b031661095c565b6040890151151582526060890151600f0b60208301526104a7565b610a8e906001600160801b03604060018060a09a9698979a1b03600054169661ffff60208c510151169582519a8b9963109b753160e11b8b5260048b01523360248b015260448a0152606489015280511515608489015260ff60208201511660a489015201511660c486015260e4850190612f0a565b6101c06101848401526101c48301825180915260206101e485019301906000905b808210610ba0575050506000836020959381936101a483015203925af18015610b9457600090610b55575b61ffff915016908115610b2c5761ffff6000198301116108dc5760209051019061ffff82511661ffff806000198401168203116108dc5761ffff8092600019011690031690528780808080808061046d565b60405162461bcd60e51b81526020600482015260016024820152602d60f91b6044820152606490fd5b506020813d602011610b8c575b81610b6f60209383611787565b8101031261077c575161ffff8116810361077c5761ffff90610ada565b3d9150610b62565b6040513d6000823e3d90fd5b9194509192602060c06001926001600160801b0360a089518051600290810b855286820151900b8685015260408101511515604085015260608101511515606085015260ff608082015116608085015201511660a082015201950192018694939291610aaf565b60405162461bcd60e51b8152602060048201526002602482015261504960f01b6044820152606490fd5b60405162461bcd60e51b815260206004820152600360248201526249505360e81b6044820152606490fd5b5060006103ff565b50608085015185516020870151604083015194979693946001600160a01b03918216936001600160801b039360609391928516911681610d98575b50500151169081610d5c575b5050604084015115610d41576080840151610cdb60208251600f0b920151600f0b915b6060870151600f0b61188d565b90600f0b60608601526000608086015152600060206080870151015260006040608087015101526000606060808701510152610d178385611863565b90600f0b9052610d386020610d2f8482850151611863565b51015192611854565b90939491610250565b6080840151610cdb6020820151600f0b9151600f0b91610cce565b6000526201000c6020526040600020906001600160801b03610d82835492828416611e15565b16906001600160801b0319161790558580610cab565b6000526201000c60205260406000209084610db7835492828416611e15565b16908519161790558980610c9f565b602001511580159290610e245750905b825260018060a01b0316806000526201000a90816020526001600160801b0360406000205460081c16602084015260005260205261ffff60406000205460881c1660408201528680806102cf565b905090610dd6565b60208701528552610298565b85856060890151600f0b610e5160208401515183611863565b52815191600080935b602083015151851015610eb75790610e8e610e9492610e798787611863565b51600f0b60018060a01b0360005416806130d5565b9061188d565b92610eb06020610ea78382860151611863565b51015191611854565b9390610e5a565b6060610eeb610ecc6020879601515186611863565b516000546001600160a01b03169490610e8e908590600f0b87806130d5565b91015115156000549160ff8360a81c1661115d576001600160801b0334169234840361077c5760ff60a81b1916600160a81b17600055600f81900b801561114e57600081131561107557506001600160801b03811691156110665760009160405160208101908682526000604082015260408152610f6881611736565b5190206000526201001060205260406000209182546001600160801b038082169216821160001461104a5750506001600160801b03610fab835492828416611e30565b16906001600160801b0319161790555b6001600160801b0381161561101b57610fd3926133a7565b60405180916020820160208352815180915260206040840192019060005b818110610fff575050500390f35b8251600f0b845285945060209384019390920191600101610ff1565b5080611029575b5050610fd3565b600080808093611043955af161103d612f95565b50613376565b8180611022565b6001600160801b0319169092556110619250611e30565b610fbb565b50611070926133a7565b610fd3565b600013611086575b50505050610fd3565b61108f90611cef565b6001600160801b0316901561112257604051602081019084825260006040820152604081526110bd81611736565b519020600052620100106020526040600020906001600160801b036110e6835492828416611e15565b16906001600160801b03191617905580611107575b50505b8180808061107d565b60008080809361111b955af161103d612f95565b81806110fb565b600080611149946001600160801b0361113d83968496611e15565b16905af161103d612f95565b6110fe565b50505080611029575050610fd3565b60405162461bcd60e51b8152602060048201526002602482015261445360f01b6044820152606490fd5b611195836020860151611863565b516020820182116108dc5760206111bb81840184600435600401356024600435016118d8565b908092918101031261077c576111d26020916118f0565b9201916111e160ff821661183d565b6111ee6040519182611787565b60ff8216808252601f19906112029061183d565b0160005b81811061163157505082526000905b60ff811682106112ec57505060c0820182116108dc5760c061124681840184600435600401356024600435016118d8565b908092918101031261077c5760ff926001928261126460c0946118fe565b906001600160801b0361127960208301611912565b9161128660408201611920565b9061129360608201611934565b906112ac60a06112a560808401611934565b9201611934565b906040602089015198015191151560208301521515905215156060860152166040840152600f0b6020830152848060a01b03169052019301929050610185565b90926112f9848451611863565b519060a0810181116108dc578061132160a080930182600435600401356024600435016118d8565b908093918101031261077c5760a09061133c60208401611934565b92611349604082016118f0565b9361135660608301611920565b9060ff611365608085016118f0565b966001600160801b0360208a01519416604085015216602083015215159052358452019061139560ff821661183d565b6113a26040519182611787565b60ff8216808252601f19906113b69061183d565b0160005b8181106115c357505060408401526000905b60ff811682106114f657505060a0810181116108dc5760a06113fd81830183600435600401356024600435016118d8565b908092918101031261077c5761141281611934565b61141e60208301611934565b60ff61142c604085016118f0565b6001600160801b0361144c608061144560608901611920565b9701611920565b958160608a0151971660808801521660608601521660408401521515602083015215159052610100810160a08201116108dc57806114a06101006060930160a08301600435600401356024600435016118d8565b908093918101031261077c57600192826114bc61010094611934565b9060806114d760406114d060208501611934565b9301611934565b9301519215156040840152151560208301521515905201930190611215565b9091611506836040860151611863565b519060c0810181116108dc578061152e60c080930182600435600401356024600435016118d8565b908093918101031261077c576001928261154960c09461196c565b906115566020820161196c565b9061156360408201611934565b9060ff61157260608301611934565b916001600160801b0361159360a061158c608085016118f0565b9301611920565b1660a08801521660808601521515604085015215156060840152600290810b60208401520b9052019201906113cc565b604051908160c08101106001600160401b0360c08401111761161b578160c06020930160405260008152600083820152600060408201526000606082015260006080820152600060a0820152828286010152016113ba565b634e487b7160e01b600052604160045260246000fd5b6020906040516116408161171b565b6000815261164c61181e565b838201526060604082015261165f611941565b606082015261166c61181e565b608082015282828601015201611206565b60209060405161168c81611736565b606081526116986117a8565b838201526040516116a88161176c565b60008152600084820152604082015282828601015201610173565b3461077c57604036600319011261077c576004356001600160a01b0381160361077c576024359061ffff821680920361077c576004602092148152f35b608081019081106001600160401b0382111761161b57604052565b60a081019081106001600160401b0382111761161b57604052565b606081019081106001600160401b0382111761161b57604052565b60e081019081106001600160401b0382111761161b57604052565b604081019081106001600160401b0382111761161b57604052565b90601f801991011681019081106001600160401b0382111761161b57604052565b604051906117b582611700565b60006060838281528260208201528260408201520152565b604051906117da82611736565b8160408051916117e983611751565b60009283815283602082015283838201528360608201528360808201528360a08201528360c082015281528260208201520152565b6040519061182b82611736565b60006040838281528260208201520152565b6001600160401b03811161161b5760051b60200190565b60001981146108dc5760010190565b80518210156118775760209160051b010190565b634e487b7160e01b600052603260045260246000fd5b90600f0b90600f0b019060016001607f1b0319821260016001607f1b038313176108dc57565b600f91820b910b039060016001607f1b0319821260016001607f1b038313176108dc57565b9093929384831161077c57841161077c578101920390565b359060ff8216820361077c57565b35906001600160a01b038216820361077c57565b359081600f0b820361077c57565b35906001600160801b038216820361077c57565b3590811515820361077c57565b6040519061194e8261171b565b60006080838281528260208201528260408201528260608201520152565b35908160020b820361077c57565b9260408101519060ff91826040850151169081611c42575b50506001600160801b036060840151166119ae575b5050505050565b516006548451926001600160a01b0391821692604091611a4c6119d0896123d2565b978451986001600160401b03608060208c019a633d9b87e160e11b8c528c60246001600160801b038351169101528c60446001600160801b036020840151169101528c60646001600160801b038b840151169101528c60848460608401511691015201511660a48b015260020b60c48a015260e4890190612f0a565b60c08251828151166101848a015261ffff806020830151166101a48b01528386830151166101c48b01526060820151166101e48a0152826080820151166102048a01528260a0820151166102248a01520151166102448701526020810151610264870152015116610284908185015283526102c08301918383106001600160401b0384111761161b57600093849360405251915af4611ae9612f95565b901561077c57611af76117a8565b50808051810103610120811261077c5760801361077c5760606001600160801b0381611c359360006020849760405193611b3085611700565b611b3b838201612fd4565b8552611b4960408201612fd4565b83860152611b58868201612fe2565b6040860152611b6960808201612fe2565b8686015286611b7a60a08301612fe2565b81611b8760c08501612fe2565b81611b9460e08701612fe2565b6001600160401b03611bb6610120611baf6101008b016130c1565b99016130c1565b97818a51991660808a0152168c880152166040860152168584015216905201528051611be9600f91820b8951830b61188d565b810b88526020820151810b90611c0660208a01928351830b61188d565b900b90528260408201511683611c2360408a019282845116611e15565b16905201511693019282845116611e15565b16905238808080806119a7565b611c6660608601916001600160801b0393611c618a8686511693611d07565b611d34565b855160208701519015159291849160009015611ce55750600081600f0b125b15158852600081600f0b13600014611cd55781165b169052845115159081146119925715611ccc576f0ffff5433e2b3d8211706e6102aa94725b1660808401523880611992565b62010002611cbf565b611cde90611cef565b8116611c9a565b81600f0b13611c85565b600f0b60016001607f1b031981146108dc5760000390565b8051611d259260209115611d285751600f0b915b0151600f0b61188d565b90565b810151600f0b91611d1b565b9060ff1660018103611d515750506001600160801b0316600f0b90565b60028103611d705750506001600160801b03611d259116600f0b611cef565b60048103611db657506001600160801b0390600f0b9116600f0b9081810291600160ff1b811460008312166108dc5781830514901517156108dc576127109005600f0b90565b600503611dd3576001600160801b03611d259216600f0b9061188d565b6001600160801b03611d259216600f0b906118b3565b602090611dfd611e0e938251600f0b61188d565b600f0b815201918251600f0b61188d565b600f0b9052565b9190916001600160801b03808094169116019182116108dc57565b6001600160801b0391821690821603919082116108dc57565b9015611e91576001600160801b039060009082166004811015611e6e57505050600090565b60031901918211611e7d575090565b634e487b7160e01b81526011600452602490fd5b6001600160801b039060009082166ffffffffffffffffffffffffffffffffb811115611ebc57505090565b600401918211611e7d575090565b611ed9939291611c6191611d07565b80600f0b906000821291600012600014611ef9576001600160801b031691565b611f0290611cef565b6001600160801b031691565b6001600160801b03811691906001600160c01b0316820361077c57565b9060020b9060020b0190627fffff198212627fffff8313176108dc57565b919392909360608201516121e6575b6040918282015190845192611f83825198602095868501958651918660029d8e94850b940b92612284565b848201978851612136575b60a08301926001600160801b03998a8551169081156121225792899695928c95928a8a965115159160009260001461207c57505050600097936120429386888b9a9998956103749551810b9a51900b935116915101519160018060a01b0360065416988d8989515116996120018a6123d2565b995190808983015116908383015116906001600160401b036080816060860151169401511693519b8c9a8b019d8e632370632b60e01b905260248c01613023565b51915af461204e612f95565b901561077c57612067818380899451830101910161308d565b95919890929651951690850152169101529190565b829a95839a9298610374949a98506120f896819651810b9451900b915101519260018060a01b0360065416998989515116996120b78a6123d2565b995190808983015116908383015116906001600160401b036080816060860151169401511693519b8c9a8b019d8e637c6dfe3d60e01b905260248c01613023565b51915af490612105612f95565b911561211f5750612067818380899451830101910161308d565b80fd5b505050505050505050509050600090600090565b61216f858301518451830b8651840b6001600160801b0360a0880151169061ffff6060885151015116926121698d6123d2565b94612722565b15611f8e5760005485835101518451865190895192898401946bffffffffffffffffffffffff199060601b168552603484015260e81b605483015260e81b6057820152603a81526121bf81611736565b5190206000908152620100128652869020805460ff60e81b1916600160e81b179055611f8e565b6121ef836123d2565b825190612200600292830b82611f2b565b820b845261221660208501918251840b90611f2b565b820b8091528351820b90620a276d198212159182612276575b8261226b575b5050156122425750611f58565b6064906040519062461bcd60e51b825260206004830152602482015261149560f21b6044820152fd5b131590503880612235565b620cb14a821315925061222f565b9493929491909160ff6080840151169384156123c9576122d160a08501976122bb6001600160801b03988998898c51169187611eca565b9790955116935115876122d78215948594612b93565b95612b93565b95858b16811161237f5750505061077c576122f5866122fa95611e49565b612698565b821561231957610800600160801b0360409116925b1515910152169052565b610800600160801b03808083161461234f5760016e1fffffffffffffffffffffffffffff604093600b1c1601600b1b169261230f565b60405162461bcd60e51b81526020600482015260086024820152676f766572666c6f7760c01b6044820152606490fd5b91925090858a16811061239f57505061077c576122f5866122fa95611e49565b9091506122fa9594836000146123bb5750906122f59194611e49565b949350906122f59193611e49565b50505050505050565b60208101908151156123eb575b60409150015160020b90565b805151916001600160801b039081841693620100028510158061267f575b1561077c57600160401b600160c01b039060401b168083811160071b9181831c926001600160401b03841160061b93841c9363ffffffff851160051b94851c9461ffff861160041b95861c60ff9687821160031b91821c92600f841160021b93841c94600160038711811b96871c1196171717171717179160808310156000146126735750607e1982011c5b8002607f928392828493841c81841c1c800280851c81851c1c800280861c81861c1c800280871c81871c1c80029081881c82881c1c80029283891c84891c1c800294858a1c868a1c1c800296878b1c888b1c1c800298898c1c8a8c1c1c80029a8b8d1c8c821c1c8002809d1c8d821c1c8002809e81901c90821c1c80029e8f80911c911c1c800260cd1c6604000000000000169d60cc1c6608000000000000169c60cb1c6610000000000000169b60ca1c6620000000000000169a60c91c6640000000000000169960c81c6680000000000000169860c71c670100000000000000169760c61c670200000000000000169660c51c670400000000000000169560c41c670800000000000000169460c31c671000000000000000169360c21c672000000000000000169260c11c674000000000000000169160c01c6780000000000000001690607f190160401b1717171717171717171717171717693627a301d71055774c85026f028f6481ab7f045a5af012a19d003aa919810160801d60020b906fdb2df09e81959a81455e260799a0632f0160801d60020b906000828214600014966001956040986126555750505090505b60020b84840152526123df565b61265e85612b93565b1611905061266c5750612648565b9050612648565b905081607f031b612495565b506f0ffff5433e2b3d8211706e6102aa94728510612409565b9291906126be579060016126b86126b2611d259594612700565b92612700565b92612698565b6001600160801b0391829181831681841611156126f85703165b1680156108f257600160401b600160c01b03611d259260401b1604611f0e565b9003166126d8565b6001600160801b0380911680156108f257600160801b0481811161077c571690565b939091929461ffff821660020b61273981856127e3565b60020b1590816127ce575b501561275557505050505050600090565b8360020b8360020b121561077c57838361276f9287612ae8565b156127bd5761277d936127f5565b6001600160801b0380911691161061279457600190565b60405162461bcd60e51b81526020600482015260016024820152601160fa1b6044820152606490fd5b505050506001600160801b0361277d565b6127d99150856127e3565b60020b1538612744565b9060020b9081156108f25760020b0790565b926128018184846128dc565b9162ffffff83161561284b5750506128189261287f565b60011b7001fffffffffffffffffffffffffffffffe6ffffffffffffffffffffffffffffffffe8216911681036108dc5790565b61287992506128738461286c84612866611d25999886612a21565b94612aa5565b928661287f565b9361287f565b90611e15565b9062ffffff1680156128c057611d25926126b86128bb6001600160801b0360208601511694511515926128b181612b93565b9460020b90611f2b565b612b93565b505050600090565b60020b627fffff1981146108dc5760000390565b90918060020b8360020b8181121561077c57600013908180612956575b1561291c57505091612916612910611d25946128c8565b916128c8565b916128dc565b9192918161294a575b501561293357505050600090565b61ffff611d259362ffffff9384169316911661299d565b60009150121538612925565b50600081126128f9565b9062ffffff8091169182156108f257160690565b9062ffffff8091169182156108f257160490565b62ffffff91821690821603919082116108dc57565b62ffffff806129ac8385612960565b161580156129f4575b156129c35750505050600090565b806129d86129d18486612974565b9386612974565b16911614156000146129eb575050600090565b611d2591612988565b5080612a008386612960565b16156129b5565b91909162ffffff808094169116029182169182036108dc57565b908060020b90600091828112612a935715612a8d5762ffffff9081169261ffff16916000198401828111612a795782612a5c85600193612974565b1601918211611e7d5750611d259291612a7491612a07565b612988565b634e487b7160e01b82526011600452602482fd5b50905090565b50611d25929150612aa3906128c8565b905b60008260020b12612ad657612ad061ffff611d259362ffffff169216612acb8184612974565b612a07565b90612988565b612ae2611d25926128c8565b90612a21565b929190916001600160801b0360208501511615612b4157612b18604091612b128561ffff95612b67565b94612b67565b93015116908162ffffff80921611159283612b34575b50505090565b1611159050388080612b2e565b50505050600090565b600291820b910b0390627fffff198212627fffff8313176108dc57565b908160020b8160020b13600014612b8a5790612b8291612b4a565b62ffffff1690565b612b8291612b4a565b60020b620a276d1981121580612efd575b1561077c576000811215612ef75780600003905b6001821615612ee5576001600160881b036ffffcb933bd6fad37aa2d162d1a5940015b169160028116612ec9575b60048116612ead575b60088116612e91575b60108116612e75575b60208116612e59575b60408116612e3d575b608090818116612e22575b6101008116612e07575b6102008116612dec575b6104008116612dd1575b6108008116612db6575b6110008116612d9b575b6120008116612d80575b6140008116612d65575b6180008116612d4a575b620100008116612d2f575b620200008116612d15575b620400008116612cfb575b6208000016612ce0575b50600012612cd1575b6001600160801b03906001600160401b038116612cc85760ff60005b169060401c011690565b60ff6001612cbe565b80156108f25760001904612ca2565b6b048a170391f7dc42444e8fa26000929302901c9190612c99565b6d2216e584f5fa1ea926041bedfe98909302811c92612c8f565b926e5d6af8dedb81196699c329225ee60402811c92612c84565b926f09aa508b5b7a84e1c677de54f3e99bc902811c92612c79565b926f31be135f97d08fd981231505542fcfa602811c92612c6e565b926f70d869a156d2a1b890bb3df62baf32f702811c92612c64565b926fa9f746462d870fdf8a65dc1f90e061e502811c92612c5a565b926fd097f3bdfd2022b8845ad8f792aa582502811c92612c50565b926fe7159475a2c29b7443b29c7fa6e889d902811c92612c46565b926ff3392b0822b70005940c7a398e4b70f302811c92612c3c565b926ff987a7253ac413176f2b074cf7815e5402811c92612c32565b926ffcbe86c7900a88aedcffc83b479aa3a402811c92612c28565b926ffe5dee046a99a2a811c461f1969c305302811c92612c1e565b916fff2ea16466c96a3843ec78b326b528610260801c91612c13565b916fff973b41fa98c081472e6896dfb254c00260801c91612c0a565b916fffcb9843d60f6159c9db58835c9266440260801c91612c01565b916fffe5caca7e10e4e61c3624eaa0941cd00260801c91612bf8565b916ffff2e50f5f656932ef12357cf3c7fdcc0260801c91612bef565b916ffff97272373d413259a46990580e213a0260801c91612be6565b6001600160881b03600160801b612bdb565b80612bb8565b50620cb14a811315612ba4565b60809080511515835260208101511515602084015260ff6040820151166040840152816001600160801b0391826060820151166060860152015116910152565b6001600160801b039182168152918116602083015291821660408201526001600160401b039283166060820152919092166080820152911660a082015260c081019190915260e00190565b3d15612fcf573d906001600160401b03821161161b5760405191612fc3601f8201601f191660200184611787565b82523d6000602084013e565b606090565b519081600f0b820361077c57565b51906001600160801b038216820361077c57565b9081606091031261077c5761300a81612fd4565b91611d25604061301c60208501612fd4565b9301612fe2565b969295909a99989491610120989461014089019c6001600160801b03988993848093168c5260020b60208c01521660408a01521660608801526001600160401b0380921660808801521660a086015260020b60c085015260020b60e0840152166101008201520152565b919082608091031261077c576130a282612fd4565b916130af60208201612fd4565b91611d25606061301c60408501612fe2565b51906001600160401b038216820361077c57565b91939290936000946020830151600f0b82600f0b13613137576131056001600160801b03604085015116836134c0565b613110575b50505050565b61312d949550606060018060a01b03845116930151151593613160565b903880808061310a565b60405162461bcd60e51b81526020600482015260016024820152604b60f81b6044820152606490fd5b91936001600160a01b03939184831661317b57505050505090565b85600f9692939495960b600096818880931360001461323257505050506001600160801b0390808216926000146132275785926131b8858761332f565b875262010010602052604087209182548480821692168211600014613208575050826131e8835492828416611e30565b16906001600160801b0319161790555b811615612b2e57611d259261340f565b6001600160801b03191690925591925061322191611e30565b906131f8565b5050611d259261340f565b829492919395975012613249575b50505050505090565b61325290611cef565b94156132a6575050906132649161332f565b825262010010602052604082209081549061328b6001600160801b03918216828416611e15565b16906001600160801b0319161790555b388080838180613240565b9181809492936001600160801b036132fb9760405192602084019563a9059cbb60e01b8752166024840152166044820152604481526132e481611700565b51925af16132f0612f95565b816133005750613376565b61329b565b8051801592508215613315575b50503861103d565b613328925060208091830101910161335e565b388061330d565b604080516001600160a01b03928316602082019081529390921682820152815261335881611736565b51902090565b9081602091031261077c5751801515810361077c5790565b1561337d57565b60405162461bcd60e51b81526020600482015260026024820152612a2360f11b6044820152606490fd5b916001600160801b0391828116838316106133e5576133c591611e30565b16806133cf575050565b6000808080936133e3955af161103d612f95565b565b60405162461bcd60e51b8152602060048201526002602482015261454360f01b6044820152606490fd5b916001600160a01b03811661346e57506001600160801b0380911690816133e557600091820381811161345a5716918261344857505050565b81806133e39481935af161103d612f95565b634e487b7160e01b83526011600452602483fd5b6040516323b872dd60e01b602082019081526001600160a01b0390941660248201523060448201526001600160801b0390921660648301526133e3926000928392919083906132e48160848101610374565b600081600f0b136000146134d5575050600190565b6134de90611cef565b6001600160801b039182169116119056fea26469706673582212206b2ac943df24ab2355aee8f2d5aa2e5d1fe1661371ccf8e14fb818116260a23e64736f6c63430008130033",
    "linkReferences": {}
  },
  "methodIdentifiers": {
    "acceptCrocProxyRole(address,uint16)": "ac54c0fc",
    "userCmd(bytes)": "f96dc788"
  },
  "id": 7
}