{
  "abi": [
    {
      "inputs": [
        {
          "internalType": "uint16",
          "name": "tickSize",
          "type": "uint16"
        },
        {
          "internalType": "int24",
          "name": "askTick",
          "type": "int24"
        }
      ],
      "name": "testClipAbove",
      "outputs": [
        {
          "internalType": "uint24",
          "name": "",
          "type": "uint24"
        }
      ],
      "stateMutability": "pure",
      "type": "function"
    },
    {
      "inputs": [
        {
          "internalType": "uint16",
          "name": "tickSize",
          "type": "uint16"
        },
        {
          "internalType": "int24",
          "name": "bidTick",
          "type": "int24"
        }
      ],
      "name": "testClipBelow",
      "outputs": [
        {
          "internalType": "uint24",
          "name": "",
          "type": "uint24"
        }
      ],
      "stateMutability": "pure",
      "type": "function"
    },
    {
      "inputs": [
        {
          "internalType": "uint16",
          "name": "tickSize",
          "type": "uint16"
        },
        {
          "internalType": "int24",
          "name": "bidTick",
          "type": "int24"
        },
        {
          "internalType": "int24",
          "name": "askTick",
          "type": "int24"
        }
      ],
      "name": "testClipInside",
      "outputs": [
        {
          "internalType": "uint24",
          "name": "",
          "type": "uint24"
        }
      ],
      "stateMutability": "pure",
      "type": "function"
    },
    {
      "inputs": [
        {
          "internalType": "int24",
          "name": "lowerTick",
          "type": "int24"
        },
        {
          "internalType": "int24",
          "name": "upperTick",
          "type": "int24"
        },
        {
          "internalType": "uint16",
          "name": "gridSize",
          "type": "uint16"
        }
      ],
      "name": "testOnGrid",
      "outputs": [
        {
          "internalType": "bool",
          "name": "",
          "type": "bool"
        }
      ],
      "stateMutability": "pure",
      "type": "function"
    },
    {
      "inputs": [
        {
          "internalType": "bool",
          "name": "inBase",
          "type": "bool"
        },
        {
          "internalType": "uint128",
          "name": "unit",
          "type": "uint128"
        },
        {
          "internalType": "uint16",
          "name": "awayTicks",
          "type": "uint16"
        },
        {
          "internalType": "int8[]",
          "name": "",
          "type": "int8[]"
        },
        {
          "internalType": "uint16",
          "name": "tickSize",
          "type": "uint16"
        },
        {
          "internalType": "int24",
          "name": "priceTick",
          "type": "int24"
        },
        {
          "internalType": "int24",
          "name": "bidTick",
          "type": "int24"
        },
        {
          "internalType": "int24",
          "name": "askTick",
          "type": "int24"
        }
      ],
      "name": "testThresh",
      "outputs": [
        {
          "internalType": "uint128",
          "name": "",
          "type": "uint128"
        }
      ],
      "stateMutability": "pure",
      "type": "function"
    },
    {
      "inputs": [
        {
          "internalType": "bool",
          "name": "inBase",
          "type": "bool"
        },
        {
          "internalType": "uint128",
          "name": "unit",
          "type": "uint128"
        },
        {
          "internalType": "uint16",
          "name": "awayTicks",
          "type": "uint16"
        },
        {
          "internalType": "int8[]",
          "name": "",
          "type": "int8[]"
        },
        {
          "internalType": "uint16",
          "name": "tickSize",
          "type": "uint16"
        },
        {
          "internalType": "int24",
          "name": "priceTick",
          "type": "int24"
        },
        {
          "internalType": "int24",
          "name": "bidTick",
          "type": "int24"
        },
        {
          "internalType": "int24",
          "name": "askTick",
          "type": "int24"
        },
        {
          "internalType": "uint128",
          "name": "liq",
          "type": "uint128"
        }
      ],
      "name": "testVerify",
      "outputs": [
        {
          "internalType": "bool",
          "name": "",
          "type": "bool"
        }
      ],
      "stateMutability": "pure",
      "type": "function"
    }
  ],
  "bytecode": {
    "object": "0x6080806040523461001657610cf2908161001c8239f35b600080fdfe604060808152600436101561001357600080fd5b600090813560e01c806376b0f423146102125780637a927ceb146101e15780637b4b56e1146101a45780639b0e70ad14610173578063c88682a3146101285763cf863e841461006157600080fd5b34610124576101203660031901126101245761007b6102b6565b916100846102ca565b61008c6102e0565b9160643567ffffffffffffffff8111610124576100ad903690600401610313565b50506100b76102f1565b926100c0610344565b956100c9610354565b916100d2610364565b9361010435956001600160801b0391828816880361012157506020999694926101189896949261ffff92610104610384565b9415158552168b8401521688820152610c53565b90519015158152f35b80fd5b5080fd5b503461012457606036600319011261012457610142610302565b61014a610374565b90604435938460020b8503610121575060209362ffffff9261016b9261051a565b915191168152f35b503461012457806003193601126101245760209062ffffff61016b610196610302565b61019e610374565b90610675565b503461012457606036600319011261012457600435918260020b830361012157506101186020926101d3610374565b6101db6102e0565b91610c1f565b503461012457806003193601126101245760209062ffffff61016b610204610302565b61020c610374565b9061070b565b5034610124576101003660031901126101245761022d6102b6565b6102356102ca565b9061023e6102e0565b936064359067ffffffffffffffff821161012157509361016b916102686020963690600401610313565b50506102726102f1565b61027a610344565b90610283610354565b9261ffff61028f610364565b95610298610384565b92151583526001600160801b038099168b84015216888201526103ba565b6004359081151582036102c557565b600080fd5b602435906001600160801b03821682036102c557565b6044359061ffff821682036102c557565b6084359061ffff821682036102c557565b6004359061ffff821682036102c557565b9181601f840112156102c55782359167ffffffffffffffff83116102c5576020808501948460051b0101116102c557565b60a435908160020b82036102c557565b60c435908160020b82036102c557565b60e435908160020b82036102c557565b602435908160020b82036102c557565b604051906060820182811067ffffffffffffffff8211176103a457604052565b634e487b7160e01b600052604160045260246000fd5b9392918360020b8360020b12156102c55783836103d792876107ea565b156103e8576103e5936103f7565b90565b505050506001600160801b0390565b61040284848461051a565b9162ffffff831615610462575061041993506104a8565b60011b7001fffffffffffffffffffffffffffffffe6ffffffffffffffffffffffffffffffffe82169116810361044c5790565b634e487b7160e01b600052601160045260246000fd5b9150918061047d856104776104849486610675565b9461070b565b92846104a8565b9161049a6001600160801b0394859384936104a8565b1691160190811161044c5790565b9062ffffff1680156104fe576001600160801b0360208301511691511515926104d081610895565b9160020b9060020b0192627fffff198412627fffff85131761044c576104f86103e594610895565b92610748565b505050600090565b60020b627fffff19811461044c5760000390565b90918060020b8360020b818112156102c557600013908180610594575b1561055a5750509161055461054e6103e594610506565b91610506565b9161051a565b91929181610588575b501561057157505050600090565b61ffff6103e59362ffffff938416931691166105f1565b60009150121538610563565b5060008112610537565b9062ffffff8091169182156105b257160690565b634e487b7160e01b600052601260045260246000fd5b9062ffffff8091169182156105b257160490565b62ffffff918216908216039190821161044c57565b62ffffff80610600838561059e565b16158015610648575b156106175750505050600090565b8061062c61062584866105c8565b93866105c8565b169116141560001461063f575050600090565b6103e5916105dc565b5080610654838661059e565b1615610609565b91909162ffffff8080941691160291821691820361044c57565b908060020b906000918281126106fb57156106f55762ffffff9081169261ffff169160001984018281116106e157826106b0856001936105c8565b16019182116106cd57506103e592916106c89161065b565b6105dc565b634e487b7160e01b81526011600452602490fd5b634e487b7160e01b82526011600452602482fd5b50905090565b506103e592915061020c90610506565b60008260020b1261073c5761073661ffff6103e59362ffffff16921661073181846105c8565b61065b565b906105dc565b61019e6103e592610506565b9190610766579160016104f86107606103e5956107c8565b926107c8565b6001600160801b038381949282809416838216116000146107c05703165b169081156105b25760401b77ffffffffffffffffffffffffffffffff00000000000000001604908116906001600160c01b031681036102c55790565b900316610784565b6001600160801b0380911680156105b257600160801b048181116102c5571690565b929190916001600160801b03602085015116156108435761081a6040916108148561ffff95610869565b94610869565b93015116908162ffffff80921611159283610836575b50505090565b1611159050388080610830565b50505050600090565b600291820b910b0390627fffff198212627fffff83131761044c57565b908160020b8160020b1360001461088c57906108849161084c565b62ffffff1690565b6108849161084c565b60020b620a276d1981121580610c00575b156102c5576000811215610bfa5780600003905b6001821615610be8576001600160881b036ffffcb933bd6fad37aa2d162d1a5940015b169160028116610bcc575b60048116610bb0575b60088116610b94575b60108116610b78575b60208116610b5c575b60408116610b40575b608090818116610b25575b6101008116610b0a575b6102008116610aef575b6104008116610ad4575b6108008116610ab9575b6110008116610a9e575b6120008116610a83575b6140008116610a68575b6180008116610a4d575b620100008116610a32575b620200008116610a18575b6204000081166109fe575b62080000166109e3575b506000126109d4575b6001600160801b039067ffffffffffffffff81166109cb5760ff60005b169060401c011690565b60ff60016109c1565b80156105b257600019046109a4565b6b048a170391f7dc42444e8fa26000929302901c919061099b565b6d2216e584f5fa1ea926041bedfe98909302811c92610991565b926e5d6af8dedb81196699c329225ee60402811c92610986565b926f09aa508b5b7a84e1c677de54f3e99bc902811c9261097b565b926f31be135f97d08fd981231505542fcfa602811c92610970565b926f70d869a156d2a1b890bb3df62baf32f702811c92610966565b926fa9f746462d870fdf8a65dc1f90e061e502811c9261095c565b926fd097f3bdfd2022b8845ad8f792aa582502811c92610952565b926fe7159475a2c29b7443b29c7fa6e889d902811c92610948565b926ff3392b0822b70005940c7a398e4b70f302811c9261093e565b926ff987a7253ac413176f2b074cf7815e5402811c92610934565b926ffcbe86c7900a88aedcffc83b479aa3a402811c9261092a565b926ffe5dee046a99a2a811c461f1969c305302811c92610920565b916fff2ea16466c96a3843ec78b326b528610260801c91610915565b916fff973b41fa98c081472e6896dfb254c00260801c9161090c565b916fffcb9843d60f6159c9db58835c9266440260801c91610903565b916fffe5caca7e10e4e61c3624eaa0941cd00260801c916108fa565b916ffff2e50f5f656932ef12357cf3c7fdcc0260801c916108f1565b916ffff97272373d413259a46990580e213a0260801c916108e8565b6001600160881b03600160801b6108dd565b806108ba565b50620cb14a8113156108a6565b9060020b9081156105b25760020b0790565b909161ffff610c33911660020b8092610c0d565b60020b159182610c4257505090565b610c4c9250610c0d565b60020b1590565b92949190610c62858383610c1f565b15610c7257505050505050600090565b610c86926001600160801b039586956103ba565b16911610610c9357600190565b60405162461bcd60e51b81526020600482015260016024820152601160fa1b6044820152606490fdfea264697066735822122068ad309e1627e501089723b0684c1473c810f707f5e6f87edd050b48c43cbbaf64736f6c63430008130033",
    "linkReferences": {}
  },
  "methodIdentifiers": {
    "testClipAbove(uint16,int24)": "7a927ceb",
    "testClipBelow(uint16,int24)": "9b0e70ad",
    "testClipInside(uint16,int24,int24)": "c88682a3",
    "testOnGrid(int24,int24,uint16)": "7b4b56e1",
    "testThresh(bool,uint128,uint16,int8[],uint16,int24,int24,int24)": "76b0f423",
    "testVerify(bool,uint128,uint16,int8[],uint16,int24,int24,int24,uint128)": "cf863e84"
  },
  "id": 80
}