{
  "abi": [
    {
      "inputs": [],
      "name": "ambientOpen",
      "outputs": [
        {
          "internalType": "bool",
          "name": "isAdd_",
          "type": "bool"
        },
        {
          "internalType": "uint8",
          "name": "rollType_",
          "type": "uint8"
        },
        {
          "internalType": "uint128",
          "name": "liquidity_",
          "type": "uint128"
        }
      ],
      "stateMutability": "view",
      "type": "function"
    },
    {
      "inputs": [],
      "name": "bookend",
      "outputs": [
        {
          "internalType": "int24",
          "name": "lowTick_",
          "type": "int24"
        },
        {
          "internalType": "int24",
          "name": "highTick_",
          "type": "int24"
        },
        {
          "internalType": "bool",
          "name": "isAdd_",
          "type": "bool"
        },
        {
          "internalType": "bool",
          "name": "isTickRel_",
          "type": "bool"
        },
        {
          "internalType": "uint8",
          "name": "rollType_",
          "type": "uint8"
        },
        {
          "internalType": "uint128",
          "name": "liquidity_",
          "type": "uint128"
        }
      ],
      "stateMutability": "view",
      "type": "function"
    },
    {
      "inputs": [],
      "name": "chaining",
      "outputs": [
        {
          "internalType": "bool",
          "name": "rollExit_",
          "type": "bool"
        },
        {
          "internalType": "bool",
          "name": "swapDefer_",
          "type": "bool"
        },
        {
          "internalType": "bool",
          "name": "offsetSurplus_",
          "type": "bool"
        }
      ],
      "stateMutability": "view",
      "type": "function"
    },
    {
      "inputs": [],
      "name": "openTick",
      "outputs": [
        {
          "internalType": "int24",
          "name": "",
          "type": "int24"
        }
      ],
      "stateMutability": "view",
      "type": "function"
    },
    {
      "inputs": [],
      "name": "poolIdx",
      "outputs": [
        {
          "internalType": "uint256",
          "name": "",
          "type": "uint256"
        }
      ],
      "stateMutability": "view",
      "type": "function"
    },
    {
      "inputs": [],
      "name": "priceImprove",
      "outputs": [
        {
          "internalType": "bool",
          "name": "isEnabled_",
          "type": "bool"
        },
        {
          "internalType": "bool",
          "name": "useBaseSide_",
          "type": "bool"
        }
      ],
      "stateMutability": "view",
      "type": "function"
    },
    {
      "inputs": [],
      "name": "settleHop",
      "outputs": [
        {
          "internalType": "address",
          "name": "token_",
          "type": "address"
        },
        {
          "internalType": "int128",
          "name": "limitQty_",
          "type": "int128"
        },
        {
          "internalType": "uint128",
          "name": "dustThresh_",
          "type": "uint128"
        },
        {
          "internalType": "bool",
          "name": "useSurplus_",
          "type": "bool"
        }
      ],
      "stateMutability": "view",
      "type": "function"
    },
    {
      "inputs": [],
      "name": "settleOpen",
      "outputs": [
        {
          "internalType": "address",
          "name": "token_",
          "type": "address"
        },
        {
          "internalType": "int128",
          "name": "limitQty_",
          "type": "int128"
        },
        {
          "internalType": "uint128",
          "name": "dustThresh_",
          "type": "uint128"
        },
        {
          "internalType": "bool",
          "name": "useSurplus_",
          "type": "bool"
        }
      ],
      "stateMutability": "view",
      "type": "function"
    },
    {
      "inputs": [],
      "name": "swap",
      "outputs": [
        {
          "internalType": "bool",
          "name": "isBuy_",
          "type": "bool"
        },
        {
          "internalType": "bool",
          "name": "inBaseQty_",
          "type": "bool"
        },
        {
          "internalType": "uint8",
          "name": "rollType_",
          "type": "uint8"
        },
        {
          "internalType": "uint128",
          "name": "qty_",
          "type": "uint128"
        },
        {
          "internalType": "uint128",
          "name": "limitPrice_",
          "type": "uint128"
        }
      ],
      "stateMutability": "view",
      "type": "function"
    },
    {
      "inputs": [
        {
          "internalType": "uint8",
          "name": "idx",
          "type": "uint8"
        },
        {
          "internalType": "bytes",
          "name": "input",
          "type": "bytes"
        }
      ],
      "name": "testEncodeHop",
      "outputs": [],
      "stateMutability": "nonpayable",
      "type": "function"
    },
    {
      "inputs": [
        {
          "internalType": "bytes",
          "name": "input",
          "type": "bytes"
        }
      ],
      "name": "testEncodeOpen",
      "outputs": [],
      "stateMutability": "nonpayable",
      "type": "function"
    },
    {
      "inputs": [
        {
          "internalType": "uint8",
          "name": "pairPos",
          "type": "uint8"
        },
        {
          "internalType": "uint8",
          "name": "poolPos",
          "type": "uint8"
        },
        {
          "internalType": "uint8",
          "name": "concPos",
          "type": "uint8"
        },
        {
          "internalType": "bytes",
          "name": "input",
          "type": "bytes"
        }
      ],
      "name": "testEncodePassive",
      "outputs": [],
      "stateMutability": "nonpayable",
      "type": "function"
    },
    {
      "inputs": [
        {
          "internalType": "uint8",
          "name": "pairPos",
          "type": "uint8"
        },
        {
          "internalType": "uint8",
          "name": "poolPos",
          "type": "uint8"
        },
        {
          "internalType": "bytes",
          "name": "input",
          "type": "bytes"
        }
      ],
      "name": "testEncodePool",
      "outputs": [],
      "stateMutability": "nonpayable",
      "type": "function"
    }
  ],
  "bytecode": {
    "object": "0x6080806040523461001657610f9c908161001c8239f35b600080fdfe6080604081815260048036101561001557600080fd5b600092833560e01c90816306635bca1461072657508063251610bd146107045780635381707414610532578063673f91e6146105035780637c1b20b0146104c55780638119c0651461046b578063af14da7f14610408578063bc385b9a14610372578063c5a600dd14610330578063c698a8b914610213578063d44a7d18146101c4578063d4958169146101a15763f3ae7fc6146100b257600080fd5b3461019d578160031936011261019d576100ca610770565b6024359167ffffffffffffffff831161019957606060206100fa6100f461016e96369086016107a3565b90610940565b0191602061010e60ff8551961680966107d1565b5101519060018060a01b038251166bffffffffffffffffffffffff60a01b600354161760035560208201516001600160801b03166001600160801b03198884015160801b161790550151151560ff801960055416911617600555516107d1565b510151805115159060ff61ff006020600654930151151560081b1692169061ffff1916171760065580f35b8480fd5b8280fd5b5050346101c057816003193601126101c057602090600c549051908152f35b5080fd5b50823461021057806003193601126102105750600354905460055492516001600160a01b039092168252600f81900b6020830152608090811c604083015260ff90921615156060820152f35b80fd5b503461019d57608036600319011261019d5761022d610770565b610235610785565b6044359160ff831680930361032c576064359167ffffffffffffffff83116103285760ff61028161028b938260206102776100f46102939b8d9a3691016107a3565b01519116906107d1565b51519116906107d1565b5101516107d1565b51805191600b5466ff000000000000602084015160181b65ffffff00000084860151151560301b9362ffffff78ffffffffffffffffffffffffffffffff00000000000000000060a068ff000000000000000067ff0000000000000060608c0151151560381b169960808c0151901b1699015160481b1698169066ffffffffffffff60c81b1617911617911617171717600b5580f35b8680fd5b8580fd5b5050346101c057816003193601126101c057606090600a54906001600160801b0381519260ff81161515845260ff8160081c16602085015260101c1690820152f35b50903461019d57602036600319011261019d5781359167ffffffffffffffff8311610404576100f46103a9916060943691016107a3565b519060018060a01b038251166bffffffffffffffffffffffff60a01b85541617845560208201516001600160801b0316906001600160801b03199083015160801b16176001550151151560ff80196002541691161760025580f35b8380fd5b5050346101c057816003193601126101c05760c0906001600160801b03600b5460ff818451948160020b86528160181c60020b6020870152828260301c16151581870152828260381c16151560608701521c16608084015260481c1660a0820152f35b5050346101c057816003193601126101c05760a0906008546001600160801b0380600954169183519360ff82161515855260ff8260081c161515602086015260ff8260101c169085015260181c1660608301526080820152f35b5050346101c057816003193601126101c0576060906007549060ff81519281811615158452818160081c161515602085015260101c16151590820152f35b8284346102105780600319360112610210575060065460ff8251918181161515835260081c1615156020820152f35b503461019d57606036600319011261019d5761054c610770565b610554610785565b9160443567ffffffffffffffff811161032c57610573913691016107a3565b61057c91610940565b6020019182519160ff169182610591916107d1565b51519060ff1690816105a2916107d1565b5151600c5580828451906105b5916107d1565b5151906105c1916107d1565b51606001519182511515936008549361ff0094856020830151151560081b16968883015197606084015160181b72ffffffffffffffffffffffffffffffff000000169262ff0000809a60101b169260ff16906cffffffffffffffffffffffffff60981b1617171717600855608001516001600160801b03166001600160801b031960095416176009558282825190610658916107d1565b515190610664916107d1565b51602001518051151590600a548887602084015160081b1692015160101b71ffffffffffffffffffffffffffffffff0000169260ff169071ffffffffffffffffffffffffffffffffffff1916171717600a5551906106c1916107d1565b5151906106cd916107d1565b5160800151918251151593600754926020850151151560081b16930151151560101b169260ff169062ffffff191617171760075580f35b5050346101c057816003193601126101c057602090600d5460020b9051908152f35b8490346101c057816003193601126101c05790546001546002546001600160a01b039092168352600f81900b6020840152608090811c604084015260ff9091161515606083015290f35b6004359060ff8216820361078057565b600080fd5b6024359060ff8216820361078057565b359060ff8216820361078057565b9181601f840112156107805782359167ffffffffffffffff8311610780576020838186019501011161078057565b80518210156107e55760209160051b010190565b634e487b7160e01b600052603260045260246000fd5b604051906040820182811067ffffffffffffffff82111761081b57604052565b634e487b7160e01b600052604160045260246000fd5b604051906060820182811067ffffffffffffffff82111761081b57604052565b6040519060a0820182811067ffffffffffffffff82111761081b57604052565b6040519190601f01601f1916820167ffffffffffffffff81118382101761081b57604052565b604051906080820182811067ffffffffffffffff82111761081b5760405260006060838281528260208201528260408201520152565b90939293848311610780578411610780578101920390565b35906001600160a01b038216820361078057565b359081600f0b820361078057565b35906001600160801b038216820361078057565b3590811515820361078057565b67ffffffffffffffff811161081b5760051b60200190565b919061094a6107fb565b92610953610897565b90818552606060208601528460008460c011610210575061097382610795565b90610980602084016108e5565b9361098d604085016108f9565b9461099a60608601610907565b956001600160801b036109af6080880161091b565b976109bc60a08901610795565b9815156060860152166040840152600f0b60208301526001600160a01b0316905260c09160ff1660001901610780576109ff6109fa60ff8616610928565b610871565b60ff8516808252601f1990610a1390610928565b0160005b818110610efd57505060208201526000915b60ff85168310610a3b57505050505050565b610a498360208401516107d1565b516000602083018311610e8257602090610a67828501858b8a6108cd565b90809391810103126102105750610a7f602091610795565b920191610a916109fa60ff8316610928565b60ff8216808252601f1990610aa590610928565b0160005b818110610e9657505082526000905b60ff81168210610b9a57505060c082018211610b845760c0610ade818401848a896108cd565b90809291810103126107805760ff9260019282610afc60c0946108e5565b906001600160801b03610b11602083016108f9565b91610b1e60408201610907565b90610b2b6060820161091b565b90610b4460a0610b3d6080840161091b565b920161091b565b906040602089015198015191151560208301521515905215156060860152166040840152600f0b6020830152848060a01b03169052019301929050610a29565b634e487b7160e01b600052601160045260246000fd5b9092610ba78484516107d1565b5190600060a082018211610e825760a0929190610bc8848301838e8d6108cd565b9080959181010312610210575060a090610be46020850161091b565b93610bf160408201610795565b94610bfe60608301610907565b9060ff610c0d60808501610795565b976001600160801b03602089015194166040850152166020830152151590523583520191610c406109fa60ff8316610928565b60ff8216808252601f1990610c5490610928565b0160005b818110610e2e57505060408301526000905b60ff81168210610d7157505060a0820191828111610b845780610c918460a0938e8d6108cd565b90809391810103126107805781610caa6101009361091b565b610cb66020830161091b565b60ff610cc460408501610795565b6001600160801b03610ce46080610cdd60608901610907565b9701610907565b958160608b01519716608088015216606086015216604084015215156020830152151590520190818311610b8457610d20826060948d8c6108cd565b90809491810103126107805782610d3860019461091b565b906080610d536040610d4c6020850161091b565b930161091b565b93015192151560408401521515602083015215159052930190610ab8565b9092610d818460408501516107d1565b5160c0820190818311610b8457610d9d828f9460c0958f6108cd565b90809491810103126107805782610db5600194610f58565b90610dc260208201610f58565b90610dcf6040820161091b565b9060ff610dde6060830161091b565b916001600160801b03610dff60a0610df860808501610795565b9301610907565b1660a08801521660808601521515604085015215156060840152600290810b60208401520b9052930190610c6a565b6040519060c082019180831067ffffffffffffffff84111761081b5760209260405260008152600083820152600060408201526000606082015260006080820152600060a082015282828601015201610c58565b634e487b7160e01b81526011600452602490fd5b602090610ea1610851565b60008152610ead610f3b565b8382015260606040820152610ec0610851565b600081526000848201526000604082015260006060820152600060808201526060820152610eec610f3b565b608082015282828601015201610aa9565b602090610f08610831565b60608152610f14610897565b83820152610f206107fb565b60008152600084820152604082015282828601015201610a17565b610f43610831565b90600082526000602083015260006040830152565b35908160020b82036107805756fea264697066735822122051cf26d5d4f5cdc3716218e08fdb387957fa6ed226130bcfcb9763cf7451c6a164736f6c63430008130033",
    "linkReferences": {}
  },
  "methodIdentifiers": {
    "ambientOpen()": "c5a600dd",
    "bookend()": "af14da7f",
    "chaining()": "7c1b20b0",
    "openTick()": "251610bd",
    "poolIdx()": "d4958169",
    "priceImprove()": "673f91e6",
    "settleHop()": "d44a7d18",
    "settleOpen()": "06635bca",
    "swap()": "8119c065",
    "testEncodeHop(uint8,bytes)": "f3ae7fc6",
    "testEncodeOpen(bytes)": "bc385b9a",
    "testEncodePassive(uint8,uint8,uint8,bytes)": "c698a8b9",
    "testEncodePool(uint8,uint8,bytes)": "53817074"
  },
  "id": 73
}