{
  "abi": [
    {
      "anonymous": false,
      "inputs": [
        {
          "indexed": true,
          "internalType": "bytes32",
          "name": "pool",
          "type": "bytes32"
        },
        {
          "indexed": true,
          "internalType": "int24",
          "name": "tick",
          "type": "int24"
        },
        {
          "indexed": false,
          "internalType": "bool",
          "name": "isBid",
          "type": "bool"
        },
        {
          "indexed": false,
          "internalType": "uint32",
          "name": "pivotTime",
          "type": "uint32"
        },
        {
          "indexed": false,
          "internalType": "uint64",
          "name": "feeMileage",
          "type": "uint64"
        },
        {
          "indexed": false,
          "internalType": "uint160",
          "name": "commitEntropy",
          "type": "uint160"
        }
      ],
      "name": "CrocKnockoutCross",
      "type": "event"
    },
    {
      "inputs": [
        {
          "internalType": "address",
          "name": "",
          "type": "address"
        },
        {
          "internalType": "uint16",
          "name": "slot",
          "type": "uint16"
        }
      ],
      "name": "acceptCrocProxyRole",
      "outputs": [
        {
          "internalType": "bool",
          "name": "",
          "type": "bool"
        }
      ],
      "stateMutability": "pure",
      "type": "function"
    },
    {
      "inputs": [
        {
          "internalType": "bytes32",
          "name": "pool",
          "type": "bytes32"
        },
        {
          "internalType": "int24",
          "name": "tick",
          "type": "int24"
        },
        {
          "internalType": "bool",
          "name": "isBuy",
          "type": "bool"
        },
        {
          "internalType": "uint64",
          "name": "feeGlobal",
          "type": "uint64"
        }
      ],
      "name": "crossCurveFlag",
      "outputs": [
        {
          "internalType": "int128",
          "name": "",
          "type": "int128"
        }
      ],
      "stateMutability": "payable",
      "type": "function"
    }
  ],
  "bytecode": {
    "object": "0x6080806040523461002b5762010011805460ff60e01b1916600160e71b1790556106d990816100318239f35b600080fdfe6080604090808252600436101561001557600080fd5b600090813560e01c9081633c05c6211461007c575063ac54c0fc1461003957600080fd5b346100795781600319360112610079576004356001600160a01b03811603610079576024359061ffff82168092036100795750610dac6020925191148152f35b80fd5b8284608036600319011261037857600435602435908160020b91828103610374576044358015918215809203610370576064359067ffffffffffffffff92838316830361036c576020998a810190878252868a82015260609589878301528682526080820190828210908211176103585762010004999897947f78d4bacd92cc15fe8ee27d50b9be043e663f43f413418e9b478c034765931ec897948c8f938f9096829660809b9884525190208152620100038552209b8c93528d8a6101d76001600160601b0361017a888520978c8c6101568a88610445565b9115610323575080546bfffffffffffffffffffffffe8116908519161790556103d0565b9561ffff898801511660020b8c60001461031c57600019820160020b965b8d156103105782965b50156103065750955b5116976101c36101bb8a86866104c0565b998785610527565b94866101d18383888861059e565b9461059e565b03956102f6575b506102e6575b506101ee8a6103d0565b928d6101f8610409565b94845180956102068261037c565b61025f8161025a88549a8c6bffffffff000000000000000060018060a01b039d8e811680995263ffffffff9d8e8260a01c168c8201528160c01c9687910152821c16916001600160601b0319911b16610438565b610438565b908051918583019384528183015281526102788161037c565b51902091015160a01b63ffffffff60a01b1690861c1760c09190911b6001600160c01b03191617908190556102ab610409565b918b519586528160a01c168d86015260c01c8a8501521690820152a3805471ffffffffffffffffffffffffffffffffffff1916905551908152f35b6102f09089610487565b8d6101e4565b610300908b610487565b8f6101de565b0160020b956101aa565b81830360020b966101a1565b8196610198565b81546bffffffffffffffffffffffff60601b1981166b7fffffffffffffffffffffff60611b9190921c60601b161790556103d0565b634e487b7160e01b8c52604160045260248cfd5b8880fd5b8680fd5b8480fd5b5080fd5b6060810190811067ffffffffffffffff82111761039857604052565b634e487b7160e01b600052604160045260246000fd5b90601f8019910116810190811067ffffffffffffffff82111761039857604052565b906040516103dd8161037c565b604061ffff8294546001600160601b038116845263ffffffff8160601c16602085015260801c16910152565b600019430143811161042257406001600160a01b031690565b634e487b7160e01b600052601160045260246000fd5b9190820180921161042257565b604080516020810192835260e89390931b908301529061047281604381015b03601f1981018352826103ae565b51902060005262010002602052604060002090565b604080516020810192835260e89390931b90830152906104aa8160438101610464565b5190206000526201000260205260006040812055565b916104cb8284610445565b9081546001600160601b038092168282160382811161042257821680916001600160601b03191617809355159182610519575b505061050b575050600090565b610514916105f8565b600190565b60601c1615905038806104fe565b916105328284610445565b906001600160601b03908180845460601c16911690038181116104225782546bffffffffffffffffffffffff60601b1916606082901b6bffffffffffffffffffffffff60601b16178355811615918261059257505061050b575050600090565b541615905038806104fe565b816105ac9194939294610445565b92600091600290810b91900b136105c65750505460c01c90565b90915460c01c67ffffffffffffffff809316039182116105e4575090565b634e487b7160e01b81526011600452602490fd5b9060020b908160081d916040805160208101908482528560f01b83820152602281526106238161037c565b51902060005262010007602052806000209061010091600160ff848607161b1981541680915515610656575b5050505050565b60019360ff938251906020820192835260101d60f81b838201526021815261067d8161037c565b5190206000526201000660205260002093830b07161b198154169055388080808061064f56fea26469706673582212208334fa65217fc1b03905ef93fdb5543618fbf2e92c588d51fa63280754f8cb4364736f6c63430008130033",
    "linkReferences": {}
  },
  "methodIdentifiers": {
    "acceptCrocProxyRole(address,uint16)": "ac54c0fc",
    "crossCurveFlag(bytes32,int24,bool,uint64)": "3c05c621"
  },
  "id": 5
}