{
  "abi": [
    {
      "anonymous": false,
      "inputs": [
        {
          "indexed": true,
          "internalType": "bytes32",
          "name": "pool",
          "type": "bytes32"
        },
        {
          "indexed": true,
          "internalType": "int24",
          "name": "tick",
          "type": "int24"
        },
        {
          "indexed": false,
          "internalType": "bool",
          "name": "isBid",
          "type": "bool"
        },
        {
          "indexed": false,
          "internalType": "uint32",
          "name": "pivotTime",
          "type": "uint32"
        },
        {
          "indexed": false,
          "internalType": "uint64",
          "name": "feeMileage",
          "type": "uint64"
        },
        {
          "indexed": false,
          "internalType": "uint160",
          "name": "commitEntropy",
          "type": "uint160"
        }
      ],
      "name": "CrocKnockoutCross",
      "type": "event"
    },
    {
      "inputs": [
        {
          "internalType": "address",
          "name": "",
          "type": "address"
        },
        {
          "internalType": "uint16",
          "name": "slot",
          "type": "uint16"
        }
      ],
      "name": "acceptCrocProxyRole",
      "outputs": [
        {
          "internalType": "bool",
          "name": "",
          "type": "bool"
        }
      ],
      "stateMutability": "pure",
      "type": "function"
    },
    {
      "inputs": [
        {
          "internalType": "bytes",
          "name": "cmd",
          "type": "bytes"
        }
      ],
      "name": "userCmd",
      "outputs": [
        {
          "internalType": "int128",
          "name": "baseFlow",
          "type": "int128"
        },
        {
          "internalType": "int128",
          "name": "quoteFlow",
          "type": "int128"
        }
      ],
      "stateMutability": "payable",
      "type": "function"
    }
  ],
  "bytecode": {
    "object": "0x6080806040523461002b5762010011805460ff60e01b1916600160e71b1790556131d390816100318239f35b600080fdfe608080604052600436101561001357600080fd5b60003560e01c908163ac54c0fc1461187c575063f96dc7881461003557600080fd5b60203660031901126109c9576001600160401b03600435116109c9573660236004350112156109c957600435600401356001600160401b0381116109c9576004350160248101903682116109c957610120906004359003126109c95761009f6024600435016118b9565b906100ae6044600435016118c7565b906100bd6064600435016118c7565b916100cc60a4600435016118db565b6100da60c4600435016118db565b60e4600435013580151581036109c9576100f9610104600435016118b9565b9661012460043501356001600160401b0381116109c95786604382600435010112156109c957610130602482600435010135611976565b9661013e6040519889611955565b60043582016024810135808a5201604401116109c9576020602482816000946004350101356044826004350101848c01376004350101358801015261018161227d565b5061018a61227d565b506001600160a01b0387811690861610156109c957604080516001600160a01b0387811660208301908152908a16928201929092526004356084013560608201526101e281608081015b03601f198101835282611955565b519020928360005262010009602052600160ff60406000208280604051926102098461191f565b54848116845261ffff8160081c166020850152848160181c16604085015261ffff8160201c166060850152848160301c166080850152848160381c1660a0850152848160401c1660c085015260401c1614600014611875576084600435013560601c5b60405197610279896118e9565b8289526020890152838060a01b0316604088015251161161184a57600160ff8551511603611820576020840151600060806040516102b681611904565b82815282602082015282604082015282606082015201526000526201000f602052604060002094604051956102ea87611904565b60018154916001600160801b03831692838a5260801c60208a015201546001600160801b03811660408901526001600160401b038160801c16606089015260c01c6080880152156109c95760405193610342856118e9565b1515845260020b602084015260020b6040830152605b60ff821614600014610dec57506040858051810103126109c95761038a604061038360208801611991565b96016119a5565b6103b06103ab6103a36001600160801b03875116611ef3565b928385611aec565b6119b2565b6103dd6001600160801b03855116602084015160020b604085015160020b906103e3865115948592611b7c565b92611b7c565b926001600160801b0383168111610dbd5750156109c9575b6001600160801b0389166004811015610d9157509061042991610800600160801b03936000905b1590611a2f565b1693602083015160020b604084015160020b8760018060a01b0360408801511680610cdf575b5050505060208401519460a0855101519061046a8388612cd5565b6001600160401b0360808401511691610482826126c1565b6104998751151561049289612904565b908b6128dc565b9586600052620100036020526040600020968754936001600160601b03851615600014610c35576104c86128cb565b91600052620100046020526040600020805463ffffffff808516908260a01c1614610c0b576001600160a01b03811615610bf5575b505060038160041c1615159081610b39575b81610b1c575b5015610af2578a6001600160601b036001600160401b036106d39d61060b8a878f61073b9f9d6106289a6106d99f926105fe8e858e61060497549061ffff60801b61055f8761293c565b60801b16918f8516906001600160901b031916179063ffffffff60601b9060601b16171790555b6105f86105eb6040602086015160020b95015160020b8c6105ab89839f8a8a916129a3565b6105b789838a846129a3565b6105c1878261296b565b80546001600160601b036105d788828416612a79565b16906001600160601b03191617905561296b565b918d835460601c16612a79565b9061275b565b8a612aab565b9387612aab565b0316951615610a88575b6000546001600160a01b0316908a6127a9565b600052620100056020526040600020916001600160601b0361066b84549361066583861680956001600160401b038860601c169086851690612819565b9361278e565b1663ffffffff60a01b61067c6128cb565b60a01b16926001600160401b0360c01b1617906001600160401b0360601b9060601b16171790556106c8602086015160020b604087015160020b90836001600160801b03875116612b4d565b988991949293611b61565b85612adc565b6001600160801b03811615801590610a81575b15610a78576106fa906119fc565b955b6001600160801b0382161590811591610a70575b5015610a5f5761073361072d6107276020936119fc565b97611b61565b96611b61565b940151612187565b511582916107498196611b61565b9382159081610a4f575b5015610a2157505050915b91925b6000546001600160a01b03908116929081166109f85750600185161515916000549260ff8460a81c166109ce576001600160801b033416933485036109c95760ff60a81b1916600160a81b176000556040966108839486926002929190600f8a900b80156109bc5760008113156108ee57506001600160801b038a1690156108de576000908b51602081019088825260008e8201528d8152610802816118e9565b519020600052620100106020528b600020908b82546001600160801b03808216921682116000146108c25750506001600160801b036108458354928284166119e3565b16906001600160801b0319161790555b6001600160801b03811615610895579061086f9186612529565b161515926001600160a01b031691806122ce565b825191600f0b8252600f0b6020820152f35b50806108a2575b5061086f565b60008080806108bc94895af16108b66124c8565b506124f8565b3861089c565b6001600160801b0319169092556108d992506119e3565b610855565b906108e99186612529565b61086f565b6000136108fd575b505061086f565b6109068a6124a7565b6001600160801b03169015610991578a51602081019087825260008d8201528c8152610931816118e9565b519020600052620100106020528a600020906001600160801b03610959835492828416611a14565b16906001600160801b03191617905580610977575b505b38806108f6565b600080808061098b94895af16108b66124c8565b3861096e565b600080806001600160801b036109ab6109b7968396611a14565b16895af16108b66124c8565b610970565b5050806108a2575061086f565b600080fd5b60405162461bcd60e51b8152602060048201526002602482015261445360f01b6044820152606490fd5b604095610883939185916002916108e990600183161515906001600160a01b03168a87806122ce565b9194929181610a3f575b50610a37575b5061075e565b905038610a31565b9050600f0b81600f0b1338610a2b565b9050600f0b84600f0b1338610753565b50602061073361072d600097611b61565b905038610710565b506000956106fc565b50866106ec565b895115610ac257610aa060208b015160020b8261296b565b600181546001600160601b038116906001600160601b03191617179055610615565b610aed610ad660408c015160020b8361296b565b60016001600160601b03825460601c16179061275b565b610615565b60405162461bcd60e51b815260206004820152600260248201526125ab60f11b6044820152606490fd5b610b339150600360029160041c161015838b611aec565b38610515565b9050610b5460408b015160020b60208c015160020b9061291f565b60408b015160008160020b13600014610bc05762ffffff16905b6040831615918215610ba2575b5062ffffff806001600f86161b169116149081610b9a575b509061050f565b905038610b93565b62ffffff908116600f851681811c8316901b90911614915038610b7b565b627fffff198160020b14610bdf5760020b60000362ffffff1690610b6e565b634e487b7160e01b600052601160045260246000fd5b6001600160a01b031916600117905538806104fd565b60405162461bcd60e51b815260206004820152600260248201526112d560f21b6044820152606490fd5b50506001600160601b03610c4e8382869d9a9d1661278e565b166001600160601b0319841617809a5563ffffffff8a60601c169961ffff80610c768b61293c565b169160801c1603610cb5576106d399876001600160601b036001600160401b0361073b9a61060b8a878f6106d99d6106289a610604926105fe8e610586565b60405162461bcd60e51b815260206004820152600260248201526125a960f11b6044820152606490fd5b60209260008d610d258c60018060a01b0384541694604051998a9889978896632dd148f160e01b885260018060a01b03169160018060a01b031690339060048901612200565b03925af18015610d8557600090610d4a575b610d41915061224d565b3880878161044f565b506020813d602011610d7d575b81610d6460209383611955565b810103126109c957610d78610d41916119a5565b610d37565b3d9150610d57565b6040513d6000823e3d90fd5b91906001600160801b03600319840111610bdf57610800600160801b0393610429936003190190610422565b6001600160801b0384168110610dd757506109c9576103fb565b919290610de55750906103fb565b91506103fb565b90949192919060ff8116605c036113cc57506060818051810103126109c95784610e1860208301611991565b610e306060610e29604086016119a5565b94016119a5565b92610e526103ab610e4a6001600160801b03885116611ef3565b958686611aec565b1561129d57915b602082015160020b86604084015160020b60018060a01b0360408901511690816111ef575b5050505060208501519060808501516001600160401b031690610ea0856126c1565b98899281511515610eb083612904565b610eba91876128dc565b6000526201000360205283856040600020928354936001600160601b0385166001600160601b0385161115610eee90612e80565b86856001600160601b0381166001600160601b03871614938681866000149b63ffffffff9b6040986001600160401b0398610faa9f97610f7d96610f85996111c7575050805471ffffffffffffffffffffffffffffffffffff191690555b61115a575b610f77610f6f602083015160020b9a8b93015160020b9c838d612f46565b9f8c8c612fad565b99612aab565b92878d612aab565b03169661114a575b5061113a575b5060601c1660018060a01b036000541684866127a9565b60005262010005602052604060002090610fd38254916001600160401b038360601c1690612eca565b9863ffffffff600a81610ff2818660a01c16610fed6128cb565b612cbf565b16041660ff8111156110e3575b5061109d998796876110a261108e60209961106d6110b69d6110ae9b61109d9b8b6110a79b6001600160601b036107279e16611046816001600160601b0384161115612e80565b6001600160601b03821681036110bd57505081546001600160c01b03191690915550612cd5565b60408b82015160020b91015160020b90856001600160801b03865116612b4d565b6106d361109d87959395611b61565b6124a7565b612ffe565b9990611b61565b930151612187565b9192610761565b6001600160601b03916110cf91612eb1565b16906001600160601b031916179055612cd5565b84600098979896939296526201000960205260ff60406000205460301c161161111157909338969596610fff565b60405162461bcd60e51b81526020600482015260016024820152602560f91b6044820152606490fd5b6111449086612f0d565b38610f93565b6111549088612f0d565b38610f8d565b80511561119657611172602082015160020b8b61296b565b80546bfffffffffffffffffffffffe8116906001600160601b031916179055610f51565b6111c26111a98a83015160020b8c61296b565b6bfffffffffffffffffffffffe815460601c169061275b565b610f51565b6111db6001600160601b0391828416612eb1565b16906001600160601b031916179055610f4c565b602093955060008c6112378960018060a01b03845416946040519a8b9889978896632a179e9b60e01b885260018060a01b03169160018060a01b031690339060048901612200565b03925af18015610d8557879260009161125e575b506112559061224d565b38868180610e7e565b9250506020823d602011611295575b8161127a60209383611955565b810103126109c95761125561128f88936119a5565b9061124b565b3d915061126d565b90506001600160801b03835116602087015160020b604088015160020b906112ca6103dd8a511592611b7c565b926001600160801b0383168111611393575080156109c957611317935b6ffffffffffffffffffffffffffffffffb6001600160801b03821611156113845750156001600160801b03611a2f565b610800600160801b038082161461135457610800600160801b0360016e1fffffffffffffffffffffffffffff8893600b1c1601600b1b1691610e59565b60405162461bcd60e51b81526020600482015260086024820152676f766572666c6f7760c01b6044820152606490fd5b61138d906119fc565b90610422565b6001600160801b03841681106113b25750806109c957611317936112e7565b6113179493826113c35750926112e7565b939250916112e7565b9196959492909160ff8116605d036116e55750602001519181518201916040818403126109c9576020810151906001600160a01b03821682036109c9576040810151906001600160401b0382116109c95760208501603f8383010112156109c95760208282010151916001600160401b0383116116cf578260051b90604051936114596020840186611955565b8452602084019160208398016040828487010101116109c95783820160400192915b604082828701010184106116ba5750505050506114a58351151561149e85612904565b90876128dc565b60005262010004602052604060002090604051916114c2836118e9565b549460018060a01b0386168352602083019363ffffffff8760a01c168552604084019660c01c87528251156000146115c8575050505061109d61072d61158b6110b6958b9561109d9a9b9c6001600160401b0363ffffffff6115929851169351165b60008054909461153e916001600160a01b03168d866127a9565b6000526201000560205260406000208054916001600160401b038116611598575b506001600160c01b031982169055600a1b6108006001606a1b031691611585908361315a565b90612ffe565b9890611b61565b92612187565b6108006001606a1b03919550916115bf611585936001600160401b038360601c1690612a92565b9591509161155f565b9198969350919896939450986000995b88518b10156116205760019060208c60051b8b010151604051906020820192848060a01b03168352604082015260408152611612816118e9565b51902060601c9a01996115d8565b9851969950949793969295919490939092916001600160a01b0390811691160361169057511561167a5761159261109d61072d61158b61109d986110b6965190866001600160401b0363ffffffff8460401c169316611524565b634e487b7160e01b600052603260045260246000fd5b60405162461bcd60e51b815260206004820152600260248201526104b560f41b6044820152606490fd5b6020806040948651815201940193925061147b565b634e487b7160e01b600052604160045260246000fd5b605e91929596975060ff16146000146117e95760200151926020818051810103126109c957602001519063ffffffff821682036109c9576117338151151561172c83612904565b90866128dc565b6000526201000460205263ffffffff821663ffffffff60406000205460a01c16106117bf576117b96117b261109d9261177f6110b69561109d9860018060a01b036000541690846127a9565b600052620100056020526108006001606a1b0360406000208054906001600160401b0360c01b82169055600a1b1661315a565b9590611b61565b93611b61565b60405162461bcd60e51b81526020600482015260026024820152614b4160f01b6044820152606490fd5b60405162461bcd60e51b815260206004820152600f60248201526e125b9d985b1a590818dbdb5b585b99608a1b6044820152606490fd5b60405162461bcd60e51b8152602060048201526002602482015261504960f01b6044820152606490fd5b60405162461bcd60e51b815260206004820152600360248201526249505360e81b6044820152606490fd5b600061026c565b346109c95760403660031901126109c9576004356001600160a01b038116036109c9576024359061ffff82168092036109c9576007602092148152f35b359060ff821682036109c957565b35906001600160a01b03821682036109c957565b35908160020b82036109c957565b606081019081106001600160401b038211176116cf57604052565b60a081019081106001600160401b038211176116cf57604052565b60e081019081106001600160401b038211176116cf57604052565b608081019081106001600160401b038211176116cf57604052565b90601f801991011681019081106001600160401b038211176116cf57604052565b6001600160401b0381116116cf57601f01601f191660200190565b51906001600160801b03821682036109c957565b519081151582036109c957565b156119b957565b60405162461bcd60e51b815260206004820152600260248201526112d360f21b6044820152606490fd5b6001600160801b039182169082160391908211610bdf57565b9060046001600160801b0380931601918211610bdf57565b9190916001600160801b0380809416911601918211610bdf57565b919290611a56576001611a4d611a47611a5395611aca565b92611aca565b92611a2f565b90565b611a5392611a7c92916001600160801b03918282168382161115611a8157031690611a86565b611b44565b900316905b906001600160801b0316908115611aaa5760401b600160401b600160c01b03160490565b634e487b7160e01b600052601260045260246000fd5b8115611aaa570490565b6001600160801b038091168015611aaa57600160801b048181116109c9571690565b80519192909115611b1d5715611b10576020015160020b905b60020b9060020b1290565b6040015160020b90611b05565b15611b37576040015160020b905b60020b9060020b121590565b6020015160020b90611b2b565b6001600160801b03811691906001600160c01b031682036109c957565b6001600160801b03166001607f1b8110156109c957600f0b90565b60020b620a276d1981121580611ee6575b156109c9576000811215611ee05780600003905b6001821615611ece576001600160881b036ffffcb933bd6fad37aa2d162d1a5940015b169160028116611eb2575b60048116611e96575b60088116611e7a575b60108116611e5e575b60208116611e42575b60408116611e26575b608090818116611e0b575b6101008116611df0575b6102008116611dd5575b6104008116611dba575b6108008116611d9f575b6110008116611d84575b6120008116611d69575b6140008116611d4e575b6180008116611d33575b620100008116611d18575b620200008116611cfe575b620400008116611ce4575b6208000016611cc9575b50600012611cba575b6001600160801b03906001600160401b038116611cb15760ff60005b169060401c011690565b60ff6001611ca7565b8015611aaa5760001904611c8b565b6b048a170391f7dc42444e8fa26000929302901c9190611c82565b6d2216e584f5fa1ea926041bedfe98909302811c92611c78565b926e5d6af8dedb81196699c329225ee60402811c92611c6d565b926f09aa508b5b7a84e1c677de54f3e99bc902811c92611c62565b926f31be135f97d08fd981231505542fcfa602811c92611c57565b926f70d869a156d2a1b890bb3df62baf32f702811c92611c4d565b926fa9f746462d870fdf8a65dc1f90e061e502811c92611c43565b926fd097f3bdfd2022b8845ad8f792aa582502811c92611c39565b926fe7159475a2c29b7443b29c7fa6e889d902811c92611c2f565b926ff3392b0822b70005940c7a398e4b70f302811c92611c25565b926ff987a7253ac413176f2b074cf7815e5402811c92611c1b565b926ffcbe86c7900a88aedcffc83b479aa3a402811c92611c11565b926ffe5dee046a99a2a811c461f1969c305302811c92611c07565b916fff2ea16466c96a3843ec78b326b528610260801c91611bfc565b916fff973b41fa98c081472e6896dfb254c00260801c91611bf3565b916fffcb9843d60f6159c9db58835c9266440260801c91611bea565b916fffe5caca7e10e4e61c3624eaa0941cd00260801c91611be1565b916ffff2e50f5f656932ef12357cf3c7fdcc0260801c91611bd8565b916ffff97272373d413259a46990580e213a0260801c91611bcf565b6001600160881b03600160801b611bc4565b80611ba1565b50620cb14a811315611b8d565b6001600160801b0380821691620100028310158061216e575b156109c957600160401b600160c01b039060401b168082811160071b9181831c926001600160401b03841160061b93841c9363ffffffff851160051b94851c9461ffff861160041b95861c60ff9687821160031b91821c92600f841160021b93841c94600160038711811b96871c1196171717171717179160808310156000146121625750607e1982011c5b8002607f928392828493841c81841c1c800280851c81851c1c800280861c81861c1c800280871c81871c1c80029081881c82881c1c80029283891c84891c1c800294858a1c868a1c1c800296878b1c888b1c1c800298898c1c8a8c1c1c80029a8b8d1c8c821c1c8002809d1c8d821c1c8002809e81901c90821c1c80029e8f80911c911c1c800260cd1c6604000000000000169d60cc1c6608000000000000169c60cb1c6610000000000000169b60ca1c6620000000000000169a60c91c6640000000000000169960c81c6680000000000000169860c71c670100000000000000169760c61c670200000000000000169660c51c670400000000000000169560c41c670800000000000000169460c31c671000000000000000169360c21c672000000000000000169260c11c674000000000000000169160c01c6780000000000000001690607f190160401b1717171717171717171717171717693627a301d71055774c8502906f028f6481ab7f045a5af012a19d003aa919820160801d60020b916fdb2df09e81959a81455e260799a0632f0160801d60020b9260009184841460001461214857505050905090565b61215185611b7c565b1611905061215d575090565b905090565b905081607f031b611f98565b506f0ffff5433e2b3d8211706e6102aa94728310611f0c565b60009081526201000f60209081526040918290208351918401516001600160801b039283166001600160801b0319608092831b16178255928401516060850151948401516001600160c01b031960c09190911b16921667ffffffffffffffff60801b9490931b939093169190911717600190910155565b565b6001600160a01b0391821681529181166020830152918216604082015291166060820152600291820b608082015291900b60a08201526001600160801b039190911660c082015260e00190565b1561225457565b60405162461bcd60e51b81526020600482015260016024820152602d60f91b6044820152606490fd5b6040519061228a826118e9565b8160408051916122998361191f565b60009283815283602082015283838201528360608201528360808201528360a08201528360c082015281528260208201520152565b936001600160a01b03929091848416156109c957600093600f83900b85811315612394575050506001600160801b039181831690600014612387576040846123168789612692565b815262010010602052209182548480821692168211600014612368575050826123438354928284166119e3565b16906001600160801b0319161790555b811615612363576121fe9261258f565b505050565b6001600160801b031916909255919250612381916119e3565b90612353565b925050506121fe9261258f565b859193929750959395126123ab575b505050505050565b6123b4906124a7565b931561240757506123c89060409394612692565b81526201001060205220908154906123ec6001600160801b03918216828416611a14565b16906001600160801b0319161790555b3880808080806123a3565b938280956001600160801b03829660405192602084019563a9059cbb60e01b8752166024840152166044820152604481526124418161193a565b51925af161244d6124c8565b9181612464575b5061245f91506124f8565b6123fc565b825180159250821561247e575b505061245f915038612454565b60209192508390810103126124a4575061249d602061245f92016119a5565b3880612471565b80fd5b600f0b6f7fffffffffffffffffffffffffffffff198114610bdf5760000390565b3d156124f3573d906124d982611976565b916124e76040519384611955565b82523d6000602084013e565b606090565b156124ff57565b60405162461bcd60e51b81526020600482015260026024820152612a2360f11b6044820152606490fd5b916001600160801b03918281168383161061256557612547916119e3565b1680612551575050565b6000808080936121fe955af16108b66124c8565b60405162461bcd60e51b8152602060048201526002602482015261454360f01b6044820152606490fd5b916001600160a01b0381166125ee57506001600160801b0380911690816125655760009182038181116125da571691826125c857505050565b81806121fe9481935af16108b66124c8565b634e487b7160e01b83526011600452602483fd5b6040516323b872dd60e01b602082019081526001600160a01b0390941660248201523060448201526001600160801b0390921660648301526000928392839061263a81608481016101d4565b51925af16126466124c8565b9080612657575b6121fe91506124f8565b508051801590811561266f575b506121fe915061264d565b602091508290810103126109c95761268c60206121fe92016119a5565b38612664565b604080516001600160a01b0392831660208201908152939092168282015281526126bb816118e9565b51902090565b80600a1c9060018216159081612735575b5080612714575b156126ea576001600160601b031690565b60405162461bcd60e51b8152602060048201526002602482015261119160f21b6044820152606490fd5b506001600160601b036e3fffffffffffffffffffffffffffff8216106126d9565b90506ffffffffffffffffffffffffffffffc006001600160801b038216911614386126d2565b80546bffffffffffffffffffffffff60601b191660609290921b6bffffffffffffffffffffffff60601b16919091179055565b9190916001600160601b0380809416911601918211610bdf57565b9263ffffffff919380511515906040602082015191015191604051956020870197885260018060a01b03166040870152606086015260020b608085015260020b60a08401521660c082015260c081526126bb8161191f565b9060016001600160401b0380931601918211610bdf57565b929190916001600160801b038082161561289d57831615612896576001600160401b03938483168582161461288e5761287a6128748694846128688161286e612880978b6128688c9b82611a14565b916128a4565b99611a14565b94612801565b93612801565b16911601908111610bdf5790565b935050505090565b5091505090565b5050505090565b6001600160401b03926128c7926001600160801b03918216928516911602611ac0565b1690565b63ffffffff804211611a5357421690565b9160405191602083019384521515604083015260020b6060820152606081526126bb8161193a565b805115612915576020015160020b90565b6040015160020b90565b600291820b910b0390627fffff198212627fffff831317610bdf57565b612956906020604082015191015160020b9060020b61291f565b61ffff908162ffffff821610156109c9571690565b604080516020810192835260e89390931b908301529061298e81604381016101d4565b51902060005262010002602052604060002090565b9290926129b0838261296b565b9182546001600160601b03808216159182612a6b575b50506129d4575b5050505050565b8360ff93612a249260019660020b9760020b881215612a46575b50506129fa8184612e32565b60005262010006602052604060002092610100938686868a60081d830b07161b8154179055612e59565b6000526201000760205260406000209307161b815417905538808080806129cd565b81546001600160c01b031660c09190911b6001600160c01b03191617905538806129ee565b60601c1615905038806129c6565b91906001600160601b038091840116921682106109c957565b6001600160401b039182169082160391908211610bdf57565b81612ab89194939461296b565b92600290810b91900b13612ace57505460c01c90565b611a53915460c01c90612a92565b9091612ae6575050565b60400190612aff6001600160801b039182845116612b04565b169052565b91906000908181600f0b12600014612b33576001600160801b0380918303811685031693168310156124a45750565b6001600160801b0380918116850116931683106124a45750565b600094938593849391612b5f91612c8c565b9390926001600160801b0380821690808616821015612b8a575050505090612b879291612c03565b91565b9798509196909190851611612ba8575090612ba59291612bc7565b92565b92819550612bc1945083612bbb92612c03565b93612bc7565b91600190565b906001600160801b0380848195938280951683821611600014612bfb5703165b1691160260401c9081169081036109c95790565b900316612be7565b916001600160801b038281169082161115612c2157611a5392612c3e565b90611a5392612c3e565b81810292918115918404141715610bdf57565b90612c7f91612c5f612c5085846119e3565b946001600160c01b0392611a86565b1692612c776001600160801b03948580931690612c2b565b911690611ac0565b9081169081036109c95790565b9190918060020b8360020b90808213156109c957620a276d19136109c957620cb14a126109c9576103dd611a5391611b7c565b63ffffffff9182169082160391908211610bdf57565b90600082815262010017602081815263ffffffff946040948686862054169081612d11575b50508352522090421663ffffffff19825416179055565b860151969794966001600160801b0316959394919392905b88811642811015612e225762093a80918282049280840293808504821490151715612dd257808301808411612e0e57819004818102918183041490151715612dd2578b9190821642811015612de6578291612d8391612cbf565b165b1691612d918984612c2b565b90878b526201001685528b878c2091168b528452858a208054918201809211612dd257550188811115612d2957634e487b7160e01b88526011600452602488fd5b634e487b7160e01b8b52601160045260248bfd5b505050804203428111612dfa578a90612d85565b634e487b7160e01b8a52601160045260248afd5b634e487b7160e01b8c52601160045260248cfd5b5050919450959492913880612cfa565b90604051906020820192835260020b60101d60f81b6040820152602181526126bb816118e9565b90604051906020820192835260020b60081d60f01b6040820152602281526126bb816118e9565b15612e8757565b60405162461bcd60e51b815260206004820152600260248201526125a160f11b6044820152606490fd5b6001600160601b039182169082160391908211610bdf57565b6001600160401b0391600283821601838111610bdf5783168284161115612f0557612ef9839160011993612a92565b1601908111610bdf5790565b505050600090565b604080516020810192835260e89390931b9083015290612f3081604381016101d4565b5190206000526201000260205260006040812055565b91612f6b612f54838561296b565b918254906001600160601b03928391828416612eb1565b1680916001600160601b03191617809355159182612f9f575b5050612f91575050600090565b612f9a916130e7565b600190565b60601c161590503880612f84565b91612fd3612fbb838561296b565b916001600160601b0391829182855460601c16612eb1565b612fdd818561275b565b16159182612ff2575050612f91575050600090565b54161590503880612f84565b92909493916001600160401b038093168061301c575b505050509190565b6001600160801b038093160260301c926001600160901b03838516941684036109c957831561301457938161305e6130aa9660606130a49695015116866130b4565b9261309c602061309061109d61308a611a7c8688511661308481898d160260401c611b44565b9a611a86565b99611b61565b93019282845116612b04565b169052611a14565b93611a14565b9138808080613014565b6001600160401b03916001600160801b039283911666010000000000000191160260301c8181116130e3571690565b5090565b8160020b916130f68183612e59565b60005262010007602052604060002061010090600160ff838707161b1981541680915515613125575b50505050565b61313360ff92600194612e32565b6000526201000660205260406000209360081d830b07161b1981541690553880808061311f565b9160009160009061317a6020820151604083015160020b9060020b612c8c565b915191929091156131915750611a53929394612c03565b9350612b879294612bc756fea2646970667358221220149ea9b6f6f4ded51156a43272cb305e323e3a0ed1abf9b5fa8b7352c987fd4464736f6c63430008130033",
    "linkReferences": {}
  },
  "methodIdentifiers": {
    "acceptCrocProxyRole(address,uint16)": "ac54c0fc",
    "userCmd(bytes)": "f96dc788"
  },
  "id": 5
}