{
  "abi": [
    {
      "inputs": [
        {
          "internalType": "address",
          "name": "",
          "type": "address"
        },
        {
          "internalType": "uint16",
          "name": "",
          "type": "uint16"
        }
      ],
      "name": "acceptCrocProxyRole",
      "outputs": [
        {
          "internalType": "bool",
          "name": "",
          "type": "bool"
        }
      ],
      "stateMutability": "pure",
      "type": "function"
    },
    {
      "inputs": [
        {
          "internalType": "bytes",
          "name": "cmd",
          "type": "bytes"
        }
      ],
      "name": "protocolCmd",
      "outputs": [],
      "stateMutability": "nonpayable",
      "type": "function"
    },
    {
      "inputs": [
        {
          "internalType": "bytes",
          "name": "",
          "type": "bytes"
        }
      ],
      "name": "userCmd",
      "outputs": [],
      "stateMutability": "payable",
      "type": "function"
    }
  ],
  "bytecode": {
    "object": "0x6080806040523461002b5762010011805460ff60e01b1916600160e71b17905561044b90816100318239f35b600080fdfe60806040908082526004908136101561001757600080fd5b6000803560e01c918263ac54c0fc1461038d57508163b670198014610092575063f96dc7881461004657600080fd5b61008e91610053366103c6565b50505191829162461bcd60e51b8352820160609060208152600f60208201526e125b9d985b1a590818dbdb5b585b99608a1b60408201520190565b0390fd5b828434610389576100a2366103c6565b60ff859392935460a01c161561035f5780601f101561034c57601f83013560f81c60150361030f57826060918101031261030b57813560ff81160361030b57602091808301356001600160a01b03811691908290036103075782013561ffff8116908181036103035781156102c057821590811591826102b6575b1561027357837f6d6175bccbf61a37eb104b2e776524b39d3c237dbc07dc62fc29c8b3e79f1b3c878751868152a2620100008110156102605760010180546001600160a01b03191684179055610176575b505050505080f35b83906044845180948193632b15303f60e21b8352308a84015260248301525afa9081156102565785916101f2575b50156101b157808061016e565b5162461bcd60e51b815291820152601a60248201527f50726f787920646f6573206e6f742061636365707420726f6c65000000000000604482015260649150fd5b9050823d841161024f575b601f8101601f1916820167ffffffffffffffff81118382101761023c57849183918552810103126102385751801515810361023857856101a4565b8480fd5b634e487b7160e01b875260418652602487fd5b503d6101fd565b82513d87823e3d90fd5b634e487b7160e01b885260328752602488fd5b845162461bcd60e51b8152808801879052601f60248201527f50726f78792061646472657373206973206e6f74206120636f6e7472616374006044820152606490fd5b50833b151561011d565b835162461bcd60e51b8152808701869052601a60248201527f43616e6e6f74206f766572777269746520626f6f7420706174680000000000006044820152606490fd5b8680fd5b8580fd5b8380fd5b815162461bcd60e51b81526020818601818152600f918101919091526e125b9d985b1a590818dbdb5b585b99608a1b604082015281906060010390fd5b634e487b7160e01b855260328452602485fd5b815162461bcd60e51b815260208186015260248101859052635375646f60e01b6044820152606490fd5b8280fd5b83853461030b5736600319011261038957356001600160a01b038116036103c25760243561ffff8116036103c2576020918152f35b5080fd5b9060206003198301126104105760043567ffffffffffffffff9283821161041057806023830112156104105781600401359384116104105760248483010111610410576024019190565b600080fdfea26469706673582212206ed9f99188a2ad5edb0a4cc49b6ec52d54b5da6884a53159bdff2b40dac99b8364736f6c63430008130033",
    "linkReferences": {}
  },
  "methodIdentifiers": {
    "acceptCrocProxyRole(address,uint16)": "ac54c0fc",
    "protocolCmd(bytes)": "b6701980",
    "userCmd(bytes)": "f96dc788"
  },
  "id": 2
}