{
  "abi": [
    {
      "inputs": [
        {
          "internalType": "uint256",
          "name": "bitmap",
          "type": "uint256"
        },
        {
          "internalType": "uint8",
          "name": "shift",
          "type": "uint8"
        }
      ],
      "name": "testBitLeft",
      "outputs": [
        {
          "internalType": "uint8",
          "name": "",
          "type": "uint8"
        },
        {
          "internalType": "bool",
          "name": "",
          "type": "bool"
        }
      ],
      "stateMutability": "pure",
      "type": "function"
    },
    {
      "inputs": [
        {
          "internalType": "uint256",
          "name": "bitmap",
          "type": "uint256"
        },
        {
          "internalType": "uint8",
          "name": "shift",
          "type": "uint8"
        }
      ],
      "name": "testBitRight",
      "outputs": [
        {
          "internalType": "uint8",
          "name": "",
          "type": "uint8"
        },
        {
          "internalType": "bool",
          "name": "",
          "type": "bool"
        }
      ],
      "stateMutability": "pure",
      "type": "function"
    },
    {
      "inputs": [
        {
          "internalType": "uint256",
          "name": "bitmap",
          "type": "uint256"
        },
        {
          "internalType": "uint8",
          "name": "pos",
          "type": "uint8"
        }
      ],
      "name": "testBitSet",
      "outputs": [
        {
          "internalType": "bool",
          "name": "",
          "type": "bool"
        }
      ],
      "stateMutability": "pure",
      "type": "function"
    },
    {
      "inputs": [
        {
          "internalType": "int8",
          "name": "x",
          "type": "int8"
        }
      ],
      "name": "testCastIndex",
      "outputs": [
        {
          "internalType": "uint8",
          "name": "",
          "type": "uint8"
        }
      ],
      "stateMutability": "pure",
      "type": "function"
    },
    {
      "inputs": [
        {
          "internalType": "int24",
          "name": "tick",
          "type": "int24"
        }
      ],
      "name": "testDecomp",
      "outputs": [
        {
          "internalType": "int8",
          "name": "lobbyKey",
          "type": "int8"
        },
        {
          "internalType": "int16",
          "name": "mezzKey",
          "type": "int16"
        },
        {
          "internalType": "uint8",
          "name": "lobbyBit",
          "type": "uint8"
        },
        {
          "internalType": "uint8",
          "name": "mezzBit",
          "type": "uint8"
        },
        {
          "internalType": "uint8",
          "name": "termBit",
          "type": "uint8"
        }
      ],
      "stateMutability": "pure",
      "type": "function"
    },
    {
      "inputs": [
        {
          "internalType": "int24",
          "name": "tick",
          "type": "int24"
        },
        {
          "internalType": "bool",
          "name": "isBuy",
          "type": "bool"
        }
      ],
      "name": "testShiftBump",
      "outputs": [
        {
          "internalType": "uint16",
          "name": "",
          "type": "uint16"
        }
      ],
      "stateMutability": "pure",
      "type": "function"
    },
    {
      "inputs": [
        {
          "internalType": "uint256",
          "name": "bitmap",
          "type": "uint256"
        },
        {
          "internalType": "uint8",
          "name": "shift",
          "type": "uint8"
        }
      ],
      "name": "testTruncateLeft",
      "outputs": [
        {
          "internalType": "uint256",
          "name": "",
          "type": "uint256"
        }
      ],
      "stateMutability": "pure",
      "type": "function"
    },
    {
      "inputs": [
        {
          "internalType": "uint256",
          "name": "bitmap",
          "type": "uint256"
        },
        {
          "internalType": "uint8",
          "name": "shift",
          "type": "uint8"
        }
      ],
      "name": "testTruncateRight",
      "outputs": [
        {
          "internalType": "uint256",
          "name": "",
          "type": "uint256"
        }
      ],
      "stateMutability": "pure",
      "type": "function"
    },
    {
      "inputs": [
        {
          "internalType": "uint8",
          "name": "x",
          "type": "uint8"
        }
      ],
      "name": "testUncastIndex",
      "outputs": [
        {
          "internalType": "int8",
          "name": "",
          "type": "int8"
        }
      ],
      "stateMutability": "pure",
      "type": "function"
    },
    {
      "inputs": [
        {
          "internalType": "int8",
          "name": "lobbyIdx",
          "type": "int8"
        },
        {
          "internalType": "uint8",
          "name": "mezzBit",
          "type": "uint8"
        },
        {
          "internalType": "uint8",
          "name": "termBit",
          "type": "uint8"
        }
      ],
      "name": "testWeld",
      "outputs": [
        {
          "internalType": "int24",
          "name": "fullWeld",
          "type": "int24"
        },
        {
          "internalType": "int16",
          "name": "mezzWeld",
          "type": "int16"
        },
        {
          "internalType": "int24",
          "name": "termWeld",
          "type": "int24"
        }
      ],
      "stateMutability": "pure",
      "type": "function"
    }
  ],
  "bytecode": {
    "object": "0x608080604052346100165761074c908161001c8239f35b600080fdfe60806040908082526004918236101561001757600080fd5b600091823560e01c90816304a47ef614610575575080630855e1c3146105475780633c526faa1461051357806351e0de5c146104a4578063687c7ffd146104545780636b000acf146103ce57806386c60c93146103a057806396892a4c1461025457806399de84ef146101f15763e6b4b9731461009357600080fd5b346101ed576003199281843601126101e95760ff806100b06106d0565b169184908035841c841b90811591821597886100ec575b5050505060209550846100e0575b505050519015158152f35b161491503880806100d5565b908092939450936101e657506020978492909183906001600160801b038116156101dc575050607f5b67ffffffffffffffff8516156101d357603f190183165b63ffffffff8516156101ca57601f190183165b61ffff8516156101c057600f190183165b848416156101b557600719018316905b600f8516156101aa57500181165b600383161561019e57600119018116916001905b16610192575b50388080806100c7565b90600019011681610188565b9160019060021c610182565b909391501c9161016e565b909360081c93610160565b9360101c93610150565b93891c9361013f565b93871c9361012c565b60801c9450610115565b80fd5b8280fd5b5080fd5b50346101ed5760203660031901126101ed579060ff60a0926102116106e5565b60020b928360101d900b928060081d60010b918361022e866106f5565b825196875284602088015216908501528261010080930716606085015207166080820152f35b50346101ed57806003193601126101ed5760ff91826102716106d0565b169281938535811b901c801595861561029e575b845160ff871681528715156020820152604090f35b0390f35b929594508592818661039c5761029a95969750600160801b81101561038e575b50856801000000000000000083101561037e575b5064010000000082101561036d575b6201000082101561035c575b61010082101561034b575b601082101561033c575b908260029282101561032d575b501015610322575b509190388080610285565b906001011638610317565b908290811c940116928261030f565b92830182169290811c90610302565b929060088391811c920116926102f8565b929060108391811c920116926102ed565b929060208391811c920116926102e1565b83919492811c92011692856102d2565b60809450841c9150386102be565b8780fd5b508290346101e957806003193601126101e9576020925060ff6103c16106d0565b1690519135811b901c8152f35b5082346101e95760603660031901126101e957359081830b82036101e9576103f46106d0565b916044359060ff82168092036104505760609450600291820b908160ff861660010b8260081b60010b019161ff0086519760081b16850b9060101b850b01840b01830b85528060010b602086015260081b820b01900b90820152f35b8480fd5b5091346101ed5760203660031901126101ed57359160ff83168084036101e9576020936080821015610493575060010b607f1901820b905b51910b8152f35b607f190160ff16830b91905061048c565b50346101ed57806003193601126101ed576104bd6106e5565b60243590811515820361050f579160ff8061ffff93816101006020989760020b07169080600014610509576001965b50156104ff57925b519416911601168152f35b81038116926104f4565b866104ec565b8380fd5b5082346101e95760203660031901126101e957359182810b83036101e6575060ff61053f6020936106f5565b915191168152f35b508290346101e957806003193601126101e9576020925060ff6105686106d0565b1690519135811c901b8152f35b929390503461050f5760031982813601126104505793839460ff90816105996106d0565b169383948135811c901b9586159687156105c1575b60ff8716895287151560208a0152604089f35b9193955091939596508095876101e657509161029a9593918593899896906001600160801b03811615156000146106c5575050607f905b67ffffffffffffffff8616156106bb5750603f190183165b63ffffffff8516156106b157601f190183165b61ffff8516156106a757600f190183165b8484161561069c57600719018316905b600f85161561069157500181165b600383161561068557600119018116916001905b16610679575b50909138808080806105ae565b9060001901163861066c565b9160019060021c610666565b909391501c91610652565b909360081c93610644565b9360101c93610634565b9360201c93610623565b9490941c93610610565b60801c9550906105f8565b6024359060ff821682036106e057565b600080fd5b600435908160020b82036106e057565b60ff90608090600081810b90811261070f57508216011690565b905001169056fea2646970667358221220e440a531143c147ab7169f469a0113163861092aea8d992b1704035fdc5c714664736f6c63430008130033",
    "linkReferences": {}
  },
  "methodIdentifiers": {
    "testBitLeft(uint256,uint8)": "96892a4c",
    "testBitRight(uint256,uint8)": "04a47ef6",
    "testBitSet(uint256,uint8)": "e6b4b973",
    "testCastIndex(int8)": "3c526faa",
    "testDecomp(int24)": "99de84ef",
    "testShiftBump(int24,bool)": "51e0de5c",
    "testTruncateLeft(uint256,uint8)": "86c60c93",
    "testTruncateRight(uint256,uint8)": "0855e1c3",
    "testUncastIndex(uint8)": "687c7ffd",
    "testWeld(int8,uint8,uint8)": "6b000acf"
  },
  "id": 70
}