{
  "abi": [
    {
      "inputs": [
        {
          "internalType": "uint256",
          "name": "poolIdx",
          "type": "uint256"
        },
        {
          "internalType": "int24",
          "name": "tick",
          "type": "int24"
        }
      ],
      "name": "getLevelState",
      "outputs": [
        {
          "components": [
            {
              "internalType": "uint96",
              "name": "bidLots_",
              "type": "uint96"
            },
            {
              "internalType": "uint96",
              "name": "askLots_",
              "type": "uint96"
            },
            {
              "internalType": "uint64",
              "name": "feeOdometer_",
              "type": "uint64"
            }
          ],
          "internalType": "struct StorageLayout.BookLevel",
          "name": "",
          "type": "tuple"
        }
      ],
      "stateMutability": "view",
      "type": "function"
    },
    {
      "inputs": [
        {
          "internalType": "uint256",
          "name": "poolIdx",
          "type": "uint256"
        },
        {
          "internalType": "int24",
          "name": "tick",
          "type": "int24"
        }
      ],
      "name": "hasTickBump",
      "outputs": [
        {
          "internalType": "bool",
          "name": "",
          "type": "bool"
        }
      ],
      "stateMutability": "view",
      "type": "function"
    },
    {
      "inputs": [],
      "name": "knockoutFlag",
      "outputs": [
        {
          "internalType": "bool",
          "name": "",
          "type": "bool"
        }
      ],
      "stateMutability": "view",
      "type": "function"
    },
    {
      "inputs": [],
      "name": "liqDelta",
      "outputs": [
        {
          "internalType": "int256",
          "name": "",
          "type": "int256"
        }
      ],
      "stateMutability": "view",
      "type": "function"
    },
    {
      "inputs": [],
      "name": "odometer",
      "outputs": [
        {
          "internalType": "uint256",
          "name": "",
          "type": "uint256"
        }
      ],
      "stateMutability": "view",
      "type": "function"
    },
    {
      "inputs": [
        {
          "internalType": "uint256",
          "name": "poolIdx",
          "type": "uint256"
        },
        {
          "internalType": "int24",
          "name": "mid",
          "type": "int24"
        },
        {
          "internalType": "int24",
          "name": "bid",
          "type": "int24"
        },
        {
          "internalType": "int24",
          "name": "ask",
          "type": "int24"
        },
        {
          "internalType": "uint64",
          "name": "feeGlobal",
          "type": "uint64"
        }
      ],
      "name": "pullFeeOdometer",
      "outputs": [
        {
          "internalType": "uint64",
          "name": "",
          "type": "uint64"
        }
      ],
      "stateMutability": "view",
      "type": "function"
    },
    {
      "inputs": [
        {
          "internalType": "uint256",
          "name": "poolIdx",
          "type": "uint256"
        },
        {
          "internalType": "int24",
          "name": "midTick",
          "type": "int24"
        },
        {
          "internalType": "int24",
          "name": "bidTick",
          "type": "int24"
        },
        {
          "internalType": "int24",
          "name": "askTick",
          "type": "int24"
        },
        {
          "internalType": "uint96",
          "name": "lots",
          "type": "uint96"
        },
        {
          "internalType": "uint64",
          "name": "globalFee",
          "type": "uint64"
        }
      ],
      "name": "testAdd",
      "outputs": [],
      "stateMutability": "nonpayable",
      "type": "function"
    },
    {
      "inputs": [
        {
          "internalType": "uint256",
          "name": "poolIdx",
          "type": "uint256"
        },
        {
          "internalType": "int24",
          "name": "tick",
          "type": "int24"
        },
        {
          "internalType": "bool",
          "name": "isBuy",
          "type": "bool"
        },
        {
          "internalType": "uint64",
          "name": "feeGlobal",
          "type": "uint64"
        }
      ],
      "name": "testCrossLevel",
      "outputs": [],
      "stateMutability": "nonpayable",
      "type": "function"
    },
    {
      "inputs": [
        {
          "internalType": "uint256",
          "name": "poolIdx",
          "type": "uint256"
        },
        {
          "internalType": "int24",
          "name": "midTick",
          "type": "int24"
        },
        {
          "internalType": "int24",
          "name": "bidTick",
          "type": "int24"
        },
        {
          "internalType": "int24",
          "name": "askTick",
          "type": "int24"
        },
        {
          "internalType": "uint96",
          "name": "lots",
          "type": "uint96"
        },
        {
          "internalType": "uint64",
          "name": "globalFee",
          "type": "uint64"
        }
      ],
      "name": "testRemove",
      "outputs": [],
      "stateMutability": "nonpayable",
      "type": "function"
    }
  ],
  "bytecode": {
    "object": "0x6080806040523461002b5762010011805460ff60e01b1916600160e71b179055610ac190816100318239f35b600080fdfe6040608081526004908136101561001557600080fd5b600090813560e01c9081630922eb36146105665781630e4166dd146104e25781631e50ee59146104bc5781637f4b33551461049b57816384007ead1461047a5781638d4d1a14146102f857816391f4a63714610238578163b62ee4d2146101bf575063c85c25d11461008657600080fd5b346101bc5760803660031901126101bc5761009f610635565b6044359081151582036101b8576064359167ffffffffffffffff8316918284036101b4576100ce908635610786565b918254936d03fffffffffffffffffffffff800808660561c16600f0b9086600a1b16600f0b03600f0b8360001461017b579596506001945b60c01c809203610147575b50501561013e575460601c1615155b620100239060ff801983541691151516179055600f0b620100225580f35b54161515610120565b6101749161015491610722565b83546001600160c01b031660c09190911b6001600160c01b031916178355565b3880610111565b6f7fffffffffffffffffffffffffffffff1981146101a157866001969798500395610106565b634e487b7160e01b875260118852602487fd5b8480fd5b8280fd5b80fd5b905082346101b85760a03660031901126101b85735916101dd610635565b92604435938460020b85036101b8576064358060020b8103610234576084359567ffffffffffffffff9485881688036101bc57509186916102256020988361022b9688610752565b94610752565b03169051908152f35b8380fd5b905082346101b857816003193601126101b857606092829161028f61029d61025e610635565b610266610703565b5061026f610703565b508551928391602083019535869091602392825260e81b60208201520190565b03601f1981018352826106e1565b519020815262010002602052209067ffffffffffffffff8151926102c0846106af565b546001600160601b038082169485815284602082019183858a1c168352019260c01c8352845195865251166020850152511690820152f35b905034610476576003199281843601126101b857610100610317610635565b6103228184356108da565b855262010007602052838520549060ff92839160020b0716928591841c841b9081159182159788610373575b505050506020955084610367575b505050519015158152f35b1614915038808061035c565b908092939450936101bc57506020978492909183906fffffffffffffffffffffffffffffffff81161561046c575050607f5b67ffffffffffffffff85161561046357603f190183165b63ffffffff85161561045a57601f190183165b61ffff85161561045057600f190183165b8484161561044557600719018316905b600f85161561043a57500181165b600383161561042e57600119018116916001905b16610422575b503880808061034e565b90600019011681610418565b9160019060021c610412565b909391501c916103fe565b909360081c936103f0565b9360101c936103e0565b93891c936103cf565b93871c936103bc565b60801c94506103a5565b5080fd5b90503461047657816003193601126104765760209062010022549051908152f35b90503461047657816003193601126104765760209062010024549051908152f35b90503461047657816003193601126104765760209060ff62010023541690519015158152f35b82346101bc5767ffffffffffffffff6104fa3661064a565b92919361052e61051961051184868a9b969b61093a565b9887896109a1565b946105268184878b610752565b928789610752565b031694610556575b50610546575b5050620100245580f35b61054f91610901565b828061053c565b6105609084610901565b85610536565b82346101bc5767ffffffffffffffff61022561062b6106256105f561058a3661064a565b9685859785936105a18b8098859f9a80999c6107be565b6105ad878a88866107be565b6105e9896105bb8786610786565b948554956001600160601b0396876105d587828416610894565b16906001600160601b031916179055610786565b92835460601c16610894565b81546bffffffffffffffffffffffff60601b191660609190911b6bffffffffffffffffffffffff60601b16179055565b88610752565b0316620100245580f35b602435908160020b820361064557565b600080fd5b60c090600319011261064557600435906024358060020b810361064557906044358060020b810361064557906064358060020b810361064557906084356001600160601b0381168103610645579060a43567ffffffffffffffff811681036106455790565b6060810190811067ffffffffffffffff8211176106cb57604052565b634e487b7160e01b600052604160045260246000fd5b90601f8019910116810190811067ffffffffffffffff8211176106cb57604052565b60405190610710826106af565b60006040838281528260208201520152565b67ffffffffffffffff918216908216039190821161073c57565b634e487b7160e01b600052601160045260246000fd5b8161075f91949394610786565b92600290810b91900b1361077557505460c01c90565b610783915460c01c90610722565b90565b604080516020810192835260e89390931b90830152906107a9816043810161028f565b51902060005262010002602052604060002090565b9290926107cb8382610786565b9182546001600160601b03808216159182610886575b50506107ef575b5050505050565b8360ff9361083f9260019660020b9760020b881215610861575b505061081581846108ad565b60005262010006602052604060002092610100938686868a60081d830b07161b81541790556108da565b6000526201000760205260406000209307161b815417905538808080806107e8565b81546001600160c01b031660c09190911b6001600160c01b0319161790553880610809565b60601c1615905038806107e1565b91906001600160601b0380918401169216821061064557565b90604051906020820192835260020b60101d60f81b6040820152602181526108d4816106af565b51902090565b90604051906020820192835260020b60081d60f01b6040820152602281526108d4816106af565b604080516020810192835260e89390931b9083015290610924816043810161028f565b5190206000526201000260205260006040812055565b916109458284610786565b9081546001600160601b038092168282160382811161073c57821680916001600160601b03191617809355159182610993575b5050610985575050600090565b61098e91610a18565b600190565b60601c161590503880610978565b916109ac8284610786565b906001600160601b03908180845460601c169116900381811161073c5782546bffffffffffffffffffffffff60601b1916606082901b6bffffffffffffffffffffffff60601b161783558116159182610a0c575050610985575050600090565b54161590503880610978565b8160020b91610a2781836108da565b60005262010007602052604060002061010090600160ff838707161b1981541680915515610a56575b50505050565b610a6460ff926001946108ad565b6000526201000660205260406000209360081d830b07161b19815416905538808080610a5056fea2646970667358221220d7f7b208b87af835c9510ae867ce8d8ff2fd22c716ee768dcaf856db47d0c9a164736f6c63430008130033",
    "linkReferences": {}
  },
  "methodIdentifiers": {
    "getLevelState(uint256,int24)": "91f4a637",
    "hasTickBump(uint256,int24)": "8d4d1a14",
    "knockoutFlag()": "1e50ee59",
    "liqDelta()": "84007ead",
    "odometer()": "7f4b3355",
    "pullFeeOdometer(uint256,int24,int24,int24,uint64)": "b62ee4d2",
    "testAdd(uint256,int24,int24,int24,uint96,uint64)": "0922eb36",
    "testCrossLevel(uint256,int24,bool,uint64)": "c85c25d1",
    "testRemove(uint256,int24,int24,int24,uint96,uint64)": "0e4166dd"
  },
  "id": 76
}