{
  "abi": [
    {
      "anonymous": false,
      "inputs": [],
      "name": "MockHotSwap",
      "type": "event"
    },
    {
      "inputs": [
        {
          "internalType": "bytes",
          "name": "",
          "type": "bytes"
        }
      ],
      "name": "swap",
      "outputs": [],
      "stateMutability": "payable",
      "type": "function"
    }
  ],
  "bytecode": {
    "object": "0x608080604052346100155760c1908161001b8239f35b600080fdfe6004361015600c57600080fd5b6000803560e01c63627dd56a14602157600080fd5b602036600319011260845760043567ffffffffffffffff808211608757366023830112156087578160040135908111608757369101602401116084577f1990c8e0240bcc6498501df9f5cbb240e5422491fb40e7d306ee9c7e823c687a8180a180f35b80fd5b8280fdfea26469706673582212209c5388682abccc2730d608b0da14d506ebc76a128e966d0f9eaab394fbc2931b64736f6c63430008130033",
    "linkReferences": {}
  },
  "methodIdentifiers": {
    "swap(bytes)": "627dd56a"
  },
  "id": 65
}