{
  "abi": [
    {
      "inputs": [
        {
          "internalType": "address",
          "name": "auth",
          "type": "address"
        }
      ],
      "stateMutability": "nonpayable",
      "type": "constructor"
    },
    {
      "inputs": [
        {
          "internalType": "address",
          "name": "recv",
          "type": "address"
        },
        {
          "internalType": "address",
          "name": "token",
          "type": "address"
        }
      ],
      "name": "disburseProtocol",
      "outputs": [],
      "stateMutability": "nonpayable",
      "type": "function"
    },
    {
      "inputs": [
        {
          "internalType": "address",
          "name": "x",
          "type": "address"
        }
      ],
      "name": "etherBalance",
      "outputs": [
        {
          "internalType": "uint256",
          "name": "",
          "type": "uint256"
        }
      ],
      "stateMutability": "view",
      "type": "function"
    },
    {
      "inputs": [
        {
          "internalType": "address",
          "name": "recv",
          "type": "address"
        },
        {
          "internalType": "address",
          "name": "token",
          "type": "address"
        }
      ],
      "name": "getPaidFees",
      "outputs": [
        {
          "internalType": "uint128",
          "name": "",
          "type": "uint128"
        }
      ],
      "stateMutability": "view",
      "type": "function"
    },
    {
      "inputs": [],
      "name": "noop",
      "outputs": [],
      "stateMutability": "payable",
      "type": "function"
    },
    {
      "inputs": [
        {
          "internalType": "address",
          "name": "token",
          "type": "address"
        }
      ],
      "name": "protoFeeAccum",
      "outputs": [
        {
          "internalType": "uint128",
          "name": "",
          "type": "uint128"
        }
      ],
      "stateMutability": "view",
      "type": "function"
    },
    {
      "inputs": [
        {
          "internalType": "address",
          "name": "base",
          "type": "address"
        },
        {
          "internalType": "address",
          "name": "quote",
          "type": "address"
        },
        {
          "internalType": "uint128",
          "name": "baseFees",
          "type": "uint128"
        },
        {
          "internalType": "uint128",
          "name": "quoteFees",
          "type": "uint128"
        }
      ],
      "name": "testAccum",
      "outputs": [],
      "stateMutability": "nonpayable",
      "type": "function"
    }
  ],
  "bytecode": {
    "object": "0x60803461008a57601f61053e38819003918201601f19168301916001600160401b0383118484101761008f5780849260209460405283398101031261008a57516001600160a01b0381169081900361008a5762010011805460ff60e01b1916600160e71b1790556201000180546001600160a01b031916909117905560405161049890816100a68239f35b600080fd5b634e487b7160e01b600052604160045260246000fdfe60806040818152600436101561001457600080fd5b600091823560e01c908163071c50031461030357508063386afb09146102875780635dfc2e4a146102755780636d3c9299146100cf5780636d9333b51461008c5763cd0c58961461006457600080fd5b34610088576020366003190112610088576020906100806103c8565b319051908152f35b5080fd5b5034610088576020366003190112610088576020916001600160801b039082906001600160a01b036100bc6103c8565b1681526201000c85522054169051908152f35b5034610088576080366003190112610088576100e96103c8565b906100f26103e3565b90604435916001600160801b0393848416809403610271576064359185831680930361026d5783519267ffffffffffffffff9060a08501828111868210176102595786528885526020850196898852868601948a86528a6060880152608087019388519060808201908282109082111761024557916060979593918c999795938b528d81528d60208201528d8b8201528d89820152845260018060a01b0395868080971692169082821080915260001461023c5787528a525b888351015285825101525192511695511694838583015116908161020a575b505001511691826101d9578480f35b84526201000c6020528320916101f3835492828416610431565b16906001600160801b031916179055388080808480f35b88526201000c6020528488209084610226835492828416610431565b16906001600160801b03191617905538806101ca565b8b5286526101ab565b634e487b7160e01b8d52604160045260248dfd5b634e487b7160e01b8a52604160045260248afd5b8680fd5b8580fd5b82806003193601126102845780f35b80fd5b50346100885780600319360112610088576001600160801b03816020936102ac6103c8565b6102e06102ee6102ba6103e3565b85516001600160a01b039485168a82019081529490911660208501529182906040850190565b03601f1981018352826103f9565b51902081526201001085522054169051908152f35b9050346103c457816003193601126103c45761031d6103c8565b906103266103e3565b6001600160a01b03811685526201000c60205283852080546fffffffffffffffffffffffffffffffff198082169092556001600160801b0395908616949193909285610370578780f35b6001600160a01b03928316602083019081529216604082015261039681606081016102e0565b5190208552620100106020528420926103b3845493828516610431565b169116179055388080808080808780f35b8280fd5b600435906001600160a01b03821682036103de57565b600080fd5b602435906001600160a01b03821682036103de57565b90601f8019910116810190811067ffffffffffffffff82111761041b57604052565b634e487b7160e01b600052604160045260246000fd5b9190916001600160801b038080941691160191821161044c57565b634e487b7160e01b600052601160045260246000fdfea26469706673582212202652c6da15e0393ffa0e2cf64103e0ba8d47d0b4a7bc35b879e0600da0142ba364736f6c63430008130033",
    "linkReferences": {}
  },
  "methodIdentifiers": {
    "disburseProtocol(address,address)": "071c5003",
    "etherBalance(address)": "cd0c5896",
    "getPaidFees(address,address)": "386afb09",
    "noop()": "5dfc2e4a",
    "protoFeeAccum(address)": "6d9333b5",
    "testAccum(address,address,uint128,uint128)": "6d3c9299"
  },
  "id": 81
}