{
  "abi": [
    {
      "inputs": [
        {
          "internalType": "address",
          "name": "owner",
          "type": "address"
        }
      ],
      "stateMutability": "nonpayable",
      "type": "constructor"
    },
    {
      "anonymous": false,
      "inputs": [
        {
          "indexed": false,
          "internalType": "address",
          "name": "addr",
          "type": "address"
        },
        {
          "indexed": false,
          "internalType": "uint256",
          "name": "salt",
          "type": "uint256"
        }
      ],
      "name": "CrocDeploy",
      "type": "event"
    },
    {
      "inputs": [
        {
          "internalType": "bytes",
          "name": "bytescode",
          "type": "bytes"
        },
        {
          "internalType": "uint256",
          "name": "salt",
          "type": "uint256"
        }
      ],
      "name": "deploy",
      "outputs": [
        {
          "internalType": "address",
          "name": "",
          "type": "address"
        }
      ],
      "stateMutability": "nonpayable",
      "type": "function"
    },
    {
      "inputs": [],
      "name": "dex_",
      "outputs": [
        {
          "internalType": "address",
          "name": "",
          "type": "address"
        }
      ],
      "stateMutability": "view",
      "type": "function"
    },
    {
      "inputs": [
        {
          "internalType": "bytes",
          "name": "bytecode",
          "type": "bytes"
        },
        {
          "internalType": "uint256",
          "name": "_salt",
          "type": "uint256"
        }
      ],
      "name": "getAddress",
      "outputs": [
        {
          "internalType": "address",
          "name": "",
          "type": "address"
        }
      ],
      "stateMutability": "view",
      "type": "function"
    },
    {
      "inputs": [
        {
          "internalType": "address",
          "name": "dex",
          "type": "address"
        },
        {
          "internalType": "uint16",
          "name": "proxyPath",
          "type": "uint16"
        },
        {
          "internalType": "bytes",
          "name": "cmd",
          "type": "bytes"
        },
        {
          "internalType": "bool",
          "name": "sudo",
          "type": "bool"
        }
      ],
      "name": "protocolCmd",
      "outputs": [],
      "stateMutability": "nonpayable",
      "type": "function"
    }
  ],
  "bytecode": {
    "object": "0x60a03461006a57601f6104aa38819003918201601f19168301916001600160401b0383118484101761006f5780849260209460405283398101031261006a57516001600160a01b038116810361006a5760805260405161042490816100868239608051816103320152f35b600080fd5b634e487b7160e01b600052604160045260246000fdfe6080604052600436101561001257600080fd5b6000803560e01c90816387834a0e146100e85781638b60a6bd146100555750806394ca2cb51461005057639c4ae2d01461004b57600080fd5b61025f565b6101f1565b346100e55760803660031901126100e5576004356001600160a01b03811681036100e1576024359061ffff821682036100dd576044359067ffffffffffffffff908183116100d957366023840112156100d95782600401359182116100d95736602483850101116100d9576100d69360246100ce61011c565b940191610323565b80f35b8480fd5b8280fd5b5080fd5b80fd5b346100e557806003193601126100e557546001600160a01b03166080908152602090f35b600091031261011757565b600080fd5b60643590811515820361011757565b634e487b7160e01b600052604160045260246000fd5b67ffffffffffffffff811161015557604052565b61012b565b90601f8019910116810190811067ffffffffffffffff82111761015557604052565b60406003198201126101175767ffffffffffffffff600435818111610117578260238201121561011757806004013591821161015557604051926101ca601f8401601f19166020018561015a565b82845260248383010111610117578160009260246020930183860137830101529060243590565b34610117576101ff3661017c565b906020815191012060405190602082019260ff60f81b84523060601b60218401526035830152605582015260558152608081019080821067ffffffffffffffff831117610155576040829052519091206001600160a01b03168152602090f35b346101175761026d3661017c565b81602082935191016000f590813b15610117577fd9f2c23e9b4ce619c3d99bd5f5687a06736837c12591116c70f4547ea567c286604060209360018060a01b031692836bffffffffffffffffffffffff60a01b600054161760005581519084825285820152a1604051908152f35b928060409361ffff60809498979816865260606020870152816060870152838601376000828286010152601f8019910116830101931515910152565b6040513d6000823e3d90fd5b909291906001600160a01b03907f0000000000000000000000000000000000000000000000000000000000000000821633036103b1571690813b156101175760008094610386604051978896879586946304ff4d3d60e21b8652600486016102db565b03925af180156103ac576103975750565b806103a46103aa92610141565b8061010c565b565b610317565b60405162461bcd60e51b81526020600482015260156024820152742237b2b9903737ba1037bbb7103232b83637bcb2b960591b6044820152606490fdfea26469706673582212202a7cd72766543d15b9f1aaafae7c410e1cfd0af8cb6bebc4cc2b7c3c00a044ae64736f6c63430008130033",
    "linkReferences": {}
  },
  "methodIdentifiers": {
    "deploy(bytes,uint256)": "9c4ae2d0",
    "dex_()": "87834a0e",
    "getAddress(bytes,uint256)": "94ca2cb5",
    "protocolCmd(address,uint16,bytes,bool)": "8b60a6bd"
  },
  "id": 56
}