{
  "abi": [
    {
      "inputs": [
        {
          "internalType": "uint128",
          "name": "x",
          "type": "uint128"
        },
        {
          "internalType": "int128",
          "name": "y",
          "type": "int128"
        }
      ],
      "name": "testAddSigned",
      "outputs": [
        {
          "internalType": "uint128",
          "name": "",
          "type": "uint128"
        }
      ],
      "stateMutability": "pure",
      "type": "function"
    },
    {
      "inputs": [
        {
          "internalType": "uint128",
          "name": "x",
          "type": "uint128"
        },
        {
          "internalType": "int128",
          "name": "y",
          "type": "int128"
        }
      ],
      "name": "testAddUnsigned",
      "outputs": [
        {
          "internalType": "uint128",
          "name": "",
          "type": "uint128"
        }
      ],
      "stateMutability": "pure",
      "type": "function"
    },
    {
      "inputs": [
        {
          "internalType": "uint64",
          "name": "mileageX",
          "type": "uint64"
        },
        {
          "internalType": "uint128",
          "name": "liqX",
          "type": "uint128"
        },
        {
          "internalType": "uint64",
          "name": "mileageY",
          "type": "uint64"
        },
        {
          "internalType": "uint128",
          "name": "liqY",
          "type": "uint128"
        }
      ],
      "name": "testBlendMileage",
      "outputs": [
        {
          "internalType": "uint64",
          "name": "",
          "type": "uint64"
        }
      ],
      "stateMutability": "pure",
      "type": "function"
    },
    {
      "inputs": [
        {
          "internalType": "uint72",
          "name": "mileageX",
          "type": "uint72"
        },
        {
          "internalType": "uint128",
          "name": "liqX",
          "type": "uint128"
        },
        {
          "internalType": "uint72",
          "name": "mileageY",
          "type": "uint72"
        },
        {
          "internalType": "uint128",
          "name": "liqY",
          "type": "uint128"
        }
      ],
      "name": "testBlendMileage72",
      "outputs": [
        {
          "internalType": "uint72",
          "name": "",
          "type": "uint72"
        }
      ],
      "stateMutability": "pure",
      "type": "function"
    },
    {
      "inputs": [
        {
          "internalType": "uint64",
          "name": "x",
          "type": "uint64"
        },
        {
          "internalType": "uint64",
          "name": "y",
          "type": "uint64"
        }
      ],
      "name": "testDeltaRewards",
      "outputs": [
        {
          "internalType": "uint64",
          "name": "",
          "type": "uint64"
        }
      ],
      "stateMutability": "pure",
      "type": "function"
    },
    {
      "inputs": [
        {
          "internalType": "uint72",
          "name": "x",
          "type": "uint72"
        },
        {
          "internalType": "uint72",
          "name": "y",
          "type": "uint72"
        }
      ],
      "name": "testDeltaRewards72",
      "outputs": [
        {
          "internalType": "uint64",
          "name": "",
          "type": "uint64"
        }
      ],
      "stateMutability": "pure",
      "type": "function"
    },
    {
      "inputs": [
        {
          "internalType": "uint128",
          "name": "x",
          "type": "uint128"
        },
        {
          "internalType": "uint128",
          "name": "y",
          "type": "uint128"
        }
      ],
      "name": "testMinus",
      "outputs": [
        {
          "internalType": "uint128",
          "name": "",
          "type": "uint128"
        }
      ],
      "stateMutability": "pure",
      "type": "function"
    }
  ],
  "bytecode": {
    "object": "0x6080806040523461001657610553908161001c8239f35b600080fdfe604060808152600436101561001357600080fd5b6000803560e01c91826332465deb146101c057826376bf1d9d1461006e578263c92b633714610171578263d1e1704514610114578263dfd0137f146100d2578263e95e95631461007357505063f5de1d591461006e57600080fd5b610245565b346100ce5760803660031901126100ce5761008c6101fd565b91610095610219565b6044359067ffffffffffffffff9283831683036100cb5750936100c3916020956100bd61022f565b926103c9565b915191168152f35b80fd5b5080fd5b346100ce57806003193601126100ce576100ea6102b6565b602435926001600160481b03841684036100cb57506100c360209367ffffffffffffffff92610358565b346100ce57806003193601126100ce576004356001600160801b039081811680910361016d5781610143610219565b1690039181831161015957602093505191168152f35b634e487b7160e01b84526011600452602484fd5b8380fd5b346100ce5760803660031901126100ce5761018a6102b6565b91610193610219565b604435906001600160481b039283831683036100cb5750936100c3916020956101ba61022f565b92610499565b346100ce57806003193601126100ce576101d86101fd565b916024359267ffffffffffffffff9182851685036100cb57506020936100c3916102fb565b6004359067ffffffffffffffff8216820361021457565b600080fd5b602435906001600160801b038216820361021457565b606435906001600160801b038216820361021457565b34610214576040366003190112610214576001600160801b0360043581811690818103610214576024359081600f0b91828103610214578492600013156102a357600003821690031690811015610214576020915b60405191168152f35b821601169081106102145760209161029a565b600435906001600160481b038216820361021457565b90600167ffffffffffffffff809316019182116102e557565b634e487b7160e01b600052601160045260246000fd5b67ffffffffffffffff8092169060028201908382116102e557831690831681111561033857038181116102e5578116600119019081116102e55790565b505050600090565b9060016001600160481b03809316019182116102e557565b6001600160481b038092169060028201908382116102e557831690831681111561033857038181116102e5578116600119018181116102e55767ffffffffffffffff80928216116000146103aa575090565b1690565b9190916001600160801b03808094169116019182116102e557565b929190916001600160801b038082161561044e578316156104475767ffffffffffffffff938483168582161461043f5761042b6104258694846104198161041f610431978b6104198c9b826103ae565b91610475565b996103ae565b946102cc565b936102cc565b169116019081116102e55790565b935050505090565b5091505090565b5050505090565b811561045f570490565b634e487b7160e01b600052601260045260246000fd5b67ffffffffffffffff926103aa926001600160801b03918216928516911602610455565b929190916001600160801b038082161561044e57831615610447576001600160481b03938483168582161461043f576104f46104ee8694846104e88161041f610431978b6104e88c9b826103ae565b916104fa565b94610340565b93610340565b6001600160481b03926103aa926001600160801b0391821692851691160261045556fea264697066735822122041e2339b26b594a3cfc70e0ae8172af42d3b58c4946cd4d2e05cb7836027502b64736f6c63430008130033",
    "linkReferences": {}
  },
  "methodIdentifiers": {
    "testAddSigned(uint128,int128)": "f5de1d59",
    "testAddUnsigned(uint128,int128)": "76bf1d9d",
    "testBlendMileage(uint64,uint128,uint64,uint128)": "e95e9563",
    "testBlendMileage72(uint72,uint128,uint72,uint128)": "c92b6337",
    "testDeltaRewards(uint64,uint64)": "32465deb",
    "testDeltaRewards72(uint72,uint72)": "dfd0137f",
    "testMinus(uint128,uint128)": "d1e17045"
  },
  "id": 78
}