{
  "abi": [
    {
      "inputs": [
        {
          "internalType": "address",
          "name": "dex",
          "type": "address"
        }
      ],
      "stateMutability": "nonpayable",
      "type": "constructor"
    },
    {
      "inputs": [],
      "name": "acceptsCrocAuthority",
      "outputs": [
        {
          "internalType": "bool",
          "name": "",
          "type": "bool"
        }
      ],
      "stateMutability": "pure",
      "type": "function"
    },
    {
      "inputs": [
        {
          "internalType": "uint16",
          "name": "proxyPath",
          "type": "uint16"
        },
        {
          "internalType": "bytes",
          "name": "cmd",
          "type": "bytes"
        },
        {
          "internalType": "bool",
          "name": "sudo",
          "type": "bool"
        }
      ],
      "name": "protocolCmd",
      "outputs": [],
      "stateMutability": "payable",
      "type": "function"
    }
  ],
  "bytecode": {
    "object": "0x60803461007457601f61022a38819003918201601f19168301916001600160401b038311848410176100795780849260209460405283398101031261007457516001600160a01b0381169081900361007457600080546001600160a01b03191691909117905560405161019a90816100908239f35b600080fd5b634e487b7160e01b600052604160045260246000fdfe608080604052600436101561001357600080fd5b600090813560e01c90816313fd34f4146100555750637abda6c21461003757600080fd5b34610052578060031936011261005257602060405160018152f35b80fd5b905060603660031901126101605760043561ffff811680910361015c57826024359167ffffffffffffffff9283811161015c573660238201121561015c578060040135848111610158573660248284010111610158576044358015158091036101545784546001600160a01b031692833b156101505787838793829795602460849585986304ff4d3d60e21b87526004870152606082870152826064870152018585013782820184018590526044830152601f01601f191681010301925af1801561014557610122578280f35b81116101315760405238808280f35b634e487b7160e01b82526041600452602482fd5b6040513d85823e3d90fd5b8580fd5b8480fd5b8380fd5b8280fd5b5080fdfea26469706673582212203a60e7e83551b0564eb6607b4a48f13e4c2b6f2b66843e7075932c6e9a7ecd6e64736f6c63430008130033",
    "linkReferences": {}
  },
  "methodIdentifiers": {
    "acceptsCrocAuthority()": "7abda6c2",
    "protocolCmd(uint16,bytes,bool)": "13fd34f4"
  },
  "id": 63
}