{
  "abi": [
    {
      "inputs": [],
      "name": "acceptCrocDex",
      "outputs": [
        {
          "internalType": "bool",
          "name": "",
          "type": "bool"
        }
      ],
      "stateMutability": "pure",
      "type": "function"
    },
    {
      "inputs": [
        {
          "internalType": "uint256",
          "name": "",
          "type": "uint256"
        }
      ],
      "name": "callers_",
      "outputs": [
        {
          "internalType": "address",
          "name": "",
          "type": "address"
        }
      ],
      "stateMutability": "view",
      "type": "function"
    },
    {
      "inputs": [
        {
          "internalType": "uint256",
          "name": "",
          "type": "uint256"
        }
      ],
      "name": "paths_",
      "outputs": [
        {
          "internalType": "uint16",
          "name": "",
          "type": "uint16"
        }
      ],
      "stateMutability": "view",
      "type": "function"
    },
    {
      "inputs": [
        {
          "internalType": "uint256",
          "name": "",
          "type": "uint256"
        }
      ],
      "name": "protoCmds_",
      "outputs": [
        {
          "internalType": "bytes",
          "name": "",
          "type": "bytes"
        }
      ],
      "stateMutability": "view",
      "type": "function"
    },
    {
      "inputs": [
        {
          "internalType": "uint16",
          "name": "proxyPath",
          "type": "uint16"
        },
        {
          "internalType": "bytes",
          "name": "cmd",
          "type": "bytes"
        },
        {
          "internalType": "bool",
          "name": "sudo",
          "type": "bool"
        }
      ],
      "name": "protocolCmd",
      "outputs": [],
      "stateMutability": "payable",
      "type": "function"
    },
    {
      "inputs": [
        {
          "internalType": "uint256",
          "name": "",
          "type": "uint256"
        }
      ],
      "name": "sudos_",
      "outputs": [
        {
          "internalType": "bool",
          "name": "",
          "type": "bool"
        }
      ],
      "stateMutability": "view",
      "type": "function"
    },
    {
      "inputs": [
        {
          "internalType": "uint16",
          "name": "proxyPath",
          "type": "uint16"
        },
        {
          "internalType": "bytes",
          "name": "cmd",
          "type": "bytes"
        }
      ],
      "name": "userCmd",
      "outputs": [
        {
          "internalType": "bytes",
          "name": "",
          "type": "bytes"
        }
      ],
      "stateMutability": "payable",
      "type": "function"
    },
    {
      "inputs": [
        {
          "internalType": "uint256",
          "name": "",
          "type": "uint256"
        }
      ],
      "name": "userCmds_",
      "outputs": [
        {
          "internalType": "bytes",
          "name": "",
          "type": "bytes"
        }
      ],
      "stateMutability": "view",
      "type": "function"
    }
  ],
  "bytecode": {
    "object": "0x6080806040523461001657610953908161001c8239f35b600080fdfe6040608081526004908136101561001557600080fd5b600091823560e01c806312ef9ffc1461063157806313fd34f4146104085780632365c67a146103a757806372eba25f146103515780637c5196251461033157806380f6c627146102e4578063a15112f9146100da5763c7927e841461007957600080fd5b346100d65760203660031901126100d657356001548110156100d6576100c79060016100d294527fb10e2d527612073b26eecdfd717e6a320cf44b4afac2b0732d9fcbe2b7fa0cf60161073f565b90519182918261080a565b0390f35b8280fd5b5090806003193601126100d6576100ef6106c1565b67ffffffffffffffff93906024358581116100d65761011461011c91369087016106d7565b919092610853565b825490600160401b8210156102d1576001918281018086558110156102be578480527f290decd9548b62a8d60345a988386fc84ba6bc95484008f6362f93160ef3e56301928782116102ab576101728454610705565b601f8111610263575b508490601f83116001146101fd5792829391839287946101f2575b50501b916000199060031b1c19161790555b6101b1326108b9565b8151928184526020840194848610908611176101df575050829052601f19906101da818461080a565b030190f35b634e487b7160e01b825260419052602490fd5b013592503880610196565b601f19831691858752836020938489209489905b88838310610249575050501061022f575b505050811b0190556101a8565b0135600019600384901b60f8161c19169055388080610222565b868601358855909601959384019387935090810190610211565b84865260208620601f840160051c810191602085106102a1575b601f0160051c019084905b82811061029657505061017b565b878155018490610288565b909150819061027d565b634e487b7160e01b855260418752602485fd5b634e487b7160e01b855260328752602485fd5b634e487b7160e01b845260418652602484fd5b50346100d65760203660031901126100d6573582548110156100d6576100c790836100d294527f290decd9548b62a8d60345a988386fc84ba6bc95484008f6362f93160ef3e5630161073f565b50503461034d578160031936011261034d576020905160018152f35b5080fd5b50346100d65760203660031901126100d657356003548110156100d65760036020935260018060a01b03907fc2575a0e9e593c00f959f8c92f12db2869c3395a3b0502d05e2516446f71f85b0154169051908152f35b5090346100d65760203660031901126100d6578135600254811015610404579060f061ffff9260026020965280851c7f405787fa12a823e0f2b7631cc41b3ba8828b3321ca811111fa75cd3aa3bb5ace01549251941b161c168152f35b8380fd5b5082606036600319011261062e5761041e6106c1565b67ffffffffffffffff6024358181116104045761043e90369086016106d7565b90916044359384151580950361062a5761045790610853565b600191825493600160401b948581101561061757848101808655811015610604578488527fb10e2d527612073b26eecdfd717e6a320cf44b4afac2b0732d9fcbe2b7fa0cf6019282116105f15781906104b08454610705565b601f811161059f575b508790601f831160011461053957889261052e575b5050600019600383901b1c191690831b1790555b6104eb326108b9565b84549182101561051b57810184556105029061066e565b60ff80839493549260031b9316831b921b191617905580f35b634e487b7160e01b845260418552602484fd5b0135905088806104ce565b8489526020808a208795509290601f198516908b905b828210610586575050841161056c575b505050811b0190556104e2565b0135600019600384901b60f8161c1916905588808061055f565b838501358655899790950194928301929081019061054f565b90915083885260208820601f840160051c810191602085106105e7575b84939291601f88920160051c01915b8281106105d95750506104b9565b8a81558594508791016105cb565b90915081906105bc565b634e487b7160e01b875260418852602487fd5b634e487b7160e01b885260328952602488fd5b634e487b7160e01b885260418952602488fd5b8580fd5b80fd5b50913461062e57602036600319011261062e578235925483101561062e575060ff61065d60209361066e565b92905490519260031b1c1615158152f35b906004548210156106ab576004600052601f8260051c7f8a35acfbc15ff81a39ae7d344fd709f28e8600b4aa8c65c6b64bfe7fe36bd19b01921690565b634e487b7160e01b600052603260045260246000fd5b6004359061ffff821682036106d257565b600080fd5b9181601f840112156106d25782359167ffffffffffffffff83116106d257602083818601950101116106d257565b90600182811c92168015610735575b602083101461071f57565b634e487b7160e01b600052602260045260246000fd5b91607f1691610714565b6040519060009080549061075282610705565b9081855260019283811690816000146107e957506001146107ac575b505050819003601f01601f1916810167ffffffffffffffff8111828210176107965760405290565b634e487b7160e01b600052604160045260246000fd5b9092506000526020918260002091836000935b8385106107d5575050505082010138808061076e565b8054878601830152930192849082016107bf565b92935050506020925060ff191682840152151560051b82010138808061076e565b6020808252825181830181905290939260005b82811061083f57505060409293506000838284010152601f8019910116010190565b81810186015184820160400152850161081d565b60025490600160401b8210156107965760018201806002558210156106ab5760026000528160041c7f405787fa12a823e0f2b7631cc41b3ba8828b3321ca811111fa75cd3aa3bb5ace019160f083549160041b169161ffff809116831b921b1916179055565b600354600160401b8110156107965760018101806003558110156106ab5760036000527fc2575a0e9e593c00f959f8c92f12db2869c3395a3b0502d05e2516446f71f85b0180546001600160a01b0319166001600160a01b0390921691909117905556fea264697066735822122010f8c5555980ca559ab4cd9b6ba7d65b4055b9790bdcacc99cfed400e981f16064736f6c63430008130033",
    "linkReferences": {}
  },
  "methodIdentifiers": {
    "acceptCrocDex()": "7c519625",
    "callers_(uint256)": "72eba25f",
    "paths_(uint256)": "2365c67a",
    "protoCmds_(uint256)": "c7927e84",
    "protocolCmd(uint16,bytes,bool)": "13fd34f4",
    "sudos_(uint256)": "12ef9ffc",
    "userCmd(uint16,bytes)": "a15112f9",
    "userCmds_(uint256)": "80f6c627"
  },
  "id": 63
}