{
  "abi": [
    {
      "inputs": [
        {
          "internalType": "address",
          "name": "dex",
          "type": "address"
        }
      ],
      "stateMutability": "nonpayable",
      "type": "constructor"
    },
    {
      "anonymous": false,
      "inputs": [
        {
          "indexed": false,
          "internalType": "address",
          "name": "minion",
          "type": "address"
        },
        {
          "indexed": false,
          "internalType": "string",
          "name": "reason",
          "type": "string"
        }
      ],
      "name": "CrocEmergencyHalt",
      "type": "event"
    },
    {
      "anonymous": false,
      "inputs": [
        {
          "indexed": false,
          "internalType": "address",
          "name": "ops",
          "type": "address"
        },
        {
          "indexed": false,
          "internalType": "address",
          "name": "treasury",
          "type": "address"
        },
        {
          "indexed": false,
          "internalType": "address",
          "name": "emergency",
          "type": "address"
        }
      ],
      "name": "CrocGovernAuthority",
      "type": "event"
    },
    {
      "anonymous": false,
      "inputs": [
        {
          "indexed": false,
          "internalType": "address",
          "name": "conduit",
          "type": "address"
        },
        {
          "indexed": false,
          "internalType": "string",
          "name": "reason",
          "type": "string"
        }
      ],
      "name": "CrocPolicyEmergency",
      "type": "event"
    },
    {
      "anonymous": false,
      "inputs": [
        {
          "indexed": false,
          "internalType": "address",
          "name": "conduit",
          "type": "address"
        },
        {
          "indexed": false,
          "internalType": "uint16",
          "name": "proxyPath",
          "type": "uint16"
        },
        {
          "components": [
            {
              "internalType": "bytes32",
              "name": "cmdFlags_",
              "type": "bytes32"
            },
            {
              "internalType": "uint32",
              "name": "mandateTime_",
              "type": "uint32"
            },
            {
              "internalType": "uint32",
              "name": "expiryOffset_",
              "type": "uint32"
            }
          ],
          "indexed": false,
          "internalType": "struct CrocPolicy.PolicyRule",
          "name": "",
          "type": "tuple"
        }
      ],
      "name": "CrocPolicyForce",
      "type": "event"
    },
    {
      "anonymous": false,
      "inputs": [
        {
          "indexed": false,
          "internalType": "address",
          "name": "conduit",
          "type": "address"
        },
        {
          "indexed": false,
          "internalType": "uint16",
          "name": "proxyPath",
          "type": "uint16"
        },
        {
          "components": [
            {
              "internalType": "bytes32",
              "name": "cmdFlags_",
              "type": "bytes32"
            },
            {
              "internalType": "uint32",
              "name": "mandateTime_",
              "type": "uint32"
            },
            {
              "internalType": "uint32",
              "name": "expiryOffset_",
              "type": "uint32"
            }
          ],
          "indexed": false,
          "internalType": "struct CrocPolicy.PolicyRule",
          "name": "",
          "type": "tuple"
        }
      ],
      "name": "CrocPolicySet",
      "type": "event"
    },
    {
      "anonymous": false,
      "inputs": [
        {
          "indexed": false,
          "internalType": "address",
          "name": "minion",
          "type": "address"
        },
        {
          "indexed": false,
          "internalType": "bytes",
          "name": "cmd",
          "type": "bytes"
        }
      ],
      "name": "CrocResolutionOps",
      "type": "event"
    },
    {
      "anonymous": false,
      "inputs": [
        {
          "indexed": false,
          "internalType": "address",
          "name": "minion",
          "type": "address"
        },
        {
          "indexed": false,
          "internalType": "bool",
          "name": "sudo",
          "type": "bool"
        },
        {
          "indexed": false,
          "internalType": "bytes",
          "name": "cmd",
          "type": "bytes"
        }
      ],
      "name": "CrocResolutionTreasury",
      "type": "event"
    },
    {
      "inputs": [],
      "name": "acceptsCrocAuthority",
      "outputs": [
        {
          "internalType": "bool",
          "name": "",
          "type": "bool"
        }
      ],
      "stateMutability": "pure",
      "type": "function"
    },
    {
      "inputs": [],
      "name": "dex_",
      "outputs": [
        {
          "internalType": "address",
          "name": "",
          "type": "address"
        }
      ],
      "stateMutability": "view",
      "type": "function"
    },
    {
      "inputs": [],
      "name": "emergencyAuthority_",
      "outputs": [
        {
          "internalType": "address",
          "name": "",
          "type": "address"
        }
      ],
      "stateMutability": "view",
      "type": "function"
    },
    {
      "inputs": [
        {
          "internalType": "address",
          "name": "minion",
          "type": "address"
        },
        {
          "internalType": "string",
          "name": "reason",
          "type": "string"
        }
      ],
      "name": "emergencyHalt",
      "outputs": [],
      "stateMutability": "nonpayable",
      "type": "function"
    },
    {
      "inputs": [
        {
          "internalType": "address",
          "name": "conduit",
          "type": "address"
        },
        {
          "internalType": "uint16",
          "name": "proxyPath",
          "type": "uint16"
        },
        {
          "internalType": "string",
          "name": "reason",
          "type": "string"
        }
      ],
      "name": "emergencyReset",
      "outputs": [],
      "stateMutability": "nonpayable",
      "type": "function"
    },
    {
      "inputs": [
        {
          "internalType": "address",
          "name": "conduit",
          "type": "address"
        },
        {
          "internalType": "uint16",
          "name": "proxyPath",
          "type": "uint16"
        },
        {
          "components": [
            {
              "internalType": "bytes32",
              "name": "cmdFlags_",
              "type": "bytes32"
            },
            {
              "internalType": "uint32",
              "name": "mandateTime_",
              "type": "uint32"
            },
            {
              "internalType": "uint32",
              "name": "expiryOffset_",
              "type": "uint32"
            }
          ],
          "internalType": "struct CrocPolicy.PolicyRule",
          "name": "policy",
          "type": "tuple"
        }
      ],
      "name": "forcePolicy",
      "outputs": [],
      "stateMutability": "nonpayable",
      "type": "function"
    },
    {
      "inputs": [
        {
          "internalType": "address",
          "name": "minion",
          "type": "address"
        },
        {
          "internalType": "uint16",
          "name": "proxyPath",
          "type": "uint16"
        },
        {
          "internalType": "bytes",
          "name": "cmd",
          "type": "bytes"
        }
      ],
      "name": "invokePolicy",
      "outputs": [],
      "stateMutability": "nonpayable",
      "type": "function"
    },
    {
      "inputs": [],
      "name": "opsAuthority_",
      "outputs": [
        {
          "internalType": "address",
          "name": "",
          "type": "address"
        }
      ],
      "stateMutability": "view",
      "type": "function"
    },
    {
      "inputs": [
        {
          "internalType": "address",
          "name": "minion",
          "type": "address"
        },
        {
          "internalType": "uint16",
          "name": "proxyPath",
          "type": "uint16"
        },
        {
          "internalType": "bytes",
          "name": "cmd",
          "type": "bytes"
        }
      ],
      "name": "opsResolution",
      "outputs": [],
      "stateMutability": "nonpayable",
      "type": "function"
    },
    {
      "inputs": [
        {
          "components": [
            {
              "internalType": "bytes32",
              "name": "cmdFlags_",
              "type": "bytes32"
            },
            {
              "internalType": "uint32",
              "name": "mandateTime_",
              "type": "uint32"
            },
            {
              "internalType": "uint32",
              "name": "expiryOffset_",
              "type": "uint32"
            }
          ],
          "internalType": "struct CrocPolicy.PolicyRule",
          "name": "policy",
          "type": "tuple"
        },
        {
          "internalType": "bytes",
          "name": "protocolCmd",
          "type": "bytes"
        }
      ],
      "name": "passesPolicy",
      "outputs": [
        {
          "internalType": "bool",
          "name": "",
          "type": "bool"
        }
      ],
      "stateMutability": "view",
      "type": "function"
    },
    {
      "inputs": [
        {
          "internalType": "bytes32",
          "name": "",
          "type": "bytes32"
        }
      ],
      "name": "rules_",
      "outputs": [
        {
          "internalType": "bytes32",
          "name": "cmdFlags_",
          "type": "bytes32"
        },
        {
          "internalType": "uint32",
          "name": "mandateTime_",
          "type": "uint32"
        },
        {
          "internalType": "uint32",
          "name": "expiryOffset_",
          "type": "uint32"
        }
      ],
      "stateMutability": "view",
      "type": "function"
    },
    {
      "inputs": [
        {
          "internalType": "address",
          "name": "conduit",
          "type": "address"
        },
        {
          "internalType": "uint16",
          "name": "proxyPath",
          "type": "uint16"
        },
        {
          "components": [
            {
              "internalType": "bytes32",
              "name": "cmdFlags_",
              "type": "bytes32"
            },
            {
              "internalType": "uint32",
              "name": "mandateTime_",
              "type": "uint32"
            },
            {
              "internalType": "uint32",
              "name": "expiryOffset_",
              "type": "uint32"
            }
          ],
          "internalType": "struct CrocPolicy.PolicyRule",
          "name": "policy",
          "type": "tuple"
        }
      ],
      "name": "setPolicy",
      "outputs": [],
      "stateMutability": "nonpayable",
      "type": "function"
    },
    {
      "inputs": [
        {
          "internalType": "address",
          "name": "ops",
          "type": "address"
        },
        {
          "internalType": "address",
          "name": "treasury",
          "type": "address"
        },
        {
          "internalType": "address",
          "name": "emergency",
          "type": "address"
        }
      ],
      "name": "transferGovernance",
      "outputs": [],
      "stateMutability": "nonpayable",
      "type": "function"
    },
    {
      "inputs": [],
      "name": "treasuryAuthority_",
      "outputs": [
        {
          "internalType": "address",
          "name": "",
          "type": "address"
        }
      ],
      "stateMutability": "view",
      "type": "function"
    },
    {
      "inputs": [
        {
          "internalType": "address",
          "name": "minion",
          "type": "address"
        },
        {
          "internalType": "uint16",
          "name": "proxyPath",
          "type": "uint16"
        },
        {
          "internalType": "bytes",
          "name": "cmd",
          "type": "bytes"
        },
        {
          "internalType": "bool",
          "name": "sudo",
          "type": "bool"
        }
      ],
      "name": "treasuryResolution",
      "outputs": [],
      "stateMutability": "nonpayable",
      "type": "function"
    }
  ],
  "bytecode": {
    "object": "0x60a08060405234620001625780620010bb803803809162000021828562000167565b8339602092839181010312620001625751906001600160a01b0382168083036200016257818115159182620000e0575b5050156200009c575060805260018060a01b0319338160005416176000553381600154161760015533906002541617600255604051610f199081620001a282396080518161041c0152f35b6064906040519062461bcd60e51b82526004820152601360248201527f496e76616c69642043726f6353776170446578000000000000000000000000006044820152fd5b604051637c51962560e01b81529250829060049082905afa908115620001565760009162000112575b50813862000051565b8281813d83116200014e575b6200012a818362000167565b810103126200014a57519081151582036200014757503862000109565b80fd5b5080fd5b503d6200011e565b6040513d6000823e3d90fd5b600080fd5b601f909101601f19168101906001600160401b038211908210176200018b57604052565b634e487b7160e01b600052604160045260246000fdfe6040608081526004908136101561001557600080fd5b600091823560e01c80631882ad621461096b57806323de6f8714610943578381632dc2eff81461088557508063456a3d6f146107fb5780636573b80f146107d25780636716c1cc146106c7578063700a618e1461058d57806370ba1529146104675780637abda6c21461044b57806387834a0e146104075780638e6b5b33146103de57806393b890df14610349578063b30017f4146102c7578063cdb3453c146101105763e7db7f9f146100c857600080fd5b3461010c57602036600319011261010c5760609282913581526003602052209060018254920154815192835263ffffffff90818116602085015260201c1690820152f35b8280fd5b508290346102c35761012136610bb2565b94909261014960018060a01b038087541633149081156102b4575b81156102a6575b50610c33565b6101538484610dd6565b9081865260206003815283872091600185519361016f85610b63565b8054855201549163ffffffff838180951683870152821c168685015260608a3603126102a15789948651926101a384610b63565b6101d287359485815289858a01996101ba8b610ba1565b8784015201976101c989610ba1565b8b830152610e09565b156102665750936102569361022360018c9d98958a8e7f9db47c8c8636da96a1df945f58d55cc519c7084ae7a7d6e0ecfbf1c9fb76a66a9f610235986102609e9c6003925252209081550194610d75565b1663ffffffff19845416178355610d75565b67ffffffff0000000082549160201b169067ffffffff000000001916179055565b5193849384610d86565b0390a180f35b875162461bcd60e51b81529081018390526015602482015274496c6c6567616c20706f6c6963792075706461746560581b6044820152606490fd5b600080fd5b905060025416331488610143565b8091506001541633149061013c565b5080fd5b5050346102c3576103207fa84bd1a75985fc693b6bd5f451f205fa38e3a6fab55022536eeea4720bac5e70916102606102ff36610ae7565b92949161031a60018060a09994991b03600254163314610cb8565b85610dd6565b87526003602052808720878155600101805467ffffffffffffffff191690555193849384610cfa565b5050346102c3576102607fdfed5e9490fcd70799fe5d612accbb12924f4cc19d4e63b33999b545a75b2bde9161037e36610bb2565b9093919261039760018060a01b03600154163314610bf2565b6103a18585610dd6565b875260036020526102566001828920843581550163ffffffff6103c660208601610d75565b1663ffffffff19825416178155610235838501610d75565b5050346102c357816003193601126102c35760015490516001600160a01b039091168152602090f35b5050346102c357816003193601126102c357517f00000000000000000000000000000000000000000000000000000000000000006001600160a01b03168152602090f35b5050346102c357816003193601126102c3576020905160018152f35b509190346102c35761047836610ae7565b8451336020820190815261ffff851660408301529497919594919391906104ac81606081015b03601f198101835282610b7f565b519020865260036020526104ed858386892060018851916104cc83610b63565b80548352015463ffffffff90818116602084015260201c1688820152610e54565b1561055757859660018060a01b031690813b15610553578680946105248751988996879586946304ff4d3d60e21b86528501610c90565b03925af190811561054a57506105375750f35b61054090610b39565b6105475780f35b80fd5b513d84823e3d90fd5b8680fd5b835162461bcd60e51b8152602081850152601060248201526f506f6c69637920617574686f7269747960801b6044820152606490fd5b503461010c57606036600319011261010c576105a7610aa3565b6001600160a01b03929060243584811691908290036102a157604435908582168092036102a157818796600154926105e28285163314610bf2565b1691846bffffffffffffffffffffffff60a01b809285828c5416178b5516176001556002541617600255823b156106a55783518681878183630e18b68160e01b988983525af180156106bd579087916106a9575b5050803b156106a557858091868651809481938883525af1801561069b57908691610687575b5050803b1561068357849384928451958693849283525af190811561054a57506105375750f35b8480fd5b61069090610b39565b61068357843861065c565b84513d88823e3d90fd5b8580fd5b6106b290610b39565b6106a5578538610636565b85513d89823e3d90fd5b503461010c57608036600319011261010c576106e1610aa3565b916024359161ffff83168093036102a157849360443567ffffffffffffffff81116106a5576107139036908401610ab9565b9190946064358015158091036107ce577f41e689c029f5bbbb232f1cc7e727507291edb0a799c4c946c9871d83d0483ccb60018060a01b0361075a81600154163314610bf2565b87519416938481528260208201526060888201528061077d60608201888c610c6f565b0390a1823b156107ce57879485916107b58851998a97889687956304ff4d3d60e21b8752860152606060248601526064850191610c6f565b90604483015203925af190811561054a57506105375750f35b8780fd5b5050346102c357816003193601126102c35760025490516001600160a01b039091168152602090f35b503461010c57366003190160808112610881576060136102a15781519261082184610b63565b8135845263ffffffff60243581811681036102a157602086015260443590811681036102a157838501526064359067ffffffffffffffff821161054757509261087261087892602095369101610ab9565b91610e54565b90519015158152f35b8380fd5b9290503461093f5761089636610ae7565b949290917f6e93cf8fe62d42e71a2be801878ed6091e4f46d8fa968a2244f1fbecd0323fdf60018060a01b038089541633148015610932575b8015610925575b6108df90610c33565b8651931692838152866020820152806108fb8882018a88610c6f565b0390a1813b15610553578680946105248751988996879586946304ff4d3d60e21b86528501610c90565b50600254811633146108d6565b50806001541633146108cf565b5050fd5b5050346102c357816003193601126102c357905490516001600160a01b039091168152602090f35b508290346102c357826003193601126102c357610986610aa3565b9260243567ffffffffffffffff8111610881576109c77f9d9040f16fd81fa6850a0fb7af77b009f9cf07f47dd0970258b8f5745b61f9349136908501610ab9565b6002546001600160a01b039392906109e29085163314610cb8565b6109f185519283928a84610cfa565b0390a1815194601660208701528483870152828652610a0f86610b63565b1693843b1561088157815194848680610a356304ff4d3d60e21b95868352888301610d1f565b038183855af18015610a9957610a85575b84955082519060176020830152600184830152838252610a6582610b63565b803b156106a5576105249486809486519788958694859384528301610d1f565b939094610a9190610b39565b928490610a46565b83513d87823e3d90fd5b600435906001600160a01b03821682036102a157565b9181601f840112156102a15782359167ffffffffffffffff83116102a157602083818601950101116102a157565b60606003198201126102a1576004356001600160a01b03811681036102a1579160243561ffff811681036102a157916044359067ffffffffffffffff82116102a157610b3591600401610ab9565b9091565b67ffffffffffffffff8111610b4d57604052565b634e487b7160e01b600052604160045260246000fd5b6060810190811067ffffffffffffffff821117610b4d57604052565b90601f8019910116810190811067ffffffffffffffff821117610b4d57604052565b359063ffffffff821682036102a157565b60a06003198201126102a1576004356001600160a01b03811681036102a1579160243561ffff811681036102a1576060909260431901126102a157604490565b15610bf957565b60405162461bcd60e51b8152602060048201526012602482015271547265617375727920417574686f7269747960701b6044820152606490fd5b15610c3a57565b60405162461bcd60e51b815260206004820152600d60248201526c4f707320417574686f7269747960981b6044820152606490fd5b908060209392818452848401376000828201840152601f01601f1916010190565b9392600092610cb39161ffff604094168752606060208801526060870191610c6f565b930152565b15610cbf57565b60405162461bcd60e51b8152602060048201526013602482015272456d657267656e637920417574686f7269747960681b6044820152606490fd5b6001600160a01b039091168152604060208201819052610d1c93910191610c6f565b90565b919060038352602060608185015281519182606086015260005b838110610d6157505050604060808260008260019588010152601f8019910116850101930152565b818101830151868201608001528201610d39565b3563ffffffff811681036102a15790565b919261ffff608092959460a085019660018060a01b0316855216602084015280356040840152610dd0604063ffffffff9283610dc460208301610ba1565b16606087015201610ba1565b16910152565b604080516001600160a01b039092166020830190815261ffff90931690820152610e03816060810161049e565b51902090565b9060209082518151191615908263ffffffff80948193015116940151168093821592610e4a575b5050610e3d575050600190565b610e45610ed2565b161190565b1090508238610e30565b9091610e5e610ed2565b63ffffffff806020850151168160408601511601818111610ebc57811691161015610eb457601f1015610e9e57601f6001915192013560f81c1b16151590565b634e487b7160e01b600052603260045260246000fd5b505050600090565b634e487b7160e01b600052601160045260246000fd5b63ffffffff804211610d1c5742169056fea264697066735822122012b6b23081d4a4a322d8da084f0cd2d5f1775209d8f806e49223f51653b18d9664736f6c63430008130033",
    "linkReferences": {}
  },
  "methodIdentifiers": {
    "acceptsCrocAuthority()": "7abda6c2",
    "dex_()": "87834a0e",
    "emergencyAuthority_()": "6573b80f",
    "emergencyHalt(address,string)": "1882ad62",
    "emergencyReset(address,uint16,string)": "b30017f4",
    "forcePolicy(address,uint16,(bytes32,uint32,uint32))": "93b890df",
    "invokePolicy(address,uint16,bytes)": "70ba1529",
    "opsAuthority_()": "23de6f87",
    "opsResolution(address,uint16,bytes)": "2dc2eff8",
    "passesPolicy((bytes32,uint32,uint32),bytes)": "456a3d6f",
    "rules_(bytes32)": "e7db7f9f",
    "setPolicy(address,uint16,(bytes32,uint32,uint32))": "cdb3453c",
    "transferGovernance(address,address,address)": "700a618e",
    "treasuryAuthority_()": "8e6b5b33",
    "treasuryResolution(address,uint16,bytes,bool)": "6716c1cc"
  },
  "id": 11
}