{
  "abi": [
    {
      "inputs": [],
      "name": "baseFlow",
      "outputs": [
        {
          "internalType": "uint256",
          "name": "",
          "type": "uint256"
        }
      ],
      "stateMutability": "view",
      "type": "function"
    },
    {
      "inputs": [
        {
          "internalType": "uint256",
          "name": "poolIdx",
          "type": "uint256"
        },
        {
          "internalType": "uint64",
          "name": "ambient",
          "type": "uint64"
        },
        {
          "internalType": "uint64",
          "name": "conc",
          "type": "uint64"
        }
      ],
      "name": "fixAccum",
      "outputs": [],
      "stateMutability": "nonpayable",
      "type": "function"
    },
    {
      "inputs": [
        {
          "internalType": "uint256",
          "name": "poolIdx",
          "type": "uint256"
        },
        {
          "internalType": "uint128",
          "name": "price",
          "type": "uint128"
        },
        {
          "internalType": "uint128",
          "name": "ambientLiq",
          "type": "uint128"
        },
        {
          "internalType": "uint128",
          "name": "concLiq",
          "type": "uint128"
        }
      ],
      "name": "fixCurve",
      "outputs": [],
      "stateMutability": "nonpayable",
      "type": "function"
    },
    {
      "inputs": [],
      "name": "lastSwap",
      "outputs": [
        {
          "internalType": "uint128",
          "name": "qtyLeft_",
          "type": "uint128"
        },
        {
          "internalType": "int128",
          "name": "paidBase_",
          "type": "int128"
        },
        {
          "internalType": "int128",
          "name": "paidQuote_",
          "type": "int128"
        },
        {
          "internalType": "uint128",
          "name": "paidProto_",
          "type": "uint128"
        },
        {
          "components": [
            {
              "internalType": "bool",
              "name": "isBuy_",
              "type": "bool"
            },
            {
              "internalType": "bool",
              "name": "inBaseQty_",
              "type": "bool"
            },
            {
              "internalType": "uint16",
              "name": "feeRate_",
              "type": "uint16"
            },
            {
              "internalType": "uint8",
              "name": "protoCut_",
              "type": "uint8"
            }
          ],
          "internalType": "struct TestLiquidityCurve.SwapFrame",
          "name": "cntx_",
          "type": "tuple"
        }
      ],
      "stateMutability": "view",
      "type": "function"
    },
    {
      "inputs": [
        {
          "internalType": "uint256",
          "name": "poolIdx",
          "type": "uint256"
        }
      ],
      "name": "pullCurve",
      "outputs": [
        {
          "components": [
            {
              "internalType": "uint128",
              "name": "priceRoot_",
              "type": "uint128"
            },
            {
              "internalType": "uint128",
              "name": "ambientSeeds_",
              "type": "uint128"
            },
            {
              "internalType": "uint128",
              "name": "concLiq_",
              "type": "uint128"
            },
            {
              "internalType": "uint64",
              "name": "seedDeflator_",
              "type": "uint64"
            },
            {
              "internalType": "uint64",
              "name": "concGrowth_",
              "type": "uint64"
            }
          ],
          "internalType": "struct CurveMath.CurveState",
          "name": "",
          "type": "tuple"
        }
      ],
      "stateMutability": "view",
      "type": "function"
    },
    {
      "inputs": [
        {
          "internalType": "uint256",
          "name": "poolIdx",
          "type": "uint256"
        }
      ],
      "name": "pullTotalLiq",
      "outputs": [
        {
          "internalType": "uint128",
          "name": "",
          "type": "uint128"
        }
      ],
      "stateMutability": "view",
      "type": "function"
    },
    {
      "inputs": [],
      "name": "quoteFlow",
      "outputs": [
        {
          "internalType": "uint256",
          "name": "",
          "type": "uint256"
        }
      ],
      "stateMutability": "view",
      "type": "function"
    },
    {
      "inputs": [
        {
          "internalType": "uint256",
          "name": "poolIdx",
          "type": "uint256"
        },
        {
          "internalType": "uint128",
          "name": "liqSeed",
          "type": "uint128"
        }
      ],
      "name": "testLiqPayAmb",
      "outputs": [],
      "stateMutability": "nonpayable",
      "type": "function"
    },
    {
      "inputs": [
        {
          "internalType": "uint256",
          "name": "poolIdx",
          "type": "uint256"
        },
        {
          "internalType": "uint128",
          "name": "liq",
          "type": "uint128"
        },
        {
          "internalType": "uint128",
          "name": "lower",
          "type": "uint128"
        },
        {
          "internalType": "uint128",
          "name": "upper",
          "type": "uint128"
        },
        {
          "internalType": "uint64",
          "name": "rewards",
          "type": "uint64"
        }
      ],
      "name": "testLiqPayConc",
      "outputs": [],
      "stateMutability": "nonpayable",
      "type": "function"
    },
    {
      "inputs": [
        {
          "internalType": "uint256",
          "name": "poolIdx",
          "type": "uint256"
        },
        {
          "internalType": "uint128",
          "name": "liq",
          "type": "uint128"
        },
        {
          "internalType": "int24",
          "name": "lower",
          "type": "int24"
        },
        {
          "internalType": "int24",
          "name": "upper",
          "type": "int24"
        }
      ],
      "name": "testLiqPayTicks",
      "outputs": [],
      "stateMutability": "nonpayable",
      "type": "function"
    },
    {
      "inputs": [
        {
          "internalType": "uint256",
          "name": "poolIdx",
          "type": "uint256"
        },
        {
          "internalType": "uint128",
          "name": "liqSeed",
          "type": "uint128"
        }
      ],
      "name": "testLiqRecAmb",
      "outputs": [],
      "stateMutability": "nonpayable",
      "type": "function"
    },
    {
      "inputs": [
        {
          "internalType": "uint256",
          "name": "poolIdx",
          "type": "uint256"
        },
        {
          "internalType": "uint128",
          "name": "liq",
          "type": "uint128"
        },
        {
          "internalType": "uint128",
          "name": "lower",
          "type": "uint128"
        },
        {
          "internalType": "uint128",
          "name": "upper",
          "type": "uint128"
        }
      ],
      "name": "testLiqRecConc",
      "outputs": [],
      "stateMutability": "nonpayable",
      "type": "function"
    },
    {
      "inputs": [
        {
          "internalType": "uint256",
          "name": "poolIdx",
          "type": "uint256"
        },
        {
          "internalType": "uint128",
          "name": "liq",
          "type": "uint128"
        },
        {
          "internalType": "int24",
          "name": "lower",
          "type": "int24"
        },
        {
          "internalType": "int24",
          "name": "upper",
          "type": "int24"
        }
      ],
      "name": "testLiqRecTicks",
      "outputs": [],
      "stateMutability": "nonpayable",
      "type": "function"
    },
    {
      "inputs": [
        {
          "internalType": "uint256",
          "name": "poolIdx",
          "type": "uint256"
        },
        {
          "components": [
            {
              "internalType": "uint128",
              "name": "qtyLeft_",
              "type": "uint128"
            },
            {
              "internalType": "int128",
              "name": "paidBase_",
              "type": "int128"
            },
            {
              "internalType": "int128",
              "name": "paidQuote_",
              "type": "int128"
            },
            {
              "internalType": "uint128",
              "name": "paidProto_",
              "type": "uint128"
            },
            {
              "components": [
                {
                  "internalType": "bool",
                  "name": "isBuy_",
                  "type": "bool"
                },
                {
                  "internalType": "bool",
                  "name": "inBaseQty_",
                  "type": "bool"
                },
                {
                  "internalType": "uint16",
                  "name": "feeRate_",
                  "type": "uint16"
                },
                {
                  "internalType": "uint8",
                  "name": "protoCut_",
                  "type": "uint8"
                }
              ],
              "internalType": "struct TestLiquidityCurve.SwapFrame",
              "name": "cntx_",
              "type": "tuple"
            }
          ],
          "internalType": "struct TestLiquidityCurve.SwapAccum",
          "name": "accum",
          "type": "tuple"
        },
        {
          "internalType": "uint128",
          "name": "bumpPrice",
          "type": "uint128"
        },
        {
          "internalType": "uint128",
          "name": "swapLimit",
          "type": "uint128"
        }
      ],
      "name": "testSwap",
      "outputs": [],
      "stateMutability": "nonpayable",
      "type": "function"
    },
    {
      "inputs": [
        {
          "internalType": "uint256",
          "name": "poolIdx",
          "type": "uint256"
        },
        {
          "components": [
            {
              "internalType": "uint128",
              "name": "qtyLeft_",
              "type": "uint128"
            },
            {
              "internalType": "int128",
              "name": "paidBase_",
              "type": "int128"
            },
            {
              "internalType": "int128",
              "name": "paidQuote_",
              "type": "int128"
            },
            {
              "internalType": "uint128",
              "name": "paidProto_",
              "type": "uint128"
            },
            {
              "components": [
                {
                  "internalType": "bool",
                  "name": "isBuy_",
                  "type": "bool"
                },
                {
                  "internalType": "bool",
                  "name": "inBaseQty_",
                  "type": "bool"
                },
                {
                  "internalType": "uint16",
                  "name": "feeRate_",
                  "type": "uint16"
                },
                {
                  "internalType": "uint8",
                  "name": "protoCut_",
                  "type": "uint8"
                }
              ],
              "internalType": "struct TestLiquidityCurve.SwapFrame",
              "name": "cntx_",
              "type": "tuple"
            }
          ],
          "internalType": "struct TestLiquidityCurve.SwapAccum",
          "name": "accum",
          "type": "tuple"
        },
        {
          "internalType": "uint128",
          "name": "swapLimit",
          "type": "uint128"
        }
      ],
      "name": "testSwapBumpInf",
      "outputs": [],
      "stateMutability": "nonpayable",
      "type": "function"
    },
    {
      "inputs": [
        {
          "internalType": "uint256",
          "name": "poolIdx",
          "type": "uint256"
        },
        {
          "components": [
            {
              "internalType": "uint128",
              "name": "qtyLeft_",
              "type": "uint128"
            },
            {
              "internalType": "int128",
              "name": "paidBase_",
              "type": "int128"
            },
            {
              "internalType": "int128",
              "name": "paidQuote_",
              "type": "int128"
            },
            {
              "internalType": "uint128",
              "name": "paidProto_",
              "type": "uint128"
            },
            {
              "components": [
                {
                  "internalType": "bool",
                  "name": "isBuy_",
                  "type": "bool"
                },
                {
                  "internalType": "bool",
                  "name": "inBaseQty_",
                  "type": "bool"
                },
                {
                  "internalType": "uint16",
                  "name": "feeRate_",
                  "type": "uint16"
                },
                {
                  "internalType": "uint8",
                  "name": "protoCut_",
                  "type": "uint8"
                }
              ],
              "internalType": "struct TestLiquidityCurve.SwapFrame",
              "name": "cntx_",
              "type": "tuple"
            }
          ],
          "internalType": "struct TestLiquidityCurve.SwapAccum",
          "name": "accum",
          "type": "tuple"
        }
      ],
      "name": "testSwapLimitInf",
      "outputs": [],
      "stateMutability": "nonpayable",
      "type": "function"
    },
    {
      "inputs": [
        {
          "internalType": "uint256",
          "name": "poolIdx",
          "type": "uint256"
        },
        {
          "components": [
            {
              "internalType": "uint128",
              "name": "qtyLeft_",
              "type": "uint128"
            },
            {
              "internalType": "int128",
              "name": "paidBase_",
              "type": "int128"
            },
            {
              "internalType": "int128",
              "name": "paidQuote_",
              "type": "int128"
            },
            {
              "internalType": "uint128",
              "name": "paidProto_",
              "type": "uint128"
            },
            {
              "components": [
                {
                  "internalType": "bool",
                  "name": "isBuy_",
                  "type": "bool"
                },
                {
                  "internalType": "bool",
                  "name": "inBaseQty_",
                  "type": "bool"
                },
                {
                  "internalType": "uint16",
                  "name": "feeRate_",
                  "type": "uint16"
                },
                {
                  "internalType": "uint8",
                  "name": "protoCut_",
                  "type": "uint8"
                }
              ],
              "internalType": "struct TestLiquidityCurve.SwapFrame",
              "name": "cntx_",
              "type": "tuple"
            }
          ],
          "internalType": "struct TestLiquidityCurve.SwapAccum",
          "name": "accum",
          "type": "tuple"
        },
        {
          "internalType": "int24",
          "name": "bumpTick",
          "type": "int24"
        },
        {
          "internalType": "uint128",
          "name": "swapLimit",
          "type": "uint128"
        }
      ],
      "name": "testSwapTick",
      "outputs": [],
      "stateMutability": "nonpayable",
      "type": "function"
    }
  ],
  "bytecode": {
    "object": "0x6080806040523461002b5762010011805460ff60e01b1916600160e71b1790556122be90816100318239f35b600080fdfe6040608081526004908136101561001557600080fd5b600091823560e01c918262ff2d44146106e5578263378b9309146106975782633872fb8c146106545782633b05842f1461060057826348b4a4531461059c5782635d4236b21461052857826372dd308b146104f157826375d840f6146103c05782637f9c0b38146103925782638a0b8695146103235782638c1019d5146103025782638ccbb9c3146102a8578263957004d814610287578263c7edc1aa14610244578263d4ea8106146101d8578263d63202671461011457505063f63d7bec146100de57600080fd5b34610111576100f86100ef36610935565b92919091610fa3565b6001600160801b03908116620100235516620100225580f35b80fd5b909150346101d4573660031901126101d0573561015161013261081b565b61013b8361106c565b926101576101498386611437565b949093611141565b8561141e565b6101a16001600160801b03948386809516158015906101c8575b156101c05761017f906113d3565b945b848116158015906101b8575b156101b05761019b906113d3565b926110d6565b16620100235516620100225580f35b5086926110d6565b50600161018d565b508694610181565b506001610171565b5080fd5b8280fd5b8382346101d0576101203660031901126101d05761022c906101f936610831565b608081015151158015919061023957620cb14a915b1561022f576f0ffff5433e2b3d8211706e6102aa9473925b356114e4565b80f35b6201000192610226565b620a276d199161020e565b8382346101d0576101603660031901126101d05761026136610831565b90610124358060020b81036102835761022c9261027c610804565b92356114e4565b8380fd5b8390346101d057816003193601126101d05760209062010022549051908152f35b8334610111576101a16102f26102bd36610935565b9490926102c98161106c565b906102fd6102f76102e86001600160801b03998a98888a8851166111cd565b9291999097611141565b6114cc565b8461115c565b6110d6565b8390346101d057816003193601126101d05760209062010023549051908152f35b8334610111576020366003190112610111575061034b60a092610344611041565b503561106c565b8151916001600160801b0380835116845280602084015116602085015281830151169083015260806001600160401b03918260608201511660608501520151166080820152f35b8334610111576100f86103b46103ba6103aa366108f4565b9391929490610977565b92610977565b92610fa3565b8382346101d05760a03660031901126101d057356103dc61081b565b906044356001600160801b039283821682036104ed5760643584811681036104e957608435936001600160401b0385168095036104e55761045661044061042c6104268997610977565b94610977565b6104358461106c565b9486888751166111cd565b6104506102f28895939495611141565b8661115c565b819681958161046e575b50505050906101a1916110d6565b9690919296160260301c6001600160901b03888216911681036104e157879581610499575b80610460565b6104d792975084939550816104d1916104cc6104c66104be6102f2966101a19a611437565b969094611141565b8761141e565b611403565b96611403565b9290918880610493565b8880fd5b8680fd5b8580fd5b8480fd5b833461011157602036600319011261011157506001600160801b0361052061051b6020943561106c565b611b2b565b915191168152f35b8390346101d05761022c9061053c366108f4565b919093610547611041565b508387526201000f6020528087209460016105606107c9565b9601546001600160401b038160801c16606088015260c01c60808701526001600160801b039384809216602088015216908501521682526110d6565b909150346101d4573660031901126101d0576102f290356105e76105be61081b565b916105c88161106c565b906102fd6105e16105d98685611437565b979096611141565b8361141e565b6001600160801b03809216620100235516620100225580f35b8382346101d05760603660031901126101d057356024356001600160401b0391828216809203610283576044359283168093036102835761022c926106448261106c565b92606084015260808301526110d6565b8382346101d0576101603660031901126101d05761022c9061067536610831565b9061067e6107e8565b9161069061068a610804565b93610977565b91356114e4565b8382346101d0576101403660031901126101d05761022c906106b836610831565b906106c16107e8565b608083015151909290156106da57620cb14a91356114e4565b620a276d1991610226565b8390346101d057816003193601126101d0576101009060ff620100245491620100255490610711610794565b91620100265492848416151581526020810190858560081c16151582528381019261ffff94858760101c16855287606084019760201c1687528051986001600160801b0381168a5260801d600f0b60208a015281600f0b9089015260801c6060880152511515608087015251151560a0860152511660c0840152511660e0820152f35b60405190608082018281106001600160401b038211176107b357604052565b634e487b7160e01b600052604160045260246000fd5b6040519060a082018281106001600160401b038211176107b357604052565b61012435906001600160801b03821682036107ff57565b600080fd5b61014435906001600160801b03821682036107ff57565b602435906001600160801b03821682036107ff57565b906101006023198301126107ff576108476107c9565b916001600160801b039060243582811681036107ff57845260443580600f0b81036107ff57602085015260643580600f0b81036107ff57604085015260843591821682036107ff57608091606085015260a31901126107ff576108a8610794565b60a43580151581036107ff57815260c43580151581036107ff57602082015260e43561ffff811681036107ff5760408201526101043560ff811681036107ff5760608201526080830152565b60809060031901126107ff57600435906001600160801b0360243581811681036107ff579160443582811681036107ff579160643590811681036107ff5790565b60809060031901126107ff57600435906024356001600160801b03811681036107ff57906044358060020b81036107ff57906064358060020b81036107ff5790565b6001600160801b03808216916201000283101580610bf3575b156107ff57600160401b600160c01b039060401b168082811160071b9181831c926001600160401b03841160061b93841c9363ffffffff851160051b94851c9461ffff861160041b95861c60ff9687821160031b91821c92600f841160021b93841c94600160038711811b96871c119617171717171717916080831015600014610be75750607e1982011c5b8002607f928392828493841c81841c1c800280851c81851c1c800280861c81861c1c800280871c81871c1c80029081881c82881c1c80029283891c84891c1c800294858a1c868a1c1c800296878b1c888b1c1c800298898c1c8a8c1c1c80029a8b8d1c8c821c1c8002809d1c8d821c1c8002809e81901c90821c1c80029e8f80911c911c1c800260cd1c6604000000000000169d60cc1c6608000000000000169c60cb1c6610000000000000169b60ca1c6620000000000000169a60c91c6640000000000000169960c81c6680000000000000169860c71c670100000000000000169760c61c670200000000000000169660c51c670400000000000000169560c41c670800000000000000169460c31c671000000000000000169360c21c672000000000000000169260c11c674000000000000000169160c01c6780000000000000001690607f190160401b1717171717171717171717171717693627a301d71055774c8502906f028f6481ab7f045a5af012a19d003aa919820160801d60020b916fdb2df09e81959a81455e260799a0632f0160801d60020b92600091848414600014610bcd5750505090505b90565b610bd685610c2c565b16119050610be2575090565b905090565b905081607f031b610a1c565b506f0ffff5433e2b3d8211706e6102aa94728310610990565b8115610c16570490565b634e487b7160e01b600052601260045260246000fd5b60020b620a276d1981121580610f96575b156107ff576000811215610f905780600003905b6001821615610f7e576001600160881b036ffffcb933bd6fad37aa2d162d1a5940015b169160028116610f62575b60048116610f46575b60088116610f2a575b60108116610f0e575b60208116610ef2575b60408116610ed6575b608090818116610ebb575b6101008116610ea0575b6102008116610e85575b6104008116610e6a575b6108008116610e4f575b6110008116610e34575b6120008116610e19575b6140008116610dfe575b6180008116610de3575b620100008116610dc8575b620200008116610dae575b620400008116610d94575b6208000016610d79575b50600012610d6a575b6001600160801b03906001600160401b038116610d615760ff60005b169060401c011690565b60ff6001610d57565b8015610c165760001904610d3b565b6b048a170391f7dc42444e8fa26000929302901c9190610d32565b6d2216e584f5fa1ea926041bedfe98909302811c92610d28565b926e5d6af8dedb81196699c329225ee60402811c92610d1d565b926f09aa508b5b7a84e1c677de54f3e99bc902811c92610d12565b926f31be135f97d08fd981231505542fcfa602811c92610d07565b926f70d869a156d2a1b890bb3df62baf32f702811c92610cfd565b926fa9f746462d870fdf8a65dc1f90e061e502811c92610cf3565b926fd097f3bdfd2022b8845ad8f792aa582502811c92610ce9565b926fe7159475a2c29b7443b29c7fa6e889d902811c92610cdf565b926ff3392b0822b70005940c7a398e4b70f302811c92610cd5565b926ff987a7253ac413176f2b074cf7815e5402811c92610ccb565b926ffcbe86c7900a88aedcffc83b479aa3a402811c92610cc1565b926ffe5dee046a99a2a811c461f1969c305302811c92610cb7565b916fff2ea16466c96a3843ec78b326b528610260801c91610cac565b916fff973b41fa98c081472e6896dfb254c00260801c91610ca3565b916fffcb9843d60f6159c9db58835c9266440260801c91610c9a565b916fffe5caca7e10e4e61c3624eaa0941cd00260801c91610c91565b916ffff2e50f5f656932ef12357cf3c7fdcc0260801c91610c88565b916ffff97272373d413259a46990580e213a0260801c91610c7f565b6001600160881b03600160801b610c74565b80610c51565b50620cb14a811315610c3d565b939192610450610fdb61102293610fd0610fbc8961106c565b946001600160801b0398838a8851166111cd565b948591949293611141565b8681161590811591611039575b6000911561103257610ffa91506113d3565b955b8116159182159261102a575b50600091156110245761101b91506113d3565b93946110d6565b565b5061101b565b915038611008565b5095610ffc565b839150610fe8565b6110496107c9565b906000825260006020830152600060408301526000606083015260006080830152565b611074611041565b506000526201000f60205260406000209061108d6107c9565b82549260016001600160801b03918286169586855260801c6020850152015490811660408301526001600160401b038160801c16606083015260c01c608082015291156107ff57565b6000526201000f60205260016040600020916001600160801b03808251166001600160801b0319602084015160801b16178455604082015116906001600160401b0360801b606082015160801b169060806001600160401b0360c01b91015160c01b16911717910155565b6001600160801b03166001607f1b8110156107ff57600f0b90565b9091611166575050565b6040019061117f6001600160801b039182845116611184565b169052565b91906000908181600f0b126000146111b3576001600160801b0380918303811685031693168310156101115750565b6001600160801b0380918116850116931683106101115750565b9093926000946000938490858160020b8560020b90808213156101d457620a276d19136101d057620cb14a12610111575061120a61121091610c2c565b93610c2c565b936001600160801b038082169085811682101561123957505050509061123692916112b2565b91565b97985091969091908516116112575750906112549291611276565b92565b9281955061127094508361126a926112b2565b93611276565b91600190565b906001600160801b03808481959382809516838216116000146112aa5703165b1691160260401c9081169081036107ff5790565b900316611296565b916001600160801b0382811690821611156112d057610bca9261131c565b90610bca9261131c565b6001600160801b0391821690821603919082116112f357565b634e487b7160e01b600052601160045260246000fd5b818102929181159184041417156112f357565b9061135d9161133d61132e85846112da565b946001600160c01b03926113af565b16926113556001600160801b03948580931690611309565b911690610c0c565b9081169081036107ff5790565b9115611396576001600160801b0380911691160260401c5b6001600160801b0381169081036107ff5790565b6001600160c01b03916113a991906113af565b16611382565b906001600160801b0316908115610c165760401b600160401b600160c01b03160490565b9060046001600160801b03809316019182116112f357565b9060016001600160801b03809316019182116112f357565b9190916001600160801b03808094169116019182116112f357565b6020019061117f6001600160801b039182845116611184565b919061147a611457610bca926001600160401b036060870151169061147f565b936114746001600160801b0380925116809287160260401c6114af565b946113af565b6114af565b6001600160401b03916001600160801b0392839116600160301b0191160260301c8181116114ab571690565b5090565b6001600160801b03811691906001600160c01b031682036107ff57565b600f0b60016001607f1b031981146112f35760000390565b929190916114f0610794565b9160008352600060208401526000604084015260006060840152611512611041565b916040519060e08201908282106001600160401b038311176107b3576001600160801b03916040526000835260006020840152600060408401526000606084015260006080840152600060a0840152600060c08401526020870151600f0b86526040870151600f0b60208701526020608088015101511515600014611a79578160608801511660608701525b608087015151151585526020608088015101511515602086015281875116606086015216608084015261ffff60406080870151015116602082015260ff6060608087015101511660408201526001600160801b03806116116115ff8961106c565b94826080880151168751151591611d82565b92818060608801511681620f424060208a015115159482611668878c60ff604061ffff60208801511696015116978d856116518286838751169587611ad3565b928161165c86611b2b565b931611935116906121fb565b16020491820260081c1693849116031690611684818388611e55565b6000918301841690829015611a6557506116a06116c791611141565b6116b560208901511515938a51600f0b611aad565b600f0b89526020890151600f0b611aad565b600f0b602088015215611a4a576116e49082606088015116611403565b1660608501525b60208301511590811584511515926001600160801b036060870151169061171484848489611ad3565b826001600160801b038216106000146119555750508261177891611785949561177e61177182878b611765886001600160801b0361175184611b2b565b93511661175f828286611276565b936112b2565b82156119505790611d22565b9590611a8a565b94611a8a565b9488611b67565b6001600160801b03819394166001600160801b0386511614908161193d575b5015611913576001600160801b036117e4925b1660608601526117d260208601511515938751600f0b611aad565b600f0b86526020860151600f0b611aad565b600f0b6020850152156118e5576001600160801b03606084015116906001600160801b0382116112f35760809561181f9260608601526110d6565b81519081600f0b60208501526001600160801b0360608160208601519586600f0b60408901526020850151156000146118db576040015116925b828416828801520151168085526001600160801b03198093871b16176201002455841b16906001600160801b03161762010025550151805115156201002691825461ff006020830151151560081b169060ff64ff00000000606063ffff0000604087015160101b1695015160201b1694169064ffffffffff1916171717179055565b8201511692611859565b6001600160801b03604084015116906001600160801b0382116112f35760809561181f9260408601526110d6565b60405162461bcd60e51b8152602060048201526002602482015261052560f41b6044820152606490fd5b6001600160801b039150161515386117a4565b611d22565b83916119b393876119a4816001600160801b03986119ac968d61197781611b2b565b9761198985858f8c8791875116611c00565b98899115611a3d578d61199e93511690611276565b90611d22565b949094611a8a565b948a611b67565b9192909382949395600014611a2a57166001600160801b0386511610905b81611a18575b50156119ee576001600160801b036117e4926117b7565b60405162461bcd60e51b8152602060048201526002602482015261292360f11b6044820152606490fd5b6001600160801b0391501615386119d7565b166001600160801b0386511611906119d1565b8d61199e935116906112b2565b611a5a9082604088015116611403565b1660408501526116eb565b9150611a736116c791611141565b916116a0565b81606088015116604087015261159e565b600f0b6004019060016001607f1b03821360016001607f1b03198312176112f357565b90600f0b90600f0b019060016001607f1b0319821260016001607f1b038313176112f357565b91929092611ae083611b2b565b9015611b12576001600160801b03611afa93511690611276565b6001600160801b038281169082161115610be2575090565b6001600160801b03611b26935116906112b2565b611afa565b6001600160801b0380806040611b55826020870151166001600160401b036060880151169061147f565b94015116830116911681106107ff5790565b9291611b799097949691978887611bc6565b6001600160801b03929083821684821610611bb75750506000945b8715611bb157805b9715611baa57505b94169052565b9050611ba4565b81611b9c565b611bc0916112da565b94611b94565b91151590151514600014611bf2575b600081600f0b12611bec576001600160801b031690565b50600090565b611bfb906114cc565b611bd5565b939215611c5757611c1093611c65565b6001600160801b0381166f0ffff5433e2b3d8211706e6102aa9472811015611c415762010002809110610be2575090565b50506f0ffff5433e2b3d8211706e6102aa947190565b611c6093611cd6565b611c10565b91906001600160801b039182821615611cce5790611c82916113af565b6001600160c01b0381168210611cc75781169215611ca5575090610bca91611403565b8116821015611cc057611cba610bca926113eb565b906112da565b5050600090565b5091505090565b505091505090565b90611ce5611ced949392611d60565b921592611c65565b6001600160801b03811615611d0d57611d08610bca91611d60565b6113eb565b506f0ffff5433e2b3d8211706e6102aa947290565b919092151590151514600014611d4b576102f2611d41611d4792611141565b92611141565b9091565b611d5a6102f2611d4792611141565b91611141565b6001600160801b038091168015610c1657600160801b048181116107ff571690565b90611d8d9291611dd8565b6001600160801b03811662010002808210611dd257506f0ffff5433e2b3d8211706e6102aa94721115611dbd5790565b506f0ffff5433e2b3d8211706e6102aa947190565b91505090565b918260020b620a276d19811390811591611e47575b5015611df95750905090565b15611e24576001600160801b038092611e1460001991610c2c565b0116918116821015610be2575090565b90611e2e90610c2c565b906001600160801b038082169083161115610be2575090565b620cb14a9150121538611ded565b9190611e6083611b2b565b906001600160801b039283831615611ef1571591611e8283858751168361219c565b60011b917001fffffffffffffffffffffffffffffffe6ffffffffffffffffffffffffffffffffe8416931683036112f3578385611ee094808285161115600014611fa8575050611edb91506000925b868851169061136a565b611fb4565b6001600160401b0391828216611ef8575b5050505050565b8184611f0c611f44938695838a51166120f7565b1686526dffffffffffffffff0000000000006060870184611f3084828451166120c6565b16809152600160301b019160301b16610c0c565b169283836040830151160260301c936001600160901b03848616951685036107ff5784611f7091612158565b9060808101918380845116911601918383116112f357611f9b93602093169052019282845116611403565b1690523880808080611ef1565b611edb93031692611ed1565b6001600160801b038082168015918215612046575b5050611cc057611fdc611fe19282611403565b612052565b906001600160401b0380831692600160301b93848110156107ff5780677fffffffffffffff910260331c9160011c1603169182101561201c57565b60405162461bcd60e51b815260206004820152600260248201526124a360f11b6044820152606490fd5b84161190503880611fc9565b6001600160801b03906001600160d01b0381831690811090816120b9575b50156107ff5765ffffffffffff199261209c92169060301b6601000000000000600160b01b0316610c0c565b01600160301b90818110156114ab576001600160401b0391501690565b9050828416111538612070565b6001600160401b0391908216600160301b908101918316010260301c65ffffffffffff1901818110156114ab571690565b91906001600160401b0316600160301b0190600014612130576001906001600160801b038093160260301c019081169081036107ff5790565b612154906601000000000000600160b01b036001600160801b039360301b16610c0c565b1690565b906001600160801b03908181169182156121935761218c612186612154946001600160401b03809716611309565b926113eb565b1690610c0c565b50505050600090565b91156121be575060401c6001600160401b03166001016001600160801b031690565b6001600160801b03916001916121ea6121dd60001983018616846113af565b91848060c01b03936113af565b900316019081169081036107ff5790565b9291936001600160801b039485851693841561227c578661222d84829515968361222689838d61136a565b169961136a565b169315901515146000146122745716015b801561226e578161224f9202610c0c565b818111156122665703905b81169081036107ff5790565b90039061225a565b50505090565b16900361223e565b5050505050505060009056fea264697066735822122042b44b293860fbceb7760b18e436e868f329609dab94f5015902f8a7aac691ce64736f6c63430008130033",
    "linkReferences": {}
  },
  "methodIdentifiers": {
    "baseFlow()": "957004d8",
    "fixAccum(uint256,uint64,uint64)": "3b05842f",
    "fixCurve(uint256,uint128,uint128,uint128)": "5d4236b2",
    "lastSwap()": "00ff2d44",
    "pullCurve(uint256)": "8a0b8695",
    "pullTotalLiq(uint256)": "72dd308b",
    "quoteFlow()": "8c1019d5",
    "testLiqPayAmb(uint256,uint128)": "48b4a453",
    "testLiqPayConc(uint256,uint128,uint128,uint128,uint64)": "75d840f6",
    "testLiqPayTicks(uint256,uint128,int24,int24)": "8ccbb9c3",
    "testLiqRecAmb(uint256,uint128)": "d6320267",
    "testLiqRecConc(uint256,uint128,uint128,uint128)": "7f9c0b38",
    "testLiqRecTicks(uint256,uint128,int24,int24)": "f63d7bec",
    "testSwap(uint256,(uint128,int128,int128,uint128,(bool,bool,uint16,uint8)),uint128,uint128)": "3872fb8c",
    "testSwapBumpInf(uint256,(uint128,int128,int128,uint128,(bool,bool,uint16,uint8)),uint128)": "378b9309",
    "testSwapLimitInf(uint256,(uint128,int128,int128,uint128,(bool,bool,uint16,uint8)))": "d4ea8106",
    "testSwapTick(uint256,(uint128,int128,int128,uint128,(bool,bool,uint16,uint8)),int24,uint128)": "c7edc1aa"
  },
  "id": 77
}