{
  "abi": [
    {
      "inputs": [
        {
          "internalType": "uint128",
          "name": "seed",
          "type": "uint128"
        },
        {
          "internalType": "uint64",
          "name": "growth",
          "type": "uint64"
        },
        {
          "internalType": "uint128",
          "name": "concentrated",
          "type": "uint128"
        }
      ],
      "name": "testActiveLiq",
      "outputs": [
        {
          "internalType": "uint128",
          "name": "",
          "type": "uint128"
        }
      ],
      "stateMutability": "pure",
      "type": "function"
    },
    {
      "inputs": [
        {
          "internalType": "uint128",
          "name": "feesPaid",
          "type": "uint128"
        },
        {
          "internalType": "uint128",
          "name": "price",
          "type": "uint128"
        },
        {
          "internalType": "uint128",
          "name": "seed",
          "type": "uint128"
        },
        {
          "internalType": "uint128",
          "name": "conc",
          "type": "uint128"
        },
        {
          "internalType": "uint64",
          "name": "growth",
          "type": "uint64"
        },
        {
          "internalType": "bool",
          "name": "inBase",
          "type": "bool"
        }
      ],
      "name": "testAssimilate",
      "outputs": [
        {
          "internalType": "uint128",
          "name": "shiftPrice",
          "type": "uint128"
        },
        {
          "internalType": "uint128",
          "name": "shiftSeed",
          "type": "uint128"
        },
        {
          "internalType": "uint128",
          "name": "shiftGrowth",
          "type": "uint128"
        },
        {
          "internalType": "uint128",
          "name": "concGrowth",
          "type": "uint128"
        }
      ],
      "stateMutability": "pure",
      "type": "function"
    },
    {
      "inputs": [
        {
          "internalType": "uint128",
          "name": "price",
          "type": "uint128"
        },
        {
          "internalType": "uint128",
          "name": "limitPrice",
          "type": "uint128"
        },
        {
          "internalType": "uint128",
          "name": "liq",
          "type": "uint128"
        }
      ],
      "name": "testCounterBase",
      "outputs": [
        {
          "internalType": "uint128",
          "name": "",
          "type": "uint128"
        }
      ],
      "stateMutability": "pure",
      "type": "function"
    },
    {
      "inputs": [
        {
          "internalType": "uint128",
          "name": "price",
          "type": "uint128"
        },
        {
          "internalType": "uint128",
          "name": "liq",
          "type": "uint128"
        }
      ],
      "name": "testCounterBaseMax",
      "outputs": [
        {
          "internalType": "uint128",
          "name": "",
          "type": "uint128"
        }
      ],
      "stateMutability": "pure",
      "type": "function"
    },
    {
      "inputs": [
        {
          "internalType": "uint128",
          "name": "price",
          "type": "uint128"
        },
        {
          "internalType": "uint128",
          "name": "liq",
          "type": "uint128"
        }
      ],
      "name": "testCounterBaseMin",
      "outputs": [
        {
          "internalType": "uint128",
          "name": "",
          "type": "uint128"
        }
      ],
      "stateMutability": "pure",
      "type": "function"
    },
    {
      "inputs": [
        {
          "internalType": "uint128",
          "name": "price",
          "type": "uint128"
        },
        {
          "internalType": "uint128",
          "name": "limitPrice",
          "type": "uint128"
        },
        {
          "internalType": "uint128",
          "name": "liq",
          "type": "uint128"
        },
        {
          "internalType": "uint128",
          "name": "swapQty",
          "type": "uint128"
        }
      ],
      "name": "testCounterQtyLeft",
      "outputs": [
        {
          "internalType": "uint128",
          "name": "",
          "type": "uint128"
        }
      ],
      "stateMutability": "pure",
      "type": "function"
    },
    {
      "inputs": [
        {
          "internalType": "uint128",
          "name": "price",
          "type": "uint128"
        },
        {
          "internalType": "uint128",
          "name": "limitPrice",
          "type": "uint128"
        },
        {
          "internalType": "uint128",
          "name": "liq",
          "type": "uint128"
        }
      ],
      "name": "testCounterQuote",
      "outputs": [
        {
          "internalType": "uint128",
          "name": "",
          "type": "uint128"
        }
      ],
      "stateMutability": "pure",
      "type": "function"
    },
    {
      "inputs": [
        {
          "internalType": "uint128",
          "name": "price",
          "type": "uint128"
        },
        {
          "internalType": "uint128",
          "name": "liq",
          "type": "uint128"
        }
      ],
      "name": "testCounterQuoteMax",
      "outputs": [
        {
          "internalType": "uint128",
          "name": "",
          "type": "uint128"
        }
      ],
      "stateMutability": "pure",
      "type": "function"
    },
    {
      "inputs": [
        {
          "internalType": "uint128",
          "name": "price",
          "type": "uint128"
        },
        {
          "internalType": "uint128",
          "name": "liq",
          "type": "uint128"
        }
      ],
      "name": "testCounterQuoteMin",
      "outputs": [
        {
          "internalType": "uint128",
          "name": "",
          "type": "uint128"
        }
      ],
      "stateMutability": "pure",
      "type": "function"
    },
    {
      "inputs": [
        {
          "internalType": "uint128",
          "name": "price",
          "type": "uint128"
        },
        {
          "internalType": "uint128",
          "name": "seed",
          "type": "uint128"
        },
        {
          "internalType": "uint64",
          "name": "growth",
          "type": "uint64"
        },
        {
          "internalType": "uint128",
          "name": "conc",
          "type": "uint128"
        },
        {
          "internalType": "uint128",
          "name": "flow",
          "type": "uint128"
        },
        {
          "internalType": "bool",
          "name": "isBuy",
          "type": "bool"
        },
        {
          "internalType": "bool",
          "name": "inBase",
          "type": "bool"
        }
      ],
      "name": "testDeriveImpact",
      "outputs": [
        {
          "internalType": "uint128",
          "name": "",
          "type": "uint128"
        },
        {
          "internalType": "uint128",
          "name": "",
          "type": "uint128"
        }
      ],
      "stateMutability": "pure",
      "type": "function"
    },
    {
      "inputs": [
        {
          "internalType": "uint128",
          "name": "price",
          "type": "uint128"
        },
        {
          "internalType": "uint128",
          "name": "limitPrice",
          "type": "uint128"
        },
        {
          "internalType": "uint128",
          "name": "liq",
          "type": "uint128"
        }
      ],
      "name": "testLimitBase",
      "outputs": [
        {
          "internalType": "uint128",
          "name": "",
          "type": "uint128"
        }
      ],
      "stateMutability": "pure",
      "type": "function"
    },
    {
      "inputs": [
        {
          "internalType": "uint128",
          "name": "price",
          "type": "uint128"
        },
        {
          "internalType": "uint128",
          "name": "liq",
          "type": "uint128"
        }
      ],
      "name": "testLimitBaseMax",
      "outputs": [
        {
          "internalType": "uint128",
          "name": "",
          "type": "uint128"
        }
      ],
      "stateMutability": "pure",
      "type": "function"
    },
    {
      "inputs": [
        {
          "internalType": "uint128",
          "name": "price",
          "type": "uint128"
        },
        {
          "internalType": "uint128",
          "name": "liq",
          "type": "uint128"
        }
      ],
      "name": "testLimitBaseMin",
      "outputs": [
        {
          "internalType": "uint128",
          "name": "",
          "type": "uint128"
        }
      ],
      "stateMutability": "pure",
      "type": "function"
    },
    {
      "inputs": [
        {
          "internalType": "uint128",
          "name": "price",
          "type": "uint128"
        },
        {
          "internalType": "uint128",
          "name": "limitPrice",
          "type": "uint128"
        },
        {
          "internalType": "uint128",
          "name": "liq",
          "type": "uint128"
        },
        {
          "internalType": "uint128",
          "name": "swapQty",
          "type": "uint128"
        }
      ],
      "name": "testLimitQtyLeft",
      "outputs": [
        {
          "internalType": "uint128",
          "name": "",
          "type": "uint128"
        }
      ],
      "stateMutability": "pure",
      "type": "function"
    },
    {
      "inputs": [
        {
          "internalType": "uint128",
          "name": "price",
          "type": "uint128"
        },
        {
          "internalType": "uint128",
          "name": "limitPrice",
          "type": "uint128"
        },
        {
          "internalType": "uint128",
          "name": "liq",
          "type": "uint128"
        }
      ],
      "name": "testLimitQuote",
      "outputs": [
        {
          "internalType": "uint128",
          "name": "",
          "type": "uint128"
        }
      ],
      "stateMutability": "pure",
      "type": "function"
    },
    {
      "inputs": [
        {
          "internalType": "uint128",
          "name": "price",
          "type": "uint128"
        },
        {
          "internalType": "uint128",
          "name": "liq",
          "type": "uint128"
        }
      ],
      "name": "testLimitQuoteMax",
      "outputs": [
        {
          "internalType": "uint128",
          "name": "",
          "type": "uint128"
        }
      ],
      "stateMutability": "pure",
      "type": "function"
    },
    {
      "inputs": [
        {
          "internalType": "uint128",
          "name": "price",
          "type": "uint128"
        },
        {
          "internalType": "uint128",
          "name": "liq",
          "type": "uint128"
        }
      ],
      "name": "testLimitQuoteMin",
      "outputs": [
        {
          "internalType": "uint128",
          "name": "",
          "type": "uint128"
        }
      ],
      "stateMutability": "pure",
      "type": "function"
    },
    {
      "inputs": [
        {
          "internalType": "uint128",
          "name": "flow",
          "type": "uint128"
        },
        {
          "internalType": "uint128",
          "name": "price",
          "type": "uint128"
        },
        {
          "internalType": "uint128",
          "name": "liq",
          "type": "uint128"
        },
        {
          "internalType": "bool",
          "name": "isBuy",
          "type": "bool"
        },
        {
          "internalType": "bool",
          "name": "inBase",
          "type": "bool"
        }
      ],
      "name": "testRoll",
      "outputs": [
        {
          "internalType": "uint128",
          "name": "rollPrice",
          "type": "uint128"
        },
        {
          "internalType": "uint128",
          "name": "qtyLeft",
          "type": "uint128"
        },
        {
          "internalType": "int128",
          "name": "paidBase",
          "type": "int128"
        },
        {
          "internalType": "int128",
          "name": "paidQuote",
          "type": "int128"
        }
      ],
      "stateMutability": "pure",
      "type": "function"
    },
    {
      "inputs": [
        {
          "internalType": "uint128",
          "name": "liq",
          "type": "uint128"
        },
        {
          "internalType": "uint128",
          "name": "price",
          "type": "uint128"
        },
        {
          "internalType": "bool",
          "name": "isBuy",
          "type": "bool"
        },
        {
          "internalType": "bool",
          "name": "inBase",
          "type": "bool"
        }
      ],
      "name": "testRollInf",
      "outputs": [
        {
          "internalType": "uint128",
          "name": "rollPrice",
          "type": "uint128"
        },
        {
          "internalType": "uint128",
          "name": "qtyLeft",
          "type": "uint128"
        },
        {
          "internalType": "int128",
          "name": "paidBase",
          "type": "int128"
        },
        {
          "internalType": "int128",
          "name": "paidQuote",
          "type": "int128"
        }
      ],
      "stateMutability": "pure",
      "type": "function"
    },
    {
      "inputs": [
        {
          "internalType": "uint128",
          "name": "liq",
          "type": "uint128"
        },
        {
          "internalType": "uint128",
          "name": "price",
          "type": "uint128"
        },
        {
          "internalType": "bool",
          "name": "inBase",
          "type": "bool"
        }
      ],
      "name": "testTokenPrecision",
      "outputs": [
        {
          "internalType": "uint128",
          "name": "",
          "type": "uint128"
        }
      ],
      "stateMutability": "pure",
      "type": "function"
    },
    {
      "inputs": [
        {
          "internalType": "uint128",
          "name": "liq",
          "type": "uint128"
        },
        {
          "internalType": "uint128",
          "name": "swapQty",
          "type": "uint128"
        },
        {
          "internalType": "uint16",
          "name": "feeRate",
          "type": "uint16"
        },
        {
          "internalType": "uint8",
          "name": "protoCut",
          "type": "uint8"
        },
        {
          "internalType": "bool",
          "name": "",
          "type": "bool"
        },
        {
          "internalType": "bool",
          "name": "inBase",
          "type": "bool"
        },
        {
          "internalType": "uint128",
          "name": "curvePrice",
          "type": "uint128"
        },
        {
          "internalType": "uint128",
          "name": "limitPrice",
          "type": "uint128"
        }
      ],
      "name": "testVig",
      "outputs": [
        {
          "internalType": "uint128",
          "name": "",
          "type": "uint128"
        },
        {
          "internalType": "uint128",
          "name": "",
          "type": "uint128"
        }
      ],
      "stateMutability": "pure",
      "type": "function"
    },
    {
      "inputs": [
        {
          "internalType": "uint128",
          "name": "liq",
          "type": "uint128"
        },
        {
          "internalType": "uint16",
          "name": "feeRate",
          "type": "uint16"
        },
        {
          "internalType": "uint8",
          "name": "protoCut",
          "type": "uint8"
        },
        {
          "internalType": "bool",
          "name": "inBase",
          "type": "bool"
        },
        {
          "internalType": "uint128",
          "name": "curvePrice",
          "type": "uint128"
        }
      ],
      "name": "testVigMax",
      "outputs": [
        {
          "internalType": "uint128",
          "name": "",
          "type": "uint128"
        },
        {
          "internalType": "uint128",
          "name": "",
          "type": "uint128"
        }
      ],
      "stateMutability": "pure",
      "type": "function"
    },
    {
      "inputs": [
        {
          "internalType": "uint128",
          "name": "liq",
          "type": "uint128"
        },
        {
          "internalType": "uint16",
          "name": "feeRate",
          "type": "uint16"
        },
        {
          "internalType": "uint8",
          "name": "protoCut",
          "type": "uint8"
        },
        {
          "internalType": "bool",
          "name": "inBase",
          "type": "bool"
        },
        {
          "internalType": "uint128",
          "name": "curvePrice",
          "type": "uint128"
        }
      ],
      "name": "testVigMin",
      "outputs": [
        {
          "internalType": "uint128",
          "name": "",
          "type": "uint128"
        },
        {
          "internalType": "uint128",
          "name": "",
          "type": "uint128"
        }
      ],
      "stateMutability": "pure",
      "type": "function"
    }
  ],
  "bytecode": {
    "object": "0x6080806040523461001657611a8b908161001c8239f35b600080fdfe604060808152600436101561001357600080fd5b600090813560e01c80630d91c9c414610ba05780631de18dae14610a695780631e6745f214610a2b5780633680286a146109ed5780633b74254b1461096a5780633bb16e61146108fe5780634aec254e146108885780634e56675a1461082d5780634e94ddad146107e5578063504b48a5146107a757806352f6bddf1461070e57806372c3ad3a146106cd578063915288141461068b57806399d90745146105f75780639beb6f5a146105c8578063a355258b1461058a578063ab6ed498146104e8578063acbd94b114610408578063affb7db214610358578063d99851d81461026c578063e36e61d414610212578063f2167c32146101b25763f634748b1461011c57600080fd5b346101ae57806003193601126101ae5760209161019e61014a61013d610bd8565b610145610bf3565b61199a565b6001600160801b0392838251169061016a8261016585610d16565b610dfb565b620f424091508581168210156101a65750905b610199816f0ffff5433e2b3d8211706e6102aa94721193610d16565b61115e565b915191168152f35b90509061017d565b5080fd5b50346101ae57806003193601126101ae576020916101d161013d610bd8565b906101f06101de83610d16565b6001600160801b038094511690610fa0565b620f4240915082811682101561020a5750915b5191168152f35b905091610203565b50346101ae5760603660031901126101ae5760209061022f610bd8565b61019e61024661023d610bf3565b92610145610c09565b916001600160801b03928381511661019961026682878616119484610db9565b92610d16565b50346101ae5761033f61029b9161ffff6103099460ff620f424061028f36610c71565b909792939a919a61199a565b946001600160801b039a8b97878998938980955116906102ba83610d16565b82851561034957506102d0908785511690610dfb565b905b508580821611600014610343575084905b856102ed84610d16565b916f0ffff5433e2b3d8211706e6102aa9472119351169061122a565b16911602049516850260081c16809251958695160316839060209093929360408301946001600160801b03809216845216910152565b0390f35b906102e3565b61035291610ecc565b906102d2565b50346101ae5760e03660031901126101ae57610372610bd8565b9161037b610bf3565b92604435906001600160401b038216820361040457610398610c1f565b608435926001600160801b0384168403610400576103b4610c44565b9660c4359586151587036103fd57509261033f9794926103d8926103dd97956119f2565b6113dc565b91516001600160801b039182168152911660208201529081906040820190565b80fd5b8480fd5b8280fd5b50346101ae5760803660031901126101ae57610422610bd8565b61042a610bf3565b90610433610c62565b9161043c610c53565b948315158615150361049457509161033f94916104609360016001607f1b036112ad565b93516001600160801b039384168152919092166020820152600f91820b604082015291900b60608201529081906080820190565b85156104d8576001600160801b0380831690841602851c905b6001600160801b038216916001600160c01b031682036103fd575091610460939161033f96936112ad565b6104e28284611289565b906104ad565b50346101ae5760c03660031901126101ae57610502610bd8565b9161050b610bf3565b92610514610c09565b9361051d610c1f565b6084356001600160401b039485821682036103fd5750610554926080979261054d92610547610c44565b946119f2565b92836115b4565b6001600160801b039283825116936020830151169285816060850151169301511692815194855260208501528301526060820152f35b50346101ae5760603660031901126101ae576020906001600160801b0361019e6105b2610bd8565b6105ba610bf3565b6105c2610c62565b91611906565b50346101ae576020906001600160801b0361019e6105f26105e836610ccb565b929093919361199a565b610d82565b50346101ae5760603660031901126101ae57610611610bd8565b602435906001600160401b0382168092036106875761019e90602094610635610c09565b93816080610641611965565b828152828a8201528289820152826060820152015261065e611965565b928284526001600160801b03958680921689860152168684015260608301526080820152610d16565b8380fd5b50346101ae576020906106ad61019e6106a336610ccb565b929094919461199a565b6001600160801b0393610199610266868451169283888216119585610d82565b50346101ae5760603660031901126101ae576020906001600160801b0361019e6106f5610bd8565b610709610700610bf3565b91610145610c09565b610db9565b50346101ae5761033f6107319161ffff6103099460ff620f424061028f36610c71565b946001600160801b039a8b978789989389809551169061075083610d16565b8285156107985750610766908785511690610e57565b905b508580821611600014610792575084905b8561078384610d16565b9162010002119351169061122a565b90610779565b6107a191610fa0565b90610768565b50346101ae57806003193601126101ae576020916107c661013d610bd8565b906101f06107d383610d16565b6001600160801b038094511690610e57565b50346101ae5760a03660031901126101ae5761033f90610460610806610bd8565b61080e610bf3565b610816610c09565b61081e610c53565b91610827610c35565b936112ad565b50346101ae5760603660031901126101ae5760209061084a610bd8565b61019e61085861023d610bf3565b916001600160801b039261087484825116858416119282610ddb565b908461087f82610d16565b915116906111e3565b50346101ae57806003193601126101ae5760209161019e6108aa61013d610bd8565b6001600160801b039283825116906108ca826108c585610d16565b610fa0565b620f424091508581168210156108f65750905b846108e784610d16565b916201000211935116906111e3565b9050906108dd565b50346101ae57806003193601126101ae5760209161019e61092061013d610bd8565b6001600160801b039283825116906109408261093b85610d16565b610e57565b620f424091508581168210156109625750905b61019981620100021193610d16565b905090610953565b50346101ae57806003193601126101ae5760209161019e61098c61013d610bd8565b6001600160801b039283825116906109ac826109a785610d16565b610ecc565b620f424091508581168210156109e55750905b846109c984610d16565b916f0ffff5433e2b3d8211706e6102aa947211935116906111e3565b9050906109bf565b50346101ae57806003193601126101ae57602091610a0c61013d610bd8565b906101f0610a1983610d16565b6001600160801b038094511690610ecc565b50346101ae57806003193601126101ae57602091610a4a61013d610bd8565b906101f0610a5783610d16565b6001600160801b038094511690610dfb565b5090346103fd576101003660031901126103fd57610a85610bd8565b91610a8e610bf3565b926044359061ffff8216809203610687576064359360ff85168095036103fd57610ab6610c35565b50610abf610c44565b9160c435906001600160801b039788831683036106875760e4359289841692838503610b9c57958a9695620f42409561033f9a999589809996610b06610b5297839961199a565b948286511694610b1587610d16565b90868915610b8d5750610b2c918589511690610e91565b905b508183168184161115610b855750925b610b4785610d16565b92119351169061122a565b16020494850260081c16809251958695160316839060209093929360408301946001600160801b03809216845216910152565b905092610b3e565b610b969261101b565b90610b2e565b8580fd5b50346101ae5760603660031901126101ae576020906001600160801b0361019e610bc8610bd8565b610bd3610700610bf3565b610ddb565b600435906001600160801b0382168203610bee57565b600080fd5b602435906001600160801b0382168203610bee57565b604435906001600160801b0382168203610bee57565b606435906001600160801b0382168203610bee57565b608435908115158203610bee57565b60a435908115158203610bee57565b606435908115158203610bee57565b604435908115158203610bee57565b60a0906003190112610bee576001600160801b036004358181168103610bee579160243561ffff81168103610bee579160443560ff81168103610bee57916064358015158103610bee57916084359081168103610bee5790565b6080906003190112610bee576001600160801b03906004358281168103610bee57916024358181168103610bee57916044358281168103610bee57916064359081168103610bee5790565b6001600160801b0380806040610d40826020870151166001600160401b0360608801511690610d52565b9401511683011691168110610bee5790565b6001600160401b03916001600160801b0392839116600160301b0191160260301c818111610d7e571690565b5090565b9091610da390610d9183610d16565b6001600160801b038094511690610e91565b908281169082161115610db4575090565b905090565b90610dc790610d9183610d16565b620f42408092821611600014610db4575090565b90610dc790610de983610d16565b6001600160801b03809451169061101b565b6f0ffff5433e2b3d8211706e6102aa94726001600160801b038084838296948380961611600014610e5057506f0ffff5433e2b3d8211706e6102aa94711901165b1691160260401c908116908103610bee5790565b0316610e3c565b620100026001600160801b038084838296948380961611600014610e505750620100011901161691160260401c908116908103610bee5790565b906001600160801b0380848195938280951683821611600014610ec45703161691160260401c908116908103610bee5790565b900316610e3c565b6001600160801b03916f0ffff5433e2b3d8211706e6102aa9472919083811680841115610f4357830390848211610f2d57610f1f9285916001600160c01b0391610f169190611289565b1691169061105f565b04908116908103610bee5790565b634e487b7160e01b600052601160045260246000fd5b91926f0ffff5433e2b3d8211706e6102aa94711983019150848211610f2d57610f9393610f8e9286169160409190911b600160401b600160c01b0316046001600160c01b031661105f565b611072565b908116908103610bee5790565b6001600160801b039162010002919083811680841115610fdd57830390848211610f2d57610f1f9285916001600160c01b0391610f169190611289565b9192620100011983019150848211610f2d57610f9393610f8e9286169160409190911b600160401b600160c01b0316046001600160c01b031661105f565b916001600160801b03828116908216111561103c5761103992611092565b90565b9061103992611092565b6001600160801b039182169082160391908211610f2d57565b81810292918115918404141715610f2d57565b811561107c570490565b634e487b7160e01b600052601260045260246000fd5b90610f93916110b36110a48584611046565b946001600160c01b0392611289565b16926110cb6001600160801b0394858093169061105f565b911690611072565b906110dd91611289565b6001600160801b038116906001600160c01b03168103610bee5790565b6001600160801b038080931691160260401c908116908103610bee5790565b9115611145576001600160801b0380911691160260401c5b6001600160801b038116908103610bee5790565b6001600160c01b03916111589190611289565b16611131565b9190926001600160801b03938484169283156111d85760018661118e848261118781978b6110d3565b16986110fa565b16931515036111d05716015b80156111ca57816111ab9202611072565b818111156111c25703905b8116908103610bee5790565b9003906111b6565b50505090565b16900361119a565b505050505050600090565b9190926001600160801b03938484169283156111d85785611211838261120a81968a6110fa565b16976110d3565b16926111d057160180156111ca57816111ab9202611072565b9291936001600160801b039485851693841561127d578661125c84829515968361125589838d611119565b1699611119565b169315901515146000146111d057160180156111ca57816111ab9202611072565b50505050505050600090565b906001600160801b031690811561107c5760401b600160401b600160c01b03160490565b9391906112b99161199a565b916112c6818386866113dc565b9490918315158115150361136e5760046112f06112eb6112e585611599565b95611599565b61138a565b600f0b019060016001607f1b03821360016001607f1b0319831217610f2d5761131a9085856113a2565b6001600160801b0392908382168482161061135f5750506000925b84156113585780945b156113505750945b1680935292909193565b905094611346565b819461133e565b61136891611046565b92611335565b600461138561137f6112eb85611599565b94611599565b6112f0565b600f0b60016001607f1b03198114610f2d5760000390565b911515901515146000146113ce575b600081600f0b126113c8576001600160801b031690565b50600090565b6113d79061138a565b6113b1565b9190926114006113eb84610d16565b91836001600160801b03968488885116611422565b9384926114165761141393511690610e91565b91565b6114139351169061101b565b93921561147957611432936114ba565b6001600160801b0381166f0ffff5433e2b3d8211706e6102aa94728110156114635762010002809110610db4575090565b50506f0ffff5433e2b3d8211706e6102aa947190565b6114829361152b565b611432565b9060016001600160801b0380931601918211610f2d57565b9190916001600160801b0380809416911601918211610f2d57565b91906001600160801b03918282161561152357906114d791611289565b6001600160c01b038116821061151c57811692156114fa5750906110399161149f565b81168210156115155761150f61103992611487565b90611046565b5050600090565b5091505090565b505091505090565b9061153a611542949392611577565b9215926114ba565b6001600160801b038116156115625761155d61103991611577565b611487565b506f0ffff5433e2b3d8211706e6102aa947290565b6001600160801b03809116801561107c57600160801b04818111610bee571690565b6001600160801b03166001607f1b811015610bee57600f0b90565b91906115bf83610d16565b906001600160801b0392838316156116505715916115e1838587511683611906565b60011b917001fffffffffffffffffffffffffffffffe6ffffffffffffffffffffffffffffffffe841693168303610f2d57838561163f9480828516111560001461171257505061163a91506000925b8688511690611119565b61171e565b6001600160401b0391828216611657575b5050505050565b818461166b6116a3938695838a5116611861565b1686526dffffffffffffffff000000000000606087018461168f8482845116611830565b16809152600160301b019160301b16611072565b169283836040830151160260301c9371ffffffffffffffffffffffffffffffffffff84861695168503610bee57846116da916118c2565b906080810191838084511691160191838311610f2d576117059360209316905201928284511661149f565b1690523880808080611650565b61163a93031692611630565b6001600160801b0380821680159182156117b0575b50506115155761174661174b928261149f565b6117bc565b906001600160401b0380831692600160301b9384811015610bee5780677fffffffffffffff910260331c9160011c1603169182101561178657565b60405162461bcd60e51b815260206004820152600260248201526124a360f11b6044820152606490fd5b84161190503880611733565b6001600160801b03906001600160d01b038183169081109081611823575b5015610bee5765ffffffffffff199261180692169060301b6601000000000000600160b01b0316611072565b01600160301b9081811015610d7e576001600160401b0391501690565b90508284161115386117da565b6001600160401b0391908216600160301b908101918316010260301c65ffffffffffff190181811015610d7e571690565b91906001600160401b0316600160301b019060001461189a576001906001600160801b038093160260301c01908116908103610bee5790565b6118be906601000000000000600160b01b036001600160801b039360301b16611072565b1690565b906001600160801b03908181169182156118fd576118f66118f06118be946001600160401b0380971661105f565b92611487565b1690611072565b50505050600090565b9115611928575060401c6001600160401b03166001016001600160801b031690565b6001600160801b03916001916119546119476000198301861684611289565b91848060c01b0393611289565b90031601908116908103610bee5790565b6040519060a082018281106001600160401b0382111761198457604052565b634e487b7160e01b600052604160045260246000fd5b906080906119a6611965565b600092818480935282602082015282604082015282606082015201526119ca611965565b926001600160801b038092168452166020830152806040830152806060830152608082015290565b906001600160401b0391608093611a07611965565b60009581878093528260208201528260408201528260608201520152611a2b611965565b956001600160801b039283809216885216602087015216604085015216606083015260808201529056fea2646970667358221220cf5dba8a706629134d22426634cb01f5e4aaa32be544b848ff2796020ef36f6064736f6c63430008130033",
    "linkReferences": {}
  },
  "methodIdentifiers": {
    "testActiveLiq(uint128,uint64,uint128)": "99d90745",
    "testAssimilate(uint128,uint128,uint128,uint128,uint64,bool)": "ab6ed498",
    "testCounterBase(uint128,uint128,uint128)": "e36e61d4",
    "testCounterBaseMax(uint128,uint128)": "f634748b",
    "testCounterBaseMin(uint128,uint128)": "3bb16e61",
    "testCounterQtyLeft(uint128,uint128,uint128,uint128)": "91528814",
    "testCounterQuote(uint128,uint128,uint128)": "4e56675a",
    "testCounterQuoteMax(uint128,uint128)": "3b74254b",
    "testCounterQuoteMin(uint128,uint128)": "4aec254e",
    "testDeriveImpact(uint128,uint128,uint64,uint128,uint128,bool,bool)": "affb7db2",
    "testLimitBase(uint128,uint128,uint128)": "72c3ad3a",
    "testLimitBaseMax(uint128,uint128)": "1e6745f2",
    "testLimitBaseMin(uint128,uint128)": "504b48a5",
    "testLimitQtyLeft(uint128,uint128,uint128,uint128)": "9beb6f5a",
    "testLimitQuote(uint128,uint128,uint128)": "0d91c9c4",
    "testLimitQuoteMax(uint128,uint128)": "3680286a",
    "testLimitQuoteMin(uint128,uint128)": "f2167c32",
    "testRoll(uint128,uint128,uint128,bool,bool)": "4e94ddad",
    "testRollInf(uint128,uint128,bool,bool)": "acbd94b1",
    "testTokenPrecision(uint128,uint128,bool)": "a355258b",
    "testVig(uint128,uint128,uint16,uint8,bool,bool,uint128,uint128)": "1de18dae",
    "testVigMax(uint128,uint16,uint8,bool,uint128)": "d99851d8",
    "testVigMin(uint128,uint16,uint8,bool,uint128)": "52f6bddf"
  },
  "id": 72
}