{
  "abi": [
    {
      "inputs": [
        {
          "internalType": "address",
          "name": "dex",
          "type": "address"
        }
      ],
      "stateMutability": "nonpayable",
      "type": "constructor"
    },
    {
      "inputs": [],
      "name": "dex_",
      "outputs": [
        {
          "internalType": "address",
          "name": "",
          "type": "address"
        }
      ],
      "stateMutability": "view",
      "type": "function"
    },
    {
      "inputs": [
        {
          "internalType": "address",
          "name": "base",
          "type": "address"
        },
        {
          "internalType": "address",
          "name": "quote",
          "type": "address"
        },
        {
          "internalType": "uint256",
          "name": "poolIdx",
          "type": "uint256"
        }
      ],
      "name": "queryCurve",
      "outputs": [
        {
          "components": [
            {
              "internalType": "uint128",
              "name": "priceRoot_",
              "type": "uint128"
            },
            {
              "internalType": "uint128",
              "name": "ambientSeeds_",
              "type": "uint128"
            },
            {
              "internalType": "uint128",
              "name": "concLiq_",
              "type": "uint128"
            },
            {
              "internalType": "uint64",
              "name": "seedDeflator_",
              "type": "uint64"
            },
            {
              "internalType": "uint64",
              "name": "concGrowth_",
              "type": "uint64"
            }
          ],
          "internalType": "struct CurveMath.CurveState",
          "name": "curve",
          "type": "tuple"
        }
      ],
      "stateMutability": "view",
      "type": "function"
    },
    {
      "inputs": [
        {
          "internalType": "address",
          "name": "base",
          "type": "address"
        },
        {
          "internalType": "address",
          "name": "quote",
          "type": "address"
        },
        {
          "internalType": "uint256",
          "name": "poolIdx",
          "type": "uint256"
        },
        {
          "internalType": "int24",
          "name": "tick",
          "type": "int24"
        }
      ],
      "name": "queryLevel",
      "outputs": [
        {
          "internalType": "uint96",
          "name": "bidLots",
          "type": "uint96"
        },
        {
          "internalType": "uint96",
          "name": "askLots",
          "type": "uint96"
        },
        {
          "internalType": "uint64",
          "name": "odometer",
          "type": "uint64"
        }
      ],
      "stateMutability": "view",
      "type": "function"
    },
    {
      "inputs": [
        {
          "internalType": "address",
          "name": "base",
          "type": "address"
        },
        {
          "internalType": "address",
          "name": "quote",
          "type": "address"
        },
        {
          "internalType": "uint256",
          "name": "poolIdx",
          "type": "uint256"
        }
      ],
      "name": "queryLiquidity",
      "outputs": [
        {
          "internalType": "uint128",
          "name": "",
          "type": "uint128"
        }
      ],
      "stateMutability": "view",
      "type": "function"
    },
    {
      "inputs": [
        {
          "internalType": "address",
          "name": "base",
          "type": "address"
        },
        {
          "internalType": "address",
          "name": "quote",
          "type": "address"
        },
        {
          "internalType": "uint256",
          "name": "poolIdx",
          "type": "uint256"
        }
      ],
      "name": "queryPrice",
      "outputs": [
        {
          "internalType": "uint128",
          "name": "",
          "type": "uint128"
        }
      ],
      "stateMutability": "view",
      "type": "function"
    },
    {
      "inputs": [
        {
          "internalType": "address",
          "name": "token",
          "type": "address"
        }
      ],
      "name": "queryProtocolAccum",
      "outputs": [
        {
          "internalType": "uint128",
          "name": "",
          "type": "uint128"
        }
      ],
      "stateMutability": "view",
      "type": "function"
    },
    {
      "inputs": [
        {
          "internalType": "address",
          "name": "owner",
          "type": "address"
        },
        {
          "internalType": "address",
          "name": "token",
          "type": "address"
        }
      ],
      "name": "querySurplus",
      "outputs": [
        {
          "internalType": "uint128",
          "name": "surplus",
          "type": "uint128"
        }
      ],
      "stateMutability": "view",
      "type": "function"
    }
  ],
  "bytecode": {
    "object": "0x60803461007457601f61076938819003918201601f19168301916001600160401b038311848410176100795780849260209460405283398101031261007457516001600160a01b0381169081900361007457600080546001600160a01b0319169190911790556040516106d990816100908239f35b600080fd5b634e487b7160e01b600052604160045260246000fdfe604060808152600436101561001357600080fd5b600090813560e01c8063338adc671461037f578063340bfa121461025a57806356bf0f5b146101eb57806387834a0e146101c45780638e56c1c114610167578063ed8f58f41461009b5763f8c7efa71461006c57600080fd5b34610097576020906001600160801b0361008e6100883661040a565b91610493565b51169051908152f35b5080fd5b5090346101525760209182600319360112610097576001600160a01b0383816100c26103d9565b1683518281019182526201000c858201528481526100df8161043f565b519020918454169160248451809481936302ce8af360e01b835260048301525afa92831561015c578093610120575b50506001600160801b03905191168152f35b909192508382813d8311610155575b6101398183610471565b81010312610152575051906001600160801b033861010e565b80fd5b503d61012f565b8251903d90823e3d90fd5b50346100975760a09061017c6100883661040a565b8151916001600160801b03808351168452806020840151166020850152818301511690830152608067ffffffffffffffff918260608201511660608501520151166080820152f35b5034610097578160031936011261009757905490516001600160a01b039091168152602090f35b5090346101525781600319360112610152576102056103d9565b9161020e6103f4565b81516001600160a01b03948516602080830191825292861682850152838252919491859161023b8161043f565b519020835182810191825262010010858201528481526100df8161043f565b5034610097576080366003190112610097576102746103d9565b9061027d6103f4565b606435928360020b840361037b57610298916044359161061f565b815160209384820192835260e81b83820152602381526102b78161043f565b519020815183810191825262010002838201528281526102d68161043f565b519020835482516302ce8af360e01b815260048101929092528390829060249082906001600160a01b03165afa90811561037157849161033c575b50606093508151926bffffffffffffffffffffffff808316855282861c169084015260c01c90820152f35b90508281813d831161036a575b6103538183610471565b8101031261036657606093505138610311565b8380fd5b503d610349565b82513d86823e3d90fd5b8480fd5b5034610097576103916100883661040a565b906001600160801b038080836103bc8260208801511667ffffffffffffffff6060890151169061066f565b95015116840116921682106103d5576020925051908152f35b8280fd5b600435906001600160a01b03821682036103ef57565b600080fd5b602435906001600160a01b03821682036103ef57565b60609060031901126103ef576001600160a01b039060043582811681036103ef579160243590811681036103ef579060443590565b6060810190811067ffffffffffffffff82111761045b57604052565b634e487b7160e01b600052604160045260246000fd5b90601f8019910116810190811067ffffffffffffffff82111761045b57604052565b9291604090815160a081019067ffffffffffffffff918181108382111761045b57845260009081815260209182820190808252868301938185526104e76060850197838952608086019a848c52869d61061f565b88518281019182526201000f8a8201528981526105038161043f565b5190209160018060a01b03815416918951936302ce8af360e01b8086528160048701528286602481885afa9586156106155784966105e6575b50600182018092116105d25790602483928d519687938492835260048301525afa998a156105c757508199610594575b5050506001600160801b0392838216905260801c9052841690528260801c16905260c01c9052565b909180939950813d83116105c0575b6105ad8183610471565b810103126101525750519538808061056c565b503d6105a3565b51913d9150823e3d90fd5b634e487b7160e01b84526011600452602484fd5b9095508281813d831161060e575b6105fe8183610471565b810103126103665751943861053c565b503d6105f4565b8c513d86823e3d90fd5b6001600160a01b0390811692911690818310156103ef57604051916020830193845260408301526060820152606081526080810181811067ffffffffffffffff82111761045b5760405251902090565b67ffffffffffffffff916001600160801b039283911666010000000000000191160260301c81811161069f571690565b509056fea2646970667358221220c7f514bf3995e7b5e673aff120c73ce449cc0d674948c980920292185e530b9e64736f6c63430008130033",
    "linkReferences": {}
  },
  "methodIdentifiers": {
    "dex_()": "87834a0e",
    "queryCurve(address,address,uint256)": "8e56c1c1",
    "queryLevel(address,address,uint256,int24)": "340bfa12",
    "queryLiquidity(address,address,uint256)": "338adc67",
    "queryPrice(address,address,uint256)": "f8c7efa7",
    "queryProtocolAccum(address)": "ed8f58f4",
    "querySurplus(address,address)": "56bf0f5b"
  },
  "id": 57
}