{
  "abi": [
    {
      "inputs": [
        {
          "internalType": "address",
          "name": "recv",
          "type": "address"
        }
      ],
      "stateMutability": "nonpayable",
      "type": "constructor"
    },
    {
      "inputs": [],
      "name": "ethFlow",
      "outputs": [
        {
          "internalType": "int128",
          "name": "",
          "type": "int128"
        }
      ],
      "stateMutability": "view",
      "type": "function"
    },
    {
      "inputs": [],
      "name": "fund",
      "outputs": [],
      "stateMutability": "payable",
      "type": "function"
    },
    {
      "inputs": [
        {
          "internalType": "address",
          "name": "tgt",
          "type": "address"
        }
      ],
      "name": "getBalance",
      "outputs": [
        {
          "internalType": "uint256",
          "name": "",
          "type": "uint256"
        }
      ],
      "stateMutability": "view",
      "type": "function"
    },
    {
      "inputs": [],
      "name": "getMyBalance",
      "outputs": [
        {
          "internalType": "uint256",
          "name": "",
          "type": "uint256"
        }
      ],
      "stateMutability": "view",
      "type": "function"
    },
    {
      "inputs": [],
      "name": "isFinal_",
      "outputs": [
        {
          "internalType": "bool",
          "name": "",
          "type": "bool"
        }
      ],
      "stateMutability": "view",
      "type": "function"
    },
    {
      "inputs": [
        {
          "internalType": "bool",
          "name": "isFinal",
          "type": "bool"
        }
      ],
      "name": "setFinal",
      "outputs": [],
      "stateMutability": "nonpayable",
      "type": "function"
    },
    {
      "inputs": [
        {
          "internalType": "address",
          "name": "recv",
          "type": "address"
        },
        {
          "internalType": "address",
          "name": "token",
          "type": "address"
        }
      ],
      "name": "testQuerySurplus",
      "outputs": [
        {
          "internalType": "uint128",
          "name": "",
          "type": "uint128"
        }
      ],
      "stateMutability": "view",
      "type": "function"
    },
    {
      "inputs": [
        {
          "internalType": "int128",
          "name": "flow",
          "type": "int128"
        },
        {
          "internalType": "address",
          "name": "token",
          "type": "address"
        },
        {
          "internalType": "int128",
          "name": "limitQty",
          "type": "int128"
        },
        {
          "internalType": "uint128",
          "name": "dustThresh",
          "type": "uint128"
        },
        {
          "internalType": "bool",
          "name": "useSurplus",
          "type": "bool"
        }
      ],
      "name": "testSettle",
      "outputs": [],
      "stateMutability": "payable",
      "type": "function"
    },
    {
      "inputs": [
        {
          "internalType": "int128",
          "name": "flow",
          "type": "int128"
        },
        {
          "internalType": "address",
          "name": "token",
          "type": "address"
        },
        {
          "internalType": "uint128",
          "name": "dustThresh",
          "type": "uint128"
        }
      ],
      "name": "testSettleDust",
      "outputs": [],
      "stateMutability": "payable",
      "type": "function"
    },
    {
      "inputs": [
        {
          "internalType": "int128",
          "name": "flow",
          "type": "int128"
        },
        {
          "internalType": "address",
          "name": "token",
          "type": "address"
        }
      ],
      "name": "testSettleFlow",
      "outputs": [],
      "stateMutability": "payable",
      "type": "function"
    },
    {
      "inputs": [
        {
          "internalType": "int128",
          "name": "flowOne",
          "type": "int128"
        },
        {
          "internalType": "int128",
          "name": "flowTwo",
          "type": "int128"
        },
        {
          "internalType": "address",
          "name": "token",
          "type": "address"
        }
      ],
      "name": "testSettleFlowTwo",
      "outputs": [],
      "stateMutability": "payable",
      "type": "function"
    },
    {
      "inputs": [
        {
          "internalType": "int128",
          "name": "flow",
          "type": "int128"
        },
        {
          "internalType": "address",
          "name": "token",
          "type": "address"
        },
        {
          "internalType": "int128",
          "name": "limitQty",
          "type": "int128"
        },
        {
          "internalType": "uint128",
          "name": "dustThresh",
          "type": "uint128"
        },
        {
          "internalType": "bool",
          "name": "useSurplus",
          "type": "bool"
        }
      ],
      "name": "testSettleInner",
      "outputs": [],
      "stateMutability": "payable",
      "type": "function"
    },
    {
      "inputs": [
        {
          "internalType": "int128",
          "name": "flow",
          "type": "int128"
        },
        {
          "internalType": "address",
          "name": "token",
          "type": "address"
        },
        {
          "internalType": "int128",
          "name": "limitQty",
          "type": "int128"
        }
      ],
      "name": "testSettleLimit",
      "outputs": [],
      "stateMutability": "payable",
      "type": "function"
    },
    {
      "inputs": [
        {
          "internalType": "int128",
          "name": "flow",
          "type": "int128"
        },
        {
          "internalType": "address",
          "name": "token",
          "type": "address"
        }
      ],
      "name": "testSettleReserves",
      "outputs": [],
      "stateMutability": "payable",
      "type": "function"
    }
  ],
  "bytecode": {
    "object": "0x60803461009a57601f61115438819003918201601f19168301916001600160401b0383118484101761009f5780849260209460405283398101031261009a57516001600160a01b0381169081900361009a5762010011805460ff60e01b1916600160e71b1790556201002280546001600160a01b03199081168317909155620100238054909116909117905560405161109e90816100b68239f35b600080fd5b634e487b7160e01b600052604160045260246000fdfe604060808152600436101561001357600080fd5b600090813560e01c80630556ac3614610670578063404bf8921461064d5780634c738909146106335780636782b9e1146104f857806387ed7a341461044b5780638fde3a0c146104025780639dbf7e03146103c1578063a122db4b14610352578063b0ffcb421461032a578063b60d428814610318578063b8bc136b146102d0578063bc2c526914610131578063dc3f180b146100e15763f8b2cb4f146100b957600080fd5b346100dd5760203660031901126100dd576020906100d56106b4565b319051908152f35b5080fd5b826100eb366106ca565b8554949093919291906001600160a01b03861661012d576001600160a01b03199095163317865561011b94610928565b8054600161ff0160a01b031916815580f35b8680fd5b5060603660031901126100dd57610146610689565b61014e61069e565b916044359182600f0b8093036102cc5784546001600160a01b03939084811661012d576001600160a01b03191633178655825194849061018d87610729565b168552602085015284828501526060840190858252620100249460ff865460801c1660001461028557906101d96101df9286620100225416966201002354169754600f0b928888610a1b565b906107a6565b905115159285549260ff8460a81c1661025d57506001600160801b0334169234840361012d5760ff60a81b1916600160a81b17865585600f83900b1561022a57509361011b94610c9f565b93505050918261023d575b50505061011b565b81806102559481935af161024f610e56565b50610eb9565b388181610235565b5162461bcd60e51b8152602060048201526002602482015261445360f01b6044820152606490fd5b92509050826102a1936201002254169062010023541690610a1b565b6102b082549182600f0b6107a6565b6001600160801b0316906001600160801b03191617905561011b565b8480fd5b50346100dd57806003193601126100dd576001600160801b03816020936103066102f86106b4565b61030061069e565b90610777565b81526201001085522054169051908152f35b82806003193601126103275780f35b80fd5b50346100dd57816003193601126100dd5760209060ff620100245460801c1690519015158152f35b82606036600319011261032757610367610689565b60243580600f0b81036103bd576001600160a01b0391604435919083831683036102cc5784549384166102cc57826103b89161011b9533906bffffffffffffffffffffffff60a01b161787556107e2565b6107e2565b8280fd5b8234610327576020366003190112610327576004358015158091036100dd5762010024805460ff60801b191660809290921b60ff60801b1691909117905580f35b5036600319011261032757610415610689565b61041d61069e565b8254916001600160a01b038316610447576001600160a01b03199092163317835561011b916107e2565b8380fd5b50806003193601126100dd5761045f610689565b61046761069e565b835490926001600160a01b039290918381166104f4576001600160a01b03191633178555815193839061049986610729565b16845260016001607f1b0360208501528482850152606084019060018252620100249460ff865460801c1660001461028557906104eb6101df9286620100225416966201002354169754928888610a1b565b90600f0b6107a6565b8580fd5b5060603660031901126100dd5761050d610689565b61051561069e565b91604435916001600160801b03928381168091036104f45785546001600160a01b03919082811661062f576001600160a01b03191633178755835195829061055c88610729565b16865260016001607f1b036020870152838601526060850191868352620100249560ff875460801c166000146105ef57906104eb6105ac9284620100225416946201002354169854928986610a1b565b915115159386549360ff8560a81c1661025d575034169234840361012d5760ff60a81b1916600160a81b17865585600f83900b1561022a57509361011b94610c9f565b92509061060b9350806201002254169062010023541690610a1b565b9061061b83549283600f0b6107a6565b16906001600160801b03191617905561011b565b8780fd5b50346100dd57816003193601126100dd5751478152602090f35b50346100dd57816003193601126100dd576020906201002454600f0b9051908152f35b8261068661067d366106ca565b93929092610928565b80f35b6004359081600f0b820361069957565b600080fd5b602435906001600160a01b038216820361069957565b600435906001600160a01b038216820361069957565b60a09060031901126106995760043580600f0b810361069957906024356001600160a01b0381168103610699579060443580600f0b810361069957906064356001600160801b0381168103610699579060843580151581036106995790565b6080810190811067ffffffffffffffff82111761074557604052565b634e487b7160e01b600052604160045260246000fd5b6060810190811067ffffffffffffffff82111761074557604052565b604080516001600160a01b0392831660208201908152939092168282015281526107a08161075b565b51902090565b90600f0b90600f0b019060016001607f1b0319821260016001607f1b038313176107cc57565b634e487b7160e01b600052601160045260246000fd5b90604051916107f083610729565b60018060a01b03809216835260016001607f1b0360208401526000908160408501526060840190828252620100249460ff865460801c166000146108e457906104eb61084e9286620100225416966201002354169754928888610a1b565b905115159282549260ff8460a81c166108ba576001600160801b033416933485036100dd5760ff60a81b1916600160a81b178155600f83900b1561089957509361089794610c9f565b565b9350505091826108a857505050565b81806108979481935af161024f610e56565b60405162461bcd60e51b8152602060048201526002602482015261445360f01b6044820152606490fd5b9250905082610900936201002254169062010023541690610a1b565b61090f82549182600f0b6107a6565b6001600160801b0316906001600160801b031916179055565b6040519491939261093886610729565b60018060a01b038095168652600f0b60208601526001600160801b038093166040860152606085019115158252620100249460ff865460801c166000146109df57906101d961099c9286620100225416966201002354169754600f0b928888610a1b565b9051151592600080549360ff8560a81c166108ba573416933485036100dd5760ff60a81b1916600160a81b178155600f83900b1561089957509361089794610c9f565b9150836109fa93946201002254169062010023541690610a1b565b90610a0a83549283600f0b6107a6565b16906001600160801b031916179055565b91939290936000946020830151600f0b82600f0b13610a7d57610a4b6001600160801b0360408501511683611039565b610a56575b50505050565b610a73949550606060018060a01b03845116930151151593610aa6565b9038808080610a50565b60405162461bcd60e51b81526020600482015260016024820152604b60f81b6044820152606490fd5b91936001600160a01b039391848316610ac157505050505090565b85600f9692939495960b6000968188809313600014610b8157505050506001600160801b039080821692600014610b76578592610afe8587610777565b875262010010602052604087209182548480821692168211600014610b5757505082610b2e835492828416611020565b16906001600160801b0319161790555b811615610b5157610b4e92610eea565b90565b50505090565b6001600160801b031916909255919250610b7091611020565b90610b3e565b5050610b4e92610eea565b829492919395975012610b98575b50505050505090565b610ba190610c7e565b9415610bf557505090610bb391610777565b8252620100106020526040822090815490610bda6001600160801b03918216828416611005565b16906001600160801b0319161790555b388080838180610b8f565b9181809492936001600160801b03610c4a9760405192602084019563a9059cbb60e01b875216602484015216604482015260448152610c3381610729565b51925af1610c3f610e56565b81610c4f5750610eb9565b610bea565b8051801592508215610c64575b50503861024f565b610c779250602080918301019101610ea1565b3880610c5c565b600f0b6f7fffffffffffffffffffffffffffffff1981146107cc5760000390565b9391600091600f82900b83811315610d7f5750506001600160801b039080821693600014610d73578293604051602081019060018060a01b038916825285604082015260408152610cef8161075b565b519020845262010010602052604084209182548480821692168211600014610d5457505082610d22835492828416611020565b16906001600160801b0319161790555b82811615610d4557505061089792610fc9565b9150911691826108a857505050565b6001600160801b031916909255919350610d6d91611020565b91610d32565b50505061089792610fc9565b83959391965012610d92575b5050505050565b610d9b90610c7e565b6001600160801b03929083169015610e3357604080516001600160a01b03871660208201908152818301879052918152610dd48161075b565b519020845262010010602052604084209083610df4835492828416611005565b16906001600160801b031916179055169182610e19575b5050505b3880808080610d8b565b8180610e2b9481935af161024f610e56565b388080610e0b565b610e51948493610e4585948594611005565b16905af161024f610e56565b610e0f565b3d15610e9c5767ffffffffffffffff903d8281116107455760405192601f8201601f19908116603f01168401908111848210176107455760405282523d6000602084013e565b606090565b90816020910312610699575180151581036106995790565b15610ec057565b60405162461bcd60e51b81526020600482015260026024820152612a2360f11b6044820152606490fd5b916001600160a01b03808216610f635750506001600160801b038091169081610f39576000918203818111610f25571691826108a857505050565b634e487b7160e01b83526011600452602483fd5b60405162461bcd60e51b8152602060048201526002602482015261454360f01b6044820152606490fd5b90916001600160801b03906040519260208401956323b872dd60e01b87521660248401523060448401521660648201526064815260a081019181831067ffffffffffffffff84111761074557610897936000809493819460405251925af1610c3f610e56565b916001600160801b039182811683831610610f3957610fe791611020565b1680610ff1575050565b600080808093610897955af161024f610e56565b9190916001600160801b03808094169116019182116107cc57565b6001600160801b0391821690821603919082116107cc57565b600081600f0b1360001461104e575050600190565b61105790610c7e565b6001600160801b039182169116119056fea26469706673582212201faa038abb710596b7530cc567ab94bb40bd06fdc2ebc9fa70df2365114d776d64736f6c63430008130033",
    "linkReferences": {}
  },
  "methodIdentifiers": {
    "ethFlow()": "404bf892",
    "fund()": "b60d4288",
    "getBalance(address)": "f8b2cb4f",
    "getMyBalance()": "4c738909",
    "isFinal_()": "b0ffcb42",
    "setFinal(bool)": "9dbf7e03",
    "testQuerySurplus(address,address)": "b8bc136b",
    "testSettle(int128,address,int128,uint128,bool)": "dc3f180b",
    "testSettleDust(int128,address,uint128)": "6782b9e1",
    "testSettleFlow(int128,address)": "8fde3a0c",
    "testSettleFlowTwo(int128,int128,address)": "a122db4b",
    "testSettleInner(int128,address,int128,uint128,bool)": "0556ac36",
    "testSettleLimit(int128,address,int128)": "bc2c5269",
    "testSettleReserves(int128,address)": "87ed7a34"
  },
  "id": 82
}