{
  "abi": [
    {
      "inputs": [
        {
          "internalType": "bool",
          "name": "accept",
          "type": "bool"
        }
      ],
      "stateMutability": "nonpayable",
      "type": "constructor"
    },
    {
      "inputs": [
        {
          "internalType": "address",
          "name": "sender",
          "type": "address"
        },
        {
          "internalType": "bytes32",
          "name": "poolHash",
          "type": "bytes32"
        },
        {
          "internalType": "int24",
          "name": "lowerTick",
          "type": "int24"
        },
        {
          "internalType": "int24",
          "name": "upperTick",
          "type": "int24"
        },
        {
          "internalType": "uint128",
          "name": "liq",
          "type": "uint128"
        },
        {
          "internalType": "uint72",
          "name": "mileage",
          "type": "uint72"
        }
      ],
      "name": "depositCrocLiq",
      "outputs": [
        {
          "internalType": "bool",
          "name": "",
          "type": "bool"
        }
      ],
      "stateMutability": "nonpayable",
      "type": "function"
    },
    {
      "inputs": [
        {
          "internalType": "address",
          "name": "base",
          "type": "address"
        },
        {
          "internalType": "address",
          "name": "quote",
          "type": "address"
        },
        {
          "internalType": "uint256",
          "name": "poolIdx",
          "type": "uint256"
        }
      ],
      "name": "hashMatches",
      "outputs": [
        {
          "internalType": "bool",
          "name": "",
          "type": "bool"
        }
      ],
      "stateMutability": "view",
      "type": "function"
    },
    {
      "inputs": [],
      "name": "isDeposit_",
      "outputs": [
        {
          "internalType": "bool",
          "name": "",
          "type": "bool"
        }
      ],
      "stateMutability": "view",
      "type": "function"
    },
    {
      "inputs": [],
      "name": "liqSnap_",
      "outputs": [
        {
          "internalType": "uint128",
          "name": "",
          "type": "uint128"
        }
      ],
      "stateMutability": "view",
      "type": "function"
    },
    {
      "inputs": [],
      "name": "lowerSnap_",
      "outputs": [
        {
          "internalType": "int24",
          "name": "",
          "type": "int24"
        }
      ],
      "stateMutability": "view",
      "type": "function"
    },
    {
      "inputs": [],
      "name": "mileageSnap_",
      "outputs": [
        {
          "internalType": "uint72",
          "name": "",
          "type": "uint72"
        }
      ],
      "stateMutability": "view",
      "type": "function"
    },
    {
      "inputs": [],
      "name": "poolSnap_",
      "outputs": [
        {
          "internalType": "bytes32",
          "name": "",
          "type": "bytes32"
        }
      ],
      "stateMutability": "view",
      "type": "function"
    },
    {
      "inputs": [],
      "name": "senderSnap_",
      "outputs": [
        {
          "internalType": "address",
          "name": "",
          "type": "address"
        }
      ],
      "stateMutability": "view",
      "type": "function"
    },
    {
      "inputs": [
        {
          "internalType": "bool",
          "name": "accept",
          "type": "bool"
        }
      ],
      "name": "setAccept",
      "outputs": [],
      "stateMutability": "nonpayable",
      "type": "function"
    },
    {
      "inputs": [],
      "name": "upperSnap_",
      "outputs": [
        {
          "internalType": "int24",
          "name": "",
          "type": "int24"
        }
      ],
      "stateMutability": "view",
      "type": "function"
    },
    {
      "inputs": [
        {
          "internalType": "address",
          "name": "sender",
          "type": "address"
        },
        {
          "internalType": "bytes32",
          "name": "poolHash",
          "type": "bytes32"
        },
        {
          "internalType": "int24",
          "name": "lowerTick",
          "type": "int24"
        },
        {
          "internalType": "int24",
          "name": "upperTick",
          "type": "int24"
        },
        {
          "internalType": "uint128",
          "name": "liq",
          "type": "uint128"
        },
        {
          "internalType": "uint72",
          "name": "mileage",
          "type": "uint72"
        }
      ],
      "name": "withdrawCrocLiq",
      "outputs": [
        {
          "internalType": "bool",
          "name": "",
          "type": "bool"
        }
      ],
      "stateMutability": "nonpayable",
      "type": "function"
    }
  ],
  "bytecode": {
    "object": "0x60803461006657601f6104ad38819003918201601f19168301916001600160401b0383118484101761006b5780849260209460405283398101031261006657518015158091036100665760ff80196000541691161760005560405161042b90816100828239f35b600080fd5b634e487b7160e01b600052604160045260246000fdfe60806040818152600436101561001457600080fd5b600091823560e01c9081630c7e361814610363575080631547eb13146103455780634fc3aa7c14610317578063668e2cdb1461028b57806388014d77146101ea57806393835c1e14610164578063b962423814610143578063c8adf80914610119578063df35a724146100ed578063f0b1ced1146100c95763f81d3d1a1461009b57600080fd5b346100c557816003193601126100c5579054905160089190911c6001600160a01b03168152602090f35b5080fd5b50346100c557816003193601126100c55760209060025460181c60020b9051908152f35b50346100c557816003193601126100c55760209068ffffffffffffffffff60025460b01c169051908152f35b50346100c557816003193601126100c5576020906001600160801b0360025460301c169051908152f35b50346100c557816003193601126100c55760209060025460020b9051908152f35b50346100c55760ff65ffffff0000009160209362ffffff6601000000000000600160b01b0361019236610384565b91949a939096929780549b610100600160a81b039060081b16610100600160a81b03198d1617905560015568ffffffffffffffffff60b01b9060b01b1695169160181b16179160301b16171760025551911615158152f35b509034610288576060366003190112610288576001600160a01b036004358181169081900361028457602435918216809203610284576001549180821015610280578451906020820192835285820152604435606082015260608152608081019381851067ffffffffffffffff86111761026c57508360209552519020148152f35b634e487b7160e01b81526041600452602490fd5b8380fd5b8280fd5b80fd5b50346100c5579060ff6020926601000000000000600160b01b036102ae36610384565b95929498809491945499610100600160a81b039060081b16610100600160a81b03198b1617905560015565ffffff00000062ffffff600160f81b9668ffffffffffffffffff60b01b9060b01b1695169160181b16179160301b1617171760025551911615158152f35b8234610288576020366003190112610288576004358015158091036100c55760ff8019835416911617815580f35b50346100c557816003193601126100c5576020906001549051908152f35b8390346100c557816003193601126100c55760209060025460f81c15158152f35b60c09060031901126103f0576004356001600160a01b03811681036103f05790602435906044358060020b81036103f057906064358060020b81036103f057906084356001600160801b03811681036103f0579060a43568ffffffffffffffffff811681036103f05790565b600080fdfea264697066735822122024a43ac1217ec782979882b7d143e9372051dd63058ee37ca3836a73e9078de864736f6c63430008130033",
    "linkReferences": {}
  },
  "methodIdentifiers": {
    "depositCrocLiq(address,bytes32,int24,int24,uint128,uint72)": "668e2cdb",
    "hashMatches(address,address,uint256)": "88014d77",
    "isDeposit_()": "0c7e3618",
    "liqSnap_()": "c8adf809",
    "lowerSnap_()": "b9624238",
    "mileageSnap_()": "df35a724",
    "poolSnap_()": "1547eb13",
    "senderSnap_()": "f81d3d1a",
    "setAccept(bool)": "4fc3aa7c",
    "upperSnap_()": "f0b1ced1",
    "withdrawCrocLiq(address,bytes32,int24,int24,uint128,uint72)": "93835c1e"
  },
  "id": 61
}