{
  "abi": [
    {
      "inputs": [
        {
          "internalType": "address",
          "name": "dex",
          "type": "address"
        },
        {
          "internalType": "uint16",
          "name": "slot",
          "type": "uint16"
        }
      ],
      "name": "acceptCrocProxyRole",
      "outputs": [
        {
          "internalType": "bool",
          "name": "",
          "type": "bool"
        }
      ],
      "stateMutability": "payable",
      "type": "function"
    },
    {
      "inputs": [],
      "name": "proxyDex_",
      "outputs": [
        {
          "internalType": "address",
          "name": "",
          "type": "address"
        }
      ],
      "stateMutability": "view",
      "type": "function"
    },
    {
      "inputs": [],
      "name": "proxySlot_",
      "outputs": [
        {
          "internalType": "uint16",
          "name": "",
          "type": "uint16"
        }
      ],
      "stateMutability": "view",
      "type": "function"
    },
    {
      "inputs": [
        {
          "internalType": "uint16",
          "name": "slot",
          "type": "uint16"
        },
        {
          "internalType": "address",
          "name": "proxyDex",
          "type": "address"
        }
      ],
      "name": "setRole",
      "outputs": [],
      "stateMutability": "nonpayable",
      "type": "function"
    }
  ],
  "bytecode": {
    "object": "0x60808060405234610016576101aa908161001c8239f35b600080fdfe608080604052600436101561001357600080fd5b600090813560e01c9081630dbd4d6f1461011b578163975113c1146100f957508063ac54c0fc1461007a5763c9ec4fd31461004d57600080fd5b346100775780600319360112610077575460405160109190911c6001600160a01b03168152602090f35b80fd5b506040366003190112610077576001600160a01b03600435818116908190036100f5576024359061ffff918281168091036100f15760209454938460101c169283159485156100d0575b86866040519015158152f35b1614925090826100e7575b505038808080806100c4565b14905038806100db565b8480fd5b8280fd5b90503461011757816003193601126101175761ffff60209254168152f35b5080fd5b82346100775760403660031901126100775760043561ffff811680910361011757602435906001600160a01b03821682036100f55782546001600160b01b0319161760109190911b62010000600160b01b031617815580f3fea26469706673582212206a96fe009ad86b0582a96ae13be75d59b35fa2bca97c61d8c3edc543f40b36f164736f6c63430008130033",
    "linkReferences": {}
  },
  "methodIdentifiers": {
    "acceptCrocProxyRole(address,uint16)": "ac54c0fc",
    "proxyDex_()": "c9ec4fd3",
    "proxySlot_()": "975113c1",
    "setRole(uint16,address)": "0dbd4d6f"
  },
  "id": 66
}